:020000040800F2
:10000000F0FF0120199B0608A5F500080DD804088B
:10001000919B0608919B0608919B06080000000032
:10002000000000000000000000000000A1F5000832
:100030009DF500080000000099F5000899A3040848
:10004000919B0608919B0608919B0608919B0608C8
:10005000919B0608919B0608C5EB0408F1EC040887
:10006000B5EC040879EC04083DEC0408057A0608B0
:10007000F5790608E5790608D5790608C1790608F4
:10008000AD79060899790608919B060800000000E2
:1000900000000000000000000000000001EC040867
:1000A00091640408DD64040881640408016504089F
:1000B000D1640408C1640408B164040829880608EE
:1000C000318806081D88060825880608919B0608C1
:1000D000919B0608B5A50408F9A4040800000000D7
:1000E00089EB0408919B0608610E010800000000DE
:1000F00000000000000000000000000085790608F4
:1001000000000000A5540608A1640408919B06089D
:1001100000000000000000000000000000000000DF
:10012000717906085D790608497906083579060867
:100130002179060800000000000000000000000017
:1001400000000000000000000000000035EF000883
:100150000D790608F9780608E57806083DA4040834
:100160001188060819880608000000000000000039
:10017000000000000000000000000000000000007F
:1001800000000000919B0608000000000000000035
:08019000919B0608919B0608F3
:08019800B8960600010000000A
:1001A0000E02010002000000C86900203C6A002025
:1001B00000000000F0ED0708140201000500000037
:1001C000A03B0020406A002000000000F2ED07087C
:1001D00013020100040000009C250020486A002052
:1001E00000000000F8ED07081220010011000000D7
:1001F000286A00204C6A002000000000FCED07087F
:100200000D1001004C000000C4640020606A002052
:1002100000000000B1DE0308090201000100000037
:100220002C640020AC6A0020000000000EEE0708DD
:10023000FD01010024000000E4630020B06A0020FA
:1002400000000000CB4B0408FB010100010000008E
:10025000245F0020D46A002000000000E166050849
:10026000FC01010009000000F05D0020D86A0020B8
:1002700000000000E9660508F70101000600000023
:10028000E45D0020E46A00200000000010EE070892
:10029000F901010004000000E05D0020EC6A00208C
:1002A00000000000B9DA0408160215003F00000043
:1002B000402F0020F06A00200000000009670508B8
:1002C0003400010010000000105D0020306B0020A1
:1002D00000000000FD9A0208110201000800000061
:1002E000E85C0020406B00200000000016EE0708CC
:1002F0001212010004000000E05C0020486B0020A6
:10030000000000001EEE0708183001003400000055
:10031000AC5C00204C6B002000000000A1700508C0
:10032000000201000B00000030590020806B00200B
:10033000000000002D670508FF1101000600000005
:10034000DC5800208C6B002000000000C16605080E
:10035000081203000F000000E8580020946B0020F2
:100360000000000035670508FA01010003000000E5
:10037000CC520020A46B002000000000016705089B
:100380000A9001002C000000884A0020A86B002081
:1003900000000000490C0208204201000600000095
:1003A000E4480020D46B002000000000219B0208DC
:1003B00006100100240000005C2E0020DC6B0020F1
:1003C00000000000B16705080C02010004000000F5
:1003D00068420020006C002000000000D166050883
:1003E000FE01010014000000183D0020046C0020F4
:1003F0000000000085660508261001000E000000C0
:1004000050D8002040D80020000000003120010812
:100410000B3001001A00000000D1002090D800200D
:100420000000000024EE07081F5001002400000017
:1004300024D00020ACD800200000000040EE0708C7
:100440000502010004000000F8D20020D0D80020EE
:100450000000000064EE0708030101000A0000002C
:1004600050D00020D4D8002000000000D91A010884
:10047000010201000B000000B0DE0020CCEF0020E4
:10048000000000001D6705080202010003000000D3
:10049000A8DE0020D8EF00200000000000000000CF
:1004A0001B0201001000000094DE0020DCEF0020A1
:1004B000000000009D6705081B1001000C000000F3
:1004C000E0DB0020ECEF002000000000AD87010819
:1004D00021020100F000000014DA0020F8EF0020F3
:1004E00000000000F19C01083710010030000000FE
:1004F0006CDF0020E8F000200000000068EE070834
:10050000161001000600000058DE002018F100203F
:100510000000000098EE07082F10010022000000E4
:10052000A8EF002020F10020000000009EEE070848
:10053000232201001000000070DD002044F10020A3
:1005400000000000C0EE07081E00010009000000C6
:1005500064DD002054F1002000000000D0EE070808
:10056000052001000C00000028DE002060F10020C2
:1005700000000000DCEE0708FD0701007C00000021
:10058000E0D800206CF1002000000000318101085B
:10059000F59101006C000000A0D90020E8F10020D6
:1005A00000000000859401082320010010000000D5
:1005B000CEDE002054F2002000000000A10C020852
:1005C000F62101000C000000F0FE0020CCFF00200E
:1005D00000000000E8EE07081C0202001C000000FA
:1005E00080FE00201C00012000000000456E050870
:1005F00028300100160000009CFE00203800012079
:1006000000000000D51902081400010005000000D8
:1006100078FE00205000012000000000F4EE0708E2
:10062000012001000C00000074F700205800012098
:1006300000000000FAEE07080C400600E40000008D
:10064000A4F500206400012000000000DDD90308AB
:100650000E200300BC010000C0F30020480101206F
:1006600000000000359B0208130001000400000098
:100670007CFB0020040301200000000008EF0708B5
:10068000010101000400000004F300200803012020
:100690000000000000000000000101000400000054
:1006A000FCF200200C030120000000000CEF070802
:1006B0000201010003000000F8F2002010030120F5
:1006C000000000001DDA0308220201001C010000E6
:1006D00064F900201403012000000000597005088F
:1006E0001A0001000E000000001101205411012029
:1006F0000000000010EF0708150010007000000057
:100700007C0F0120641101200000000000000000A7
:100710000300010001000000740F0120D41101202A
:1007200000000000000000002A0008006000000037
:100730008C0A0120D811012000000000D59A02087F
:100740002C00040010000000481201203812012083
:10075000000000009D9802082B00120024000000F9
:100760007C1201205812012000000000719802083C
:100770002920140078000000100D0120A012012093
:10078000000000000000000019020100100000003D
:10079000B40C012018130120000000000D670508AB
:1007A000F821010006000000F41601209C1F012022
:1007B000000000001EEF07081010010002000000FA
:1007C00098150120A41F01200000000024EF070855
:1007D000190001000500000028130120A81F0120B6
:1007E0000000000026EF0708020001000C000000D6
:1007F00080210120402301200000000000000000B3
:1008000025201E002C0100008C2101204C230120FA
:10081000000000000000000029020100400000006C
:10082000C820012078240120000000002CEF0708D8
:100830000A02010014000000C01F0120D82401207A
:1008400000000000A9D903082802040004000000E9
:10085000E42E0120F02F0120000000009967050818
:100860002702040004000000E02E0120F42F0120E4
:10087000000000008D6705081F020800100000003E
:10088000342C0120F82F0120000000009D6605088F
:100890001A0201003C00000010260120083001204F
:1008A00000000000FD700508031201003D0000007B
:1008B000D02B012044300120000000006CEF07081D
:1008C00038100100010000000825012084300120BB
:1008D00000000000AAEF07080400080080000000E4
:1008E00050310120D0320120000000000000000043
:1008F0000B2201003D000000B8370120E83E012036
:1009000000000000ACEF07080D1201001400000009
:10091000C43E0120283F012000000000ECEF070842
:100920001E02010006000000B03401203C3F0120FF
:100930000000000000F007081D0202000600000091
:10094000603E0120443F0120000000000000000044
:100950000612030012000000703E0120CC4F01205F
:1009600000000000116F05082700010004000000CE
:100970002C380120E04F01200000000006F007089D
:100980001002010001000000D4890120D08901205B
:08099000000000000AF0070856
:100998000403090412010002EF02014083045632E5
:1009A80000020102030100001201000202020040DD
:1009B800830440570002010203010000FFFFFFFF0C
:1009C8000000040100000000000000021000000008
:1009D800070000007D000000C45C0708CC5C070825
:1009E80000000000A5DA0308A0860100040000004A
:1009F80000000000000000000000000000000000EF
:100A080000000000000000000000000000000000DE
:100A1800000000000000000000000000C45C07089F
:100A2800D45C0708000000000D5B0408E803000020
:100A380004000000000000000000000000000000AA
:100A4800000000000000000000000000000000009E
:100A5800000000000000000000000000000000008E
:100A6800DC5C07080000000000000000E53D03080A
:100A78007D000000FF0000000000000000000000F2
:100A8800000000000000000000000000000000005E
:100A9800000000000000000000000000000000004E
:100AA8000000000048E907080000000000000000FE
:100AB8002D6F03087D000000FF000000000000000B
:100AC800000000000000000000000000000000001E
:100AD800000000000000000000000000000000000E
:100AE8000000000000000000387107080000000046
:100AF80000000000999003087D000000FF0000003E
:100B080000000000000000000000000000000000DD
:100B180000000000000000000000000000000000CD
:100B2800000000000000000000000000E45C07086E
:100B38000000000000000000D1550408E803000090
:100B4800030000000000000000000000000000009A
:100B5800000000000000000000000000000000008D
:100B6800000000000000000000000000000000007D
:100B7800E85C0708000000000000000021450308A9
:100B88001027000003000000000000000000000023
:100B9800000000000000000000000000000000004D
:100BA800000000000000000000000000000000003D
:100BB8000000000050E507080000000065940208E6
:100BC800CD7404085F7600000500000000000000F6
:100BD800000000000000000000000000000000000D
:100BE80000000000000000000000000000000000FD
:100BF8000000000000000000ECE80708000000000A
:100C08000000000071D8040810270000010000004F
:100C180000000000000000000000000000000000CC
:100C280000000000000000000000000000000000BC
:100C3800000000000000000000000000F45C07084D
:100C48000000000000000000614A0408E8030000FA
:100C58000500000000000000000000000000000087
:100C6800000000000000000000000000000000007C
:100C7800000000000000000000000000000000006C
:100C8800005D070800000000000000001DDD0308EB
:100C9800204E0000030000000000000000000000DB
:100CA800000000000000000000000000000000003C
:100CB800000000000000000000000000000000002C
:100CC80000000000105D07080000000000000000A0
:100CD80019DB0308204E000003000000000000009C
:100CE80000000000000000000000000000000000FC
:100CF80000000000000000000000000000000000EC
:100D08000000000000000000205D0708000000004F
:100D180000000000754C0408400D030003000000AB
:100D280000000000000000000000000000000000BB
:100D380000000000000000000000000000000000AB
:100D4800000000000000000000000000305D0708FF
:100D580000000000000000004111040810270000F6
:100D6800010000000000000000000000000000007A
:100D7800000000000000000000000000000000006B
:100D8800000000000000000000000000000000005B
:100D9800385D0708000000000000000051E6010867
:100DA8001027000003000000000000000000000001
:100DB800000000000000000000000000000000002B
:100DC800000000000000000000000000000000001B
:100DD800000000003C5D0708000000000000000063
:100DE800595D0208A0860100010000000000000013
:100DF80000000000000000000000000000000000EB
:100E080000000000000000000000000000000000DA
:100E18000000000000000000445D0708000000001A
:100E2800000000003D54040850C300000100000009
:100E380000000000000000000000000000000000AA
:100E4800000000000000000000000000000000009A
:100E58000000000000000000000000004C5D0708D2
:100E6800000000000000000029500408A8610000EC
:100E78000100000000000000000000000000000069
:100E8800000000000000000000000000000000005A
:100E9800000000000000000000000000000000004A
:100EA800585D0708000000000000000009AA0408B7
:100EB800A00F00000100000000000000000000007A
:100EC800000000000000000000000000000000001A
:100ED800000000000000000000000000000000000A
:100EE80000000000645D070800000000000000002A
:100EF80079D201081027000001000000000000005E
:100F080000000000000000000000000000000000D9
:100F180000000000000000000000000000000000C9
:100F28000000000000000000705D070800000000DD
:100F3800000000002DCA01081A410000010000004D
:100F48000000000000000000000000000000000099
:100F58000000000000000000000000000000000089
:100F6800000000000000000000000000745D070899
:100F78000000000000000000111B010810270000FD
:100F88000100000000000000000000000000000058
:100F98000000000000000000000000000000000049
:100FA8000000000000000000000000000000000039
:100FB800805D070800000000000000007935020885
:100FC80050C3000001000000000000000000000005
:100FD8000000000000000000000000000000000009
:100FE80000000000000000000000000000000000F9
:100FF80000000000845D07080000000000000000F9
:10100800F9280108400D030000000000000000005E
:1010180000000000000000000000000000000000C8
:1010280000000000000000000000000000000000B8
:1010380000000000000000008C5D070800000000B0
:1010480000000000E1DA0308400D03000000000082
:101058000000000000000000000000000000000088
:101068000000000000000000000000000000000078
:10107800000000000000000000000000945D070868
:10108800000000000000000039F6010850C300000D
:101098000300000000000000000000000000000045
:1010A8000000000000000000000000000000000038
:1010B8000000000000000000000000000000000028
:1010C800A05D070800000000000000008DEB030889
:1010D80040420F0000000000000000000000000077
:1010E80000000000000000000000000000000000F8
:1010F80000000000000000000000000000000000E8
:1011080000000000AC5D07080000000000000000BF
:10111800C1E2030850C30000000000000000000006
:1011280000000000000000000000000000000000B7
:1011380000000000000000000000000000000000A7
:101148000000000000000000B85D07080000000073
:10115800000000005D6E010810270000000000007C
:101168000000000000000000000000000000000077
:101178000000000000000000000000000000000067
:101188000000000000000000000000009D8300082F
:1011980099830008958300088983000885830008DF
:1011A800918300088D83000800000000698C000806
:1011B800B1A200082D8C000801A40008418D000888
:1011C8000D840008F9830008DD830008B1210108B7
:1011D8005520010885DA0008F9DA000875DB0008EF
:1011E80029DD000841130108E5830008D5830008BC
:1011F800010000000000803FCD420108D1470108EE
:1012080049430108DD130108C1150108ED13010860
:1012180009140108B5130108A5130108000000000E
:101228000000000009022000010104C03209040086
:101238000002080650050705810240000007050165
:101248000240000009026400030100C032090400E2
:1012580000010300000009211101000122360007E6
:1012680005830309000A080B0102020201000904B0
:1012780001000102020100052400100105240100FB
:10128800020424020205240601020705820308005D
:10129800FF09040200020A000000070501024000DD
:1012A800000705810240000009024300020100C056
:1012B80032090400000102020100052400100105A2
:1012C8002401000104240202052406000107058206
:1012D800030800FF09040100020A000000070501D5
:1012E800024000000705810240000000FF000000E6
:1012F800140000FF0000000000000000AA550701CC
:101308000000010000600240106002400000000080
:1013180000000000000B00000000000000000000BA
:101328000000000000600240286002400100000048
:1013380000000000060C0000000000000000000093
:10134800000000000060024040600240020000000F
:1013580000000000100D0000000000000000000068
:1013680000000000006002405860024003000000D6
:1013780000000000160E0000000000000000000041
:10138800000000000060024070600240040000009D
:1013980000000000200F0000000000000000000016
:1013A8000000000000600240886002400500000064
:1013B80000000000261000000000000000000000EF
:1013C8000000000000600240A0600240060000002B
:1013D80000000000301100000000000000000000C4
:1013E8000000000000600240B860024007000000F2
:1013F80000000000362F0000000000000000000080
:101408000000000000640240106402400000000078
:10141800000000000038000000000000000000008C
:10142800000000000064024028640240010000003F
:101438000000000006390000000000000000000065
:101448000000000000640240406402400200000006
:1014580000000000103A000000000000000000003A
:1014680000000000006402405864024003000000CD
:1014780000000000163B0000000000000000000013
:101488000000000000640240706402400400000094
:1014980000000000203C00000000000000000000E8
:1014A800000000000064024088640240050000005B
:1014B80000000000264400000000000000000000BA
:1014C8000000000000640240A06402400600000022
:1014D800000000003045000000000000000000008F
:1014E8000000000000640240B864024007000000E9
:1014F8000000000036460000000000000000000068
:1015080000000000AA55050100002D202D2D202DDA
:101518002D2D2D202D2D2D2D000000000000000068
:10152800000000000000000000080000A4CF06082A
:10153800FF1FFF1F05010905A101A10005010930D1
:101548000931093209330935093409360937158152
:10155800257F7508950881020509190129081500D4
:101568002501950875018102C0C00000090222000A
:10157800010100E032090400000103010200092111
:10158800110100012236000705830309000A000043
:101598000000000001020304010203040607080911
:1015A800AA550B010000AA5505010000AA55090219
:1015B800000000AA5503009F01000000C0120000AF
:1015C80088D800200000000060D80020000000003B
:1015D800010000000100000000000100E0017EFFA2
:1015E800FFFFFFFFFF000000FFFFFFFF0801FF01F3
:1015F800010000008D01020800000000000000004A
:1016080064D7060800000000000000000000000089
:1016180038F006080000000000000000000000008C
:10162800F0F00608000000000000000000000000C4
:101638009CF0060800000000000000000D0D0208E4
:1016480072F800200101000091210208000000004A
:1016580000000000C4F10608F124020800000000A0
:10166800000000007CF106082D202D2D202D2D2DA9
:101678002D202D2D2D00000000000000000000008E
:101688000000000000000000FFFFFFFF3912020801
:101698000000000000000000C8EF0608010000007C
:1016A800FA00000001000000010000000101000034
:1016B8000001010100000000E8F600200000F4012C
:1016C80001000000E6F600200000F401010000001F
:1016D800E4F600200000F40101000000E2F600201A
:1016E8000000F40101000000E0F600200000F40111
:1016F80001000000DEF600200000F40101000000F7
:10170800DCF600200000F40101000000990A02083C
:101718005D0A020800000000A0D90608CCF60020E7
:1017280005320100DAF600206400F401010000002F
:10173800D8F600206400C40901000000CAF60020A1
:10174800E803D00701000000C8F60020E803D0072E
:1017580001000000C6F60020E803D00701000000E1
:10176800C4F600201E00B80B01000000D2F60020CD
:1017780005000F0001000000D4F6002003000A0055
:1017880001000000C2F600201E00F4010100000064
:10179800D6F60020020000002CDA0608C0F6002069
:1017A8001400640001000000CEF600203200E803B7
:1017B80001000000BEF600200000C8000100000083
:1017C800A1F5002000C80100A0F50020005001008C
:1017D8009FF50020005A01009DF50020020000003E
:1017E80038DA0608186807082068070870F8002023
:1017F8000100C409000000006EF800200100C409BF
:10180800000000006CF800200100C409000000007E
:101818006AF800200100C4090000000066F80020F2
:101828000100C4090000000068F800200100C40994
:101838000000000064F800200100C4090000000056
:1018480062F800200100C4090000000023F3002012
:1018580000C8010022F3002000C8010020F3002086
:101868000000FFFF0A0000001EF300200100C8006E
:10187800010000001CF30020320030753200000027
:101888001AF300207EFF14000500000018F3002062
:1018980005002C010500000017F30020055A05007B
:1018A80014F3002000FF010016F3002002000000DE
:1018B800EC0F002012F3002003000000A0D106085E
:1018C80013F3002000FF010015F3002002000000C0
:1018D800EC0F002011F3002003000000A0D106083F
:1018E80070F20020FF7F01006CF200200000000071
:1018F800FFFFFFFF0100000068F200200000000069
:10190800FFFFFFFF0100000064F20020000000005C
:10191800FFFFFFFF01000000ED0902087D09020832
:101928000000000044DA060884F70020EE02CA0826
:101938000100000082F7002000C8010064000000D8
:1019480081F7002000C801006400000080F7002033
:101958000200000050DB06080AF300200000803E69
:101968000500000008F3002080C1803E050000004B
:1019780002F300200083007D0500000000F3002032
:1019880080C1803E05000000FBF2002000FF01003E
:10199800F4F200206400F40101000000F2F20020DB
:1019A8006400F40101000000F0F200206400F4017A
:1019B80001000000EEF20020040000005CDB0608D5
:1019C800EDF200200200000070DB0608AFF30020F3
:1019D8000D0000007CDB0608ACF300200064010069
:1019E800AAF30020320010270A000000A8F3002004
:1019F8000D0000007CDB0608A7F300200D000000A6
:101A08007CDB0608A6F3002002000000B4DB060811
:101A1800000000000000000000000000C0DB060815
:101A280089F7002041000000F8DB060887F700204E
:101A38000300000000DD060888F70020040000000D
:101A480010DD0608B1F300200300000024DD0608BD
:101A5800B0F300200300000024DD06088EF5002006
:101A6800000A01008CF500200000E80301000000D6
:101A78008AF500200000E8030100000088F5002036
:101A8800000A010086F500200000E80301000000BC
:101A980084F500200000E803010000007CF5002028
:101AA8000000E8030100000082F500200000E803C0
:101AB8000100000080F500200100E803010000009B
:101AC8007EF50020010501009CF5002002000000C1
:101AD80034DD06089AF500200000F401010000003A
:101AE80098F500200000F4010100000096F50020A0
:101AF8000000F4010100000094F500200000F4014A
:101B08000100000092F500200000E8030100000039
:101B180090F500200000E80301000000AEF6002068
:101B2800006401000A000000ADF600200064010016
:101B38000A0000009BF60020196401009AF60020B4
:101B48000200000040DD060898F60020E803D007F0
:101B58000A00000096F60020006401000A00000058
:101B68008BF60020006401008AF600200064010062
:101B780092F60020006401000A00000091F600209F
:101B8800006401000A00000090F6002000640100D3
:101B98000A00000095F6002000FF01000A0000007E
:101BA80094F6002000FF01000A00000093F60020D0
:101BB80000FF01000A0000008FF6002001FF01006D
:101BC8000A0000008EF6002001FF01000A00000054
:101BD8008DF6002001FF01000A000000BAF3002082
:101BE8000000F40101000000B8F300200000E80341
:101BF80001000000B6F300200000E8030100000027
:101C0800B4F300200000E80301000000B2F3002054
:101C18000000E80301000000C3F80020009601005E
:101C2800BCF8002000C80100BBF8002000640100D7
:101C3800BAF8002000640100B9F80020006401002F
:101C4800B8F8002000640100B7F80020FF08010080
:101C5800B6F8002001640100F5070208B907020878
:101C6800000000004CDD0608BFF80020013201002A
:101C7800BEF8002001000000BCDD0608BDF8002009
:101C880004000000C4DD0608B5F800200096010035
:101C9800B4F8002000640100B2F800201400E80342
:101CA80001000000B0F80020000030750A000000B4
:101CB800AEF8002000C80100ADF8002000C80100FF
:101CC800ACF8002000C80100ABF800200032010089
:101CD800C2F8002000140100C1F80020004B0100E8
:101CE800C0F8002004000000D8DD0608AAF800208B
:101CF800006401000A000000B9F6002032C805009F
:101D08000A000000B8F6002001000000E8DD06081F
:101D1800BBF6002032C805000A000000BAF6002011
:101D280001000000E8DD0608B7F6002032C805000B
:101D38000A000000B6F6002032C805000A000000BC
:101D4800B5F6002032C805000A000000B4F60020ED
:101D580032C805000A000000B3F6002032C80500AA
:101D68000A000000B2F6002032C805000A00000090
:101D7800B1F6002032C805000A000000B0F60020C5
:101D880002000000F0DD0608D2F800200000D007AD
:101D980001000000CCF8002000C80100CBF80020AA
:101DA80000C80100CAF8002000C80100D0F80020CF
:101DB8000000D00701000000C9F8002000C8010099
:101DC800C8F8002000C80100C7F8002000C80100BA
:101DD800CEF800200000D00701000000C6F800205F
:101DE80000C80100C5F8002000C80100C4F80020A0
:101DF80000C801009D0502088505020815120208A1
:101E0800FCDD0608A3F30020005A0100A2F300201D
:101E180000C80100A0F30020E803D007010000007B
:101E280000000000000000004D0D020898DE0608C2
:101E380010F3002003000000ECDE06080FF300207A
:101E4800000301000EF3002000030100C104020892
:101E58007504020800000000FCDE060835040208CC
:101E6800ED0302080000000098DF06080D050208CF
:101E7800F91102080000000018E006080CF3002021
:101E8800010301005901020839010208000000009D
:101E98008CE30608750B0208490B020800000000D5
:101EA8000CE406085D0302080503020800000000B0
:101EB8007CE40608AD050208752C02080000000045
:101EC80034E50608E9160208A10B02080000000024
:101ED800DCE50608FD05020800000000000000001F
:101EE80078E60608E10602088106020800000000FC
:101EF800DCE606087D07020841070208000000002A
:101F080094E7060845750208310802080000000039
:101F180020E80608BDF60020010601004506020873
:101F2800110602080000000038E90608617402087A
:101F3800BD13020800000000A8E90608D908020835
:101F4800610802080000000024EB060889750208F1
:101F58009D1402080000000020EC0608BCF60020D2
:101F680001030100550502082505020800000000CC
:101F7800F4EC0608991102080000000000000000B7
:101F880058ED0608B5030208E11102080000000038
:101F9800F4ED06080000000000000000000000004A
:101FA80090EE060855090208951502080000000081
:101FB80010EF06080000000000000000000000000C
:101FC80038F10608C0D000209CFF2C01000000005A
:101FD80014FB0020E0150C170000000016FB002081
:101FE8000200000070F10608E8F2002088136F175D
:101FF80001000000EAF2002088136F1700000000BB
:10200800466900200000000000000000446900202C
:1020180000000000000000004269002000000000ED
:1020280000000000406900200000000000000000DF
:102038003E69002000000000000000003C6900200C
:102048000000000000000000C40D00200000000097
:102058000000000071F200200300000060F2060892
:10206800E0F2002088136F1701000000EED2002074
:1020780088136F17000000004502020800000000E6
:102088000000000070F206082DF800200100000092
:10209800C4F20608F0D2002001000000D0F20608C1
:1020A800E6D2002002000000D8F206080000000076
:1020B8000000000000000000E4F206082D020208FB
:1020C800000000000000000080F306080000000087
:1020D8000000000000000000D4F306080000000023
:1020E800000000000000000044F40608ECF20020A4
:1020F800020000007CF40608EAD20020E0150C1764
:1021080000000000B00501200406012001F11F3F76
:10211800D60101FF01000000189C0020FFFFFFFF0F
:102128000000803F000000000000000000000000E8
:102138000000000000000000000000000000000097
:1021480000000000000000000000803F00000000C8
:102158000000000000000000010000000000803FB7
:102168000000000000000000000000000000803FA8
:102178000000000000000000000000000000FA431A
:102188000000FA435113040800000000000000009A
:10219800000000000000803F00000000C82401206B
:1021A8000800000000000000B8240120080000001A
:1021B8002000000025420108D1140108BD41010892
:1021C80000000000A1130108A54A01080D410108FB
:1021D800593D0108000000000000000061130108DB
:1021E800AD830008A1830008B98B0008D58B0008CF
:1021F8009D8B0008818B0008658B0008DD41010874
:10220800AD1401081141010800000000791301080C
:102218005D3D0108E1400108B93C010800000000EB
:10222800000000006D130108FFFFFFFF685E0C004F
:1022380002FF0100A00F0000B80B000002FFFF0121
:10224800FFFF000044E5070800000802050303003B
:10225800000000004CE5070801000802050403001F
:1022680000000000448807080200FE010110030076
:10227800000000008C6B0708030014020003000034
:102288000000000054E5070804001F0202000800CF
:10229800000000005CE5070805001F0202010800B5
:1022A80000000000FFFFFFFF1A030000000000000D
:1022B8000000000000000000000000000000000016
:1022C800000000000403090412010002000000409D
:1022D800830420570002010203010B0069770508F7
:1022E8003D770508E17605087D680508FD7605084F
:1022F800A176050879680508001C002059780508AA
:1023080079780508497805085D680508057805089D
:10231800BD7705084D680508DC1B002079710508A4
:10232800656805086168050859680508C5710508E4
:102338005568050851680508244E0708414A0108F0
:102348008D14010821490108000000000000000068
:10235800B9400108C93F0108000000000000000062
:10236800000000005513010805690508F96805080B
:10237800C9780508E5780508B1680508AD78050845
:1023880091780508FFFFFFFF1F0000001C000000F8
:102398001F0000001E0000001F0000001E000000BB
:1023A8001F0000001F0000001E0000001F000000AA
:1023B8001E0000001F0000000068214C0100000002
:1023C800C457070801250000184D07080100000040
:1023D80050C30000008002021F00000053544D202B
:1023E8002020202050726F64757420202020202027
:1023F80020202020302E3031008002021F000000F3
:1024080053544D202020202050726F647574202072
:102418002020202020202020302E3031010101FFF3
:1024280001000000F4010000FFFF0000381C00203C
:102438000000000000000000000000000000000094
:102448000000000000000000000000000000000084
:102458000000000000000000000000000000000074
:102468000000000000000000000000000000000064
:102478000000000000000000000000000000000054
:102488000000000000000000000000000000000044
:08280000082800080040000850
:10800000134B0268196821EA02011960596821EAD4
:108010000201596019680A431A609968026821EAE6
:1080200002019960D96821EA0201D96041791029D9
:1080300007D001F1804303F59E3319680A431A60A3
:108040007047996811439960D9680A43DA607047AC
:10805000003C0140F0B401292A4C2B4D23684FF01D
:10806000000694BF00270127EE626662A66267637E
:10807000676B47EA42076763EE63EC6B002A38D10F
:1080800044F49574EC631C6824F001041C601C68C3
:10809000E407FCD4490289085960D8601968EAB934
:1080A00021F04001196019498B421DD018494FF445
:1080B0007410C860196841F01E011960596941F0D7
:1080C00080015961196841F00101196022B90E4A15
:1080D000D36A43F00803D362F0BC704741F040011B
:1080E00019600A498B42E1D14FF0746041F8500C9D
:1080F000E0E744F01A04EC63EC6A44F00804EC6234
:10810000C1E700BF981C0020002C014058640240C9
:10811000006402400A4BB3F89C204AB1D3F898108F
:10812000C889904204D0D3F894000280CA8100BF6D
:10813000D3F8A03013B11A689B885383704700BFEF
:10814000981C00201248002302461178032902F1EE
:10815000060218D00133062BF7D10E4AD2F8D430DC
:10816000052B0FD0591C03EB4303C2F8D41000EBCE
:108170004303032040F2EB3140F2FF321870598084
:108180009A807047704703EB430300EB4303F0E72B
:10819000481D0020981C002070B4C3080D4CE25C00
:1081A00000F00706B24004EBD004D2B20020C6F1C2
:1081B00008038B4228BF0B46C3F108052A419840AB
:1081C000C91A40EA02004FF0000614F8012FEED160
:1081D00070BC7047101D0020084AD2E93631994220
:1081E0000AD0D118013391F8E0100170C3F30A03EB
:1081F000C2F8D8300120704700207047981C00203A
:10820000064AD2F8E038D2F8E428934294BF4FF4FB
:1082100000600020013B9B1A18447047981C002006
:10822000012380F85130704707B501A8FFF7D4FF4C
:108230000028FAD09DF8040003B05DF804FB044B5D
:10824000D3E93603984288BF03F50063181A7047D4
:10825000981C002001207047024BC3F8E828C3F89F
:10826000EC187047981C0020024BC3F8F028C3F8A4
:10827000F4187047981C00207047704730B4134DB5
:10828000D5E936239A4286BF03F50064A21A9A1AEA
:108290000A44B2F5006F13D8A9B101444A1E01384F
:1082A00010F8014FE918824203F1010381F8E04020
:1082B000C3F30A03F4D1C5F8DC30002030BC7047AA
:1082C000022030BC70470846F8E700BF981C002029
:1082D000212838B50C4605D022282ED0202813D0CE
:1082E000002038BD0029FBD0072AF9D11A4BD3F85A
:1082F000F80893F8FC1893F8FD2893F8FE382060EE
:1083000021716271A371EBE70029E9D0072AE7D157
:10831000114DD5F8EC381BB10968D5F8E808984735
:10832000206821796279A379C5F8F80885F8FC18E6
:1083300085F8FD2885F8FE38D2E70029D0D0022A3A
:10834000CED1054AD2F8F438002BC9D00988D2F82A
:10835000F0089847C4E700BF981C0020024B00209B
:10836000C3F80009704700BF981C0020044B002090
:108370000522C3F80029C3F8F408C3F8EC087047D5
:10838000981C0020704700BF704700BF704700BFB7
:10839000704700BF704700BF704700BF704700BF05
:1083A000042301480B8070479801002010B4074A4D
:1083B000074B92F80409122403F114020C800128DF
:1083C0000CBF184610465DF8044B7047981C0020FF
:1083D0009C01002000487047F81C002000487047AE
:1083E000F81C0020034B93F85C00032894BF002086
:1083F00001207047981C0020034B93F85C00032871
:1084000094BF002001207047981C0020034B93F874
:108410005C00003818BF0120704700BF981C002086
:10842000A0B182680D4B12B107229A70704719787B
:10843000DA6003294FF004000CBF80214FF48071F3
:10844000C3E901111A611A7598707047034B41F224
:10845000E47101225A545A70704700BF80B0002066
:108460000378022B10D0006908B9012070470C4B2B
:108470001B78032B0EBF0B4B80B24FF6F77398425D
:1084800094BF0020012070470549436841F650021F
:108490008A58B3EB422F2CBF01200020704700BF49
:1084A00080B00020F7FFFF0F0378022B14D030B408
:1084B000104A4368006941F6480402F5C251155953
:1084C000096841F63C042B4012595B0A023801FB53
:1084D0000030104430BC7047064B426841F634010E
:1084E00041F630005958185800EB410000EB52207B
:1084F000704700BF80B00020F8B51A4C94F80839D6
:10850000002BFBD159B301444E1E451ED4F8E4287C
:10851000D4F8E01815F8017F531CC3F30A038B420B
:108520002CBF4FF400600020C91A224401440129E5
:1085300082F80C79C4F8E4380FD1012041F08CFEA8
:10854000D4F8E038D4F8E4188B4294BF4FF40062BA
:1085500000225B1A1344012BEFD0B542D6D1002084
:10856000F8BD00BF981C0020094B0846D3F800193D
:1085700010B559B1D3F80039052B07D1054C002AA5
:10858000636903DD1146FFF7B7FF636910BD00BFE4
:10859000981C0020902D002010B590F8501000235A
:1085A00080F8503079B10B4CD4F800296AB1D4F876
:1085B0000029052A0BD1084C3C306369FFF79CFF6A
:1085C0006369012010BD0120FCE71046FAE7184658
:1085D000F8E700BF981C0020902D0020002280F8B2
:1085E0005120D9E790F85020531C0244DBB280F8A8
:1085F000503082F83C1090F851200AB1132B00D96A
:10860000CAE770472DE9F84F454B98420ED003F565
:1086100068530833984247D0424B0020C3E91D00FD
:10862000A3F87000A3F87C00BDE8F88F3D4C3E4FE6
:10863000DFF800810223A36104F11C060025FB6A18
:10864000AB42294605F1010503D0D4F88C0052F065
:10865000A7FD94F89030D4F88C2086F8243032624C
:108660003046414652F0CEFFA3699D4206F12806EE
:10867000E5DB002384F87E30D4E90903A169228C6C
:10868000A58DC4F8943012FB01F203FB01F3A4F8AA
:108690007020618C254AA4F87C50C4E91D03A4F81D
:1086A0007210E2660120BFE71E4C1F4F0223A36138
:1086B00004F11C054FF0000B4FF4806A4FF04009A5
:1086C0004FF40068FA6A01265A455946B34403D06C
:1086D000D4F88C0052F064FDD4F88C1094F89020FB
:1086E000296285F824204FF400314FF00062C5E97B
:1086F0000212A5F804A0A5F81090A5F80680AE74A3
:10870000FFF720FD28466E7652F0CEFEA269084B98
:1087100045F8283B9345D5DB84F87E60ACE700BF85
:108720001971EF00902D00209801002054CC06080C
:1087300028CC06081940EF002DE9F04FD04ED14D5E
:1087400086468C4617460FCE05F198042DED068B14
:108750000FC40FCE0FC496E8070089B095F8CE304D
:10876000039784E80700CDE904EC042B00F2428172
:10877000DFE813F0A80140013B010500B8019FEDBF
:10878000C28ADFEDC28AC249C5F8B410C149C24BE2
:10879000C24AC5F8B0100399002918BF134638EE35
:1087A000887AF5EE006AC6EE879ABD4EC5F8BC30F1
:1087B000A6F1120B06F1C0080027DFEDC17A9FED8C
:1087C000B99A28EE278AB0EE67AA059BBB4200F053
:1087D00006811BF8019B05EB090309F1010993F8D8
:1087E000D3405FFA89F9002C00F07F81002203E07A
:1087F0000132152A00F0798102EB4201530018F88A
:108800000100A042F4D12944029391F8B11100294A
:1088100000F0738120463EF0BDF8824600683EF0CD
:108820005DF89AF805103EF0D5F890F800C0BCF15C
:10883000000F40F05A81029BE9182309013B0322F3
:10884000042B81F8F19181F8F02104F00F0000F27F
:10885000FC80954C04EB4301B1F884C04CFA00F164
:1088600011F0010100F00981012101FA00F0013845
:1088700000EA0C00029360F0A1FF029BDFF83CC20B
:108880002344032293F8903018440CEBC003736127
:108890009A7183F807905CF830009AF8082000F18C
:1088A0003F4C0CF57E0C04EB9C24012194F898407D
:1088B00004F01F0C6409032C01FA0CF100F0D680BF
:1088C000042C00F0CC80022C00F0C2809B88069320
:1088D000B3FA83F3C3F11F03C3F3CC0100EB8101AF
:1088E00003F007030C6A9B004FF00F0C0CFA03FC1B
:1088F00024EA0C040C620C6A02FA03F323430B62B1
:10890000022306A907930CF0DDFB039B002B76D016
:10891000B5F8CC30D5F89C1407EE903AF8EEE77A2B
:10892000FCEEE77A17EE900AB1FBF0F202F57F4217
:10893000FF32120CB1FBF2F295F8CE10B2FBF0F060
:10894000042983B272D007EE902AF8EE676A66EEC9
:10895000887A29EE677A95F8CF0004990091A8EEFD
:10896000A67A019051463046C6ED027A86ED037A2A
:1089700035F0BAFC002F64DD7368D5F8F42093421B
:1089800061D0012F5DD0D5F80C2193425BD0022F2E
:1089900057D0D5F82421934255D0032F51D0D5F884
:1089A0003C2193424FD0042F4BD0D5F85421934211
:1089B00049D0052F45D0D5F86C21934243D0062FDE
:1089C0003FD0D5F88421D31A18BF012301370122E3
:1089D000082F3374727406F118067FF4F6AE33482C
:1089E00009B0BDEC068BBDE8F08F9FED318AF0EE4B
:1089F000488AC8E69FED2F8AF0EE488AC3E6B0EEBB
:108A0000690A61F043FFFCEEC07A4FF6FF7317EE80
:108A1000902AD5F89C14B1FBF2F21A44120CB1FB67
:108A2000F2F295F8CE10042918468CD107EE900A80
:108A300007EE102AF8EE677AF8EE476A67EE8A7A50
:108A400087E70123C2E70023C0E7C6F814C05CE74C
:108A5000194CD4F844C041EA0C01616436E7164C65
:108A6000D4F830C041EA0C0121632FE7124CD4F84E
:108A700040C041EA0C01216428E7716145E700BF6D
:108A800080CC0608902D0020ACC5A737ACC5A73612
:108A9000513C0308614C0408D5390308554C0408BF
:108AA000802E002000007A4428CC0608282E0020C2
:108AB000282930386F12033900380240AC2F0020CB
:108AC0006F12833A1FED028A0D4A0E4BC5F8B4208F
:108AD000C5F8B03000220123CDE90332F0EE488A18
:108AE000094B5CE69FED098AEEE7094A064BC5F89B
:108AF000B420C5F8BC30002072E70B68FFDE00BF71
:108B0000513C0308614C0408554C04080000000067
:108B1000253B0308F8B5104ED6F89C44054600687E
:108B20000F4664080CF0D2F9B4FBF7F1B1F5803FC1
:108B300003D3012CFAD96408F6E72246284689B205
:108B40003DF0C6FD054BC6F8043D28460449BDE886
:108B5000F84000223DF0DCBC902D002049260208A0
:108B6000943A002010B5044C04480A4621460BF004
:108B700027F8204610BD00BF9C3A0020405C070843
:108B800010B5044C04480A4621460BF019F820465B
:108B900010BD00BF9C3A0020505C070810B5044C83
:108BA00004480A4621460BF00BF8204610BD00BFD2
:108BB0009C3A00205C5C070810B5044C04480A4647
:108BC00021460AF0FDFF204610BD00BF9C3A002060
:108BD000685C070810B5044C04480A4621460AF0B0
:108BE000EFFF204610BD00BF9C3A0020745C0708D0
:108BF00010B50C4C94F8AD200023A36512B10A4ABD
:108C0000C2F80C3E5CF0AEFC20B10423022084F8D4
:108C10005C3010BD044B5B69E364092384F85C306D
:108C200010BD00BF981C0020902D002070B50D4D88
:108C300095F85C30042B04460E460AD0082B06D16A
:108C40006B6D83420CD0FFF7D3FF022801D00120C7
:108C500070BD0823C5E9154685F85C30022070BD5B
:108C6000022070BD981C002070B54379224C002B67
:108C700014BF0123002384F8883003D1002384F833
:108C80005C3070BD1D4D002195F9132E032046F078
:108C900023F90028F2D0466830465DF0DDFA84F80A
:108CA000AC000028EAD095F8113E003B18BF012324
:108CB000304684F8AD305DF0AFFB0AF02BFF38B9D9
:108CC00094F8503084F85C00013384F8503070BD63
:108CD0005CF032FD40B194F850300022013384F84A
:108CE000503084F85C2070BD6B69E364012384F824
:108CF000500084F85C3070BD981C0020902D00203E
:108D000010B55CF019FD58B10B4C94F8503001339C
:108D1000DBB2072B84F8503003D9002384F85C3091
:108D200010BD0AF0F7FE0028F7D0044A012352696B
:108D3000E26484F85C3010BD981C0020902D002067
:108D40002DE9F041844C94F88850002D00F0F28019
:108D500094F85C20814E0227531E082B3FD8DFE891
:108D600003F035379A3E654E143E05005CF0FAFB81
:108D7000002840F0E680E36C7269FA3393422BD20C
:108D8000FFF7BEFF94F85C20E6E75CF0EBFB002801
:108D9000F1D0A36D0022012B84F8502040F2D58041
:108DA000616D94F8AD00013B0131C4E9151310B1B8
:108DB0006A4BC3F80C2E082284F85C20A2F1080547
:108DC000B5FA85F56D092846BDE8F08184F85C7038
:108DD0005CF0C8FB002840D194F85C20531EDBB245
:108DE000022B09D85D4BE16C5B695B1AC82BE5D996
:108DF000FFF786FF94F85C20042ADFD1E3E7236BBA
:108E0000002BDBD1554B666C5B69E364072284F869
:108E10005C20002ED2D0D4E90E21A36C0120B047F3
:108E2000DAE7E36C716964338B42C7D2D4F82C80E3
:108E3000B8F1000FF5D15CF095FB0028A2D0666C6C
:108E400084F85080042384F85C30002E77D0D4E975
:108E50000E21A36C4046B047BEE75CF029F800281D
:108E6000BAD196F8153E002BA3F10203B3FA83F3AF
:108E700014BF022201225B0984F8512084F8523089
:108E80005CF016F800287FF47BAF354A0323926C20
:108E9000226684F85C305CF00BF800289CD12F4BE4
:108EA000A06593F8446EB3F8460ED3F848EED3F8B5
:108EB00048CED3F8487ED3F8482E84F8666093F8FD
:108EC0004C1EA4F8640093F84D6E84F86A2093F861
:108ED0004D0ED3F8502EE266B3F8568EB3F8562EE8
:108EE00084F86B10B3F8561EC2F30B1343EA182331
:108EF00003F00F0301F00F024FEA1E6E4FEA1C4C05
:108F00003F0A360900F00F0003F5FA63042184F8E4
:108F1000710084F867E084F868C084F8697084F8A8
:108F20007060A4F8723084F8742084F85C102846CD
:108F3000BDE8F08184F85C502846BDE8F081054624
:108F400041E7042384F85C303DE7FAD1FFF750FE97
:108F500094F85C20531E42E7981C0020902D0020BE
:108F6000A83B00202DE9F84FB34C94F8701E05463D
:108F7000C1F34001D4F8780E45F0EAFD94F8701E74
:108F8000D4F8740EC94301F0010145F0E1FD002D54
:108F900000F0C3806E1EA94FA94D5FFA86FB4FF00B
:108FA0001008D4F8780E45F0BDFDD4F8740E45F0E5
:108FB000B9FDB4F8803E002B40F0358194F8821E54
:108FC000D4F8840E45F0C4FD4FF0FA094FF47A70DE
:108FD0004FF0010C7B68C3F30803002B40F0FB80CB
:108FE000EFF31183002B40F0F6806269A968636992
:108FF0009A42FAD1D4F8A83E9942F6D8D4F8A46E91
:1090000000FB06F35B1AB3FBF6F300FB02327B684E
:10901000C3F30803002B40F09F80EFF31183002B74
:1090200040F09A806369D5F808A061698B42F9D154
:10903000D4F8A81E8A45F5D8D4F8A46E00FB06F132
:10904000A1EB0A01B1FBF6F100FB03139B1AB3F588
:109050007A7FDCD3B9F10109BCD1D4F8780E45F0A0
:1090600061FDD4F8740E45F05DFDB4F8803E002B30
:1090700040F0CD8094F8821ED4F8840E81F0010176
:1090800045F066FD4FF0FA0C4FF47A704FF0010E88
:109090007B68C3F30803002B7ED1EFF31183002B11
:1090A0007AD16269A96863699A42FAD1D4F8A83E74
:1090B0009942F6D8D4F8A49E00FB09F35B1AB3FBDF
:1090C000F9F300FB02327B68C3F308033BBBEFF309
:1090D000118323BB6369D5F808A061698B42F9D17C
:1090E000D4F8A81E8A45F5D8D4F8A49E00FB09F14F
:1090F000A1EB0A01B1FBF9F100FB03139B1AB3F5D5
:109100007A7FE0D3BCF1010CC2D10BF1FF365FFADC
:1091100086FBBBF1FF0F7FF444AFBDE8F88FEFF3A0
:10912000118988F31288AE682B68DB0344BFC4F84A
:10913000A0EEAE686369D4F8A01E5FFA89F989F3DE
:109140001188D4F8A49E0B4400FB09F1891BB1FBE4
:10915000F9F100FB0313D1E7EFF3118E88F31288C6
:10916000D5F808A02B68D90344BFC4F8A0CED5F821
:1091700008A06369D4F8A01E5FFA8EFE8EF31188F2
:10918000D4F8A46E0B4400FB06F1A1EB0A01B1FB7D
:10919000F6F100FB031359E7EFF3118188F312880E
:1091A000D5F808902B68DA0344BFC4F8A0EED5F8D0
:1091B00008906369D4F8A02EC9B281F31188D4F85D
:1091C000A41E1A4400FB01F3A3EB0903B3FBF1F364
:1091D00000FB023277E7EFF3118188F31288AE6863
:1091E0002B68DB0344BFC4F8A0CEAE686369D4F833
:1091F000A02EC9B281F31188D4F8A41E1A4400FB32
:1092000001F39B1BB3FBF1F300FB0232FFE6D4F842
:109210009C3E002B3FF436AFD4F8883EC3F8009054
:1092200084F8999E2EE7D4F89C3E002B3FF4CCAEF8
:1092300041F0D2F8C8E600BF902D002000ED00E01C
:1092400010E000E02DE9F84FB04CB14F94F8701EDB
:10925000D4F8780EAF4DC1F3400145F079FC94F895
:10926000701ED4F8740EC94301F0010145F070FC82
:109270004FF0050B4FF01008D4F8780E45F052FC73
:10928000D4F8740E45F04EFCB4F8803E002B40F04C
:10929000358194F8821ED4F8840E45F059FC3226AC
:1092A0004FF47A704FF0010C7B68C3F30803002B76
:1092B00040F0FA80EFF31183002B40F0F5806269F3
:1092C000A96863699A42FAD1D4F8A83E9942F6D8BF
:1092D000D4F8A4EE00FB0EF35B1AB3FBFEF300FB25
:1092E00002327B68C3F30803002B40F09E80EFF34B
:1092F0001183002B40F099806369D5F808A061695B
:109300008B42F9D1D4F8A81E8A45F5D8D4F8A4EE3A
:1093100000FB0EF1A1EB0A01B1FBFEF100FB031310
:109320009B1AB3F57A7FDCD3013EBDD1D4F8780E19
:1093300045F0F8FBD4F8740E45F0F4FBB4F8803E29
:10934000002B40F0D08094F8821ED4F8840E81F077
:10935000010145F0FDFB4FF0320C4FF47A7001260D
:109360007B68C3F30803002B7FD1EFF31183002B3D
:109370007BD16269A96863699A42FAD1D4F8A83EA0
:109380009942F6D8D4F8A49E00FB09F35B1AB3FB0C
:10939000F9F300FB02327B68C3F308032BBBEFF346
:1093A000118313BB6369D5F808A061698B42F9D1B9
:1093B000D4F8A81E8A45F5D8D4F8A49E00FB09F17C
:1093C000A1EB0A01B1FBF9F100FB03139B1AB3F502
:1093D0007A7FE0D3BCF1010CC2D10BF1FF3616F05D
:1093E000FF0B7FF449AFBDE8F88FEFF3118988F3E5
:1093F0001288D5F808A02B68DB0344BFC4F8A06E20
:10940000D5F808A06369D4F8A01E5FFA89F989F33A
:109410001188D4F8A49E0B4400FB09F1A1EB0A01CA
:10942000B1FBF9F100FB0313D0E7EFF3118E88F3E2
:109430001288D5F808A02B68D90344BFC4F8A0CE81
:10944000D5F808A06369D4F8A01E5FFA8EFE8EF3EB
:109450001188D4F8A4EE0B4400FB0EF1A1EB0A0135
:10946000B1FBFEF100FB03135AE7EFF3118188F320
:109470001288D5F808902B68DA0344BFC4F8A06EB0
:10948000D5F808906369D4F8A02EC9B281F3118889
:10949000D4F8A41E1A4400FB01F3A3EB0903B3FBA9
:1094A000F1F300FB023276E7EFF3118188F31288C3
:1094B000D5F808E02B68DB0344BFC4F8A0CED5F88C
:1094C00008E06369D4F8A02EC9B281F31188D4F8FA
:1094D000A41E1A4400FB01F3A3EB0E03B3FBF1F34C
:1094E00000FB0232FDE6D4F89C3E002B3FF433AF84
:1094F000D4F8883E1E6084F8996E2CE7D4F89C3E20
:10950000002B3FF4CCAE40F067FFC8E6902D002062
:1095100000ED00E010E000E00E4B30B4DB68427874
:1095200001780D4CDB43C3F30223C3F10403DBB228
:1095300002FA03F360181B0101F01F05012249091B
:1095400003F0F003AA4080F8003344F8212030BC37
:10955000704700BF00ED00E000E100E000F01F02F6
:1095600040090123032803FA02F304D004280CD095
:10957000022805D07047074A116C0B4313647047EB
:10958000044A516C0B4353647047024A116B0B43FE
:10959000136370470038024000285FD00368374AE1
:1095A0002DE9F04103F13F4404F57E0402EB9422DF
:1095B000012492F8982002F01F055209032A04FAA8
:1095C00005F456D0042A4FD0022A48D08588B5FA2F
:1095D00085F0C0F11F00C0F3CC0603EB860600F057
:1095E000070082000F24306A944020EA04003062B1
:1095F000306A01FA02F20243002132624FF0010E9A
:109600000A464FF0030C02270EFA02F838EA05006A
:1096100002F101021CD118680CFA01F420EA0400DE
:109620001860186807FA01F606431E609E6826EA6D
:1096300004069E6098689860586820EA08005860A0
:1096400058685860D86820EA0400D860D868D860A4
:10965000102A01F10201D7D1BDE8F0817047084A14
:10966000556C2C435464B1E7054A156B2C431463C5
:10967000ACE7034A156C2C431464A7E728CC060812
:1096800000380240002861D00368384A03F13F41A6
:1096900001F57E0102EB91222DE9F04192F898202C
:1096A00002F01F0452090121032A01FA04F158D0E3
:1096B000042A51D0022A4AD08588B5FA85F2C2F12F
:1096C0001F02C2F3CC0403EB840402F00702216AF8
:1096D00092000F20904021EA00012162206A0C21B3
:1096E00001FA02F202430021226208464FF0010E05
:1096F0004FF0030C02270EFA00F838EA050200F1D9
:1097000001001DD11C680CFA01F224EA02041C605D
:109710001E6807FA01F434431C609E6826EA0206BC
:109720009E609E6816439E605C6824EA08045C6044
:109730005C685C60DC6824EA0202DA60DA68DA609D
:10974000102801F10201D6D1BDE8F0817047084A26
:10975000546C21435164AFE7054A146B21431163F4
:10976000AAE7034A146C21431164A5E728CC060834
:10977000003802402DE9E047304D95F8AC3E012B12
:1097800085B00F46164640D0022B2ED1B5F8B83E14
:1097900040F08001002B44D1D5F8BC3E13B11A68CB
:1097A0009B885383D5F8B0AE039140F029FDBAF8F9
:1097B0000C300399804642F20F79BAF808309B07C3
:1097C00017D550465EF026F93346D5F8B00E3A4626
:1097D00000215EF0F9F9D5F8BC3E6BB31A689B889E
:1097E0001383012005B0BDE8E087002005B0BDE887
:1097F000E087039140F004FDA0EB08034B4503997B
:10980000DBDD504645F0D2FCDEE70091134695F8CB
:10981000B11E024695F9B00E5EF06EFE05B0BDE8D1
:10982000E087D5F8B42ED0899842B5D0D5F8B00EDF
:109830000380D38100BFAFE70120D7E7902D002040
:1098400058B183884FF00042B3FA83F332FA03F33E
:1098500003D002490A6813430B607047003C014083
:109860002DE9F04385B00D461646044645F082F9D1
:1098700000284EDB334FDFF8D48007EB800308EB82
:10988000000C07F6347229462046C3F8F42E9CF8E3
:10989000A09044F0A7FF002C51D0256805F13F456A
:1098A00005F57E05AD0A204645F064F900F0FC039D
:1098B00003F1804303F59C3300F003009A688000B5
:1098C0000F21814022EA01029A609A68EDB205FAFE
:1098D00000F0104398602CB1A0884FF00044B0FA1B
:1098E00080F0C440184B08EB86064F445C61D6F804
:1098F000B0108DF80D100123002202A88DF80E3053
:1099000002948DF80C20FEF77BFB97F8383FF02B84
:1099100002D805B0BDE8F083C844F02198F8BC3007
:109920008DF8043003224FF4807301A887F8381FA4
:109930008DF80520ADF80630FFF7EEFDE9E74FF0B2
:10994000FF35B0E7902D0020003C014028CC0608F0
:10995000002864D0F0B58388B3FA83F3202B0A463D
:1099600085B00446C3F11F0143D02D4D2D4E05EBAC
:1099700081037718C3F8F42E002197F8A07044F003
:1099800031FFB4F804C02268274CBCFA8CFCCCF13F
:109990001F0303F0FC0101F1804101F59C3103F04C
:1099A000030398004FF00F0E02F13F438A680EFA4E
:1099B00000FE22EA0E0203F57E038A60C3F38723CA
:1099C000834088684FF0004222FA0CF203433D4482
:1099D0008B6002A8626101234FF400618DF80E30A4
:1099E0000292ADF80C10FEF70BFB95F8383FF02B08
:1099F00001D805B0F0BD3E44F02196F8BC308DF89A
:109A0000043003224FF4807301A885F8381F8DF8C5
:109A10000520ADF80630FFF77FFD05B0F0BD7047BB
:109A2000902D002028CC0608003C014010B4B8B1AD
:109A30000D4CD4F8403F102B05D15DF8044B0521A7
:109A400000203DF009BB03EB4302224482F8451F8E
:109A500001210B4482F8440F82F8461FC4F8403FAE
:109A60005DF8044B704700BF902D00202DE9F04FAA
:109A7000DFF884A32DED028B9AF8881F002297B09F
:109A8000CAF8782FCAF87C2FCAF8802FCAF8842F1A
:109A9000CAF8742F19B19AF8892F8AF8742F9AF896
:109AA0008A2F1AB19AF88B2F8AF8832F9AF88E2F63
:109AB0001AB19AF88F2F8AF87E2F9AF88C2F1AB144
:109AC0009AF88D2F8AF8792F9AF8903F05935A1EAD
:109AD000D3B257B204937B1C00F0AA80BC4ABD4E9F
:109AE00052F83780029602EBC702002312790193E5
:109AF00008EE102A1D4634469946267839463046E7
:109B000046F00AF883463046BBF1000F1ED044F001
:109B1000D1FBEA1D1321D2B220B14FF0000E8271A9
:109B200080F807E044F05EFE207846F01FF84FF022
:109B3000070309F1010223714FF0010384F8029039
:109B40006070CDF804B05FFA82F9E3700135042D3E
:109B500004F10504D1D118EE100A029ECDF80C9044
:109B6000FFF7FCFC9C499D4A4868024042F44032A1
:109B70004A600FB9019B5BB9994C4820FFF7EEFC96
:109B8000204602215EF066FEA26842F00102A26059
:109B90009148934A4168BAF8924F41F400014160FC
:109BA000516821F480515160916B21F4401141F4CE
:109BB00080119163D16841F46001D160956B85F4A7
:109BC0004011C1F3015101EB81011F2000FA01FC9A
:109BD00025EA0C0C112505FA01F141EA0C0191630B
:109BE000D16841F0E061D160956BC5F30151C1F1DD
:109BF0000401C9B201EB810188404FF0120C25EA43
:109C000000000CFA01F108439063E4B1BAF8941F24
:109C1000CAF89C4FA1B1BAF8962FCAF8A01F62B13A
:109C2000019B7048521A90FBF2F2CAF8A42F6BB94C
:109C300017B0BDEC028BBDE8F08F6B4A1288EFE7DE
:109C40006A4A1188E7E76A4A1488DFE740460399C1
:109C50005EF000FE5F4B012003F114090723F27848
:109C6000441CE4B252B375783279A5F10A0101EBD4
:109C7000410105EB450C092D03FA01FE03FA0CFB2B
:109C800002FA01F140F28E80D8F80C2022EA0E0E82
:109C900041EA0E01C8F80C10421E02EB82021F219D
:109CA000062801FA02FC05FA02F261D8D8F834104D
:109CB00021EA0C010A432046C8F834200536B14594
:109CC000CDD1D8F80820049942F40072C8F80820D1
:109CD000D8F8082042F48072C8F80820D8F8082084
:109CE000574442F00102C8F8082097F9982F022043
:109CF00045F0F2F8044600289AD040685CF0ACFACF
:109D0000059A06215CF0BAFA60680AF045FF07A8D8
:109D10000AF004FF039EA368364A0793012E8CBF06
:109D20004FF48060002000230D9008F14C054FF4A3
:109D30000060089509920A934FF480720C930E907C
:109D40004FF4003360680B9607A94FF40055CDE936
:109D50000F5211930AF0F4FE6268136843F0010396
:109D60001360D8F8083043F08043C8F808305FE744
:109D7000C11FA0F10D0201EB81014FF01F0E02EB9C
:109D800082020C280EFA01FC0EFA02F005FA01F12B
:109D900013D8D8F8302022EA0C0211432046C8F824
:109DA00030108BE7D8F8101002FA0CF221EA0B0BF6
:109DB00042EA0B02C8F810206EE7D8F82C1005FA1A
:109DC00002F221EA00010A432046C8F82C2075E778
:109DD000ECCC0608043D002000230140E030FCFFED
:109DE00000200140803801002E7AFF1F2C7AFF1FCF
:109DF0002A7AFF1F383D0020902D00202DE9F047E2
:109E00002E4C054600EB800004EBC004D4F8B47F70
:109E10002FB10E4694F8C91F01F0FF0821B14FF091
:109E200000084046BDE8F0879946924640F0E8F9C0
:109E300071000123C9B284F8CA1F84F8CBAF84F83B
:109E4000CD3F84F8CE8F84F8CC3F84F8C93F84F8A6
:109E5000C88FBA88C4F8D09F91050646C4F8D49F2D
:109E60001CD43B88DA050FD442F20F7404E040F0B2
:109E7000C7F9831BA34215DC3B889B05F7D43B88BD
:109E80009BB243F480733B80BB889BB243F4407326
:109E90004FF00108BB804046BDE8F0879846404639
:109EA000BDE8F087064A32F8D03C01339BB2284621
:109EB00022F8D03C5EF0A0F8B3E700BF902D002060
:109EC000883E0020F8B5714D05EB001757F8CC3CE3
:109ED000002B00F089800446060117F8C40CFFF738
:109EE0003DFB17F8C43C03F01F015B090122032B63
:109EF00002FA01F200F08E80042B7BD0022B74D08A
:109F0000AB19013413F8C80C44F0D4F9E4B2074695
:109F100010B11223C4718371AB1913F8C70C44F04C
:109F2000C9F910B11323C4718371AB1913F8C60CAE
:109F300044F0C0F910B11423C4718371AC190A2123
:109F400014F8C52C384644F07BFA14F8C70C44F0DA
:109F5000B1F914F8C52C0A2144F072FA14F8C60CB1
:109F600044F0A8F914F8C52C0A2144F069FA54F811
:109F7000CC3C474A934252D0464A93423FD0464A4D
:109F8000934257D0454A93425FD0454A934267D0A7
:109F9000444A93426FD0AB19434A53F8CC1C558EB8
:109FA0000888138E948E00F441502B430343508F46
:109FB000958F23430343D48FB2F840002B432343B0
:109FC0009BB243F0030302250124D58614870B803E
:109FD0008B8B23F400631B041B0C8B8308820B8880
:109FE0009BB243F040030B80F8BD304B596A0A43E3
:109FF0005A6285E72D4B19690A431A6180E702F519
:10A0000000324FF48040136A43F4804313620AF035
:10A0100055FFC0E7254B196A0A431A6270E702F53B
:10A0200084324FF48050536A43F4805353620AF0F1
:10A030003DFFB0E702F5FE324FF40040136A43F4EF
:10A04000004313620AF03AFFA5E702F582324FF4AB
:10A050000050536A43F4005353620AF027FF9AE713
:10A0600002F568424FF48010536A43F48013536240
:10A070000AF01CFF8FE702F564424FF40010536AA8
:10A0800043F4001353620AF011FF84E7883E002076
:10A090000030014000380040003C004000340140E6
:10A0A0000050014000540140980100200038024057
:10A0B00070B5454E16F89C4C04EB440306EBC30305
:10A0C000650013F8983C032B6CD8DFE803F058299F
:10A0D0001E02254406EBC50555F8940C00286DD1E9
:10A0E00016F8383C9C425DD0013404F003029342E0
:10A0F00006F89C2C56D002EB420406EBC404022363
:10A1000044F8940C04F8983C70BD2B1906EBC3037B
:10A1100053F8942C72B1013A43F8942C002070BD8E
:10A120002B1906EBC30353F8942C002AF3D1022217
:10A1300003F8982C254406EBC50515F88C3C013B2B
:10A14000DBB205F88C3C7BBB204B16F8386C596CA5
:10A1500055F8900C621C02F003024B1E0324B2421D
:10A16000034405F8984CB3FBF1F045F8940C19D072
:10A17000994217D8013845F8940C012070BD45F07C
:10A18000CDFB78B1114B2C445A6C06EBC404012171
:10A1900002F51C5304F8981C0F33B3FBF2F344F898
:10A1A000943C70BD012070BD084B5A6C012002F236
:10A1B000E733B3FBF2F345F8943C70BD013845F842
:10A1C000940C002070BD00BF883E00209801002044
:10A1D0002DE9F84F3249DFF8D4B091F8151E01246B
:10A1E0000229074619461046CBF82C404FF00002D2
:10A1F0002C4C1D4618BF7F02FDF72CFF2A4B6362D3
:10A200006B02A362E36A40F2FF5943F093034FF4F9
:10A2100000704FF48A62E3620121C4F83890A060B4
:10A220001020E2605AF090FF012D40F251434E465B
:10A23000C4F83890CA4640F252488EBF4FF0120917
:10A2400098464FF011090A25C4F838A00121A760EB
:10A250004846C4F80C805AF077FF03464FF0000CD4
:10A2600040F2774201213720A6632BB9002318461C
:10A27000CBF82830BDE8F88FA663C4F808C0E260C8
:10A280005AF062FF013DA6630028EFD015F0FF05EC
:10A29000DAD10346CBF82C50CBF82830BDE8F88F44
:10A2A000902D0020002C014000E1F505981C0020B5
:10A2B0002DE9F843DFF8708098F85C50042D0446CF
:10A2C000894617461E4608D0082D02D00020BDE85A
:10A2D000F883FEF78DFC0228F8D101234A46204678
:10A2E0000021FFF775FF68B1FEF70AFDD8F844407A
:10A2F000002CEBD00022D8F84830D8F83C1010469B
:10A30000A047E3E7074BC8F838905A69C8F83C40C3
:10A310000523C8E91176C8F84C2088F85C30012084
:10A32000BDE8F883902D0020981C00202DE9F84FFF
:10A330002F49DFF8C49091F8151E1E4602292D4BB7
:10A3400007464FF0010418BF4702012E40F259485A
:10A350001C6398BF4FF48B683B469346474640F2D8
:10A36000FF55B0468CBF4FF0190A4FF0180A0A2467
:10A370001E4640F2FF53C9F838300121C9F8086081
:10A380005046C9F80C705AF0DFFE03464FF0000C3F
:10A3900040F2774201213720C9F83850A3B9584616
:10A3A00041460122FDF756FE4646134A134B5362BF
:10A3B00076029662D36A43F09103D3620D4B00217B
:10A3C00008469962BDE8F88FC9F83850C9F808C046
:10A3D000C9F80C205AF0B8FE013CC9F838500028E2
:10A3E000DDD014F0FF04C4D1024B1C63BDE8F88F2C
:10A3F000902D0020981C0020002C014000E1F50564
:10A400002DE9F047364C82B005460E461746984671
:10A4100094F85C0004280CD0082806D1636DAB4288
:10A4200007D0FEF7E5FB0228F2D0012002B0BDE81C
:10A43000F087DFF8B4A0A663DAF80C9EE563C9F3F1
:10A440004F210F294FEA592222D8A36D0193FBB166
:10A4500094F8AD00E0B1B9F5005F13D02148314662
:10A460004FF40072484462F02DFB09F50072C2F30C
:10A470004F211029CAF80C2E4FEA522202D0019B1C
:10A48000012B21D192B2013A164EAD1A0B4600E0D3
:10A490000123324628460626012500216764C4F8B8
:10A4A000488084F8405084F85C60FFF73FFF002844
:10A4B000BCD0FEF725FC666C86B12846A36CE16B28
:10A4C0000022B0470320B1E7626D013B0132042155
:10A4D000C4E9152384F85C100220A7E70320A5E750
:10A4E000981C0020186C0020902D0020144A154B59
:10A4F000D2F89C24B3EB920F15D2B3EBD20F14D247
:10A50000B3EB121F13D2B3EB521F12D2B3EB921F55
:10A5100011D2B3EBD21F10D2B3EB122F34BF4FF4D2
:10A520008070802070470220704704207047082008
:10A53000704710207047202070474020704700BFB0
:10A54000902D0020809698002DE9F0472E4C94F82D
:10A55000AC3E022B82B005460F46164611D0012BA9
:10A560000BD10091134694F8B11E024694F9B00E37
:10A570005DF0C2FF02B0BDE8F087002002B0BDE888
:10A58000F087B4F8B83E8BBBD4F8BC3E13B11A6860
:10A590009B885383D4F8B0AE3FF032FEBAF80C304B
:10A5A000804642F20F79BAF808309B0714D5294645
:10A5B00050465DF02FFA3346D4F8B00E3A460021EB
:10A5C0005DF002FBD4F8BC3EDBB11A689B881383B4
:10A5D000012002B0BDE8F0873FF012FEA0EB0803B7
:10A5E0004B45E0DD504644F0E1FDE4E7D4F8B42EFD
:10A5F000D1899942C8D0D4F8B01E0B80D38100BF56
:10A60000C2E70120B6E700BF902D002070B50278A8
:10A61000022A04460D4613D0012A01D0002070BD45
:10A620000C4B90F9040003F8372C421CF6D0032899
:10A63000F4DC0A46373B6179BDE87040FFF7DEBBCA
:10A640005AF02AFC294620460122BDE8704044F019
:10A6500083BE00BF883E002010B50B4CD4F8BC0E62
:10A6600044F070FAD4F8BC0E08B12123C380012154
:10A6700044F0B8F8FFF73AFFBDE810400246032166
:10A6800002485DF0FBB900BF902D00203C3C00204B
:10A6900073B50D4E05460C46FF230A46014630466B
:10A6A0008DF8073044F058FE01230DF1070245F004
:10A6B0008001304644F01EFE9DF80700031B5842FF
:10A6C000584102B070BD00BF3C3C002030B583B0A3
:10A6D0000D46012301460DF107020446074844F0E8
:10A6E00025FF9DF8072035EA020304D003482A43DA
:10A6F000214644F0E7FF03B030BD00BF3C3C0020E2
:10A7000037B5394C00238DF8073014F8283C03F096
:10A71000FD02012A05D114F8202C12B90C2204F8EC
:10A72000202C022B314D1DD0032B2FD001220B21C9
:10A73000284658F055FD04203FF08EFD01230DF111
:10A7400007020021284658F06CFDB8B39DF8073089
:10A75000482B33D1264B44F8343C264B44F8303C4C
:10A7600003B030BD54F8180C44F0ECF954F8180C50
:10A7700008B13523C380012144F034F8FFF7B6FE59
:10A780000321024628465DF079F9CFE71A4B54F8C9
:10A79000240C46F2A812C3F854243721122258F090
:10A7A000F3FC54F8240C0D22242158F0EDFC54F84D
:10A7B000240C30226A2158F0E7FCB7E714F8283C53
:10A7C000022B03D0032B07D00020C9E754F8180C44
:10A7D00044F070FC0020C3E754F8240C1022372109
:10A7E00058F0D2FCF0E700BF883E0020603E002019
:10A7F0007B320608FD320608980100202DE9F0475B
:10A80000334F344BD7F89C24B3EB920F064688465F
:10A8100080F0DA82B3EBD20F80F0D882B3EB121F54
:10A8200080F0DF82B3EB521F80F0DD82B3EB921F2A
:10A8300080F0DF82B3EBD21F80F0DF82B3EB122F08
:10A8400034BF4FF480718021234C00234FF4F07209
:10A85000A18304F120002021A377E37762F093F92C
:10A8600004F500704FF4F072202162F08CF994F836
:10A87000E10340B394F8E2332BB30509013D042D05
:10A8800000F00F0000F22382DFF8549009EB45033B
:10A89000B3F8842042FA00F3DB0740F11882012369
:10A8A00003FA00F0013810404D445EF087FF95F840
:10A8B00090200A4B104403EBC000C4F8F4038379E2
:10A8C00083B1412B0ED06FF00100BDE8F08700BFCF
:10A8D000902D002080969800883E0020AC2F00200C
:10A8E00028CC06082323C380092143F07BFFD4F83A
:10A8F000F41311B10B688A881A8394F8E233013B90
:10A900005BB25D1C00F0E781022B00F3E481D7F815
:10A910009C24CE4804EB03134FF0020C53F8CC5C9C
:10A92000C4F8E853B0EB920F22FA0CF384F8E4C3B6
:10A9300080F06782C54AB2EB530F80F05082B2EBD1
:10A94000930F80F05282B2EBD30F80F05082B2EBC3
:10A95000131F80F05082B2EB531F80F05082B2EB95
:10A96000931F34BF4FF4807380235B002A88B8485C
:10A9700022F040021204120C2A802A8822F03802A7
:10A98000120485424FEA124200F09F81B14885428D
:10A9900000F09B81B3F5807FA8BF4FF48073002B3C
:10A9A00093FAA3F3B3FA83F308BF4FF0FF33013BED
:10A9B00042EAC3039BB22B802B88B4F8F0239BB2EE
:10A9C00043F040032B80002A40F0538111B10B6803
:10A9D0008A885A833FF014FCAB89814642F20F7A91
:10A9E0002B89980740F13A8128468C215DF012F8B6
:10A9F000D4F8E8A33FF004FCBAF80C30054642F264
:10AA00000F79BAF80830990740F100815046FF21CC
:10AA10005DF000F8D4F8F433002B00F006811D68D7
:10AA2000998829831B2840F0F0812322DA80B4F82A
:10AA3000F0230120A077002A40F035816983D4F803
:10AA4000E8A33FF0DDFBBAF80C30054642F20F797F
:10AA5000BAF808309A0740F1CF8050460A215CF0DE
:10AA6000D9FFD4F8E8A33FF0CBFBBAF80C30054689
:10AA700042F20F79BAF808309B0740F1B380504694
:10AA800040215CF0C7FFD4F8E8A33FF0B9FBBAF867
:10AA90000C30054642F20F79BAF80830980740F1B9
:10AAA000978050468A215CF0B5FFD4F8E8A33FF0C8
:10AAB000A7FBBAF80C30054642F20F79BAF8083015
:10AAC00099077AD55046FF215CF0A4FFD4F8F433FF
:10AAD000C0F3801184F8F81300F0400013B11A6835
:10AAE0009B88138394F8E023012A00F02E81022A28
:10AAF00000F00E81002A00F04A81A28B94F8F9330D
:10AB0000182B05D1A4F8FC83A4F8FE13A4F80024A4
:10AB1000514803215CF0B2FFB4F8F033002B40F051
:10AB2000B680D4F8F43313B11A689B885383D4F8F1
:10AB3000E8533FF065FBAB89074642F20F782B895B
:10AB40009A0731D5284600215CF064FFD4F8E85319
:10AB50003FF056FBAB89074642F20F782B899B07E3
:10AB600019D5284602215CF055FFD4F8F43313B10F
:10AB70001A689B8813837278B378317884F8041448
:10AB8000C2F12002C3F1100384F8052484F80634CE
:10AB90000020BDE8F0873FF033FBC31B4345DDDDFC
:10ABA000284644F003FBE0E73FF02AFBC31B434584
:10ABB000C5DD284644F0FAFAC8E73FF021FB431B05
:10ABC0004B457FF77BAF504644F0F0FAC0B27DE7CB
:10ABD0003FF016FB431B4B457FF75EAF504644F0FA
:10ABE000E5FA62E73FF00CFB431B4B457FF742AFB2
:10ABF000504644F0DBFA46E73FF002FB431B4B456F
:10AC00007FF726AF504644F0D1FA2AE73FF0F8FA32
:10AC1000431B4B457FF7F5AE504644F0C7FAD4F8D6
:10AC2000F433C0B2002B7FF4FAAE1B2840F0ED8065
:10AC3000B4F8F0230123A377002A3FF400AFD4F83F
:10AC4000EC13CB89934233D1F9E600BF809698008C
:10AC500000380040003C00406C4200203FF0D0FA39
:10AC6000A0EB090353457FF7BBAE284644F09EFA9C
:10AC7000BEE6D4F8EC33D88990423FF4A7AE2A80E0
:10AC8000DA8100BFD4F8E853D4F8F4139EE6D4F880
:10AC9000EC23D18999423FF444AFD4F8E8130B80F8
:10ACA000D38100BF3DE7D4F8EC13C889904209D0A6
:10ACB000D4F8E8331A80CA8100BFD4F8F433002BEB
:10ACC0003FF4BDAE1D689988B8E65B0862E60020D7
:10ACD000C4F8F40308E6D7F89C2457484FF0020C58
:10ACE0000025B0EB920F22FA0CF384F8E4C3C4F809
:10ACF000E853FFF41FAE2B8823F040031B041B0C0A
:10AD00002B802A8822F038021204120C04233DE61C
:10AD1000D7F89C04484BB3EB900F14D2B3EBD00F91
:10AD200059D2B3EB101F58D2B3EB501F6BD2B3EB19
:10AD3000901F71D2B3EBD01F70D2B3EB102F34BF82
:10AD40004FF480728022A283D8E6D7F89C243A4B35
:10AD5000B8F1000F01D000283AD0B3EB920F69D2BE
:10AD6000B3EBD20F37D2B3EB121F36D2B3EB521F75
:10AD700049D2B3EB921F4FD2B3EBD21F4ED2B3EBFB
:10AD8000122F34BF4FF480728022A283B6E6D7F828
:10AD90009C24294BB3EB920F1DD2B3EBD20F3FD2C1
:10ADA000B3EB121F3ED2B3EB521F3DD2B3EB921F57
:10ADB0003CD2B3EBD21F3BD2B3EB122F34BF4FF4D4
:10ADC000807280225200BEE702213DE504213BE56E
:10ADD000B3EB920FE1D30422B5E70822B3E70423D3
:10ADE000C3E5082130E510212EE50823BDE5102339
:10ADF000BBE5202128E52023B7E5402124E54023B9
:10AE0000B3E50423B2E510229DE71846202143F064
:10AE1000E9FC4FF0FF30BCE6202294E7402292E7A5
:10AE20000422CFE70822CDE71022CBE72022C9E792
:10AE30004022C7E7022286E7809698000146014833
:10AE400044F0D6B990420020094B93F8CE30042B41
:10AE500008D9053B032B08D801231A4600B103701B
:10AE60001046704700230122F8E700231A46F5E751
:10AE7000902D0020F0B40D6800240CE0BCF1050F0B
:10AE800018D8A0F137030A2B14D104EB840415F869
:10AE9000010B03EB4404A0F13003DEB2092EA0F154
:10AEA0006107A0F1410CF0D9052FE7D8A0F15703B5
:10AEB0000A2BEAD00D601460F0BC70479FED717AE8
:10AEC00007EE901A20EE070AF8EE677A27EE800A5E
:10AED000FDEEC07A17EE903A2033402B00F2C2808C
:10AEE000DFED697AB4EEE70AF1EE10FAF0EE407A9F
:10AEF0000CDD9FED666ADFED666AB0EE677AB4EE50
:10AF0000E67AF1EE10FA77EEC67AF6DC9FED617A1A
:10AF1000F4EEC77AF1EE10FA0CD59FED5C6ADFED26
:10AF20005E6AB0EE677AB4EEE67AF1EE10FA77EE8A
:10AF3000867AF6D49FED597AF4EEC77AF1EE10FADC
:10AF400000F388809FED567AF4EEC77AF1EE10FA9E
:10AF500044BF9FED507A77EE677A27EEA76ADFED60
:10AF6000515A9FED517ADFED516AA6EE257A67EED0
:10AF7000865AE6EE076AB6EE007AE5EEA67A27EE86
:10AF8000877ADFED466A70EE267ABDEEE76A16EE46
:10AF9000103A2033402B62D8B4EEE60AF1EE10FAF4
:10AFA0000CDDDFED3A5A9FED3A6AF0EE676AF4EE97
:10AFB000C66AF1EE10FA77EEE57AF6DCDFED356A77
:10AFC000F4EEE67AF1EE10FA0CD5DFED305A9FED93
:10AFD000326AF0EE676AF4EEC66AF1EE10FA77EEC6
:10AFE000A57AF6D4DFED2D6AF4EEE67AF1EE10FAEA
:10AFF0003BDDDFED256A76EEE77A67EEA75A9FED37
:10B00000295A9FED296ADFED296AA5EE856A27EEA8
:10B01000A55AE5EE866AB8EE006AE5EE267A67EE96
:10B02000867AC7EE206AB7EE006A76EE865A76EE2A
:10B03000666A86EE257A67EE277A66EE876AC0ED45
:10B04000017AC0ED037A80ED007A80ED027AC0EDDE
:10B05000046A70479FED0C7A77EE677A7DE7DFED43
:10B06000147ADEE79FED127A8BE7DFED0D6AF4EEDE
:10B07000E67AF1EE10FA44BFDFED066A76EEE77A83
:10B08000BBE700BF27D4D236DB0F4940DB0FC940F6
:10B09000E4CB1641DB0F49C0E4CB16C1DB0FC93F3F
:10B0A000DB0FC9BF92E741B99730083C15A82ABE0B
:10B0B000000000002DE9F047DFF8E483D8F82034E1
:10B0C00098F85C5A07EE903AF8EE670A08F65823AB
:10B0D0002DED028BC3ED000A002D78D1DFF8C4E31B
:10B0E000C8F8645A98F868CA9EF80050BCF1000F7E
:10B0F00040D0B8F8603A9FEDD36A9FEDD37A07EE5F
:10B10000903AF8EE677A20EE877AC6EE276ACF4B40
:10B110000022BCF1010F1A6076EE876AC7EE267A2C
:10B12000C3ED017A26D0BCF1020F9A60C3ED037A19
:10B1300020D0BCF1030F1A61C3ED057A1AD0BCF11F
:10B14000040F9A61C3ED077A14D0BCF1050F1A629F
:10B15000C3ED097A0ED0BCF1060F9A62C3ED0B7AEB
:10B1600008D0BCF1070F1A63C3ED0D7A02D09A63C1
:10B17000C3ED0F7AB64B9FEDB76A93F8EE309FEDB3
:10B18000B67A9FEDB60AB64A07EE903AF8EEE77A3D
:10B190009EF8343AC6EE276A1D4415FB0CFC5FFA94
:10B1A0008CFC07EE90CA60EE870AF8EEE77AC2EDF3
:10B1B000006AA7EEA00A5FF02DFCBDEC028BFCEE4E
:10B1C000C07A17EE903A88F8B83BBDE8F087B8F837
:10B1D0005E3A98F85D7A9FEDA37ADFF8C8E2DFED7A
:10B1E000A26A98F868CAC8F864EA07EE903A06EED0
:10B1F000107AF8EEE77ABCEEE02A27EE877AB8EE0E
:10B20000C66AB8EE422A012322EE262A8EED037A80
:10B210008EF80050CEED040A8EED016A88F8623A8D
:10B22000BCF1000F00F0E8809FED907A9FED904A0E
:10B23000DFED905AC7EE271A0CEB4C0606EBC6065C
:10B240006FF06B0A0EEB86060AFB0CFA4FF0000952
:10B25000B1EE611A9FED886A0AEB060400229FEDA9
:10B26000873ADFED873ADFED876A1046234607EE1F
:10B27000902AB8EEE77A27EE027AFDEEC77A17EE4B
:10B28000901A2031402900F2CB80B4EEC47AF1EE5E
:10B2900010FAF0EE477A0CDDDFED7B4A9FED7B5A2A
:10B2A000F0EE672AF4EEC52AF1EE10FA77EEE47AB2
:10B2B000F6DCF4EEE57AF1EE10FA0CD5DFED724A29
:10B2C0009FED735AF0EE672AF4EEC52AF1EE10FAFC
:10B2D00077EEA47AF6D4F4EEC67AF1EE10FA40F3E3
:10B2E000A68074EE677A27EEA75AB0EE630AA5EE41
:10B2F000030ADFED684AE5EE004A65EE272AB7EE5D
:10B30000005AE2EEA47AB0EE458AF0EE454AA1EE8C
:10B31000A78AE1EE274AC5EE088A84EE880A77EE0E
:10B32000067ABDEEE75A15EE101A2031402974D87E
:10B33000B4EEC67AF1EE10FA0CDD9FED535A9FED94
:10B34000537AF0EE674AF4EEC74AF1EE10FA77EE60
:10B35000C57AF6DCF4EEE57AF1EE10FA0CD59FED45
:10B360004A5A9FED4B7AF0EE674AF4EEC74AF1EE87
:10B3700010FA77EE857AF6D4F4EEC67AF1EE10FA8A
:10B3800041DD74EE677A27EEA75AF0EE632AE5EE08
:10B39000032A9FED407AA5EE227A65EE274AB8EEA1
:10B3A000005AE4EE877A67EE857A87EE887A013074
:10B3B00085423A4403F1240343ED048A03ED037A02
:10B3C00003ED017A43ED028A83ED000AC3ED026AC0
:10B3D000C3ED016AC3ED046AC3ED036A3FF747AFEB
:10B3E0006C34A6427FF43AAF09F55879B9F5226F6B
:10B3F00006F558767FF42EAF9FED277AC7EE207AB8
:10B40000CEED027A72E69FED257AF4EEC77AF1EE80
:10B4100010FA48BF75EEE77AB5E7F0EE667AC4E752
:10B42000B7EE000AF0EE408AB0EE408A77E79FED73
:10B430001B5AF4EEC57AF1EE10FA48BF75EEE77AC2
:10B4400051E700BF83F9223EBD378635444A0020CC
:10B45000902D0020555555406E12833A48E1FA3E32
:10B460003C4A00200AD7233C27D4D2360000484269
:10B47000DB0F4940DB0F49C0DB0FC93F92E741B901
:10B480009730083C00000000DB0FC940E4CB1641B8
:10B49000E4CB16C115A82ABE0060EA48DB0FC9BF7D
:10B4A000883E0020189C00202DE9F04FDFF808B4FA
:10B4B0009FEDED0ABBF8244CBBF81E1CBBF8222CF8
:10B4C000ABF8FC2B2DED048B07EE900A62008A424C
:10B4D000F8EE677AB8BF0A4683B097B280EE270AC3
:10B4E0000094ABF82C4CABF82E2C01975FF014FABB
:10B4F0007D00B0FBF5F5012DB8BF0125EDB2B0FB25
:10B50000F5F293B208EE903ADFEDD87A8BF8305C22
:10B51000F8EE688AB6EE009A68EEA78A07EE904ABF
:10B52000B8EEE78A0BF6344288EE280A06460BF599
:10B53000995909F104090BF64C44C2ED008A30EE2A
:10B54000090A5FF0E9F907EE907AF8EEE77A022847
:10B5500087EEA80AB8BF0220C7B28BF8387C30EE5D
:10B56000090A5FF0D9F907EE906AF8EEE77AF2EE91
:10B57000086A86EEA77A2328BD4BA8BF23205FFA6E
:10B5800080F8A8EB070693F824228BF8398C0BF689
:10B590003C41013696FBF5F60136F6B2DFEDB57AA1
:10B5A000D1ED018A77EE277AC7EE276AC1ED006AEE
:10B5B000002A40F0E480AE4BDFEDAF0ADFEDAF5A7A
:10B5C000DFEDAF1ADFEDAF4ADFEDAF2A9FEDAF3A07
:10B5D000DFEDAF3A9FEDAF4A9FEDAF1A03F50A7169
:10B5E00007EE902AB8EEE76A66EE207A37EEA57A83
:10B5F000FDEEC76A16EE903A2033402B00F2D2815E
:10B60000F3EE026AB4EEE66AF1EE10FA0CDD9FED9D
:10B61000A35ADFEDA36AB0EE472AB4EEE62AF1EEB4
:10B6200010FA37EE457AF6DCB4EEE47AF1EE10FA71
