:020000040800F2
:10000000F0FF0120E57D06085FD0040835FB0208FB
:100010005D7E06085D7E06085D7E06080000000025
:100020000000000000000000000000005DD0040897
:100030005BD004080000000059D004082912010810
:100040005D7E06085D7E06085D7E06085D7E06080C
:100050005D7E06085D7E06089D2C0108C92D0108FD
:100060008D2D0108512D0108152D0108C5E300084B
:10007000B5E30008A5E3000895E3000881E3000864
:100080006DE3000859E300085D7E060800000000EB
:10009000000000000000000000000000D92C010852
:1000A0007D01030869050308AD000308ED06030898
:1000B000A9040308E90303081D030308DBEE000895
:1000C000E1EE0008D1EE0008D7EE00085D7E0608DC
:1000D0005D7E0608E11301082513010800000000F9
:1000E000612C01085D7E06087D1A050800000000ED
:1000F00000000000000000000000000045E30008D0
:100100000000000045BD00084D0203085D7E0608A2
:1001100000000000000000000000000000000000DF
:1001200031E300081DE3000809E30008F5E20008D8
:10013000E1E20008000000000000000000000000F4
:100140000000000000000000000000006108050839
:10015000CDE20008B9E20008A5E200086912010832
:10016000C7EE0008CDEE000800000000000000000F
:10017000000000000000000000000000000000007F
:10018000000000005D7E0608000000000000000086
:080190005D7E06085D7E060895
:080198007C7906000100000063
:1001A00010020100010000005C30002058300020E7
:1001B00000000000F8090008280204000400000004
:1001C000C8340020003600200000000041F203087F
:1001D0002702040004000000C4340020043600207C
:1001E0000000000035F203082C000400100000009D
:1001F000E8430020D8430020000000007177010888
:100200002B001200240000001C440020F8430020B2
:100210000000000041770108292014007800000048
:100220001C420020404400200000000000000000AC
:10023000190201001000000064410020B8440020B1
:1002400000000000D5F10308F62101000C000000B9
:10025000C03F0020C844002000000000FC09000846
:100260001C0202001C000000543F00201845002022
:100270000000000005F40308282001001800000019
:10028000703F00203445002000000000B57B0108CD
:100290000412010002000000204100204C45002013
:1002A00000000000080A00080F0201000100000021
:1002B0001C41002050450020000000000A0A0008F0
:1002C00014000100040000003C3F002054450020C1
:1002D000000000000C0A00080A02010014000000DF
:1002E000C84E00205452002000000000D5F0010844
:1002F000F821010006000000A046002068520020FE
:1003000000000000100A00080300010001000000C6
:10031000C0460020705200200000000000000000D5
:100320001010010002000000584600207452002006
:1003300000000000160A000825201E002C01000005
:10034000E44E002078520020000000000000000071
:100350001A0201003C00000084580020205A0020AE
:100360000000000049F30308031201003D000000F3
:10037000045800205C5A002000000000180A000801
:100380003810010001000000585600209C5A00203F
:1003900000000000560A0008020001000C000000E6
:1003A000485B0020DC5B0020000000000000000033
:1003B0002902010040000000BC5A0020E85B002038
:1003C00000000000580A0008012001000C00000095
:1003D000547100207878002000000000980A00087E
:1003E0000EF003009E0100006C6E00208478002057
:1003F000000000005DD605081300010004000000A5
:100400003C780020247A002000000000A40A0008A4
:100410000101010004000000AC6D0020287A0020DA
:1004200000000000000000000001010004000000C6
:10043000A46D00202C7A002000000000A80A00080B
:100440000201010003000000A06D0020307A0020AE
:100450000000000045F10108220201001C0100001B
:10046000D8750020347A00200000000015F503083C
:100470000C200600CC00000030700020507B0020D3
:100480000000000009F10108010201000B0000005A
:10049000B86D00201C7C002000000000E9F103087A
:1004A0001B020100100000002C740020287C00209A
:1004B0000000000011F203081B1001000C000000F6
:1004C000AC5D0020387C002000000000BD6C0308FB
:1004D00021020100F0000000305C0020447C00207C
:1004E00000000000D57D03080702010002000000A3
:1004F0006C7F0020847F002000000000AC0A000810
:100500001D02020006000000247F0020887F0020DA
:100510000000000000000000060203000C000000C4
:10052000347F00201084002000000000D9F403086C
:100530003900010005000000407F00201C840020DD
:100540000000000025F2030827000100040000005D
:100550005C7D00202484002000000000AE0A00081A
:100560000B1201003C000000D8850020E896002016
:1005700000000000B40A00080D1201001400000081
:10058000889200202497002000000000F00A000854
:10059000050201000400000074C2002088C200208F
:1005A00000000000040B0008030101000A00000025
:1005B000BCBF00208CC20020000000002DC3040836
:1005C0000E020100020000001CC0002098C20020A2
:1005D00000000000080B00081402010005000000E4
:1005E00020C000209CC20020000000000A0B000870
:1005F000130201000400000084B60020A4C2002001
:1006000000000000100B0008231201001000000081
:1006100030E8002094EC002000000000140B0008DB
:10062000371001002E00000034EC0020A4EC002064
:1006300000000000240B0008161001000600000056
:1006400028E80020D4EC002000000000520B000835
:100650002F1001002200000070EC0020DCEC0020D4
:1006600000000000580B00081E00010009000000F7
:1006700020E7002000ED0020000000007A0B0008B9
:10068000051001000600000008E800200CED002025
:1006900000000000840B0008F581010068000000E4
:1006A000C4E4002014ED002000000000D97C030801
:1006B00023200100100000006CE700207CED0020EA
:1006C00000000000ED570108FD0701007600000062
:1006D00098EB00208CED0020000000006966030804
:1006E000261001000E00000014EE002004EE002091
:1006F00000000000711E05080B3001001A00000008
:100700009CE4002054EE0020000000008A0B00084A
:100710001F3001002400000074E4002070EE00206F
:1007200000000000A40B00080D1001004C000000A8
:10073000BC2B01204436012000000000F710030804
:100740000400080080000000FC2A012090360120EF
:10075000000000000000000009020100010000008C
:10076000A42A01201037012000000000C80B000857
:10077000FD01010024000000282A01201437012077
:1007800000000000E3F20008182001003200000021
:10079000F02901203837012000000000D1F20308C1
:1007A000FB01010001000000682801206C370120D6
:1007B00000000000A9F10308FC010100090000008D
:1007C000342701207037012000000000B1F1030838
:1007D000F701010006000000082701207C370120F6
:1007E00000000000CA0B0008F9010100040000002D
:1007F000F8260120843701200000000091F3000852
:10080000160215003F0000007CF40020883701200C
:1008100000000000D1F103083400010010000000C6
:10082000E8250120C83701200000000019D605087E
:100830001102010008000000C0250120D837012066
:1008400000000000D00B000812120100040000009C
:10085000B8250120E037012000000000D80B000877
:10086000122001001100000064230120E437012060
:1008700000000000DC0B0008000201000B0000007B
:10088000A0200120F8370120000000000000000037
:10089000FF11010006000000DC1F012004380120C8
:1008A0000000000031F10308081203000F000000EF
:1008B000582001200C3801200000000051F10308ED
:1008C000FA01010003000000D41901201C380120A6
:1008D00000000000C9F103080A80010028000000A0
:1008E000B41101202038012000000000D556010875
:1008F000061001001C000000A0F300204838012071
:100900000000000045F2030802020100030000009D
:10091000E4F2002064380120000000000000000024
:100920000C02010004000000C4F20020683801201D
:100930000000000041F103081F0208001000000041
:100940005C1101206C3801200000000011F1030847
:10095000110001000C000000F60501207C38012088
:1009600000000000DD100308FE010100140000007B
:10097000680001208838012000000000F9F1030818
:100980001900010005000000506A0120186B0120C9
:1009900000000000EE0B00081A0001000E0000002D
:1009A000B0690120206B012000000000F40B00085A
:1009B000203201000A00000048680120306B01204D
:1009C000000000003DD60508150010007000000072
:1009D000286201203C6B01200000000000000000A4
:1009E0002A00080060000000B86A0120AC6B0120FA
:0809F00000000000F1D505082C
:1009F80000000000000000000100000002020000EA
:100A080000000000030000230201F40114000005A7
:100A180000000000000000000000000000000000CE
:100A280000000000000000000000000000000000BE
:100A380000000000000000000000000000000000AE
:100A4800000000000000000000000000010000009D
:100A5800000000000000000000000000000000008E
:100A6800000000000000000000000000000000007E
:100A7800000000000000000000000000000000006E
:100A8800000000000000000000000000000000005E
:100A9800E8036400040A000114001E00002040302E
:100AA80090010000003C200300000000000000004E
:100AB800000000000000000000000000000000002E
:100AC800000000000000000000000000000000001E
:100AD800000000000000000000000000000000000E
:100AE80000000000010000000000000000000000FD
:100AF80000000000000000000000000000000000EE
:100B08000000000000FF00000000010000000000DD
:100B1800000000000000000000000000200032007B
:100B2800C800D00796001400320028004C04400684
:100B38000005500014000F000800640001000100C7
:100B480005000A000000F4019600C409000019001D
:100B5800000000000000000000000000000000008D
:100B6800000000000000000000000000000000007D
:100B78000000000501000000000000002000030143
:100B88000000AE014A015E012C0164000200000071
:100B980001000A019A01001E0A000002000000007C
:100BA8000001000000050000010203000000000031
:100BB80000000000000000000000000000800700A6
:100BC8000000000001000000000000000101010118
:100BD800FFFFFFFF00000001000105533431310021
:100BE8000000000200000000280100007E05EA0560
:0A0BF800B4053200E803D007000046
:100C020001000000000004010000000000000002DA
:100C120010000000070000000000000000000000BB
:100C22000102030406070809E89007080000080209
:100C32000503030000000000F0900708010008020D
:100C42000504030000000000BCAD07080200FE011D
:100C52000110030000000000E05C0708030014021A
:100C62000003000000000000F890070804001F02C3
:100C720002000800000000000091070805001F02A2
:100C82000201080000000000FFFF000044380020BD
:100C920098380020D6010100FFFFFFFF19B90308B1
:100CA200000000000000000020050708010000000D
:100CB200FA00000001000000010000000101000034
:100CC2000001010100FF01004C7100200000F4014D
:100CD200010000004A7100200000F4010100000040
:100CE200487100200000F40101000000467100205C
:100CF2000000F40101000000447100200000F40132
:100D020001000000427100200000F4010100000017
:100D1200407100200000F40101000000717B030813
:100D2200357B030800000000A0F1060830710020A6
:100D3200053201003E7100206400F4010100000050
:100D42003C7100206400C409010000002E710020E3
:100D5200E803D007010000002C710020E803D0074F
:100D6200010000002A710020E803D0070100000002
:100D7200287100201E00B80B01000000367100200F
:100D820005000F00010000003871002003000A0076
:100D920001000000267100201E00F4010100000085
:100DA2003A710020020000002CF206082471002093
:100DB2001400640001000000327100203200E803D8
:100DC20001000000227100200000C80001000000A4
:100DD2002D70002000C801002C700020005001007E
:100DE2002B700020005A0100297000200200000030
:100DF20038F20608EC960708F4960708762D0120CB
:100E02000100C40900000000742D01200100C40982
:100E120000000000722D01200100C4090000000042
:100E2200702D01200100C409000000006C2D01207A
:100E32000100C409000000006E2D01200100C40958
:100E4200000000006A2D01200100C409000000001A
:100E5200682D01200100C40900000000D76D0020A8
:100E620000C80100D66D002000C80100D46D00202A
:100E72000000FFFF0A000000D26D00200100C80040
:100E820001000000D06D00203200307532000000F9
:100E9200CE6D002005820500CC6D002005002C01DE
:100EA20005000000CB6D0020055A0500C86D00202A
:100EB20000FF0100CA6D0020020000008C03002028
:100EC200C66D002003000000283E0708C76D002001
:100ED20000FF0100C96D0020020000008C03002009
:100EE200C56D002003000000283E0708C57A0308EC
:100EF200557A03080000000044F2060864710020DD
:100F0200EE02CA08010000006271002000C8010060
:100F1200640000006171002000C80100640000004C
:100F2200607100200200000050F30608B26D00203C
:100F32000000803E05000000B06D002080C1803EB0
:100F420005000000AA6D00200083007D050000005E
:100F5200A86D002080C1803E05000000A36D002026
:100F620000FF01009C6D00206400F40101000000FC
:100F72009A6D0020040000005CF30608996D0020C1
:100F82000200000070F306085D6E00200D000000F4
:100F92007CF306085A6E002000640100586E00209F
:100FA200320010270A000000566E00200D000000DB
:100FB2007CF30608556E00200D0000007CF3060845
:100FC200546E002002000000B4F306080000000086
:100FD2000000000000000000C0F306086A71002053
:100FE2003E000000F8F30608687100200100FF7F50
:100FF200010000006771002002000000F4F40608FE
:101002005F6E00200300000004F506085E6E0020FB
:101012000300000004F506081A700020000A01000F
:10102200187000200000E803010000001670002084
:101032000000E80301000000147000200000E80333
:1010420001000000127000200000E803010000000F
:101052000A7000200000E803010000001070002068
:101062000000E803010000000E7000200000E80309
:10107200010000000C700020001401002870002004
:101082000200000014F50608267000200000F4019A
:1010920001000000247000200000F40101000000A3
:1010A200227000200000F4010100000020700020E6
:1010B2000000F401010000001E7000200000A00FDB
:1010C200010000001C7000200000A00F01000000C1
:1010D2000F710020196401000E710020020000004F
:1010E20020F506080C710020E803D0070A00000072
:1010F2000A710020006401000A000000FF70002055
:1011020000640100FE7000200064010006710020EE
:10111200006401000A000000057100200064010063
:101122000A00000004710020006401000A000000AF
:101132000971002000FF01000A0000000871002070
:1011420000FF01000A0000000771002000FF0100FB
:101152000A0000000371002001FF01000A000000E4
:101162000271002001FF01000A000000017100204D
:1011720001FF01000A000000686E00200000F40177
:1011820001000000666E00200000A00F01000000B8
:10119200646E00200000A00F01000000626E0020BB
:1011A2000000A00F01000000606E00200000A00FF0
:1011B200010000001375002000C801001275002014
:1011C2000064010011750020006401001075002008
:1011D200006401000F750020006401000E750020FC
:1011E200FF0801000D75002001640100C1790308A8
:1011F20085790308000000002CF50608167500200A
:101202000132010015750020010000009CF506085E
:101212001475002004000000A4F506080C750020D7
:10122200006401000A7500201400E80301000000B8
:1012320008750020E80330750A00000007750020D9
:1012420000C801000675002000C8010005750020D5
:1012520000C801000475002000320100187500204A
:10126200004B01001775002004000000B8F50608C5
:1012720003750020006401000A00000026750020AA
:101282000000D007010000002175002000C8010005
:101292002075002000C801001F75002000C8010051
:1012A200247500200000D007010000001E750020F8
:1012B20000C801001D75002000C801001C75002037
:1012C20000C80100227500200000D00701000000C4
:1012D2001B75002000C801001A75002000C801001B
:1012E2001975002000C801006977030851770308C7
:1012F20000000000CCF50608516E0020005A0100E3
:10130200506E002000C801004E6E0020E803D00796
:10131200010000000000000000000000F9A803081E
:1013220068F6060853544D3332463431310000001A
:10133200C46D002000030100C36D00200003010002
:101342008D7603084176030800000000BCF606080B
:1013520001760308B97503080000000058F7060873
:10136200D9760308B9BE030800000000D8F70608C2
:10137200B46D002001030100197C0308ED7B030812
:101382000000000030FB06083D750308F1740308F5
:1013920000000000A0FB060879770308ADE203080D
:1013A200000000003CFC060841BD0308457C030820
:1013B20000000000E4FC0608D977030800000000E2
:1013C2000000000070FD0608B57803085D78030888
:1013D20000000000D4FD0608497903080D790308CE
:1013E200000000007CFE060895E80308FD7903086A
:1013F2000000000008FF060821710020010601001C
:1014020021780308ED7703080000000004000708B4
:10141200CBE7030899BA030800000000740007082C
:10142200D9E8030861BB030800000000C4010708F3
:10143200207100200103010021770308F1760308DF
:10144200000000009802070831E9030800000000CC
:1014520000000000FC0207088975030801B90308AF
:10146200000000007C0307080000000000000000EC
:1014720000000000080407082D7A0308D9BB0308FE
:1014820000000000780407080000FA430000FA4355
:101492000000803F0000803F0000000000000000CC
:1014A20000000000113503080000000000000000E9
:1014B20000000000FFFFFFFF000000004452002078
:1014C2000800000000000000345200200800000064
:1014D2002000000001000000A00F0000B80B000077
:1014E20002FFFF01685E0C00FFFFFFFF02FF00002A
:1014F2006DF80408DBBD040801F8040800000000D0
:10150200BDBC0408D900050845F70408B1F3040876
:1015120000000000000000007DBC040819BB0408A4
:101522000BBB04082DF2040849F2040811F2040866
:10153200F5F10408DBF1040823F80408B9BD040836
:1015420047F704080000000095BC0408B3F3040840
:1015520019F7040813F3040800000000000000005B
:1015620089BC040800000100E0010000FFFFFFFF4A
:1015720001FF0100157303080000000000000000D5
:10158200701E0708000000000000000000000000BC
:10159200AC2407080000000000000000000000006A
:1015A20064250708000000000000000000000000A1
:1015B200102507080800000042570200000001063B
:1015C2004257020000000106000000000000000077
:1015D200B9A80308CB7400200101FF00FFFFFFFF41
:1015E2009DD303083DD5030800000000E02607084C
:1015F200E9D20308000000000000000044260708AA
:1016020019D703080000000000000000FC250708AD
:101612002D202D2D202D2D2D2D202D2D2D000000A6
:1016220000000000000000000000000000000000B8
:10163200000000000000000000000000AC250708C8
:1016420020C200209CFF2C010000000088770020AF
:10165200E0150C1700000000C97400200200000011
:10166200E4250708956D002002000000F025070818
:10167200906D002088136F1701000000926D00200A
:1016820088136F1700000000BA2D0120000000002F
:1016920000000000B82D0120000000000000000042
:1016A200B62D01200000000000000000B42D012032
:1016B2000000000000000000B22D01200000000028
:1016C20000000000B02D012000000000000000001A
:1016D200B41000200000000000000000196D00207E
:1016E2000300000044270708886D002088136F1745
:1016F200010000006AC2002088136F17000000007A
:10170200D1730308000000000000000054270708FE
:10171200CA74002001000000A82707086CC200203C
:1017220001000000B427070862C200200200000086
:10173200BC270708000000000000000000000000B5
:10174200C8270708B9730308000000000000000062
:1017520064280708000000000000000000000000EC
:10176200B828070800000000000000000000000088
:1017720028290708946D002002000000602907084C
:1017820066C20020E0150C1700000000FFFFFFFFFB
:10179200702C0708300D00202BC3040827C304084F
:1017A2001FC3040801C104082DCD0408C5CC0408D8
:1017B20011CC040815C3040805C30408F5C20408C3
:1017C200E5C20408F9C004081A0300000000000082
:1017D2000000000000000000000000000000000007
:1017E200000000000403090412010002000000408E
:1017F200830420570002010203010B01FFFFFFFFD8
:101802000100000050C30000010100002567040828
:10181200F96604089D660408C1570408B9660408FD
:101822005D660408BD570408B40E0020356804083C
:101832001D6804080D680408A1570408C967040854
:101842007D67040891570408900E00201D6004086B
:10185200A9570408A55704089D5704087161040894
:101862009957040895570408E432070875000508DB
:101872009BBD040859FF040800000000000000009E
:10188200F1F6040801F60408000000000000000060
:101892000000000071BC0408495804083D580408BF
:1018A2008D680408A9680408F557040871680408DB
:1018B200556804081F0000001C0000001F00000003
:1018C2001E0000001F0000001E0000001F0000009C
:1018D2001F0000001E0000001F0000001E0000008C
:1018E2001F0000000068214C012500005C3207083F
:1018F200F4010000FFFF0000008002021F00000050
:1019020053544D202020202050726F647574202083
:101912002020202020202020302E30310080020282
:101922001F00000053544D202020202050726F646D
:10193200757420202020202020202020302E3031BD
:101942000403090412010002EF020140830456322B
:101952000002010203010000120100020202004023
:101962008304405700020102030100000902200023
:10197200010104C0320904000002080650050705EF
:1019820081024000000705010240000009026400D4
:10199200030100C032090400000103000000092114
:1019A200110100012226000705830308000A080B23
:1019B2000102020201000904010001020201000504
:1019C2002400100105240100020424020205240659
:1019D2000102070582030800FF09040200020A004F
:1019E20000000705010240000007058102400000D7
:1019F20009024300020100C0320904000001020290
:101A02000100052400100105240100010424020242
:101A12000524060001070582030800FF09040100EE
:101A2200020A0000000705010240000007058102CA
:101A320040000000FF00000000FF00000000000066
:101A42000000AA550701000001AA5505010000087F
:101A5200AC3C0708FF1FFF1F05010905A101A100FA
:101A620005010930093109320933093509340940C0
:101A720009381581257F750895088102C0C00000CC
:101A820009022200010100E0320904000001030101
:101A92000200092111010001222600070583030823
:101AA200000A000000000000010203040102030416
:101AB200060708090FF904080DFE040889F904084D
:101AC200F3BC0408A5BE040803BD04081FBD040836
:101AD200CDBC0408BFBC04080000000000000000E8
:101AE2002D202D2D202D2D2D2D202D2D2D2D0000A5
:101AF200000000000000000000000000000000AA3A
:101B0200550B010000AA5505010000AA5509020063
:101B12000000AA5503009F0001000000C01200004F
:101B22007EFF0000FFFFFFFF24EE00200000000008
:101B32004CEE002000000000010000008C9107081C
:101B4200ACD7070800000000FD0F0308A0860100C3
:101B5200040000000000000000000000000000007F
:101B62000000000000000000000000000000000073
:101B72000000000000000000000000008C91070837
:101B820014D807080000000099F40208E8030000D6
:101B9200040000000000000000000000000000003F
:101BA2000000000000000000000000000000000033
:101BB200000000000000000000000000BC900708C8
:101BC2000000000000000000C50002087D000000C7
:101BD200FF00000000000000000000000000000004
:101BE20000000000000000000000000000000000F3
:101BF200000000000000000000000000349507080B
:101C02000000000000000000E51402087D00000052
:101C1200FF000000000000000000000000000000C3
:101C220000000000000000000000000000000000B2
:101C32000000000000000000000000000C9F0708E8
:101C42000000000000000000D93802087D000000FA
:101C5200FF00000000000000000000000000000083
:101C62000000000000000000000000000000000072
:101C7200000000000000000000000000C4900708FF
:101C8200000000000000000065EE0208E80300000A
:101C9200030000000000000000000000000000003F
:101CA2000000000000000000000000000000000032
:101CB2000000000000000000000000001CD807081F
:101CC20000000000000000001D4C06081027000064
:101CD20003000000000000000000000000000000FF
:101CE20000000000000000000000000000000000F2
:101CF200000000000000000000000000F49007084F
:101D02000000000069730108A1C002085F760000AC
:101D120005000000000000000000000000000000BC
:101D220000000000000000000000000000000000B1
:101D3200000000000000000000000000B09407084E
:101D4200000000000000000029090308102700001D
:101D52000100000000000000000000000000000080
:101D62000000000000000000000000000000000071
:101D720000000000000000000000000028D8070852
:101D82000000000000000000758A0208E80300005D
:101D9200050000000000000000000000000000003C
:101DA2000000000000000000000000000000000031
:101DB20000000000000000000000000034D8070806
:101DC2000000000000000000E1070208204E0000B1
:101DD20003000000000000000000000000000000FE
:101DE20000000000000000000000000000000000F1
:101DF20000000000000000000000000044D80708B6
:101E02000000000000000000C1050208204E000092
:101E120003000000000000000000000000000000BD
:101E220000000000000000000000000000000000B0
:101E320000000000000000000000000054D8070865
:101E4200000000000000000055BD0208400D030024
:101E5200030000000000000000000000000000007D
:101E62000000000000000000000000000000000070
:101E7200000000000000000000000000849207083B
:101E820000000000000000000533030810270000D6
:101E9200010000000000000000000000000000003F
:101EA2000000000000000000000000000000000030
:101EB200000000000000000000000000DC900708A5
:101EC20000000000000000005D8A030810270000E7
:101ED20003000000000000000000000000000000FD
:101EE20000000000000000000000000000000000F0
:101EF20000000000000000000000000064D8070895
:101F0200000000000000000011A90108A0860100E5
:101F120001000000000000000000000000000000BE
:101F220000000000000000000000000000000000AF
:101F3200000000000000000000000000C890070838
:101F42000000000000000000D1BB020850C30000E6
:101F5200010000000000000000000000000000007E
:101F6200000000000000000000000000000000006F
:101F7200000000000000000000000000D0900708F0
:101F8200000000000000000099B90208A0860100CC
:101F9200000000000000000000000000000000003F
:101FA200000000000000000000000000000000002F
:101FB200000000000000000000000000489907082F
:101FC20000000000000000007DB50208A8610000CA
:101FD20001000000000000000000000000000000FE
:101FE20000000000000000000000000000000000EF
:101FF2000000000000000000000000006CD807088C
:10200200000000000000000089E30308A086010030
:1020120001000000000000000000000000000000BD
:1020220000000000000000000000000000000000AE
:10203200000000000000000000000000B894070843
:1020420000000000000000007D8C0208A00F0000CC
:10205200010000000000000000000000000000007D
:10206200000000000000000000000000000000006E
:1020720000000000000000000000000078D80708FF
:102082000000000000000000F5DD0308102700003A
:10209200010000000000000000000000000000003D
:1020A200000000000000000000000000000000002E
:1020B200000000000000000000000000B0920708CD
:1020C20000000000000000003D100308A00F000007
:1020D20001000000000000000000000000000000FD
:1020E20000000000000000000000000000000000EE
:1020F2000000000000000000000000008C920708B1
:102102000000000000000000296E05081A410000CE
:1021120001000000000000000000000000000000BC
:1021220000000000000000000000000000000000AD
:1021320000000000000000000000000010950708E9
:1021420000000000000000005DC30408102700002A
:10215200010000000000000000000000000000007C
:10216200000000000000000000000000000000006D
:10217200000000000000000000000000B8D70708BF
:1021820000000000000000008189010850C3000027
:10219200010000000000000000000000000000003C
:1021A200000000000000000000000000000000002D
:1021B20000000000000000000000000084D80708B2
:1021C200000000000000000055CD0408400D03008F
:1021D20000000000000000000000000000000000FD
:1021E20000000000000000000000000000000000ED
:1021F2000000000000000000000000008CD807086A
:102202000000000000000000318A0208400D0300B7
:1022120000000000000000000000000000000000BC
:1022220000000000000000000000000000000000AC
:1022320000000000000000000000000094D8070821
:102242000000000000000000BDC4030850C30000ED
:102252000300000000000000000000000000000079
:10226200000000000000000000000000000000006C
:10227200000000000000000000000000A0D80708D5
:1022820000000000000000001D87020840420F000D
:10229200000000000000000000000000000000003C
:1022A200000000000000000000000000000000002C
:1022B200000000000000000000000000ACD8070889
:1022C2000000000000000000A912030850C3000033
:1022D20000000000000000000000000000000000FC
:1022E20000000000000000000000000000000000EC
:1022F20000000000000000000000000001010000DA
:1023020008000000FFFFFFFF7D00000000600240A8
:10231200106002400000000000000000000B0000FE
:102322000000000000000000000000000060024009
:10233200286002400100000000000000060C0000BE
:1023420000000000000000000000000000600240E9
:10235200406002400200000000000000100D00007A
:1023620000000000000000000000000000600240C9
:10237200586002400300000000000000160E00003A
:1023820000000000000000000000000000600240A9
:10239200706002400400000000000000200F0000F6
:1023A2000000000000000000000000000060024089
:1023B20088600240050000000000000026100000B6
:1023C2000000000000000000000000000060024069
:1023D200A060024006000000000000003011000072
:1023E2000000000000000000000000000060024049
:1023F200B86002400700000000000000362F000015
:102402000000000000000000000000000064024024
:1024120010640240000000000000000000380000CC
:102422000000000000000000000000000064024004
:10243200286402400100000000000000063900008C
:1024420000000000000000000000000000640240E4
:10245200406402400200000000000000103A000048
:1024620000000000000000000000000000640240C4
:10247200586402400300000000000000163B000008
:1024820000000000000000000000000000640240A4
:10249200706402400400000000000000203C0000C4
:1024A2000000000000000000000000000064024084
:1024B200886402400500000000000000264400007D
:1024C2000000000000000000000000000064024064
:1024D200A064024006000000000000003045000039
:1024E2000000000000000000000000000064024044
:1024F200B8640240070000000000000036460000F9
:1025020000000000000000000000000001000000C8
:1025120009BB040807BB040805BB0408FFBA04088A
:10252200FDBA040803BB040801BB04080000000054
:10253200DDE60408ADE7040881C604081DE80408C6
:1025420005E9040889BB040861BB040845BB04080B
:10255200D1C80408C1C7040801C9040875EB0408FE
:10256200E9040508F1EB040875BB04084DBB040837
:102572003DBB0408010000000000803F0C6C0120FC
:10258200FFFFFFFF0000803F00000000000000008E
:10259200000000000000803F00000000000000007A
:1025A2000000000000000000000000000000000029
:1025B2000000000000000000000000000000803F5A
:1025C2000000000000000000000000000101000007
:1025D2006C1B002000000000000000000000000052
:1025E20000000000000000000000000000000000E9
:1025F20000000000000000000000000000000000D9
:1026020000000000000000000000000000000000C8
:1026120000000000000000000000000000000000B8
:1026220000000000000000000000000000000000A8
:0426320000000000A4
:08280000082800080040000850
:10800000704770474378007840EA032010FB01F086
:108010004FF4807190FBF1F000F30F0000B2704755
:108020002DE9F04FDFF8E8C1784CDCF800502288E9
:10803000C2EB25135200C2EBE502B4F902505B43D8
:108040006A43B4F904501B135D43AD1305EBE225FD
:10805000B5F5FA324FEAE57985B049F1FF33CDE95C
:108060000023DDE900325343009ACCF80450A2FB10
:1080700002ABB4F90820CDE902010199009812B2CF
:108080000BEB430B5143D31700FB0311A2FB00235F
:108090000B441F03160347EA1257B4F90A200FFADC
:1080A00082F84FEAE87908FB0BF10AFB0913A8FBF9
:1080B0000A0119444FEA102848EA016818EB060241
:1080C000E6884FEA212949EB0703B6B212F100080E
:1080D00043F50049A8FB060106FB09114A10CB171E
:1080E00052EA030100F09080B4F91060B4F90E0078
:1080F00036B2F71706FB0BF10AFB0711A6FB0AAB1A
:10810000019E00B200FB06FE009E8B44C11706FBD9
:1081100001EEA0FB060171444FEA4149DCF808106A
:108120004FEA4048C1F5801C1AEB080649EAD039ED
:108130004BEB09074FEAEC794FEAC97141EA5C0160
:108140004FEACC70B4F90CC04FF0000A1AEB0608E5
:108150004FEACC0B4BEB0709B0EB080061EB0901D0
:1081600040F635468B46A0FB060106FB0B115FF07F
:1081700055FCB4F916204E1312B2470B47EAC1471B
:1081800002FB06FCD31707FB03CCA2FB07236344C7
:10819000564307FB0366A2FB07233344560E46EA09
:1081A000C3163218B4F914604FEA63670FFA86FAFF
:1081B00047EB010380460AFB01F14FEAEA7B08FB2B
:1081C0000B17AAFB08013944C60C46EA413612EBEC
:1081D0000608B4F912204FEAE14743EB07094FEADA
:1081E000182112B241EA096113010B44029A0AB143
:1081F0001B0A1360039B23B105EB850580352D1207
:108200001D6005B0BDE8F08F0023EFE7D0400020EF
:10821000D01B0020012070470120704701207047CB
:1082200070472DE9F04FD94BD94AB3F802A0D46872
:10823000B3F800C04FEA8A46A4EB0C2C93F9044033
:10824000ACFB0C89A6FB0C674FEA9A3AE5170CFBCE
:108250000A7704FB09FC08FB05CCA4FB08458DB09C
:1082600016EB0408654447EB0509B8F1000F0791C8
:1082700079F100010A9003DA18F1FF3849F1000999
:108280004FEAE9710191CDF80090DDE900450A99C6
:10829000C2E90445002900F06381214601FB05F194
:1082A000A4FB044505EB4101CDE902450391D2F859
:1082B00018C0DDE902120029154672F100020C46D1
:1082C000C0F2AD81A00940EA8560AA11DDE900563F
:1082D000314600FB01F102FB0512A0FB0501114430
:1082E000002871F10002C0F2968193F90A60020A37
:1082F0000C1242EA0162F71704FB06F102FB0711B8
:10830000A6FB02670F4439463046002ECDE9040132
:1083100071F100010B94C0F27781B3F907E093F992
:1083200009600399B3F90580049DAEF5804E70464F
:10833000DDE900AB06FB01F9C117CDE90801099899
:1083400002990EFB0BF4F7176D0901FB07990AFB65
:108350000044A6FB0167AEFB0A01AA46059D4F44F7
:1083600021444AEAC564A2466C11BD00A8F5804EBE
:10837000A34645EA9675B40000261AEB060A4FEAB2
:108380008E374BEB070B4FEA41591AEB04064FEAC5
:1083900040584BEB050749EAD02916EB080A47EB92
:1083A000090BBAF1000F7BF10001C0F2258193F9AE
:1083B00010400B99E51701FB04F102FB0511A4FB2A
:1083C00002454FEA1A6242EA0B220D44002C049245
:1083D00075F100024FEA2B6EC0F20A81DDE90289D5
:1083E00093F90F60B3F80D204946F71706FB01F12A
:1083F00008FB0711A6FB08670F444FEA5418B3F8AF
:108400000B104FEA071B48EAC5684BEA167B4FEA98
:10841000061A002616EB08004FEA65194FEAC13725
:1084200047EB0901DDE9006794B2A4FB068904FB70
:10843000079910EB0A0041EB0B014FEA89554FEA0F
:1084400088540F4645EA9825011947EB0502002993
:10845000CDE9021272F10002C0F2C280DDE90056DD
:1084600093F913A0B3F911204FEAEA7B0AFB06F156
:1084700005FB0B11AAFB05450D441204DDE90201C1
:1084800014EB020A45EBE27B049A4FEA9008A2FB48
:108490000C6748EA8178AAFB0C4516EB08004FEA06
:1084A000A1090CFB0E770CFB0B5547EB0901002CC7
:1084B00075F10002A246AB46C0F28A804FEA5A34F8
:1084C00044EACB444FEA6B32A4FB0C450CFB02554B
:1084D000002C75F1000275DB93F91480ACFB0C677E
:1084E0004FEAE87906FB09F3B24608FB0737AAFB17
:1084F00008234FEA542848EAC5583B4410EB080AC1
:108500004FEA65291F4641EB090B002A77F100036A
:10851000164651DB320C42EA0742A2FB0C233C1404
:108520000CFB0433002A73F1000141DB4FEAD2183F
:1085300048EA43681AEB08004FEAE3194BEB0901DC
:10854000021841EB0103161843EB0107FC00F5008C
:108550002A1844EA567444EB01030A9A1B0C136070
:10856000079BE3B1DDE90045221945EB0503A0189F
:1085700045EB0301C90041EA5071C00024184D4188
:10858000002C75F100030DDB04E000BFB8400020B3
:10859000D01B0020A20B079B42EA85421A600DB057
:1085A000BDE8F08F43F6FF70002124184D41F1E73C
:1085B0007F3243F10003B9E74FF6FF740025161927
:1085C0006F41A7E740F2FF160027A4197D4183E71A
:1085D00041F6FF76002714EB060A45EB070B6DE723
:1085E000DDE90212033142F10002CDE9021235E762
:1085F0001F3445F10005F1E66FF07F4000211AEBD2
:10860000000A4BEB010BD2E616F11F0047F1000107
:10861000CDE9040181E6FF3041F1000165E63F3418
:1086200045F100054EE60120704701207047704774
:108630000A4B1A68642353434FF4805293FBF2F3BE
:108640000360074B1A880A235343302293FBF2F34B
:1086500003F584531A330B60704700BFB04000200D
:10866000AC4000200120704770472A4AD369126A43
:10867000A3F5000307EE903A274BB8EEE77AD3ED67
:10868000016AD3ED027A93ED046AD3ED085A93EDB3
:10869000075AE7EE276AA2F50002D3ED007AE7EE6B
:1086A000267A07EE102AF8EEC76A93ED057AA7EE50
:1086B000276A93ED037AA7EE867A93ED0B6AE6EECE
:1086C000865A93ED0A6AE6EE275A93ED096AA6EEFA
:1086D000275A93ED066AA5EE276AA5EEA66AA6EECE
:1086E000867AB5EE407AF1EE10FA18BFBDEEC77A81
:1086F000F5EE407A18BF80ED007AF1EE10FA08D05E
:10870000FDEEE77A4FF4807317EE902A92FBF3F3B5
:108710000B607047D01B0020EC4000200120704708
:108720006D4B2DE9F04F5C6A6C4BB3F80AE0B3F87F
:1087300004809A894FEA0E2AB4EB0A044FEA1E6BB2
:108740004FF0000587B065EB0B05CDE90045074606
:10875000009C1889019EA0FB044500FB0655E0091A
:1087600040EA45604FEA08448C46E9114FEA184553
:1087700010EB0408D888009C41EB0509CDE9048979
:10878000A0FB0445B3F8028000FB0655200A40EA2E
:1087900005604FEAC83429124FEA584510EB040827
:1087A00041EB05090099A2FB010102FB06114FEA0A
:1087B000D05A4AEA412A1AF5FA634FEAE15B4BF1D3
:1087C0000004B3F5FA6FCDE9023474F10003424EB0
:1087D00064DA0524AAFB040104FB0B1100FB0BF473
:1087E0000AFB0144DDE90423A0FB0A0121444D10EA
:1087F0004FEA3004121B4FEA900463EB050344EA8E
:108800008174B8EB0408CDE90423DDE9023434486F
:108810004FEAA10569EB05094FF0FF31834274EB84
:10882000010326DA40F6AC501AEB00024FF00001CB
:108830004BEB010302FB03F1A2FB022303EB410319
:10884000D400DD00101B45EA527563EB0501DDE93C
:10885000044524184D41CDE904450B24A2FB040135
:1088600004FB031149104FEA3000B8EB000869EB34
:108870000109DDE900325343009ADDE90201A2FB60
:1088800002AB0BEB430B4FEADA7242EA4B02801A5F
:108890004FEAEB7361EB0301CDE9020197B1B16AD5
:1088A000A1FB082301FB0933540D5D1544EAC324E1
:1088B000DDE90423A21A65EB03031D46D30B43EA4B
:1088C00045433B60BCF1000F02D0029BCCF8003066
:1088D00007B0BDE8F08F00BFD01B00209C400020F7
:1088E00024FAFFFF7FB504AA002302F8093DE7211F
:1088F000012306460AF0D6FE9DF80730144D154CAC
:1089000013F0030321D0052302AAE82130460AF020
:10891000C9FE9DF80A209DF80910130443EA0123BB
:108920009DF8081012F0800F14BF4FF07F42002214
:108930000B4313432B609DF80C209DF80B3043EA4A
:1089400002232380012004B070BD2B602380F9E74F
:10895000B0400020AC400020012380F84430704734
:108960004FF40063038370474FF400630383704741
:108970004FF40063038370474FF400630383704731
:1089800090F8213013B1012B04D070474FF480636D
:10899000038370474FF4006303837047F0B4037C94
:1089A000456902681F2B2DD9203B2021546899402E
:1089B0000C4219D010249C40D160D4605168D94039
:1089C000CE0744D4EFF31183502282F312882A6C2D
:1089D0001168C90740D5DBB283F31188037C0268B4
:1089E0001F2B194614D9203B082150689940084292
:1089F00000D0D1600421506801FA03F3184223D15A
:108A0000F0BC7047202416689C4026420FD11946BE
:108A1000082310688B40184200D09360042310682C
:108A200003FA01F10842EBD09160F0BC70471021CD
:108A30009940946091601168D940CC07C2D501215A
:108A400001FA03F39360BDE7D360F0BC70470121E6
:108A500001FA03F3D360B5E7516889B2A1B9D5E94A
:108A60000964A64203D1012285F86420B3E7AF6907
:108A70002744D760A4B20FD82E69341BA4B2546027
:108A8000A962002185F86410116841F00101DBB290
:108A9000116083F31188A1E7341BA4B25460AE6265
:108AA000EFE710B5027C01681F2A4FF020030ED9B2
:108AB0004C68203A93401C4208D00C4A406800247D
:108AC0001470026822F001020260CB6010BD0C68D5
:108AD00093401C42FAD0054A406800241470026892
:108AE00022F0010202608B60F0E700BFF505012073
:108AF00010B5027C01681F2A4FF020030ED94C6884
:108B0000203A93401C4208D00B4A4068002414705D
:108B1000026822F001020260CB6010BD0C68934035
:108B20001C42FAD0044A406800241470026822F003
:108B3000010202608B60F0E75B6000204368B0F8E0
:108B4000502030B41A83EFF31182502383F312883C
:108B50004168456C0B68C46C23EA05032343D2B219
:108B60000B6082F31188826803691168446AD0E956
:108B700007251A60826A5D61C56A5C60B0F8604072
:108B80009A600022DD60CC62027630BC7047024BF6
:108B900003EB4010407F7047F02801207047F0B58C
:108BA000404D44012A19137F03B9F0BD3E4E3F4B9F
:108BB000DFF804C137781E788C2303FB00C3B7426B
:108BC00093F802C082F802C04FF000029A701CD0E5
:108BD000720002EB060C364B13F83CC00CF1FF3E62
:108BE000BEF1010F08D9BCF1030F0ED106F1010C43
:108BF0000CF0030CBC4508D0164403EBC603184424
:108C0000417B11B12B1901229A7029532919EFF3D5
:108C10001182902383F312888B782C5B002043EA27
:108C20004403D2B29BB2887082F3118821481A0A99
:108C3000007882EA13125A40C8B188694968D0F8AE
:108C4000A040D2431B0102F00F029BB201208840DA
:108C5000134304F1C0015A0013F4004F93B202D140
:108C60006268024362600C348C42F4D1F0BD8C69BE
:108C70004968D4F8A0401B0110319BB202F00F02EA
:108C800001208840134304F1C0015A0013F4004F3F
:108C900093B202D16268024362600C34A142F4D103
:108CA000F0BD00BFF0280120F4050120FE000120E6
:108CB00000010120A928012094010120BCEEC00A76
:108CC00010EE103A99B26AE74369016830B41D6941
:108CD0009C682A68246822F001022A60A2899D8982
:108CE00022EA0502A281027C1F2A06D9203A082026
:108CF0004C689040204243D0FEE708200C6890402A
:108D00002042F9D1202000FA02F28A60224A127829
:108D1000002A33D01A7E012A37D0D3F8F42001324A
:108D2000C3F8F420EFF31181502282F312885868BF
:108D30005D6C02689C6C22EA05022243C9B20260A3
:108D400081F31188D3E90C0599681A6909689C6B4D
:108D50001060D86B55611D6C546090600024B3F8AE
:108D6000A800D5604C62C86210689C8940F0010080
:108D7000012510601D768B8923438B8130BC7047A1
:108D8000202000FA02F2CA60C0E7D3F8F8200132CE
:108D9000C3F8F820F2E700BFA92801202DE9F0412F
:108DA000C40023189B00BA49CA585268958AADB2CC
:108DB000EFB2FE070B4465D4BE073AD5BFF35F8F11
:108DC0001D7EEDB2012D00F0C480B24E138BBFF3B7
:108DD0005F8F231801EB83031D7E022D00F0D980E5
:108DE000231801EB83031D7E032D06D19B7E23B147
:108DF00096F82D30002B40F02681938896F92CC0F0
:108E000043F480639380231801EB83031B7E0133BB
:108E100063450CD196F82E30002586F82D50002B96
:108E200040F09080204401EB800000234375BDE8B2
:108E3000F081984E17F0040F96F92CC051D117F01D
:108E4000400700F0BB80178A1D6AFFB205F80C705E
:108E50005FFA8CF56F1C93F818E07BB2DF1CBE45FF
:108E600086F82C309C4600F01781271801EB870705
:108E70003F7EBB42C7D105F1020C4FFA8CFC86F84D
:108E80002CC0C0E71588834E25F400652D042D0CF9
:108E90001580158845F4806515809D7E002786F82D
:108EA0002C70002D40D096F82D50002D39D023186D
:108EB00001EB830301251B7E86F82D50022B03D185
:108EC000138843F400631380231801EB83039B7D15
:108ED00043F001031382204401EB8000037EBDE8D0
:108EE000F0819F7E96F82D504FF0010E86F82EE00F
:108EF000002F60D0002D7DD1231801EB83035B7E12
:108F0000002B00F0A98013880CF1010C4FFA8CFCA7
:108F100043F4007386F82CC013801388DF05FCD45B
:108F200071E7DB7DFF2BC2D0231801EB83039D7D0E
:108F300005F0FE051582DB7DFF2BCCD0FF2386F8E4
:108F40002C30C8E7938823F440731B041B0C9380D8
:108F500068E79B7E4F4E002B3FF438AF96F82D30DC
:108F6000002B3FF433AF138823F480631B041B0CE6
:108F70001380BFF35F8F138B138886F82E5043F452
:108F800000731380938896F92CC043F48063938018
:108F900039E79B7E002B3FF423AF96F82D30002B52
:108FA0003FF41EAF138896F92CC023F480631B0492
:108FB0001B0C138017E0002D9ED0A4E72D067FF533
:108FC00022AFBCF1FF3F6ED0DD6915F80C50158261
:108FD0000CF1010C1D7E4FFA8CF39D429C4686F8E5
:108FE0002C307FF410AF938823F480631B041B0C98
:108FF000938008E71F7ED3F820805FFA8CF5AE449B
:10900000022F4FFA8EFE17882ED927F480673F046F
:109010003F0C1780178AFFB208F80C701788D3F836
:1090200020C047F400731380138ADBB20CF80E30B3
:10903000938805F1020C4FFA8CFC43F4806386F8A8
:109040002CC0938069E7938896F92CC023F4806341
:109050001B041B0C9380D6E61388012543F4807310
:10906000138086F82D5058E747F400771780178A49
:10907000FFB208F80C70178AD3F8208005F1030CB2
:109080004FFA8CFCFBB286F82CC008F80E3044E78F
:1090900090000120D01B0020978827F480673F04B0
:1090A0003F0C9780E1E6DD7D15829D7E86F82C7071
:1090B0001DB91B7E002B7FF40EAF938823F48063D1
:1090C0001B041B0C938006E77FB5002500F10C06FE
:1090D0000C460D804D808D8001230DF10702062185
:1090E00030460AF06DFC10B9002004B070BD9DF848
:1090F00007305B07F8D5062302AA294630460AF056
:109100005FFC0028F0D09DF809209DF8083043EA64
:10911000022323809DF80B209DF80A3043EA0223A6
:1091200063809DF80D209DF80C3043EA0223A38054
:10913000DBE713B506230C466A4603210C300AF020
:109140003FFCA0B19DF800209DF8013043EA0223C6
:1091500023809DF802209DF8033043EA0223A38078
:109160009DF804209DF8053043EA0223638002B095
:1091700010BD13B506230C466A4628210C300AF0B0
:109180001FFCF0B19DF801309DF8002042EA032257
:1091900004219DF8033012B292FBF1F222809DF877
:1091A000022042EA032212B29DF8043092FBF1F24F
:1091B00062809DF8052043EA02231BB293FBF1F382
:1091C000A38002B010BD00B583B002AA002302F84C
:1091D000013D112101230C380AF0F2FB03B05DF8C8
:1091E00004FB90F84F30042B0CD890F85230012B30
:1091F00008D190F8573003F0FB03022B0CBF00207E
:109200000720704700207047F0B5876983B0064695
:1092100017B13B68BA885A837069DFF8A8E0838980
:10922000C3244FF47A734FF0060C6D464FF6FF716E
:109230000EF1010E03E0013B9BB28B4220D002896C
:109240009207F8D5A3B283814FF47A7302E0A3B2F8
:109250008B4215D00289D20703F1FF34F7D58289FA
:1092600092B20DB12A700135BCF1000F0BD00CF198
:10927000FF3CFF24BEF1000FE1D09EF80040D7E78D
:109280000AF04AF9B76917B13B68BA881A839DF8A2
:1092900005009DF801509DF802109DF803409DF8CF
:1092A00004209DF8063041EA052143EA002342EA02
:1092B00004220120A6F84410A6F84620A6F848305B
:1092C00003B0F0BD8CC0060810B500F10C040122FB
:1092D0000B2120460AF056FC20B11D220921204610
:1092E0000AF050FC00F0010010BD7B22F4210AF0CE
:1092F00049BC10B500F10C040022212120460AF0DF
:1093000041FCFC22202120460AF03CFC4022242182
:1093100020460AF037FC0C22232120460AF032FCBA
:109320000022222120460AF02DFC642007F0D8FEFE
:10933000012010BD38B500F10C0504467022002153
:1093400028460AF01FFC2022012128460AF01AFCB8
:109350000022022128460AF015FC642007F0C0FE16
:1093600094F84000A0B108F079F9054618B1282317
:1093700083710023C3712146064B41F8083F2846FC
:109380004EF0EAFF28464EF0A7FF28464EF0A4FF15
:10939000012038BD0380000810B5074C94F8303028
:1093A0000BB9002010BD07F01DFE636BC01AD0F58D
:1093B000FA50F7D5F5E700BFD01B002038B50446BA
:1093C0000D46FFF7E9FF246808B107F06DFD064B75
:1093D000002283F83020C92193F831302A462046F4
:1093E0000AF060F9012038BDD01B002008B54FF00D
:1093F000EDFDD0B90E4B93F8392093F838101201D7
:1094000042EA013293F83A1042EA11129A6093F854
:109410003C2093F83B10120142EA013293F83D10D0
:1094200042EA11121A60012008BD0020FCE700BFCB
:10943000D01B002010B504464FF0C8FD38B90623F4
:10944000044AF72120460AF045FA012010BD002009
:10945000FCE700BF081C002070B54FF0B7FDC0B995
:109460000D4B93F8421093F8452093F8416093F820
:10947000445093F8430093F840400904120441EA31
:10948000062142EA0522024321439961DA60012064
:1094900070BD002070BD00BFD01B002010B5044679
:1094A0004FF094FD08B1002010BD20460623034A6A
:1094B00004210AF00FFA012010BD00BF101C00208B
:1094C00008B54FF083FDC0B90D4B93F8472093F8D2
:1094D0004610120242EA014293F848100A431A6207
:1094E00093F84A2093F84910120242EA014293F895
:1094F0004B100A43DA61012008BD0020FCE700BFE1
:10950000D01B002010B504464FF060FD38B906238B
:10951000044AF72120460AF0DDF9012010BD0020A1
:10952000FCE700BF161C002008B54FF04FFD68B9DE
:10953000074A92F84D3092F84C101B0243EA01435F
:1095400092F84E100B439362012008BD0020FCE707
:10955000D01B002008B54FF039FD68B9074A92F8D2
:109560004D3092F84C101B0243EA014392F84E1022
:109570000B435362012008BD0020FCE7D01B0020F4
:109580003122F4210AF098BA13221B210AF094BA6E
:1095900048214FF02DBD58214FF02ABDF8B590F865
:1095A00055300546A3B31E09013E042E03F00F03F8
:1095B00000F290804A4A32F8162042FA03F414F07E
:1095C000010410D001209840013810405EF08EFA5E
:1095D000444B9C5D2044444C14EBC00403D0262330
:1095E000A3710023E3712946404B41F80C3F20460C
:1095F0004EF0B2FE64B1A388B3FA83F3C3F11F0344
:10960000012212FA03F303D039490A6813430B60AD
:1096100095F84C30072B5FD195F851300226002B7E
:109620005CD1374605F1100480226B2120460AF0F8
:10963000A9FA642007F054FD0722682120460AF0A9
:10964000A1FA642007F04CFD00226B2120460AF0AD
:1096500099FA642007F044FD01226B2120460AF0AC
:1096600091FA0F2007F03CFDFA001B2120460AF07A
:1096700089FA0F2007F034FDF2001C2120460AF081
:1096800081FA0F2007F02CFD2846FFF7AAFD1A21CA
:10969000024620460AF076FA0F2007F021FD95F8E1
:1096A0005420192120460AF06DFA642007F018FDB5
:1096B0001022372120460AF065FA0F2007F010FD2E
:1096C0002046012238210AF05DFA0F20BDE8F8405B
:1096D00007F006BD002486E70326A2E70327A1E7DB
:1096E0007441070880410708E8F400205989000800
:1096F000003C014070B590F8553005469BB31E09FB
:10970000013E042E03F00F0363D8334A32F81620CB
:1097100042FA03F414F0010410D0012098400138FB
:1097200010405EF0E3F92D4B9C5D20442C4C14EB73
:10973000C00403D02623A3710023E3712946294BDB
:1097400041F80C3F20464EF007FE64B1A388B3FAFF
:1097500083F3C3F11F03012212FA03F303D022495A
:109760000A6813430B6005F1100480226B21204628
:109770000AF008FA642007F0B3FC03226B212046AC
:109780000AF000FA95F85420192120460AF0FAF957
:109790000F2007F0A5FC2846FFF723FD1A210246FB
:1097A00020460AF0EFF918221B2120460AF0EAF9B8
:1097B00018221C2120460AF0E5F902223721204612
:1097C0000AF0E0F9204601223821BDE870400AF095
:1097D000D9B90024B2E700BF7441070880410708E7
:1097E000E8F4002059890008003C014008B5012038
:1097F00046F064FD174A936803F00C03042B1ED057
:10980000082B18D151685368490203F03F0319D45B
:1098100052681148B0FBF3F0C2F3881300FB03F069
:109820000C4B0E4A5B68C3F3014301335B00B0FB92
:10983000F3F0106008BD094B074A1A6008BD074BDA
:10984000186008BDB0FBF3F05368C3F3881300FB46
:1098500003F0E5E7003802400024F40068F7002038
:109860002DE9F04F454B1D7885B025B901252846D7
:1098700005B0BDE8F08F424B1C6807F0B3FB414BCD
:10988000009093F82C30002B00F0F3833E4A3F4BBE
:10989000DFF820A1DFF82091A2FB04246409A3FBD8
:1098A0000423DB0803EB8303A4EB4303DAB29B003E
:1098B0000192029354460025354B009A1B6DD31A32
:1098C00003D4A26D9342C0F2A5838C2303FB05A3AE
:1098D000A26893F854301768D4F8806003F0FF0E44
:1098E000002B40F069823168002321F001013160D2
:1098F00033607360B360F3603361264B21219E4275
:10990000716100F01283244B9E4200F01283234BBE
:109910009E4200F01383224B9E4200F06683214B4F
:109920009E4200F06783204B9E4200F06F831F4BE6
:109930009E4200F074831E4B9E4200F087833046A7
:10994000039246F0DBFC039A8C2303FB05A3002162
:1099500083F8541053790C2B00F21C82DFE813F0CB
:10996000DF011A021A021A02A2011A021A021A02CC
:109970005C011A021A021A022E0000BFA928012057
:1099800048250120600101201F85EB51CDCCCCCCB6
:10999000D01B00201060024028600240406002405E
:1099A000586002407060024088600240A06002403F
:1099B000B860024094010120C8460020BB8B23F40C
:1099C00000631B041B0CBB833B8CB4F86C20B4F805
:1099D0006280B4F860E0DFF8C8C223F480531B044F
:1099E0001B0C3B84398CB888BB8B21F4005123F4C9
:1099F000E64309041B04090C42EA08021B0C41EA75
:109A0000023243EA0E23674592B280B29BB200F065
:109A1000B4829F498F4200F0B082A16EB880BB83B0
:109A200039643A84BB8B23F400631B041B0C43F49E
:109A30000063BB83D4E90B12A369606BA76B43F08F
:109A4000400319430A431043D4E90F230743174344
:109A5000402262623B43E76C3068226D8D493B4394
:109A6000014013430B433360D4E911327169A06A9A
:109A700021F0070113430B43D4E9071273617060AF
:109A8000B160F260336843F010033360824B93F8A7
:109A90002C3001359D4209F15C0904F18C04FFF67C
:109AA0000BAF7E4900220A65002B3FF4DFAEDAF8E7
:109AB00008109AF810400A684879A40754BF012199
:109AC00004218140108C89B220EA01001084108C9E
:109AD000012B41EA000111843FF4C8AEDAF894107A
:109AE0009AF89C000A684C79810754BF012104212F
:109AF000108CA14089B220EA01001084108C022B46
:109B000041EA000111843FF4B1AEDAF820119AF86D
:109B100028010A684C79870754BF01210421108C61
:109B2000A14089B220EA01001084108C032B41EA85
:109B3000000111843FF49AAEDAF8AC119AF8B441FE
:109B40000A684879A60754BF012104218140108C7E
:109B500089B220EA01001084108C042B41EA000134
:109B600011843FF483AEDAF838129AF840420A685A
:109B70004879A50754BF012104218140108C89B286
:109B800020EA01001084108C052B41EA00011184A9
:109B90003FF46CAEDAF8C4129AF8CC420A684879FD
:109BA000A40754BF012104218140108C89B220EA0E
:109BB00001001084108C062B41EA000111843FF44F
:109BC00055AEDAF850139AF858030A684C798107B1
:109BD00054BF01210421108CA14089B220EA010068
:109BE0001084108C082B41EA000111847FF43EAEF2
:109BF000DAF8DC239AF8E4031368517982074CBF42
:109C0000042201228A40198C92B221EA02011984AD
:109C1000198C0A431A8429E6BB8B23F008031B0422
:109C20001B0CBB833B8CB4F86C00B4F86280B4F8B6
:109C300060E0DFF86CC023F480731B041B0C3B84D2
:109C40003B8CB988BA8B23F400731B0422F0730297
:109C50001B0C40EA0800120443EA0023120C67457B
:109C60009BB289B242EA0E0200F06D810848874239
:109C700000F06981A06EB980BA83F8633B84BB8B26
:109C800023F008031B041B0C43F00803BB83D1E63D
:109C9000000401403F801CF060010120D01B002027
:109CA000000001403B8BB4F86C20B4F86280B4F83B
:109CB00060E0DFF894C323F400631B041B0C3B83B8
:109CC0003B8C23F010031B041B0C3B84398CB8889D
:109CD0003B8B21F0200123F4E64309041B04090C0B
:109CE00042EA08021B0C41EA021143EA0E236745CF
:109CF00089B280B29BB200F04881CB4A974200F013
:109D00004481A26EB8803B83BA6339843B8B23F4D1
:109D100000631B041B0C43F400633B838AE63B8B0C
:109D200023F008031B041B0C3B833B8CB4F86C2012
:109D3000B4F86280B4F860E0DFF80CC323F00103EC
:109D40001B041B0C3B843B8CB888398B23F002032B
:109D500021F073011B0409041B0C42EA0802090CE0
:109D6000674543EA020380B241EA0E0100F0278111
:109D7000AD4A974200F02381A26EB88039837A639E
:109D80003B843B8B23F008031B041B0C43F00803AC
:109D90003B834FE6082B3FF445AF0C2B3FF414AE4A
:109DA000002BC2D0082B3FF46AAF0C2B3FF43AAE25
:109DB000002B7FF43FAEE4E77068A189BB8980B2D5
:109DC000C0F1160023EA01030728BB817FF68BADA3
:109DD0009649D4F888208B68039201338B6016462D
:109DE000136801210022B446884616465CF8047FB9
:109DF0008842A7EB030B40F22E81142E11DC1BF1DD
:109E0000080348BF0BF117031B111E4403F1FF3B6E
:109E100001319A4008FA0BFB88424BEA02023B46AA
:109E2000E4D2152E40F0EA808148C2F38421C2F3C7
:109E3000441300EB810100EB830302F01F068968E5
:109E40009F6800EB8606C2F3C43200EB8202B3685F
:109E50009268090241EA07171F4347EA023787EA77
:109E6000172383EA131303F00F030F2B40F0C68070
:109E70003B0940F6FF72934200F0F880C3F30803F9
:109E80007F0B13FA07F700F0B9807B0803F5122364
:109E900003F5F8634FF6FF71B3FBF7F7BAB28A42E6
:109EA00000F0AC80614B03EB8501032D4FF0010303
:109EB0008A818B7306DC5F4B1B782D2B02D15E4BA6
:109EC00023F8157099F85830019AD9F80000934298
:109ED000029B09EB030111D08B68D9F80420C31A47
:109EE000C9F800300B6BD31A0022C9F804308A601D
:109EF0000A63019BD9F8000089F858300130C9F88D
:109F000000008B68A268D4F88060176801338B600A
:109F1000BEF1000F7FF4E7ACD9F804300133C9F883
:109F200004300B6B01330B63DDE43D2143F8081C67
:109F30000AE54FF4746143F8201C05E54FF47411F1
:109F400043F8381C00E5B4F86E00B4F870E0B4F8DB
:109F500072C023F4006343EA00234FF6FF30184039
:109F6000B4F8643021F440514EEA0C0C40EA03236B
:109F700041EA0C119BB289B27CE6B4F8701020F46F
:109F8000804040EA811080B247E5B4F86E20B4F812
:109F900070E0B4F872C021F0800141EA02114FF67E
:109FA000BF720A40B4F8641020F440604EEA0C0C12
:109FB00042EA011140EA8C0089B280B2A1E6B4F80D
:109FC0006EE0B4F87020B4F872C023F0080343EADE
:109FD0000E03B4F864E020F4407023F0040342EA76
:109FE0000C0243EA0E031043C6E64FF0746143F8D7
:109FF000501CA9E4114943F8641CA5E40B4A5368BA
:10A00000013353605DB34FF0000E5BE70C4943F83A
:10A010007C1C99E40025284605B0BDE8F08F09496D
:10A0200043F8941C90E400BF0004014048E600207F
:10A030008CC00608D5F20020D8F200203D00002098
:10A04000400F002000003D20000001404FF03D5136
:10A0500043F8AC1C78E4C6F115031526D6E603993F
:10A06000064858225EF0C4FEAE462BE700273A466B
:10A0700018E7034A1365FFF7FABB00BF74E6002038
:10A08000D01B00202DE9F047037C02681F2B0BD961
:10A09000A3F1200520215468A940214214BF0121C9
:10A0A000002151B9BDE8F087202114689940214270
:10A0B00014BF012100210029F4D07B497B4D496860
:10A0C000D0F81490DFF8248229608C2101FB0981EB
:10A0D000774E8C6836782768BEB9D1F88060B1F8C1
:10A0E0000CC0346824F001043460B98921EA0C0101
:10A0F000B98170490978B9B91F2B00F2A9802021D4
:10A1000001FA03F39360BDE8F0876469216821F0E8
:10A1100001012160B98921F480710904090CB98118
:10A12000644909780029E7D08C2303FB0983624A3C
:10A13000D3F88060336823F0010333600023336079
:10A1400096427360B360F36033614FF021030446BD
:10A15000736100F08980594B9E4200F08980584B12
:10A160009E427CD0574B9E4200F08780564B9E42C9
:10A1700000F08880554B9E4200F08880544B9E42F0
:10A1800000F08880534B9E4200F08880304646F0B5
:10A19000B5F88C2303FB0983DFF854A1012283F86F
:10A1A0005420DAF850301BB906F01CFFCAF85000F2
:10A1B0003A888C2303FB09F909F1740142F080030A
:10A1C0004FF0FF323B804144FA62384645F08EFF43
:10A1D00008EB0903D3E90B709A693168D3F828C0FA
:10A1E0003A430243586BDF6C0243986B0243D86BCF
:10A1F0000243186C02433A4337481F6D08403A4304
:10A200000243002159623260D3E911277069D3F803
:10A21000801020F007003A430243D3E907707261CF
:10A220001622C6F804C0B760F0604A600A689868F1
:10A230009F8900681C4E42F001020A6083893B43FB
:10A24000838173686B60237C22681F2B7FF657AF76
:10A25000A3F1200120238B40D360BDE8F0874FF4A9
:10A26000741243F8382C94E71C4B3D229A6090E717
:10A270004FF4746243F8202C8BE74FF0746243F87C
:10A28000502C86E7164A43F8642C82E7154A43F8B7
:10A290007C2C7EE7144A43F8942C7AE74FF03D5229
:10A2A00043F8AC2C75E700BF001000E09C300020A4
:10A2B000B4280120A9280120106002402860024033
:10A2C0004060024058600240706002408860024076
:10A2D000A0600240B86002403F801CF00060024075
:10A2E0003D000020400F002000003D20940101208F
:10A2F000D01B002070B5BB4ABB4B12781B789A422A
:10A3000040F07881B94B93F85420002A00F0D280B5
:10A31000B7490978002940F0CE80986DB3F85C50B9
:10A320000488B3F86C6024F080042404240C0480B6
:10A33000C562058845F08005058041628489012A4F
:10A3400044EA06048481A3F86C1000F0B380186F0F
:10A35000B3F874500488B3F8846024F080042404B3
:10A36000240C0480C562058845F0800505804162A3
:10A370008489022A44EA06048481A3F8841000F048
:10A380009980D3F88800B3F88C500488B3F89C60A7
:10A3900024F080042404240C0480C562058845F060
:10A3A0008005058041628489032A44EA0604848189
:10A3B000A3F89C107ED0D3F8A000B3F8A450048872
:10A3C000B3F8B46024F080042404240C0480C56233
:10A3D000058845F08005058041628489042A44EAA5
:10A3E00006048481A3F8B41064D0D3F8B800B3F89D
:10A3F000BC500488B3F8CC6024F080042404240CFE
:10A400000480C562058845F0800505804162848925
:10A41000052A44EA06048481A3F8CC104AD0D3F874
:10A42000D000B3F8D4500488B3F8E46024F080047A
:10A430002404240C0480C562058845F0800505804D
:10A4400041628489062A44EA06048481A3F8E41060
:10A4500030D0D3F8E800B3F8EC500488B3F8FC60CF
:10A4600024F080042404240C0480C562058845F08F
:10A470008005058041628489072A44EA06048481B4
:10A48000A3F8FC1016D0D3F80021B3F804411088CB
:10A49000B3F8145120F080000004000C1080D46246
:10A4A000148844F08004148051629089284390817C
:10A4B000A3F8141170BD1C6EB3F8641061602568B8
:10A4C000986D45F0010540F20D312560A0F8481067
:10A4D0008489012A44F480748481EBD09C6FB3F8A2
:10A4E0007C50186F6560256845F001052560A0F86F
:10A4F00048108489022A44F480748481DAD0D3F825
:10A500009040B3F89450D3F888006560256845F012
:10A5100001052560A0F848108489032A44F480745A
:10A520008481C7D0D3F8A840B3F8AC50D3F8A000CA
:10A530006560256845F001052560A0F8481084890C
:10A54000042A44F480748481B4D0D3F8C040B3F8B2
:10A55000C450D3F8B8006560256845F00105256052
:10A56000A0F848108489052A44F480748481A1D01D
:10A57000D3F8D840B3F8DC50D3F8D0006560256834
:10A5800045F001052560A0F848108489062A44F4A6
:10A59000807484818ED0D3F8F040B3F8F450D3F8AF
:10A5A000E8006560256845F001052560A0F84810C1
:10A5B0008489072A44F4807484813FF47BAFD3F804
:10A5C0000821B3F80C01D3F800315060106840F056
:10A5D00001001060A3F848109A8942F480729A81B1
:10A5E00070BD00BFF4050120FE000120D01B00203B
:10A5F000B42801204EF054F900287FF483AE70BDDA
:10A600002DE9F843214A224B12781B789A4237D120
:10A61000204E3368002B15DDDFF884801E4F0024A8
:10A620004546A1463B783BB12B7E012B21D02A69C0
:10A63000136843F00103136033680134A34205F546
:10A640008075EFDC06F0CEFC144BD3F81C41C3F848
:10A650001801002C0BDD03F5907303EBC40419689B
:10A6600098888A8908330243A3428A81F7D1BDE8DA
:10A67000F88308EB042085F8F090FEF75FFAD6E740
:10A680004EF00EF90028C3D1BDE8F883F40501208F
:10A69000FE000120A8300020A9280120D01B0020A6
:10A6A000AC30002070B50D4E3368002B14DD0C4C1F
:10A6B000002504E03368AB4204F120040CDD237F65
:10A6C0000135002BF6D0217DE06806F0E9FB336808
:10A6D000AB4204F12004F2DC012070BDAC28012063
:10A6E000F02801202DE9F04FB24B1B7885B0EBB973
:10A6F000B14E3368002B15DD0024B04821460569B2
:10A70000D0F8A0302A6822F001022A6003F1C002CA
:10A7100059600C339A42FBD133680134A34200F5EF
:10A720008070ECDC012005B0BDE8F08FA44B1C6804
:10A7300006F058FCA34AD2F81831D2F84021C31AC7
:10A740001432B3EB420FC0F231819F4A9F4B127813
:10A750009F4903929F4D09680191A3FB04235B0964
:10A76000A5FB03259C499D4E9D4FED08D1E9011B9A
:10A7700005EB8505A3EB45054FF0000CEBB2E64673
:10A78000029106EB85054FF00109BC469846019BF6
:10A79000734540F30581DCF81810DCF804300A69D1
:10A7A000D1F8EC005268D1F8E84092B2801A9B00D0
:10A7B000640100F1806203F10853E118393A01EBBA
:10A7C0008212914280F0E080E358002B00F06E810D
:10A7D0000B6C002B00F06D81D1F88030002B00F065
:10A7E0006B81D1F8C04001F58073CCB104460846B6
:10A7F0009A4240F2C9801968002900F04981196C19
:10A80000002900F04B81D3F88010002900F04A8124
:10A8100003F5807353F8401C0029E9D10146204616
:10A820009A4240F2B180591AA0EBA111452928BFE4
:10A830004521002703EB81113C461A46994216D95F
:10A8400010461A68002A40F0D1801A6C002A40F0A5
:10A85000F580D3F88020002A40F0F38003F5807360
:10A8600053F8402C002A40F0EF809942E9D8112F8C
:10A8700040F28A80C7F11507002FC0F2FF8000F078
:10A8800023817B1E09FA03F304FA07F71F43C7F37A
:10A890001302544CD00B07F01F07C2F3441104EB12
:10A8A000870304EB800004EB8101C2F38422D3F818
:10A8B0008830D0F88800D1F8881004EB820243EA8F
:10A8C0000033D2F8882043EA011343EA022383EAE3
:10A8D000132282EA121202F00F020F2A40F0CE80F9
:10A8E000B3F5803F80F0CA801A0940F6FF718A42B2
:10A8F00000F0E580C2F308025B0B12FA03F300F0EC
:10A90000BD80590801F512214FF6FE7201F5F8617C
:10A91000B1FBF3F1914237D04FF6FF7399420BF13F
:10A92000010B00F0AD808AB22B4B03EB8E03BEF11E
:10A93000030F9A8183F80E9005DC039B2D2B02D127
:10A94000294B23F81E1096F85830306843450CD038
:10A95000AB687268C31A33602B6BD31A7360002321
:10A96000AB602B63306886F8588001303060AB688C
:10A970000133AB604FF6FF73994205D17368013321
:10A9800073602B6B01332B630EF1010EBEF1080FC8
:10A9900006F15C0605F15C050CF1200C7FF4F7AEC6
:10A9A0000D4B029AC3F808B05A60A1E6002005B02A
:10A9B000BDE8F08FA9280120A8300020AC3000208D
:10A9C00048250120D01B0020D5F200201F85EB5127
:10A9D000AC280120CDCCCCCC48E60020C8460020D5
:10A9E000F02801208CC00608D8F20020024640332F
:10A9F00099427FF63CAF9A1A92114748013280FB88
:10AA000002A0A0EBE272012AB8BF0122501E09FA8F
:10AA100000F094400443174418460268B2B3026C35
:10AA2000D2B3D0F880208AB100F5807050F8402C65
:10AA30006AB18142F1D81A460346FFE602468033E6
:10AA4000D6E70246C033D3E70246D1E7C0308142A1
:10AA5000F1D9C31A9B11304A013382FB03A2A2EB46
:10AA6000E373012BB8BF01235A1E9C4009FA02F27E
:10AA70001F44034614431A460346DFE60BF1010B5D
:10AA8000029B013302934FF6FF715CE74030DEE733
:10AA9000014640332046C3E68030D8E70146803384
:10AAA0002046BDE60146C0332046B9E601F1400329
:10AAB000B6E601F18003B3E601F1C003B0E600227F
:10AAC0000BF1010B11462FE7C4F3130304F01F0031
:10AAD000124CD90BC3F3441204EB800004EB810148
:10AAE00004EB8202C3F38423D0F88800D1F88810E5
:10AAF000D2F8882004EB830340EA0131D3F88800C0
:10AB000041EA021343EA002383EA132282EA121283
:10AB100002F00F02E1E600BF565555558CC00608FD
:10AB20002DE9F843B44CB54E636830881A88B44DAB
:10AB300022F040021204120C1A80198821F0380108
:10AB40000904AB424FEA114104D0AE4A934201D00E
:10AB5000024600E04208B2F5807FA8BF4FF4807241
:10AB6000022AB8BF0222002A92FAA2F2B2FA82F2B4
:10AB700008BF4FF0FF32013A41EAC20292B21A8096
:10AB80001A88A16842F040021A8011B10A688D88C3
:10AB900055839D4A1278012A00F06482C0F01E821B
:10ABA000022A00F0F681994F3A7812F0400F0CBF5C
:10ABB0004FF4C37E4FF4F07E954A964D4FF0010C52
:10ABC00082F800C01A88DFF838C2A5F800E022F049
:10ABD00040021204120C1A801A88634592B200F0E7
:10ABE000FB810CF5806C634500F0F681B0F5807F49
:10ABF000A8BF4FF480700228B8BF0220002890FA46
:10AC0000A0F0B0FA80F008BF4FF0FF30013822F01A
:10AC1000380242EAC00292B21A801A8842F0400218
:10AC20001A8011B10A68898851834FF010084FF0DB
:10AC300001099A8940F2E93202E0002A00F0AF816E
:10AC40001989013A11F0020F92B2F6D01FFA88F278
:10AC50009A8140F2E93202E0002A00F0A0811989CD
:10AC6000013A11F0010F92B2F6D09A899A8940F216
:10AC7000E93202E0002A00F097811989013A11F0C7
:10AC8000020F92B2F6D0A3F80C9040F2E93202E043
:10AC9000002A00F089811989013A11F0010F92B25E
:10ACA000F6D09A8908F10108B8F1200FC1D1A06847
:10ACB00010B10268818811831A88514922F040023C
:10ACC0001204120C1A801A8822F0380212048B42E5
:10ACD0004FEA124200F06D8101F580618B4200F075
:10ACE000688142F008021A801988328841F04001D8
:10ACF0001980198821F040010904090C198019886C
:10AD000021F038010904090CB2F5807FA8BF4FF487
:10AD10008072022AB8BF0222002A92FAA2F2B2FA84
:10AD200082F208BF4FF0FF32013A41EAC20292B20A
:10AD30001A801A8842F040021A8010B10268818895
:10AD400051839A893E7840F2E93202E0002A00F00D
:10AD500099811989013A11F0020F92B2F6D00022BE
:10AD60009A8140F2E93202E0002A00F08B811989D1
:10AD7000013A11F0010F92B2F6D09A899A8940F205
:10AD8000E93202E0002A00F087811989013A11F0C6
:10AD9000020F92B2F6D0B6B29E8140F2E93202E0E2
:10ADA000002A00F079811989013A11F0010F92B25D
:10ADB000F6D09A89184A9989167840F2E93202E069
:10ADC000002A00F06E811989013A11F0020F92B247
:10ADD000F6D002229A8140F2E93202E0002A00F025
:10ADE00060811989013A11F0010F92B2F6D09A8967
:10ADF0009A8940F2E93214E0C8F200209818002045
:10AE000000380040003C0040E0F200204C0B0020E5
:10AE10008C0E0020000B0020E7F20020002A00F03A
:10AE200045811989013A11F0020F92B2F6D0B6B2FB
:10AE30009E8140F2E93202E0002A00F03781198950
:10AE4000013A11F0010F92B2F6D09A89A44A998979
:10AE5000167840F2E93202E0002A00F02C811989CC
:10AE6000013A11F0020F92B2F6D003229A8140F219
:10AE7000E93202E0002A00F01E811989013A11F03E
:10AE8000010F92B2F6D09A899A8940F2E93202E033
:10AE9000002A00F0ED801989013A11F0020F92B2F8
:10AEA000F6D0B6B29E8140F2E93202E0002A00F00C
:10AEB000DF801989013A11F0010F92B2F6D09A8918
:10AEC000884A9989167840F2E93246F0040602E091
:10AED000002A00F0D2801989013A11F0020F92B2D3
:10AEE000F6D004229A8140F2E93202E0002A00F012
:10AEF000C4801989013A11F0010F92B2F6D09A89F3
:10AF00009A8940F2E93202E0002A00F0C0801989F3
:10AF1000013A11F0020F92B2F6D0B6B29E8140F221
:10AF2000E93202E0002A00F0B2801989013A11F0FA
:10AF3000010F92B2F6D09A89A26812B11168928874
:10AF40000A831A88684922F040021204120C1A80FF
:10AF50001A8822F0380212048B424FEA124205D0BE
:10AF600001F580618B4201D042F008021A801988F5
:10AF70005E4C2A885E4841F040011980002161F052
:10AF800031F823781BB13FF087FD00232370BDE823
:10AF9000F883584F08223A704FF4C37E0CE61846E7
:10AFA00008F0BAFA636861E6184608F0B5FA636813
:10AFB00078E61A801A8842F040021A80198832888E
:10AFC00021F040010904090C1980198821F0380189
:10AFD0000904090C520897E6400807E69A8940F2EE
:10AFE000E93201E0002A76D01989013A11F0020F06
:10AFF00092B2F7D0A0229A8140F2E93201E0002A11
:10B0000069D01989013A11F0010F92B2F7D09A89EB
:10B010009A8940F2E93201E0002A57D01989013AB1
:10B0200011F0020F92B2F7D000229A8140F2E93279
:10B0300001E0002A4AD01989013A11F0010F92B2B9
:10B04000F7D09B89D8B200F00603022B294F03D01A
:10B0500000F00503012B33D0082230883A70D4E980
:10B06000013199E7234F48223A704FF4F07EA3E56F
:10B07000184608F051FA636822E7184608F04CFABF
:10B0800063683DE7184608F047FA636876E61846B5
:10B0900008F042FA63684FE7184608F03DFA636823
:10B0A00088E6184608F038FA6368A1E6184608F002
:10B0B00033FA6368CAE6184608F02EFA6368E3E6D6
:10B0C000482230883A70D4E90131CEE7184608F0BA
:10B0D00023FAC0B2B7E7184608F01EFA636897E78C
:10B0E000E8F200209C9200200038004098010020E7
:10B0F000A09200204C0B00200388174A23F0400345
:10B100001B041B0C0380038823F038031B049042AC
:10B110004FEA13431DD002F58062904219D0B1F579
:10B12000807FA8BF4FF480710229B8BF0221002997
:10B1300091FAA1F1B1FA81F108BF4FF0FF31013965
:10B1400043EAC10189B20180038843F040030380D0
:10B1500070474908E3E700BF0038004010B5802180
:10B1600004464069FFF7C8FF012005F09DFE204618
:10B17000FEF714FA1022A0186A2108F0EDFA6420F4
:10B1800005F0AEFF60690421FFF7B6FF0120BDE8BE
:10B19000104005F089BE10B5042104464068FFF751
:10B1A000ABFFF521204608F0DBF971280ED007D857
:10B1B000422811D0702813D012280FD1082006E0A1
:10B1C000AC2805D0AF2805D0732807D1062010BDC4
:10B1D0000720FCE70920FAE70C20F8E70020F6E753
:10B1E0000520F4E738B54FF4807105464068FFF755
:10B1F00083FF80226B21284608F0AEFA06249620B1
:10B2000005F06EFFF521284608F0AAF9682805D058
:10B21000013C14F0FF04F2D1002038BD8C212846F7
:10B2200008F09EF91428F7D3182802D954380628B4
:10B23000F2D80320F1E770B590F855300546A3B376
:10B240001E09013E042E03F00F0300F28380424AE0
:10B2500032F8162042FA03F414F0010410D0012051
:10B260009840013810405CF041FC3C4B9C5D204410
:10B270003B4C14EBC00403D02623A3710023E371DD
:10B280002946384B41F80C3F20464DF065F864B133
:10B29000A388B3FA83F3C3F11F03012212FA03F365
:10B2A00003D031490A6813430B6005F11004686943
:10B2B0004FF48071FFF720FF80226B21204608F0B9
:10B2C0004BFA642005F00CFF03226821204608F0A9
:10B2D00043FA642005F004FF01226B21204608F0A8
:10B2E0003BFA0F2005F0FCFE18221B21204608F037
:10B2F00033FA0F2005F0F4FE18221C21204608F036
:10B300002BFA0F2005F0ECFE2846FDF76AFF1A2104
:10B310000246204608F020FA0F2005F0E1FE95F8DD
:10B3200054201921204608F017FA642005F0D8FEB1
:10B3300010223721204608F00FFA0F2005F0D0FE2A
:10B3400038212046012208F007FA68690821BDE883
:10B350007040D1E6002493E7744107088041070854
:10B36000E8F4002059890008003C014038B51C4C25
:10B3700094F84431054633B908214068FFF7BCFE14
:10B38000012384F844314FF480716868FFF7B4FEFC
:10B3900080226B21284608F0DFF91524962005F05D
:10B3A0009FFEF521284608F0DBF8982816D007D82C
:10B3B00012280FD0013C14F0FF04EFD1204638BD15
:10B3C000AC2809D0AF28F5D1092408216868FFF717
:10B3D00093FEF3E70824F8E70724F6E70B24F4E7E5
:10B3E000D01B002030B5214D6B6883B09A8940F2A4
:10B3F000E93200E06AB31C89013A14F0020F92B2FC
:10B40000F8D080B2988140F2E93200E00AB318899E
:10B41000013A10F0010F92B2F8D09A899A8940F25D
:10B42000E93200E0E2B11889013A10F0020F92B25D
:10B43000F8D089B2998140F2E93200E082B11989ED
:10B44000013A11F0010F92B2F8D09889C0B203B05E
:10B4500030BD1846019108F05FF86B680199DDE78F
:10B46000184608F059F8C0B2F1E700BFC8F2002052
:10B4700008B5838940F2E93300E0A3B10289013BBA
:10B4800012F0020F9BB2F8D089B2818140F2E93309
