:020000040800F2
:10000000F0FF012081470608DB4F040825A70108FF
:10001000F9470608F9470608F947060800000000F6
:10002000000000000000000000000000D94F04089C
:10003000D74F040800000000D54F040811900208B3
:10004000F9470608F9470608F9470608F947060878
:10005000F9470608F9470608599A0208859B0208DD
:10006000499B02080D9B0208D19A020835E3040857
:1000700025E3040815E3040805E30408F1E2040895
:10008000DDE20408C9E20408F947060800000000A0
:10009000000000000000000000000000959A020827
:1000A00049B3010835B7010879B20108B9B80108A8
:1000B00075B60108B5B50108E9B4010899EA040864
:1000C000A1EA04088DEA040895EA0408F94706083D
:1000D000F9470608C19102080991020800000000D2
:1000E0001D9A0208F94706088D96040800000000D2
:1000F000000000000000000000000000B5E204085D
:1001000000000000F947060819B40108F94706087D
:1001100000000000000000000000000000000000DF
:10012000A1E204088DE2040879E2040865E204080B
:1001300051E2040800000000000000000000000080
:10014000000000000000000000000000A982040878
:100150003DE2040829E2040815E20408519002086F
:1001600081EA040889EA0408000000000000000099
:10017000000000000000000000000000000000007F
:1001800000000000F9470608000000000000000021
:08019000F9470608F9470608CB
:080198001843060001000000FD
:1001A0000702010002000000242700205027002041
:1001B00000000000B0090008F62101000C0000005A
:1001C000FC2600205427002000000000B40900088D
:1001D000020001000C000000F02600206027002033
:1001E00000000000000000003900010005000000D0
:1001F000D02600206C2700200000000005C803085E
:10020000060203000C000000C42600207427002012
:1002100000000000BDCE03081D0201000200000026
:100220006C2600208027002000000000C009000884
:100230000A02010014000000E0210020042C00202C
:1002400000000000358800080300010001000000E4
:10025000FC190020182C0020000000000000000005
:10026000031201003D000000B42400201C2C0020DB
:1002700000000000C209000825201E002C0100001B
:100280001C2200205C2C0020000000000000000068
:10029000101001000200000064190020882D0020C9
:1002A00000000000000A00081A0201003C000000E3
:1002B00028330020F038002000000000D5D00308CB
:1002C00027000100040000006C3700202C390020BA
:1002D00000000000020A00083810010001000000C0
:1002E000A83100203039002000000000060A000874
:1002F000012001000C000000CC4D0020545B0020C8
:1003000000000000080A00080A7001002800000030
:10031000644C0020605B002000000000691E0308A0
:100320000ED0030092010000D04A0020885B00201C
:1003300000000000F5400508010101000400000074
:100340001C4A00201C5D002000000000000000008E
:100350000001010004000000144A0020205D00207C
:1003600000000000140A0008020101000300000060
:10037000104A0020245D002000000000A58800082D
:10038000220201001C01000040580020285D0020CE
:100390000000000051D103080C200600CC00000032
:1003A000AC4C0020445E002000000000698800087A
:1003B0000102010005000000284A0020105F002013
:1003C000000000000DEF0108000201000500000020
:1003D000F8500020185F002000000000000000001E
:1003E0001B02010010000000C4500020205F00200C
:1003F00000000000F1C703081B1001000C00000002
:10040000B83A0020305F002000000000D5EC010861
:1004100021020100F00000003C3900203C5F002078
:100420000000000015FD010828020400040000007F
:10043000BC600020C86100200000000021C8030843
:100440002702040004000000B8600020CC610020F6
:100450000000000015C803082C0004001000000074
:100460009870002088700020000000005D270308BD
:100470002B00120024000000CC700020A870002087
:10048000000000002D2703081902010010000000E1
:100490006C700020F070002000000000C5C7030849
:1004A0002920140078000000406F00200071002017
:1004B00000000000000000001C0202001C00000000
:1004C0003067002078710020000000002DCE030866
:1004D0002810010016000000286C002094710020F4
:1004E00000000000A128030804120100020000001F
:1004F000B86D0020AC71002000000000180A000850
:100500000F02010001000000B46D0020B071002056
:10051000000000001A0A0008140001000300000097
:10052000146C0020B4710020000000001C0A0008B8
:100530000B1201003C000000647300204881002081
:1005400000000000200A00080D1201001400000045
:10055000F87C002084810020000000005C0A000874
:100560001F02080010000000A881002098810020D0
:100570000000000009C703081F300100240000002C
:10058000C4AC0020ECAC002000000000700A0008A1
:10059000050201000400000088AC002010AD00201E
:1005A00000000000940A0008030101000A00000096
:1005B0004CAA002014AD0020000000004D430408A8
:1005C0000E0201000200000090AA002020AD0020D1
:1005D00000000000980A0008130201000400000057
:1005E00008A1002024AD0020000000009A0A0008A5
:1005F000100201000100000064C1002060C1002061
:10060000000000009E0A00082312010010000000F4
:1006100088CB002020CC002000000000A00A0008A9
:10062000051001000600000080CB002030CC002027
:1006300000000000B00A0008371001002E00000082
:10064000C0CB002038CC002000000000B60A000813
:1006500016100100060000006CC4002068CC0020C9
:1006600000000000E40A00082F1001002200000032
:10067000FCCB002070CC002000000000EA0A00083B
:100680001E00010007000000F8C5002094CC0020E7
:10069000000000000C0B0008231001000E000000F9
:1006A00038C600209CCC002000000000C51E0308B6
:1006B000F5610100CC00000054C30020ACCC002048
:1006C0000000000031FC0108261001000E000000AF
:1006D00088CD002078CD0020000000009DED0408AA
:1006E0000B3001001A00000038C30020C4CD0020E8
:1006F00000000000140B00081900010005000000B4
:10070000A4D6002008D80020000000002E0B00080E
:100710001A0001000E00000014D6002010D800209E
:1007200000000000340B0008F82101000600000062
:10073000B4D4002020D8002000000000420B0008A4
:10074000203201000A000000C0D4002028D8002078
:1007500000000000D54005081500100070000000E2
:1007600014CF002034D8002000000000000000005A
:100770002A000800600000000CD70020A4D8002048
:1007800000000000894005080D0001003400000051
:10079000E81E01207829012000000000890C0108D2
:1007A0000902010001000000501E0120AC290120B7
:1007B00000000000480B0008040008008000000052
:1007C000CC1D0120B0290120000000000000000025
:1007D0001300010004000000241D0120302A012024
:1007E000000000004C0B0008FD0101002400000087
:1007F000E41C0120342A0120000000005B6902088B
:100800001820010030000000B01C0120582A0120EF
:100810000000000099D10308061001001C00000030
:10082000CCED0020882A01200000000025C8030824
:10083000FB010100010000002C1B0120A42A012063
:1008400000000000A1C70308FC010100090000002E
:10085000F8190120A82A012000000000A9C70308F8
:10086000F701010006000000CC190120B42A012084
:1008700000000000500B0008160215003F000000A9
:10088000A8EE0020BC2A012000000000C1C7030818
:100890003400010010000000C0180120FC2A0120D3
:1008A00000000000B140050811020100080000002E
:1008B000981801200C2B012000000000560B0008A6
:1008C000121201000400000090180120142B0120D6
:1008D000000000005E0B0008122001001000000064
:1008E00080180120182B012000000000620B000876
:1008F000FF11010006000000CC120120282B01206E
:100900000000000029C70308081203000F000000C0
:1009100048130120302B01200000000049C70308C4
:10092000F901010004000000BC120120402B01204D
:1009300000000000096A0208FA010100030000003B
:10094000840C0120442B01200000000069C9030829
:10095000020201000300000090ED0020482B01205E
:1009600000000000000000000C0201000400000074
:100970007CED00204C2B01200000000039C703084B
:10098000110001000C000000A2000120502B0120EA
:100990000000000041090108FE01010014000000F0
:1009A00014FB00205C2B012000000000D9C70308C5
:1009B000003C0000000000000100000002020000F6
:1009C0000000000000000000000000000000000027
:1009D0000000000000000000000000000000000017
:1009E0000000000000000000000000000000000007
:1009F00000000000000000000000000000000100F6
:100A00000005200300000000E8036400040A000160
:100A100014001E0090010000000000000300000010
:100A200000000000000000000000000000000000C6
:100A300000000000000000000000000000000000B6
:100A400000000000000000000000000000000000A6
:100A50000000000000000000010000000000000095
:100A60000000000000000000000000000000000086
:100A7000000000000001000000050000010203006A
:100A80000000000000000000000000000000000066
:100A900000800700000000000000000001000000CE
:100AA0000000000000000000000000000000000046
:100AB00020000301000020003200C800D00796008B
:100AC0001400320028004C044006000550001400B9
:100AD0000F00080064000100010005000A0000008A
:100AE000F4019600C4090000190000000000000095
:100AF00000000000000000000000000000000000F6
:100B000000000000000000000000000000000100E4
:100B100000000000AE014A015E012C0164000200E9
:100B2000000001000A019A01001E0A0000000000F6
:100B3000280100007E05EA05B4053200E803D0076D
:100B400000000401F4011400000000000020403007
:100B50000000010000000000000001010101FFFF92
:100B6000FFFF000000010000055334313100000098
:020B7000000281
:100B72000000803F000000000000000000000000B4
:100B82003D350108000000000000000000000000E8
:100B9200FFFFFFFFFF00000048660608C8010020B3
:100BA2004B430408474304083F4304082D4104080B
:100BB2009D4B0408713A0408E94A040835430408C5
:100BC20025430408154304081143040800000000EB
:100BD200E82E00200800000000000000D82E0020AF
:100BE2000800000020000000ED7204080F3E040817
:100BF2008172040800000000F13C0408597B0408DB
:100C0200C5710408356E04080000000000000000F1
:100C1200B13C0408793B04086B3B0408BD6C040832
:100C2200D96C0408A16C0408856C04086B6C040878
:100C3200A3720408ED3D0408C77104080000000017
:100C4200C93C0408376E040899710408A36D0408AE
:100C52000000000000000000BD3C0408010000008C
:100C6200A00F0000B80B000002FFFF01685E0C003D
:100C72000200000000000100E0010000FFFFFFFF92
:100C820001FF010075F20108000000009C7C0608CB
:100C9200FFFFFFFF080000004257020000000106AC
:100CA20042570200000001060000000000000000A0
:100CB200EC96060800000000000000009896060866
:100CC2000101FF00FFFFFFFF2D202D2D202D2D2DD7
:100CD2002D202D2D2D00000000000000000000003E
:100CE2000000000000000000000000000000000002
:100CF2002896060801000000FA000000010000002A
:100D020001000000C84D00200000F40101000000B5
:100D1200C64D00200000F40101000000C44D002077
:100D22000000F40101000000C24D00200000F401A7
:100D320001000000C04D00200000F401010000008D
:100D4200BE4D00200000F40101000000BC4D002057
:100D52000000F40101000000A1FA010865FA01088F
:100D620074820608AC4D002005320100BA4D002005
:100D72006400F40101000000B84D00206400C409C1
:100D820001000000AA4D0020E803D0070100000086
:100D9200A84D0020E803D00701000000A64D002066
:100DA200E803D00701000000A44D00201E00B80B8C
:100DB20001000000B24D002005000F0001000000FC
:100DC200B44D002003000A0001000000A24D0020E3
:100DD2001E00F40101000000B64D002002000000D8
:100DE20000830608A04D00201400640001000000EA
:100DF200AE4D00203200E803010000009E4D0020AD
:100E02000000C80001000000AB4C002000C8010037
:100E1200AA4C002000500100A94C0020005A0100F9
:100E2200A74C0020020000000C830608C404070837
:100E3200CC040708AE2001200100C4090000000014
:100E4200AC2001200100C40900000000AA200120FA
:100E52000100C40900000000A82001200100C4090B
:100E620000000000A42001200100C40900000000CD
:100E7200A62001200100C40900000000A2200120D8
:100E82000100C40900000000A02001200100C409E3
:100E9200000000003F4A002000C801003E4A002036
:100EA20000C801003C4A00200100C8000100000007
:100EB2003A4A00203200307532000000384A0020E1
:100EC20005820500364A002005002C0105000000BD
:100ED200354A0020055A0500324A002000FF010071
:100EE200344A00200200000054040020304A00204E
:100EF2000300000078DC0608314A002000FF0100F0
:100F0200334A002002000000540400202F4A00202F
:100F12000300000078DC0608F5F9010885F90108EC
:100F220018830608DC4D0020EE02CA08010000000A
:100F3200DA4D002000C8010064000000D94D0020F5
:100F420000C8010064000000D84D0020020000002B
:100F520024840608224A002080C1803E0500000049
:100F6200204A002080C1803E050000001A4A00206D
:100F720080C1803E05000000184A002080C1803EEA
:100F820005000000134A002000FF01000C4A002067
:100F92006400F401010000000B4A0020040000007C
:100FA200308406080A4A0020020000004484060831
:100FB200BF4A00200D00000050840608BC4A0020F1
:100FC20000640100BA4A0020320010270A00000023
:100FD200B84A00200D00000050840608B74A0020DD
:100FE2000D00000050840608B64A002002000000EE
:100FF20088840608000000000000000094840608AF
:1010020034AC00209CFF2C0100000000F0590020AD
:10101200E0150C17000000003D5700200200000000
:10102200CC840608E84D00200100FF7F010000008B
:10103200E74D002002000000D8840608C14A0020C3
:1010420003000000E8840608C04A002003000000F4
:10105200E8840608984C00200000E8030100000024
:10106200964C00200000E80301000000944C002090
:101072000000E80301000000924C00200000E80399
:1010820001000000904C00200000E8030100000075
:101092008E4C00200000E803010000008D4C00206F
:1010A200001401008C4C002003000000F8840608A4
:1010B200A64C00200200000008850608A44C00206F
:1010C2000000F40101000000A24C00200000F40125
:1010D20001000000A04C00200000F401010000000B
:1010E2009E4C00200000F401010000009C4C0020F6
:1010F2000000A00F010000009A4C00200000A00F89
:10110200010000008B4D0020196401008A4D00206F
:101112000200000014850608884D0020E803D0076D
:101122000A000000864D0020006401000A00000051
:101132007B4D0020006401007A4D00200064010014
:10114200824D0020006401000A000000814D002051
:10115200006401000A000000804D002000640100CC
:101162000A000000854D0020006401000A00000012
:10117200844D0020006401000A000000834D00201D
:10118200006401000A0000007F4D002001FF010001
:101192000A0000007E4D002001FF01000A0000004D
:1011A2007D4D002001FF01000A000000CA4A002014
:1011B2000000F40101000000C84A00200000A00F56
:1011C20001000000C64A00200000A00F010000003C
:1011D200C44A00200000A00F01000000C24A002003
:1011E2000000A00F010000004F57002000C80100BE
:1011F2004E570020006401004D570020006401009A
:101202004C570020006401004B570020006401008D
:101212004A570020FF0801004957002001640100DD
:10122200F1F80108B5F80108208506085257002098
:10123200016401005157002001000000908506085A
:1012420050570020040000009885060848570020E7
:1012520000640100465700201400E803010000006A
:1012620044570020E80330750A000000435700206D
:1012720000C801004257002000C801004157002069
:1012820000C8010040570020003201003F570020F3
:10129200006401000A000000605700200000D0072F
:1012A200010000005B57002000C801005A570020CF
:1012B20000C801005957002000C801005E570020F5
:1012C2000000D007010000005857002000C80100AC
:1012D2005757002000C801005657002000C80100DF
:1012E2005C5700200000D007010000005557002085
:1012F20000C801005457002000C8010053570020C5
:1013020000C801000000000089F60108AC8506084B
:10131200B34A0020005A0100B44A00203B000000FA
:1013220048860608B24A002000C80100B04A0020E0
:10133200E803D0070100000053544D3332463431E4
:10134200310000002E4A0020000301002D4A002037
:1013520000030100BDF5010881F501083887060880
:1013620049F5010809F50108C4870608F9F50108DD
:10137200F526020844880608244A002001030100D9
:1013820009FB0108DDFA0108708B060891F40108D7
:1013920045F40108E08B06089FF60108514E020849
:1013A2007C8C0608B93F020800000000248D060864
:1013B20069400208A13C0208C08D0608792B020888
:1013C20069FB0108148E060801F7010800000000FD
:1013D200948E0608D9F7010885F70108F88E0608E9
:1013E20071F801082DF80108948F0608A566020815
:1013F2002DF90108209006089D4D002001060100EC
:1014020049F7010815F701081C910608E965020869
:10141200592702088C910608ED6602081128020875
:10142200C09206089C4D0020010301004DF6010800
:1014320011F601089493060835FB0108000000002C
:1014420004940608DDF40108C92602086894060817
:101452000000000000000000F49406085DF9010895
:101462008928020880950608024A002088136F170F
:1014720001000000044A002088136F1700000000DA
:10148200F22001200000000000000000F0200120F6
:101492000000000000000000EE200120000000001B
:1014A20000000000EC20012000000000000000000D
:1014B200EA2001200000000000000000E8200120D6
:1014C20000000000000000002011002000000000C9
:1014D2000000000091490020030000003497060834
:1014E200004A002088136F17010000007EAC002024
:1014F20088136F17000000003DF301080000000090
:10150200449706083E5700200100000098970608FD
:1015120080AC002001000000A497060876AC0020F1
:1015220002000000AC970608000000000000000066
:10153200B897060825F30108000000005498060831
:101542000000000000000000A8980608000000004B
:101552000000000018990608064A00200200000058
:10156200509906087AAC0020E0150C170000000024
:10157200FFFF0000FFFFFFFF045B070800000802F7
:1015820005030300000000000C5B070801000802CD
:10159200050403000000000050F106080200FE01ED
:1015A20001100300000000004C09070803001402A8
:1015B2000003000000000000145B070804001F0283
:1015C20002000800000000001C5B070805001F0263
:1015D2000201080000000000FF01FF00F06200208D
:1015E20044630020010000000001010100D601FF58
:1015F200010101001A0300000000000000000000C9
:1016020000000000000000000000000000000000D8
:101612000403090412010002000000408304205761
:101622000002010203010B01FFFFFFFF01010000A5
:10163200DDD70308C5D70308B5D70308BDC803081B
:1016420061D7030809D70308ADC803081C0D0020A1
:10165200512A0408C5C80308C1C80308B9C8030849
:1016620011D20308B5C80308B1C8030880CE060822
:10167200F57A0408CF3D0408D97904080000000077
:10168200000000007171040881700408000000006D
:101692000000000000000000A53C04085DC903082A
:1016A20051C9030839D8030855D8030809C90308E2
:1016B2001DD8030801D803080068214C1F00000050
:1016C2001C0000001F0000001E0000001F000000A0
:1016D2001E0000001F0000001F0000001E0000008E
:1016E2001F0000001E0000001F0000002500000077
:1016F200F8CD0608008002021F00000053544D205E
:101702002020202050726F64757420202020202019
:1017120020202020302E303104030904120100025F
:10172200EF0201408304563200020102030100006D
:10173200120100020202004083044057000201022B
:101742000301000009022000010104C03209040063
:101752000002080650050705810240000007050146
:101762000240000009026400030100C032090400C3
:1017720000010300000009211101000122260007D7
:1017820005830308000A080B010202020100090492
:1017920001000102020100052400100105240100DC
:1017A200020424020205240601020705820308003E
:1017B200FF09040200020A000000070501024000BE
:1017C200000705810240000009024300020100C037
:1017D2003209040000010202010005240010010583
:1017E20024010001042402020524060001070582E7
:1017F200030800FF09040100020A000000070501B6
:10180200024000000705810240000000FF000000C6
:1018120000FF0000000000000000AA5507010000C0
:101822000100000000600240106002400000000061
:1018320000000000000B000000000000000000009B
:101842000000000000600240286002400100000029
:1018520000000000060C0000000000000000000074
:1018620000000000006002404060024002000000F0
:1018720000000000100D0000000000000000000049
:1018820000000000006002405860024003000000B7
:1018920000000000160E0000000000000000000022
:1018A200000000000060024070600240040000007E
:1018B20000000000200F00000000000000000000F7
:1018C2000000000000600240886002400500000045
:1018D20000000000261000000000000000000000D0
:1018E2000000000000600240A0600240060000000C
:1018F20000000000301100000000000000000000A5
:101902000000000000600240B860024007000000D2
:1019120000000000362F0000000000000000000060
:101922000000000000640240106402400000000059
:10193200000000000038000000000000000000006D
:101942000000000000640240286402400100000020
:101952000000000006390000000000000000000046
:1019620000000000006402404064024002000000E7
:1019720000000000103A000000000000000000001B
:1019820000000000006402405864024003000000AE
:1019920000000000163B00000000000000000000F4
:1019A2000000000000640240706402400400000075
:1019B20000000000203C00000000000000000000C9
:1019C200000000000064024088640240050000003C
:1019D200000000002644000000000000000000009B
:1019E2000000000000640240A06402400600000003
:1019F2000000000030450000000000000000000070
:101A02000000000000640240B864024007000000C9
:101A12000000000036460000000000000000000048
:101A220000000000AA5505010000000048D8060881
:101A3200FF1FFF1F05010905A101A10005010930D2
:101A42000931093209330935093409400938158148
:101A5200257F750895088102C0C000000902220096
:101A6200010100E032090400000103010200092122
:101A7200110100012226000705830308000A000065
:101A82000000000001020304010203040607080922
:101A92008F7304088D78040809740408273D04082C
:101AA200D93E0408373D0408533D0408013D0408AB
:101AB200F33C040800000000000000002D202D2D42
:101AC200202D2D2D2D202D2D2D2D0000000000006C
:101AD2000000000000000000000000AA550B0100F9
:101AE20000AA5505010000AA550902000000AA55E6
:101AF20003009F0001000000C0120000000004016A
:101B020000000000000000021000000007000000BA
:101B1200000000000000000001020304060708099B
:101B220001820000FFFFFFFF0000803F0000803FB6
:101B320098CD002000000000BCCD00200000000075
:101B42000101000004D90020FFFFFFFF0000803FD9
:101B52000000000000000000000000000000803FC4
:101B62000000000000000000000000000000000073
:101B72000000000000000000000000000000000063
:101B8200000000000000803F000000000000000094
:101B920000000000010000000000803F080000007B
:101BA2007D000000693B0408673B0408653B0408AC
:101BB2005F3B04085D3B0408633B0408613B040887
:101BC200D9480408C947040809490408A166040859
:101BD200697F04081D670408913C04087D3C0408E1
:101BE200753C040801000000A05B0708086A0708AA
:101BF2000000000051080108A08601000400000056
:101C020000000000000000000000000000000000D2
:101C120000000000000000000000000000000000C2
:101C22000000000000000000A05B0708706A0708BF
:101C32000000000019930108E803000004000000FE
:101C42000000000000000000000000000000000092
:101C52000000000000000000000000000000000082
:101C62000000000000000000180D070844070708E4
:101C720000000000E59900087D0000000600000059
:101C82000000000000000000000000000000000052
:101C92000000000000000000000000000000000042
:101CA2000000000000000000F85A070800000000D1
:101CB2000000000075D10108E803000003000000E5
:101CC2000000000000000000000000000000000012
:101CD2000000000000000000000000000000000002
:101CE2000000000000000000786A07080000000001
:101CF20000000000A5B60508102700000300000040
:101D020000000000000000000000000000000000D1
:101D120000000000000000000000000000000000C1
:101D22000000000000000000105B07080000000037
:101D320065240308A19701085F76000005000000F2
:101D42000000000000000000000000000000000091
:101D52000000000000000000000000000000000081
:101D62000000000000000000B05E07080000000054
:101D720000000000E5DF010810270000010000005C
:101D82000000000000000000000000000000000051
:101D92000000000000000000000000000000000041
:101DA2000000000000000000846A07080000000034
:101DB2000000000089630108E8030000050000003C
:101DC2000000000000000000000000000000000011
:101DD2000000000000000000000000000000000001
:101DE2000000000000000000906A070800000000E8
:101DF20000000000590B0108204E00000300000003
:101E020000000000000000000000000000000000D0
:101E120000000000000000000000000000000000C0
:101E22000000000000000000A06A07080000000097
:101E3200000000005D090108204E000003000000C0
:101E42000000000000000000000000000000000090
:101E52000000000000000000000000000000000080
:101E62000000000000000000B06A07080000000047
:101E72000000000031A80108400D0300030000002B
:101E82000000000000000000000000000000000050
:101E92000000000000000000000000000000000040
:101EA20000000000000000001CF306080000000013
:101EB2000000000035330108102700000100000077
:101EC2000000000000000000000000000000000010
:101ED2000000000000000000000000000000000000
:101EE2000000000000000000941607080000000037
:101EF200000000001909020810270000030000007A
:101F020000000000000000000000000000000000CF
:101F120000000000000000000000000000000000BF
:101F22000000000000000000C06A07080000000076
:101F32000000000081970308A08601000100000054
:101F4200000000000000000000000000000000008F
:101F5200000000000000000000000000000000007F
:101F62000000000000000000AC0A070800000000AA
:101F7200000000009591010850C30000010000001C
:101F8200000000000000000000000000000000004F
:101F9200000000000000000000000000000000003F
:101FA2000000000000000000000907080000000017
:101FB200000000008DED0408A08601000000000072
:101FC200000000000000000000000000000000000F
:101FD20000000000000000000000000000000000FF
:101FE2000000000000000000580807080000000080
:101FF20000000000918E0108A861000001000000AD
:1020020000000000000000000000000000000000CE
:1020120000000000000000000000000000000000BE
:102022000000000000000000C86A0708000000006D
:1020320000000000214F0208A086010001000000FC
:10204200000000000000000000000000000000008E
:10205200000000000000000000000000000000007E
:10206200000000000000000044F306080000000029
:102072000000000091650108A00F000001000000AF
:10208200000000000000000000000000000000004E
:10209200000000000000000000000000000000003E
:1020A2000000000000000000D46A070800000000E1
:1020B200000000009D4902081027000001000000F6
:1020C200000000000000000000000000000000000E
:1020D20000000000000000000000000000000000FE
:1020E2000000000000000000B45C070800000000CF
:1020F2000000000089080108A00F00000100000094
:1021020000000000000000000000000000000000CD
:1021120000000000000000000000000000000000BD
:102122000000000000000000E014070800000000AA
:1021320000000000C53805081A4100000100000037
:10214200000000000000000000000000000000008D
:10215200000000000000000000000000000000007D
:10216200000000000000000018080708000000003E
:10217200000000007D430408102700000100000059
:10218200000000000000000000000000000000004D
:10219200000000000000000000000000000000003D
:1021A2000000000000000000146A070800000000A0
:1021B20000000000395802081A4100000100000026
:1021C200000000000000000000000000000000000D
:1021D20000000000000000000000000000000000FD
:1021E2000000000000000000E06A07080000000094
:1021F20000000000C94C0408400D0300000000006C
:1022020000000000000000000000000000000000CC
:1022120000000000000000000000000000000000BC
:102222000000000000000000E86A0708000000004B
:102232000000000045630108400D0300000000009B
:10224200000000000000000000000000000000008C
:10225200000000000000000000000000000000007C
:102262000000000000000000F06A07080000000003
:10227200000000003932020850C3000003000000D1
:10228200000000000000000000000000000000004C
:10229200000000000000000000000000000000003C
:1022A2000000000000000000FC6A070800000000B7
:1022B20000000000F910010840420F000000000079
:1022C200000000000000000000000000000000000C
:1022D20000000000000000000000000000000000FC
:1022E2000000000000000000086B0708000000006A
:1022F20000000000D90D010850C3000000000000DA
:1023020000000000000000000000000000000000CB
:1023120000000000000000000000000000000000BB
:0C23220000000000000000000000803FF0
:08280000082800080040000850
:108000002C4BDFED2D7A1B68DFED2C6A184420EE37
:10801000A76A437A00EE903A8379F8EEE00A07EE19
:10802000103A60EE860AB8EEC77AF4EEE60AF1EE90
:1080300010FA27EE277A0BDCF5EEC00AF1EE10FA03
:1080400034D4F7EE007A77EEE00A87EEA05A01E02A
:108050009FED1B5AC378DFED1B5A9FED1B6A60EE44
:10806000006A07EE903A96EE877AF0EE476AB8EE2D
:10807000E77A70EE007AB7EE000A67EE277A36EEFE
:10808000807A67EE877A67EE857AF4EEE57AF1EE2C
:1080900010FA88BFF0EE657AF4EEC67AF1EE10FAC7
:1080A000B4BFB0EE460AB0EE670A7047B7EE005AAA
:1080B000D0E700BF70C700200AD7233CA4707D3FE3
:1080C0000000C84200C0F94400C0F9C4174B9FED3E
:1080D000185A1B681844BFEE007A437A06EE103A2D
:1080E000C378A0EE007A07EE903A8379B8EE466A3C
:1080F00005EE903A60EE850AF7EE006AF2EE044A69
:10810000B0EE664A20EE240AA6EE204A27EE057A53
:10811000F8EEE55AF8EEE77AE5EE876A67EE807AE0
:1081200024EE270A20EE260A704700BF70C7002001
:108130000AD7233C2C4B1B68184483799BB107EE6C
:10814000903ADFED2A6AF8EEE77A20EEA07A67EE41
:10815000A67A27EE207AF7EE006AD7EE877A77EED6
:10816000A67A20EE270AC378DFED206A07EE903A60
:10817000F8EEE77AB0EE007A67EEA67AF4EEC77A08
:10818000F1EE10FA05DD37EEC77ADFED196AE7EE9A
:10819000267A437A9FED177A20EE070A20EE270A07
:1081A00003B3DFED127A9FED147A06EE903A60EE9B
:1081B000A77AF8EEE60A60EEA70AF4EEC70AF1EE37
:1081C00010FA04DDDFED0D7A20EE270A7047F5EE98
:1081D000C00AF1EE10FA05D4F7EE007A77EEE00A65
:1081E00080EE200A704700BF70C700200AD7233CEA
:1081F000D7A3684100004843A4707D3F0000C842F7
:10820000F0B4454C454BB4F90010454E5B8A3278CA
:1082100076786FF47A7C01EB0C07BFB240F2E63C53
:108220006745C3F5FA650CD89F188F4245DAC91A1D
:108230008F1A642101FB07F1AF1A91FBF7F1C9B264
:1082400000E06421884264D9B4F902106FF47A77AF
:10825000CF19BFB240F2E63C67451ED96422904276
:1082600057D9B4F904206FF47A71511889B240F2E9
:10827000E634A1422FD899198A4238DDD31A9B1BC4
:108280006422AD1B02FB03F393FBF5F3DBB28342E5
:1082900034BF00200120F0BC70479F18B9421CDC9D
:1082A0009A1A9142DDDA511A6427A2F57A7207FB15
:1082B00001F191FBF2F2D2B2D1E79F1A8F4223DD96
:1082C000A7EB010C6421A7F57A7701FB0CF191FB78
:1082D000F7F1C9B2B6E76423D9E7C91A891A642746
:1082E000AA1A07FB01F191FBF2F2D2B2B7E79B1B8E
:1082F0009A420BDA991A6422A3F57A7302FB01F20F
:1083000092FBF3F3DBB2C2E700219BE70020F0BC55
:1083100070470120F0BC7047A0200120B01C012054
:10832000A4D60020D0E90920101AB0FA80F0400944
:10833000704700BF0171704703799B070AD5436AF4
:108340008269D154436A01690133B3FBF1F201FB45
:1083500012334362704700BF037913F0010317D053
:10836000D0E90731C26810B45B1A541E23400BD009
:1083700043694C1C5B5CB4FBF2F102FB11420262EC
:108380005DF8044BD8B2704718465DF8044B70474F
:1083900018467047037913F0020308D0D0E9092189
:1083A0000369581E531A0340DBB2C01A70471846BF
:1083B000704700BF037913F0010306D0D0E90731FD
:1083C000C268581A531E184070471846704700BFBD
:1083D00010F8113C0133DBB20A2B00F8113C07D92D
:1083E000044A10F8131C002322F8113000F8113C45
:1083F000704700BF80640020F0B45D4E5D48327865
:108400005D4B5E4DDC6B2D780132A0FB02700009E4
:1084100000EB8000A2EB80001A683070914201EB03
:1084200004005C6811D293F84520002A4ED000F574
:108430008030B0FBF5F084420BD2041B4FF4803245
:1084400092FBF5F2A21A9A600AE0B0FBF5F08442C2
:1084500044D34FF4803292FBF5F2121B02449A602F
:1084600040F68C240025A242C3E9001083F8455051
:1084700017D993F8402093F942108A4256B241D05E
:10848000002093F9411083F843008A4247D001212C
:10849000002283F8426083F8441083F84020F0BC47
:1084A000704793F844100029F9D0A2F2EF2040F26F
:1084B000DA5188421AD893F840100B2916D803EBEA
:1084C00081000131C26083F84010E8E7B0FBF5F0AD
:1084D0008442BED2041BA21A9A60C1E793F84520D9
:1084E000002AAAD1041BA21A9A60B9E7244A0021E3
:1084F00002F1300083F8441042F8041F8242FBD19D
:10850000F0BC7047111F0829BAD893F843101829F6
:1085100026D8013183F8431093F94110B5E793F859
:1085200044100029B3D0FAB11649154C0FFA82FC59
:10853000084601EB4C0754F8045F20F8025BB84290
:10854000F9D10B2A07DC104801EB4C02002122F87C
:10855000021B9042FBD10D490A7801320A7096E75E
:1085600083F84160314690E794460649EBE700BF47
:1085700058190020CDCCCCCCE41A01200C120020DC
:10858000EC1A0120806400209864002074640020AC
:1085900030B40E4D0E4B2A780E4C0132A3FB020371
:1085A0001B09E06B03EB8303A2EB83034FF6FF721F
:1085B000914200F101002B70084408BF0123E063E1
:1085C00008BF84F8453030BC704700BF5819002000
:1085D000CDCCCCCCE41A0120BCEEC00A10EE103A8F
:1085E00098B2704707EE900AB8EE670A704700BF6E
:1085F0002DE9F0413B4C94F82C30002B42D0002266
:10860000394B3A4F1546502607E053F8181B0D60BA
:1086100094F82C100132914234DD197C0029F4D0F9
:108620005868810AA1F58011522959D8DFE801F074
:108630002C46484A4C4E585858585858585858582C
:1086400058585858585858585858585858585858AA
:10865000585858585858585858585858585858589A
:10866000585858585858585858585858585858588A
:108670005058585858585858585858585858585882
:1086800052545600BDE8F0810121EFF3118C86F3BE
:108690001288D0F82480B0F814E001EB810107EBD8
:1086A000C10108F101084EF0010EC1F824805FFA03
:1086B0008CFCA0F814E08CF31188A6E70221E4E713
:1086C0000321E2E70421E0E70521DEE70621DCE7FC
:1086D0000021DAE70721D8E70821D6E70921D4E706
:1086E000FE21D2E798ED0020E8ED002040140120A3
:1086F000034B00EB400003EBC003587C704700BF06
:10870000E8ED002001207047704700BF224991F832
:108710002C30002B3ED0214A106818B10023036092
:1087200091F82C30012B35D9906918B100230360E2
:1087300091F82C30022B2DD9106B18B10023036057
:1087400091F82C30032B25D9906C18B100230360CD
:1087500091F82C30042B1DD9106E18B10023036042
:1087600091F82C30052B15D9906F18B100230360B8
:1087700091F82C30062B0DD9D2F8900018B10023B7
:10878000036091F82C30072B04D9D2F8A8300BB134
:1087900000221A60704700BF98ED0020E8ED00202D
:1087A000224991F82C30002B3ED0214A106818B194
:1087B0000023036091F82C30012B35D9906918B152
:1087C0000023036091F82C30022B2DD9106B18B1C7
:1087D0000023036091F82C30032B25D9906C18B13D
:1087E0000023036091F82C30042B1DD9106E18B1B2
:1087F0000023036091F82C30052B15D9906F18B128
:108800000023036091F82C30062B0DD9D2F890008C
:1088100018B10023036091F82C30072B04D9D2F84B
:10882000A8300BB100221A60704700BF98ED0020FD
:10883000E8ED002030B44FF4A571B4224FF4EB738F
:108840004FF4E1754FF48774418082809621442271
:10885000C380002345818481C1810282037003812A
:10886000438230BC704700BFDFF834C0F0B5074624
:1088700000F1CC0E094E3D4634460FCC64452860CD
:108880006960AA60EB60264605F11005F4D1223735
:1088900023882B807745EDD1F0BD00BF906006089E
:1088A000B0600608034B33F8242F02809B78837056
:1088B000704700BF9060060807280AD800EB400008
:1088C000044B10B553F8304014B15CF047F9206008
:1088D00010BD7047D018012038B500EB4000084D9E
:1088E000C4002B1993ED027AD3ED037AE7EE007AF8
:1088F000B0EE670A5CF032F92B59186038BD00BF42
:10890000E8ED0020F8B5A0F51A7423796179DB074A
:1089100046D594F84C32606C0BBB94F84F32012B67
:108920003FD0002B41D194F84E3294F84D629E42D4
:108930000CD9B4F85622012707FA03F501332A436C
:10894000DDB2AE4292B2F7D8A4F856220123C94351
:1089500084F84F321940BDE8F84058F003BA026875
:10896000D36A5B08536294F85D32012B07D094F808
:10897000513223B1B4F858320133A4F85832C94304
:1089800001F0010158F0EEF90023012284F84F2292
:1089900084F84D3284F84E32A4F8563284F84C32C2
:1089A000F8BD94F84D3284F84E32002384F84F32EB
:1089B00001F00101BDE8F84058F0D4B9836C006CB7
:1089C0001BB11A7A012120F0FDBD012120F0CABEA1
:1089D00010B5437903F0200113F0010F436C0446F6
:1089E0001A7AC06B17D000290CBF4221022120F057
:1089F000E9FD626C012384F85032A4F84C325179BD
:108A000012688B40118C9BB221EA03011184118CF6
:108A10000B43138410BD00290CBF2221022120F03A
:108A2000D1FDE6E70A4B1A6810B41446B4FBF1F323
:108A3000B3F5803F07D3012CFAD96408B4FBF1F3F6
:108A4000B3F5803FF7D299B25DF8044B13F052B8FA
:108A500014F200208160406CE4E700BF4379006CB1
:108A6000DB0748BF81F0010109B920F059BF20F0B0
:108A70005DBF00BF38B5A0F518742379990747D4B6
:108A8000D80700D438BD94F84C32002BFAD194F8B2
:108A90004D320133DBB2092B84F84D3270D00A2BF2
:108AA000F0D194F84F52B4F85632002D00F0A9805E
:108AB000990503F0010200F1AB80002A00F0A880C4
:108AC0001A46E36A5208002B00F0AC80D0B2216B4A
:108AD000984794F84F5201220023954284F84D3272
:108AE00084F84C22CED1617984F84F321140606C09
:108AF00058F038F9636C1A68597905FA01F3118C4A
:108B00009BB221EA03011184118C0B43138438BDFD
:108B100094F851226ABBD4E90950854294F8501266
:108B200046D0451CA369A5621B5C2069DBB2854267
:108B30004FEA430328BFA26243F400730A200122D4
:108B4000A4F8543284F8520284F8512211B16179A8
:108B50000D073FD45A08A4F8542203F0010120461F
:108B6000FFF77CFF94F852222379013A84F85222CD
:108B700086E794F95222002A63D184F851227FE7D4
:108B800094F84F32002B7FF47DAF94F84E32082BCF
:108B90003FF678AFB4F85622012000FA03F1013312
:108BA0000A43D9B2082992B2F7D9A4F8562238BD9F
:108BB00000297FF465AF627912077FF561AFA36C7E
:108BC000206C5BB31A7A20F0FDFC2046FFF700FF13
:108BD000237955E7616CE06B0B684D79198CAA40DD
:108BE00021EA02021A841A8C92B21A84002120F01F
:108BF000B9FD002384F850322046FFF7DFFE2379C9
:108C00003EE743F001029B05A4F856227FF559AFD9
:108C1000B4F85A320133A4F85A325CE7194620F00E
:108C2000A1FDD2E7E3696169D2B2CA54E369E168A0
:108C300094F84F520133B3FBF1F201FB1233E361BD
:108C400049E7B4F8543285E710B520F0F3FB044649
:108C5000B8B1112200238271C371202120F082FD5E
:108C60000A2020F077F9204620F0C4FE28B90E4BE8
:108C700001225A700023A37110BD0B4B02225A70BF
:108C8000F8E7202120F06EFD0A2020F063F920464D
:108C900020F0B0FE18B9044B01225A7010BD024BEF
:108CA00002225A7010BD00BF581900202DE9F84368
:108CB000AB4D2C68A60500F13381AA4AAA4B92F865
:108CC0000080AA4E00221A70B8F1000F00F07C81DB
:108CD0000621A74839F05CF8002800F0158144F01F
:108CE0001004A44AA44B17682C6017F48057B3F9FA
:108CF000069040F0AA80A14B9B8A4B4500F3BC80B4
:108D000044F080049E4B2C6093F8009019F0080FFB
:108D100006D11B21964839F03BF8002800F07281FB
:108D200024F48074B388642B964B1B688CBF44F486
:108D3000006424F40064580701D5F28832B93289FE
:108D4000002A00F09C80990740F1998044F48054F7
:108D50008D4B2C6003F1780102E00633994216D066
:108D60001A781C2AF9D19878DA78904202D35A7985
:108D7000002AF2D01C217E4839F00AF820B1834B3A
:108D80001B785A0740F1608144F480642C60804B6A
:108D9000DB79022B03D0072054F048FA98B17D4BC1
:108DA00093F821301BB919F0020F00F0238124F44D
:108DB000802407216E482C6038F0EAFF002800F07C
:108DC000138144F40024DFF8FCC19CF806E0BEF1F6
:108DD000000F18D0704B1A780AB91B799BB16F4BF2
:108DE00093F82C0078B16E4B9A7B002A00F0FF803C
:108DF000002203E0997B002900F0F98001328242D1
:108E000003F10403F6D124F480149CF81030012BF4
:108E100073D0022B6AD024F480041F2154482C60A4
:108E200038F0B6FF00283CD1B8F1000F3FD0002C3D
:108E30005AD10023B37320F03BF83369C01A0028DD
:108E40006CDBBDE8F8430AF08BB81521484838F0D0
:108E50009FFF00287FF44FAF524B1A7B002A7FF40C
:108E60004AAF4649DA884B8A991A4945BFF648AF56
:108E700013444B457FF744AF24F0800442E74A4B4C
:108E80001B78012B46D0022B484BD3F8C4303ED080
:108E9000003318BF0123002B7FF458AF24F4805413
:108EA00056E744F400342C60B8F1000F1CD1337B3A
:108EB000002B40F0AA809846002F40F0B18000219E
:108EC0002B4838F065FF002800F0C980002CB0D096
:108ED000B8F1000F08D1002F00F0BA8020B924F4B7
:108EE00000042C60002CA4D00223A3E7BEF1000FE5
:108EF00091D09CF80230082B8DD02D4B1B78002B85
:108F000089D044F4800488E724F01004E9E6002BBB
:108F10007FF41CAF274BD3F8C430B9E7BDE8F88322
:108F2000254B264A987911684FF47A7303FB00F3B6
:108F30008B423FF6C2AE224B1B6893F82E100029DD
:108F40003FF4BBAE1B6B002B3FF4B7AE126803F6C9
:108F5000B83393423CBF24F400742C60ADE600BFEC
:108F600020C60020BC1100206AC40020581900202F
:108F7000206A0020241D0120A0200120B01C012017
:108F80005CC400206CC10020406F002056AA002065
:108F9000CC4D0020C0CB0020C0D400200CFC002011
:108FA00000C5002014D600204C6700206866002011
:108FB0006A1B0120A065002080180120D013012029
:108FC000641B0120CCED0020354AB37817788BBBA9
:108FD00047B14146334838F0DBFE002855D124F034
:108FE00008042C60B77073E624F40024EBE644F424
:108FF00080140AE72C4B1B789B073FF5D8AE44F44E
:109000008024D6E644F480748CE624F4000323F430
:109010008053B3FA83F84FEA5818002F3FF44FAF4C
:109020001521204838F0B4FE48BB204B1B7B8BB386
:10903000074644E7002FD5D041461A4838F0A8FE2D
:109040000028CCD0B77043E624F480642C609EE600
:1090500000283FF444AF44F400042C6044E724F0BB
:10906000600401460F482C6038F092FE4CB1B8F114
:10907000000F7FF433AF002F7FF430AFE8E7002715
:109080001DE700287FF4D5AE29E744F008042C60E2
:10909000B7701DE634F080130CBF012700270EE7E0
:1090A000AE3A0020206A002056AA002014D60020E4
:1090B0002DE9F04F2DED028BBA4C237B83B0002BB2
:1090C00040F09180B84D2B78DE0728D4FFF7EEFDF5
:1090D000B64B1B68002B2ED12B78D80704D503B0D4
:1090E000BDEC028BBDE8F08F1FF0E2FEB04BB14A41
:1090F0001B68C31A9342074600F28D80DFF8C882CE
:10910000D8F80030002BEAD11B21AB4838F040FEE4
:10911000002800F010820223C8F80030DFE7A74AD9
:10912000A74B1178186801F0010120F005FC9F4B56
:109130001B68002BD0D0A34AA349127800200860F6
:1091400092B1A24A1278012A06D0022AA04AD2F885
:10915000C42004D1002AC2D19E4AD2F8C420B2FA57
:1091600082F25209002ABAD0002B93FAA3F3B3FA81
:1091700083F3E26908BF4FF0FF3301339A42AED068
:109180009549E361DBB2A1FB0321890801EB810270
:109190009B1A4FF0053043F20525DBB201F0FF02C8
:1091A000C4E90D00A587002900F07D821921012A5C
:1091B00084F83E1000F04481023AD2B20732874D63
:1091C00084F83F10084652000C2168544E1C0231AE
:1091D0008A4205EB010700F09481402907F8010C51
:1091E000F3D10A463BE1774A1378002B7FF46AAF4C
:1091F0007B497C4B4E8B764D1968764842F2107352
:1092000003FB06F3B3FBF1F30121C5F8C430C0F84A
:10921000C430117056E7744B1B78002B40F09481DA
:10922000DFF8A481DFF80492704EDFF804B29BF8F7
:109230000030DFF800B2D9F800A09BF80090002BB6
:1092400000F0B1812878DFF8F0C16949694B40F03E
:1092500003022A7000228CF80020C8F80020C1E91F
:10926000002202E006339E420CD01A781C2AF9D163
:109270009978DA78914202D35A79002AF2D040F0F4
:10928000070028705C4AB2F90030002BB8BF5B427F
:10929000B3F5E17F3DDAB2F90230002BB8BF5B4293
:1092A000B3F5E17F35DA554B554D93ED057AD3EDA6
:1092B000077AD3ED096A93ED030A77EEA67A30EECA
:1092C000070AF7EE000AB0EE007AE7EEC70A30EEC2
:1092D000000A38F043FEBEEE008A20EE088AB0EEA7
:1092E000480A36F041FFFDEEC87A85ED000A17EE18
:1092F000903ADFED447A2033402BC5ED017AC5ED7D
:10930000027A00F2C081B0EE480A36F0BBFE85ED6D
:10931000030A637BDFED3C6A3C4A3D4D07EE103AA1
:1093200007EE907AB8EEC77AF8EE677A0023E7EE98
:10933000267A19F0010F1380E361FCEEE77AD5E994
:109340000032C4ED067A00F0BC8032494979002928
:1093500000F0B780304E3149306808603049314FF5
:10936000DFF8D8C030484A6000223A60ACF80020EC
:109370001AF0800FAA680B60026000F0BE8019F03E
:10938000020F03D02B7D042B00F23F81182009F03F
:109390008FFF33683A6823620023C4E90923C4E9D4
:1093A0000B339CE65819002056AA002020C6002046
:1093B00030C600207F4F1200206A0020B812012022
:1093C000C0120120E36C00202CC600204C67002056
:1093D00068660020A0650020CDCCCCCC8C19002084
:1093E000644C002028510020751B0120B86F00201C
:1093F000A0D30020406F002064C40020841100200E
:1094000098010020000000000024744986CB002051
:10941000D01E0120F8C50020D0130120344E0020BA
:10942000284E002010C60020244E0020241D0120BC
:109430006AC400205CC40020A8CB0020304E00206D
:10944000322284F83F200C21002B3FF4CAAE621870
:109450000520012B82F8340001F101020BD11444E4
:10946000FF230E2084F8343003B0BDEC028BBDE83E
:10947000F04F09F01DBFA6188A1C19253E2A86F850
:109480003450ECD8A618022B01F1030286F8340000
:10949000E5D0A6180A1D3E2A86F83450DFD8A61853
:1094A000032B01EB000286F83400D8D0A3188A1DE4
:1094B0003E2A83F83450D2D8A318CA1D83F834004A
:1094C000CDE719F0020123D0297D042900F2828022
:1094D0007D4E7E49306808607D497E4FDFF8FCC1D3
:1094E0007D484A6000223A60ACF800201AF0800FF4
:1094F000AA680B6002607FF445AF052009F0D8FE32
:1095000047E7264432203E2A86F834009CD9A6E755
:10951000714F6D4E6D48AD683D60356805606D4FAB
:109520006E4D6B4839601AF0800F2980C0E9003217
:109530007FF42CAFE1E76A4B1B78D90640F18280BB
:109540000123C8F80030CAE5664B03F1780602E053
:1095500006339E4237D01A781B2AF9D19978DA78E7
:10956000914202D35A79002AF2D01B215E48DFF8DB
:109570009891DFF89C8138F00BFCD9F800A00AF430
:109580008053002840F08280D8F80020022A7DD045
:10959000DFF880B18BF80000002B00F08D80DFF841
:1095A00040B19BF8009019F0100F32D0D8F800307D
:1095B000032B7FF447AE4D4B1A78002A7FF442AE5E
:1095C00001221A703EE6DFF84881DFF83C91DFF8AF
:1095D00044B12CE607EE903AF8EEE77A9FED440AA4
:1095E00044490193F0EEE77A27EE800A0B604A6067
:1095F000009236F0B9FD404949F001098BF800901E
:1096000081ED000ADDE90023A4E6062009F050FE02
:10961000BFE63A4B1B78002BC8D12721324838F0DF
:10962000B7FB0028C2D01AF0100F03D0344B1B78C0
:10963000002BBBD01AF4805FB8D1324B1B88002BB3
:10964000B4D1B8E72D4B1B78002B7FF479AF2721DD
:10965000254838F09DFB00283FF472AF2A4B1B6869
:10966000DA0604D5264A1278002A3FF469AFDB04F3
:109670003FF566AF234B1B88002B7FF461AF0323BC
:10968000C8F800302BE5B0EE670A40E6DFF884B09A
:10969000012100228BF80010227533B1DFF840B0B1
:1096A0009BF80090CEE50A21CEE6184AFF201178FB
:1096B000152221F0B9F9BAE5144AFF2011781422D5
:1096C00021F0B2F9B3E500BFD0130120344E0020E1
:1096D000284E002010C60020244E0020304E0020CE
:1096E0005CC40020406F0020206A002034C60020A7
:1096F00050E0EF301C4E002050190020BC1100201B
:1097000016C6002014C60020241D012078A10020C8
:109710002CC600206AC40020314A324B10B5B2F981
:1097200006401B68B4F5FA6FA8BF4FF4FA64B4F5AD
:109730007A7FB8BF4FF47A74DB0410D42A4B9B8A2B
:109740006420E41A00FB04F0C3F5FA6390FBF3F025
:109750006428A8BF642020EAE07040B210BD152143
:10976000224838F015FBB8B9214B187B0028E5D109
:109770001D49DA884B8A9918A14225DB9B1AA3421E
:10978000ECDD1C1B6FF06300A3F57A7300FB04F0A3
:1097900090FBF3F040B210BD134A154B908A1A7B30
:1097A000241A6423C0F5FA6003FB04F494FBF0F47C
:1097B0009C42A8BF1C4624EAE474E0B212B14042C5
:1097C00040B210BD60B210BDE01A841AC3F5FA634E
:1097D00064209B1A00FB04F090FBF3F040B210BD34
:1097E000A0200120241D0120B01C0120206A00209F
:1097F00014D60020F8B5624A1378D90700D4F8BD12
:1098000023F001035F4C13701FF052FB5E4D237871
:10981000E867002B4BD15D4B1B78012B47D05C4B8D
:109820009A782AB31B79022B22D05A4E33780B2B0D
:1098300018D801229A4040F6030112EA010717D115
:1098400012F4C06F0ED0093B012B0BD845201CF041
:1098500013FDFF201CF010FD4F481CF073FC384630
:109860001CF00AFD4D4A4E4B12685A600B233370B0
:109870004C4B1B881BB34C4B5A691AB11968002218
:109880000A605A74494B1B7813B12378002B63D1BB
:10989000474A137B00212170D3B9464B1B6813F054
:1098A000600FACD10420BDE8F84009F001BD424B87
:1098B00001221A70364B9A78002AD9D0B2E73F4A73
:1098C0003F4B1178186881F0010120F035F8D9E795
:1098D000324B286A1B683B491B1AA1FB03139B09E7
:1098E000092B34D93849686A0968384E1468091A4E
:1098F0009068A6FB016100EB511150689160013442
:109900000344C2E90043012185F88010304C1FF068
:10991000CFFA237F002BC0D1AB6F00F5F42000F508
:1099200090705BB35A68121A002A04DB26E05A686A
:10993000121A002A04DA03F108019B68002BF6D101
:10994000A361244A6061012323770A60A5E795F8A3
:109950008030002BA1D0D9E71F4B1E6816F480562B
:1099600096D11E4B1F7821F049F8002890D033463D
:1099700039461422FF2020F063FF89E71849DFE70A
:1099800056AA00206AC400205819002034C60020BE
:1099900080CB0020E64D002004E80608D01301200B
:1099A000486A0020D2190120DC190120751B012012
:1099B00088CB002020C60020A8CB0020D819012089
:1099C000D4190120D34D621010C600201F85EB5121
:1099D00098010020A8010020241D012078A100206A
:1099E000D01900202DE9F04F2DED028BAF4D97B02F
:1099F00081462EF0B3F92B78052B00F05081AC4C4A
:109A0000AC4ED4F884203178B2FBF1F3501C01FB4A
:109A10001323C4F8840043B12B78012B00F0338169
:109A200017B0BDEC028BBDE8F08FA34B1B78E3B100
:109A3000A24AA34BB2F906209B8A9A4215DCA14B9D
:109A40001B78012B0DD0192B0BD00E2B0DD0082B12
:109A50000BD09D4B9D4A0693194600238B60936063
:109A600005E09B4B9B7B002BF3D0974B069354F068
:109A7000C5F82B78052B00F098840027954B4946B4
:109A800018684BF0E1FE2B78052B00F08784924B91
:109A90001B78DF0700F15081904B914F05932B7895
:109AA00000221F2B226300F0F481012B00F097812C
:109AB000052B00F0358500230793059A854B126826
:109AC0001B68069993F8468091ED038AD20440F111
:109AD0009581814BDFF8E8B11B78BBF812A0814873
:109AE000DB074FF0150158BFA4F890A038F050F9EB
:109AF00020B97D4B1A7B002A00F0D587BBF81430C3
:109B0000A3F57A7303EBD373C3F34F03AAEB0301FB
:109B1000534489B29BB207EE901AA1F57A72B8EE5F
:109B2000E77A07EE902AC3F5FA6E7048B8EEE75A66
:109B3000B4EEC87A07EE90EAF1EE10FA90F900C0A0
:109B4000F8EEE77A03DA3A78002A00F06F87684B7C
:109B50006849D3ED007A684A684BD1ED006AC3EDDD
:109B6000007A1278664BC3ED006A002A00F0228466
:109B700036EEE76A37EE487ABCEEC88ABCF1FF3FA2
:109B8000604B614908BFD4F89420DFF8A0C183ED91
:109B9000006A18EE10AA4FF0FF0EC1ED007A0EBF5A
:109BA000A9EB0202C4F8949000228CED007AA4F88C
:109BB00090A080F800E05548824240F29D84C7EEB4
:109BC000057A3A78B7EE007AF4EEC77AF1EE10FA39
:109BD00088BFF0EE477AF5EEC07ADFED4D6AF1EE20
:109BE00010FAB8BFF0EE667ACCED007A002A40F0A9
:109BF0004081414648464EF05FFE464B1B68002BB5
:109C000040F00E82444F3B6893F82E20CAB19B6906
:109C10009847B0B13B6893F82C2082B1DFF810A1CF
:109C20004FF00008DB69BAEC010A5FFA88F0984748
:109C30003B6893F82C2008F101089045F2DB5B6A41
:109C400098472B78332B00F02781052B00F0988361
:109C50000027324B1B68180700F19682304B1B78A7
:109C600033B9DFF8D08098F80230002B40F0A88399
:109C70002B78052B7FF4D1AE1FF01AF9294A2B78E7
:109C8000C01BD080C9E6284A264B1268A188D26939
:109C900059801A8017B0BDEC028BBDE8F08F1FF021
:109CA00007F9204BA0EB09001880A8E681ED002001
:109CB00058190020B4D40020BC110020A02001209D
:109CC000B01C0120146C0020ECC6002044D30020FE
:109CD000C0180120ECC5002056AA0020241D012038
:109CE0006AC40020206A002014D60020D8D50020A5
:109CF000ACC6002010D60020751B0120E4D5002042
:109D0000E8D50020DCD50020E0D500208FD003006E
:109D100000000000FCCF0020641B01206CC100206B
:109D200080AA002084ED0020E0CD0020CCD50020CA
:109D3000B0C6002080CB00209E4B1B78D8063FF594
:109D4000ABAE7378002B3FF4A7AE237D9A4F002B68
:109D500041F033823B78002B41F02F8294F8883019
:109D6000002B41F02A82954B1B8813F4006F944B13
:109D700005937FF494AE1B68D90601F1F287914BED
:109D8000DFED917A93ED097AB0EEC77AB4EEE77A17
:109D9000F1EE10FA81F25D8693ED047AB0EEC77AA7
:109DA000B4EEE77AF1EE10FA81F2538693ED0E7A73
:109DB000B0EEC77AB4EEE77AF1EE10FA81F2498696
:109DC000002323632B781F2B7FF46FAE236B7F4A16
:109DD000003318BF01230121538011806BE61FF06F
:109DE00067F87B4AD4F88C30126878490790C31A18
:109DF0009A1AC4F88C00CA808B805EE6754ADFED43
:109E0000766A92ED007A754ADFF810C2D2ED007AD8
:109E1000734A94ED276A92ED005AB8EEC77A38EE8D
:109E2000668AF5EEC07A37EE087AF1EE10FA8CED1C
:109E3000007A00F33B826B4BD3ED007A6A4B6B48A0
:109E4000D3ED006A6A4AC0ED006A76EEE75A694BC4
:109E500069496A48E5EE867A4FF0010E80F800E025
:109E600076EEE76AC2ED007AC3ED006AC1ED007AD2
:109E7000A5E66348634A00781278C00700F18C8336
:109E8000002A3FF4BAAE92005F4960485AF088FD5C
:109E9000B3E64E4B1A600EE65D4B1B78002B3FF489
:109EA000D7AE584B1B78042B9846A8BF4FF0040838
:109EB000002B3FF4CDAE574FBB7B002B01F09084BD
:109EC000D4E92B0380B107EE903A9FED537AB8EEB8
:109ED000670A07EE900A20EE070AF8EE677A80EE2E
:109EE000270A5AF03BFE00B2DFF8E0A0B8F1010FFC
:109EF000AAF800003FF4ACAEBB7C002B01F0C38499
:109F0000D4F80801D4F80C3180B107EE903A9FEDF7
:109F1000427AB8EE670A07EE900A20EE070AF8EEDA
:109F2000677A80EE270A5AF019FE00B2B8F1020FE4
:109F3000AAF802003FF48CAEBB7D002B01F0B08488
:109F4000D4F86401D4F8683180B107EE903A9FEDFF
:109F5000327AB8EE670A07EE900A20EE070AF8EEAA
:109F6000677A80EE270A5AF0F9FD00B2B8F1040FC3
:109F7000AAF804007FF46CAEBB7E002B01F0AA842B
:109F8000D4F8C001D4F8C43180B107EE903A9FED07
:109F9000227AB8EE670A07EE900A20EE070AF8EE7A
:109FA000677A80EE270A5AF0D9FD00B2AAF80600B7
:109FB0004EE600BF5CC400206AC4002014C6002026
:109FC000241D0120986E00200000164484ED00201E
:109FD0004C1F012080D6002000007A4428D60020A3
:109FE00024D60020ACC60020D0C60020E8D5002032
:109FF000E4D50020DCD50020E0D50020D8D5002015
:10A0000056AA002078A10020ECD50020B0C6002080
:10A01000691B012000C5002000401C46CCD5002053
:10A02000924B1B78192B0AD80122914902FA03F3AB
:10A03000194011B98F4A134201D053F08DF9059B95
:10A040008D4F1B689A0600F1D381DFF85882B8F96A
:10A050000030B7F90410B7F90620994203DC9A42A0
:10A06000A8BF1A461146B8F90230B7F91020A8F86F
:10A0700000109A42B7F9121003DC99420A46A8BFB1
:10A080001A46B8F90430B7F91C10A8F80220994212
:10A09000B7F91E2003DC9A42A8BF1A461146B8F948
:10A0A0000630B7F92820A8F804109A42B7F92A1008
:10A0B00003DC99420A46A8BF1A46B8F90830B7F936
:10A0C0003410A8F806209942B7F9362003DC9A42EA
:10A0D000A8BF1A461146B8F90A30B7F94020A8F8C7
:10A0E00008109A42B7F9421003DC99420A46A8BF09
:10A0F0001A46B8F90C30B7F94C10A8F80A20994262
:10A10000B7F94E2003DC9A42A8BF1A461146B8F9A7
:10A110000E20B7F95830A8F80C109342B7F95A102E
:10A1200003DC91420B46A8BF1346A8F80E30534BF0
:10A130009B89002B79D0524A0897DFF86CB1DFF881
:10A1400038A117460BE08842A8BF0846ABF80000CC
:10A150004C4B9B4507F124070AF10C0A64D03BF9EC
:10A16000023F00EE103A3846B8EEC00A32F00CF862
:10A170005AF0F4FCBAF90430BAF9061000B2984269
:10A18000E1DAABF80030E3E706993F4BD1ED027A14
:10A19000B3F904303D4AF0EEE76AB2EE0E7A82FB84
:10A1A0000312F4EEC76ADB17C3EBA203F1EE10FA59
:10A1B0001BB236D5364A1288510732D5B4F88C23F3
:10A1C0009B1A9BB219B211F1B30FBCBF03F5B47364
:10A1D00019B2B3298BB203DDA3F5B4739BB219B2E4
:10A1E0002C4A12790AB95B4219B22B4B1B781A0719
:10A1F0007FF534AD294B2A4A1B6893F8203013FBB6
:10A2000001F382FB03121A44DB17C3EB221307EEA0
:10A21000103AB8EEC77A069B77EEC77AC3ED027A9A
:10A220001CE5A4F88C3319E5089F104B1B78013B03
:10A23000182B00F27485DFE813F02605720572050D
:10A2400042047205720572055E057205720572059B
:10A2500072057205000540057205720572057205EA
:10A260004204DF047205720500052605F8CF0020C0
:10A2700030C13001020000020CD70020C0180120BC
:10A28000F4CD0020F26E002064C40020676666668C
:10A2900014C60020A4D600205CC40020ECC5002019
:10A2A00089888888E46E0020E26E00209F4AA049D9
:10A2B0001278A0480860002A40F0FD83DFED9E3A46
:10A2C0009E49D1ED006AF5EE406AF1EE10FA00F019
:10A2D0008D8793F87F2094ED284A93F8813005EE1E
:10A2E000902A77EEE67AF8EEE55A954A65EEA75A97
:10A2F00092ED003A934A34EE664AF0EE657AE4EE67
:10A30000037AD2ED004A5A42B0EE674A07EE902A2D
:10A3100064EE244AF8EEE77AF4EEE74AF1EE10FA3A
:10A320000AD407EE903AF8EE677AF4EEE47AF1EEAA
:10A3300010FA88BFF0EE647A834BD3ED004AA7EEA3
:10A34000A46AB5EEC06AF1EE10FA00F1CF87B4EE60
:10A35000E36AF1EE10FA88BFB0EE636A7B4B84EDDE
:10A36000276AD3ED007A2B78C4ED286AA7EE857AA8
:10A37000392B8CED007A00F0BD87DFED757A5DE555
:10A380001EF096FD2B780799724A401A052B908093
:10A390007FF45EAC1EF08CFD07465AE41EF088FD8B
:10A3A0006C4BC01B5880FFF772BB1EF081FD074647
:10A3B000FFF764BB37EEE66AF0EE667AFFF7DABBCA
:10A3C000DFF8C4B19BF80020013A0D2A00F2D184D5
:10A3D000DFE812F03805C106890668064F068305D6
:10A3E0006D05B8054B052205F004E504C6044506D5
:10A3F000FB7AFF2B00F0FD83574A92789A4240F295
:10A40000F883564A32F913B0FB7DDFF88081FF2BC9
:10A41000A8F800B000F0CD864F4A92789A4240F2F8
:10A42000C8864E4A32F913A0A8F802A00A2052F0BA
:10A430008DFF00283FF40BAE494B97F916001A88A0
:10A44000484994F8A4C0B3F902E097F90A30089398
:10A4500010FB02F281FB023000111FFA8AF3D217BF
:10A46000BCF1010F09931FFA8BFBA0EB020A089BBA
:10A4700001F0A18113FB0EF381FB0321DB17C3EB7A
:10A480002111099B59445344A8F80010A8F8023040
:10A49000DDE5B4F890308B4204D8334B1B7B002BA6
:10A4A00001F05C8194F89830002B41F057812F4ADD
:10A4B0002F4B92ED007AD3ED006A2E4A2E4BDFF837
:10A4C000D0E02E4982ED007A36EEC76ABCF1010F6A
:10A4D00083ED006ACEED006A81ED007A01F06D82B5
:10A4E000DFF8B0C0C4F894904FF0000E0122B0EE37
:10A4F000675ACCF800E002702148224A9CED007AAD
:10A500004FF0000EC0F804E0C0F818E0C0F82CE0EE
:10A51000C2F800E0C2F804E0C2F808E0FFF74FBB61
:10A520001EF0C6FC0790FFF7C8BA00BFD5D30020C5
:10A53000ACC60020000040420AD7233D08D30020CB
:10A5400000D0002034D600207020012030D600201A
:10A550000000404284ED0020081D0120A0200120C1
:10A5600064C400201F85EB5114D600200CD60020B7
:10A57000D0C60020E4D50020DCD50020E0D50020A6
:10A58000986E002070D20020E64D0020E46E00207E
:10A59000E8D50020CCD50020E148E24FD0ED005AAC
:10A5A00090ED016AD7ED017AD7ED004A97ED025A96
:10A5B000DD4F90ED023A97F801C065EEA53AF5EE51
:10A5C000C07AE6EE063AFFEE007AF1EE10FAF5EE0A
:10A5D000C04A54BFB0EE674AB0EE474AF1EE10FAF7
:10A5E000B5EEC05A54BFF0EE674AF0EE474AF1EEBE
:10A5F00010FA54BFF0EE672AF0EE472A54BFB0EECF
:10A60000475AB0EE675AF1EEE37ABCF1000FF4EE70
:10A61000C65A18BFB0EE625AF1EE10FAB4BFB0EEEF
:10A62000467AB0EE657AB4EEC37AF1EE10FA9FED99
:10A63000BF7A48BFF0EE437A27EE877A35EE863A46
:10A6400048BFF0EE664AC3EE073A58BFB0EE665A0E
:10A65000DFEDB76AF4EEE63A48BFB0EE644AF1EED9
:10A6600010FA0BD59FEDB37AF4EEC65AF1EE10FA5C
:10A67000D8BFF0EE474A88BFB0EE474ADFEDAE6A7A
:10A680009FEDAC7A9FEDAD6A77EEE67AF4EEC77A8D
:10A69000F1EE10FAB8BFF0EE477A27EE866A002A8C
:10A6A0003FF4ABAAB878D1ED003ADFEDA57AA54921
:10A6B000D3ED002A91ED003AA34B07EE100AB8EE55
:10A6C000472AF3EE045A22EE272A73EEA55A0028F1
:10A6D00040F0B486D3ED017AD3ED026A93ED037AAC
:10A6E00064EEA77AE4EE267AE5EE077AF5EEC07A14
:10A6F000F1EE10FA01F1C38066EE277AB7EE007A28
:10A70000F4EEC77AF1EE10FA88BFF0EE477AB0EEB9
:10A71000637AA2EEA77AF0EE477AF4EEE75AF1EE0A
:10A7200010FA9CBFB3EE047A77EEC77A874988BFE8
:10A73000F0EE437A012AC1ED007A3FF45EAAD3ED30
:10A74000057AD3ED066A93ED077A64EEA77AE4EE14
:10A75000267AE5EE077AF5EEC07AF1EE10FA01F10D
:10A760009B8066EE277AB7EE007AF4EEC77AF1EEB8
:10A7700010FA88BFF0EE477AB0EE637AA2EEA77ABD
:10A78000F0EE477AF4EEE75AF1EE10FA9ABFB3EE24
:10A79000047A77EEC77AF0EE437A022AC1ED017AA5
:10A7A0003FF42BAAD3ED097AD3ED0A6A93ED0B7A25
:10A7B00064EEA77AE4EE267AE5EE077AF5EEC07A43
:10A7C000F1EE10FA01F1708066EE277AB7EE007AAA
:10A7D000F4EEC77AF1EE10FA88BFF0EE477AB0EEE9
:10A7E000637AA2EEA77AF0EE477AF4EEE75AF1EE3A
:10A7F00010FA9ABFB3EE047A77EEC77AF0EE437A96
:10A80000032AC1ED027A3FF4F8A9D3ED0D7AD3ED16
:10A810000E6A93ED0F7A64EEA77AE4EE267AE5EEFF
:10A82000077AF5EEC07AF1EE10FA01F14F8066EE8C
:10A83000277AB7EE007AF4EEC77AF1EE10FA88BF05
:10A84000F0EE477AB0EE637AA2EEA77AF0EE477A9E
:10A85000F4EEE75AF1EE10FA9ABFB3EE047A77EE0F
:10A86000C77AF0EE437A042AC1ED037A3FF4C5A912
:10A87000D3ED117AD3ED126A93ED137A64EEA77AD1
:10A88000E4EE267AE5EE077AF5EEC07AF1EE10FAFC
:10A8900001F1348066EE277AB7EE007AF4EEC77ADB
:10A8A000F1EE10FA88BFF0EE477AB0EE637AA2EECE
:10A8B000A77AF0EE477AF4EEE75AF1EE10FA9ABF73
:10A8C000B3EE047A77EEC77AF0EE437A052AC1ED4B
:10A8D000047A3FF492A9D3ED157AD3ED166A93ED7D
:10A8E000177A64EEA77AE4EE267AE5EE077AF5EEBB
:10A8F000C07AF1EE10FA01F1178066EE277AB7EE12
:10A90000007AF4EEC77AF1EE10FA88BFF0EE477ADB
:10A91000B0EE637AA2EEA77AF0EE477A18E000BFB5
:10A920007CD300206CD30020146C0020F304B53FCE
:10A93000D7B35D3F000000009A99193E9696963F66
:10A940000AD723BCD4D50020CCD40020B0C6002028
:10A95000F4EEE75AF1EE10FA9ABFB3EE047A77EE0E
:10A96000C77AF0EE437A062AC1ED057A3FF445A98D
:10A97000D3ED197AD3ED1A6A93ED1B7A64EEA77AB8
:10A98000E4EE267AE5EE077AF5EEC07AF1EE10FAFB
:10A9900000F1E78766EE277AB7EE007AF4EEC77A21
:10A9A000F1EE10FA88BFF0EE477AB0EE637AA2EECD
:10A9B000A77AF0EE477AF4EEE75AF1EE10FA9ABF72
:10A9C000B3EE047A77EEC77AF0EE437A072AC1ED48
:10A9D000067A3FF412A9D3ED1D7AD3ED1E6A93EDEA
:10A9E0001F7A64EEA77AE4EE267AE5EE077AF5EEB2
:10A9F000C07AF1EE10FA0CD466EE277AB7EE007A40
:10AA0000F4EEC77AF1EE10FA88BFF0EE477AE2EE84
:10AA1000A73AF4EEE35AF1EE10FA03D8B3EE043A93
:10AA200033EEC33A81ED073AFFF7E7B807EE103A85
:10AA3000B8EEC77AB4EEC87AF1EE10FA3FF629AD57
:10AA4000B849B94BD1ED006A93ED006AB749DFF818
:10AA500004E3C1ED006A38EE477ABCEEC88ABCF167
:10AA6000010FB34BB34908BFD4F89420DFF8E8C214
:10AA70008EED006A76EE665A18EE10AA4FF0010EBF
:10AA8000C3ED005AC1ED006A0CBFA9EB0202C4F885
:10AA90009490B0EE675A8CED007AA4F890A080F8FC
:10AAA00000E0FFF788B8DB88AAEB0301534489B2C2
:10AAB0009BB2FFF730B8A04AD2ED003A00E49F4BBA
:10AAC0001A6812B1B8F9081011609A69D4F8A83060
:10AAD00012B1B8F90A10116043F03003C4F8A8307D
:10AAE0004FF0020A059B1B689B0600F14383944BC1
:10AAF0001B78052B00F03E8397F90B30013304D00F
:10AB0000D4F8A830D80740F15D8497F917300133A5
:10AB100004D0D4F8A830990740F1098497F923307C
:10AB2000013304D0D4F8A8305A0740F10F8497F9C4
:10AB30002F30013304D0D4F8A8301B0740F115841E
:10AB400097F93B30013304D0D4F8A830D80640F14F
:10AB50001B8497F94730013304D0D4F8A830990604
:10AB600040F1218497F95330013304D0D4F8A83050
:10AB70005A0640F1368497F95F30013304D0D4F897
:10AB8000A8301B0640F13C84059B1B68DF027FF563
:10AB900039A86C4A6C4B92F82270DB7B3A460E2F38
:10ABA000A8BF0E27002A3FF42DA8112B3FF62AA894
:10ABB000664ACDF8209002EB4308C3F11201C1466A
:10ABC0004FF0000B884601E0C3450ED039F9023B37
:10ABD00000EE103A0AEB0B00B8EEC00AC0B20BF15F
:10ABE000010BFDF769FE5F45EEDCDDF82090FFF715
:10ABF00009B8B7F908B007E4D4F8A8A03B464FF06D
:10AC0000030B57469A4638F91B3000EE103AABF169
:10AC10000300B8EEC00AC0B2FDF74EFE012303FAEE
:10AC20000BF30BF1010B1F43BBF1070FC4F8A87026
:10AC3000E9D157464FF0040A54E7DFF820A1D4F8D1
:10AC4000A830CDF820804FF0020BD046BA461F4600
:10AC500038F9023F00EE103AABF10200B8EEC00A3C
:10AC6000C0B2FDF729FE012303FA0BF29B44174300
:10AC7000BBF1080FC4F8A870EAD15746DDF8208070
:10AC80004FF0060A2EE7304B9B7B002B40F08F8560
:10AC90002F4B1B7813F0010340F08985A8F80A3088
:10ACA000264A126802B11360D4F8A83043F020039A
:10ACB000C4F8A8304FF0010A14E7204B1A6812B10B
:10ACC000B8F9001011609969D4F8A82011B1B8F949
:10ACD00002000860196B11B1B8F9040008609B6CA0
:10ACE00013B1B8F90610196042F00F02C4F8A82099
:10ACF0004FF0040AF6E6114B1A6812B1B8F90610C3
:10AD000011609A69D4F8A83012B1B8F9081011602E
:10AD100043F01803C4F8A8304FF0020AE2E64FF0FF
:10AD2000000ADFE60CD60020D0C60020E4D50020C3
:10AD3000DCD50020E0D500202CD60020D018012042
:10AD4000F8CF0020B01C0120C0180120A020012055
:10AD500056AA0020E8D50020CCD50020E66E0020C1
:10AD6000012B00F08D860E2313208BF8003008F0A5
:10AD70009FFA1BF0A5F9002838D09BF800300C3B57
:10AD8000022B7EF675AF634E337801228BF80020DC
:10AD9000002B3EF46DAF00233370FEF769BF012B2B
:10ADA00001D137F071FC0D2313208BF8003008F02F
:10ADB0007FFADEE7022B40F09A87574BDFF880A13D
:10ADC0001B78DAF80060002B40F08487002E00F03A
:10ADD00088873378002B00F0848796F82820002A93
:10ADE00001F082801BF06CF90028CCD198F8043077
:10ADF000012B00F00B85022B7EF43AAF9BF800305C
:10AE0000012B7EF435AF434B1B78002B7EF430AF23
:10AE10002AF036F9FEF72CBF404B1B78002B00F0D0
:10AE20009B85132052F092FA002840F09585394B0B
:10AE30001B78002B40F0908509238BF8003029F017
:10AE4000A7FE96E7364B1B78DB0700F12A87172011
:10AE500052F07CFA00288CD00C238BF800301BF0C9
:10AE60002FF90028C2D0FEF703BF132052F06EFA6C
:10AE70000028E4D02B4B1B88002BE0D12A4B452027
:10AE80001E681BF0F9F90E201BF0F6F9304629F088
:10AE900059FD484629F056FD244A254B12681A6090
:10AEA00048460A238BF800302FF0A4FDC7E71BF0BB
:10AEB00097F8204B052000210090A3F10802CDE96E
:10AEC0000111532029F09AFE00287FF452AF1A4A4C
:10AED000082310608BF8003084E71BF081F8174AD4
:10AEE0000292A2F10C03072101930091A2F1080341
:10AEF0000021143A472029F081FE00287FF439AF61
:10AF00000D4B00224FF0FF311A60072259608BF879
:10AF1000002067E7256C0020246C0020176C0020BF
:10AF200056AA00203C6A0020386A00202C6A0020C3
:10AF3000286A0020C0630608486A00207863060873
:10AF4000D4C600201BF04CF89E4B93ED000A59F03C
:10AF500005FE9D4B93ED000A824659F0FFFD0690D9
:10AF600040201BF00DF800287FF403AFDFF8649257
:10AF7000964BD9F800205B786D2A00F2DA86DFE87C
:10AF800012F0D309E009D909010AFB09F309EB0919
:10AF90004C0A450A3E0A370A270A200A180A0E0AEE
:10AFA000710B620B5B0B540B4E0B440B3A0B300BCB
:10AFB000260B190B8E0A810A740A690A5E0A530A63
:10AFC000FD0CF30CE40CDA0CD00CC60CBD0C540CCC
:10AFD0004A0C400C370C2E0C250C1B0C110C070CCA
:10AFE000FD0BF40BEB0BE20BDA0BD20BC90BC00B16
:10AFF000B70BAC0BA30B9A0B910B880B800B780B48
:10B00000C609BE09B709B009A909A2099B09930994
:10B010008C0985097D0975096D090009F908F2088F
:10B02000EB08E408DD08D608CF08C808C108BA084C
:10B03000A708A008990892088C0885087E08770858
:10B040007008690862085B0854084D084708400802
:10B050003808300826081E0814080A08FC071720BC
:10B0600052F074F900287FF4FAAE01238BF8003017
:10B07000B8E61AF0B5FF564B022000210090A3F16C
:10B080000802CDE90111482029F0B8FD00287FF41D
:10B0900070AE504B4FF0FF310622186059608BF8AC
:10B0A00000209FE61AF09CFF4B4A0292A2F10C038B
:10B0B000312101930091A2F10A035021163A49204F
:10B0C00029F09CFD00287FF454AE059B1B681906EF
:10B0D0007FF516AF3F4B4FF0FF31052218605960E6
:10B0E0008BF800207EE6DFF8EC901AF079FF3B4AFF
:10B0F000D9F80430126864339342BFF43AAE40206A
:10B100001AF03EFF00287FF434AED9F80030344EF8
:10B110004FF0400A0DE01BF0AFF83268D9F800306C
:10B12000013A0133BAF1010A3260C9F8003000F087
:10B13000FC862C4A134493F828301846002BEAD199
:10B1400000234FF0FF32C9F800300423C9F804206F
:10B150008BF8003046E6022B00F099841F4B1D4A05
:10B160001B6853601E490023136003220B608BF899
:10B17000002037E6B8F9003000EE103A5046B8EE3D
:10B18000C00AFDF799FBB8F90230D4F8A8B000EE78
:10B19000103A0AF10100B8EEC00AC0B2FDF78CFB0C
:10B1A0000AF1020A4BF00303C4F8A8305FFA8AFAE6
:10B1B000A2E4B7F914A0FFF737B90B4B0593FEF7DC
:10B1C0006EBC00BFACC60020D0C600208018012095
:10B1D0005C630608486A00201E610608D01301203F
:10B1E000A45A002090600608241D01208C4A127881
:10B1F000501E002A00F07F83DFF83CA2DFED896A51
:10B200000AEB800EDEED005AF4EEE65AF1EE10FA8B
:10B2100098BFF0EE656AA2F1020E002862D00AEB38
:10B220008E00D0ED005AF4EEE56AF1EE10FA88BF18
:10B23000F0EE656AD01EBEF1000F53D00AEB800E0F
:10B24000DEED005AF4EEE56AF1EE10FA88BFF0EE9A
:10B25000656AA2F1040E002844D00AEB8E00D0EDFE
:10B26000005AF4EEE56AF1EE10FA88BFF0EE656A76
:10B27000501FBEF1000F35D00AEB800EDEED005AF4
:10B28000F4EEE56AF1EE10FA88BFF0EE656AA2F11D
:10B29000060E38B30AEB8E00D0ED005AF4EEE56AE4
:10B2A000F1EE10FA88BFF0EE656AD01FBEF1000F14
:10B2B00018D00AEB800EDEED005AF4EEE56AF1EEEE
:10B2C00010FAA2F1080288BFF0EE656A50B10AEBED
:10B2D0008202D2ED005AF4EEE56AF1EE10FA88BF70
:10B2E000F0EE656AC1ED006AFEF7F3BF9FED4E6AAE
:10B2F000FFF734B8DFED4D4A4D4BDFED4E7A66EE89
:10B30000244AFDEEE55AFDEEE44A15EE902ABDEE24
:10B31000C44A5A8014EE902AFDEEE66A1A8014EEB2
:10B32000102A9A8016EE902ADA80FEF787BDB8F9C7
:10B33000023000EE103A50460AF10103B8EEC00A9E
:10B340005FFA83FAFDF7B8FAFFF7E8BBB8F9043003
:10B3500000EE103A50460AF10103B8EEC00A5FFA57
:10B3600083FAFDF7A9FAFFF7E2BBB8F9063000EE61
:10B37000103A50460AF10103B8EEC00A5FFA83FAA8
:10B38000FDF79AFAFFF7DCBBB8F9083000EE103A87
:10B3900050460AF10103B8EEC00A5FFA83FAFDF7DE
:10B3A0008BFAFFF7D6BBB8F90A3000EE103A5046D8
:10B3B0000AF10103B8EEC00A5FFA83FAFDF77CFADE
:10B3C000FFF7D0BBB8F9003000EE103A50460AF152
:10B3D0000103B8EEC00A5FFA83FAFDF76DFAFFF7D2
:10B3E00094BBB8F90C3000EE103A50460AF1010354
:10B3F000B8EEC00A5FFA83FAFDF75EFAFFF7BBBB4F
:10B40000B8F90E3000EE103A50460AF10103B8EEDA
:10B41000C00A5FFA83FAFDF74FFAFFF7B5BB00BF2A
:10B4200078A1002000401C460000000000007A4483
:10B4300084ED002000004042DCD20020D3ED016A00
:10B4400093ED027AD3ED037A64EEA66AE4EE076A1E
:10B45000E5EE276AF5EEC06AF1EE10FA00F15282CD
:10B4600066EE266AF7EE007AF4EEE76AF1EE10FA7D
:10B4700088BFF0EE676AF0EE637AE2EEA67ADA4908
:10B48000F4EEE75AF1EE10FA9ABFB3EE047A77EED3
:10B49000C77AF0EE437A012AC1ED007A3EF4ADABF3
:10B4A000D3ED057AD3ED066A93ED077A64EEA77AB9
:10B4B000E4EE267AE5EE077AF5EEC07AF1EE10FAC0
:10B4C00000F1368266EE277AB7EE007AF4EEC77A9C
:10B4D000F1EE10FA88BFF0EE477AB0EE637AA2EE92
:10B4E000A77AF0EE477AF4EEE75AF1EE10FA9ABF37
:10B4F000B3EE047A77EEC77AF0EE437A022AC1ED12
:10B50000017A3EF47AABD3ED097AD3ED0A6A93ED72
:10B510000B7A64EEA77AE4EE267AE5EE077AF5EE8A
:10B52000C07AF1EE10FA00F1208266EE277AB7EECB
:10B53000007AF4EEC77AF1EE10FA88BFF0EE477A9F
:10B54000B0EE637AA2EEA77AF0EE477AF4EEE75A0D
:10B55000F1EE10FA9ABFB3EE047A77EEC77AF0EE06
:10B56000437A032AC1ED027A3EF447ABD3ED0D7A5C
:10B57000D3ED0E6A93ED0F7A64EEA77AE4EE267AA5
:10B58000E5EE077AF5EEC07AF1EE10FA00F10182ED
:10B5900066EE277AB7EE007AF4EEC77AF1EE10FA8B
:10B5A00088BFF0EE477AB0EE637AA2EEA77AF0EEAB
:10B5B000477AF4EEE75AF1EE10FA9ABFB3EE047A46
:10B5C00077EEC77AF0EE437A042AC1ED037A3EF4AF
:10B5D00014ABD3ED117AD3ED126A93ED137A64EEC6
:10B5E000A77AE4EE267AE5EE077AF5EEC07AF1EE78
:10B5F00010FA00F1F28166EE277AB7EE007AF4EEE7
:10B60000C77AF1EE10FA88BFF0EE477AB0EE637AAF
:10B61000A2EEA77AF0EE477AF4EEE75AF1EE10FACE
:10B620009ABFB3EE047A77EEC77AF0EE437A052A32
:10B63000C1ED047A3EF4E1AAD3ED157AD3ED166A92
:10B6400093ED177A64EEA77AE4EE267AE5EE077AB0
:10B65000F5EEC07AF1EE10FA00F1D38166EE277AAA
:10B66000B7EE007AF4EEC77AF1EE10FA88BFF0EE8A
:10B67000477AB0EE637AA2EEA77AF0EE477AF4EE5C
:10B68000E75AF1EE10FA9ABFB3EE047A77EEC77A72
:10B69000F0EE437A062AC1ED057A3EF4AEAAD3ED68
:10B6A000197AD3ED1A6A93ED1B7A64EEA77AE4EE69
:10B6B000267AE5EE077AF5EEC07AF1EE10FA00F19F
:10B6C000B48166EE277AB7EE007AF4EEC77AF1EE2F
:10B6D00010FA88BFF0EE477AB0EE637AA2EEA77A4E
:10B6E000F0EE477AF4EEE75AF1EE10FA9ABFB3EEB5
:10B6F000047A77EEC77AF0EE437A072AC1ED067A2C
:10B700003EF47BAA93ED1D7AD3ED1E6AD3ED1F7A2A
:10B7100024EE877AA4EE267AA5EE277AB5EEC07AD3
:10B72000F1EE10FA00F1AB8266EE077AB7EE007A1E
:10B73000F4EEC77AF1EE10FA88BFF0EE477AE2EE47
:10B74000A73AF0EE637AF4EEE75AF1EE10FA9CBFF6
:10B75000B3EE043A37EEC33AFFF764B9234B2449FA
:10B76000D3ED007A234A244B91ED007AC3ED007AA1
:10B770001278224B83ED007A002A00F0888077EE61
:10B78000676A1F4B1F49C3ED006ABCF1FF3FC1ED63
:10B79000007A00F08D80DFF870C0C4F894904FF00C
