:020000040800F2
:10000000F0FF0010ADA3040825E500080D24040846
:1000100049A4040849A4040849A4040800000000F5
:1000200000000000000000000000000031E50008B2
:100030002DE500080000000029E50008311B040838
:1000400049A4040849A4040849A4040849A40408CC
:1000500049A4040849A40408D5290408152B040858
:10006000D52A0408952A0408552A0408AD820408F4
:100070009D8204088D8204087D8204086982040838
:10008000558204084182040849A4040849A40408CC
:1000900049A4040849A4040849A40408152A04082A
:1000A00049A4040849A404081512040849A4040832
:1000B00049A4040865120408551204087D94040834
:1000C00085940408719404087994040849A40408E8
:1000D00049A40408451D040849A40408A91C0408EF
:1000E0009529040849A404080D21010849A404081D
:1000F0002512040849A40408351204082D820408B6
:1001000049A4040849A404084512040849A40408A1
:100110000D1C040849A4040811620308FD610308CA
:100120001982040805820408F1810408DD810408AD
:10013000C981040849A4040849A4040849A404087E
:1001400049A4040849A4040849A404083510010876
:10015000B5810408A18104088D810408711B04087D
:10016000699404086D94040849A4040849A4040887
:1001700049A4040849A4040849A4040849A404089B
:0801800049A4040849A4040885
:080188005C9F0400010000006F
:1001900003010A00AC790020387A0020000000003A
:1001A000080700081302030094340020447A00205A
:1001B000000000001207000804008000545C0020CA
:1001C000487A00200000000000000000230010001A
:1001D0002C5C0020C87A002000000000E9BD010866
:1001E0000D003C002C5B0020D87A002000000000AD
:1001F0002D73030813000400785A0020147B00209C
:100200000000000018070008F6210C007C5A0020AE
:10021000187B0020000000001C070008F531740066
:10022000B0590020247B002000000000693C010838
:100230000B3014009C590020987B00200000000027
:10024000280700080101040098590020AC7B002019
:10025000000000000000000000010400945900208C
:10026000B07B0020000000003C07000802010300F2
:1002700090590020B47B0020000000006DCB0208E4
:10028000FD0124005C590020B87B00200000000024
:10029000D1F303080610180094640020DC7B0020D2
:1002A00000000000113D0208FB010100545900202C
:1002B000F47B00200000000009170408FC0109007D
:1002C00020580020F87B00200000000019170408C7
:1002D00002000C00EC570020047C0020000000000D
:1002E000000000000A603600C43D0020107C0020A1
:1002F00000000000400700083400100018570020DC
:10030000487C002000000000E53C020811020800C3
:10031000F0560020587C00200000000076070008FE
:1003200012120400E8560020607C0020000000004B
:100330007E07000818202C00BC560020647C00209A
:10034000000000007100040812200D0094560020E7
:10035000907C00200000000082070008F9010400E2
:100360009C4B0020A07C00200000000049F4030802
:1003700018020200984B0020A47C0020000000001E
:100380000000000017020B008C4B0020A87C00200E
:100390000000000061F80308FA010200684B002029
:1003A000B47C002000000000F1F903080202030001
:1003B000B8350020B87C00200000000000000000DC
:1003C0000C020300A4350020BC7C002000000000CB
:1003D000FDF8030811000C00F43F0020C07C002051
:1003E0000000000075700308FE0109007C64002015
:1003F000CC7C002000000000E9F80308090201009D
:1004000000EA002068EA00200000000090070008D1
:100410000C20B40002E400206CEA00200000000080
:100420003DCB02080102050098E3002020EB0020EC
:1004300000000000F12C01080002050090E30020FC
:1004400028EB002000000000000000001B02080054
:100450006CE3002030EB0020000000000DF90308E1
:1004600001200800F0E8002038EB00200000000028
:10047000920700081900050070E9002040EB0020F9
:10048000000000009A07000837001E0048E900201D
:1004900048EB002000000000A00700081E00050037
:1004A0004CE1002068EB002000000000BE070008BF
:1004B0001B00F400ECCE002070EB002000000000D8
:1004C000013D01080E02020080E8002064EC0020DB
:1004D00000000000C40700082F00110020EA0020DF
:1004E00068EC002000000000C607000805100600A8
:1004F00060EA00207CEC002000000000D807000823
:1005000026000E0094EC002084EC00200000000087
:100510005D2401081F201C00D4E00020C8EC00204E
:1005200000000000DE07000805020400BCE4002013
:10053000E4EC002000000000FA0700082C00100086
:1005400068F8002058F80020000000000DCB0108DA
:100550002B0024009CF8002078F800200000000008
:10056000E1CA01082910780068F70020C0F80020CF
:1005700000000000000000002810100048F90020D2
:1005800038F9002000000000D5BD01081400040067
:10059000F0F6002058F9002000000000FE070008D7
:1005A0001010030058F500205CF900200000000046
:1005B00002080008F821060050F5002060F900202C
:1005C00000000000060800080E8062017CED00209B
:1005D00068F90020000000008D3C02081A000E009F
:1005E0003001012038030120000000000C08000841
:1005F00003123300C6FB00200203012000000000AC
:100600001A080008250096005CFC00206C020120FE
:10061000000000000000000015007000D0FA00206B
:10062000FC01012000000000000000002A00600022
:10063000FCFB00209C01012000000000653C02083A
:1006400007020200400B0120740B01200000000093
:100650004E08000806020C00180B0120780B012040
:1006600000000000C5FC0308081209009C0A0120D4
:10067000840B012000000000B1F80308F701060018
:10068000920A0120900B0120000000005008000891
:100690000A020A000C0A0120980B01200000000049
:1006A000560800080300010034050120A40B0120B6
:1006B000000000000000000016000800DC0E012011
:1006C0006C0F012000000000600800081A023C00C6
:1006D000A80F0120FC1901200000000035FE0308CE
:1006E0002700040068390120381A012000000000AA
:1006F00068080008100201007839012074390120CF
:08070000000000006C08000875
:10070800040101006C160000000000000000000059
:100718000800401000000000010000000202000074
:100728002B21231E64000200000001000A01290099
:10073800230A0000900100000030010000000000C2
:100748007300730069000000000000000000000052
:10075800000000000000020000019E077D00FA0072
:1007680096005802B80BB80BB80B2000C40900005B
:10077800000001010101FFFFFFFF00000001000070
:1007880005524F53440000003600E8036400040A91
:10079800000100002801000020003200C800D00736
:1007A8009600140032002800B004400600055000EE
:1007B80014000F0008010000010000000000000004
:1007C8000000000000000000000000000000000021
:1007D80020000301000000000000000100000005E7
:1007E80000000102030000000000000000000000FB
:1007F8000000000000001A0000460005000001018A
:10080800F40114007E05EA05B4050300E803D007E7
:1008180000000000000000000000000000000000D0
:1008280000000000000000000000000000000000C0
:1008380000000000000000000000000000000000B0
:10084800000000000100013C24000100000000003D
:100858004A01B400D6010000C4090700B4012828E1
:05086800200300000068
:10086D000403090412010002EF0201408304563211
:10087D000002010203010000120100020202004009
:10088D008304405700020102030100000902200009
:10089D00010104C0320904000002080650050705D5
:1008AD0081024000000705010240000009026400BA
:1008BD00030100C0320904000001030000000921FA
:1008CD00110100012226000705830308000A080B09
:1008DD0001020202010009040100010202010005EA
:1008ED00240010010524010002042402020524063F
:1008FD000102070582030800FF09040200020A0035
:10090D0000000705010240000007058102400000BC
:10091D0009024300020100C0320904000001020275
:10092D000100052400100105240100010424020228
:10093D000524060001070582030800FF09040100D4
:10094D00020A0000000705010240000007058102B0
:10095D0040000000FF00000000FFFF00000000004D
:10096D00AA55050100000800010100000501090557
:10097D00A101A100050109300931093209330935F9
:10098D000934094009381581257F750895088102BC
:10099D00C0C0000009022200010100E0320904007C
:1009AD0000010301020009211101000122260007A7
:1009BD0005830308000A0000858700088187000869
:1009CD007D870008718700086D870008798700080A
:1009DD0075870008006002401060024000000000B2
:1009ED0000000000000B00000000000000000000EF
:1009FD00000000000060024028600240010000007D
:100A0D0000000000060C00000000000000000000C7
:100A1D000000000000600240406002400200000043
:100A2D0000000000100D000000000000000000009C
:100A3D00000000000060024058600240030000000A
:100A4D0000000000160E0000000000000000000075
:100A5D0000000000006002407060024004000000D1
:100A6D0000000000200F000000000000000000004A
:100A7D000000000000600240886002400500000098
:100A8D000000000026100000000000000000000023
:100A9D000000000000600240A0600240060000005F
:100AAD0000000000301100000000000000000000F8
:100ABD000000000000600240B86002400700000026
:100ACD0000000000362F00000000000000000000B4
:100ADD0000000000006402401064024000000000AD
:100AED0000000000003800000000000000000000C1
:100AFD000000000000640240286402400100000074
:100B0D000000000006390000000000000000000099
:100B1D00000000000064024040640240020000003A
:100B2D0000000000103A000000000000000000006E
:100B3D000000000000640240586402400300000001
:100B4D0000000000163B0000000000000000000047
:100B5D0000000000006402407064024004000000C8
:100B6D0000000000203C000000000000000000001C
:100B7D00000000000064024088640240050000008F
:100B8D0000000000264400000000000000000000EE
:100B9D000000000000640240A06402400600000056
:100BAD0000000000304500000000000000000000C3
:100BBD000000000000640240B8640240070000001D
:100BCD00000000003646000000000000000000009C
:100BDD0000000000000000000102030401020304F4
:100BED000607080951EF00082DF70008A5F20008C7
:100BFD0081880008CD8A000891880008AD8800081A
:100C0D005988000849880008000000000000000015
:100C1D002D202D2D202D2D2D2D202D2D2D2D000078
:100C2D00000000000000000000000000000000AA0D
:100C3D00550B010000AA5507010000AA5509020035
:100C4D000000000001000000C012AA5503009F0023
:100C5D000100000000000100E0010108480400202F
:100C6D0004000000A4EC0020000000000000803F04
:100C7D000000803F000000000000000000000000A8
:100C8D000000000000000000000000000000000057
:100C9D000000000000000000FFFF0000FF1FFF1F0D
:100CAD0001000000FFFFFFFF000200051002700BA6
:100CBD0001010100D9B4010800000000C8050020A1
:100CCD00B83A050800000000000000000000000018
:100CDD0000000000181C05080000000000000000C6
:100CED004C060020040000003C3A05080D000000F1
:100CFD007DCE0108282A002000000000B83005082C
:100D0D000D000000A5CE01081C2A002000000000E7
:100D1D00883205080800000000000000102A00209D
:100D2D0004000000243105080D00000081B5010804
:100D3D00042A002000000000E03105080300000037
:100D4D003DD10108F829002000000000C83A05082F
:100D5D00030000003DD10108EC2900200000000037
:100D6D00182C050801000000000000000000000024
:100D7D0000000000000000000E0000000000000058
:100D8D000000000000000000B83A05080000000057
:100D9D00000000000000000000000000181C050805
:100DAD0000000000000000004C06002004000000C0
:100DBD00E839050803000000A1CC0108E029002056
:100DCD0008000000243105080D00000081B5010860
:100DDD00042A002000000000E03105080300000097
:100DED003DD10108F829002000000000C83A05088F
:100DFD00030000003DD10108EC2900200000000097
:100E0D00182C050801000000000000000000000083
:100E1D0000000000000000000E00000000000000B7
:100E2D000000000000000000D03A0508000000009E
:100E3D00000000000000000000000000181C050864
:100E4D0000000000000000004C060020040000001F
:100E5D00F0390508030000003DD10108342A0020B7
:100E6D0000000000182C0508010000000000000023
:100E7D000000000000000000000000000E00000057
:100E8D0000000000000000000000000020700020A5
:100E9D00702D720001000000000000000000000035
:100EAD009C250020000101010001D6012D202D2DD2
:100EBD00202D2D2D2D202D2D2D00000000000000AA
:100ECD00000000000000000000000000FFFFFFFF19
:100EDD00FA000000010000000100000066EF002094
:100EED000000F4010100000064EF00200000F40197
:100EFD000100000062EF00200000F401010000007D
:100F0D0060EF00200000F401010000005EEF002002
:100F1D000000F401010000005CEF00200000F4016E
:100F2D00010000005AEF00200000F4010100000054
:100F3D008C2B0508000000000000000000000000E0
:100F4D0000000000A42B05080000000000000000B8
:100F5D000000000000000000C42B05080800000080
:100F6D0000000000C406002000000000D02B050882
:100F7D000800000000000000B8060020000000007E
:100F8D00DC2B05080800000000000000AC06002066
:100F9D00000000009C36050808000000000000005D
:100FAD00A006002000000000E82B05080800000046
:100FBD00000000009406002000000000F42B05083E
:100FCD00080000000000000088060020000000005E
:100FDD00002C050808000000000000007C06002021
:100FED00000000000C2C0508020000002DD30108A4
:100FFD000200000000000000182C05080100000090
:10100D0000000000000000000000000000000000D3
:10101D000E000000000000000000000000000000B5
:10102D007DBC01083DBC0108D006002058EF002012
:10103D000532010056EF0020E803D0070100000043
:10104D0054EF0020E803D0070100000052EF00200C
:10105D00E803D0070100000050EF00201E00B80B80
:10106D00010000004EEF00201E00F4010100000001
:10107D004CEF002014006400010000004AEF002036
:10108D000000C80001000000202C0508282C0508D0
:10109D00442C0508000000000000000000000000C6
:1010AD0000000000A42B0508000000000000000057
:1010BD0000000000000000008C1E05080800000064
:1010CD00000000001C08002000000000582C05083E
:1010DD0008000000000000001008002000000000C3
:1010ED006C2C05080800000000000000040800201A
:1010FD0000000000802C0508080000000000000022
:10110D00F807002000000000942C050808000000DE
:10111D0000000000EC07002000000000A42C0508D2
:10112D000800000000000000E007002000000000A3
:10113D00B42C05080800000000000000D4070020B2
:10114D0000000000C42C050807000000000000008E
:10115D00CC07002000000000D42C0508030000007F
:10116D003DD10108C0070020000000000C2C05082F
:10117D00020000002DD30108020000000000000055
:10118D00182C050801000000000000000000000000
:10119D0000000000000000000E0000000000000034
:1011AD000000000000000000042D050800000000F4
:1011BD00000000000000000000000000C72305082B
:1011CD000400000019CC0108000000000000000020
:1011DD00182C0508010000000000000000000000B0
:1011ED0000000000000000000E00000000000000E4
:1011FD000000000000000000F45C00200100C409A4
:10120D0000000000F25C00200100C4090000000095
:10121D00F05C00200100C40900000000EE5C00201D
:10122D000100C40900000000EA5C00200100C409AF
:10123D0000000000EC5C00200100C409000000006B
:10124D00E85C00200100C40900000000E65C0020FD
:10125D000100C409000000000CED00200000FFFF9C
:10126D000A0000000AED00200100C8000100000086
:10127D0008ED0020320030753200000007ED00202F
:10128D00055A050004ED002000FF010006ED0020C9
:10129D00010000002808002002ED002002000000DF
:1012AD0010DB040803ED002000FF010005ED002018
:1012BD00010000002808002001ED002002000000C0
:1012CD0010DB0408FCEC002080C1803E050000000E
:1012DD00FAEC002080C1803E05000000F8EC0020F3
:1012ED0080C1803E05000000F6EC002080C1803EEC
:1012FD0005000000F5EC002000FF0100F4EC0020DB
:10130D000A320100F3EC002004000000BCDC0408EC
:10131D00F2EC002002000000D0DC0408F9BB01084B
:10132D00B5BB0108300800206CEF0020EE02CA08A2
:10133D00010000006AEF002000C8010064000000F9
:10134D0069EF002000C801006400000068EF002074
:10135D0002000000DCDC04080000000000000000BA
:10136D0048090020F07900209CFF2C0100000000AE
:10137D00500400200A000000E8DC0408E8EC00201E
:10138D00E0150C17000000005204002008000000BA
:10139D00B8CE0408510400200500000028DE040822
:1013AD00EAEC00200200000000DD040878EF0020C8
:1013BD000100FF7F0100000077EF00200200000018
:1013CD000CDD0408F0EE00200000F4010100000027
:1013DD00EEEE00200000F40101000000ECEE002014
:1013ED000000F40101000000EAEE00200000F4010D
:1013FD000100000000EF00200100803E050000000C
:10140D00FCEE00200000803E64000000FAEE00209B
:10141D000000803E64000000F8EE00200000803ED9
:10142D0064000000FEEE0020030000020100000039
:10143D00F6EE0020C800E80301000000F4EE0020E5
:10144D001E00E80301000000F2EE00200000E8039A
:10145D0001000000E8EE00200000803E01000000C9
:10146D00E6EE00200000803E01000000E4EE0020CA
:10147D000000803E01000000E2EE00200000803EF2
:10148D0001000000E0EE00200000803E01000000A1
:10149D00DEEE00200000803E0100000031EF002054
:1014AD001964010035EF00200064010034EF0020C5
:1014BD000064010033EF00200A32010032EF0020FA
:1014CD00030000001CDD04082EEF0020E803D00708
:1014DD000A0000002CEF002000FA01000A000000B5
:1014ED002BEF002000FA01000A0000002AEF002077
:1014FD0000FA01000A00000019EF0020006401004D
:10150D0018EF00200064010020EF002000640100AE
:10151D000A0000001FEF0020006401000A00000017
:10152D001EEF0020006401000A00000023EF0020E0
:10153D00006401000A00000022EF00200064010099
:10154D000A00000021EF0020006401000A000000E5
:10155D001DEF002000FF01000A0000001CEF00201D
:10156D0000FF01000A0000001BEF002000FF01003A
:10157D000A00000029EF0020005F01000A000000B2
:10158D0028EF0020005F01000A00000027EF002077
:10159D00005F01000A00000026EF0020005F01003F
:1015AD000A00000025EF002019AF01000A0000001D
:1015BD0024EF002019AF01000A0000006AED0020A1
:1015CD00000A010069ED0020000A010068ED00200D
:1015DD00000A01007AED002000FA010079ED0020EB
:1015ED0000FA010078ED002000FA010076ED0020F0
:1015FD000000F4010100000074ED00200000F40172
:10160D000100000072ED00200000F4010100000057
:10161D0070ED00200000F401010000006EED0020CF
:10162D000000F401010000006CED00200000F40149
:10163D000100000016EF0020FF08010015EF00204B
:10164D000164010014EF00200064010013EF00207D
:10165D00010000002CDD040812EF002000C801007D
:10166D0010EF00200000D007010000000FEF002058
:10167D0000C801000EEF002000C801000DEF002092
:10168D0000C801000CEF002000C801000BEF002086
:10169D0000FA01000A00000008EF002000FA010026
:1016AD000A00000005EF002000FA01000A0000000A
:1016BD000AEF002000FA01000A00000007EF0020E9
:1016CD0000FA01000A00000004EF002000FA0100FA
:1016DD000A00000009EF002000FA01000A000000D6
:1016ED0006EF002000FA01000A00000003EF0020C1
:1016FD0000FA01000A00000038EF0020010A010085
:10170D0040EF002000FA01003EEF00200000E8034A
:10171D000500000049EF002000C8010048EF00203F
:10172D0000C8010047EF002000C8010046EF00206F
:10173D0000C8010045EF002000C8010044EF002063
:10174D0000C8010043EF002000C8010042EF002057
:10175D0000C8010041EF002000C801003CEF00204F
:10176D0000FA01003AEF00200000E8030500000038
:10177D0037EF002000640100482D0508000000002F
:10178D00000000000000000000000000D835050832
:10179D000900000000000000EC090020040000001A
:1017AD00F03505080900000000000000E0090020E8
:1017BD0004000000E83705080900000000000000E3
:1017CD00D409002004000000F01D050809000000E8
:1017DD0000000000C809002004000000582D050875
:1017ED000900000000000000BC09002004000000FA
:1017FD00602D05080900000000000000B009002060
:10180D0004000000682D050809000000000000001C
:10181D00A409002004000000702D05080900000037
:10182D00000000009809002004000000182C050895
:10183D00010000000000000000000000000000009A
:10184D00000000000E00000000000000000000007D
:10185D0000000000942F05080000000000000000AB
:10186D000000000000000000DC6A05080700000011
:10187D00000000001C0A002000000000A42F050835
:10188D000800000000000000100A00200000000009
:10189D00B02F05080800000000000000040A002019
:1018AD0000000000B82F050808000000000000002F
:1018BD00F8090020000000000C2C050802000000B3
:1018CD002DD301080100000000000000182C0508B0
:1018DD0001000000000000000000000000000000FA
:1018ED00000000000E0000000000000000000000DD
:1018FD0000000000C82F05080000000000000000D7
:10190D000000000000000000D82F05080D000000A9
:10191D0000000000580A002000000000E02F05081C
:10192D000D000000000000004C0A00200000000027
:10193D00E82F05080700000000000000440A002001
:10194D0000000000F02F05080D0000000000000051
:10195D00380A002000000000F82F05080D000000D7
:10196D00000000002C0A00200000000000300508D7
:10197D000700000000000000240A00200000000005
:10198D000C2C0508020000002DD3010801000000F9
:10199D0000000000182C05080100000000000000E8
:1019AD000000000000000000000000000E0000001C
:1019BD0000000000000000000000000008300508D5
:1019CD00000000000000000000000000000000000A
:1019DD00DC6A05080C000000000000000EED002080
:1019ED00000000001C3005080C0000000000000085
:1019FD0010ED0020000000002C3005080C00000048
:101A0D000000000046ED0020000000003C300508FD
:101A1D000C000000000000003AED00200000000066
:101A2D00503005080C0000000000000012ED0020F1
:101A3D00000000005C3005080C00000000000000F4
:101A4D0014ED002000000000643005080C000000BB
:101A5D000000000016ED00200000000078300508A1
:101A6D000C0000000000000018ED00200000000038
:101A7D00803005080C000000000000001AED002069
:101A8D0000000000883005080C0000000000000078
:101A9D0058ED002000000000A03005080C000000EB
:101AAD00000000001CED002000000000AC30050817
:101ABD000C000000000000001EED002000000000E2
:101ACD00483205080C0000000000000020ED002049
:101ADD0000000000B43005080C00000000000000FC
:101AED0022ED002000000000C03005080C000000B1
:101AFD000000000024ED002000000000CC3005089F
:101B0D000C0000000000000026ED00200000000089
:101B1D00D83005080C0000000000000028ED002062
:101B2D0000000000E43005080C000000000000007B
:101B3D002AED002000000000F03005080C00000028
:101B4D00000000003EED002000000000F830050808
:101B5D000C000000000000003CED00200000000023
:101B6D00003105080C000000000000004AED0020C7
:101B7D00000000000C3105080C0000000000000002
:101B8D004CED002000000000183105080C0000008D
:101B9D000000000052ED002000000000741F050839
:101BAD000C000000000000002CED002000000000E3
:101BBD00243105080C0000000000000034ED002069
:101BCD00000000002C3105080C0000000000000092
:101BDD002EED002000000000383105080C0000003B
:101BED000000000030ED0020000000004431050829
:101BFD000C0000000000000032ED0020000000008D
:101C0D004C3105080C0000000000000036ED0020EE
:101C1D0000000000641C05080C000000000000001E
:101C2D0040ED002000000000583105080C000000B8
:101C3D000000000038ED00200000000064310508B0
:101C4D000C0000000000000048ED00200000000026
:101C5D00703105080C0000000000000042ED00206E
:101C6D0000000000783105080C00000000000000A5
:101C7D0044ED002000000000803105080C0000003C
:101C8D00000000004EED0020000000008831050826
:101C9D000C0000000000000050ED002000000000CE
:101CAD00903105080C0000000000000060ED0020E0
:101CBD0000000000182C05080100000000000000C5
:101CCD000000000000000000000000000E000000F9
:101CDD000000000000000000000000009831050821
:101CED0000000000000000000000000000000000E7
:101CFD00A43105080D00000000000000B00A00200E
:101D0D0000000000AC3105080D00000000000000CF
:101D1D00A40A002000000000B431050807000000EF
:101D2D00000000009C0A002000000000C0310508E2
:101D3D000700000000000000940A002000000000D1
:101D4D00CC3105080900000000000000880A0020C1
:101D5D0000000000D8310508090000000000000057
:101D6D007C0A002000000000E43105080900000095
:101D7D0000000000700A002000000000F43105088A
:101D8D000900000000000000640A002000000000AF
:101D9D000C2C0508020000002DD3010801000000E5
:101DAD0000000000182C05080100000000000000D4
:101DBD000000000000000000000000000E00000008
:101DCD0000000000000000000000000008320508BF
:101DDD0000000000000000000000000000000000F6
:101DED00A42B05080000000000000000000000000A
:101DFD0000000000183205080D0000000000000072
:101E0D00EC0A002000000000243205080B00000041
:101E1D0000000000E00A002000000000303205083C
:101E2D000B00000000000000D40A0020000000009C
:101E3D00403205080800000000000000C80A00201C
:101E4D000000000054320508030000003DD10108D8
:101E5D00BC0A0020000000000C2C05080200000048
:101E6D002DD301080200000000000000182C050809
:101E7D000100000000000000000000000000000054
:101E8D00000000000E000000000000000000000037
:101E9D000000000060320508000000000000000096
:101EAD000000000000000000703205080500000071
:101EBD000000000067ED0020000000000C2C05085C
:101ECD00020000002DD301080100000000000000F9
:101EDD00182C0508010000000000000000000000A3
:101EED0000000000000000000E00000000000000D7
:101EFD00000000000000000078320508000000001E
:101F0D00000000000000000000000000181C050883
:101F1D000000000000000000B003002004000000DD
:101F2D00843205080D0000007DCC0108400B002017
:101F3D00000000003C3A05080D00000091B40108B6
:101F4D00340B002000000000B83005080D00000023
:101F5D0075B40108280B0020000000008832050828
:101F6D0008000000000000001C0B00200400000011
:101F7D00243105080D000000C1B30108100B00202D
:101F8D00000000009032050809000000000000006C
:101F9D00040B002004000000E031050803000000E0
:101FAD003DD10108F80A002000000000182C05089A
:101FBD000100000000000000000000000000000013
:101FCD00000000000E0000000000000000000000F6
:101FDD00000000009832050800000000000000001D
:101FED000000000000000000A83205080D000000F0
:101FFD0000000000580B002000000000B032050862
:10200D000A000000000000008CF20020000000001B
:10201D00BC3205080A0000000000000094F2002008
:10202D0000000000C43205080A0000000000000096
:10203D009CF2002000000000CC32050808000000D2
:10204D00000000004C0B002000000000D4320508F9
:10205D000400000071D20108000000000000000023
:10206D000C2C0508020000002DD301080100000012
:10207D0000000000182C0508010000000000000001
:10208D000000000000000000000000000E00000035
:10209D00000000000000000000000000E032050814
:1020AD000000000000000000000000000000000023
:1020BD00F43205080800000000000000300C00207C
:1020CD0000000000043305080800000000000000B7
:1020DD00240C002000000000143305080800000047
:1020ED0000000000180C002000000000243305083B
:1020FD0008000000000000000C0C00200000000093
:10210D00343305080800000000000000000C00201A
:10211D000000000044330508080000000000000026
:10212D00F40B0020000000005433050808000000E7
:10213D0000000000E80B00200000000060330508DF
:10214D000800000000000000DC0B00200000000073
:10215D00703305080800000000000000D00B0020BF
:10216D00000000008033050808000000000000009A
:10217D00C40B002000000000883305080800000093
:10218D0000000000B80B002000000000903305088F
:10219D000800000000000000AC0B00200000000053
:1021AD00983305080800000000000000A00B002077
:1021BD0000000000A033050808000000000000002A
:1021CD00940B002000000000B0330508080000004B
:1021DD0000000000880B002000000000BC33050843
:1021ED0008000000000000007C0B00200000000033
:1021FD00C83305080800000000000000700B002027
:10220D0000000000D43305080800000000000000A5
:10221D00640B0020000000000C2C050802000000DB
:10222D002DD301080100000000000000182C050846
:10223D000100000000000000000000000000000090
:10224D00000000000E000000000000000000000073
:10225D0000000000E0330508000000000000000051
:10226D002F06002000000000EC3305080B000000D5
:10227D0000000000500D002000000000FC33050898
:10228D000B00000000000000440D002000000000C5
:10229D00083405080B00000000000000380D002078
:1022AD0000000000183405080B00000000000000BD
:1022BD002C0D002000000000243405080B00000048
:1022CD0000000000200D002000000000383405083B
:1022DD000B00000000000000140D002000000000A5
:1022ED00483405080B00000000000000080D002018
:1022FD0000000000543405080B0000000000000031
:10230D00FC0C002000000000603405080B000000EC
:10231D0000000000F00C0020000000006C340508E7
:10232D000B00000000000000E40C00200000000085
:10233D00783405080B00000000000000D80C0020C8
:10234D0000000000843405080B00000000000000B0
:10235D00CC0C002000000000903405080B0000009C
:10236D0000000000C00C0020000000009C34050897
:10237D000B00000000000000B40C00200000000065
:10238D00A83405080B00000000000000A80C002078
:10239D0000000000B4340508070000000000000034
:1023AD00A00C002000000000BC3405080700000050
:1023BD0000000000980C002000000000C834050843
:1023CD000B000000000000008C0C0020000000003D
:1023DD00D43405080B00000000000000800C002024
:1023ED0000000000E03405080B00000000000000B4
:1023FD00740C002000000000EC34050808000000FB
:10240D0000000000680C002000000000FC340508EE
:10241D000D000000000000005C0C0020000000001A
:10242D000C3505080700000000000000540C0020CA
:10243D00000000001C35050807000000000000002A
:10244D004C0C0020000000002C3505080700000092
:10245D0000000000440C0020000000003C35050881
:10246D0007000000000000003C0C002000000000F0
:10247D000C2C0508020000002DD3010801000000FE
:10248D0000000000182C05080100000000000000ED
:10249D000000000000000000000000000E00000021
:1024AD00000000000000000000000000503505088D
:1024BD00000000000000000000000000000000000F
:1024CD00643505080800000000000000C80D00205C
:1024DD000000000074350508080000000000000031
:1024ED00BC0D002000000000843505080800000028
:1024FD0000000000B00D002000000000943505081C
:10250D000800000000000000A40D002000000000E5
:10251D00A43505080800000000000000980D0020FB
:10252D0000000000B835050808000000000000009C
:10253D008C0D002000000000C835050807000000C4
:10254D0000000000840D002000000000E0350508AB
:10255D0007000000000000007C0D002000000000BE
:10256D00F83505080700000000000000740D00207C
:10257D00000000000C3605080700000000000000F8
:10258D006C0D0020000000001C360508070000003F
:10259D0000000000640D002000000000303605082A
:1025AD0007000000000000005C0D0020000000008E
:1025BD000C2C0508020000002DD3010801000000BD
:1025CD0000000000182C05080100000000000000AC
:1025DD000000000000000000000000000E000000E0
:1025ED00000000000000000000000000403605085B
:1025FD0000000000000000002C060020000000007C
:10260D00503605080B000000000000008C0E002065
:10261D00000000005C3605080B0000000000000003
:10262D00800E002000000000683605080B00000039
:10263D0000000000740E0020000000007436050834
:10264D000B00000000000000680E002000000000DC
:10265D00803605080B000000000000005C0E002015
:10266D00000000008C3605080B0000000000000083
:10267D00500E002000000000983605080B000000E9
:10268D0000000000440E002000000000A4360508E4
:10269D000B00000000000000380E002000000000BC
:1026AD00B03605080B000000000000002C0E0020C5
:1026BD0000000000BC360508070000000000000007
:1026CD00240E002000000000C83605080700000099
:1026DD00000000001C0E002000000000D43605088C
:1026ED000700000000000000140E00200000000094
:1026FD00E436050807000000000000000C0E002065
:10270D0000000000F436050808000000000000007D
:10271D00000E002000000000FC3605080700000038
:10272D0000000000F80D002000000000083705082B
:10273D000D00000000000000EC0D00200000000066
:10274D00183705080700000000000000E40D002008
:10275D0000000000243705080700000000000000FD
:10276D00DC0D0020000000003437050806000000D5
:10277D0000000000D40D0020000000000C2C050806
:10278D00020000002DD30108010000000000000030
:10279D00182C0508010000000000000000000000DA
:1027AD0000000000000000000E000000000000000E
:1027BD000000000000000000443705080000000084
:1027CD00000000002C060020000000005C3705080A
:1027DD000700000000000000100F002000000000A6
:1027ED00683705080800000000000000040F0020F5
:1027FD00000000007437050807000000000000000D
:10280D00FC0E0020000000008037050807000000C6
:10281D0000000000F40E00200000000088370508BD
:10282D000700000000000000EC0E0020000000007A
:10283D00903705080700000000000000E40E00209E
:10284D0000000000783605080700000000000000B9
:10285D00DC0E002000000000843605080700000093
:10286D0000000000D40E0020000000009036050886
:10287D000700000000000000CC0E0020000000004A
:10288D00983705080700000000000000C40E002066
:10289D0000000000A0370508070000000000000040
:1028AD00BC0E002000000000A8370508070000003E
:1028BD0000000000B40E002000000000B037050835
:1028CD000800000000000000A80E0020000000001D
:1028DD00C03705080700000000000000A00E002012
:1028ED0000000000D03705080700000000000000C0
:1028FD00980E0020000000000C2C050802000000BE
:10290D002DD301080100000000000000182C05085F
:10291D0001000000000000000000000000000000A9
:10292D00000000000E00000000000000000000008C
:10293D000000000000000000BDB70108180F0020C6
:10294D0065ED00202C00000034DD040864ED00204E
:10295D0000C8010062ED0020E803D007010000006F
:10296D005245564F4C544F534400000000ED00208B
:10297D0000030100FFEC00200003010005B7010872
:10298D00DDB60108F40F0020A5B6010865B60108F3
:10299D009410002045B701082DB701085C110020E7
:1029AD00E9B50108A5B501087C140020EDBC0108AE
:1029BD00BDBC01086C150020D1B70108CDCE0108B2
:1029CD0034160020FDB30108000000009816002009
:1029DD004DD2010851BD01087417002051B90108ED
:1029ED00D5B801083C18002089BA0108D9BA0108E8
:1029FD00F419002017EF00200106010061B801084D
:102A0D00F9B701084C1C0020CDB90108FDCE010815
:102A1D008C1D00200DBB0108BDCF0108581F0020E3
:102A2D0002EF002001030100D83705080000000067
:102A3D00000000000000000000000000E437050861
:102A4D000800000000000000F4200020000000003D
:102A5D00EC3705080700000000000000EC20002006
:102A6D0000000000FC3705080D000000000000000C
:102A7D00E0200020000000000838050803000000D9
:102A8D003DD10108D4200020000000000C2C0508C9
:102A9D00020000002DD3010801000000000000001D
:102AAD00182C0508010000000000000000000000C7
:102ABD0000000000000000000E00000000000000FB
:102ACD0000000000000000001038050800000000A4
:102ADD000000000000000000000000002038050884
:102AED000A00000000000000E01A050800000000C8
:102AFD00283805080A00000000000000542B0508C6
:102B0D0000000000303805080A0000000000000039
:102B1D006EEF002000000000383805080A000000A4
:102B2D00000000000021002000000000182C050806
:102B3D000100000000000000000000000000000087
:102B4D00000000000E00000000000000000000006A
:102B5D0000000000403805080000000000000000E3
:102B6D0000000000000000004C38050803000000C4
:102B7D003DD101083421002000000000583805081F
:102B8D00030000003DD101082821002000000000B5
:102B9D0060380508030000003DD101081C2100200C
:102BAD000000000068380508050000000000000066
:102BBD00FEEC002000000000703805080700000042
:102BCD000000000014210020000000007C380508E2
:102BDD0007000000000000000C2100200000000094
:102BED000C2C0508020000002DD301080100000087
:102BFD0000000000182C0508010000000000000076
:102C0D000000000000000000000000000E000000A9
:102C1D0000000000000000000000000088380508DA
:102C2D000000000000000000000000000000000097
:102C3D009C380508030000003DD1010870210020DB
:102C4D0000000000A8380508030000003DD1010870
:102C5D005404002000000000B038050803000000F7
:102C6D003DD101086421002000000000B83805089E
:102C7D00030000003DD10108582100200000000094
:102C8D005C1E0508030000003DD101084C21002009
:102C9D000000000024310508030000003DD10108AB
:102CAD0040210020000000000C2C0508020000004F
:102CBD002DD301080100000000000000182C0508AC
:102CCD0001000000000000000000000000000000F6
:102CDD00000000000E0000000000000000000000D9
:102CED0000000000C43805080000000000000000CE
:102CFD000000000000000000D438050807000000A7
:102D0D0045D00108C0210020000000004831050811
:102D1D00030000003DD10108B42100200000000097
:102D2D00E0380508030000003DD10108A82100206E
:102D3D0000000000E8380508030000003DD101083F
:102D4D009C21002000000000F0380508070000005D
:102D5D0029D001089421002000000000101E050854
:102D6D00030000003DD10108882100200000000073
:102D7D00FC380508030000003DD101087C2100202E
:102D8D00000000000C2C0508020000002DD30108E6
:102D9D000100000000000000182C050801000000D3
:102DAD000000000000000000000000000000000016
:102DBD000E000000000000000000000000000000F8
:102DCD008DB701085DB70108C82100201DBD0108A0
:102DDD00000000006822002049B601082DB6010848
:102DED00F42200200000000000000000BC230020A1
:102DFD008DBB010861D00108842400200839050825
:102E0D0000000000000000000000000000000000B5
:102E1D00341C0508030000003DD101089025002059
:102E2D000000000014390508030000003DD1010821
:102E3D008425002000000000C41E050803000000CA
:102E4D003DD101087825002000000000203905083B
:102E5D00030000003DD101086C250020000000009A
:102E6D002C390508030000003DD101086025002024
:102E7D000000000034390508020000002DD30108C0
:102E8D0000000000000000000C2C050802000000EE
:102E9D002DD3010801000000000000003C39050899
:102EAD00020000002DD30108020000000000000008
:102EBD00000000000E0000000000000000000000F7
:102ECD0000000000EEEC002088136F1701000000D9
:102EDD00F0EC002088136F1700000000483905083A
:102EED0000000000000000000000000000000000D5
:102EFD005839050808000000000000007026002069
:102F0D0004000000643905080800000000000000FE
:102F1D006426002000000000E031050804000000D8
:102F2D00E1CC01080000000000000000182C05088D
:102F3D000100000000000000000000000000000083
:102F4D00000000000E000000000000000000000066
:102F5D0000000000ECEC002088136F17010000004A
:102F6D00307A002088136F170000000039B5010872
:102F7D00000000007C26002030F20020010000003F
:102F8D00E8DD0408327A002001000000F4DD0408B9
:102F9D00287A002002000000FCDD04082E3E0020EF
:102FAD0000000000000000002C3E0020000000008A
:102FBD00000000002A3E002000000000000000007C
:102FCD00283E00200000000000000000263E0020EA
:102FDD000000000000000000243E00200000000062
:102FED0000000000E80300200000000000000000C9
:102FFD00EBEC00200200000008DE0408A0390508F3
:10300D0000000000000000000000000000000000B3
:10301D0058390508080000000000000000270020B6
:10302D0004000000643905080800000000000000DD
:10303D00F426002000000000E03105080400000027
:10304D000DB501080000000000000000182C050857
:10305D000100000000000000000000000000000062
:10306D00000000000E000000000000000000000045
:10307D0000000000B039050800000000000000004D
:10308D000000000000000000C03905080D00000020
:10309D0021CE01083027002004000000CC3905089E
:1030AD000D0000005DB5010824270020040000007C
:1030BD00D83905080D000000E5CD010818270020BE
:1030CD0000000000E439050803000000C1CC010830
:1030DD000C27002008000000F0390508030000004F
:1030ED003DD10108342A002000000000182C0508ED
:1030FD0001000000000000000000000000000000C2
:10310D00000000000E0000000000000000000000A4
:10311D0000000000042D0508000000000000000064
:10312D000000000000000000C72305080400000097
:10313D00F9CC01080000000000000000182C050863
:10314D000100000000000000000000000000000071
:10315D00000000000E000000000000000000000054
:10316D0000000000443A05080000000000000000C7
:10317D000000000000000000045005080D000000D4
:10318D00000000009027002004000000543A0508BC
:10319D00080000000000000084270020040000004B
:1031AD00603A0508080000000000000078270020A4
:1031BD0004000000683A0508080000000000000047
:1031CD006C27002004000000703A0508080000007C
:1031DD00000000006027002004000000783A050878
:1031ED00080000000000000054270020040000002B
:1031FD00803A050808000000000000004827002064
:10320D0004000000883A05080800000000000000D6
:10321D003C27002004000000182C050801000000C8
:10322D000000000000000000000000000000000091
:10323D000E00000000000000000000000000000073
:10324D0025B50108000000009C27002000000000AB
:10325D000000000014280020000000000000000005
:10326D00B42800202E7A00200400000014DE04088B
:10327D002C7A0020E0150C17000000002B7A00209E
:10328D0008000000B8CE04082A7A002005000000CE
:10329D0028DE0408000000000000000004290020C2
:1032AD00FFFF00000000803F000000000000000054
:1032BD00000000000000803F000000000000000042
:1032CD00000000000000803F000000000000000032
:1032DD0000000000FFFFFFFF0000803FFF00000027
:1032ED009C060508050804000000000028DE0408FF
:1032FD00B8CE040814DE0408000000000000000031
:10330D00C806050805080A000000000028DE0408AC
:10331D00B8CE0408E8DC040800000000000000003E
:10332D00010102FFFF00000000000000840F0120DA
:10333D000800000000000000740F012008000000CC
:10334D00ED8E0008DD89000885F200080000000000
:10335D00458800081DEF0008A18E000891EE0008B9
:10336D00000000000000000001880008958700089B
:10337D0089870008D5E50008F1E5000881E500081A
:10338D00B9E500089DE50008A58E0008B98900087B
:10339D00D1F10008000000001988000895EE000822
:1033AD00758E0008EDED0008000000000000000023
:1033BD000D8800081A030000000000000000000046
:1033CD0000000000000000000000000000000000F0
:1033DD000403090412010002000000408304205779
:1033ED0000020102030100001D5A04084DF90308F3
:1033FD0049F9030845F903089924040841F903081C
:10340D003DF90308B0100508798F00089989000867
:10341D00E9EF00080000000000000000E1EC0008EA
:10342D0009ED000800000000000000000000000091
:10343D00F5870008E5F90308D9F903081501040813
:10344D003101040891F90308F9000408DD000408AE
:10345D000100000050010000070000000200000004
:10346D00FF000000082C00200000000000000000FC
:10347D00000000000000000000000000000000003F
:10348D00000000000000000000000000000000002F
:10349D00000000000000000000000000000000001F
:1034AD00000000000000000000000000000000000F
:1034BD0000000000000000000000000000000000FF
:0834CD000000000000000000F7
:108000002DE9F04F2DED108B034697B004331593F7
:10801000DFEDCACA149002238A4613928B4612934C
:10802000149C4FEADB0604EB461202EB061031010A
:10803000A6EB86034FEAC60806EB4605CDE900012C
:1080400000EBC303043108F10400119620442144DD
:108050002C01C6EBC60C0394EC00119D04944FEA6E
:10806000CC0405946C0106EB860E0294159D009CD1
:1080700003EB46174FEACE0E02EBC6064FEACB09DA
:108080004FF0000C51ED01AAD3ED001A92ED007AE9
:1080900094ED005A96ED004AD7ED007A15ED012ACD
:1080A00050ED016A32EE07BA76EE840A7AEE855A0E
:1080B00031EEA70A3BEE256A70EE804A76EEC46A7E
:1080C00036EE244A36EE646A05ED014A82ED006A16
:1080D000D0ED00BAD6ED012AD3ED019A95ED00AAB4
:1080E00092ED016A97ED013A91ED00CAD4ED014A93
:1080F0007BEEE23A36EEE19A32EE472A73EEE98AF7
:108100003AEE464A39EE279A78EE838AB0EE428AF2
:10811000A9EE6C8ADC44E24573EEC33AB0EE441A31
:10812000A8EEEC1A76EEE77A33EEA97A7CEE643AA2
:1081300077EEA17A3AEE066A7AEEC51A3CEE24AAE8
:1081400074EECC4A39EE833A35EE6A5AF0EE639A11
:10815000F0EE48AAE7EE2C9AA8EEAC4AE7EE2C4ADD
:10816000E7EE6CAAF0EE418AB0EE427AB0EE612AF8
:108170007BEE656A7BEEA22A76EE4A5AA9EE2C7A4D
:10818000A7EEAC2AA7EEAC5AE7EEEC8A32EE83BA41
:1081900076EEC3BA35EEE09A75EEC07A36EE0A6A2C
:1081A00076EEE26A36EE0BAA76EE836A77EEA07A76
:1081B00034EE423A77EE290A36EE4B6A7BEEA22A7B
:1081C00039EE000A73EEAA3A78EE244A37EE697A5D
:1081D00031EE055A71EEA85A32EE044A85ED00AA36
:1081E00082ED016A4D4441ED012A4A44C4ED006A22
:1081F00081ED000AC4ED017A494440ED010A4C4486
:1082000087ED007AC6ED003AC3ED004A80ED003AF2
:1082100087ED014A484486ED015A4F44C3ED015AA7
:108220004E444B443FF62EAF119B072B40F2C781C3
:10823000029D149E019B03980499059A08357519AF
:108240000C330E95354608F108080EF10804EB18BA
:1082500008300831083246442C1928186918AA1821
:10826000079305F10C030D960C940B900A9109925B
:1082700008934FF001084FF0000E129B9E44139B91
:1082800003EBCE0303EBCE02109302EBCE0303EB22
:10829000CE01029101EBCE0101EBCE0505EBCE063E
:1082A000D6ED007A0F93AEEB8E03019106EB03132C
:1082B00003EBCE07D3ED01AACDED067A019BD5EDF8
:1082C000007A97ED01BACDED057AD3ED007A029BE5
:1082D000CDED047AD3ED007A0F9BCDED037A07EB59
:1082E000CE0CD3ED007ADCED01BACDED027A0CEBC9
:1082F000CE01D2ED007A109A009101EBCE0001463A
:1083000091ED01DACDED017A0099D2ED007A91ED8F
:1083100001CA00EBCE0000EBCE0494ED01EAD0EDF3
:1083200001DACDED007ADDE90776DDE90954DDE912
:108330000B01DDE90D23C44602E000BFF304353F25
:1083400094ED009A90ED00FA91ED006AD5ED007A77
:10835000D3ED006A57ED014A92ED005A56ED013A0D
:1083600096ED00AA35EE060A73EEA65A39EE278A74
:1083700034EE8F7A70EE082A75EE87EA35EE465AAB
:108380003EEEA26A73EEE63A06ED016AD1ED019A7D
:10839000D2ED01FAD4ED016AD3ED011A95ED013A5F
:1083A000D0ED018A97ED004A3FEEE96A35EE491AB1
:1083B00076EE660A31EE271A3AEE612A75EE677A92
:1083C00070EE830A3FEEA95A74EECF9A77EE897A5F
:1083D0007AEE211AB0EE42AA74EE68FAA0EEECAA88
:1083E000DC44E24535EEC77AB0EE639A74EE285A63
:1083F00038EEC44AF0EE698AA1EE6C9AE7EEAC8AD8
:1084000036EE436A7FEE644A36EE266AA0EEAC2A68
:10841000F0EE4A0AE7EEEC0AE7EEAC4AF0EE687AD4
:10842000F0EE498A36EE833AE6EE6C8AE1EE2C3ABB
:10843000B0EE6F1AA6EE2C1A71EEE56AA6EE2C4A83
:1084400071EEA55A75EE031A7EEEE22A37EE43FA74
:1084500075EEE1EAB0EE686A76EEC08A39EE044A5B
:108460007FEE86FA76EEC86A33EE816A38EE888A45
:1084700073EEC13A37EE457A2CEE2E1A3FEE055ACE
:1084800022EECC9A9DED03FA70EE266A33EE077A5F
:10849000AFEE221AAFEE2E9A7AEE244A9DED01FA43
:1084A00079EEA09A25EE4BAA72EE670A37EE822A81
:1084B0006BEE087AAFEE08AAEFEE057A2DEEA63A3B
:1084C0009DED05FA67EE6D8AAFEE073AEFEE268A6C
:1084D00066EE6A2A9DED00FA2AEEA00AEFEE202A47
:1084E0006EEE02EADDED060A23EECE5AE0EEA3EAD6
:1084F0002BEEA98ADDED023AAFEE060AA3EE848ADE
:1085000024EE6B7A6DEE246A9DED044A2FEECD6A5F
:10851000A0EE825AA3EEA97AE4EE2F6AA4EE246AB2
:1085200075EEA15AC6ED005A83ED001A83ED019A4B
:108530004E4447ED017A87ED00AA4B4480ED003AA6
:10854000C0ED018A4F4482ED000A4844C2ED012A81
:10855000C5ED00EA85ED015A4A44C1ED006A81ED9E
:10856000016A4D4484ED008A84ED017A49444C440B
:108570003FF6E6AE0E9B08330E930D9B08330D932A
:108580000C9B08330C930B9B08330B930A9B08330B
:108590000A93099B08330993089B08330893079BA8
:1085A00008330793119B08F1010843457FF465AE3A
:1085B000129BDDF844B0DB009BB2129330E517B09C
:1085C000BDEC108BBDE8F08F074AD2E9003199422B
:1085D0001FBFD1180133097A01701DBFC3F30A030D
:1085E0000120136000207047682C0020064AD2F852
:1085F0000838D2F80C28934294BF4FF40060002052
:10860000013B9B1A18447047682C0020012380F816
:108610004D30704707B501A8FFF7D6FF0028FAD004
:108620009DF8040003B05DF804FB044BD3E900039C
:10863000984288BF03F50063181A7047682C002021
:1086400001207047024BC3F81028C3F81418704774
:10865000682C0020024BC3F81828C3F81C18704778
:10866000682C00207047704730B4124DD5E90023C4
:108670009A4286BF03F50064A21A9A1A0A44B2F518
:10868000006F11D899B101444A1E013810F8014F0A
:10869000E918824203F101030C72C3F30A03F5D116
:1086A0006B60002030BC7047022030BC7047084629
:1086B000F8E700BF682C0020212838B50C4605D00B
:1086C00022282ED0202813D0002038BD0029FBD02E
:1086D000072AF9D11A4BD3F8200893F8241893F8F5
:1086E000252893F82638206021716271A371EBE789
:1086F0000029E9D0072AE7D1114DD5F814381BB16C
:108700000968D5F810089847206821796279A3791B
:10871000C5F8200885F8241885F8252885F8263816
:10872000D2E70029D0D0022ACED1054AD2F81C388F
:10873000002BC9D00988D2F818089847C4E700BFB1
:10874000682C0020024B0020C3F82808704700BFA7
:10875000682C0020044B00200522C3F82828C3F809
:108760001C08C3F814087047682C0020704700BF2D
:10877000704700BF704700BF704700BF704700BF21
:10878000704700BF704700BF042301480B8070474B
:108790000000002010B4074A074B92F82C0812245E
:1087A00003F114020C8001280CBF184610465DF836
:1087B000044B7047682C00200400002010B40C4AC1
:1087C00092F82F3802EBC3010133DBB2042B4FF0D8
:1087D000050408BF00234FF4045081F8304882F8A4
:1087E0002F38C1F834085DF8044B4FF0FF30704764
:1087F000682C0020202301480B8070472C000020AB
:10880000642301480B8070474C000020432301483B
:108810000B807047B000002010B5084CD4F8F4006D
:10882000FF2809D00649D1F8502801F65401FFF776
:1088300043FFFF23C4F8F430002010BD00000020E7
:10884000682C0020E8E700BF08B5D0F8E4355B6A83
:108850009847002008BD00BF08B5D0F8E4351B6A72
:108860009847002008BD00BFD0F8E43510B5044695
:108870001B689847D4F8E8359B689847002010BDDE
:1088800008B5D0F8E435DB6903B19847002008BD8E
:1088900008B5042290F81211D0F8E83580F81311C9
:1088A00080F81221DB689847002008BD10B5D0F889
:1088B000E83504461B699847032384F812310020E9
:1088C00010BD00BF0B0617D401EB810300EBC303FF
:1088D00010B400EB81000124002283F8764383F872
:1088E000741383F87523426D5DF8044B136843F4E9
:1088F000001300201360704701F07F0101EB81033A
:1089000000EBC303012200EB810083F81C1183F804
:108910001E2183F81D2182691368002B01DA43F0C0
:10892000804343F400131360002070470B0630B4FB
:108930001CD401EB810200EBC202002300EB810595
:1089400082F8741382F8753301241A4604FA01F18F
:108950006D6D61F31F4201696FF3CF332B60CB69FB
:1089600023EA0203002030BCCB61704701F07F0195
:1089700001EB810400EBC404012200EB810500231C
:1089800084F81C1184F81D2102FA01F11A46AD6920
:1089900061F30F02DFE700BF10B581210446FFF746
:1089A000C5FF20460121FFF7C1FF024B002083F8DD
:1089B0005C0810BD682C002010B581210446FFF72B
:1089C000B5FF20460121FFF7B1FF82212046FFF7C6
:1089D000ADFFFFF7B7FE002010BD00BF38B50D4654
:1089E00004468321FFF7A2FF29462046FFF7E4FF54
:1089F000002038BDF0B416460A063AD401EB8105D2
:108A000000EBC5052824002204FB0104022B85F895
:108A10007413C5F87C6385F8773385F8752304F5FE
:108A20005D7448D0154600EB8107012202FA01F17E
:108A30007F6D61F31F45D7F800C01CF4004F11D1C2
:108A4000E488204946F0805242F4004242EA8342E0
:108A500004F00F041C4B42EA845211400CEA030359
:108A6000194339600269D3692B430020F0BCD361FC
:108A7000704701F07F0101EB810500EBC50528245B
:108A8000012204FB0104022B85F81C11C5F82461A6
:108A900085F81F31A5F8221185F81D2104F58E7483
:108AA0000CD0002500EB8107012202FA01F1BF6919
:108AB00061F30F05BFE722711546B4E70025257164
:108AC000F0E700BFFF87CC13007833EC002310B52C
:108AD000194604464022FFF78DFF802120460023DF
:108AE0004022FFF787FFD4F8E835A078012284F808
:108AF00012215B689847002010BD00BF82B00023A0
:108B0000016801930B6901930E4B03E00A6901921E
:108B1000013B13D0019A002AF8DA019A094B42F07E
:108B200001020192019A0A610A69019203E00A694D
:108B30000192013B02D0019AD207F8D4002002B082
:108B4000704700BF400D0300436D064A1A61C278AA
:108B5000012A06D100F2CC5058614FF080221968EA
:108B60001A6070471800086010B580210446FFF7AE
:108B7000A9FE20460021FFF7A5FE2046BDE81040D3
:108B8000E2E700BF70B44B78012B26D00B784A691E
:108B900000EB83035C6D25682369D2B18A684A6162
:108BA00002F07F0223F4002323F07F0342F400222B
:108BB00013432361C378012B04BF0B696361C5F3C1
:108BC000076363F07B0363F31F652560002070BCBF
:108BD00070478A6802F07F02E4E782694C69156891
:108BE000136944B38E68B4428CBF06F07F0404F06E
:108BF0007F0423F4002323F07F0344F4002443EA9A
:108C0000040388BF4E611361C378012B1DD0C5F3E7
:108C1000076464F07B0464F31F651560002BD5D1F5
:108C20004B69002BD2D002690878516B0123834035
:108C30000B435363CAE723F4002323F07F0343F479
:108C400000231361C378012BE1D10B780C6900EB91
:108C50008300C5F30763816963F07B0363F31F65DA
:108C60004C610020156070BC704700BF2DE9F043D7
:108C70004B78012B30D00B784C6900EB83035E6D91
:108C8000356837691CB38B681C44013CB4FBF3F4B2
:108C9000C4F3090203FB02F3C3F312034B6114464E
:108CA00043EAC44363F31C073761C378012B04BF55
:108CB0000B697361CB78012B44D0C5F3076363F074
:108CC0007B0363F31F6535600020BDE8F0838A688D
:108CD0000124C2F31203E3E791F800804E6900EB30
:108CE000880EDEF818C0DCF80050DCF8107076B39F
:108CF000D1F80890384A06EB0904013CB4FBF9F4BA
:108D000002EAC444C6F312022243CC7807F060475B
:108D10003A43012C174649D0CCF81020C278012ADA
:108D200055D00269516B03FA08F30B435363C5F343
:108D3000076363F07B0363F31F65CCF800500020EA
:108D4000BDE8F0834B7973B345F00055B5E707F004
:108D5000604747F40027CC78CCF81070C378012B1B
:108D60002FD0012CE3D102699268D20554BF45F09F
:108D7000005545F08055C5F3076262F07B0262F34F
:108D80001F65CCF80050002B9ED1B0B2033080108C
:108D9000DEF8D04098D0CA6852F8041B2160013335
:108DA0009842F9D190E745F0805586E764F35E7705
:108DB000CCF81070C378012BD5D10A69CCF81420F7
:108DC000D1E70A69CCF81420012CB0D1CBE70B69AC
:108DD000CCF81430ABE700BF0000F81F38B501EB4A
:108DE000810400EBC4040D46002184F87453C4F8D8
:108DF0008C1384F87513C4F88833C4F88023C378BF
:108E00002821012B01FB050108BFEDB201F55D71C1
:108E100008BFC4F884231DB9FFF7B4FE002038BD95
:108E2000FFF724FF002038BD70B5104BD3F8682839
:108E300093F8805804461AB193F86C382B430DD040
:108E400081212046FFF73EFD022D00D070BD204657
:108E5000074ABDE870401F230121BFE70121FFF74A
:108E600031FD20468121BDE870402BE5682C0020B3
:108E7000C834002010B501EB8101084A00EBC101A4
:108E80000446B1F88C131046FFF7EEFB034A204668
:108E900040230121FFF7A2FF002010BDEC34002089
:108EA000E8E700BF10B50223044640228121FFF706
:108EB000A1FD2046022340220121FFF79BFD8221D4
:108EC000204603230822FFF795FD064B02229A83D2
:108ED000FFF740FC044A204640230121FFF77EFFB4
:108EE000002010BD00000020EC34002038B508221E
:108EF0000D46044603238321FFF77CFD29462046C7
:108F0000FFF7D0FF002038BD82B000230193019A03
:108F1000094B42F010020192C168019A0A610A6984
:108F2000019203E00A690192013B02D0019AD20644
:108F3000F8D4002002B07047400D030082B0002337
:108F40000193019A0B4B42F020020192019A61F3C6
:108F50008A120192C168019A0A610A69019203E0CA
:108F60000A690192013B02D0019A9206F8D40020CE
:108F700002B07047400D030070B50446144EFFF771
:108F80000BFD2046022340228121FFF733FD4022C2
:108F9000012120460223FFF72DFDD6F8C438002515
:108FA0001B6886F85C58284686F880589847204603
:108FB000FFF7AAFF20460121FFF7C0FF204606F574
:108FC00006621F230121FFF709FF284670BD00BF7D
:108FD000682C00200E4BDA68D20310D4DA68D10670
:108FE0000FD4DA68D20510D4DA6812F0E00F0AD193
:108FF000DB6813F0020F14BF08200920704701201E
:10900000704706207047072070470220704700BF56
:10901000003C024030B1044B93F9C8080028D4BF8B
:1090200000200120704700BF682C002008B5FFF722
:10903000F1FF18B1024BD3F8CC380B8008BD00BF4C
:10904000682C002008B5FFF7E5FF18B1024B93F834
:10905000D0380B7008BD00BF682C002008B5FFF7A2
:10906000D9FF80B10B4BB3F8D23863B1192B0BD9B0
:10907000642B0BD9C82B0BD9B3F5C87F94BF03233E
:10908000042301330B7008BD0023FAE70123F8E73E
:109090000223F6E7682C002010B5FFF7BBFF48B1AC
:1090A000064B93F8D44834B993F8D5480C7093F82C
:1090B000D638137010BD0024F8E700BF682C0020DC
:1090C0000420704728B1034B93F9F800003818BF0B
:1090D000012070470000002008B5FFF7F3FF50B1F2
:1090E000054B93F9F820022A03BF93F8FB30C3F332
:1090F00040030B70002008BD0000002008B5FFF7FA
:10910000E1FF80B10C4A92F9FA3092F9F820012A75
:109110000ED1272B08DC182B08DC0F2BD4BF002323
:10912000012301330B7008BD0323FAE70223F8E79C
:109130000133DBB2F6E700BF0000002010B5FFF7F7
:10914000C1FFC0B10D4C94F8FB30DB0714D494F987
:10915000F930002BB8BF0733DB100133DBB20B70E3
:1091600094F9F930594201F0070103F0070358BFA1
:109170004B420133137010BD0023F0E700000020C4
:1091800003207047F0B5174AD2F8D85892F8D7386C
:1091900015F0005514BF042706275C1CB4FBF7F636
:1091A00007FB164692F8DC78BE420CD01EB2DB00FC
:1091B00055B102F50E652B4404F0030445F8360062
:1091C00082F8D7485960F0BD02F510652B4445F888
:1091D000360059600621B4FBF1F301FB134482F819
:1091E000D748F0E7682C0020002230B5044610462E
:1091F000914200DC30BDA35C0825584010F0800F80
:109200004FEA400318BF83F0D503013DD8B2F5D132
:109210000132EDE710B5E9B10F4C94F9F820CAB16D
:109220004B1EDBB2032B15D8012A0C4A0C484FEA1F
:10923000C30313444FF005010CBF1B799B7984F8DD
:109240000431FFF7D1FF062184F80501BDE8104085
:10925000034897E710BD00BF00000020F4C90408D0
:1092600000010020F8B58368054613B118689B8893
:1092700043836C68171DA3894FF6FF764FF47A730A
:109280000FE083B2A3814FF47A73B4F808C01CF0E6
:10929000010F03F1FF3019D0A08902F8010BBA4287
:1092A0000DD011F8010BB4F808C0013B1CF0020FFF
:1092B0009BB2E6D1B342F6D1204639F0D5FCAB687B
:1092C00013B11A689B8813830120F8BD83B2B3429F
:1092D000DBD1F1E770B5434CD4F8383906460BB111
:1092E0001D22DA801846092138F084FED4F83809A6
:1092F00039F026F894F83E39013B5BB2022BDBBF14
:10930000394A1B010020D058C4F834090223102127
:1093100084F830393CF07CFD40210A203CF0D0FF3D
:10932000FF218A203CF0CCFF94F83C39C0F3801236
:10933000012B84F83F2900F040003FD0022B2B4D39
:1093400046D0002B40D094F84039B5F80611D4F837
:1093500034091A2B01BFB5F80631A4F84629A4F840
:109360004839A4F844693CF053FDB5F80611D4F827
:1093700034093CF04DFDD4F8380938F0DBFF022108
:1093800000203CF09DFFD4F8380938F0D9FFD4F81C
:10939000340904213CF03CFD94F8512994F85239E9
:1093A00094F8501984F84C19C2F12002C3F110034B
:1093B00084F8532984F85439012070BD66B9082314
:1093C0000A4DA5F80631BEE71023A5F80631BAE725
:1093D0000823A5F80631B6E7002814BF0823102398
:1093E000EEE700BF682C00205005001000000020B0
:1093F000F8B51A4C94F85539002BFBD159B30144F8
:109400004E1E451ED4F80C28D4F8081815F8017F14
:10941000531CC3F30A038B422CBF4FF4006000209F
:10942000C91A224401440129C4F80C3882F8587939
:109430000FD1012038F01EFAD4F80838D4F80C18EF
:109440008B4294BF4FF4006200225B1A1344012B3D
:10945000EFD0B542D6D10020F8BD00BF682C002067
:1094600010B590F84C10002380F84C3079B10B4CBB
:10947000D4F828286AB1D4F82828052A0BD1084C3A
:109480003830236EFFF7B4FF236E012010BD01209A
:10949000FCE71046FAE71846F8E700BF682C002002
:1094A000603D0020002280F84D20D9E790F84C2044
:1094B000531C0244DBB280F84C3082F8381090F82C
:1094C0004D200AB1132B00D9CAE77047094B084653
:1094D000D3F8281810B559B1D3F82838052B07D17F
:1094E000054C002A236E03DD1146FFF781FF236E32
:1094F00010BD00BF682C0020603D00202DE9F04128
:109500002DED028B504BDFF864819FED508A504C5B
:10951000012882B015BFDA6ED3F87220B3F870302C
:10952000B3F87630ADF80430D8F8CC3614BF494ED5
:10953000494E009207EE903AB4FBF3F4F8EE677AE6
:10954000371FBDF800200D464449396027EE888A50
:109550007AB194420DD3002D63D0012D09D107EECD
:10956000902A19463E4B3B60B8EE670A30463AF007
:1095700033FFBDF802308BB19C420FD3002D3DD09C
:10958000012D0BD107EE903A354AD8F8CC163A6047
:10959000B8EE670A06F124003AF01EFFBDF8043069
:1095A0003BB39C4225D395B1012D22D107EE903AD1
:1095B0002B4AD8F8CC163A60B8EE670A06F1480094
:1095C00002B0BDEC028BBDE8F0413AF005BF07EEFA
:1095D000903ADFED246A244A3A60F8EEE77A0023F5
:1095E00086EEA77AB36477EE087A88EE277A86ED5E
:1095F000137A02B0BDEC028BBDE8F08107EE903A21
:10960000DFED186A184B3B60F8EEE77A002386EE30
:10961000A77A736277EE087A88EE277A86ED0A7A5F
:10962000BCE707EE902ADFED0F6A0F4B3B60F8EEC8
:10963000E77A002386EEA77A336077EE087A88EE21
:10964000277A86ED017A94E7603D0020BD378635A4
:1096500020A107003C060010AC060010EDF4030842
:1096600059F4030883F9223E85F0030850050010E1
:10967000F8B5124C0546D4F89C0090F834301E3BE7
:10968000012B02D9002138F0EBFB0D4F0026AE4232
:10969000D4F89C000BDB002138F0E2FB236EC4F809
:1096A000C030B4F8C4300133A4F8C430F8BD17F8A2
:1096B000011B38F0D5FB0136E9E700BF603D002013
:1096C000003E002070B5124C94F8DC3800EBC30269
:1096D0000D4650F8331050680E4A0023984212DCB1
:1096E0008B780D4A5B0882F8D830C2F8D400FFF7B7
:1096F000BFFF94F8DC180131B1FBF5F305FB131142
:1097000084F8DC1870BDCE5C02F8016B0133E5E72C
:10971000682C0020003E0020603D0020094890F8A1
:10972000D72890F8DC389A420BD0D0F8D8389B0074
:1097300003D5042100F50E60C4E7062100F5106092
:10974000C0E77047682C002038B50C46FFF7BAFC1C
:10975000054638B10E4B93F8FB20D20704D5B3F879
:10976000FC002080284638BD93F9F930594201F0B9
:10977000070103F0070258BF4A42002BB8BF073366
:10978000DB1001320133D1B2D8B20BF0B9FFE8E7F8
:10979000000000202DE9F047484E96F8D910044605
:1097A000C1F34001D6F8E00038F0D0FD96F8D910AA
:1097B000D6F8DC00C94301F0010138F0C7FD002CE8
:1097C00060D0671EDFF8F8A0FFB24FF001094FF03C
:1097D0000008D6F8E03033B11A689B8851690B4213
:1097E00014BF53831383D6F8DC3033B11A689B88D7
:1097F00051690B4214BF53831383B6F8E830002B32
:1098000042D196F8EA10D6F8EC0038F09FFDFA2520
:1098100037F0AEFF044637F0ABFF031BB3F57A7F9A
:10982000F9D3013DF4D1D6F8E03033B11A689B8802
:1098300051690B4214BF53831383D6F8DC3033B124
:109840001A689B8851690B4214BF53831383B6F87F
:10985000E83043BB96F8EA10D6F8EC0081F001013D
:1098600038F074FDFA2537F083FF044637F080FFA7
:10987000031BB3F57A7FF9D3013DF4D1013FFFB269
:10988000FF2FA6D1BDE8F087D6F80431002BBED05B
:10989000D6F8F020B6F80831BAFBF3F35B1013608A
:1098A00086F80191B3E7D6F80431002BDAD0D6F868
:1098B000F030C3F8008086F80181D3E7603D0020D6
:1098C00040420F002DE9F047464EDFF81CA196F804
:1098D000D910D6F8E000C1F3400138F037FD96F812
:1098E000D910D6F8DC00C94301F0010138F02EFD93
:1098F00005274FF001094FF00008D6F8E03033B1EA
:109900001A689B8851690B4214BF53831383D6F89E
:10991000DC3033B11A689B8851690B4214BF538302
:109920001383B6F8E830002B4DD196F8EA10D6F83C
:10993000EC0038F00BFD322537F01AFF044637F003
:1099400017FF031BB3F57A7FF9D3013DF4D1D6F8A5
:10995000E03033B11A689B8851690B4214BF5383BE
:109960001383D6F8DC3033B11A689B8851690B42F7
:1099700014BF53831383B6F8E830CBB996F8EA10D6
:10998000D6F8EC0081F0010138F0E0FC322537F028
:10999000EFFE044637F0ECFE031BB3F57A7FF9D3F4
:1099A000013DF4D1013F17F0FF07A6D1BDE8F087D4
:1099B000D6F80431002BE9D0D6F8F030C3F8008097
:1099C00086F80181E2E7D6F80431002BB3D0D6F84F
:1099D000F020B6F80831BAFBF3F35B10136086F899
:1099E0000191A8E7603D002040420F0000F01F02F7
:1099F00040090123032803FA02F304D004280CD001
:109A0000022805D07047074A116C0B431364704756
:109A1000044A516C0B4353647047024A116B0B4369
:109A2000136370470038024000285FD00368374A4C
:109A30002DE9F04103F13F4404F57E0402EB94224A
:109A4000012492F8202002F01F055209032A04FA8B
:109A500005F456D0042A4FD0022A48D08588B5FA9A
:109A600085F0C0F11F00C0F3CC0603EB860600F0C2
:109A7000070082000F24306A944020EA040030621C
:109A8000306A01FA02F20243002132624FF0010E05
:109A90000A464FF0030C02270EFA02F838EA0500D6
:109AA00002F101021CD118680CFA01F420EA04004A
:109AB0001860186807FA01F606431E609E6826EAD9
:109AC00004069E6098689860586820EA080058600C
:109AD00058685860D86820EA0400D860D868D86010
:109AE000102A01F10201D7D1BDE8F0817047084A80
:109AF000556C2C435464B1E7054A156B2C43146331
:109B0000ACE7034A156C2C431464A7E7F4C90408B6
:109B1000003802402DE9F04700230F6801264FF07E
:109B2000030C02E00133102B41D006FA03F232EAB3
:109B30000704F7D1D0F800E05C000CFA04F52EEA37
:109B4000050EC0F800E091F80490D0F800A009FAE2
:109B500004FE09F1FF394EEA0A0EB9F1010FA846D9
:109B6000C0F800E06FEA050515D8D0F808E005EA6E
:109B70000E0585604D79D0F808E0A54045EA0E0550
:109B80008560456825EA020242608A7945689A4004
:109B900092B22A434260C26822EA0802C260CA79CD
:109BA000C568A24001332A43102BC260BDD1BDE875
:109BB000F08700BF00487047CC3E00200C2910D829
:109BC000DFE801F0100F0F0F190F0F0F220F0F0F0B
:109BD0000700838B23F400631B041B0C43F4006316
:109BE00083837047038B23F008031B041B0C43F093
:109BF000080303837047038B23F400631B041B0CCF
:109C000043F4006303837047838B23F008031B0432
:109C10001B0C43F008038383704700BF204A03886E
:109C200090429BB212D002F5806290420ED0B0F109
:109C3000804F0BD0A2F58032904207D002F58062AF
:109C4000904203D002F58062904202D123F070036B
:109C50009BB2144A904216D002F58062904212D014
:109C600023F4407302F56C4230B49BB24D680C880B
:109C700003809042C56204850DD18B7A038601234F
:109C800030BC8382704703800B884A68C2620385B8
:109C9000012383827047044B9842EED0EFE700BF68
:109CA00000000140001000400004014010B53DF0EC
:109CB000E3FF0548D0F8F43D00F29621BDE81040DE
:109CC0001B6800F528701847603D00202DE9F04121
:109CD0008A4C94F8080E04F6FC5382B0C4F8F83DA0
:109CE00018B9002002B0BDE8F08137F06DFAC4F871
:109CF000040E20B1837913B1353B012BF1D894F8D0
:109D0000093E013B02225BB2934284F8FC2DE8DC61
:109D10007B4A1B01D358002BE3D0C4F8003E08B1A6
:109D20001A23C380092138F065F9D4F8F83D986802
:109D300038F006FBD4F8F83D102158683CF068F87C
:109D4000D4F8F83DC4F80C3E32209F23009337F03E
:109D500091FD002301AA6946D4F8F80D8DF805306D
:109D6000FFF780FA9DF806209DF805009DF8071082
:109D7000644B120242EA00420A439A4200F08A808F
:109D800074DC614B9A4229D03CDCA3F51A43033BB7
:109D90009A4200F09A8003F51A4302339A421AD18C
:109DA0005A4BC4F8143E4FF480304FF400014FF486
:109DB00080720023C4F8180EC4F81C1EA4F8202ECC
:109DC00084F8223E524BC4F8103E012084F8290E3C
:109DD00002B0BDE8F0814F4B9A4219D14FF00125F6
:109DE0004FF480304FF080714FF480720023C4F83C
:109DF000145EC4F8180EC4F81C1EA4F8202E84F8B3
:109E0000223EDFE7444B9A4267D001339A42C7D0E3
:109E1000002594F8080EA4F8145EA4F8205EC4F897
:109E2000185EC4F81C5E37F0CFF93C4E804616F839
:109E3000017B384637F0C8F9804558D001350B2DE5
:109E4000F5D194F8385E284637F0BEF980454CD0FD
:109E500094F8395E284637F0B7F9804508BF0121EC
:109E60007FF43FAF284638F0DAFE3AE72C4B134434
:109E7000042BCDD8042BCBD801A252F823F000BF7D
:109E8000CB9E0008DB9E0008A19D0008DD9D000818
:109E9000959E0008234BC4F8143E4FF000714FF418
:109EA00080334FF480750022C4F8183EC4F81C1E9D
:109EB0000123D4F80C0EA4F8205EB72184F8222EDA
:109EC00084F8283E3BF05CFC7CE7174BC4F8143E5A
:109ED0004FF480304FF4001169E7144BC4F8143E7E
:109EE0004FF480304FF4800161E70021BAE7384633
:109EF000294638F0A6FE0020F4E600BF603D0020B1
:109F0000500500101920C20018BA2000800000017E
:109F10001CCA0408186001001620C2008C4B0020E7
:109F2000EBBF10FF00020001200000014000000113
:109F30002DE9F041204D95F83F3E85F8D93005F6E2
:109F40003C6705F1DC0600244FF0050817F8010B0B
:109F500020BB30600134032C06F10406F6D195F8DD
:109F6000D910D5F8DC00C94301F0010138F0EEF951
:109F700095F8D910D5F8E00081F00201C1F3400155
:109F800038F0E4F995F8D910D5F8E40081F004012F
:109F9000BDE8F041C1F3800138F0D8B937F014F9C9
:109FA000013401213060E3B210B180F80680C37142
:109FB000306838F01FF8CEE7603D002099B10A6B99
:109FC000824216D9154BD3F86C2E914221D34C39CD
:109FD00091421ED30B6B9842F9D38B6B9842F6D803
:109FE0000B46184670470D4BD3F86C1E0A6B904217
:109FF00012D30B680BB9F4E70A6B90420B4602D3FD
:10A000008A6B9042EDD951F84C3F002BF4D11846A1
:10A0100070470023184670470A46D8E7603D002085
:10A020002DE9F047CC0143D10346224A43F8082BDF
:10A030004FF0FF324260022418467E26DFF8788017
:10A04000D8F8709E2644013E051D49466FF07047C2
:10A050004FF0010A08E0A3421CD0631C45F8043C01
:10A06000321B1C460435CAB10B6BA34202D88B6B62
:10A07000A34204D22046FFF7A1FF014690B10A791E
:10A080004B6B002AE7D1A34204D0E6D245F8042C5A
:10A09000631CE5E745F8047C631CE1E7C8F8701E23
:10A0A000BDE8F08745F804AC321B631C4946D8E78D
:10A0B0008026C3E7F8FFFF0F603D0020F0B40D6875
:10A0C00000240CE0BCF1050F18D8A0F137030A2BCF
:10A0D00014D104EB840415F8010B03EB4404A0F144
:10A0E0003003DEB2092EA0F16107A0F1410CF0D9D6
:10A0F000052FE7D8A0F157030A2BEAD00D601460B2
:10A10000F0BC7047036870B55E6A26B1334605221D
:10A11000BDE87040184704460D464E1D00E0236818
:10A120009B68204698470028F9D0236815F8011B42
:10A130001B6820469847B542F1D170BD2DE9F04F1C
:10A140009BB0DDE9247ADDF8989004460D4616466A
:10A15000984602E0206837F077FE206837F07CFEF2
:10A160000028F7D10146642201A842F0DAFB2A4B0D
:10A170008DF80450CDF85CA00293002D48D0AB1EA2
:10A18000012B47D9042D14BF00230323DFF88CA033
:10A190008DF80530DAF8603003971F440123CDE9CC
:10A1A000059404978DF85B3036B14246314607A8D6
:10A1B00042F056FB8DF85A809AF8BA7E4FF00009AB
:10A1C000132FCDF8609015D89AF8B9BE642202FB1F
:10A1D0000BA001A90BF1010B00F6BC6042F040FBA3
:10A1E000BBF1130FD8BF5FFA8BF901378AF8BA7E3B
:10A1F0008AF8B99E236843B1434632462946204631
:10A200001BB0BDE8F04F0EF0C1BB1BB0BDE8F08F36
:10A210000523BBE70223B9E7D84B0020603D0020AF
:10A2200070B4447941BB03684FF400524FF4007698
:10A23000202502213CBB1A8C22F001021204120CD0
:10A240001A841A8B188C22F0F30280B2120420F0C8
:10A250000A00120C014342F0010241F001011A838D
:10A2600019841A8B22F00C021204120C1A831A8B16
:10A2700092B270BC1A8370470022036816461546D6
:10A280001146002CD7D0042C21D0082C38D0198CA2
:10A2900021F480510904090C19849C8B1D8C45F60E
:10A2A000FF7040F6FF4128402140024342F48052B3
:10A2B00041F4807199831A849A8B22F440621204CB
:10A2C000120C9A839A8B92B270BC9A8370471A8C44
:10A2D00022F010021204120C1A84188B198C89B205
:10A2E00040F6FF4221F0A00102400D4342F480728B
:10A2F00045F010051A831D841A8B22F44062B3E7DF
:10A300001A8C22F480721204120C1A84998B1A8C03
:10A3100021F0F30192B2090422F42062090C3243C5
:10A3200042F4807241F0010199831A849A8B22F0E1
:10A330000C02C4E79FED737A07EE901A20EE070A2D
:10A34000F8EE677A27EE800AFDEEC07A17EE903AB3
:10A350002033402B00F2C780DFED6B7AB4EEE70AC2
:10A36000F1EE10FAF0EE407A0CDD9FED686ADFED59
:10A37000686AB0EE677AB4EEE67AF1EE10FA77EE3C
:10A38000C67AF6DC9FED637AF4EEC77AF1EE10FA46
:10A390000CD59FED5E6ADFED606AB0EE677AB4EED1
:10A3A000E67AF1EE10FA77EE867AF6D49FED5B7AD4
:10A3B000F4EEC77AF1EE10FA00F38D809FED587A33
:10A3C000F4EEC77AF1EE10FA44BF9FED527A77EEC1
:10A3D000677A27EEA76ADFED535A9FED537ADFEDD8
:10A3E000536AA6EE257A67EE865AE6EE076AB6EE5F
:10A3F000007AE5EEA67A27EE877ADFED486A70EEFE
:10A40000267ABDEEE76A16EE103A2033402B67D865
:10A41000B4EEE60AF1EE10FA0CDDDFED3C5A9FEDEA
:10A420003C6AF0EE676AF4EEC66AF1EE10FA77EE77
:10A43000E57AF6DCDFED376AF4EEE67AF1EE10FA53
:10A440000CD5DFED325A9FED346AF0EE676AF4EE18
:10A45000C66AF1EE10FA77EEA57AF6D4DFED2F6A30
:10A46000F4EEE67AF1EE10FA40DDDFED276A76EEE3
:10A47000E77A67EEA75A9FED2B5A9FED2B6ADFED27
:10A480002B6AA5EE856A27EEA55AE5EE866AB8EE38
:10A49000006AE5EE267A67EE867AC7EE206A002328
:10A4A000836143610362C361B7EE006A76EE865A48
:10A4B00076EE666A86EE257A67EE277A66EE876A1A
:10A4C000C0ED017AC0ED037A80ED007A80ED027A6A
:10A4D000C0ED046A70479FED0C7A77EE677A78E7F3
:10A4E000DFED137AD9E79FED127A86E7DFED0C6A8C
:10A4F000F4EEE67AF1EE10FA44BFDFED066A76EE8E
:10A50000E77AB6E727D4D236DB0F4940DB0FC940E4
:10A51000E4CB1641DB0F49C0E4CB16C1DB0FC93FCA
:10A52000DB0FC9BF92E741B99730083C15A82ABE96
:10A53000000000002DE9F043114C0546002085B0D5
:10A5400004F5257806466F184FF0B609236883B1E5
:10A5500093F83430142B0CD0002269462046CDE904
:10A560000266CDE90057ADF808908DF80E602FF027
:10A57000BFFEDC344445E9D105B0BDE8F08300BF3F
:10A58000F053002038B5114C94F83D0908B900206B
:10A5900038BD0F4B93F8415836F016FEC4F8380911
:10A5A00020B1837913B1353B012BF0D8281E18BF99
:10A5B0000120FEF78FFE0028E9D00649064838F052
:10A5C000E1FA05480AF020FA034838BD682C00205B
:10A5D000584E002048CA0408845600200C480D4BF1
:10A5E000D0F85C1810B40C4CC0F850388A1E2231D8
:10A5F000B0F876381B01A4FB03C3DB08A3F5B063F6
