:020000040800F2
:1000000000000120918B04080D8C040829B003081E
:1000100069B003080D8C04080D8C04080000000072
:100020000000000000000000000000000D8C04082B
:100030000D8C0408000000000D8C0408BDAB030803
:100040000D8C04080D8C04080D8C04080D8C04081C
:100050000D8C04080D8C040889B10308B5B203089F
:1000600079B203083DB2030801B20308BD74040865
:10007000AD7404089D7404088D7404087974040830
:1000800065740408517404080D8C04080D8C040870
:100090000D8C04080D8C04080D8C0408C5B10308F0
:1000A000F5640408696504080D8C040859650408A2
:1000B000496504083965040829650408557604086B
:1000C0007976040895750408B97504080D8C040840
:1000D0000D8C040851570408455704083957040883
:1000E0004DB103080D8C04080D8C0408E564040868
:1000F000156504080D8C0408056504083D740408A2
:100100000D8C04080D8C0408196504080D8C040876
:100110002D570408215704080D8C0408790E010896
:10012000297404081574040801740408ED730408A4
:10013000D973040800000000000000000000000067
:100140000000000000000000000000009D130108F6
:10015000C5730408B17304089D7304081557040897
:10016000CD740408F57404080D8C04080D8C040883
:100170000D8C04080D8C0408000000000000000035
:100180000D8C04080D8C04080D8C04080D8C0408DB
:100190000D8C04080D8C0408000000000D8C040870
:1001A0000000000000000000000000000D8C0408AA
:1001B0000D8C04080D8C04080000000000000000F5
:1001C000000000000000000000000000000000002F
:1001D0000000000000000000000000000D8C04087A
:0801E000E886040001000000A4
:1001E80004008000846701208C6801200000000062
:1001F800000000002300100038670120506901202A
:1002080000000000A5D101080D004C00A85D0120E8
:1002180060690120000000009D4C030813000400E1
:10022800F45C0120AC6901200000000024070008EC
:10023800F6210C00F85C0120B069012000000000E4
:100248002807000812200D00905C0120BC690120DD
:100258000000000034070008F53174001C5C012020
:10026800CC69012000000000BD4901080B301400D2
:10027800085C0120406A01200000000042070008D5
:1002880001010400045C0120546A01200000000000
:100298000000000000010400005C0120586A0120F1
:1002A800000000005607000802010300FC5B012063
:1002B8005C6A0120000000000D4C030806101800BD
:1002C800C05B0120606A01200000000015B402082C
:1002D800FB010100BC5B0120786A012000000000DE
:1002E80019320408FC010900885A01207C6A01209F
:1002F800000000002932040802000C00545A0120B2
:10030800886A012000000000000000000A60360032
:10031800B02B0120946A0120000000005A07000851
:10032800340010007C590120CC6A01200000000034
:10033800E5B302081102080054590120DC6A0120C3
:100348000000000090070008121204004C59012018
:10035800E46A0120000000009807000818202C001B
:1003680020590120E86A012000000000D933040860
:10037800FD01210034560120146B0120000000000B
:10038800719D0308F9010400744B0120386B0120AA
:1003980000000000ED9D03081802020070470120CC
:1003A8003C6B0120000000000000000017020B0059
:1003B80064470120406B012000000000512A040816
:1003C800FA010200404701204C6B012000000000A8
:1003D800392B0408FE010900DC410120506B012083
:1003E80000000000B92A04080120080040B90120D3
:1003F80040BA0120000000009C0700081900050011
:10040800C0B9012048BA012000000000A407000874
:1004180037001E0098B9012050BA012000000000E2
:10042800AA0700081E0005008CB0012070BA012040
:1004380000000000C80700081B00F40088AD012078
:1004480078BA012000000000894E01080E0202005F
:1004580028B801206CBB012000000000CE0700086E
:100468002F001100F4B9012070BB0120000000002A
:10047800D00700080510060038BA012084BB012007
:1004880000000000E207000826000E009CBB0120C7
:100498008CBB012000000000713601081F201C00E1
:1004A80084AF0120D0BB012000000000E80700084D
:1004B8000502040034B30120ECBB01200000000059
:1004C8000408000803010A0074AF0120F0BB0120F2
:1004D80000000000080800082810100020C50120AE
:1004E800C8C501200000000091D1010814000400D3
:1004F80018C50120D8C50120000000001208000816
:100508000E8062018EBC0120DCC5012000000000C5
:10051800B9B30208090201005CC2012040C70120EA
:1005280000000000160800080C20B40048BE012096
:1005380044C70120000000006DB802080002050051
:100548006CC00120F8C70120000000000000000076
:100558001B02080040C0012000C801200000000064
:10056800DD2A0408F821060062CD01206CD20120A2
:1005780000000000180800080312330038CC0120DE
:1005880012D20120000000001E0800082500960075
:10059800CCCC01206CD1012000000000000000003C
:1005A80015007000A4CF012084D0012000000000B5
:1005B800000000002A0060006CCC012024D001203B
:1005C8000000000091B302082C00100014D0012094
:1005D80002D2012000000000594002082B0024002C
:1005E8007CCE012045D20120000000002D400208E9
:1005F8002910780020CB0120F4D001200000000051
:10060800000000000A020A004CD701205CD7012034
:1006180000000000520800080300010030D7012044
:1006280068D701200000000000000000101003003F
:1006380098D601206CD70120000000005C08000853
:100648001A000E0080D6012070D70120000000009B
:10065800600800081600080020D80120E8D801200A
:10066800000000006E080008130203008AD8012069
:1006780010D90120000000007608000807020200D7
:10068800C4D8012014D90120000000007A0800080D
:100698000602100094D8012018D90120000000009B
:1006A800D532040808120C007ED8012028D9012070
:1006B80000000000992A0408F701060078D80120F4
:1006C80034D90120000000007C0800081A023C0010
:1006D80064DA012054DE01200000000049320408D9
:1006E8002700040094DE012090DE012000000000B5
:1006F800820800080202030004E3012000E301204D
:1007080000000000000000001002010010E30120BA
:0C0718000CE3012000000000860800082F
:100724000804441000000000010000000202000060
:10073400000000010000054D544B530000002B2124
:10074400231E64010100000001000A012900230A9C
:100754000000B3000000003001000000000073003E
:1007640073006900000000000000000000000000A9
:1007740000000000020000019E077D00FA009600C0
:100784005802B80BB80BB80B2000C4091F23000093
:1007940001010101FFFFFFFFE8036400040A0001F7
:1007A40000002801000020003200C800D007960095
:1007B400140032002800B004400600055000140064
:1007C4000F0008010000010000000000000000000C
:1007D40000000000000000000000000000002000F5
:1007E40001010000000000000001000000050000FD
:1007F40001020300000000000000000000000000EF
:1008040000000000040101006C1600000000030059
:10081400004600000101F401140000000000000083
:1008240000000000000000000000000000000000C4
:1008340000000000000000000000000000000000B4
:1008440000000000000000000000000001000000A3
:100854004A01B400D6012F00000500007E05EA0518
:10086400B4050300E803D0070000C4090700B4017D
:10087400282800000000003C3D0100000000200387
:0308840000000071
:1008870000C20100000008001A0300000000000079
:100897000000000000000000000000000000000051
:1008A70000000000040309041201000202000040D6
:1008B70083044057000201020301000012010002F5
:1008C7000000004083042A570002010203010000D0
:1008D7000A0600020000004001000000090720008E
:1008E700010104C03209040000020806500507058B
:1008F70081024000000705010240000009022000B4
:10090700010104C03209040000020806500507056A
:100917008102400000070501024000000902200093
:10092700010104C03209040000020806500507054A
:100937008102000200070501020002000A06000208
:10094700000000400100000009074300020104C045
:10095700320904000001020201000524001001050C
:100967002401000104240202052406000107058270
:10097700030800FF09040100020A0000000705013F
:100987000240000007058102400000000902430001
:10099700020100C03209040000010202010005241F
:1009A70000100105240100010424020205240600A9
:1009B700010705820308001009040100020A00006C
:1009C700000705010200020007058102000200007E
:1009D70009024300020100C03209040000010202BB
:1009E700010005240010010524010001042402026E
:1009F7000524060001070582030800100904010009
:100A0700020A0000000705010240000007058102F5
:100A1700400000000060024010600240000000003B
:100A270000000000000B00000000000000000000B4
:100A37000000000000600240286002400100000042
:100A470000000000060C000000000000000000008D
:100A57000000000000600240406002400200000009
:100A670000000000100D0000000000000000000062
:100A770000000000006002405860024003000000D0
:100A870000000000160E000000000000000000003B
:100A97000000000000600240706002400400000097
:100AA70000000000200F0000000000000000000010
:100AB700000000000060024088600240050000005E
:100AC70000000000261000000000000000000000E9
:100AD7000000000000600240A06002400600000025
:100AE70000000000301100000000000000000000BE
:100AF7000000000000600240B860024007000000EC
:100B070000000000362F0000000000000000000079
:100B17000000000000640240106402400000000072
:100B27000000000000380000000000000000000086
:100B37000000000000640240286402400100000039
:100B4700000000000639000000000000000000005F
:100B57000000000000640240406402400200000000
:100B670000000000103A0000000000000000000034
:100B770000000000006402405864024003000000C7
:100B870000000000163B000000000000000000000D
:100B9700000000000064024070640240040000008E
:100BA70000000000203C00000000000000000000E2
:100BB7000000000000640240886402400500000055
:100BC70000000000264400000000000000000000B4
:100BD7000000000000640240A0640240060000001C
:100BE7000000000030450000000000000000000089
:100BF7000000000000640240B864024007000000E3
:100C07000000000036460000000000000000000061
:100C1700000000000101010000FFFF0000000000CC
:100C2700AA55050100000100000001FFFF012D206A
:100C37002D2D202D2D2D2D202D2D2D2D00000000AB
:100C470000000000000000000000000000AA550B93
:100C5700010000AA5507010000AA5509020000007B
:100C670001000000C012AA5503009F00FF1FFF1FCD
:100C77003404012004000000ACBB01200000000088
:100C87000000803F0000803F0000000000000000DF
:100C9700000000000000000000000000000000004D
:100CA700000000000000000000000000010000003C
:100CB700FFFFFFFF000200051002700B010101009A
:100CC70005C8010800000000B4050120981E0508AA
:100CD700000000000000000000000000000000000D
:100CE700A40A0508000000000000000044060120D7
:100CF700040000001C1E05080D00000025EC01087B
:100D0700C429012000000000A81405080D000000F8
:100D17004DEC0108B82901200000000080160508E5
:100D27000800000000000000AC29012004000000BA
:100D3700141505080D000000ADC80108A029012001
:100D470000000000D815050803000000E9EE0108BF
:100D57009429012000000000A81E050803000000D8
:100D6700E9EE0108882901200000000008100508A5
:100D7700010000000000000000000000000000006B
:100D8700000000000E00000000000000000000004E
:100D970000000000981E0508000000000000000089
:100DA7000000000000000000A40A05080000000081
:100DB700000000004406012004000000C81D0508CB
:100DC70003000000E5D801087C2901200800000085
:100DD700141505080D000000ADC80108A029012061
:100DE70000000000D815050803000000E9EE01081F
:100DF7009429012000000000A81E05080300000038
:100E0700E9EE010888290120000000000810050804
:100E170001000000000000000000000000000000CA
:100E2700000000000E0000000000000000000000AD
:100E370000000000B01E05080000000000000000D0
:100E47000000000000000000A40A050800000000E0
:100E5700000000004406012004000000D01D050822
:100E670003000000E9EE0108D0290120000000007E
:100E77000810050801000000000000000000000045
:100E870000000000000000000E000000000000004D
:100E9700000000000000000020700020702D72008C
:100EA700FFFFFFFF0001010100000000000000003C
:100EB7000000000038250120FA00000001000000B2
:100EC700010000002D202D2D202D2D2D2D202D2D25
:100ED7002D000000000000000000000000000000DE
:100EE700000000002CBF01200000F40101000000F9
:100EF7002ABF01200000F4010100000028BF0120E3
:100F07000000F4010100000026BF01200000F401E9
:100F17000100000024BF01200000F40101000000CF
:100F270022BF01200000F4010100000020BF0120C2
:100F37000000F401010000007C0F0508000000001C
:100F4700000000000000000000000000940F0508EA
:100F5700000000000000000000000000000000008A
:100F6700B40F05080800000000000000AC060120CF
:100F770000000000C00F0508080000000000000086
:100F8700A006012000000000CC0F050808000000A3
:100F9700000000009406012000000000941A0508D4
:100FA7000800000000000000880601200000000083
:100FB700D80F050808000000000000007C0601208B
:100FC70000000000E40F0508080000000000000012
:100FD7007006012000000000F00F0508080000005F
:100FE700000000006406012000000000FC0F050857
:100FF70002000000D5F00108020000000000000018
:1010070008100508010000000000000000000000B3
:1010170000000000000000000E00000000000000BB
:10102700000000000000000079CF010839CF010857
:10103700B80601201EBF0120053201001CBF012098
:10104700E803D007010000001ABF0120E803D0071A
:101057000100000018BF0120E803D00701000000CD
:1010670016BF01201E00B80B0100000014BF0120AD
:101077001E00F4010100000012BF012014006400EB
:101087000100000010BF01200000C800010000009F
:101097001010050818100508341005080000000096
:1010A700000000000000000000000000940F050889
:1010B7000000000000000000000000000000000029
:1010C700F00C0508080000000000000004080120DB
:1010D700000000004810050808000000000000009C
:1010E700F8070120000000005C1005080800000058
:1010F70000000000EC070120000000007010050848
:101107000800000000000000E007012000000000C8
:10111700841005080800000000000000D407012023
:1011270000000000941005080800000000000000FF
:10113700C807012000000000A410050808000000EF
:1011470000000000BC07012000000000B4100508E3
:101157000700000000000000B407012000000000A5
:10116700C410050803000000E9EE0108A8070120E4
:1011770000000000FC0F050802000000D5F0010880
:101187000200000000000000081005080100000030
:101197000000000000000000000000000000000048
:1011A7000E0000000000000000000000000000002A
:1011B700F410050800000000000000000000000017
:1011C70000000000ED0E05080400000001EA010818
:1011D70000000000000000000810050801000000E2
:1011E70000000000000000000000000000000000F8
:1011F7000E000000000000000000000000000000DA
:10120700246801200100C4090000000022680120B1
:101217000100C40900000000206801200100C40982
:10122700000000001E6801200100C4090000000042
:101237001A6801200100C409000000001C68012091
:101247000100C40900000000186801200100C4095A
:1012570000000000166801200100C409000000001A
:101267001EBC01200000FFFF0A0000001CBC01207B
:101277000100C800010000001ABC012032003075CF
:101287003200000018BC0120055A050015BC0120DA
:1012970000FF010017BC0120010000001008012019
:1012A70013BC012002000000B4C2040814BC0120D2
:1012B70000FF010016BC01200100000010080120FA
:1012C70012BC012002000000B4C2040810BC0120B7
:1012D70080C1803E050000000EBC012080C1803E19
:1012E700050000000CBC012080C1803E0500000005
:1012F7000ABC012080C1803E0500000009BC012016
:1013070000FF010008BC01200A32010007BC0120D0
:1013170004000000D0C7040806BC0120020000003A
:10132700E4C70408F5CE0108B1CE0108180801206A
:1013370032BF0120EE02CA080100000030BF0120C1
:1013470000C80100640000002FBF012000C8010091
:10135700640000002EBF012002000000F0C704084F
:10136700000000000000000030090120E4B2012065
:101377009CFF2C01000000003C0401200A00000033
:10138700FCC70408FCBB0120E0150C170000000097
:101397003E04012008000000B4BF04083D040120FA
:1013A700050000003CC90408FEBB01200200000044
:1013B70014C804083EBF01200100FF7F01000000A0
:1013C7003DBF01200200000020C8040802BE012022
:1013D7000000F4010100000000BE01200000F4013C
:1013E70001000000FEBD01200000F4010100000023
:1013F700FCBD01200000F4010100000012BE012025
:101407000100803E050000000EBE01200000803E66
:10141700640000000CBE01200000803E6400000054
:101427000ABE01200000803E6400000010BE0120BB
:10143700030000020100000008BE0120C800E80305
:101447000100000006BE01201E00E80301000000A5
:1014570004BE01200000E80301000000FABD0120DE
:101467000000803E01000000F8BD01200000803E22
:1014770001000000F6BD01200000803E01000000D1
:10148700F4BD01200000803E01000000F2BD0120F4
:101497000000803E01000000F0BD01200000803EFA
:1014A7000100000043BE01201964010047BE01206E
:1014B7000064010046BE01200064010045BE012012
:1014C7000A32010044BE01200300000030C80408AE
:1014D70040BE0120E803D0070A0000003EBE0120FD
:1014E70000FA01000A0000003DBE012000FA0100D9
:1014F7000A0000003CBE012000FA01000A000000BB
:101507002BBE0120006401002ABE012000640100F7
:1015170032BE0120006401000A00000031BE012034
:10152700006401000A00000030BE012000640100D1
:101537000A00000035BE0120006401000A00000017
:1015470034BE0120006401000A00000033BE012000
:10155700006401000A0000002FBE012000FF010007
:101567000A0000002EBE012000FF01000A00000053
:101577002DBE012000FF01000A0000003BBE012034
:10158700005F01000A0000003ABE0120005F010071
:101597000A00000039BE0120005F01000A000000B8
:1015A70038BE0120005F01000A00000037BE01209D
:1015B70019AF01000A00000036BE012019AF010073
:1015C7000A0000007CBC0120000A01007BBC01204E
:1015D700000A01007ABC0120000A01008CBC01202E
:1015E70000FA01008BBC012000FA01008ABC01202F
:1015F70000FA010088BC01200000F401010000008E
:1016070086BC01200000F4010100000084BC012019
:101617000000F4010100000082BC01200000F40179
:101627000100000080BC01200000F401010000005F
:101637007EBC01200000F4010100000028BE01204B
:10164700FF08010027BE01200164010026BE01201A
:101657000064010025BE01200100000040C8040805
:1016670024BE012000C8010022BE01200000D007CF
:101677000100000021BE012000C8010020BE01209A
:1016870000C801001FBE012000C801001EBE0120C6
:1016970000C801001DBE012000FA01000A00000079
:1016A7001ABE012000FA01000A00000017BE01203F
:1016B70000FA01000A0000001CBE012000FA010028
:1016C7000A00000019BE012000FA01000A0000000C
:1016D70016BE012000FA01000A0000001BBE01200F
:1016E70000FA01000A00000018BE012000FA0100FC
:1016F7000A00000015BE012000FA01000A000000E0
:10170700FEBE0120010A010006BF012000FA010008
:1017170004BF01200000E803050000000FBF0120FF
:1017270000C801000EBF012000C801000DBF012045
:1017370000C801000CBF012000C801000BBF012039
:1017470000C801000ABF012000C8010009BF01202D
:1017570000C8010008BF012000C8010007BF012021
:1017670000C8010002BF012000FA010000BF0120EC
:101777000000E80305000000FDBE01200064010031
:1017870038110508000000000000000000000000FC
:1017970000000000D0190508090000000000000043
:1017A700D409012004000000E81905080900000019
:1017B70000000000C809012004000000E01B050824
:1017C7000900000000000000BC090120040000001F
:1017D700540C05080900000000000000B0090120B2
:1017E700040000004811050809000000000000007F
:1017F700A409012004000000501105080900000099
:101807000000000098090120040000005811050895
:1018170009000000000000008C09012004000000FE
:101827006011050809000000000000008009012080
:101837000400000008100508010000000000000077
:101847000000000000000000000000000E00000083
:1018570000000000000000000000000084130508DD
:101867000000000000000000000000000000000071
:10187700645105080700000000000000040A012069
:101887000000000094130508080000000000000095
:10189700F809012000000000A01305080800000057
:1018A70000000000EC09012000000000A813050853
:1018B7000800000000000000E0090120000000000F
:1018C700FC0F050802000000D5F001080100000028
:1018D70000000000081005080100000000000000DB
:1018E7000000000000000000000000000E000000E3
:1018F700000000000000000000000000B813050809
:1019070000000000000000000000000000000000D0
:10191700C81305080D00000000000000400A012060
:1019270000000000D01305080D00000000000000B3
:10193700340A012000000000D81305080700000042
:10194700000000002C0A012000000000E013050839
:101957000D00000000000000200A01200000000028
:10196700E81305080D00000000000000140A01201C
:1019770000000000F0130508070000000000000049
:101987000C0A012000000000FC0F050802000000FF
:10199700D5F001080100000000000000081005084C
:1019A700010000000000000000000000000000002F
:1019B700000000000E000000000000000000000012
:1019C70000000000F81305080000000000000000F8
:1019D7000000000000000000645105080C00000032
:1019E7000000000020BC0120000000000C140508C6
:1019F7000C0000000000000022BC012000000000D5
:101A07001C1405080C0000000000000058BC012051
:101A1700000000002C1405080C0000000000000066
:101A27004CBC012000000000401405080C00000019
:101A37000000000024BC0120000000004C14050831
:101A47000C0000000000000026BC01200000000080
:101A5700541405080C0000000000000028BC0120F9
:101A670000000000681405080C00000000000000DA
:101A77002ABC012000000000701405080C000000BB
:101A8700000000002CBC01200000000078140508AD
:101A97000C000000000000006ABC012000000000EC
:101AA700901405080C000000000000002EBC012067
:101AB700000000009C1405080C0000000000000056
:101AC70030BC012000000000401605080C00000093
:101AD7000000000032BC012000000000A41405082B
:101AE7000C0000000000000034BC012000000000D2
:101AF700B01405080C0000000000000036BC0120EF
:101B070000000000BC1405080C00000000000000E5
:101B170038BC012000000000C81405080C000000B4
:101B2700000000003ABC012000000000D4140508A2
:101B37000C000000000000003CBC01200000000079
:101B4700E01405080C0000000000000050BC012054
:101B570000000000E81405080C0000000000000069
:101B67004EBC012000000000F01405080C00000026
:101B7700000000005CBC012000000000FC14050808
:101B87000C000000000000005EBC01200000000007
:101B9700081505080C0000000000000064BC0120C7
:101BA70000000000980705080C0000000000000076
:101BB7003EBC012000000000141505080C000000C1
:101BC7000000000046BC0120000000001C150508AD
:101BD7000C0000000000000040BC012000000000D5
:101BE700281505080C0000000000000042BC012079
:101BF70000000000341505080C000000000000007C
:101C070044BC0120000000003C1505080C00000042
:101C17000000000048BC012000000000481505082E
:101C27000C0000000000000052BC01200000000072
:101C3700501505080C000000000000004ABC0120F8
:101C4700000000005C1505080C0000000000000003
:101C57005ABC012000000000681505080C000000B0
:101C67000000000054BC01200000000070150508AA
:101C77000C0000000000000056BC0120000000001E
:101C8700781505080C0000000000000060BC01206A
:101C970000000000801505080C000000000000008F
:101CA70062BC012000000000881505080C00000038
:101CB7000000000072BC01200000000008100508A9
:101CC700010000000000000000000000000000000C
:101CD700000000000E0000000000000000000000EF
:101CE700000000009015050800000000000000003B
:101CF70000000000000000009C1505080D00000012
:101D070000000000980A012000000000A415050843
:101D17000D000000000000008C0A012000000000F8
:101D2700AC1505080700000000000000840A012028
:101D370000000000B81505080700000000000000BB
:101D47007C0A012000000000C415050809000000F6
:101D570000000000700A012000000000D0150508EF
:101D67000900000000000000640A012000000000D4
:101D7700DC1505080900000000000000580A0120D2
:101D870000000000EC150508090000000000000035
:101D97004C0A012000000000FC0F050802000000AB
:101DA700D5F0010801000000000000000810050838
:101DB700010000000000000000000000000000001B
:101DC700000000000E0000000000000000000000FE
:101DD70000000000001605080000000000000000D9
:101DE7000000000000000000940F0508000000003C
:101DF70000000000000000000000000010160508A9
:101E07000D00000000000000D40A012000000000BF
:101E17001C1605080B00000000000000C80A01207E
:101E270000000000281605080B0000000000000055
:101E3700BC0A012000000000381605080800000051
:101E470000000000B00A0120000000004C16050841
:101E570003000000E9EE0108A40A012000000000C9
:101E6700FC0F050802000000D5F001080200000081
:101E77000000000008100508010000000000000035
:101E87000000000000000000000000000E0000003D
:101E970000000000000000000000000058160508C0
:101EA700000000000000000000000000000000002B
:101EB70068160508050000000000000079BC012035
:101EC70000000000FC0F050802000000D5F0010823
:101ED70001000000000000000810050801000000D4
:101EE70000000000000000000000000000000000EB
:101EF7000E000000000000000000000000000000CD
:101F07007016050800000000000000000000000037
:101F170000000000A40A05080000000000000000FF
:101F2700AE030120040000007C1605080D00000028
:101F370065EA0108280B0120000000001C1E0508A7
:101F47000D000000BDC701081C0B012000000000A8
:101F5700A81405080D000000A1C70108100B0120F7
:101F670000000000801605080800000000000000BF
:101F7700040B012004000000141505080D000000E3
:101F8700EFC60108F80A01200000000088160508BE
:101F97000900000000000000EC0A01200400000016
:101FA700D815050803000000E9EE0108E00A012042
:101FB70000000000081005080100000000000000F4
:101FC7000000000000000000000000000E000000FC
:101FD7000000000000000000000000009016050847
:101FE70000000000000000000000000000000000EA
:101FF700A01605080D00000000000000400B01209E
:1020070000000000A81605080A00000000000000F4
:10201700F5C0012000000000B41605080A00000002
:1020270000000000FDC0012000000000BC160508EC
:102037000A0000000000000005C1012000000000A8
:10204700C41605080800000000000000340B01203A
:1020570000000000CC1605080400000081F001080C
:102067000000000000000000FC0F0508020000004F
:10207700D5F0010801000000000000000810050865
:102087000100000000000000000000000000000048
:10209700000000000E00000000000000000000002B
:1020A70000000000D816050800000000000000002E
:1020B7000000000000000000EC1605080800000002
:1020C70000000000180C012000000000FC160508A5
:1020D70008000000000000000C0C012000000000B8
:1020E7000C1705080800000000000000000C012084
:1020F700000000001C170508080000000000000091
:10210700F40B0120000000002C1705080800000050
:1021170000000000E80B0120000000003C17050844
:102127000800000000000000DC0B01200000000098
:102137004C1705080800000000000000D00B012024
:102147000000000058170508080000000000000004
:10215700C40B0120000000006817050808000000F4
:1021670000000000B80B01200000000078170508E8
:102177000800000000000000AC0B01200000000078
:10218700801705080800000000000000A00B0120D0
:102197000000000088170508080000000000000084
:1021A700940B0120000000009017050808000000AC
:1021B70000000000880B01200000000098170508A8
:1021C70008000000000000007C0B01200000000058
:1021D700A81705080800000000000000700B012088
:1021E70000000000B4170508080000000000000008
:1021F700640B012000000000C0170508080000005C
:1022070000000000580B012000000000CC17050853
:1022170008000000000000004C0B01200000000037
:10222700FC0F050802000000D5F0010801000000BE
:102237000000000008100508010000000000000071
:102247000000000000000000000000000E00000079
:10225700000000000000000000000000D81705087B
:1022670000000000000000001B0601200000000025
:10227700E41705080B00000000000000380D0120DE
:1022870000000000F41705080B0000000000000024
:102297002C0D012000000000001805080B000000AD
:1022A70000000000200D01200000000010180508A4
:1022B7000B00000000000000140D012000000000CA
:1022C7001C1805080B00000000000000080D012085
:1022D70000000000301805080B0000000000000097
:1022E700FC0C012000000000401805080B0000004E
:1022F70000000000F00C0120000000004C18050849
:102307000B00000000000000E40C012000000000AA
:10231700581805080B00000000000000D80C012029
:1023270000000000641805080B0000000000000012
:10233700CC0C012000000000701805080B000000FD
:1023470000000000C00C0120000000007C180508F8
:102357000B00000000000000B40C0120000000008A
:10236700881805080B00000000000000A80C0120D9
:1023770000000000941805080B0000000000000092
:102387009C0C012000000000A01805080B000000AD
:1023970000000000900C012000000000AC180508A8
:1023A7000700000000000000880C0120000000006A
:1023B700B41805080700000000000000800C012089
:1023C70000000000C01805080B0000000000000016
:1023D700740C012000000000CC1805080B00000059
:1023E70000000000680C012000000000D818050854
:1023F7000B000000000000005C0C01200000000042
:10240700E41805080800000000000000500C012037
:1024170000000000F41805080D000000000000008F
:10242700440C012000000000041905080700000003
:10243700000000003C0C01200000000014190508F2
:102447000700000000000000340C0120000000001D
:102457002419050807000000000000002C0C0120CB
:102467000000000034190508070000000000000004
:10247700240C012000000000FC0F050802000000EA
:10248700D5F0010801000000000000000810050851
:102497000100000000000000000000000000000034
:1024A700000000000E000000000000000000000017
:1024B70000000000481905080000000000000000A7
:1024C70000000000000000005C190508080000007B
:1024D70000000000B00D0120000000006C19050885
:1024E7000800000000000000A40D0120000000000B
:1024F7007C1905080800000000000000980D012065
:10250700000000008C19050808000000000000000A
:102517008C0D0120000000009C1905080800000030
:1025270000000000800D012000000000B019050820
:102537000800000000000000740D012000000000EA
:10254700C019050807000000000000006C0D0120FD
:1025570000000000D819050807000000000000006F
:10256700640D012000000000F019050807000000B5
:10257700000000005C0D012000000000041A05089F
:102587000700000000000000540D012000000000BB
:10259700141A050807000000000000004C0D012078
:1025A70000000000281A05080700000000000000CE
:1025B700440D012000000000FC0F05080200000088
:1025C700D5F0010801000000000000000810050810
:1025D70001000000000000000000000000000000F3
:1025E700000000000E0000000000000000000000D6
:1025F70000000000381A0508000000000000000075
:102607001806012000000000481A05080B0000000A
:1026170000000000740E012000000000541A050895
:102627000B00000000000000680E01200000000001
:10263700601A05080B000000000000005C0E012076
:10264700000000006C1A05080B00000000000000E5
:10265700500E012000000000781A05080B0000004A
:1026670000000000440E012000000000841A050845
:102677000B00000000000000380E012000000000E1
:10268700901A05080B000000000000002C0E012026
:10269700000000009C1A05080B0000000000000065
:1026A700200E012000000000A81A05080B000000FA
:1026B70000000000140E012000000000B41A0508F5
:1026C70007000000000000000C0E012000000000C1
:1026D700C01A05080700000000000000040E0120D2
:1026E70000000000CC1A05080700000000000000E9
:1026F700FC0D012000000000DC1A0508070000009F
:1027070000000000F40D012000000000EC1A05088D
:102717000800000000000000E80D01200000000094
:10272700F41A05080700000000000000E00D012072
:1027370000000000001B05080D000000000000005D
:10274700D40D012000000000101B05080700000041
:1027570000000000CC0D0120000000001C1B050834
:102767000700000000000000C40D01200000000069
:102777002C1B05080600000000000000BC0D01200E
:1027870000000000FC0F050802000000D5F001085A
:10279700010000000000000008100508010000000B
:1027A7000000000000000000000000000000000022
:1027B7000E00000000000000000000000000000004
:1027C7003C1B05080000000000000000180601205F
:1027D70000000000541B050807000000000000006F
:1027E700F80E012000000000601B0508080000002B
:1027F70000000000EC0E0120000000006C1B050823
:102807000700000000000000E40E012000000000A7
:10281700781B05080700000000000000DC0E0120FF
:1028270000000000801B05080700000000000000F2
:10283700D40E012000000000881B050807000000D7
:1028470000000000CC0E012000000000701A0508EF
:102857000700000000000000C40E01200000000077
:102867007C1A05080700000000000000BC0E0120CC
:1028770000000000881A050807000000000000009B
:10288700B40E012000000000901B0508070000009F
:1028970000000000AC0E012000000000981B050896
:1028A7000700000000000000A40E01200000000047
:1028B700A01B050807000000000000009C0E012077
:1028C70000000000A81B0508080000000000000029
:1028D700900E012000000000B81B0508070000004B
:1028E70000000000880E012000000000C81B05083A
:1028F7000700000000000000800E0120000000001B
:10290700FC0F050802000000D5F0010801000000D7
:10291700000000000810050801000000000000008A
:102927000000000000000000000000000E00000092
:102937000000000000000000000000000000000090
:10294700B9CA0108000F012077BC01202C00000044
:1029570048C8040876BC012000C8010074BC0120E7
:10296700E803D007010000004D4154454B4637327C
:102977003248440001CA0108D9C90108DC0F012007
:10298700A1C9010861C901087C10012041CA0108D9
:1029970029CA01084411012015C90108D1C8010835
:1029A70064140120E5CF0108B9CF010854150120AF
:1029B700CDCA010875EC01081C16012029C70108BA
:1029C70000000000801601205DF0010845D00108D5
:1029D7005C1701204DCC0108D1CB01082418012038
:1029E70085CD0108D1CD0108DC19012029BE0120C0
:1029F700010601005DCB0108F5CA0108341C01205E
:102A0700C9CC0108A5EC0108741D012005CE0108F9
:102A170065ED0108401F012014BE012001030100DC
:102A2700D01B0508000000000000000000000000A7
:102A370000000000DC1B0508080000000000000083
:102A4700DC20012000000000E41B0508070000004F
:102A570000000000D420012000000000F41B05083E
:102A67000D00000000000000C82001200000000049
:102A7700001C050803000000E9EE0108BC20012046
:102A870000000000FC0F050802000000D5F0010857
:102A97000100000000000000081005080100000008
:102AA700000000000000000000000000000000001F
:102AB7000E00000000000000000000000000000001
:102AC700081C0508000000000000000000000000CE
:102AD70000000000181C05080A00000000000000A4
:102AE7007C05050800000000201C05080A000000FE
:102AF70000000000A30E050800000000281C0508C0
:102B07000A0000000000000034BF012000000000A0
:102B1700301C05080A00000000000000E820012022
:102B27000000000008100508010000000000000078
:102B37000000000000000000000000000E00000080
:102B4700000000000000000000000000381C05081D
:102B5700000000000000000000000000000000006E
:102B6700441C050803000000E9EE01080C210120C0
:102B770000000000501C050803000000E9EE0108F2
:102B87000021012000000000581C05080300000078
:102B9700E9EE0108F420012000000000FC0F050801
:102BA70002000000D5F0010801000000000000004D
:102BB70008100508010000000000000000000000E8
:102BC70000000000000000000E00000000000000F0
:102BD7000000000000000000601C05080000000065
:102BE700000000000000000000000000741C050841
:102BF70003000000E9EE0108482101200000000061
:102C0700801C050803000000E9EE010840040120CC
:102C170000000000881C050803000000E9EE010819
:102C27003C21012000000000901C05080300000063
:102C3700E9EE01083021012000000000C00C050862
:102C470003000000E9EE0108242101200000000034
:102C57001415050803000000E9EE010818210120FA
:102C670000000000FC0F050802000000D5F0010875
:102C77000100000000000000081005080100000026
:102C8700000000000000000000000000000000003D
:102C97000E0000000000000000000000000000001F
:102CA7009C1C050800000000000000000000000058
:102CB70000000000AC1C050807000000F5ED010846
:102CC70098210120000000003815050803000000C6
:102CD700E9EE01088C21012000000000B81C05085E
:102CE70003000000E9EE0108802101200000000038
:102CF700C01C050803000000E9EE0108742101204B
:102D070000000000C81C050807000000D9ED0108F5
:102D17006C21012000000000740C0508030000006E
:102D2700E9EE01086021012000000000D41C05081D
:102D370003000000E9EE0108542101200000000013
:102D4700FC0F050802000000D5F001080100000093
:102D57000000000008100508010000000000000046
:102D67000000000000000000000000000E0000004E
:102D770000000000000000000000000089CA0108F0
:102D870059CA0108A021012011D001080000000044
:102D9700402201205DC9010859C90108CC22012040
:102DA70000000000000000005823012089CE010820
:102DB70011EE010820240120E01C05080000000096
:102DC700000000000000000000000000EC1C0508E7
:102DD70003000000E9EE01082C2501200000000097
:102DE700F41C050803000000E9EE01082025012076
:102DF70000000000C807050803000000E9EE01080D
:102E07001425012000000000001D05080300000034
:102E1700E9EE010808250120000000000C1D050847
:102E270003000000E9EE0108FC2401200000000077
:102E3700141D050802000000D5F00108000000007D
:102E470000000000FC0F050802000000D5F0010893
:102E570001000000000000001C1D05080200000022
:102E6700D5F001080200000000000000000000008B
:102E77000E0000000000000000000000000000003D
:102E870002BC012088136F170100000004BC012059
:102E970088136F1700000000281D050800000000B8
:102EA700000000000000000000000000381D0508B9
:102EB70008000000000000000C26012004000000AC
:102EC700441D05080800000000000000002601203E
:102ED70000000000D81505080400000089EA010871
:102EE70000000000000000000810050801000000B5
:102EF70000000000000000000000000000000000CB
:102F07000E000000000000000000000000000000AC
:102F170000BC012088136F170100000024B30120B3
:102F270088136F170000000065C801080000000043
:102F37001826012099C0012001000000FCC80408E0
:102F470026B301200100000008C904081CB30120B2
:102F57000200000010C904087A6801200000000080
:102F67000000000078680120000000000000000059
:102F7700766801200000000000000000746801204E
:102F8700000000000000000072680120000000003F
:102F97000000000070680120000000000000000031
:102FA700E40301200000000000000000FFBB012037
:102FB700020000001CC90408801D0508000000006D
:102FC700000000000000000000000000381D050898
:102FD70008000000000000009C26012004000000FB
:102FE700441D05080800000000000000902601208D
:102FF70000000000D81505080400000039C80108C2
:103007000000000000000000081005080100000093
:1030170000000000000000000000000000000000A9
:103027000E0000000000000000000000000000008B
:10303700901D0508000000000000000000000000CF
:1030470000000000A01D05080D000000C9EB0108E5
:10305700CC26012004000000AC1D05080D0000006F
:1030670089C80108C026012004000000B81D050812
:103077000D0000008DEB0108B426012000000000C0
:10308700C41D05080300000005D90108A826012072
:1030970008000000D01D050803000000E9EE010844
:1030A700D0290120000000000810050801000000D9
:1030B7000000000000000000000000000000000009
:1030C7000E000000000000000000000000000000EB
:1030D700F4100508000000000000000000000000D8
:1030E70000000000ED0E050804000000A1EA010839
:1030F70000000000000000000810050801000000A3
:1031070000000000000000000000000000000000B8
:103117000E0000000000000000000000000000009A
:10312700241E050800000000000000000000000049
:10313700000000002C0605080D000000000000003C
:103147002C27012004000000341E05080800000099
:10315700000000002027012004000000401E050891
:1031670008000000000000001427012004000000F0
:10317700481E05080800000000000000082701207D
:1031870004000000501E05080800000000000000B1
:10319700FC26012004000000581E05080800000056
:1031A70000000000F026012004000000601E050852
:1031B7000800000000000000E426012004000000D1
:1031C700681E05080800000000000000D82601203E
:1031D70004000000081005080100000000000000BE
:1031E7000000000000000000000000000E000000CA
:1031F70000000000000000000000000051C80108A6
:103207000000000038270120000000000000000037
:10321700B027012000000000000000005028012016
:1032270022B301200400000028C9040820B30120AC
:10323700E0150C17000000001FB301200800000074
:10324700B4BF04081EB30120050000003CC90408F0
:103257000000000000000000A028012001FFFFD6A9
:1032670001000000FFFFFFFF0000803F000000009B
:1032770000000000000000000000803F0000000088
:1032870000000000000000000000803F0000000078
:1032970000000000000000000000803F0000000068
:1032A70000D901200800000000000000F0D801202C
:1032B70008000000D98B0008CD8B0008958B00080B
:1032C700A98B00084D8B0008398B0008258B000857
:1032D700D92D01085DA700085D2D01080000000039
:1032E700858C0008E58C0008B18C00080000000000
:1032F7000000000000000000658C0008758C0008C5
:10330700558C0008458C000805A80008FD890008B1
:10331700798900085D890008BCF6040805080400DF
:10332700000000003CC90408B4BF040828C9040809
:103337000000000000000000E8F6040805080A0085
:10334700000000003CC90408B4BF0408FCC7040817
:103357000000000000000000685E0C00FF01010291
:10336700FFFF0000D52C010835A70008892B0108AD
:103377000000000000000000512B0108512A01083D
:10338700000000000000000000000000358C00086D
:10339700258C0008158C0008058C0008D5520408F8
:1033A7001D2B0408192B0408152B040845340408A1
:1033B700112B04080D2B0408E4FA0408B0010000DF
:1033C7000200000009000000FF000000502B012050
:1033D70000000000000000000000000000000000E6
:1033E70000000000000000000000000000000000D6
:1033F70000000000000000000000000000000000C6
:1034070000000000000000000000000000000000B5
:1034170000000000000000000000000000000000A5
:103427000000000000000000000000000000000095
:103437000C07050814070508000000001D4C0308C9
:10344700A08601000400000000000000000000004A
:103457000000000000000000000000000000000065
:10346700000000000C0705081C0705080000000005
:10347700419D0308E803000004000000000000006D
:103487000000000000000000000000000000000035
:103497000000000000000000381505082407050893
:1034A70000000000AD0B00007D00000006000000DA
:1034B7000000000000000000000000000000000005
:1034C7000000000000000000000000002C070508B5
:1034D7000000000000000000A5F20308E803000058
:1034E70005000000000000000000000000000000D0
:1034F70000000000000000000000000000000000C5
:10350700300705080000000000000000CDB80208E1
:10351700C4090000050000000000000000000000D2
:103527000000000000000000000000000000000094
:10353700000000003C07050800000000093E0208E3
:10354700E5C403086A180000050000000000000039
:103557000000000000000000000000000000000064
:1035670000000000000000005053050800000000A4
:10357700000000000D2404081027000001000000CF
:103587000000000000000000000000000000000034
:1035970000000000000000000000000040070508D0
:1035A7000000000000000000459D0308E80300003C
:1035B70005000000000000000000000000000000FF
:1035C70000000000000000000000000000000000F4
:1035D7004C07050800000000000000004D590308D3
:1035E700204E000003000000000000000000000063
:1035F70000000000000000000000000000000000C4
:10360700000000005C070508000000000000000043
:1036170035570308204E000003000000000000009B
:103627000000000000000000000000000000000093
:1036370000000000000000006C0705080000000003
:10364700000000001DA40308400D03000300000054
:103657000000000000000000000000000000000063
:103667000000000000000000000000007C070508C3
:103677000000000000000000916003081027000010
:103687000100000000000000000000000000000032
:103697000000000000000000000000000000000023
:1036A70084070508000000000000000089A3010846
:1036B70010270000030000000000000000000000C9
:1036C70000000000000000000000000000000000F3
:1036D7000000000088070508000000000000000047
:1036E70061350208A086010001000000000000000B
:1036F70000000000000000000000000000000000C3
:10370700000000000000000090070508000000000E
:10371700000000009DA1030850C300000100000045
:103727000000000000000000000000000000000092
:1037370000000000000000000000000098070508D6
:103747000000000000000000359F0308A86100008A
:103757000100000000000000000000000000000061
:103767000000000000000000000000000000000052
:10377700A40705080000000000000000091902085E
:10378700A08601000100000000000000000000000A
:103797000000000000000000000000000000000022
:1037A70000000000B007050800000000000000004E
:1037B70051F80308A00F00000100000000000000FE
:1037C70000000000000000000000000000000000F2
:1037D7000000000000000000BC0705080000000012
:1037E70000000000554A01081027000001000000F2
:1037F70000000000000000000000000000000000C2
:10380700000000000000000000000000C8070508D5
:103817000000000000000000B5BC01081A410000CC
:103827000100000000000000000000000000000090
:103837000000000000000000000000000000000081
:10384700CC0705080000000000000000493301080C
:103857001027000001000000000000000000000029
:103867000000000000000000000000000000000051
:1038770000000000D8070508000000000000000055
:1038870055F201081A410000010000000000000085
:103897000000000000000000000000000000000021
:1038A7000000000000000000DC0705080000000021
:1038B70000000000C17B0108400D0300000000006C
:1038C70000000000000000000000000000000000F1
:1038D700000000000000000000000000E4070508E9
:1038E7000000000000000000594C0308400D0300D1
:1038F70000000000000000000000000000000000C1
:1039070000000000000000000000000000000000B0
:10391700EC0705080000000000000000390A020853
:1039270050C300000300000000000000000000007A
:103937000000000000000000000000000000000080
:1039470000000000F8070508000000000000000064
:10395700B156030840420F000000000000000000BD
:103967000000000000000000000000000000000050
:103977000000000000000000040805080000000027
:10398700000000003151030850C300000000000090
:103997000000000000000000000000000000000020
:1039A700000000000000000000000000F5230000F8
:0439B700F5230000F4
:108000002DE9F04F022389468A462DED108B99B059
:10801000DFEDCABA149303461690043315921793F2
:108020004FEADA06169DDDF85CC04FEACA0305EB9D
:1080300046111396F0004FF0000B01EB06143701C8
:108040000390A6EB86020194049706EB460E04EB20
:10805000C202041D381D06EB86072C44C6EBC60879
:1080600002972844029D02EB46174FEAC808ED002C
:1080700001EBC60602954FEA0E1505954FEACE05AF
:108080000695139D4FEA451E019D95ED007AD34458
:1080900092ED005AD7ED004AD945D1ED006A50ED76
:1080A000013A35EE241AD6ED002A1CED016A73EE72
:1080B000875A54ED017A33EEC73A36EE264A77EE08
:1080C000A21A36EE666A77EEE27A74EE256A71EEEF
:1080D000812A77EE633A37EEC57A36EEA22A77EE3A
:1080E000E47A76EEE26A0CED012A37EE247A77EE36
:1080F000857AD1ED018AC1ED006A74EE655A96ED7C
:10810000015AB0EE460A94ED004AA7EE2B6AD2ED72
:10811000010AE7EEAB3A74EE456AD7ED012AA7EE05
:108120006B0A9CED007AD5ED014A34EE054A37EE34
:10813000689A90ED005A36EEE02A76EEE26A30EE6A
:10814000A28A32EE222A76EEA06AF0EE492A75EE75
:10815000640A37EE287A75EE249AE2EE6B2A74EE02
:10816000C54AF0EE608AB0EE40AAE6EEAB4AE6EE13
:10817000AB8AA6EEEBAAF0EE496AB0EE629A37EE51
:10818000695AE2EE2B6AB0EE432A74EE08AAA7EE13
:10819000EB9AA7EEAB2A77EE297A35EE617A75EE87
:1081A000C89A35EE415A75EEC45A37EEAABA77EE40
:1081B000EA7A37EE011A8CED00BA36EE287AC1ED74
:1081C000017A39EE844A76EEC27A194475EE885AFD
:1081D0009C4435EE215A00ED014A70EE8A0A70EE99
:1081E000244AC5ED005A36EE686A80ED001A72EE38
:1081F000A33A85ED015A33EE093A04ED017A72EEA5
:10820000266A87ED006A1D44C6ED000A1844C2EDD7
:10821000004AC4ED007A1C44C7ED016A1F44C6ED54
:10822000013A1E4482ED013A1A443FF62EAF139AEA
:10823000072A40F2C681039A0EF1080E169F08F134
:1082400008000832029E059D4FF0000894463A4609
:10825000083608357244069C0499D346109207EB01
:108260000C0208340C310F92BA190E927A190D9241
:108270003A190C923A180B927A18099207F10C02EB
:108280000A9201220892149ADDF824C09044159AAB
:108290000A9F02EBC8020B9EA8EB880E0C9D02EB16
:1082A000C80192ED00BA0D9C01EBC802D1ED00AA05
:1082B0000E9802EBC80192ED00AA01EBC802D1EDC5
:1082C000009A02EBC80192ED009A01EBC802D1EDD1
:1082D000008A0F9902EB0E1E92ED008A109A0EEBA7
:1082E000C80ADEED017A1192CDED047A0AEBC802DC
:1082F000DAED017A02EBC80A1291CDED057AD2EDE2
:10830000017A0AEBC802DDF820E0CDED017ADAED62
:10831000017A02EBC80ACDED067AD2ED017A0AEBBA
:10832000C802CDED027ADAED017ACDED077AD2ED11
:10833000017ADDE91121CDED037A01E0F304353F47
:1083400017ED017ADE44D2ED007A94ED005AF14542
:10835000D5ED006A37EE274AD0ED004A77EE677A0E
:108360001CED016A96ED007A91ED001A76EE055A41
:1083700036EE872A97ED00DA71EE24EA76EE453A7A
:1083800074EE252A31EE641A35EE466A3EEE825AC4
:1083900074EE655A31EE664A72EE854A31EE471A3E
:1083A000B0EE67CA47ED014A34EE077AD1ED014AD3
:1083B00031EE261AD0ED016A72EEC52A95ED014A1A
:1083C000A7EE6BCA74EEE60A96ED010AE7EE2B7A89
:1083D00092ED017A94ED015A74EEA64A3DEE473AC9
:1083E000DCED006A70EEC4CA70EEC00AB0EE43EA7B
:1083F0007CEE80CA74EE001A70EE840AACEEEBEAF2
:1084000036EEC54A3DEE077AB0EE63DA36EE850AFF
:10841000ACEEAB3AF0EE4EDAA1EE2BDAA1EE2B6A1F
:10842000E1EE6BDA75EE666AB0EE441AF0EE4CCA15
:1084300037EE405AA0EEAB1AE0EEEBCAE0EEAB6AC4
:1084400037EE007A74EEA10A35EEE1FA75EEE45AE1
:1084500075EE6EFA37EE600A71EEA55ADDED061A7A
:1084600035EE425A7FEE244A3FEE822A22EEE1FAAE
:1084700061EE80FADDED051A3EEE855A3EEE066AA3
:1084800073EEAD3A21EE82EA73EE4DDA3DEE033A39
:1084900024EEE1DADDED071A34EE2C4A7CEE266A92
:1084A00061EE85CA25EEE1CADDED041A77EE81EAB8
:1084B00077EEC17AE9EEA2FADDED032AA9EE80FAA1
:1084C0009DED030AAAEEA4EADDED014AAAEE82DAE6
:1084D0009DED012AE8EEA5CADDED025AA8EE85CA97
:1084E0009DED025A21EEAD1A62EE832A6EEEE11A7C
:1084F00027EEC00A64EEA34A26EEC22A65EE865A2B
:1085000024EE455AABEE2E1AEBEE2D1AE8EE272A92
:10851000A8EE030AEAEE264AAAEE232AE9EE045A56
:10852000A9EE065A37EE207A87ED007A1F44C2ED95
:1085300000FA82ED01FA1A440CED01EA8CED00DA42
:108540009C44C4ED00CA84ED01CA1C4481ED001AAC
:10855000C1ED011A1944C6ED002A86ED010A1E4438
:10856000C0ED005A80ED015A1844C5ED004A85ED72
:10857000012A1D443FF6E4AE1099089A08310132F1
:1085800010910F99089208310F910E9908310E91B0
:108590000D9908310D910C9908310C910B99083106
:1085A0000B910A9908310A91099908310991139997
:1085B00091427FF468AE149B8A46DB009BB2149311
:1085C0002EE519B0BDEC108BBDE8F08F9FED747AED
:1085D00007EE901A20EE070AF8EE677A27EE800A77
:1085E000FDEEC07A17EE903A2033402B00F2C8809F
:1085F000DFED6C7AB4EEE70AF0EE407AF1EE10FAB5
:108600000CDD9FED696ADFED696AB0EE677A77EE9F
:10861000C67AB4EEE67AF1EE10FAF6DC9FED647AF3
:10862000F4EEC77AF1EE10FA0CD59FED5F6ADFED3C
:10863000616AB0EE677A77EE867AB4EEE67AF1EEAA
:1086400010FAF6D49FED5C7AF4EEC77AF1EE10FAE8
:1086500040F386809FED537A77EE677A67EEA75AEC
:108660009FED565A9FED566AB6EE007ADFED556AD9
:10867000A5EE856A27EEA55AE5EE866AE5EE267A2E
:1086800027EE877ADFED4C6A70EE267ABDEEE76A58
:1086900016EE103A2033402B6FD8B4EEE60AF1EE16
:1086A00010FA0CDDDFED405A9FED406AF0EE676A8C
:1086B00077EEE57AF4EEC66AF1EE10FAF6DCDFED5D
:1086C0003C6AF4EEE67AF1EE10FA0CD5DFED365A9C
:1086D0009FED386AF0EE676A77EEA57AF4EEC66A27
:1086E000F1EE10FAF6D4DFED346AF4EEE67AF1EE4C
:1086F00010FA48DDDFED2B6A76EEE77A67EEA75ACF
:10870000DFED2E4A9FED2E6AB8EE005ADFED2D6A9E
:10871000A5EEA46A67EEA54AE5EE866AE4EEA67ABF
:1087200067EE857AC7EE206A0023836143610362A6
:10873000B7EE006AC36176EE865A76EE666A86EE1A
:10874000257A67EE277A80ED007A66EE876A80EDFB
:10875000027AC0ED017AC0ED037AC0ED046A704779
:108760009FED197AF4EEC77AF1EE10FA7FF576AF45
:108770009FED0F7A77EE677A70E7DFED147AD1E735
:108780009FED127A7EE7DFED106AF4EEE67AF1EE05
:1087900010FAB3D5DFED066A76EEE77AAEE700BFF2
:1087A00027D4D236DB0F4940DB0FC940E4CB16415A
:1087B000DB0F49C0E4CB16C1DB0FC93F92E741B9DB
:1087C0009730083C15A82ABEDB0FC9BF0000000087
:1087D000114A124BB2F92220DFED116A07EE902AFE
:1087E00093ED117AF8EEE77AB0EEC77A77EEE67A93
:1087F000F4EEC77AF1EE10FA0ADDD3F8CC1344F6A2
:108800002062401A904205DD002283F8D023704791
:10881000C3F8CC03704700BFB02B012084050020B3
:108820000000C842174BDFED186AD3ED087A93EDCC
:108830000F7A67EEA67AB0EEC77AF4EEC77AF1EE59
:1088400010FA08DD93ED107AB0EEC77AF4EEC77A2D
:10885000F1EE10FA02DCC3F8C403704793ED117A0D
:10886000B0EEC77AF4EEC77AF1EE10FAF3DDD3F882
:10887000C4134CF25032401A9042EEDD002283F8CD
:10888000C8237047840500200008ED46037870B4C3
:1088900033B30246C0F10105531912F8014FDBB2A0
:1088A000002CF9D101335B00DAB20F4C03250B80A9
:1088B00084F8382084F83950017879B102230026F1
:1088C0005A1CE518023354FA82F285F83810DBB2EC
:1088D00082F8386010F8011F0029F1D170BC704790
:1088E00002221346E1E700BFB02B012030B5EFF3C1
:1088F0001181802383F312880A4AD2F83831D2F8E2
:108900003C41D2F83801D2F83C51CAB282F3118806
:10891000013BA84294BF4FF4006000201B1B184489
:1089200030BD00BFB02B0120012380F84D307047CF
:10893000014BD3F840017047B02B01200120704754
:10894000014BC3E951217047B02B0120014BC3E912
:1089500053217047B02B01207047704710B4054B6E
:1089600004460A680020C3F854415DF8044BC3F87C
:1089700040217047B02B0120212870B505D0222856
:1089800029D0202810D0002070BD0029FBD0072A54
:10899000F9D1184B18791C685A799B790871002015
:1089A0000C604A718B7170BD0029ECD0072AEAD1A6
:1089B0001148104B0C680E794D79D0F8482189790F
:1089C0001C601E715D719971002ADCD02146D0F8BF
:1089D00044019047D7E70029D5D0022AD3D1064ACF
:1089E000D2F85031002BCED00988D2F84C019847EC
:1089F000C9E700BF00000120B02B01200020704714
:108A000070B40E06D0F8304241D41C20C1EBC10531
:108A1000002600FB014004EB850500F5FC7085F89D
:108A2000F811C5F8003285F8FB2185F8F961022AB2
:108A300001D10023037194F8B833012B18D0012120
:108A4000236884F8B81342788A4234D0067803F554
:108A5000006503F53063EA69B14003EB461342EA6F
:108A60000141E9611A68120405D5002384F8B8337E
:108A7000002070BC704782681D68C2F30A02C0788B
:108A80001B492A4342EA804211431960EDE701F095
:108A90007F011C200126C1EBC10500FB014004EB56
:108AA0008505383085F838102B6485F83B20E98738
:108AB00085F83960BBE7017803F5006503F51063BD
:108AC000EE698A4003EB411392B23243EA611A68BD
:108AD0001504CAD482681E68C2F30A02C578044825
:108AE000324342EA854242EA815210431860BCE7B1
:108AF00000800010F0B4002452004E1C2746030FE3
:108B0000B0F1204F4FEA001003F1300503F13703B5
:108B100034BF0D550B5537550234A242EFD1F0BC8E
:108B2000704700BF024808B5FFF7B0FE014808BD16
:108B3000E4040508E82B0120024808B5FFF7A6FE6B
:108B4000014808BDF4040508E82B01200B481A224F
:108B50000B4B00681B680A80C01801D10948704798
:108B6000094B0822094910B51C68FFF7C3FF04220E
:108B700007492046FFF7BEFF024810BD107AF01FDC
:108B8000187AF01F08000120147AF01F0A00012053
:108B90001A000120024808B5FFF778FE014808BD19
:108BA00000050508E82B012008B520B90448FFF7A7
:108BB0006DFE044808BD0448FFF768FE014808BD83
:108BC0000C050508E82B01203005050804230148A1
:108BD0000B80704724000120074A084B084830B436
:108BE0001468122503F114020D80844214BF184644
:108BF000104630BC704700BF4040024028000120B2
:108C00001010DDDD03460A2201481A80704700BFBC
:108C1000500001200346202201481A80704700BFFF
:108C20005C0001200346202201481A80704700BFE3
:108C30007C0001200346202201481A80704700BFB3
:108C40009C00012003460A2201481A80704700BF99
:108C5000BC0001200346432201481A80704700BF30
:108C6000C80001200346432201481A80704700BF14
:108C70000C0101200346432201481A80704700BFBF
:108C800050010120D0F81C3283B110B5D0F8184241
:108C900094F80002FF2807D09B68214694F801222F
:108CA0009847FF2384F80032002010BD0020704751
:108CB00001F00F01D0F83022C1EBC10102EB8102BB
:108CC00038B5D0F81832D0F81C52B2F8104203F57B
:108CD0000371EA68D3F80402C3F80C4290470020FD
:108CE00038BD00BFD0F818321BB10020C3F8140201
:108CF00070470220704700BF08B5D0F814321BB18E
:108D00001B68984700B908BD022008BD0B4B01E065
:108D1000013B10D00269002AFADA0369074A43F0DE
:108D20000103036101E0013A05D0036913F0010377
:108D3000F9D1184670470320704700BF400D03006B
:108D400010B400240129C0F8104BD0F8104B44F4A3
:108D50000024C0F8104BD0F8104B44F01804C0F8B1
:108D6000104BD0F8104B44F0C044C0F8104B05D164
:108D70004FF08021C0F8142BC0F8001B00205DF8D4
:108D8000044B70474AB2002A10B5D0F8304229DBB4
:108D90001C2303FB014303F5FC73D20F0120197060
:108DA0005A70987094F8B823824219D084F8B803A6
:108DB0005A782068012A1A781BD000F5306303EB3B
:108DC00042131A68002A03DB1A6822F080421A60F4
:108DD0001A6842F400121A60B9B1002384F8B8335B
:108DE000002010BD01F07F011C2303FB0143383339
:108DF000D3E700F5106303EB42131A68002AE7DBA0
:108E00001A6822F080421A60E2E704F56F72217C52
:108E1000FFF796FFE1E700BF026C03463AB11A6C18
:108E2000D20608D50022012083F83C207047426416
:108E300080F83C20F3E71A6C4B494C4811401A6803
:108E400041F00201F0B419644168494D21F4403108
:108E5000416041685C68214341605168186921F4B0
:108E60008071D3F808C0DF68516054689E6A44EA94
:108E70000024AE425460546824F04074546050683A
:108E800040EA0C005060906820F4006090609168A7
:108E900041EA0701916059D09068DC6A20F0706067
:108EA000906091680E439660906820F0405090600A
:108EB00091682143916090689D6920F002001C6ACE
:108EC0009060916841EA450191605168002C46D05C
:108ED00041F400614FF460405160516821F46041F9
:108EE000516090FAA0F0596AB0FA80F054680139E4
:108EF000814021435160D06A0026DD6920F4700072
:108F0000D3F830C0691E5F69D0623046D56A45EA41
:108F10000155D562956825F400759560946844EA1A
:108F20004C249460946824F480649460916841EACD
:108F3000872191605E641A6C22F0030242F0010204
:108F40001A64002283F83C20F0BC7047916821F03D
:108F500070619160916821F040519160ABE721F41C
:108F600000615160C7E700BFFDEEFFFF0023014035
:108F70000100000F2DE9F843884600294FD047181B
:108F8000461E284C802507F1FF39EFF3118185F348
:108F90001288D4F83821C9B2D4F83C01D4F8383159
:108FA000D4F83CC181F31188634594BF4FF400634A
:108FB0000023121A1344012B1AD1012031F0F0FDC5
:108FC000EFF3118185F31288D4F83821C9B2D4F8AF
:108FD0003C01D4F83831D4F83C7181F31188BB429C
:108FE00094BF4FF400630023121A1344012BE4D002
:108FF000EFF3118285F31288D4F83C31D2B216F81F
:10900000011F234483F85811D4F83C310133C3F3D2
:109010000A03C4F83C3182F311884E45B5D140466D
:10902000BDE8F883B02B0120F8B5002390F84C5030
:1090300080F84C30CDB10F4E96F8542B032A16D140
:10904000D6F88C7B00F1380429462046FFF792FFC2
:10905000D6F88C3B2D1A0444DB1B322B01D8002D93
:10906000F2D1B5FA85F04009F8BD0120FCE71846B9
:10907000FAE700BFB02B0120002280F84D20D3E793
:1090800090F84C20531C0244DBB280F84C3082F83C
:10909000381090F84D200AB1132B00D9C4E770475F
:1090A000F8B50B4E0D46144696F8543B032B0ED1E3
:1090B000D6F88C7B002C0ADD21462846FFF75AFFA4
:1090C000D6F88C3B241A0544DB1B322BF2D9F8BDB1
:1090D000B02B01200128544B2DE9F0410D462DED18
:1090E000028B82B05AD0514E9A68371F9B890092EA
:1090F000ADF80430DFF854819FED4D8AD8F8A036E2
:109100004C4C07EE903A4C49BDF80020F8EE677AD7
:109110003960B4FBF3F427EE888A8AB194420FD306
:10912000002D6ED0012D0BD1DFF810C107EE902A73
:1091300019463046B8EE670AC7F800C03AF092FE0A
:10914000BDF802308BB19C420FD3002D46D0012DCB
:109150000BD13A4A07EE903AD8F8A01606F124004F
:10916000B8EE670A3A603AF07DFEBDF8043083B38A
:109170009C422ED3DDB1012D2BD107EE903A2F4A20
:1091800006F14800D8F8A016B8EE670A3A6002B0B7
:10919000BDEC028BBDE8F0413AF064BED3F80E207E
:1091A000274E5B8A371F0092ADF80430A2E707EE26
:1091B000903ADFED246A244A0023F8EEE77A3A6019
:1091C000B36486EEA77A77EE087A88EE277A86ED82
:1091D000137A02B0BDEC028BBDE8F08107EE903A45
:1091E000DFED186A184A0023F8EEE77A3A607362F6
:1091F00086EEA77A77EE087A88EE277A86ED0A7AE5
:10920000B3E707EE902ADFED0F6A0F4A0023F8EE6E
:10921000E77A3A60336086EEA77A77EE087A88EECE
:10922000277A86ED017A8BE7B02B012044060020D7
:10923000BD37863520A10700F52300004923000033
:10924000B406002083F9223ED923000084050020C3
:109250002DE9F047344C002294F8D43394F8D51318
:10926000013384F89426DBB2994284F8D4332DED8F
:10927000048B82B009D094F86C35002B41F02C821D
:1092800002B0BDEC048BBDE8F087284F94EDF68A60
:1092900097F8905BB7F9980B0F2D94F8E86384F872
:1092A000D42300F0D78694EDF77A06F12602D4EDA8
:1092B000F87A04EB860327EE087A04EB820267EE65
:1092C000887A83EDFB7A06F14603C2EDF57A002237
:1092D000D4EDF97A04EB8303C4F8DC2327EE888A03
:1092E000C4F8E02383EDF58AC4F8E423731C0C2250
:1092F000A7F8980B03F01F0384F86C2584F8E83373
:10930000102D00F0CF8694F86D850026B8F1060F79
:1093100000F21C86DFE818F0E407340645060C006E
:10932000D900EA06E10700BF84050020B02B012028
:10933000EC4B102D1A4693ED037AD3ED057AB2EC7F
:10934000011A27EE073A67EEA73A93ED077A92EDF6
:10935000006AD3ED097A27EE074AD3ED0B6A66EE71
:10936000062A93ED0D7A67EEA74AD3ED0F7A26EE23
:10937000A65AD3ED021A67EE075A93ED042A27EE98
:10938000A76AD3ED116AE1EE012A93ED137AA1EEFB
:10939000A13AD3ED157AE2EE023AD3ED060A66EE73
:1093A000A66A93ED081A27EE077AD3ED0A1A67EE3C
:1093B000A77A93ED0C2AA0EEA04AE1EE014AD3ED84
:1093C0000E0AA1EEA15A93ED101AE2EE025AD3ED65
:1093D000121A93ED142AA0EEA06AE1EE016AE2EE01
:1093E000027AA1EEA17AB1EEE22AF1EEC32AB1EE41
:1093F000E33AF1EEC43A03ED202AB1EEE44A43ED3C
:109400001F2AF1EEC54A03ED1E3AB1EEE55A43EDCF
:109410001D3AF1EEC65A03ED1C4AB1EEE66A43ED81
:109420001B4AF1EEC76A03ED1A5AB1EEE77A43ED33
:10943000195A03ED186A43ED176A03ED167A93ED96
:10944000177AD3ED197A67EE075AD3ED1B6A27EE28
:10945000A76A93ED1D7AD3ED1F7A66EEA66AD3ED67
:10946000164A27EE077A93ED185A67EEA77AE4EECC
:10947000A45A93ED1A4AA5EE056AD3ED1C4A93ED62
:109480001E5AE4EE046AA4EEA47AE5EE057AB1EE83
:10949000E55AF1EEC65AB1EEE66AF1EEC76A03ED9F
:1094A000155AB1EEE77A43ED145A03ED136A43ED12
:1094B000126A03ED117A01F0568094F86D8508F177
:1094C00001085FFA88F884F86D8594F830370F2B1F
:1094D00001F335800D2B04EB830103F1010C01F244
:1094E000538003F16C0201F2845104EB8202D1ED4E
:1094F000007A92EDF67AB4EE677AF1EE10FA05DDB5
:10950000B5EEC07AF1EE10FA01F307800020DFED2E
:10951000767A0CF16C0204EB8202D2EDF66AF4EE7C
:10952000476AF1EE10FA08DDF4EE676AF1EE10FA20
:1095300003DDF0EE667A5FFA8CF0D91C03F1020CC1
:109540000E29624600F3148103F16E0204EB8202DD
:1095500092EDF67AB4EE667AF1EE10FA08DDB4EE2A
:10956000677AF1EE10FA03DDF0EE477A5FFA8CF0DD
:1095700003F16F0204EB8202D2EDF66AF4EE476A61
:10958000F1EE10FA07DDF4EE676AF1EE10FA02DD93
:10959000F0EE667AC8B2591D03F1040C0E2962463A
:1095A00000F3E68003F1700204EB820292EDF67A9A
:1095B000B4EE667AF1EE10FA08DDB4EE677AF1EEF9
:1095C00010FA03DDF0EE477A5FFA8CF003F17102D6
:1095D00004EB8202D2EDF66AF4EE476AF1EE10FA7D
:1095E00007DDF4EE676AF1EE10FA02DDF0EE667A5E
:1095F000C8B2D91D03F1060C0E29624600F3B880EB
:1096000003F1720204EB820292EDF67AB4EE667A0E
:10961000F1EE10FA08DDB4EE677AF1EE10FA03DD30
:10962000F0EE477A5FFA8CF003F1730204EB8202EA
:10963000D2EDF66AF4EE476AF1EE10FA07DDF4EEC9
:10964000676AF1EE10FA02DDF0EE667AC8B203F155
:10965000090103F1080C0E29624600F3898003F129
:10966000740204EB820292EDF67AB4EE667AF1EEC1
:1096700010FA08DDB4EE677AF1EE10FA03DDF0EED1
:10968000477A5FFA8CF003F1750204EB8202D2EDA7
:10969000F66AF4EE476AF1EE10FA07DDF4EE676A57
:1096A000F1EE10FA02DDF0EE667AC8B203F10B01BA
:1096B00003F10A0C0E2962465ADC03F1760204EB30
:1096C000820292EDF67AB4EE667AF1EE10FA0DDDD2
:1096D000B4EE677AF1EE10FA08DDF0EE477A5FFA41
:1096E0008CF003E08C0B00200000000003F17702F7
:1096F00004EB8202D2EDF66AF4EE476AF1EE10FA5C
:1097000007DDF4EE676AF1EE10FA02DDF0EE667A3C
:10971000C8B203F10C01012B0A4629DC03F17802DF
:1097200004EB820292EDF67AB4EE667AF1EE10FA6C
:1097300007DDB4EE677AF1EE10FA02DDF0EE477A5B
:10974000C8B203F1790204EB8202D2EDF66AF4EEBC
:10975000476AF1EE10FA09DDF4EE676AF1EE10FAED
:1097600004DD03F10D00F0EE667AC0B203F10E02E3
:1097700002F16C0102F16B0304EB810C04EB830337
:109780009CEDF67AD3EDF66AF4EE476AF1EE10FA44
:1097900007D5B4EE677AF1EE10FA02DDF0EE477A03
:1097A000D0B20F2A02F1010C00F0958102F16D0395
:1097B00004EB810104EB8303D1EDF66A93EDF67AB5
:1097C000F4EE476AF1EE10FA05D5B4EE677AF1EEE1
:1097D00010FA00F3E2860E2A02F1020100F07B810A
:1097E00001F16C0201F16B0304EB820204EB8303D1
:1097F00092EDF67AD3EDF66AF4EE476AF1EE10FADE
:1098000005D5B4EE677AF1EE10FA00F3D1860F2990
:1098100001F1010C00F05F810CF16C020CF16B03A3
:1098200004EB820204EB830392EDF67AD3EDF66A41
:10983000F4EE476AF1EE10FA05D5B4EE677AF1EE70
:1098400010FA00F3BF86BCF10F0F0CF1010100F01C
:10985000428101F16C0201F16B0304EB820204EB23
:10986000830392EDF67AD3EDF66AF4EE476AF1EEF1
:1098700010FA05D5B4EE677AF1EE10FA00F3AE8671
:109880000F2901F1010C00F026810CF16C020CF1A2
:109890006B0304EB820204EB830392EDF67AD3EDC3
:1098A000F66AF4EE476AF1EE10FA05D5B4EE677A7F
:1098B000F1EE10FA00F39C86BCF10F0F0CF10101E0
:1098C00000F0098101F16C0201F16B0304EB8202EB
:1098D00004EB830392EDF67AD3EDF66AF4EE476A71
:1098E000F1EE10FA05D5B4EE677AF1EE10FA00F356
:1098F00093860F2901F1010C00F0ED800CF16C0250
:109900000CF16B0304EB820204EB830392EDF67A15
:10991000D3EDF66AF4EE476AF1EE10FA05D5B4EE2F
:10992000677AF1EE10FA00F38186BCF10F0F0CF1AB
:10993000010100F0D08001F16C0201F16B0304EB36
:10994000820204EB830392EDF67AD3EDF66AF4EE2D
:10995000476AF1EE10FA05D5B4EE677AF1EE10FA27
:1099600000F370860F2901F1010C00F0B4800CF1B6
:109970006C020CF16B0304EB820204EB830392EDA7
:10998000F67AD3EDF66AF4EE476AF1EE10FA05D5F1
:10999000B4EE677AF1EE10FA00F35E86BCF10F0FB9
:1099A0000CF1010100F0978001F16C0201F16B03F1
:1099B00004EB820204EB830392EDF67AD3EDF66AB0
:1099C000F4EE476AF1EE10FA05D5B4EE677AF1EEDF
:1099D00010FA00F34D860F2901F1010C7BD00CF138
:1099E0006C020CF16B0304EB820204EB830392ED37
:1099F000F67AD3EDF66AF4EE476AF1EE10FA05D581
:109A0000B4EE677AF1EE10FA00F33C86BCF10F0F6A
:109A10000CF101015FD001F16C0201F16B0304EB69
:109A2000820204EB830392EDF67AD3EDF66AF4EE4C
:109A3000476AF1EE10FA05D5B4EE677AF1EE10FA46
:109A400000F32C860F2901F1010C44D00CF16C02BB
:109A50000CF16B0304EB820204EB830392EDF67AC4
:109A6000D3EDF66AF4EE476AF1EE10FA05D5B4EEDE
:109A7000677AF1EE10FA00F31B86BCF10F0F0CF1C0
:109A8000010128D001F16C0201F16B0304EB8202A9
:109A900004EB830392EDF67AD3EDF66AF4EE476AAF
:109AA000F1EE10FA05D5B4EE677AF1EE10FA00F394
:109AB0000B860E290FD1F54B93ED007A53ED016A19
:109AC000B4EE667AF1EE10FA05DDB4EEE77AF1EE67
:109AD00010FA00F3C884002800F0EE84431E012B26
:109AE00040F3928500F16B0200F16A0304EB8202FD
:109AF00004EB830392EDF67A821ED3EDF66AF4EE60
:109B0000C76AF1EE10FA00F3B180012A00F0AE80CE
:109B100000F16903C21E04EB830393EDF67AB4EE01
:109B2000E67AF1EE10FA00F30685012A00F00385CB
:109B300000F16803021F04EB8303D3EDF66AF4EE31
:109B4000C76AF1EE10FA00F39180012A00F08E80CE
:109B500000F16703421F04EB830393EDF67AB4EE42
:109B6000E67AF1EE10FA00F3E684012A00F0E384CD
:109B700000F16603821F04EB8303D3EDF66AF4EE73
:109B8000C76AF1EE10FA71DC012A6FD000F16503AB
:109B9000C21F04EB830393EDF67AB4EEE67AF1EE9E
:109BA00010FA00F3C884012A00F0C58400F16403B0
:109BB000A0F1080204EB8303D3EDF66AF4EEC76A62
:109BC000F1EE10FA52DC012A50D000F16303A0F14B
:109BD000090204EB830393EDF67AB4EEE67AF1EE34
:109BE00010FA00F3A884012A00F0A58400F16203B2
:109BF000A0F10A0204EB8303D3EDF66AF4EEC76A20
:109C0000F1EE10FA32DC012A30D000F16103A0F14C
:109C10000B0204EB830393EDF67AB4EEE67AF1EEF1
:109C200010FA00F38884012A00F0858400F16003B3
:109C3000A0F10C0204EB8303D3EDF66AF4EEC76ADD
:109C4000F1EE10FA12DC012A10D000F15F03A0F14E
:109C50000D0204EB830393EDF67AB4EEE67AF1EEAF
:109C600010FA00F36884022A07FE267A431C0E2BA2
:109C700000F3CE8400F16D0100F16E0204EB81016E
:109C800004EB8202D1EDF66A811C92EDF66AB4EE25
:109C9000E66AF1EE10FA00F32B840F2900F0BB8086
:109CA00000F16F02C11C04EB8202D2EDF66AF4EE01
:109CB000C66AF1EE10FA00F319840F2900F06A84E5
:109CC00000F17002011D04EB820292EDF66AF4EEDF
:109CD000C66AF1EE10FA00F10B840F2900F09B80A8
:109CE00000F17102411D04EB8202D2EDF66AF4EE3E
:109CF000C66AF1EE10FA00F3F9830F2900F04A84E6
:109D000000F17202811D04EB820292EDF66AB4EE5C
:109D1000E66AF1EE10FA00F3EB830F297BD000F135
:109D20007302C11D04EB8202D2EDF66AF4EEC66A3C
:109D3000F1EE10FA00F3DA830F2900F02B8400F122
:109D4000740200F1080104EB820292EDF66AB4EEAF
:109D5000E66AF1EE10FA00F3CB830F295BD000F135
:109D6000750200F1090104EB8202D2EDF66AF4EE0D
:109D7000C66AF1EE10FA00F3B9830F2900F00A84E5
:109D800000F1760200F10A0104EB820292EDF66A1C
:109D9000B4EEE66AF1EE10FA00F3AA830F293AD086
:109DA00000F1770200F10B0104EB8202D2EDF66ABA
:109DB000F4EEC66AF1EE10FA00F398830F2900F072
:109DC000E98300F1780200F10C0104EB820292EDCC
:109DD000F66AB4EEE66AF1EE10FA00F389830F2911
:109DE00019D000F1790200F10D0104EB8202D2EDED
:109DF000F66AF4EEC66AF1EE10FA00F377830E29E4
:109E000040F0C883214A92ED006AB4EEE66AF1EEB2
:109E100010FA00F36D8387FE667AC7EE878A94F89E
:109E20006E9509F1AC0A04EB8A02B2EE007AF7EE05
:109E3000007A92EDF68AC8FEC78AC8FEA78A00F1AA
:109E40006C0207EE900ADBB204EB8202F8EEE76ADE
:109E50000F2B92EDF67A27EE077A66EE876A00F20C
:109E6000078303F16C0207EE903A012804EB8203AA
:109E7000F8EEE77A93EDF66A26EE066AE6EE276AD2
:109E800037EE067A00F2F48202E000BF480B0020B1
:109E9000B5EEC07AF1EE10FA40F3FD8286EE879AB5
:109EA0008C4B93ED007A29EE077AB4F8383707EE39
:109EB000903AB4F83C37F8EE677AF4EEC77AF1EEF0
:109EC00010FA05DC07EE903AF8EE677AC7FEC77A1B
:109ED000814B77EEC87A04EB8A0A93ED007A28EE7C
:109EE000877AA7EE278A8AEDF68A29F09DFB00285B
:109EF000B8BF4042C3B2142B0DD9B4F8443707EEB3
:109F0000903AF8EEE77A87FE888ABCEEC88A18EEA7
:109F1000103AA4F84437B9F1000F40F0D0800F2D6B
:109F200000F00083112D40F0CA806C4B9FED6C0A4D
:109F3000D3ED007A28EE800AFDEEE77A17EE903A2C
:109F4000A7F8943B3EF008FFA7F8960B08F101082C
:109F5000644B94F86C25A3FB0813013AA8EB0301AA
:109F600084F86C2503EB51039B08C3EBC303A8EBF8
:109F7000030384F86D3502B0BDEC048BBDE8F087B7
:109F8000D4F87825B4F87C1557483DF0EDFE97F8E5
:109F9000905B102D00F0F08294F86D35013384F859
:109FA0006D35DFF844C1B0EE006AB4F87005F6EE26
:109FB000006A6246D4F8841501380CF19003F2EC83
:109FC000015AB0EE664A1031D2ED007A0CEBC002B5
:109FD00077EEA77A083AB0EE677AD5EE867AA5EEE4
:109FE000867A67EEA67A27EE267ACCED217A8CED7A
:109FF000207AD2ED036A0138D2ED027A01F108012C
:10A0000053ED215AA2F1080253ED224A03F108034D
:10A0100035EEE67A11ED036A37EEE45A77EEA47A6C
:10A0200076EEA56A51ED045AA6EE057AE5EE857A3C
:10A03000A5EEE67AE6EE267A27EE047A67EE847AD3
:10A0400003ED037A43ED047AD3D1102D3AD094F87E
:10A050006D857BE794EDF70A04EB860328EE000A92
:10A0600083EDFB0A3EF078FED4EDF87A06F1260285
:10A0700006F1460367EE887A002104EB820204EBC6
:10A080008303C4F8DC13C2EDF57A00B2D4EDF97A9B
:10A09000C4F8E01327EE888A83EDF58AC4F8E41348
:10A0A000FFF724B930F036FC97F8905B94F86D8593
:10A0B0000646102D08BFA7F8948BFFF727B9102D7F
:10A0C0007FF444AF30F026FC801B94F86D85A7F830
:10A0D000960B3BE7B80C0020C40C00200C0C0020B1
:10A0E0000000C842254992240C0B002094F86E35DC
:10A0F0000120EB49102D1A4684F8953603F1AC0384
:10A1000084F8940604EB8303D3F8D8330B6000F093
