:020000040800F2
:10000000000001201DBA040899BA0408491E04081A
:10001000891E040899BA040899BA0408000000006F
:1000200000000000000000000000000099BA040871
:1000300099BA04080000000099BA0408D11904080C
:1000400099BA040899BA040899BA040899BA040834
:1000500099BA040899BA0408A91F0408D52004080D
:10006000992004085D200408212004084DA30408F9
:100070003DA304082DA304081DA3040809A3040834
:10008000F5A20408E1A2040899BA040899BA040880
:1000900099BA040899BA040899BA0408E51F040833
:1000A00051940408C594040899BA0408B594040846
:1000B000A59404089594040885940408E5A404080C
:1000C00009A5040825A4040849A4040899BA040849
:1000D00099BA040881540408755404086954040842
:1000E0006D1F040899BA040899BA040899BA04085B
:1000F0007194040899BA040861940408CDA2040814
:1001000099BA040899BA04087594040899BA0408BD
:100110005D5404085154040899BA0408050D0108F7
:10012000B9A20408A5A2040891A204087DA20408AB
:1001300069A20408000000000000000000000000A8
:100140000000000000000000000000000111010894
:1001500055A2040841A204082DA2040899BA040873
:100160005DA3040885A3040899BA040899BA040891
:1001700099BA040899BA04080000000000000000C1
:1001800099BA040899BA040899BA040899BA0408F3
:1001900099BA040899BA04080000000099BA040842
:1001A00000000000000000000000000099BA0408F0
:1001B00099BA040899BA0408000000000000000081
:1001C000000000000000000000000000000000002F
:1001D00000000000000000000000000099BA0408C0
:0801E00074B5040001000000E9
:1001E8000510060044690120506901200000000044
:1001F8004C070008130203004069012058690120D8
:100208000000000052070008040080003468012044
:100218005C690120000000000000000023001000BD
:10022800E8670120206A012000000000451B020841
:100238000D003C00785D0120306A012000000000BC
:10024800BD35030813000400C45C01206C6A01205A
:100258000000000058070008F6210C00C85C0120C7
:10026800706A0120000000005C070008F531740086
:10027800FC5B01207C6A01200000000009A5010840
:100288000B301400E85B0120F06A01200000000038
:100298006807000801010400E45B0120046B0120E9
:1002A800000000000000000000010400E05B0120E5
:1002B800086B0120000000007C0700080201030011
:1002C800DC5B01200C6B012000000000D93403081E
:1002D80006101800A05B0120106B01200000000030
:1002E80025950208FB0101009C5B0120286B012079
:1002F80000000000FD130408FC010900685A0120F1
:100308002C6B0120000000000D140408F901040002
:10031800605A0120386B012000000000F9F9030839
:1003280002000C00305A01203C6B01200000000044
:10033800000000000A603600182C0120486B0120DC
:100348000000000080070008340010005859012000
:10035800806B012000000000F594020811020800DB
:1003680030590120906B012000000000B6070008FA
:100378001212040028590120986B01200000000087
:10038800BE07000818202C00FC5801209C6B012097
:1003980000000000F109040812200D00D4580120C3
:1003A800C86B012000000000C2070008FF01080018
:1003B80028560120D86B01200000000091FD030899
:1003C800FD012100E8510120E06B01200000000040
:1003D8007DF9030802020300FC2D0120046C0120B2
:1003E80000000000000000000C020300E82D0120BE
:1003F800086C0120000000007DFE0308FE010900D2
:10040800544201200C6C0120000000005DFE03082E
:100418001F201C0084B001208CB3012000000000C4
:10042800D00700080502040040B10120A8B301204C
:1004380000000000EC07000803010A0052B0012088
:10044800ACB3012000000000F00700080902010019
:10045800D0C0012048C1012000000000FA070008B0
:100468000C20B4008ABC01204CC10120000000000F
:10047800993403080102050090BB012000C2012045
:100488000000000089A001080002050088BB0120C7
:1004980008C2012000000000000000001B02080044
:1004A80064BB012010C20120000000008DFE03087B
:1004B80001200800C8BF012018C201200000000068
:1004C800FC0700081900050048C0012020C20120CF
:1004D800000000000408000837001E0020C00120AA
:1004E80028C20120000000000A0800081E000500BC
:1004F80040B9012048C20120000000002808000877
:100508001B00F40044B4012050C201200000000088
:10051800ADA601080E020200F8BE012044C3012066
:10052800000000002E0800082F001100F0C0012074
:1005380048C30120000000003008000826000E0013
:100548006CC301205CC3012000000000C5970108AE
:100558002C00100020CF012010CF01200000000047
:10056800852802082B00240054CF012030CF012019
:1005780000000000592802082910780020CE012028
:1005880078CF0120000000000000000028101000B3
:1005980018CD0120F0CF012000000000311B020817
:1005A8001400040000CD012000D00120000000004C
:1005B800420800080E80620110C4012004D0012006
:1005C800000000009D9402081A000E00ECD60120DD
:1005D800A4D901200000000046080008F821060000
:1005E80086D30120B4D90120000000005408000877
:1005F800031233005CD201206ED9012000000000F4
:100608005A08000825009600F0D20120D8D8012009
:100618000000000000000000150070006CD10120EF
:1006280068D8012000000000000000002A006000D7
:1006380090D2012008D8012000000000759402081B
:1006480018020200D1DC012048DD01200000000072
:100658000000000017020B00C6DC01204CDD012061
:1006680000000000DDFD03080702020004DD012090
:1006780058DD0120000000008E0800080602100066
:10068800D3DC01205CDD012000000000190404080F
:1006980008120C00BADC01206CDD0120000000000B
:1006A80025FE0308F7010600B4DC012078DD0120EF
:1006B80000000000900800080A020A00B4DB0120CC
:1006C80080DD0120000000009608000803000100FA
:1006D80068DC01208CDD0120000000000000000023
:1006E8001010030074DB012090DD012000000000E1
:1006F800A0080008160008003CE1012048E101209C
:1007080000000000A40800081A023C0070E1012063
:1007180024E7012000000000AD08040827000400B9
:1007280064E7012060E7012000000000AC08000831
:100738001002010070E701206CE7012000000000B2
:04074800B0080008ED
:10074C00200002010000000000000000080444101A
:10075C000000000001000000020200002B21231EFB
:10076C0064010100000001000A012900230A0000B5
:10077C00B3000000003001000000000073007300A3
:10078C0069000000000000000000000000000000F4
:10079C000000020000019E077D00FA00960058023E
:1007AC00B80BB80BB80B2000C40900000000010105
:1007BC000101FFFFFFFF000000010000054D4B464B
:1007CC0037000000000000000001000000050000E0
:1007DC000102030000000000000000000000000007
:1007EC0000000000040101006C1600000000000075
:1007FC00E8036400040A0001000028010000200046
:10080C003200C800D0079600140032002800B00453
:10081C0040060005500014000F0008010000010004
:10082C0000000000000000000000000000000000BC
:10083C00000000000000030000467E05EA05B40538
:10084C000300E803D00700000101F40114000000CC
:10085C00000000000000000000000000000000008C
:10086C00000000000000000000000000000000007C
:10087C00000000000000000000000000000000006C
:10088C000100013C3D010000000000004A01B400E1
:10089C00D601000000050000C4090700B401282897
:0508AC00200300000024
:1008B1000100000000C20100000008001A0300004E
:1008C1000000000000000000000000000000000027
:1008D10000000000000000000403090412010002EE
:1008E100020000408304405700020102030100009E
:1008F100120100020000004083042A570002010295
:10090100030110000060024010600240000000007E
:1009110000000000000B00000000000000000000CB
:100921000000000000600240286002400100000059
:1009310000000000060C00000000000000000000A4
:100941000000000000600240406002400200000020
:1009510000000000100D0000000000000000000079
:1009610000000000006002405860024003000000E7
:1009710000000000160E0000000000000000000052
:1009810000000000006002407060024004000000AE
:1009910000000000200F0000000000000000000027
:1009A1000000000000600240886002400500000075
:1009B1000000000026100000000000000000000000
:1009C1000000000000600240A0600240060000003C
:1009D10000000000301100000000000000000000D5
:1009E1000000000000600240B86002400700000003
:1009F10000000000362F0000000000000000000091
:100A01000000000000640240106402400000000089
:100A1100000000000038000000000000000000009D
:100A21000000000000640240286402400100000050
:100A31000000000006390000000000000000000076
:100A41000000000000640240406402400200000017
:100A510000000000103A000000000000000000004B
:100A610000000000006402405864024003000000DE
:100A710000000000163B0000000000000000000024
:100A810000000000006402407064024004000000A5
:100A910000000000203C00000000000000000000F9
:100AA100000000000064024088640240050000006C
:100AB10000000000264400000000000000000000CB
:100AC1000000000000640240A06402400600000033
:100AD10000000000304500000000000000000000A0
:100AE1000000000000640240B864024007000000FA
:100AF1000000000036460000000000000000000079
:100B01000000000001010000358B0008298B00085E
:100B1100F18A0008058B0008A98A0008958A000857
:100B2100818A00082D390108C13801086570010862
:100B31000000000000000000F16E0108296F0108AB
:100B4100000000000000000000000000C52D0108A9
:100B5100B52D0108A52D0108952D01082DC400080A
:100B6100658B000899A70008618B000815E600084D
:100B710051A70008498A0008CC0201200080020226
:100B81001F00000053544D202020202050726F641C
:100B9100757420202020202020202020302E30316C
:100BA1000A060002000000400100000009072000C1
:100BB100010104C0320904000002080650050705BE
:100BC10081024000000705010240000009022000E7
:100BD100010104C03209040000020806500507059E
:100BE10081024000000705010240000009022000C7
:100BF100010104C03209040000020806500507057E
:100C01008102000200070501020002000A0600023B
:100C1100000000400100000009074300020104C078
:100C2100320904000001020201000524001001053F
:100C310024010001042402020524060001070582A3
:100C4100030800FF09040100020A00000007050172
:100C51000240000007058102400000000902430034
:100C6100020100C032090400000102020100052452
:100C710000100105240100010424020205240600DC
:100C8100010705820308001009040100020A00009F
:100C910000070501020002000705810200020000B1
:100CA10009024300020100C03209040000010202EE
:100CB10001000524001001052401000104240202A1
:100CC100052406000107058203080010090401003C
:100CD100020A000000070501024000000705810229
:100CE1004000000000FFFF0000000000AA550501C0
:100CF1000000012D202D2D202D2D2D2D202D2D2DD0
:100D01002D000000000000000000000000000000B5
:100D11000000AA550B010000AA5507010000AA55C1
:100D2100090200000000000001000000C012AA55E5
:100D310003009F00FF1FFF1F980401200400000013
:100D410068B3012000000000000200051002700BD2
:100D510000000100E00108010000803F0000803F29
:100D61000000000000000000000000000000000082
:100D71000000000000000000000000000000000072
:100D810000000000FFFF0100FFFFFFFF0101010064
:100D91002112020800000000540601207C460508CB
:100DA1000000000000000000000000000000000042
:100DB100242805080000000000000000D7060120DB
:100DC10004000000143E05080D000000ED2B020890
:100DD100A02A012000000000943405080D00000045
:100DE100152C0208942A0120000000006436050831
:100DF1000800000000000000882A01200400000013
:100E0100003505080D000000C91202087C2A0120E6
:100E110000000000BC350508030000009530020801
:100E2100702A0120000000008C4605080300000024
:100E310095300208642A012000000000F42F050803
:100E410001000000000000000000000000000000A0
:100E5100000000000E000000000000000000000083
:100E6100000000007C4605080000000000000000B2
:100E71000000000000000000242805080000000018
:100E810000000000D706012004000000C03D050855
:100E910003000000112A0208582A0120080000005E
:100EA100003505080D000000C91202087C2A012046
:100EB10000000000BC350508030000009530020861
:100EC100702A0120000000008C4605080300000084
:100ED10095300208642A012000000000F42F050863
:100EE1000100000000000000000000000000000000
:100EF100000000000E0000000000000000000000E3
:100F010000000000944605080000000000000000F9
:100F11000000000000000000242805080000000077
:100F210000000000D706012004000000C83D0508AC
:100F31000300000095300208AC2A012000000000E7
:100F4100F42F05080100000000000000000000006F
:100F510000000000000000000E0000000000000082
:100F6100000000000000000020700020702D7200C1
:100F71000100000000000000000000001426012014
:100F81000001010100D6012D202D2D202D2D2D2D0B
:100F9100202D2D2D000000000000000000000000A9
:100FA1000000000000000000FFFFFFFFFA0000004A
:100FB1000100000001000000FAC501200000F40159
:100FC10001000000F8C501200000F401010000004B
:100FD100F6C501200000F40101000000F4C5012064
:100FE1000000F40101000000F2C501200000F4013D
:100FF10001000000F0C501200000F4010100000023
:10100100EEC501200000F40101000000682F050871
:1010110000000000000000000000000000000000CF
:10102100802F050800000000000000000000000003
:1010310000000000A02F05080800000000000000CB
:101041005007012000000000AC2F05080800000037
:10105100000000004407012000000000B82F05082F
:101061000800000000000000380701200000000017
:101071006C3A050808000000000000002C07012060
:1010810000000000C42F0508080000000000000057
:101091002007012000000000D02F050808000000F3
:1010A100000000001407012000000000DC2F0508EB
:1010B10008000000000000000807012000000000F7
:1010C100E82F050802000000452F02080200000079
:1010D10000000000F42F05080100000000000000DE
:1010E1000000000000000000000000000E000000F1
:1010F100000000000000000000000000C519020807
:10110100851902085C070120ECC5012005320100A8
:10111100EAC50120E803D00701000000E8C501206D
:10112100E803D00701000000E6C50120E803D0076D
:1011310001000000E4C501201E00B80B0100000001
:10114100E2C501201E00F40101000000E0C50120FC
:101151001400640001000000DEC501200000C80089
:1011610001000000FC2F05080430050820300508A7
:10117100000000000000000000000000000000006E
:10118100802F0508000000000000000000000000A2
:1011910000000000902A050808000000000000007F
:1011A100A8080120000000003430050808000000F4
:1011B100000000009C0801200000000048300508E4
:1011C100080000000000000090080120000000005D
:1011D1005C300508080000000000000084080120C0
:1011E1000000000070300508080000000000000049
:1011F1007808012000000000803005080800000088
:10120100000000006C08012000000000903005087B
:10121100080000000000000060080120000000003C
:10122100A030050807000000000000005808012058
:1012310000000000B03005080300000095300208EE
:101241004C08012000000000E82F05080200000002
:10125100452F02080200000000000000F42F0508DD
:10126100010000000000000000000000000000007C
:10127100000000000E00000000000000000000005F
:1012810000000000E0300508000000000000000040
:1012910000000000000000003D2F050804000000D0
:1012A100892902080000000000000000F42F050851
:1012B100010000000000000000000000000000002C
:1012C100000000000E00000000000000000000000F
:1012D10000000000D46801200100C40900000000E2
:1012E100D26801200100C40900000000D06801207B
:1012F1000100C40900000000CE6801200100C409FA
:1013010000000000CA6801200100C40900000000BB
:10131100CC6801200100C40900000000C868012058
:101321000100C40900000000C66801200100C409D1
:1013310000000000A0C301200000FFFF0A00000020
:101341009EC301200100C800010000009CC30120D0
:1013510032003075320000009BC30120055A0500A0
:1013610098C3012000FF01009AC301200100000081
:10137100B408012096C30120020000009CF4040877
:1013810097C3012000FF010099C301200100000063
:10139100B408012095C30120020000009CF4040858
:1013A10090C3012080C1803E050000008EC3012052
:1013B10080C1803E050000008CC3012080C1803EB9
:1013C100050000008AC3012080C1803E05000000A5
:1013D10089C3012000FF010088C301200A320100F6
:1013E10087C301200400000068F9040886C30120B6
:1013F100020000007CF9040841190208FD180208E6
:10140100BC08012000C60120EE02CA08010000004C
:10141100FEC5012000C8010064000000FDC50120D7
:1014210000C8010064000000FCC5012002000000AA
:1014310088F904080000000000000000D409012020
:10144100F0B001209CFF2C0100000000DC04012011
:101451000A00000094F904087CC30120E0150C1770
:1014610000000000DE0401200800000040ED040837
:10147100DD04012005000000D4FA04087EC3012028
:1014810002000000ACF904080CC601200100FF7F36
:10149100010000000BC6012002000000B8F9040899
:1014A10084C501200000F4010100000082C5012073
:1014B1000000F4010100000080C501200000F401DA
:1014C100010000007EC501200000F40101000000C0
:1014D10094C501200100803E0500000090C5012057
:1014E1000000803E640000008EC501200000803EA7
:1014F100640000008CC501200000803E64000000F3
:1015010092C5012003000002010000008AC50120EC
:10151100C800E8030100000088C501201E00E8039F
:101521000100000086C501200000E8030100000061
:101531007CC501200000803E010000007AC5012029
:101541000000803E0100000078C501200000803EBF
:101551000100000076C501200000803E010000006E
:1015610074C501200000803E0100000072C5012009
:101571000000803E01000000C5C501201964010082
:10158100C9C5012000640100C8C501200064010033
:10159100C7C501200A320100C6C5012003000000B1
:1015A100C8F90408C2C50120E803D0070A000000F9
:1015B100C0C5012000FA01000A000000BFC50120DA
:1015C10000FA01000A000000BEC5012000FA010076
:1015D1000A000000ADC5012000640100ACC5012076
:1015E10000640100B4C50120006401000A0000008C
:1015F100B3C50120006401000A000000B2C501204A
:10160100006401000A000000B7C501200064010068
:101611000A000000B6C50120006401000A000000B4
:10162100B5C50120006401000A000000B1C5012018
:1016310000FF01000A000000B0C5012000FF010009
:101641000A000000AFC5012000FF01000A000000F0
:10165100BDC50120005F01000A000000BCC50120DA
:10166100005F01000A000000BBC50120005F01000E
:101671000A000000BAC50120005F01000A00000055
:10168100B9C5012019AF01000A000000B8C5012049
:1016910019AF01000A000000FEC30120000A010089
:1016A100FDC30120000A0100FCC30120000A010062
:1016B1000EC4012000FA01000DC4012000FA01004E
:1016C1000CC4012000FA01000AC401200000F40149
:1016D1000100000008C401200000F4010100000025
:1016E10006C401200000F4010100000004C401202F
:1016F1000000F4010100000002C401200000F40117
:101701000100000000C401200000F40101000000FC
:10171100AAC50120FF080100A9C50120016401003B
:10172100A8C5012000640100A7C501200100000037
:10173100D8F90408A6C5012000C80100A4C50120EC
:101741000000D00701000000A3C5012000C801006E
:10175100A2C5012000C80100A1C5012000C80100E7
:10176100A0C5012000C801009FC5012000FA0100A9
:101771000A0000009CC5012000FA01000A000000D7
:1017810099C5012000FA01000A0000009EC5012050
:1017910000FA01000A0000009BC5012000FA0100C7
:1017A1000A00000098C5012000FA01000A000000AB
:1017B1009DC5012000FA01000A0000009AC5012020
:1017C10000FA01000A00000097C5012000FA01009B
:1017D1000A000000CCC50120010A0100D4C5012086
:1017E10000FA0100D2C501200000E8030500000055
:1017F100DDC5012000C80100DCC5012000C80100D1
:10180100DBC5012000C80100DAC5012000C80100C4
:10181100D9C5012000C80100D8C5012000C80100B8
:10182100D7C5012000C80100D6C5012000C80100AC
:10183100D5C5012000C80100D0C5012000FA010072
:10184100CEC501200000E80305000000CBC5012042
:1018510000640100243105080000000000000000C0
:101861000000000000000000A83905080900000080
:1018710000000000780A012004000000C0390508BA
:1018810009000000000000006C0A012004000000B3
:10189100B83B05080900000000000000600A0120B3
:1018A10004000000F4290508090000000000000000
:1018B100540A012004000000343105080900000029
:1018C10000000000480A0120040000003C31050826
:1018D10009000000000000003C0A01200400000093
:1018E100443105080900000000000000300A012011
:1018F100040000004C310508090000000000000050
:10190100240A012004000000F42F05080100000052
:1019110000000000000000000000000000000000C6
:101921000E000000000000000000000000000000A8
:1019310070330508000000000000000000000000F6
:1019410000000000147A05080700000000000000F4
:10195100A80A0120000000008033050808000000EB
:10196100000000009C0A0120000000008C330508E3
:101971000800000000000000900A012000000000A3
:10198100943305080800000000000000840A0120CB
:1019910000000000E82F050802000000452F0208A2
:1019A1000100000000000000F42F05080100000004
:1019B1000000000000000000000000000000000026
:1019C1000E00000000000000000000000000000008
:1019D100A433050800000000000000000000000022
:1019E10000000000B43305080D00000000000000F5
:1019F100E40A012000000000BC3305080D000000CE
:101A010000000000D80A012000000000C4330508CE
:101A11000700000000000000D00A012000000000C3
:101A2100CC3305080D00000000000000C40A0120AD
:101A310000000000D43305080D0000000000000084
:101A4100B80A012000000000DC330508070000008F
:101A510000000000B00A012000000000E82F050886
:101A610002000000452F02080100000000000000F4
:101A7100F42F050801000000000000000000000034
:101A810000000000000000000E0000000000000047
:101A91000000000000000000E43305080000000021
:101AA100000000000000000000000000147A05089A
:101AB1000C00000000000000A2C301200000000093
:101AC100F83305080C00000000000000A4C3012049
:101AD10000000000083405080C00000000000000B0
:101AE100DAC3012000000000183405080C000000D2
:101AF10000000000CEC30120000000002C340508C6
:101B01000C00000000000000A6C30120000000003E
:101B1100383405080C00000000000000A8C30120B3
:101B210000000000403405080C0000000000000027
:101B3100AAC3012000000000543405080C00000075
:101B410000000000ACC30120000000005C34050867
:101B51000C00000000000000AEC3012000000000E6
:101B6100643405080C00000000000000ECC30120F3
:101B7100000000007C3405080C000000000000009B
:101B8100B0C3012000000000883405080C000000EB
:101B910000000000B2C30120000000002436050847
:101BA1000C00000000000000B4C301200000000090
:101BB100903405080C00000000000000B6C30120AD
:101BC100000000009C3405080C000000000000002B
:101BD100B8C3012000000000A83405080C00000073
:101BE10000000000BAC3012000000000B434050861
:101BF1000C00000000000000BCC301200000000038
:101C0100C03405080C00000000000000BEC3012024
:101C110000000000CC3405080C00000000000000AA
:101C2100D2C3012000000000D43405080C000000DC
:101C310000000000D0C3012000000000DC340508D2
:101C41000C00000000000000DEC3012000000000C5
:101C5100E83405080C00000000000000E0C301208A
:101C610000000000F43405080C0000000000000032
:101C7100E6C3012000000000FC2605080C0000005E
:101C810000000000C0C3012000000000003505086D
:101C91000C00000000000000C8C30120000000008B
:101CA100083505080C00000000000000C2C3012037
:101CB10000000000143505080C00000000000000C1
:101CC100C4C3012000000000203505080C000000FD
:101CD10000000000C6C301200000000028350508EF
:101CE1000C00000000000000CAC301200000000039
:101CF100682805080C00000000000000D4C3012082
:101D010000000000343505080C0000000000000050
:101D1100CCC3012000000000403505080C00000084
:101D210000000000DCC30120000000004C35050864
:101D31000C00000000000000D6C3012000000000DC
:101D4100543505080C00000000000000D8C3012034
:101D5100000000005C3505080C00000000000000D8
:101D6100E2C3012000000000643505080C000000FA
:101D710000000000E4C30120000000006C350508EC
:101D81000C00000000000000F4C30120000000006E
:101D9100F42F050801000000000000000000000011
:101DA10000000000000000000E0000000000000024
:101DB100000000000000000074350508000000006C
:101DC1000000000000000000000000008035050850
:101DD1000D000000000000003C0B0120000000008D
:101DE100883505080D00000000000000300B0120BF
:101DF1000000000090350508070000000000000009
:101E0100280B0120000000009C3505080700000098
:101E110000000000200B012000000000A83505088B
:101E21000900000000000000140B01200000000068
:101E3100B43505080900000000000000080B01206E
:101E410000000000C0350508090000000000000086
:101E5100FC0A012000000000D0350508090000003F
:101E610000000000F00A012000000000E82F050832
:101E710002000000452F02080100000000000000E0
:101E8100F42F050801000000000000000000000020
:101E910000000000000000000E0000000000000033
:101EA1000000000000000000E4350508000000000B
:101EB100000000000000000000000000802F050865
:101EC1000000000000000000000000000000000011
:101ED100F43505080D00000000000000780B01201A
:101EE10000000000003605080B00000000000000A3
:101EF1006C0B0120000000000C3605080B000000EF
:101F010000000000600B0120000000001C360508E5
:101F11000800000000000000540B01200000000038
:101F2100303605080300000095300208480B0120F7
:101F310000000000E82F050802000000452F0208FC
:101F41000200000000000000F42F0508010000005D
:101F51000000000000000000000000000000000080
:101F61000E00000000000000000000000000000062
:101F71003C360508000000000000000000000000E1
:101F8100000000004C3605080500000000000000BC
:101F9100FBC3012000000000E82F0508020000003B
:101FA100452F02080100000000000000F42F050881
:101FB100010000000000000000000000000000001F
:101FC100000000000E000000000000000000000002
:101FD1000000000054360508000000000000000069
:101FE1000000000000000000242805080000000097
:101FF10000000000430401200400000060360508D1
:102001000D000000ED290208CC0B012000000000AA
:10201100143E05080D000000D9110208C00B012073
:1020210000000000943405080D000000BD110208F5
:10203100B40B012000000000643605080800000010
:1020410000000000A80B0120040000000035050875
:102051000D000000091102089C0B01200000000086
:102061006C3605080900000000000000900B0120FB
:1020710004000000BC35050803000000953002088B
:10208100840B012000000000F42F0508010000006E
:10209100000000000000000000000000000000003F
:1020A1000E00000000000000000000000000000021
:1020B1007436050800000000000000000000000068
:1020C10000000000843605080D000000000000003B
:1020D100E40B0120000000008C3605080A00000016
:1020E10000000000C5C80120000000009836050866
:1020F1000A00000000000000CDC80120000000001F
:10210100A03605080A00000000000000D5C8012023
:1021110000000000A83605080800000000000000CB
:10212100D80B012000000000E82F05080200000084
:10213100452F02080100000000000000F42F0508EF
:10214100010000000000000000000000000000008D
:10215100000000000E000000000000000000000070
:1021610000000000B036050800000000000000007B
:102171000000000000000000C4360508080000004F
:1021810000000000BC0C012000000000D43605084E
:102191000800000000000000B00C01200000000059
:1021A100E43605080800000000000000A40C01202E
:1021B10000000000F43605080800000000000000DF
:1021C100980C0120000000000437050808000000F9
:1021D100000000008C0C01200000000014370508ED
:1021E1000800000000000000800C01200000000039
:1021F100243705080800000000000000740C0120CD
:102201000000000030370508080000000000000051
:10221100680C01200000000040370508080000009C
:10222100000000005C0C0120000000005037050890
:102231000800000000000000500C01200000000018
:10224100583705080800000000000000440C012078
:1022510000000000603705080800000000000000D1
:10226100380C012000000000683705080800000054
:10227100000000002C0C0120000000007037050850
:102281000800000000000000200C012000000000F8
:10229100803705080800000000000000140C012030
:1022A100000000008C370508080000000000000055
:1022B100080C012000000000983705080800000004
:1022C10000000000FC0B012000000000A4370508FD
:1022D1000800000000000000F00B012000000000D9
:1022E100E82F050802000000452F02080100000048
:1022F10000000000F42F05080100000000000000AC
:102301000000000000000000000000000E000000BE
:10231100000000000000000000000000B0370508C8
:102321000000000000000000BB06012000000000CA
:10233100BC3705080B00000000000000DC0D012087
:1023410000000000CC3705080B0000000000000071
:10235100D00D012000000000D83705080B00000057
:1023610000000000C40D012000000000E83705084E
:102371000B00000000000000B80D0120000000006B
:10238100F43705080B00000000000000AC0D01202F
:1023910000000000083805080B00000000000000E4
:1023A100A00D012000000000183805080B000000F6
:1023B10000000000940D01200000000024380508F1
:1023C1000B00000000000000880D0120000000004B
:1023D100303805080B000000000000007C0D0120D2
:1023E100000000003C3805080B0000000000000060
:1023F100700D012000000000483805080B000000A6
:1024010000000000640D01200000000054380508A0
:102411000B00000000000000580D0120000000002A
:10242100603805080B000000000000004C0D012081
:10243100000000006C3805080B00000000000000DF
:10244100400D012000000000783805080B00000055
:1024510000000000340D0120000000008438050850
:1024610007000000000000002C0D0120000000000A
:102471008C3805080700000000000000240D012031
:1024810000000000983805080B0000000000000063
:10249100180D012000000000A43805080B00000001
:1024A100000000000C0D012000000000B0380508FC
:1024B1000B00000000000000000D012000000000E2
:1024C100BC3805080800000000000000F40C0120E1
:1024D10000000000CC3805080D00000000000000DD
:1024E100E80C012000000000DC38050807000000AE
:1024F10000000000E00C012000000000EC3805089D
:102501000700000000000000D80C012000000000BE
:10251100FC3805080700000000000000D00C012075
:10252100000000000C390508070000000000000051
:10253100C80C012000000000E82F0508020000007F
:10254100452F02080100000000000000F42F0508DB
:102551000100000000000000000000000000000079
:10256100000000000E00000000000000000000005C
:1025710000000000203905080000000000000000F4
:1025810000000000000000003439050808000000C8
:1025910000000000540E012000000000443905082D
:1025A1000800000000000000480E012000000000AB
:1025B1005439050808000000000000003C0E01200D
:1025C1000000000064390508080000000000000058
:1025D100300E0120000000007439050808000000D9
:1025E10000000000240E01200000000088390508C9
:1025F1000800000000000000180E0120000000008B
:10260100983905080700000000000000100E0120A5
:1026110000000000B03905080700000000000000BC
:10262100080E012000000000C8390508070000005D
:1026310000000000000E012000000000DC39050848
:102641000700000000000000F80D0120000000005C
:10265100EC3905080700000000000000F00D012022
:1026610000000000003A050807000000000000001B
:10267100E80D012000000000E82F0508020000001D
:10268100452F02080100000000000000F42F05089A
:102691000100000000000000000000000000000038
:1026A100000000000E00000000000000000000001B
:1026B10000000000103A05080000000000000000C2
:1026C100B806012000000000203A05080B000000B8
:1026D10000000000180F0120000000002C3A05083E
:1026E1000B000000000000000C0F012000000000A2
:1026F100383A05080B00000000000000000F01201F
:1027010000000000443A05080B0000000000000032
:10271100F40E012000000000503A05080B000000F3
:1027210000000000E80E0120000000005C3A0508EE
:102731000B00000000000000DC0E01200000000082
:10274100683A05080B00000000000000D00E0120CF
:1027510000000000743A05080B00000000000000B2
:10276100C40E012000000000803A05080B000000A3
:1027710000000000B80E0120000000008C3A05089E
:102781000700000000000000B00E01200000000062
:10279100983A05080700000000000000A80E01207B
:1027A10000000000A43A0508070000000000000036
:1027B100A00E012000000000B43A05080700000047
:1027C10000000000980E012000000000C43A050836
:1027D10008000000000000008C0E01200000000035
:1027E100CC3A05080700000000000000840E01201B
:1027F10000000000D83A05080D00000000000000AC
:10280100780E012000000000E83A050807000000EA
:1028110000000000700E012000000000F43A0508DD
:102821000700000000000000680E01200000000009
:10283100043B05080600000000000000600E0120B6
:1028410000000000E82F050802000000452F0208E3
:102851000100000000000000F42F05080100000045
:102861000000000000000000000000000000000067
:102871000E00000000000000000000000000000049
:10288100143B05080000000000000000B80601200C
:10289100000000002C3B05080700000000000000BC
:1028A1009C0F012000000000383B050808000000D3
:1028B10000000000900F012000000000443B0508CB
:1028C1000700000000000000880F01200000000048
:1028D100503B05080700000000000000800F0120A8
:1028E10000000000583B0508070000000000000040
:1028F100780F012000000000603B05080700000080
:1029010000000000700F012000000000483A050897
:102911000700000000000000680F01200000000017
:10292100543A05080700000000000000600F012074
:1029310000000000603A05080700000000000000E8
:10294100580F012000000000683B05080700000047
:1029510000000000500F012000000000703B05083E
:102961000700000000000000480F012000000000E7
:10297100783B05080700000000000000400F01201F
:1029810000000000803B0508080000000000000076
:10299100340F012000000000903B050807000000F3
:1029A100000000002C0F012000000000A03B0508E2
:1029B1000700000000000000240F012000000000BB
:1029C100E82F050802000000452F02080100000061
:1029D10000000000F42F05080100000000000000C5
:1029E1000000000000000000000000000E000000D8
:1029F10000000000000000000000000000000000D6
:102A010005150208A40F0120F9C301202C000000C4
:102A1100E0F90408F8C3012000C80100F6C3012051
:102A2100E803D007010000004D4154454B463732C1
:102A31003200000094C301200003010093C3012070
:102A4100000301004D140208251402088010012022
:102A5100ED130208AD130208201101208D140208A4
:102A610075140208E811012031130208ED12020861
:102A710008150120311A0208051A0208F81501206B
:102A8100191502083D2C0208C01601204511020843
:102A91000000000024170120F52D0208911A0208F8
:102AA10000180120991602081D160208B418012009
:102AB100D11702081D1802086C1A0120ABC50120AC
:102AC10001060100A915020841150208C41C0120D4
:102AD100151702086D2C0208041E01205118020866
:102AE1002D2D0208D01F012096C5012001030100F0
:102AF100A83B0508000000000000000000000000E5
:102B010000000000B43B05080800000000000000C0
:102B11006C21012000000000BC3B050807000000FB
:102B2100000000006421012000000000CC3B0508EA
:102B31000D000000000000005821012000000000ED
:102B4100D83B050803000000953002084C21012004
:102B510000000000E82F050802000000452F0208D0
:102B61000100000000000000F42F05080100000032
:102B71000000000000000000000000000000000054
:102B81000E00000000000000000000000000000036
:102B9100E03B05080000000000000000000000000C
:102BA10000000000F03B05080A00000000000000E2
:102BB100E024050800000000F83B05080A000000B9
:102BC10000000000003C050800000000083C05086A
:102BD1000A0000000000000002C601200000000001
:102BE100103C05080A0000000000000078210120C7
:102BF10000000000F42F05080100000000000000A3
:102C01000000000000000000000000000E000000B5
:102C1100000000000000000000000000183C050852
:102C210000000000000000000000000000000000A3
:102C3100243C05080300000095300208AC21012066
:102C410000000000303C0508030000009530020838
:102C5100A021012000000000383C0508030000000D
:102C6100953002089421012000000000403C050835
:102C7100050000000000000092C3012000000000D8
:102C8100483C050807000000000000008C210120DD
:102C910000000000543C050807000000000000008F
:102CA1008421012000000000E82F05080200000037
:102CB100452F02080100000000000000F42F050864
:102CC1000100000000000000000000000000000002
:102CD100000000000E0000000000000000000000E5
:102CE10000000000603C050800000000000000003A
:102CF1000000000000000000743C05080300000013
:102D010095300208E821012000000000803C050800
:102D11000300000095300208E004012000000000DB
:102D2100883C05080300000095300208DC210120E1
:102D310000000000903C05080300000095300208E7
:102D4100D021012000000000602A050803000000D6
:102D510095300208C421012000000000003505085B
:102D61000300000095300208B82101200000000096
:102D7100E82F050802000000452F020801000000AD
:102D810000000000F42F0508010000000000000011
:102D91000000000000000000000000000E00000024
:102DA1000000000000000000000000009C3C05083D
:102DB1000000000000000000000000000000000012
:102DC100AC3C050807000000BD2D02083822012097
:102DD10000000000243505080300000095300208BA
:102DE1002C22012000000000B83C0508030000006F
:102DF100953002082022012000000000C03C050897
:102E01000300000095300208142201200000000098
:102E1100C83C050807000000A12D02080C22012072
:102E210000000000142A0508030000009530020884
:102E31000022012000000000D43C0508030000002E
:102E410095300208F421012000000000E82F050858
:102E510002000000452F02080100000000000000F0
:102E6100F42F050801000000000000000000000030
:102E710000000000000000000E0000000000000043
:102E81000000000000000000D5140208A51402088B
:102E9100402201205D1A020800000000E02201200A
:102EA10091130208751302086C2301200000000031
:102EB1000000000034240120D5180208D92D020891
:102EC100FC240120E03C0508000000000000000097
:102ED1000000000000000000402805080300000079
:102EE100953002080826012000000000EC3C05088E
:102EF1000300000095300208FC25012000000000BD
:102F01002C2705080300000095300208F025012058
:102F110000000000F83C050803000000953002089D
:102F2100E425012000000000043D05080300000025
:102F310095300208D8250120000000000C3D05084D
:102F410002000000452F0208000000000000000000
:102F5100E82F050802000000452F020801000000CB
:102F610000000000143D050802000000452F020882
:102F71000200000000000000000000000E00000040
:102F810000000000000000000000000082C30120DA
:102F910088136F170100000084C3012088136F1785
:102FA10000000000203D05080000000000000000B6
:102FB1000000000000000000303D0508080000008E
:102FC10000000000E8260120040000003C3D050847
:102FD1000800000000000000DC26012000000000C5
:102FE100BC35050804000000512A02080000000059
:102FF10000000000F42F050801000000000000009F
:103001000000000000000000000000000E000000B1
:1030110000000000000000000000000080C301204B
:1030210088136F170100000030B1012088136F175A
:10303100000000008112020800000000F4260120B7
:10304100C4C801200100000094FA040832B1012033
:1030510001000000A0FA040828B1012002000000CC
:10306100A8FA04082A6901200000000000000000FD
:1030710028690120000000000000000026690120ED
:103081000000000000000000246901200000000091
:103091000000000022690120000000000000000083
:1030A1002069012000000000000000007C040120D4
:1030B10000000000000000007FC3012002000000AA
:1030C100B4FA0408783D0508000000000000000083
:1030D1000000000000000000303D0508080000006D
:1030E1000000000078270120040000003C3D050895
:1030F10008000000000000006C2701200000000013
:10310100BC3505080400000055120208000000004B
:1031110000000000F42F050801000000000000007D
:103121000000000000000000000000000E00000090
:10313100000000000000000000000000883D0508BC
:10314100000000000000000000000000000000007E
:10315100983D05080D000000912B0208A8270120C9
:1031610004000000A43D05080D000000A51202089E
:103171009C27012004000000B03D05080D0000005F
:10318100552B02089027012000000000BC3D0508D6
:1031910003000000312A02088427012008000000F2
:1031A100C83D05080300000095300208AC2A012043
:1031B10000000000F42F05080100000000000000DD
:1031C1000000000000000000000000000E000000F0
:1031D100000000000000000000000000E0300508D1
:1031E10000000000000000000000000000000000DE
:1031F1003D2F050804000000692A020800000000B4
:1032010000000000F42F050801000000000000008C
:103211000000000000000000000000000E0000009F
:103221000000000000000000000000001C3E050836
:10323100000000000000000000000000000000008D
:10324100902505080D00000000000000082801205D
:10325100040000002C3E05080800000000000000EA
:10326100FC27012004000000383E0508080000008A
:1032710000000000F027012004000000403E050886
:103281000800000000000000E42701200400000005
:10329100483E05080800000000000000D827012072
:1032A10004000000503E0508080000000000000076
:1032B100CC27012004000000583E0508080000004A
:1032C10000000000C027012004000000603E050846
:1032D1000800000000000000B427012004000000E5
:1032E100F42F0508010000000000000000000000AC
:1032F10000000000000000000E00000000000000BF
:1033010000000000000000006D1202080000000033
:103311001428012000000000000000008C2801207A
:1033210000000000000000002C2901202EB1012026
:1033310004000000C0FA04082CB10120E0150C17AC
:10334100000000002BB101200800000040ED04083E
:103351002AB1012005000000D4FA04080000000091
:10336100000000007C290120FFFF00000000803FD9
:103371000000000000000000000000000000803F8D
:103381000000000000000000000000000000803F7D
:10339100000000000000000000000000FFFFFFFF30
:1033A1000000803F0000000038DD0120080000001F
:1033B1000000000028DD012008000000B5390108E7
:1033C100E9380108B171010800000000152E01085B
:1033D100752E0108412E01080000000000000000C8
:1033E10000000000F52D0108052E0108E52D01085A
:1033F100D52D010885A900084D8A0008C589000856
:10340100A9890008802105080508040000000000C2
:10341100D4FA040840ED0408C0FA040800000000D2
:1034210000000000AC21050805080A0000000000AA
:10343100D4FA040840ED040894F9040800000000DF
:1034410000000000010102FFFF000000685E0C00A7
:1034510001FF0000B00100000200000009000000AF
:10346100FF000000B82B0120000000000000000058
:10347100000000000000000000000000000000004B
:10348100000000000000000000000000000000003B
:10349100000000000000000000000000000000002B
:1034A100000000000000000000000000000000001B
:1034B100000000000000000000000000000000000B
:0834C100000000000000000003
:1034C900702605087826050800000000ED34030879
:1034D900A0860100040000000000000000000000B8
:1034E90000000000000000000000000000000000D3
:1034F900000000007026050880260508000000006D
:1035090031040408E8030000040000000000000082
:1035190000000000000000000000000000000000A2
:103529000000000000000000243505088826050871
:1035390000000000DD0D00007D0000000600000015
:103549000000000000000000000000000000000072
:10355900000000000000000000000000902605089F
:103569000000000000000000958E0408E803000038
:10357900050000000000000000000000000000003D
:103589000000000000000000000000000000000032
:103599009426050800000000000000002597020895
:1035A900C409000005000000000000000000000040
:1035B9000000000000000000000000000000000002
:1035C90000000000A02605080000000041260208AE
:1035D900D56004086A18000005000000000000001A
:1035E90000000000000000000000000000000000D2
:1035F9000000000000000000007C05080000000039
:1036090000000000593D04081027000001000000D7
:1036190000000000000000000000000000000000A1
:10362900000000000000000000000000A4260508BA
:10363900000000000000000051F90308E803000041
:10364900050000000000000000000000000000006C
:103659000000000000000000000000000000000061
:10366900B02605080000000000000000416A0308B8
:10367900204E0000030000000000000000000000D0
:103689000000000000000000000000000000000031
:1036990000000000C026050800000000000000002E
:1036A90025680308204E0000030000000000000008
:1036B9000000000000000000000000000000000001
:1036C9000000000000000000D026050800000000EE
:1036D90000000000450E0408400D0300030000002F
:1036E90000000000000000000000000000000000D1
:1036F900000000000000000000000000E0260508AE
:103709000000000000000000ED8E030810270000F3
:10371900010000000000000000000000000000009F
:103729000000000000000000000000000000000090
:10373900E82605080000000000000000C9DB0108B8
:103749001027000003000000000000000000000036
:103759000000000000000000000000000000000060
:1037690000000000EC260508000000000000000031
:1037790089710208A0860100010000000000000014
:103789000000000000000000000000000000000030
:103799000000000000000000F426050800000000F9
:1037A90000000000DDCA030850C30000010000004A
:1037B9000000000000000000000000000000000000
:1037C900000000000000000000000000FC260508C1
:1037D900000000000000000055C80308A8610000AF
:1037E90001000000000000000000000000000000CF
:1037F90000000000000000000000000000000000C0
:1038090008270508000000000000000091F90108E0
:10381900A086010001000000000000000000000077
:10382900000000000000000000000000000000008F
:103839000000000014270508000000000000000037
:10384900099D0308A00F000001000000000000000E
:10385900000000000000000000000000000000005F
:1038690000000000000000002027050800000000FB
:1038790000000000A1BB01081027000001000000A2
:10388900000000000000000000000000000000002F
:103899000000000000000000000000002C270508BF
:1038A9000000000000000000FD0702081A410000A6
:1038B90001000000000000000000000000000000FE
:1038C90000000000000000000000000000000000EF
:1038D90030270508000000000000000085340108B9
:1038E9001027000001000000000000000000000097
:1038F90000000000000000000000000000000000BF
:10390900000000003C27050800000000000000003E
:10391900015702081A4100000100000000000000E0
:10392900000000000000000000000000000000008E
:10393900000000000000000040270508000000000A
:1039490000000000C9820108400D030000000000CA
:10395900000000000000000000000000000000005E
:1039690000000000000000000000000048270508D2
:103979000000000000000000899C0308400D0300BE
:10398900000000000000000000000000000000002E
:10399900000000000000000000000000000000001E
:1039A90050270508000000000000000061E9010837
:1039B90050C30000030000000000000000000000E8
:1039C90000000000000000000000000000000000EE
:1039D900000000005C27050800000000000000004E
:1039E9009D67030840420F0000000000000000002E
:1039F90000000000000000000000000000000000BE
:103A09000000000000000000682705080000000011
:103A1900000000002591030850C3000000000000C9
:103A2900000000000000000000000000000000008D
:103A3900000000000000000000000000B5210000A7
:043A4900B5210000A3
:108000002DE9F04F022389468A462DED108B99B059
:10801000DFEDCABA149303461690043315921793F2
:108020004FEADA06169DDDF85CC04FEACA0305EB9D
:1080300046111396F0004FF0000B01EB06143701C8
:108040000390A6EB86020194049706EB460E04EB20
:10805000C202041D381D06EB86072C44C6EBC60879
:1080600002972844029D02EB46174FEAC808ED002C
:1080700001EBC60602954FEA0E1505954FEACE05AF
:108080000695139D4FEA451E019D95ED007AD34458
:1080900092ED005AD7ED004AD945D1ED006A50ED76
:1080A000013A35EE241AD6ED002A1CED016A73EE72
:1080B000875A54ED017A33EEC73A36EE264A77EE08
:1080C000A21A36EE666A77EEE27A74EE256A71EEEF
:1080D000812A77EE633A37EEC57A36EEA22A77EE3A
:1080E000E47A76EEE26A0CED012A37EE247A77EE36
:1080F000857AD1ED018AC1ED006A74EE655A96ED7C
:10810000015AB0EE460A94ED004AA7EE2B6AD2ED72
:10811000010AE7EEAB3A74EE456AD7ED012AA7EE05
:108120006B0A9CED007AD5ED014A34EE054A37EE34
:10813000689A90ED005A36EEE02A76EEE26A30EE6A
:10814000A28A32EE222A76EEA06AF0EE492A75EE75
:10815000640A37EE287A75EE249AE2EE6B2A74EE02
:10816000C54AF0EE608AB0EE40AAE6EEAB4AE6EE13
:10817000AB8AA6EEEBAAF0EE496AB0EE629A37EE51
:10818000695AE2EE2B6AB0EE432A74EE08AAA7EE13
:10819000EB9AA7EEAB2A77EE297A35EE617A75EE87
:1081A000C89A35EE415A75EEC45A37EEAABA77EE40
:1081B000EA7A37EE011A8CED00BA36EE287AC1ED74
:1081C000017A39EE844A76EEC27A194475EE885AFD
:1081D0009C4435EE215A00ED014A70EE8A0A70EE99
:1081E000244AC5ED005A36EE686A80ED001A72EE38
:1081F000A33A85ED015A33EE093A04ED017A72EEA5
:10820000266A87ED006A1D44C6ED000A1844C2EDD7
:10821000004AC4ED007A1C44C7ED016A1F44C6ED54
:10822000013A1E4482ED013A1A443FF62EAF139AEA
:10823000072A40F2C681039A0EF1080E169F08F134
:1082400008000832029E059D4FF0000894463A4609
:10825000083608357244069C0499D346109207EB01
:108260000C0208340C310F92BA190E927A190D9241
:108270003A190C923A180B927A18099207F10C02EB
:108280000A9201220892149ADDF824C09044159AAB
:108290000A9F02EBC8020B9EA8EB880E0C9D02EB16
:1082A000C80192ED00BA0D9C01EBC802D1ED00AA05
:1082B0000E9802EBC80192ED00AA01EBC802D1EDC5
:1082C000009A02EBC80192ED009A01EBC802D1EDD1
:1082D000008A0F9902EB0E1E92ED008A109A0EEBA7
:1082E000C80ADEED017A1192CDED047A0AEBC802DC
:1082F000DAED017A02EBC80A1291CDED057AD2EDE2
:10830000017A0AEBC802DDF820E0CDED017ADAED62
:10831000017A02EBC80ACDED067AD2ED017A0AEBBA
:10832000C802CDED027ADAED017ACDED077AD2ED11
:10833000017ADDE91121CDED037A01E0F304353F47
:1083400017ED017ADE44D2ED007A94ED005AF14542
:10835000D5ED006A37EE274AD0ED004A77EE677A0E
:108360001CED016A96ED007A91ED001A76EE055A41
:1083700036EE872A97ED00DA71EE24EA76EE453A7A
:1083800074EE252A31EE641A35EE466A3EEE825AC4
:1083900074EE655A31EE664A72EE854A31EE471A3E
:1083A000B0EE67CA47ED014A34EE077AD1ED014AD3
:1083B00031EE261AD0ED016A72EEC52A95ED014A1A
:1083C000A7EE6BCA74EEE60A96ED010AE7EE2B7A89
:1083D00092ED017A94ED015A74EEA64A3DEE473AC9
:1083E000DCED006A70EEC4CA70EEC00AB0EE43EA7B
:1083F0007CEE80CA74EE001A70EE840AACEEEBEAF2
:1084000036EEC54A3DEE077AB0EE63DA36EE850AFF
:10841000ACEEAB3AF0EE4EDAA1EE2BDAA1EE2B6A1F
:10842000E1EE6BDA75EE666AB0EE441AF0EE4CCA15
:1084300037EE405AA0EEAB1AE0EEEBCAE0EEAB6AC4
:1084400037EE007A74EEA10A35EEE1FA75EEE45AE1
:1084500075EE6EFA37EE600A71EEA55ADDED061A7A
:1084600035EE425A7FEE244A3FEE822A22EEE1FAAE
:1084700061EE80FADDED051A3EEE855A3EEE066AA3
:1084800073EEAD3A21EE82EA73EE4DDA3DEE033A39
:1084900024EEE1DADDED071A34EE2C4A7CEE266A92
:1084A00061EE85CA25EEE1CADDED041A77EE81EAB8
:1084B00077EEC17AE9EEA2FADDED032AA9EE80FAA1
:1084C0009DED030AAAEEA4EADDED014AAAEE82DAE6
:1084D0009DED012AE8EEA5CADDED025AA8EE85CA97
:1084E0009DED025A21EEAD1A62EE832A6EEEE11A7C
:1084F00027EEC00A64EEA34A26EEC22A65EE865A2B
:1085000024EE455AABEE2E1AEBEE2D1AE8EE272A92
:10851000A8EE030AEAEE264AAAEE232AE9EE045A56
:10852000A9EE065A37EE207A87ED007A1F44C2ED95
:1085300000FA82ED01FA1A440CED01EA8CED00DA42
:108540009C44C4ED00CA84ED01CA1C4481ED001AAC
:10855000C1ED011A1944C6ED002A86ED010A1E4438
:10856000C0ED005A80ED015A1844C5ED004A85ED72
:10857000012A1D443FF6E4AE1099089A08310132F1
:1085800010910F99089208310F910E9908310E91B0
:108590000D9908310D910C9908310C910B99083106
:1085A0000B910A9908310A91099908310991139997
:1085B00091427FF468AE149B8A46DB009BB2149311
:1085C0002EE519B0BDEC108BBDE8F08F9FED747AED
:1085D00007EE901A20EE070AF8EE677A27EE800A77
:1085E000FDEEC07A17EE903A2033402B00F2C8809F
:1085F000DFED6C7AB4EEE70AF0EE407AF1EE10FAB5
:108600000CDD9FED696ADFED696AB0EE677A77EE9F
:10861000C67AB4EEE67AF1EE10FAF6DC9FED647AF3
:10862000F4EEC77AF1EE10FA0CD59FED5F6ADFED3C
:10863000616AB0EE677A77EE867AB4EEE67AF1EEAA
:1086400010FAF6D49FED5C7AF4EEC77AF1EE10FAE8
:1086500040F386809FED537A77EE677A67EEA75AEC
:108660009FED565A9FED566AB6EE007ADFED556AD9
:10867000A5EE856A27EEA55AE5EE866AE5EE267A2E
:1086800027EE877ADFED4C6A70EE267ABDEEE76A58
:1086900016EE103A2033402B6FD8B4EEE60AF1EE16
:1086A00010FA0CDDDFED405A9FED406AF0EE676A8C
:1086B00077EEE57AF4EEC66AF1EE10FAF6DCDFED5D
:1086C0003C6AF4EEE67AF1EE10FA0CD5DFED365A9C
:1086D0009FED386AF0EE676A77EEA57AF4EEC66A27
:1086E000F1EE10FAF6D4DFED346AF4EEE67AF1EE4C
:1086F00010FA48DDDFED2B6A76EEE77A67EEA75ACF
:10870000DFED2E4A9FED2E6AB8EE005ADFED2D6A9E
:10871000A5EEA46A67EEA54AE5EE866AE4EEA67ABF
:1087200067EE857AC7EE206A0023836143610362A6
:10873000B7EE006AC36176EE865A76EE666A86EE1A
:10874000257A67EE277A80ED007A66EE876A80EDFB
:10875000027AC0ED017AC0ED037AC0ED046A704779
:108760009FED197AF4EEC77AF1EE10FA7FF576AF45
:108770009FED0F7A77EE677A70E7DFED147AD1E735
:108780009FED127A7EE7DFED106AF4EEE67AF1EE05
:1087900010FAB3D5DFED066A76EEE77AAEE700BFF2
:1087A00027D4D236DB0F4940DB0FC940E4CB16415A
:1087B000DB0F49C0E4CB16C1DB0FC93F92E741B9DB
:1087C0009730083C15A82ABEDB0FC9BF0000000087
:1087D000114A124BB2F92220DFED116A07EE902AFE
:1087E00093ED117AF8EEE77AB0EEC77A77EEE67A93
:1087F000F4EEC77AF1EE10FA0ADDD3F8CC1344F6A2
:108800002062401A904205DD002283F8D023704791
:10881000C3F8CC03704700BF182C0120840500204A
:108820000000C842174BDFED186AD3ED087A93EDCC
:108830000F7A67EEA67AB0EEC77AF4EEC77AF1EE59
:1088400010FA08DD93ED107AB0EEC77AF4EEC77A2D
:10885000F1EE10FA02DCC3F8C403704793ED117A0D
:10886000B0EEC77AF4EEC77AF1EE10FAF3DDD3F882
:10887000C4134CF25032401A9042EEDD002283F8CD
:10888000C8237047840500200008ED460F49104BAF
:1088900001EB40029B7FB2F95420ABB90D4B1B7822
:1088A00093B900F1120310B451F82340101B0028B3
:1088B000B8BF4042B0F5804FCCBF224641F82320DC
:1088C0005DF8044B10467047104670478405002041
:1088D000182C012000000120037870B433B3024645
:1088E000C0F10105531912F8014FDBB2002CF9D188
:1088F00001335B00DAB20F4C03250B8084F838207B
:1089000084F83950017879B1022300265A1CE51801
:10891000023354FA82F285F83810DBB282F83860FC
:1089200010F8011F0029F1D170BC704702221346D4
:10893000E1E700BF182C012030B5EFF3118180234F
:1089400083F312880A4AD2F83831D2F83C41D2F87F
:108950003801D2F83C51CAB282F31188013BA842D7
:1089600094BF4FF4006000201B1B184430BD00BFB3
:10897000182C0120012380F84D307047014BD3F8AB
:1089800040017047182C012001207047014BC3E9BA
:1089900051217047182C0120014BC3E95321704726
:1089A000182C01207047704710B4054B04460A6824
:1089B0000020C3F854415DF8044BC3F840217047D0
:1089C000182C0120212870B505D0222829D0202874
:1089D00010D0002070BD0029FBD0072AF9D1184B18
:1089E000187A5C685A7A9B7A087100200C604A7188
:1089F0008B7170BD0029ECD0072AEAD11148104BC9
:108A00000C680E794D79D0F8482189795C601E7226
:108A10005D729972002ADCD02146D0F8440190475B
:108A2000D7E70029D5D0022AD3D1064AD2F850314F
:108A3000002BCED00988D2F84C019847C9E700BF77
:108A400000000120182C01200020704700207047F2
:108A5000F0B4002452004E1C2746030FB0F1204F03
:108A60004FEA001003F1300503F1370334BF0D5511
:108A70000B5537550234A242EFD1F0BC704700BF0E
:108A8000024808B5FFF728FF014808BD482405083B
:108A9000502C0120024808B5FFF71EFF014808BD11
:108AA00058240508502C01200B481A220B4B006853
:108AB0001B680A80C01801D109487047094B082279
:108AC000094910B51C68FFF7C3FF04220749204677
:108AD000FFF7BEFF024810BD107AF01F187AF01F92
:108AE0000C000120147AF01F0E0001201E0001204E
:108AF000024808B5FFF7F0FE014808BD64240508E8
:108B0000502C012008B520B90448FFF7E5FE0448C1
:108B100008BD0448FFF7E0FE014808BD70240508C1
:108B2000502C012094240508042301480B80704731
:108B300028000120074A084B084830B41468122561
:108B400003F114020D80844214BF1846104630BC55
:108B5000704700BF404002402C0001201010DDDDB6
:108B60000020704705484FF4007310B4D0F88041DE
:108B700000200C605DF8044B13807047182C012016
:108B800098B182680C4B12B107229A70704718781E
:108B90000421DA6003281A611A750CBF80224FF491
:108BA00080729970C3E901227047034B012241F2A0
:108BB000B4115A705A547047186C0120026C034665
:108BC0003AB11A6CD20608D50022012083F83C2065
:108BD0007047426480F83C20F3E71A6C4B494C48DC
:108BE00011401A6841F00201F0B419644168494D1E
:108BF00021F44031416041685C6821434160516823
:108C0000186921F48071D3F808C0DF685160546896
:108C10009E6A44EA0024AE425460546824F04074D2
:108C20005460506840EA0C005060906820F4006086
:108C30009060916841EA0701916059D09068DC6AC0
:108C400020F07060906091680E439660906820F00C
:108C50004050906091682143916090689D6920F038
:108C600002001C6A9060916841EA45019160516878
:108C7000002C46D041F400614FF4604051605168CF
:108C800021F46041516090FAA0F0596AB0FA80F086
:108C900054680139814021435160D06A0026DD6962
:108CA00020F47000D3F830C0691E5F69D06230468E
:108CB000D56A45EA0155D562956825F40075956039
:108CC000946844EA4C249460946824F4806494602A
:108CD000916841EA872191605E641A6C22F0030278
:108CE00042F001021A64002283F83C20F0BC704775
:108CF000916821F070619160916821F0405191601C
:108D0000ABE721F400615160C7E700BFFDEEFFFF54
:108D1000002301400100000F38B53F4C0546D4F850
:108D2000CC310BB11D22DA8018460D2139F05AF8EA
:108D3000D4F8CC0139F060F894F8D231013B5BB241
:108D4000032B66DC354AD82101FB0323D3F8A006A8
:108D500002232021C4F8C40184F8C03140F0CEFEC3
:108D600040210A203CF034F8FF218A203CF030F802
:108D700094F8D021C0F3801100F04003012A84F858
:108D8000D3113BD0022A264B34D07AB394F8D421A5
:108D90001A2A07D1B3F85220A4F8D851A4F8DA114E
:108DA000A4F8DC21B3F85210D4F8C40140F0A6FEB8
:108DB000D4F8CC0139F01AF8022100203CF008F870
:108DC000D4F8CC0139F018F894F8E52194F8E6319C
:108DD0000120C2F1200294F8E411C3F1100384F8D9
:108DE000E72184F8E83184F8E01138BD2022A3F8A7
:108DF0005220CBE71022A3F85220C7E725B9102252
:108E0000074BA3F85220C1E7002B14BF10222022E9
:108E1000F6E700209CE700BF182C01208405002005
:108E2000000001202DE9F843884600294FD047185B
:108E3000461E284C802507F1FF39EFF3118185F399
:108E40001288D4F83821C9B2D4F83C01D4F83831AA
:108E5000D4F83CC181F31188634594BF4FF400639B
:108E60000023121A1344012B1AD1012038F07EFB83
:108E7000EFF3118185F31288D4F83821C9B2D4F800
:108E80003C01D4F83831D4F83C7181F31188BB42ED
:108E900094BF4FF400630023121A1344012BE4D053
:108EA000EFF3118285F31288D4F83C31D2B216F870
:108EB000011F234483F8EC11D4F83C310133C3F390
:108EC0000A03C4F83C3182F311884E45B5D14046BF
:108ED000BDE8F883182C0120F8B5002390F84C5019
:108EE00080F84C30CDB10F4E96F8E82B032A16D1FE
:108EF000D6F8207C00F1380429462046FFF792FF7F
:108F0000D6F8203C2D1A0444DB1B322B01D8002D4F
:108F1000F2D1B5FA85F04009F8BD0120FCE718460A
:108F2000FAE700BF182C0120002280F84D20D3E77B
:108F300090F84C20531C0244DBB280F84C3082F88D
:108F4000381090F84D200AB1132B00D9C4E77047B0
:108F5000F8B50B4E0D46144696F8E83B032B0ED1A0
:108F6000D6F8207C002C0ADD21462846FFF75AFF60
:108F7000D6F8203C241A0544DB1B322BF2D9F8BD6D
:108F8000182C01200128544B2DE9F0410D462DED00
:108F9000028B82B05AD0514E9A68371F9B8900923B
:108FA000ADF80430DFF854819FED4D8AD8F8003ACF
:108FB0004C4C07EE903A4C49BDF80020F8EE677A29
:108FC0003960B4FBF3F427EE888A8AB194420FD358
:108FD000002D6ED0012D0BD1DFF810C107EE902AC5
:108FE00019463046B8EE670AC7F800C03AF09AFC56
:108FF000BDF802308BB19C420FD3002D46D0012D1D
:109000000BD13A4A07EE903AD8F8001A06F124003C
:10901000B8EE670A3A603AF085FCBDF8043083B3D5
:109020009C422ED3DDB1012D2BD107EE903A2F4A71
:1090300006F14800D8F8001AB8EE670A3A6002B0A4
:10904000BDEC028BBDE8F0413AF06CBCD3F80E20C9
:10905000274E5B8A371F0092ADF80430A2E707EE77
:10906000903ADFED246A244A0023F8EEE77A3A606A
:10907000B36486EEA77A77EE087A88EE277A86EDD3
:10908000137A02B0BDEC028BBDE8F08107EE903A96
:10909000DFED186A184A0023F8EEE77A3A60736247
:1090A00086EEA77A77EE087A88EE277A86ED0A7A36
:1090B000B3E707EE902ADFED0F6A0F4A0023F8EEC0
:1090C000E77A3A60336086EEA77A77EE087A88EE20
:1090D000277A86ED017A8BE7182C012044060020C0
:1090E000BD37863520A10700B521000025210000ED
:1090F000B406002083F9223E0921000084050020E7
:10910000F0B5154E83B00D463378022B0ED14FEAE1
:10911000102CC4B2114F0023012201A93868604409
:109120000AF098FF012806D003B0F0BDC0F3D41CAC
:1091300000F07F04EEE73378022B019B04D133F873
:1091400014302B6003B0F0BD53F8243023F070438B
:109150002B6003B0F0BD00BF186C0120187E012009
:109160002DE9F0414E4C90B005460F46164694F856
:109170007C31042B0ED0082B08D1D4F87431AB42CB
:1091800000F085800BF022FB0228F0D0012010B007
:10919000BDE8F081D4F8B40138F028FE94F87231BB
:1091A000002B64D1690218200BF03AFB002868D12B
:1091B00094F87C81FF21D4F8A80140F05DFDB8F15E
:1091C000080FD4F8A8010CBFFC21FE2140F054FD8B
:1091D00094F8AE21002A4CD094F8BC110023D4F8A6
:1091E000A8214FF0400C4906049305934FF480608A
:1091F0000A914FF400710F930C32CDF80CC0069019
:109200000991CDE90733CDE90B33CDE90D33D4F81E
:10921000B8311868197ACDE901270CF0B5FCD4F8FB
:10922000B83101AA197A18680CF068FCD4F8B83182
:109230001C491A7A1868895CD4F8A821435843F06D
:1092400001034350536843F002035360002301219C
:109250000622C4F858711846C4F85C5184F86011AD
:1092600084F87C21C4E9596310B0BDE8F081294637
:1092700099E74FF480733946D4F8A80140F064FCB4
:10928000E4E70BF001FB0BF01FFB03207FE7FF215E
:10929000D4F8A80140F0F0FCD4F8A801FC2195E72F
:1092A000182C0120ECEB04082DE9F047344C002287
:1092B00094F8D43394F8D513013384F89426DBB2B0
:1092C000994284F8D4332DED048B82B009D094F800
:1092D0006C35002B41F02C8202B0BDEC048BBDE854
:1092E000F087284F94EDF68A97F8D451B7F9DC014E
:1092F0000F2D94F8E86384F8D42300F0D78694ED1A
:10930000F77A06F12602D4EDF87A04EB860327EE0D
:10931000087A04EB820267EE887A83EDFB7A06F125
:109320004603C2EDF57A0022D4EDF97A04EB83030B
:10933000C4F8DC2327EE888AC4F8E02383EDF58A9D
:10934000C4F8E423731C0C22A7F8DC0103F01F030C
:1093500084F86C2584F8E833102D00F0CF8694F85B
:109360006D850026B8F1060F00F21C86DFE818F0C4
:10937000E407340645060C00D900EA06E10700BF01
:1093800084050020182C0120EC4B102D1A4693ED7B
:10939000037AD3ED057AB2EC011A27EE073A67EEAD
:1093A000A73A93ED077A92ED006AD3ED097A27EE9A
:1093B000074AD3ED0B6A66EE062A93ED0D7A67EE47
:1093C000A74AD3ED0F7A26EEA65AD3ED021A67EE1E
:1093D000075A93ED042A27EEA76AD3ED116AE1EE4E
:1093E000012A93ED137AA1EEA13AD3ED157AE2EEBC
:1093F000023AD3ED060A66EEA66A93ED081A27EE46
:10940000077AD3ED0A1A67EEA77A93ED0C2AA0EE3D
:10941000A04AE1EE014AD3ED0E0AA1EEA15A93ED66
:10942000101AE2EE025AD3ED121A93ED142AA0EEAE
:10943000A06AE1EE016AE2EE027AA1EEA17AB1EE53
:10944000E22AF1EEC32AB1EEE33AF1EEC43A03EDBB
:10945000202AB1EEE44A43ED1F2AF1EEC54A03ED9E
:109460001E3AB1EEE55A43ED1D3AF1EEC65A03ED50
:109470001C4AB1EEE66A43ED1B4AF1EEC76A03ED02
:109480001A5AB1EEE77A43ED195A03ED186A43ED23
:10949000176A03ED167A93ED177AD3ED197A67EE12
:1094A000075AD3ED1B6A27EEA76A93ED1D7AD3ED19
:1094B0001F7A66EEA66AD3ED164A27EE077A93ED79
:1094C000185A67EEA77AE4EEA45A93ED1A4AA5EE6D
:1094D000056AD3ED1C4A93ED1E5AE4EE046AA4EE2D
:1094E000A47AE5EE057AB1EEE55AF1EEC65AB1EE90
:1094F000E66AF1EEC76A03ED155AB1EEE77A43ED7D
:10950000145A03ED136A43ED126A03ED117A01F068
:10951000568094F86D8508F101085FFA88F884F8A0
:109520006D8594F8903A0F2B01F335800D2B04EBE9
:10953000830103F1010C01F2538003F16C0201F28B
:10954000845104EB8202D1ED007A92EDF67AB4EE0A
:10955000677AF1EE10FA05DDB5EEC07AF1EE10FA99
:1095600001F307800020DFED767A0CF16C0204EB4A
:109570008202D2EDF66AF4EE476AF1EE10FA08DDE7
:10958000F4EE676AF1EE10FA03DDF0EE667A5FFA48
:109590008CF0D91C03F1020C0E29624600F31481F1
:1095A00003F16E0204EB820292EDF67AB4EE667A73
:1095B000F1EE10FA08DDB4EE677AF1EE10FA03DD91
:1095C000F0EE477A5FFA8CF003F16F0204EB82024F
:1095D000D2EDF66AF4EE476AF1EE10FA07DDF4EE2A
:1095E000676AF1EE10FA02DDF0EE667AC8B2591D34
:1095F00003F1040C0E29624600F3E68003F17002C9
:1096000004EB820292EDF67AB4EE667AF1EE10FA8D
:1096100008DDB4EE677AF1EE10FA03DDF0EE477A7A
:109620005FFA8CF003F1710204EB8202D2EDF66A6C
:10963000F4EE476AF1EE10FA07DDF4EE676AF1EE38
:1096400010FA02DDF0EE667AC8B2D91D03F1060CFD
:109650000E29624600F3B88003F1720204EB820225
:1096600092EDF67AB4EE667AF1EE10FA08DDB4EE19
:10967000677AF1EE10FA03DDF0EE477A5FFA8CF0CC
:1096800003F1730204EB8202D2EDF66AF4EE476A4C
:10969000F1EE10FA07DDF4EE676AF1EE10FA02DD82
:1096A000F0EE667AC8B203F1090103F1080C0E2945
:1096B000624600F3898003F1740204EB820292EDAA
:1096C000F67AB4EE667AF1EE10FA08DDB4EE677A57
:1096D000F1EE10FA03DDF0EE477A5FFA8CF003F159
:1096E000750204EB8202D2EDF66AF4EE476AF1EEFF
:1096F00010FA07DDF4EE676AF1EE10FA02DDF0EE23
:10970000667AC8B203F10B0103F10A0C0E29624616
:109710005ADC03F1760204EB820292EDF67AB4EEA3
:10972000667AF1EE10FA0DDDB4EE677AF1EE10FA1A
:1097300008DDF0EE477A5FFA8CF003E08C0B002036
:109740000000000003F1770204EB8202D2EDF66A1A
:10975000F4EE476AF1EE10FA07DDF4EE676AF1EE17
:1097600010FA02DDF0EE667AC8B203F10C01012BAB
:109770000A4629DC03F1780204EB820292EDF67AC4
:10978000B4EE667AF1EE10FA07DDB4EE677AF1EE28
:1097900010FA02DDF0EE477AC8B203F1790204EB69
:1097A0008202D2EDF66AF4EE476AF1EE10FA09DDB4
:1097B000F4EE676AF1EE10FA04DD03F10D00F0EE4D
:1097C000667AC0B203F10E0202F16C0102F16B0382
:1097D00004EB810C04EB83039CEDF67AD3EDF66A7F
:1097E000F4EE476AF1EE10FA07D5B4EE677AF1EEBF
:1097F00010FA02DDF0EE477AD0B20F2A02F1010C26
:1098000000F0958102F16D0304EB810104EB830309
:10981000D1EDF66A93EDF67AF4EE476AF1EE10FABE
:1098200005D5B4EE677AF1EE10FA00F3E2860E2A5F
:1098300002F1020100F07B8101F16C0201F16B0386
:1098400004EB820204EB830392EDF67AD3EDF66A21
:10985000F4EE476AF1EE10FA05D5B4EE677AF1EE50
:1098600010FA00F3D1860F2901F1010C00F05F819D
:109870000CF16C020CF16B0304EB820204EB83032A
:1098800092EDF67AD3EDF66AF4EE476AF1EE10FA4D
:1098900005D5B4EE677AF1EE10FA00F3BF86BCF19D
:1098A0000F0F0CF1010100F0428101F16C0201F196
:1098B0006B0304EB820204EB830392EDF67AD3EDA3
:1098C000F66AF4EE476AF1EE10FA05D5B4EE677A5F
:1098D000F1EE10FA00F3AE860F2901F1010C00F051
:1098E00026810CF16C020CF16B0304EB820204EB99
:1098F000830392EDF67AD3EDF66AF4EE476AF1EE61
:1099000010FA05D5B4EE677AF1EE10FA00F39C86F2
:10991000BCF10F0F0CF1010100F0098101F16C02A3
:1099200001F16B0304EB820204EB830392EDF67A00
:10993000D3EDF66AF4EE476AF1EE10FA05D5B4EE0F
:10994000677AF1EE10FA00F393860F2901F1010C0A
:1099500000F0ED800CF16C020CF16B0304EB820261
:1099600004EB830392EDF67AD3EDF66AF4EE476AE0
:10997000F1EE10FA05D5B4EE677AF1EE10FA00F3C5
:109980008186BCF10F0F0CF1010100F0D08001F1D4
:109990006C0201F16B0304EB820204EB830392ED92
:1099A000F67AD3EDF66AF4EE476AF1EE10FA05D5D1
:1099B000B4EE677AF1EE10FA00F370860F2901F128
:1099C000010C00F0B4800CF16C020CF16B0304EBA1
:1099D000820204EB830392EDF67AD3EDF66AF4EE9D
:1099E000476AF1EE10FA05D5B4EE677AF1EE10FA97
:1099F00000F35E86BCF10F0F0CF1010100F09780BF
:109A000001F16C0201F16B0304EB820204EB8303AE
:109A100092EDF67AD3EDF66AF4EE476AF1EE10FABB
:109A200005D5B4EE677AF1EE10FA00F34D860F29F2
:109A300001F1010C7BD00CF16C020CF16B0304EB17
:109A4000820204EB830392EDF67AD3EDF66AF4EE2C
:109A5000476AF1EE10FA05D5B4EE677AF1EE10FA26
:109A600000F33C86BCF10F0F0CF101015FD001F156
:109A70006C0201F16B0304EB820204EB830392EDB1
:109A8000F67AD3EDF66AF4EE476AF1EE10FA05D5F0
:109A9000B4EE677AF1EE10FA00F32C860F2901F18B
:109AA000010C44D00CF16C020CF16B0304EB82024C
:109AB00004EB830392EDF67AD3EDF66AF4EE476A8F
:109AC000F1EE10FA05D5B4EE677AF1EE10FA00F374
:109AD0001B86BCF10F0F0CF1010128D001F16C02C3
:109AE00001F16B0304EB820204EB830392EDF67A3F
:109AF000D3EDF66AF4EE476AF1EE10FA05D5B4EE4E
:109B0000677AF1EE10FA00F30B860E290FD1F54BB0
:109B100093ED007A53ED016AB4EE667AF1EE10FA35
:109B200005DDB4EEE77AF1EE10FA00F3C884002800
:109B300000F0EE84431E012B40F3928500F16B028E
:109B400000F16A0304EB820204EB830392EDF67AE0
:109B5000821ED3EDF66AF4EEC76AF1EE10FA00F356
:109B6000B180012A00F0AE8000F16903C21E04EB4F
:109B7000830393EDF67AB4EEE67AF1EE10FA00F391
:109B80000685012A00F0038500F16803021F04EB3B
:109B90008303D3EDF66AF4EEC76AF1EE10FA00F330
:109BA0009180012A00F08E8000F16703421F04EBD0
:109BB000830393EDF67AB4EEE67AF1EE10FA00F351
:109BC000E684012A00F0E38400F16603821F04EBBF
:109BD0008303D3EDF66AF4EEC76AF1EE10FA71DC96
:109BE000012A6FD000F16503C21F04EB830393EDDC
:109BF000F67AB4EEE67AF1EE10FA00F3C884012AA0
:109C000000F0C58400F16403A0F1080204EB8303B3
:109C1000D3EDF66AF4EEC76AF1EE10FA52DC012ACF
:109C200050D000F16303A0F1090204EB830393ED2C
:109C3000F67AB4EEE67AF1EE10FA00F3A884012A7F
:109C400000F0A58400F16203A0F10A0204EB830393
:109C5000D3EDF66AF4EEC76AF1EE10FA32DC012AAF
:109C600030D000F16103A0F10B0204EB830393ED0C
:109C7000F67AB4EEE67AF1EE10FA00F38884012A5F
:109C800000F0858400F16003A0F10C0204EB830373
:109C9000D3EDF66AF4EEC76AF1EE10FA12DC012A8F
:109CA00010D000F15F03A0F10D0204EB830393EDEC
:109CB000F67AB4EEE67AF1EE10FA00F36884022A3E
:109CC00007FE267A431C0E2B00F3CE8400F16D01B3
:109CD00000F16E0204EB810104EB8202D1EDF66A21
:109CE000811C92EDF66AB4EEE66AF1EE10FA00F32A
:109CF0002B840F2900F0BB8000F16F02C11C04EB24
:109D00008202D2EDF66AF4EEC66AF1EE10FA00F3C2
:109D100019840F2900F06A8400F17002011D04EB20
:109D2000820292EDF66AF4EEC66AF1EE10FA00F1E4
:109D30000B840F2900F09B8000F17102411D04EBA0
:109D40008202D2EDF66AF4EEC66AF1EE10FA00F382
:109D5000F9830F2900F04A8400F17202811D04EB9F
:109D6000820292EDF66AB4EEE66AF1EE10FA00F3C2
:109D7000EB830F297BD000F17302C11D04EB82023B
:109D8000D2EDF66AF4EEC66AF1EE10FA00F3DA8369
:109D90000F2900F02B8400F1740200F1080104EB9C
:109DA000820292EDF66AB4EEE66AF1EE10FA00F382
:109DB000CB830F295BD000F1750200F1090104EBA0
:109DC0008202D2EDF66AF4EEC66AF1EE10FA00F302
:109DD000B9830F2900F00A8400F1760200F10A012C
:109DE00004EB820292EDF66AB4EEE66AF1EE10FA46
:109DF00000F3AA830F293AD000F1770200F10B019A
:109E000004EB8202D2EDF66AF4EEC66AF1EE10FAC5
:109E100000F398830F2900F0E98300F1780200F144
:109E20000C0104EB820292EDF66AB4EEE66AF1EE02
:109E300010FA00F389830F2919D000F1790200F19B
:109E40000D0104EB8202D2EDF66AF4EEC66AF1EE81
:109E500010FA00F377830E2940F0C883214A92ED6F
:109E6000006AB4EEE66AF1EE10FA00F36D8387FE45
:109E7000667AC7EE878A94F86E9509F1AC0A04EB0E
:109E80008A02B2EE007AF7EE007A92EDF68AC8FE08
:109E9000C78AC8FEA78A00F16C0207EE900ADBB2FF
:109EA00004EB8202F8EEE76A0F2B92EDF67A27EECA
:109EB000077A66EE876A00F2078303F16C0207EE09
:109EC000903A012804EB8203F8EEE77A93EDF66A04
:109ED00026EE066AE6EE276A37EE067A00F2F4828C
:109EE00002E000BF480B0020B5EEC07AF1EE10FA98
:109EF00040F3FD8286EE879A8C4B93ED007A29EE33
:109F0000077AB4F8983A07EE903AB4F89C3AF8EE2B
:109F1000677AF4EEC77AF1EE10FA05DC07EE903AB4
:109F2000F8EE677AC7FEC77A814B77EEC87A04EB02
:109F30008A0A93ED007A28EE877AA7EE278A8AEDBF
:109F4000F68A2BF047FA0028B8BF4042C3B2142B60
:109F50000DD9B4F8A43A07EE903AF8EEE77A87FE06
:109F6000888ABCEEC88A18EE103AA4F8A43AB9F16F
:109F7000000F40F0D0800F2D00F00083112D40F035
:109F8000CA806C4B9FED6C0AD3ED007A28EE800AF4
:109F9000FDEEE77A17EE903AA7F8D83141F020FEAF
:109FA000A7F8DA0108F10108644B94F86C25A3FBCB
:109FB0000813013AA8EB030184F86C2503EB510365
:109FC0009B08C3EBC303A8EB030384F86D3502B011
:109FD000BDEC048BBDE8F087D4F87825B4F87C1587
:109FE000574840F007FE97F8D451102D00F0F0824A
:109FF00094F86D35013384F86D35DFF844C1B0EE67
:10A00000006AB4F87005F6EE006A6246D4F884156A
:10A0100001380CF19003F2EC015AB0EE664A1031AF
:10A02000D2ED007A0CEBC00277EEA77A083AB0EED8
:10A03000677AD5EE867AA5EE867A67EEA67A27EE5F
:10A04000267ACCED217A8CED207AD2ED036A0138A4
:10A05000D2ED027A01F1080153ED215AA2F1080272
:10A0600053ED224A03F1080335EEE67A11ED036A57
:10A0700037EEE45A77EEA47A76EEA56A51ED045AEB
