:020000040800F2
:10000000F0FF00104576040809F800086D16040892
:10001000E1760408E1760408E176040800000000B7
:1000200000000000000000000000000091FE000839
:100030008DFE00080000000089FE0008950D0408F0
:10004000E1760408E1760408E1760408E176040824
:10005000E1760408E1760408FD160408291804086E
:10006000ED170408B117040875170408255704088C
:100070001557040805570408F5560408E156040806
:10008000CD560408B9560408E1760408E176040860
:10009000E1760408E1760408E176040839170408DB
:1000A000E1760408C1040408E1760408D1040408D8
:1000B000B1040408A104040891040408E1760408CA
:1000C000E1760408E1760408E1760408E1760408A4
:1000D000E1760408A50F0408090F0408E176040876
:1000E000C1160408E176040851210108E1760408EC
:1000F000E1760408E1760408E1760408A5560408D0
:10010000E1760408E176040881040408E176040835
:100110006D0E0408D10D0408792203086522030836
:10012000915604087D56040869560408555604087B
:1001300041560408E1760408E1760408E1760408F3
:10014000E1760408E1760408E17604080DF8000879
:100150002D5604081956040805560408E1760408CB
:10016000E1760408E1760408E1760408E176040803
:10017000E1760408E1760408E1760408E1760408F3
:08018000E1760408E1760408B1
:08018800F47104000100000005
:1001900005100600346800205468002000000000AC
:1001A000B8060008130203000C2E00205C68002033
:1001B00000000000BE0600080400800090670020D8
:1001C0006068002000000000000000002300100014
:1001D00068670020E06800200000000035B70108D3
:1001E0000D002C00205E0020F068002000000000C0
:1001F000BD94030813000400D85900201C69002096
:1002000000000000C4060008F6210C00DC590020A4
:100210002069002000000000C8060008F5317400C5
:10022000105900202C6900200000000061310108F5
:100230000B301400FC580020A069002000000000D2
:10024000D406000801010400F8580020B469002019
:10025000000000000000000000010400F45800202D
:10026000B869002000000000E80600080201030051
:10027000F0580020BC690020000000001DD30208D7
:10028000FD011E00C0580020C069002000000000D1
:10029000ADE7030806101800144C0020E0690020A8
:1002A0000000000099360208FB010100104C0020FC
:1002B000F86900200000000081090408FC01090021
:1002C000DC4A0020FC6900200000000091090408BD
:1002D000F9010400D44A0020086A00200000000050
:1002E00025E8030802000C00A44A00200C6A002044
:1002F00000000000000000000A60360068360020A0
:10030000186A002000000000EC060008340010000D
:10031000CC490020506A0020000000006D36020821
:1003200011020800A4490020606A002000000000BB
:1003300022070008121204009C490020686A00206D
:10034000000000002A07000818202C007049002037
:100350006C6A00200000000055F7030812200D0011
:1003600048490020986A0020000000002E0700087D
:10037000FF01080030490020A86A002000000000AA
:1003800029530408020203005C2E0020B06A0020FA
:1003900000000000000000000C020300482E0020B6
:1003A000B46A002000000000F5EC0308FE0109001B
:1003B000D83A0020B86A002000000000E1EC0308F1
:1003C00001020500E8C600205CD900200000000002
:1003D000453101081B020800DCC6002064D900205A
:1003E0000000000005ED030801200800F8D70020F8
:1003F0006CD90020000000003C070008190005002F
:1004000078D8002074D900200000000044070008BC
:1004100037001E0050D800207CD9002000000000CA
:100420004A0700081E000500B8C400209CD900201F
:1004300000000000680700081B00F4001CBF00203B
:10044000A4D90020000000009D3E01080E02020019
:10045000D0CA002098DA0020000000006E070008D3
:100460002F00110004D900209CDA002000000000B9
:100470007007000826000E00C0DA0020B0DA002065
:1004800000000000F92801081F201C001CC40020E7
:10049000F4DA0020000000008207000805020400D2
:1004A00008C7002010DB0020000000009E070008A5
:1004B00003010A00A0BD002014DB002000000000A2
:1004C000A20700082C0010002CE700201CE70020E9
:1004D0000000000065C401082B00240060E7002034
:1004E0003CE700200000000039C401082910780012
:1004F0002CE6002084E7002000000000000000003F
:10050000281010000CE80020FCE70020000000008C
:1005100021B701081400040098E5002060E80020DD
:1005200000000000AC0700080C20B40068DD0020CB
:1005300064E8002000000000EDD202080E80620195
:10054000AEDB002018E9002000000000153602088C
:100550000902010058E300207CEA002000000000AE
:10056000B00700081A000E0084EF0020D8F2002027
:1005700000000000B2070008F82106009EEC0020F1
:10058000E8F2002000000000C0070008031233005A
:1005900074EB0020A2F2002000000000C607000853
:1005A0002500960008EC00200CF20020000000005E
:1005B000000000001500700084EA00209CF100207B
:1005C00000000000000000002A006000A8EB0020EE
:1005D0003CF1002000000000ED3502081802020086
:1005E0003CF500207CF50020000000000000000029
:1005F00017020B0031F5002080F5002000000000FC
:1006000059EC03080812090028F500208CF5002099
:1006100000000000A9EC0308F701060022F5002005
:1006200098F5002000000000FA0700080A020A00FE
:1006300068F40020A0F50020000000000008000879
:100640000300010010F50020ACF5002000000000C0
:10065000000000001010030040F40020B0F500205E
:10066000000000000A0800081600080008F9002031
:1006700098F90020000000000E0800081002010098
:1006800084FE002080FE0020000000001608000804
:100690001A023C00A8F9002088FE0020000000009B
:1006A000D5F4030827000400C8FE0020C4FE002083
:0806B00000000000180800081A
:1006B80020000201000000000000000008044410AF
:1006C8000000000001000000020200002B21231E90
:1006D80064010100000001000A012900230A00004A
:1006E8008C0000000030010000000000730073005F
:1006F8006900000000000000000000000000000089
:100708000000020000019E077D00FA0096005802D2
:10071800B80BB80BB80B2000C40900000000010199
:100728000101FFFFFFFF000000010000054D4C54D0
:1007380059000000E8036400040A000100002801D1
:10074800000020003200C800D007960014003200D4
:100758002800B00440060005500014000F000801EE
:100768000000010000000000000000000000000080
:100778000000000000000000000000000000000170
:100788000000000500000102030000000000000056
:1007980000000000000000000000040101006C16C9
:1007A800000000000300004628007E05EA05B405A5
:1007B8000300E803D00700000101F4011400000061
:1007C8000000000000000000000000000000000021
:1007D8000000000000000000000000000000000011
:1007E8000000000000000000000000000000000001
:1007F800010024010000000000004A01B400D601F5
:10080800000000050000C4090700B4012828000002
:0408180020030000B9
:10081C000403090412010002EF0201408304563262
:10082C00000201020301000012010002020200405A
:10083C008304405700020102030100001A03000068
:10084C00000000000000000000000000000000009C
:10085C000000000000000000040309041201000263
:10086C000000004083042057000201020301000035
:10087C0009022000010104C032090400000208062C
:10088C0050050705810240000007050102400000E9
:10089C0009026400030100C03209040000010300D6
:1008AC00000009211101000122260007058303081D
:1008BC00000A080B010202020100090401000102F6
:1008CC000201000524001001052401000204240289
:1008DC00020524060102070582030800FF09040231
:1008EC0000020A0000000705010240000007058114
:1008FC000240000009024300020100C0320904005A
:10090C000001020201000524001001052401000170
:10091C00042402020524060001070582030800FFD7
:10092C0009040100020A0000000705010240000052
:10093C000705810240000000FF00000008000000D5
:10094C00C9870008C5870008C1870008B58700085B
:10095C00B1870008BD870008B98700080060024015
:10096C00106002400000000000000000000B0000BE
:10097C0000000000000000000000000000600240C9
:10098C00286002400100000000000000060C00007E
:10099C0000000000000000000000000000600240A9
:1009AC00406002400200000000000000100D00003A
:1009BC000000000000000000000000000060024089
:1009CC00586002400300000000000000160E0000FA
:1009DC000000000000000000000000000060024069
:1009EC00706002400400000000000000200F0000B6
:1009FC000000000000000000000000000060024049
:100A0C008860024005000000000000002610000075
:100A1C000000000000000000000000000060024028
:100A2C00A060024006000000000000003011000031
:100A3C000000000000000000000000000060024008
:100A4C00B86002400700000000000000362F0000D4
:100A5C0000000000000000000000000000640240E4
:100A6C00106402400000000000000000003800008C
:100A7C0000000000000000000000000000640240C4
:100A8C00286402400100000000000000063900004C
:100A9C0000000000000000000000000000640240A4
:100AAC00406402400200000000000000103A000008
:100ABC000000000000000000000000000064024084
:100ACC00586402400300000000000000163B0000C8
:100ADC000000000000000000000000000064024064
:100AEC00706402400400000000000000203C000084
:100AFC000000000000000000000000000064024044
:100B0C00886402400500000000000000264400003C
:100B1C000000000000000000000000000064024023
:100B2C00A0640240060000000000000030450000F8
:100B3C000000000000000000000000000064024003
:100B4C00B8640240070000000000000036460000B8
:100B5C000000000000000000000000000101000087
:100B6C002D50010889520108154B0108318A0008E3
:100B7C00ED510108418A0008B9220108218A0008B8
:100B8C00118A00080000000000000000251E01086A
:100B9C0009880008151E010805880008D51D0108E4
:100BAC008D1D01080188000830040020ED99000813
:100BBC00CD990008851E010800000000000000000F
:100BCC00099800083597000800000000000000009C
:100BDC0000000000BD890008A18800089588000865
:100BEC0025990008419900084D88000809990008CA
:100BFC00ED98000805010905A101A10005010930C6
:100C0C00093109320933093509340940093815818C
:100C1C00257F750895088102C0C0000009022200DA
:100C2C00010100E032090400000103010200092166
:100C3C00110100012226000705830308000A0000A9
:100C4C00008002021F00000053544D202020202061
:100C5C0050726F64757420202020202020202020CA
:100C6C00302E30310100000000000100E0010108CD
:100C7C000000000001020304010203040607080936
:100C8C00BC04002004000000D0DA002000000000AA
:100C9C000000803F0000803F0000000000000000CA
:100CAC000000000000000000000000000000000038
:100CBC00000000000000000000000000FFFF00002A
:100CCC00FF1FFF1F01000000FFFFFFFF00020005D8
:100CDC001002700B20700020702D720001000000BB
:100CEC0000010101000000000000000000000000F5
:100CFC0008230020D6010100FFFFFFFFFA000000CF
:100D0C0001000000010000004CDE00200000F40196
:100D1C00010000004ADE00200000F4010100000088
:100D2C0048DE00200000F4010100000046DE002037
:100D3C000000F4010100000044DE00200000F4017A
:100D4C000100000042DE00200000F4010100000060
:100D5C0040DE00200000F40101000000D4DE040895
:100D6C000000000000000000000000000000000077
:100D7C00ECDE040800000000000000000000000091
:100D8C00000000000CDF0408080000000000000058
:100D9C00400500200000000018DF040808000000D7
:100DAC0000000000340500200000000024DF0408CF
:100DBC0008000000000000002805002000000000D2
:100DCC0004EA040808000000000000001C050020D4
:100DDC000000000030DF04080800000000000000E4
:100DEC0010050020000000003CDF04080800000093
:100DFC0000000000040500200000000048DF04088B
:100E0C000800000000000000F804002000000000B2
:100E1C0054DF040802000000D5CE010802000000D7
:100E2C000000000060DF040801000000000000006A
:100E3C000000000000000000000000000E00000098
:100E4C0000000000000000000000000019B50108BF
:100E5C00D9B401084C0500203EDE0020053201000B
:100E6C003CDE0020E803D007010000003ADE002041
:100E7C00E803D0070100000038DE0020E803D007AB
:100E8C000100000036DE00201E00B80B010000003F
:100E9C0034DE00201E00F4010100000032DE0020D0
:100EAC00140064000100000030DE00200000C800C7
:100EBC000100000068DF040870DF04088CDF040800
:100ECC000000000000000000000000000000000016
:100EDC00ECDE040800000000000000000000000030
:100EEC0000000000F4DA0408080000000000000014
:100EFC009806002000000000A0DF04080800000095
:100F0C00000000008C06002000000000B4DF040884
:100F1C000800000000000000800600200000000017
:100F2C00C8DF040808000000000000007406002060
:100F3C0000000000DCDF04080800000000000000D6
:100F4C006806002000000000ECDF04080800000028
:100F5C00000000005C06002000000000FCDF04081C
:100F6C0008000000000000005006002000000000F7
:100F7C000CE00408070000000000000048060020F8
:100F8C00000000001CE004080300000025D001084C
:100F9C003C0600200000000054DF040802000000A2
:100FAC00D5CE0108020000000000000060DF04083C
:100FBC000100000000000000000000000000000024
:100FCC00000000000E000000000000000000000007
:100FDC00000000009EC400200100C40900000000B5
:100FEC009CC400200100C409000000009AC4002029
:100FFC000100C4090000000098C400200100C409CD
:10100C000000000094C400200100C409000000008E
:10101C0096C400200100C4090000000092C4002006
:10102C000100C4090000000090C400200100C409A4
:10103C00000000003EDB00200000FFFF0A00000063
:10104C003CDB00200100C800010000003ADB00205E
:10105C00320030753200000039DB0020055A0500E3
:10106C0036DB002000FF010038DB0020010000000F
:10107C00A406002034DB00200200000008A90408AC
:10108C0035DB002000FF010037DB002001000000F1
:10109C00A406002033DB00200200000008A904088D
:1010AC002EDB002080C1803E050000002CDB0020E0
:1010BC0080C1803E050000002ADB002080C1803EFC
:1010CC000500000028DB002080C1803E05000000E8
:1010DC0026DB002000FF010025DB00200A32010086
:1010EC0024DB002004000000A4AC040823DB002057
:1010FC0002000000B8AC040895B4010851B4010812
:10110C00AC06002052DE0020EE02CA0801000000EE
:10111C0050DE002000C80100640000004FDE0020FB
:10112C0000C80100640000004EDE00200200000038
:10113C00C4AC040822DB002001000000D4AC04087D
:10114C0021DB00200108010020DB0020040000004E
:10115C00E0AC04085EDE00200100FF7F010000000F
:10116C005DDE002002000000F4AC040822DD00204B
:10117C000000F4010100000020DD00200000F4015B
:10118C00010000001EDD00200000F4010100000041
:10119C001CDD00200000F4010100000032DD002005
:1011AC000100803E050000002EDD00200000803E86
:1011BC00640000002CDD00200000803E6400000074
:1011CC002ADD00200000803E6400000030DD00209D
:1011DC00030000020100000028DD0020C800E80325
:1011EC000100000026DD00201E00E80301000000C5
:1011FC0024DD00200000E803010000001ADD0020BF
:10120C000000803E0100000018DD00200000803E40
:10121C000100000016DD00200000803E01000000EF
:10122C0014DD00200000803E0100000012DD0020D3
:10123C000000803E0100000010DD00200000803E18
:10124C000100000063DD00201964010067DD00204F
:10125C000064010066DD00200064010065DD0020F3
:10126C000A32010064DD00200300000004AD040814
:10127C0060DD0020E803D0070A0000005EDD0020DE
:10128C0000FA01000A0000005DDD002000FA0100F8
:10129C000A0000005CDD002000FA01000A000000DA
:1012AC004BDD0020006401004ADD002000640100D9
:1012BC0052DD0020006401000A00000051DD002016
:1012CC00006401000A00000050DD002000640100F1
:1012DC000A00000055DD0020006401000A00000037
:1012EC0054DD0020006401000A00000053DD0020E2
:1012FC00006401000A0000004FDD002000FF010027
:10130C000A0000004EDD002000FF01000A00000072
:10131C004DDD002000FF01000A0000005BDD002015
:10132C00005F01000A0000005ADD0020005F010090
:10133C000A00000059DD0020005F01000A000000D7
:10134C0058DD0020005F01000A00000057DD00207E
:10135C0019AF01000A00000056DD002019AF010092
:10136C000A0000009CDB0020000A01009BDB00202F
:10137C00000A01009ADB0020000A0100ACDB00200F
:10138C0000FA0100ABDB002000FA0100AADB002010
:10139C0000FA0100A8DB00200000F40101000000AD
:1013AC00A6DB00200000F40101000000A4DB0020FB
:1013BC000000F40101000000A2DB00200000F40199
:1013CC0001000000A0DB00200000F401010000007F
:1013DC009EDB00200000F4010100000048DD00202D
:1013EC00FF08010047DD00200164010046DD0020FC
:1013FC000064010045DD00200100000014AD04086C
:10140C0044DD002000C8010042DD00200000D007B0
:10141C000100000041DD002000C8010040DD00207B
:10142C0000C801003FDD002000C801003EDD0020A7
:10143C0000C801003DDD002000FA01000A00000098
:10144C003ADD002000FA01000A00000037DD002020
:10145C0000FA01000A0000003CDD002000FA010047
:10146C000A00000039DD002000FA01000A0000002B
:10147C0036DD002000FA01000A0000003BDD0020F0
:10148C0000FA01000A00000038DD002000FA01001B
:10149C000A00000035DD002000FA01000A000000FF
:1014AC001EDE0020010A010026DE002000FA0100E9
:1014BC0024DE00200000E803050000002FDE0020E1
:1014CC0000C801002EDE002000C801002DDE002027
:1014DC0000C801002CDE002000C801002BDE00201B
:1014EC0000C801002ADE002000C8010029DE00200F
:1014FC0000C8010028DE002000C8010027DE002003
:10150C0000C8010022DE002000FA010020DE0020CD
:10151C000000E803050000001DDE0020006401004F
:10152C00C0E0040800000000000000000000000003
:10153C000000000040E90408090000000000000061
:10154C00180800200400000058E9040809000000F5
:10155C00000000000C0800200400000050EB040800
:10156C00090000000000000000080020040000003A
:10157C0058DA04080900000000000000F4070020FD
:10158C0004000000D0E00408090000000000000086
:10159C00E807002004000000D8E00408090000005F
:1015AC0000000000DC07002004000000E0E004085C
:1015BC000900000000000000D0070020040000001B
:1015CC00E8E004080900000000000000C407002047
:1015DC000400000060DF04080100000000000000AF
:1015EC000000000000000000000000000E000000E1
:1015FC000000000000000000000000000CE30408E4
:10160C0000000000000000000000000000000000CE
:10161C007C2005080700000000000000480800209E
:10162C00000000001CE3040808000000000000009B
:10163C003C0800200000000028E30408080000001B
:10164C0000000000300800200000000030E3040817
:10165C00080000000000000024080020000000002A
:10166C0054DF040802000000D5CE01080100000080
:10167C000000000060DF0408010000000000000012
:10168C000000000000000000000000000E00000040
:10169C0000000000000000000000000040E304080F
:1016AC00000000000000000000000000000000002E
:1016BC0050E304080D000000000000008408002026
:1016CC000000000058E304080D00000000000000BA
:1016DC00780800200000000060E304080700000008
:1016EC0000000000700800200000000068E30408FF
:1016FC000D00000000000000640800200000000045
:10170C0070E304080D0000000000000058080020E1
:10171C000000000078E3040807000000000000004F
:10172C00500800200000000054DF040802000000F4
:10173C00D5CE0108010000000000000060DF0408A5
:10174C00010000000000000000000000000000008C
:10175C00000000000E00000000000000000000006F
:10176C000000000080E304080000000000000000FE
:10177C0000000000000000007C2005080C000000A8
:10178C000000000040DB00200000000094E304088F
:10179C000C0000000000000042DB002000000000F4
:1017AC00A4E304080C0000000000000078DB00201B
:1017BC0000000000B4E304080C000000000000006E
:1017CC006CDB002000000000C8E304080C000000E3
:1017DC000000000044DB002000000000D4E30408FB
:1017EC000C0000000000000046DB002000000000A0
:1017FC00DCE304080C0000000000000048DB0020C3
:10180C0000000000F0E304080C00000000000000E1
:10181C004ADB002000000000F8E304080C00000084
:10182C00000000004CDB00200000000000E4040875
:10183C000C000000000000008ADB0020000000000B
:10184C0018E404080C000000000000004EDB00202F
:10185C000000000024E404080C000000000000005C
:10186C0050DB002000000000C8E504080C0000005C
:10187C000000000052DB0020000000002CE40408F3
:10188C000C0000000000000054DB002000000000F1
:10189C0038E404080C0000000000000056DB0020B7
:1018AC000000000044E404080C00000000000000EC
:1018BC0058DB00200000000050E404080C0000007D
:1018CC00000000005ADB0020000000005CE404086B
:1018DC000C000000000000005CDB00200000000099
:1018EC0068E404080C0000000000000070DB00201D
:1018FC000000000070E404080C0000000000000070
:10190C006EDB00200000000078E404080C000000EE
:10191C00000000007CDB00200000000084E40408D0
:10192C000C000000000000007EDB00200000000026
:10193C0090E404080C0000000000000084DB002090
:10194C0000000000F0DB04080C00000000000000A8
:10195C005EDB0020000000009CE404080C0000008A
:10196C000000000066DB002000000000A4E4040876
:10197C000C0000000000000060DB002000000000F4
:10198C00B0E404080C0000000000000062DB002042
:10199C0000000000BCE404080C0000000000000083
:1019AC0064DB002000000000C4E404080C0000000C
:1019BC000000000068DB002000000000D0E40408F8
:1019CC000C0000000000000072DB00200000000092
:1019DC00D8E404080C000000000000006ADB0020C2
:1019EC0000000000E4E404080C000000000000000B
:1019FC007ADB002000000000F0E404080C0000007A
:101A0C000000000074DB002000000000F8E4040873
:101A1C000C0000000000000076DB0020000000003D
:101A2C0000E504080C0000000000000080DB002032
:101A3C000000000008E504080C0000000000000095
:101A4C0082DB00200000000010E504080C00000000
:101A5C000000000092DB00200000000060DF0408A2
:101A6C000100000000000000000000000000000069
:101A7C00000000000E00000000000000000000004C
:101A8C000000000018E50408000000000000000041
:101A9C00000000000000000024E504080D00000018
:101AAC0000000000DC080020000000002CE5040809
:101ABC000D00000000000000D00800200000000015
:101ACC0034E504080700000000000000C8080020EE
:101ADC000000000040E504080700000000000000C2
:101AEC00C0080020000000004CE5040809000000BC
:101AFC0000000000B40800200000000058E50408B5
:101B0C000900000000000000A808002000000000F0
:101B1C0064E5040809000000000000009C08002097
:101B2C000000000074E5040809000000000000003B
:101B3C00900800200000000054DF040802000000A0
:101B4C00D5CE0108010000000000000060DF040891
:101B5C000100000000000000000000000000000078
:101B6C00000000000E00000000000000000000005B
:101B7C000000000088E504080000000000000000E0
:101B8C000000000000000000ECDE04080000000073
:101B9C0000000000000000000000000098E50408B0
:101BAC000D000000000000001809002000000000DB
:101BBC00A4E504080B000000000000000C09002044
:101BCC0000000000B0E504080B000000000000005D
:101BDC000009002000000000C0E504080800000017
:101BEC0000000000F408002000000000D4E5040808
:101BFC000300000025D00108E808002000000000C8
:101C0C0054DF040802000000D5CE010802000000D9
:101C1C000000000060DF040801000000000000006C
:101C2C000000000000000000000000000E0000009A
:101C3C00000000000000000000000000E0E50408C7
:101C4C000000000000000000000000000000000088
:101C5C00F0E50408050000000000000099DB0020FE
:101C6C000000000054DF040802000000D5CE01087B
:101C7C00010000000000000060DF0408010000000B
:101C8C000000000000000000000000000000000048
:101C9C000E0000000000000000000000000000002A
:101CAC00F8E504080000000000000000000000003F
:101CBC000000000094E004080D000000000000008B
:101CCC00380900200000000004E6040807000000AA
:101CDC000000000030090020000000009CE4040813
:101CEC000D0000000000000024090020000000008E
:101CFC0060DF04080100000000000000000000008C
:101D0C0000000000000000000E00000000000000B9
:101D1C0000000000000000000CE6040800000000B9
:101D2C000000000000000000000000001CE6040899
:101D3C000D00000000000000500900200000000011
:101D4C0024E604080A000000000000007AE10020EC
:101D5C000000000030E604080A000000000000004B
:101D6C0082E100200000000038E604080A000000B0
:101D7C00000000008AE100200000000040E604089A
:101D8C0008000000000000004409002000000000D2
:101D9C0054DF040802000000D5CE01080100000049
:101DAC000000000060DF04080100000000000000DB
:101DBC000000000000000000000000000E00000009
:101DCC0000000000000000000000000048E60408CD
:101DDC0000000000000000000000000000000000F7
:101DEC005CE604080800000000000000280A00203F
:101DFC00000000006CE60408080000000000000071
:101E0C001C0A0020000000007CE60408080000000A
:101E1C0000000000100A0020000000008CE60408FE
:101E2C000800000000000000040A00200000000070
:101E3C009CE604080800000000000000F8090020DF
:101E4C0000000000ACE604080800000000000000E0
:101E5C00EC09002000000000BCE6040808000000AB
:101E6C0000000000E009002000000000C8E60408A3
:101E7C000800000000000000D40900200000000051
:101E8C00D8E604080800000000000000C809002083
:101E9C0000000000E8E60408080000000000000054
:101EAC00BC09002000000000F0E604080800000057
:101EBC0000000000B009002000000000F8E6040853
:101ECC000800000000000000A40900200000000031
:101EDC0000E704080800000000000000980900203A
:101EEC000000000008E704080800000000000000E3
:101EFC008C0900200000000018E70408080000000E
:101F0C0000000000800900200000000024E7040805
:101F1C000800000000000000740900200000000010
:101F2C0030E70408080000000000000068090020E9
:101F3C00000000003CE7040808000000000000005E
:101F4C005C0900200000000054DF040802000000BF
:101F5C00D5CE0108010000000000000060DF04087D
:101F6C000100000000000000000000000000000064
:101F7C00000000000E000000000000000000000047
:101F8C000000000048E7040800000000000000000A
:101F9C00C70400200000000054E704080B000000F8
:101FAC0000000000480B00200000000064E704085B
:101FBC000B000000000000003C0B002000000000A3
:101FCC0070E704080B00000000000000300B00203C
:101FDC000000000080E704080B0000000000000077
:101FEC00240B0020000000008CE704080B0000000C
:101FFC0000000000180B002000000000A0E70408FF
:10200C000B000000000000000C0B00200000000082
:10201C00B0E704080B00000000000000000B0020DB
:10202C0000000000BCE704080B00000000000000EA
:10203C00F40A002000000000C8E704080B000000B0
:10204C0000000000E80A002000000000D4E70408AB
:10205C000B00000000000000DC0A00200000000063
:10206C00E0E704080B00000000000000D00A00208C
:10207C0000000000ECE704080B000000000000006A
:10208C00C40A002000000000F8E704080B00000060
:10209C0000000000B80A00200000000004E804085A
:1020AC000B00000000000000AC0A00200000000043
:1020BC0010E804080B00000000000000A00A00203B
:1020CC00000000001CE804080700000000000000ED
:1020DC00980A00200000000024E804080700000013
:1020EC0000000000900A00200000000030E8040806
:1020FC000B00000000000000840A0020000000001B
:10210C003CE804080B00000000000000780A0020E6
:10211C000000000048E804080B000000000000006C
:10212C006C0A00200000000054E8040808000000BD
:10213C0000000000600A00200000000064E80408B1
:10214C000D00000000000000540A002000000000F8
:10215C0074E8040807000000000000004C0A00208E
:10216C000000000084E804080700000000000000E4
:10217C00440A00200000000094E804080700000056
:10218C00000000003C0A002000000000A4E8040845
:10219C000700000000000000340A002000000000CE
:1021AC0054DF040802000000D5CE01080100000035
:1021BC000000000060DF04080100000000000000C7
:1021CC000000000000000000000000000E000000F5
:1021DC00000000000000000000000000B8E8040847
:1021EC0000000000000000000000000000000000E3
:1021FC00CCE804080800000000000000C00B002020
:10220C0000000000DCE804080800000000000000EA
:10221C00B40B002000000000ECE8040808000000EB
:10222C0000000000A80B002000000000FCE80408DF
:10223C0008000000000000009C0B002000000000C3
:10224C000CE904080800000000000000900B0020BE
:10225C000000000020E90408080000000000000055
:10226C00840B00200000000030E904080700000087
:10227C00000000007C0B00200000000048E904086E
:10228C000700000000000000740B0020000000009C
:10229C0060E9040807000000000000006C0B00203F
:1022AC000000000074E904080700000000000000B2
:1022BC00640B00200000000084E904080700000003
:1022CC00000000005C0B00200000000098E90408EE
:1022DC000700000000000000540B0020000000006C
:1022EC0054DF040802000000D5CE010801000000F4
:1022FC000000000060DF0408010000000000000086
:10230C000000000000000000000000000E000000B3
:10231C00000000000000000000000000A8E9040814
:10232C000000000000000000C404002000000000B9
:10233C00B8E904080B00000000000000840C002029
:10234C0000000000C4E904080B00000000000000BD
:10235C00780C002000000000D0E904080B000000FD
:10236C00000000006C0C002000000000DCE90408F8
:10237C000B00000000000000600C002000000000BA
:10238C00E8E904080B00000000000000540C0020D9
:10239C0000000000F4E904080B000000000000003D
:1023AC00480C00200000000000EA04080B000000AC
:1023BC00000000003C0C0020000000000CEA0408A7
:1023CC000B00000000000000300C0020000000009A
:1023DC0018EA04080B00000000000000240C002088
:1023EC000000000024EA04080700000000000000C0
:1023FC001C0C00200000000030EA0408070000005C
:10240C0000000000140C0020000000003CEA04084E
:10241C0007000000000000000C0C00200000000071
:10242C004CEA04080700000000000000040C002027
:10243C00000000005CEA0408080000000000000036
:10244C00F80B00200000000064EA040807000000FC
:10245C0000000000F00B00200000000070EA0408EF
:10246C000D00000000000000E40B00200000000044
:10247C0080EA04080700000000000000DC0B0020CC
:10248C00000000008CEA04080700000000000000B7
:10249C00D40B0020000000009CEA04080600000099
:1024AC0000000000CC0B00200000000054DF0408EA
:1024BC0002000000D5CE0108010000000000000061
:1024CC0060DF0408010000000000000000000000B4
:1024DC0000000000000000000E00000000000000E2
:1024EC000000000000000000ACEA0408000000003E
:1024FC0000000000C404002000000000C4EA04082E
:10250C000700000000000000080D00200000000083
:10251C00D0EA04080800000000000000FC0C0020B9
:10252C0000000000DCEA04080700000000000000C6
:10253C00F40C002000000000E8EA0408070000008A
:10254C0000000000EC0C002000000000F0EA040881
:10255C000700000000000000E40C00200000000058
:10256C00F8EA04080700000000000000DC0C002062
:10257C0000000000E0E90408070000000000000073
:10258C00D40C002000000000ECE904080700000057
:10259C0000000000CC0C002000000000F8E904084A
:1025AC000700000000000000C40C00200000000028
:1025BC0000EB04080700000000000000BC0C002029
:1025CC000000000008EB04080700000000000000F9
:1025DC00B40C00200000000010EB04080700000001
:1025EC0000000000AC0C00200000000018EB0408F8
:1025FC000800000000000000A00C002000000000FB
:10260C0028EB04080700000000000000980C0020D4
:10261C000000000038EB0408070000000000000078
:10262C00900C00200000000054DF040802000000A1
:10263C00D5CE0108010000000000000060DF040896
:10264C00010000000000000000000000000000007D
:10265C00000000000E000000000000000000000060
:10266C00000000000000000065B00108100D002003
:10267C0097DB00202C0000001CAD040896DB00202A
:10268C0000C8010094DB0020E803D0070100000023
:10269C004D4C5459504846340000000032DB0020A9
:1026AC000003010031DB002000030100ADAF010885
:1026BC0085AF0108EC0D00204DAF01080DAF0108EE
:1026CC008C0E0020EDAF0108D5AF0108540F00208F
:1026DC0091AE01084DAE01087412002089B50108B5
:1026EC0059B501086413002079B00108D1CB010859
:1026FC002C1400202DAE0108A1CB01089014002051
:10270C0081CD0108EDB5010808150020F9B10108CB
:10271C007DB10108BC15002031B3010879B3010863
:10272C007417002049DD00200106010009B10108E1
:10273C00A1B00108CC19002075B2010801CC010828
:10274C000C1B0020ADB30108C1CC0108D81C002023
:10275C0034DD00200103010040EB04080000000000
:10276C000000000000000000000000004CEB04081A
:10277C000800000000000000741E00200000000093
:10278C0054EB040807000000000000006C1E002041
:10279C000000000064EB04080D00000000000000C5
:1027AC00601E00200000000070EB04080300000015
:1027BC0025D00108541E00200000000054DF04083E
:1027CC0002000000D5CE010801000000000000004E
:1027DC0060DF0408010000000000000000000000A1
:1027EC0000000000000000000E00000000000000CF
:1027FC00000000000000000078EB0408000000005E
:10280C0000000000000000000000000088EB04083D
:10281C000A00000000000000C4D7040800000000FB
:10282C0090EB04080A0000000000000098EB04087C
:10283C0000000000A0EB04080A00000000000000EB
:10284C0054DE002000000000A8EB04080A00000081
:10285C0000000000801E00200000000060DF040863
:10286C00010000000000000000000000000000005B
:10287C00000000000E00000000000000000000003E
:10288C0000000000B0EB0408000000000000000095
:10289C000000000000000000BCEB04080300000076
:1028AC0025D00108B41E002000000000C8EB04086D
:1028BC000300000025D00108A81E00200000000025
:1028CC00D0EB04080300000025D001089C1E00205A
:1028DC0000000000D8EB0408050000000000000018
:1028EC0030DB002000000000E0EB040807000000D3
:1028FC0000000000941E002000000000ECEB040817
:10290C0007000000000000008C1E002000000000EA
:10291C0054DF040802000000D5CE010801000000BD
:10292C000000000060DF040801000000000000004F
:10293C000000000000000000000000000E0000007D
:10294C00000000000000000000000000F8EB04088C
:10295C00000000000000000000000000000000006B
:10296C000CEC04080300000025D00108F01E002028
:10297C000000000018EC04080300000025D001083A
:10298C00E41E0020000000001CEC04080300000002
:10299C0025D00108D81E002000000000C4DA04086D
:1029AC000300000025D00108CC1E00200000000010
:1029BC009CE404080300000025D00108C01E002080
:1029CC000000000054DF040802000000D5CE01080E
:1029DC00010000000000000060DF0408010000009E
:1029EC0000000000000000000000000000000000DB
:1029FC000E000000000000000000000000000000BD
:102A0C0028EC04080000000000000000000000009A
:102A1C000000000038EC04080700000049CD010854
:102A2C00401F002000000000C0E404080300000068
:102A3C0025D00108341F00200000000044EC0408DD
:102A4C000300000025D00108281F00200000000012
:102A5C004CEC04080300000025D001081C1F0020CA
:102A6C000000000054EC0408070000002DCD010804
:102A7C00141F00200000000078DA04080300000096
:102A8C0025D00108081F00200000000060EC04089D
:102A9C000300000025D00108FC1E002000000000EF
:102AAC0054DF040802000000D5CE0108010000002C
:102ABC000000000060DF04080100000000000000BE
:102ACC000000000000000000000000000E000000EC
:102ADC0000000000000000000000000035B00108FC
:102AEC0005B00108481F0020B9B50108000000001E
:102AFC00E81F0020F1AE0108D5AE010874200020BB
:102B0C0000000000000000003C21002029B4010856
:102B1C0065CD0108F02100206CEC040800000000D9
:102B2C0000000000000000000000000078EC040829
:102B3C000300000025D00108FC220020000000004A
:102B4C0080EC04080300000025D00108F0220020CE
:102B5C00000000002CDB04080300000025D0010855
:102B6C00E4220020000000008CEC040803000000AC
:102B7C0025D00108D82200200000000098EC0408A1
:102B8C000300000025D00108CC220020000000002A
:102B9C00A0EC040802000000D5CE010800000000E3
:102BAC000000000054DF040802000000D5CE01082C
:102BBC000100000000000000A8EC04080200000066
:102BCC00D5CE01080200000000000000000000004B
:102BDC000E000000000000000000000000000000DB
:102BEC00FFFF00000000803F00000000000000001C
:102BFC00000000000000803F00000000000000000A
:102C0C00000000000000803F0000000000000000F9
:102C1C0000000000FFFFFFFF0000803FFF000000EE
:102C2C00000000006CF5002008000000000000000F
:102C3C005CF5002008000000482400200508030073
:102C4C0000000000DCAC040828A80408D0AC040880
:102C5C0000000000000000009725010893250108E2
:102C6C008B2501083B3201086D32010889250108CA
:102C7C00F93101087D250108752501087125010828
:102C8C0069250108010102FFFF000000B19900084D
:102C9C00699A000819210108000000000D8A00083B
:102CAC00B59000085D9800082D9000080000000009
:102CBC0000000000C9890008D9870008CD870008EA
:102CCC00B5980008D1980008999800087D980008DC
:102CDC006198000869990008459A00086520010868
:102CEC0000000000E18900083190000831980008CC
:102CFC00918F00080000000000000000D58900083A
:102D0C00010000005001000007000000020000005C
:102D1C00000000000000000001020304060708097F
:102D2C00FF0000001825002000000000000000003B
:102D3C000000000000000000000000000000000087
:102D4C000000000000000000000000000000000077
:102D5C000000000000000000000000000000000067
:102D6C000000000000000000000000000000000057
:102D7C000000000000000000000000000000000047
:082D8C0000000000000000003F
:108000002DE9F04F2DED108B034697B004331593F7
:10801000DFEDCACA149002238A4613928B4612934C
:10802000149C4FEADB0604EB461202EB061031010A
:10803000A6EB86034FEAC60806EB4605CDE900012C
:1080400000EBC303043108F10400119620442144DD
:108050002C01C6EBC60C0394EC00119D04944FEA6E
:10806000CC0405946C0106EB860E0294159D009CD1
:1080700003EB46174FEACE0E02EBC6064FEACB09DA
:108080004FF0000C51ED01AAD3ED001A92ED007AE9
:1080900094ED005A96ED004AD7ED007A15ED012ACD
:1080A00050ED016A32EE07BA76EE840A7AEE855A0E
:1080B00031EEA70A3BEE256A70EE804A76EEC46A7E
:1080C00036EE244A36EE646A05ED014A82ED006A16
:1080D000D0ED00BAD6ED012AD3ED019A95ED00AAB4
:1080E00092ED016A97ED013A91ED00CAD4ED014A93
:1080F0007BEEE23A36EEE19A32EE472A73EEE98AF7
:108100003AEE464A39EE279A78EE838AB0EE428AF2
:10811000A9EE6C8ADC44E24573EEC33AB0EE441A31
:10812000A8EEEC1A76EEE77A33EEA97A7CEE643AA2
:1081300077EEA17A3AEE066A7AEEC51A3CEE24AAE8
:1081400074EECC4A39EE833A35EE6A5AF0EE639A11
:10815000F0EE48AAE7EE2C9AA8EEAC4AE7EE2C4ADD
:10816000E7EE6CAAF0EE418AB0EE427AB0EE612AF8
:108170007BEE656A7BEEA22A76EE4A5AA9EE2C7A4D
:10818000A7EEAC2AA7EEAC5AE7EEEC8A32EE83BA41
:1081900076EEC3BA35EEE09A75EEC07A36EE0A6A2C
:1081A00076EEE26A36EE0BAA76EE836A77EEA07A76
:1081B00034EE423A77EE290A36EE4B6A7BEEA22A7B
:1081C00039EE000A73EEAA3A78EE244A37EE697A5D
:1081D00031EE055A71EEA85A32EE044A85ED00AA36
:1081E00082ED016A4D4441ED012A4A44C4ED006A22
:1081F00081ED000AC4ED017A494440ED010A4C4486
:1082000087ED007AC6ED003AC3ED004A80ED003AF2
:1082100087ED014A484486ED015A4F44C3ED015AA7
:108220004E444B443FF62EAF119B072B40F2C781C3
:10823000029D149E019B03980499059A08357519AF
:108240000C330E95354608F108080EF10804EB18BA
:1082500008300831083246442C1928186918AA1821
:10826000079305F10C030D960C940B900A9109925B
:1082700008934FF001084FF0000E129B9E44139B91
:1082800003EBCE0303EBCE02109302EBCE0303EB22
:10829000CE01029101EBCE0101EBCE0505EBCE063E
:1082A000D6ED007A0F93AEEB8E03019106EB03132C
:1082B00003EBCE07D3ED01AACDED067A019BD5EDF8
:1082C000007A97ED01BACDED057AD3ED007A029BE5
:1082D000CDED047AD3ED007A0F9BCDED037A07EB59
:1082E000CE0CD3ED007ADCED01BACDED027A0CEBC9
:1082F000CE01D2ED007A109A009101EBCE0001463A
:1083000091ED01DACDED017A0099D2ED007A91ED8F
:1083100001CA00EBCE0000EBCE0494ED01EAD0EDF3
:1083200001DACDED007ADDE90776DDE90954DDE912
:108330000B01DDE90D23C44602E000BFF304353F25
:1083400094ED009A90ED00FA91ED006AD5ED007A77
:10835000D3ED006A57ED014A92ED005A56ED013A0D
:1083600096ED00AA35EE060A73EEA65A39EE278A74
:1083700034EE8F7A70EE082A75EE87EA35EE465AAB
:108380003EEEA26A73EEE63A06ED016AD1ED019A7D
:10839000D2ED01FAD4ED016AD3ED011A95ED013A5F
:1083A000D0ED018A97ED004A3FEEE96A35EE491AB1
:1083B00076EE660A31EE271A3AEE612A75EE677A92
:1083C00070EE830A3FEEA95A74EECF9A77EE897A5F
:1083D0007AEE211AB0EE42AA74EE68FAA0EEECAA88
:1083E000DC44E24535EEC77AB0EE639A74EE285A63
:1083F00038EEC44AF0EE698AA1EE6C9AE7EEAC8AD8
:1084000036EE436A7FEE644A36EE266AA0EEAC2A68
:10841000F0EE4A0AE7EEEC0AE7EEAC4AF0EE687AD4
:10842000F0EE498A36EE833AE6EE6C8AE1EE2C3ABB
:10843000B0EE6F1AA6EE2C1A71EEE56AA6EE2C4A83
:1084400071EEA55A75EE031A7EEEE22A37EE43FA74
:1084500075EEE1EAB0EE686A76EEC08A39EE044A5B
:108460007FEE86FA76EEC86A33EE816A38EE888A45
:1084700073EEC13A37EE457A2CEE2E1A3FEE055ACE
:1084800022EECC9A9DED03FA70EE266A33EE077A5F
:10849000AFEE221AAFEE2E9A7AEE244A9DED01FA43
:1084A00079EEA09A25EE4BAA72EE670A37EE822A81
:1084B0006BEE087AAFEE08AAEFEE057A2DEEA63A3B
:1084C0009DED05FA67EE6D8AAFEE073AEFEE268A6C
:1084D00066EE6A2A9DED00FA2AEEA00AEFEE202A47
:1084E0006EEE02EADDED060A23EECE5AE0EEA3EAD6
:1084F0002BEEA98ADDED023AAFEE060AA3EE848ADE
:1085000024EE6B7A6DEE246A9DED044A2FEECD6A5F
:10851000A0EE825AA3EEA97AE4EE2F6AA4EE246AB2
:1085200075EEA15AC6ED005A83ED001A83ED019A4B
:108530004E4447ED017A87ED00AA4B4480ED003AA6
:10854000C0ED018A4F4482ED000A4844C2ED012A81
:10855000C5ED00EA85ED015A4A44C1ED006A81ED9E
:10856000016A4D4484ED008A84ED017A49444C440B
:108570003FF6E6AE0E9B08330E930D9B08330D932A
:108580000C9B08330C930B9B08330B930A9B08330B
:108590000A93099B08330993089B08330893079BA8
:1085A00008330793119B08F1010843457FF465AE3A
:1085B000129BDDF844B0DB009BB2129330E517B09C
:1085C000BDEC108BBDE8F08F70B4C3080D4CE25CBD
:1085D00000F00706B24004EBD004D2B20020C6F18E
:1085E00008038B4228BF0B46C3F108052A41984077
:1085F000C91A40EA02004FF0000614F8012FEED12C
:1086000070BC7047B8250020084AD2E91A31994257
:1086100009D0D118013391F870100170C3F30A0327
:108620009366012070470020704700BF7825002026
:10863000064AD2F87038D2F87428934294BF4FF4A7
:1086400000600020013B9B1A1844704778250020E9
:10865000012380F84D30704707B501A8FFF7D4FF1C
:108660000028FAD09DF8040003B05DF804FB044B29
:10867000D3E91A03984288BF03F50063181A7047BC
:108680007825002001207047024BC3F87828C3F8F2
:108690007C18704778250020024BC3F88028C3F867
:1086A00084187047782500207047704730B4124D09
:1086B000D5E91A239A4286BF03F50064A21A9A1AD2
:1086C0000A44B2F5006F12D8A1B101444A1E013824
:1086D00010F8014FE918824203F1010381F870405C
:1086E000C3F30A03F4D1EB66002030BC70470220CC
:1086F00030BC70470846F8E778250020212838B5B7
:108700000C4605D022282ED0202813D0002038BDBA
:108710000029FBD0072AF9D11A4BD3F8880893F81F
:108720008C1893F88D2893F88E382060217162712F
:10873000A371EBE70029E9D0072AE7D1114DD5F85D
:108740007C381BB10968D5F87808984720682179EA
:108750006279A379C5F8880885F88C1885F88D2882
:1087600085F88E38D2E70029D0D0022ACED1054A2A
:10877000D2F88438002BC9D00988D2F880089847ED
:10878000C4E700BF78250020024B0020C3F8900802
:10879000704700BF78250020044B00200522C3F855
:1087A0009028C3F88408C3F87C0870477825002017
:1087B000704700BF704700BF704700BF704700BFE1
:1087C000704700BF704700BF704700BF04230148D7
:1087D0000B8070470000002010B4074A074B92F846
:1087E0009408122403F114020C8001280CBF1846CF
:1087F00010465DF8044B70477825002004000020E7
:108800000020704700207047034B9B6A0B604FF4B9
:108810000073136000207047782500200023F0B417
:1088200052004F1C1E46B0F1204F4FEA107404F165
:1088300030052ABF3734CD54CC54FE5402339A420B
:108840004FEA0010EFD1F0BC704700BF0B4A0C4B51
:1088500010681B681A22C0180A8001D109487047A5
:1088600010B5094B09491C680822FFF7D7FF2046BD
:1088700007490422FFF7D2FF024810BDE8F7FF1FA7
:10888000ECF7FF1F2C000020EAF7FF1F2E0000204E
:108890003E000020042301480B8070474800002060
:1088A000122301480B8070474C000020A0B1826861
:1088B0000D4B12B107229A7070471978DA600329BC
:1088C0004FF004000CBF80214FF48071C3E9011107
:1088D0001A611A7598707047034B41F2B411012266
:1088E0005A545A70704700BFC47A00200378022B94
:1088F00010D0006908B9012070470B4B1B78032B7F
:108900000EBF0A4B80B24FF6F773984294BF002017
:1089100001207047064A43681268B3EB422F2CBF10
:1089200001200020704700BFC47A0020F7FFFF0F2E
:10893000E48C00200378022B14D030B4104A436832
:10894000006941F2182441F210211559515841F2A1
:108950000C242B4012595B0A023801FB00301044F2
:1089600030BC7047064B426841F2042103F5905039
:108970005B58006800EB430000EB5220704700BFDB
:10898000C47A002010B40C4A92F8973802EBC30165
:108990000133DBB2042B4FF0050408BF00234FF472
:1089A000045081F8984882F89738C1F89C085DF81F
:1089B000044B4FF0FF3070477825002020230148FA
:1089C0000B80704760000020642301480B807047D3
:1089D00080000020432301480B807047E400002002
:1089E00010B5084CD4F82801FF2809D00649D1F861
:1089F000B82801F6BC01FFF781FEFF23C4F8283137
:108A0000002010BD0000002078250020E8E700BF0E
:108A100008B5D0F8E4355B6A9847002008BD00BF70
:108A200008B5D0F8E4351B6A9847002008BD00BFA0
:108A300008B5D0F8E435DB6903B19847002008BDDC
:108A400008B5042290F81211D0F8E83580F8131117
:108A500080F81221DB689847002008BD70B5424CB1
:108A6000D4F8CC3806460BB11D22DA80184609210D
:108A700038F0F0FBD4F8CC0838F092FD94F8D238F6
:108A8000013B5BB2022BDBBF384A1B010020D058F0
:108A9000C4F8C8080223102184F8C4383AF068FDED
:108AA00040210A203AF0BCFFFF218A203AF0B8FFAB
:108AB00094F8D038C0F38012012B84F8D32800F04A
:108AC000400046D0022B2A4D3FD0D3B394F8D4387F
:108AD0001A2B07D1B5F82C31A4F8D868A4F8DA28F5
:108AE000A4F8DC38B5F82C11D4F8C8083AF040FDE9
:108AF000B5F82C11D4F8C8083AF03AFDD4F8CC08EF
:108B000038F048FD022100203AF08AFFD4F8CC0862
:108B100038F046FDD4F8C80804213AF029FD94F84D
:108B2000E52894F8E63894F8E41884F8E018C2F1DF
:108B30002002C3F1100384F8E72884F8E838012004
:108B400070BD1023A5F82C31C0E70823A5F82C31FF
:108B5000BCE726B90823064DA5F82C31B6E7002856
:108B600014BF08231023F6E778250020E80400103E
:108B70000000002010B5054C206D3DF0EFFC0028F2
:108B8000FAD1E06DBDE8104038F00ABD782500202C
:108B9000F8B51A4C94F8E938002BFBD159B30144CD
:108BA0004E1E451ED4F87428D4F8701815F8017FAD
:108BB000531CC3F30A038B422CBF4FF40060002008
:108BC000C91A224401440129C4F8743882F8EC78A7
:108BD0000FD1012037F080FFD4F87038D4F8741822
:108BE0008B4294BF4FF4006200225B1A1344012BA6
:108BF000EFD0B542D6D10020F8BD00BF78250020C7
:108C00000A4B0846D3F8901810B569B1D3F89038DC
:108C1000052B09D1064C002A54F80C3C04DD114602
:108C2000FFF7B6FF54F80C3C10BD00BF78250020BC
:108C30007036002010B590F84C10002380F84C30AE
:108C400089B10C4CD4F890287AB1D4F89028052A30
:108C50000DD1094C383054F80C3CFFF799FF54F80B
:108C60000C3C012010BD0120FCE71046FAE7184635
:108C7000F8E700BF7825002070360020002280F839
:108C80004D20D7E790F84C20531C0244DBB280F80B
:108C90004C3082F8381090F84D200AB1132B00D9CF
:108CA000C8E770472DE9F0412DED028B0128514BAB
:108CB00082B00D4658D0504E1A689B880092ADF88D
:108CC0000430371FDFF850819FED4C8AD8F8CC363E
:108CD000BDF800204A494B4C396007EE903AB4FB8E
:108CE000F3F4F8EE677A27EE888A7AB194420DD3CE
:108CF000002D6CD0012D09D107EE902A1946424B68
:108D00003B60B8EE670A304639F046FCBDF80230E9
:108D10008BB19C420FD3002D46D0012D0BD107EE15
:108D2000903A394AD8F8CC163A60B8EE670A06F19C
:108D3000240039F031FCBDF8043083B39C422ED3BB
:108D4000DDB1012D2BD107EE903A2F4AD8F8CC1681
:108D50003A60B8EE670A06F1480002B0BDEC028B3B
:108D6000BDE8F04139F018BC284ED3F806205B89E5
:108D70000092ADF80430371FA4E707EE903ADFED1C
:108D8000246A244A3A60F8EEE77A002386EEA77A4E
:108D9000B36477EE087A88EE277A86ED137A02B00C
:108DA000BDEC028BBDE8F08107EE903ADFED186A6A
:108DB000184B3B60F8EEE77A002386EEA77A7362E1
:108DC00077EE087A88EE277A86ED0A7AB3E707EE1F
:108DD000902ADFED0F6A0F4B3B60F8EEE77A002335
:108DE00086EEA77A336077EE087A88EE277A86EDEA
:108DF000017A8BE770360020D4050010BD37863528
:108E0000E5E8030820A1070035E803084406001040
:108E100083F9223EC9E80308E804001010B5124C9B
:108E20000023FF21206D236238F094FDFD21206D89
:108E300038F090FD206DFF2138F08CFDFF280AD11D
:108E40000146206D38F086FDFF2804D1042302205E
:108E500084F8243010BD054B53F80C3C63610923A2
:108E6000002084F8243010BD7825002070360020C2
:108E7000F8B5114D06460F460924286DFF2138F03C
:108E800069FDFF2803D1013CF7D10120F8BDFE2880
:108E900001D00220F8BD3B463246286D00213CF04F
:108EA00049FC286DFF2138F055FD286DFF2138F071
:108EB00051FD0020F8BD00BF7825002070B582B0BC
:108EC00040F040050C0E06460A0A080C95238DF862
:108ED0000050134D8DF801408DF804108DF80200FC
:108EE0008DF803208DF805300824286DFF2138F017
:108EF00031FDFF2802D0013CF7D176B9286D062359
:108F0000002269463CF016FC0924286DFF2138F048
:108F100021FDFF2802D1013CF7D1FF2002B070BD36
:108F200078250020F8B5184C94F82430042B074617
:108F30000E46154607D0082B01D00020F8BDFFF7DC
:108F40006DFF0228F9D1E06D38F024FBA37E8BB9C8
:108F500079021120FFF7B2FF90B90C4B266053F84D
:108F60000C2C67600523C4E90350626184F8243047
:108F70000120F8BD39461120FFF7A0FF0028ECD0F2
:108F8000FFF7F8FDD9E700BF7825002070360020F4
:108F900023490B6B0F2B03D05A1C0A630020704728
:108FA00070B5204C94F8E95800230B63EDB9D4F860
:108FB0007028D4F87438B2F5006F18D09A422AD0CD
:108FC00019D9C2F50063402B17D9403B02F1400587
:108FD0004B63012384F8E938C4F8705892B24023F7
:108FE00011490A4481210BF0D9FF002070BDC4F85B
:108FF000705883B12A469B1AE5E74FF0000502EB53
:1090000003064D630CBF02210121C4F8706892B2BF
:1090100084F8E918E4E7002384F8E938E5E700BFBD
:109020007036002078250020642E0020B0E700BFB5
:1090300070B51D4C94F8E938012B03D0022B09D0F0
:10904000002070BD01461948436B53B984F8E938D4
:10905000002070BD00231A4681210BF09FFF0023E2
:10906000F4E7402BD4F870280FD9403B02F14005BB
:109070004363C4F8705892B240230D4C0846224412
:1090800081210BF08BFF002070BD4FF0000503EB3A
:109090000206456308BF0220C4F8706892B208BF98
:1090A00084F8E908E9E700BF782500207036002041
:1090B000642E0020012905D008B503210CF06EF9BB
:1090C000002008BDB4E700BF70B50F4D2B6C0446FF
:1090D0002BB195F8442095F85830134310D08121D6
:1090E00020460BF0E3FC95F85830022B00D070BD01
:1090F0002046064ABDE870401F2301210BF070BFD7
:1091000001210BF0D3FCEAE770360020A8360020DE
:1091100070B50C4C0C4BE36504F15C02054684F819
:10912000681000260D23812184F86C600BF036FF57
:10913000284604F138021F23BDE8704001210BF0DE
:109140004FBF00BF70360020555342532DE9F04108
:10915000A94C94F84730206782B088465A2B00F219
:10916000AC80DFE813F0C000AA00AA00CE00AA007D
:10917000AA00AA00AA00AA00AA00AA00AA00AA009F
:10918000AA00AA00AA00AA00AA000401AA00AA0034
:10919000AA00AA00AA00AA00AA0027017200AA0039
:1091A000AA007200AA00AA00AA00AA00A401AA00AC
:1091B0005501AA00AA007A00AA00F101AA00AA009B
:1091C000AA00AA005B00AA00AA00AA00AA00AA009E
:1091D000AA00AA00AA00AA00AA00AA00AA00AA003F
:1091E000AA00AA00AA00AA00AA00AA00AA00AA002F
:1091F000AA00AA00AA00AA00AA00AA00AA00AA001F
:10920000AA00AA00AA00AA00AA00AA00AA00AA000E
:10921000AA00AA00AA00AA00AA00CE0194F8483029
:109220009B0700F14082B4F84E30D4F84920D4F8BE
:1092300080105BBA9BB212BAD0188842C4E92123CD
:1092400003D9FFF79FFB00284ADB0020A4F8780031
:109250000546284602B0BDE8F08194F86C30002B3A
:1092600040F0F68094F94430002B26DA636F08460C
:109270009B689847002840F0F681B4F84E50D4F827
:109280004970D4F880306DBAADB23FBA7A199A42BB
:10929000C4E9217503D9FFF775FB002820DBE36FD4
:1092A000266C03FB05F503FB07F20220B542C4E977
:1092B000212584F86C0000F0CE80504A92F897384F
:1092C000591CC9B202EBC30305244FF40050042912
:1092D00082F8971883F89848C3F89C0800F08B81AF
:1092E0004FF0FF35B5E7236C002BE6D1636F0846DE
:1092F0009B6898470546002840F0B581A4F878009F
:10930000A7E73F4B002203F1120103F8012F8B4224
:10931000FBD13A493B4891F8975894F87A30702637
:1093200006709D424FF00C06C67112D001EBC301CE
:109330000133DBB291F8986891F89D5891F89C1828
:109340008670042B0573417314BF84F87A3084F857
:109350007A2094F84B3012229342A4F8782098BFD8
:10936000A4F878300025284602B0BDE8F08194F8D2
:109370004830DA0700F12781636F94F84B00DA690F
:1093800001EBC10102EB81010A79531D834228BF21
:109390000346A4F87830002BE4D0013B19489BB277
:1093A00001331944034411F8012D03F8012D8342C0
:1093B000F9D1D7E7144E154F35460823073EC5F1BE
:1093C0000700A4F87830002201E0127A1D462B46EF
:1093D000B54203F8012900EB030217FA82F2F4D137
:1093E000636F4046DB6898470028BBD0AB7863F0DA
:1093F0007F03AB7000252CE7703600207825002015
:10940000C36A0020C46A0020CB6A00208C9C040838
:10941000636FBA4A5B680846111D984705460028E5
:1094200040F02181D4E91F12B54B013A100E18709B
:10943000DA70100C120A0E0E58709A70080CD9715E
:109440000822090A1E7158719971A4F8782000E762
:10945000D4E92126E36F656FB2FBF3F2B6F5805FC6
:1094600028BF4FF480562D69A549B6FBF3F340465B
:109470009BB24FF48057A4F87870A8470028C0F238
:10948000A78033469E4A206F81210BF087FDD4E9E7
:109490002120636E3244851B9E1BC4E9212566662C
:1094A000002D7FF45FAF032384F86C30D1E6944E37
:1094B0000027334606F10C0203F8017B9A42FBD1E8
:1094C000636F40465B686A4601A9984705460028D5
:1094D00040F0D480DDE90023013B190E3171190CF5
:1094E000F37171711B0A110CF272B371120A082028
:1094F00071720C230221B272F0703172A4F87830CC
:10950000A7E6804E804F30460823073EC0F107058E
:10951000A4F87830002201E0127C18460346864207
:1095200003F8012905EB030217FA82F2F4D1636F05
:109530004046DB68984700283FF414AFF37863F0A7
:109540007F03F370002584E694F86C30002B58D12B
:1095500094F94430002BFFF6B0AE636F08469B6869
:10956000984700287FD1636F4046DB6898470546DF
:10957000002840F0A980B4F84E30D4F84960D4F8FF
:1095800080205BBA9FB236BAF3199342C4E92167CF
:1095900000F29480E36F226C03FB06F603FB07F3F3
:1095A0009342C4E921637FF488AEB3F5805F28BF9E
:1095B0004FF480530121206F514A84F86C109BB204
:1095C0000BF00EFD45E607234F49A4F87830E4E69A
:1095D0004E4A92F89738591CC9B202EBC3030424CF
:1095E0004FF48850A14282F8971883F89848C3F83E
:1095F0009C087FF475AE002382F897384FF0FF3552
:1096000027E6D4F88860606FE36FD4F8842045695A
:10961000B2FBF3F2B6F5805F28BF4FF480560846E0
:10962000B6FBF3F336499BB2A84700285ADBD4E9CE
:109630002125636E3244AD1B9B1BC4E92125636663
:1096400025B9206F2946FFF763FD02E6B5F5805F77
:1096500028BF4FF48055ABB2206F294A01210BF08F
:10966000BFFC0025F5E5294A92F89738591CC9B284
:1096700002EBC30302244FF4685028E6234A92F811
:10968000973802EBC3010133DBB202244FF4685078
:10969000042B81F89848C1F89C0820D082F89738AC
:1096A0004FF0FF35D5E5194A92F89738591CC9B2E1
:1096B00002EBC30305244FF4105008E6FFF762F9EC
:1096C0000028BFF667AF0BE6104A92F89738591C8E
:1096D000C9B202EBC30302244FF41C50F7E582F831
:1096E0009778FDE5094A92F89738591CC9B202EB00
:1096F000C30304244FF4407074E700BFEC3600202D
:10970000C46A0020CB6A00208C9C040878250020C5
:1097100010B5074B93F845100446FFF717FD0028D6
:1097200000DB10BD20460121BDE81040F0E400BF81
:109730007036002070B5304C94F86C502DB1012D6E
:1097400001D1FFF7E5FF002070BDB0F8B433E26B44
:1097500022661F2B226C6266064607D1274BA26B3E
:109760009A4203D194F8451001291AD9244A92F853
:10977000973802EBC3010133DBB2042B08BF00238F
:1097800005254FF40050C1F89C0882F89738304600
:10979000022381F8985884F85830FFF795FC002090
:1097A00070BD94F84630013B0F2BDFD8FFF7CEFC9D
:1097B000002819DB94F86C30013B022BC3D9B4F8B4
:1097C0007810A9B1236C626E84F868508B4228BF70
:1097D0000B46D11A042561660A4A84F86C5030465B
:1097E00081210BF0DBFBAEE73046FFF76DFCAAE70B
:1097F0003046FFF78DFCA6E77036002055534243F4
:1098000078250020C46A002008B5084B93F86C3016
:10981000022B07D0033B012B02D80021FFF778FC75
:10982000002008BDFFF774FF002008BD703600203F
:1098300010B501EB8101084A00EBC1010446B1F803
:109840008C131046FEF732FF034A204640230121C5
:109850000BF0C6FB002010BDFC360020E8E700BF7F
:1098600010B5044C04480A4621460BF0F9F820468E
:1098700010BD00BF3C370020FCD6040810B5044CD6
:1098800004480A4621460BF0EBF8204610BD00BF05
:109890003C3700200CD7040810B5044C04480A4695
:1098A00021460BF0DDF8204610BD00BF3C370020FC
:1098B00018D7040810B5044C04480A4621460BF09A
:1098C000CFF8204610BD00BF3C37002024D7040845
:1098D00010B5044C04480A4621460BF0C1F8204656
:1098E00010BD00BF3C37002030D7040810B5044C31
:1098F00004480A4621460BF0B3F8204610BD00BFCD
:109900003C3800203CD7040810B5044C04480A46F3
:1099100021460BF0A5F8204610BD00BF3C380020C2
:109920004CD7040810B5044C04480A4621460BF0F5
:1099300097F8204610BD00BF3C38002058D70408D7
:109940000A4608B5054920B905480BF089F80348CF
:1099500008BD04480BF084F8004808BD3C380020DE
:109960006CD7040884D7040810B5022304464022AB
:1099700081210BF0CFFB20460223402201210BF076
:10998000C9FB82212046032308220BF0C3FB064BB0
:1099900002229A83FEF700FF044A20464023012159
:1099A0000BF01EFB002010BD00000020FC36002044
:1099B00038B508220D460446032383210BF0AAFB89
:1099C00029462046FFF7D0FF002038BD10B5812181
:1099D00004460BF069FB204601210BF065FB024BAE
:1099E000002083F86C0010BD7036002070B504466E
:1099F000134EFFF7EBFF20460223402281210BF09C
:109A000089FB40220121204602230BF083FB736F68
:109A100000251B6886F86C50284686F858509847F1
:109A200020460BF0A1FC204601210BF0B7FC20469C
:109A300006F138021F2301210BF0D2FA284670BD2F
:109A40007036002010B5812104460BF02DFB204616
:109A500001210BF029FB822120460BF025FBFEF7AC
:109A600093FE002010BD00BF38B50D46044683218B
:109A70000BF01AFB29462046FFF7E4FF002038BD13
:109A800000F01F0240090123032803FA02F304D067
:109A900004280CD0022805D07047074A116C0B43EC
:109AA00013647047044A516C0B4353647047024A75
:109AB000116B0B4313637047003802400048704736
:109AC0009C3900202DE9F04F2DED028BC44F97B04B
:109AD00097F86824002307F254410391C7F85434DF
:109AE000C7F85834C7F85C34C7F86034C7F8643432
:109AF0001AB197F8693487F8543497F86A341BB16F
:109B000097F86B3487F8633497F86E341BB197F885
:109B10006F3487F85E3497F86C341BB197F86D3466
:109B200087F8593497F8709409F1FF394FFA89F999
:109B3000B9F1FF3F00F0B780AA4AAB4C029402EBA8
:109B400009134FEA0911187955589A68DB6805938B
:109B500008EE100A002304920193A3461E4698467D
:109B60009BF800404946204637F098FF8246204641
:109B7000BAF1000F21D036F05DFC08F10702132185
:109B8000D2B220B14FF0000E827180F807E037F0BA
:109B900061FB9BF8000037F0B3FF4FF00703721C26
:109BA0008BF804304FF001038BF802608BF8010052
:109BB000CDF804A0D6B28BF8033008F10108B8F153
:109BC000040F0BF1050BCBD118EE100A029CFFF726
:109BD00057FF864A864B51680B4043F4403353602D
:109BE000B9F1000F01D1019B73B9DFF80882482059
:109BF000FFF746FF404602213CF0A8FDD8F80830A8
:109C000043F00103C8F8083078497A4B4A687A482B
:109C1000DFF8F4E1B0F800C042F400024A605A688C
:109C2000A7F874C422F480525A609A6BBEF800E020
:109C300022F4401242F480129A63DA6842F460021D
:109C4000DA60996B81F44012C2F3015202EB820098
:109C50004FF01F0808FA00F221EA020111228240A7
:109C60000A439A63DA6842F4E012DA60996BC1F34E
:109C70000152C2F10402D2B202EB820008FA00F2F1
:109C800021EA0201102282405C480088A7F872E4B1
:109C90000A439A63A0EB0C00594B93FBF0F0019B35
:109CA000A7F8760423B917B0BDEC028BBDE8F08F9E
:109CB000284631463CF04AFD039B474603F1140E0B
:109CC00001204FF00708E378411CC9B23BB394F878
:109CD00001C02379ACF10A0202EB42020CEB4C0901
:109CE000BCF1090F08FA02FA08FA09FB03FA02F2BA
:109CF00040F28C80EB6823EA0A0A42EA0A02EA6030
:109D0000431E03EB8303062807FA03F90CFA03F357
:109D10004FD86A6B22EA0902134308466B63053485
:109D2000A645D0D1AB68DDF8108043F40073AB607A
:109D3000AB6843F48073AB60AB6843F00103AB6086
:109D400040463BF0DFFA002206213BF097FB4046FD
:109D50000BF0CAFB07A80BF089FB012E059B294AD3
:109D600007938CBF4FF48064002405F14C0000235E
:109D70000B960D940890099207A94FF400324FF406
:109D800000674FF400564FF4807440460A930C93DA
:109D9000CDE90E76CDE910420BF07AFBD8F8003011
:109DA00043F00103C8F80030AB6843F08043AB6078
:109DB00079E7C21FA0F10D0302EB820203EB8303DC
:109DC0000C2807FA02F907FA03F00CFA02F226D877
:109DD0002B6B23EA09031A4308462A639FE700BF57
:109DE00070360020A49C0408C43A002000230140DF
:109DF000E030FCFF002001402C7AFF1F2E7AFF1F6D
:109E000080380100E83A00202A7AFF1F2A6903FA05
:109E100009F322EA0B0B43EA0B032B6170E7EA6AB2
:109E20000CFA03F322EA000213430846EB6276E7DA
:109E300000285FD00368374A2DE9F04103F13F4421
:109E400004F57E0402EB9422012492F8482002F0EB
:109E50001F055209032A04FA05F456D0042A4FD0EC
:109E6000022A48D08588B5FA85F0C0F11F00C0F3FA
:109E7000CC0603EB860600F0070082000F24306A50
:109E8000944020EA04003062306A01FA02F2024390
:109E9000002132624FF0010E0A464FF0030C0227F8
:109EA0000EFA02F838EA050002F101021CD1186826
:109EB0000CFA01F420EA04001860186807FA01F6A9
:109EC00006431E609E6826EA04069E6098689860B5
:109ED000586820EA0800586058685860D86820EA36
:109EE0000400D860D868D860102A01F10201D7D1E7
:109EF000BDE8F0817047084A556C2C435464B1E7C3
:109F0000054A156B2C431463ACE7034A156C2C43CC
:109F10001464A7E78C9C0408003802402DE9F04740
:109F2000484E96F880140446C1F34001D6F88804E0
:109F300037F03CFB96F88014D6F88404C94301F04E
:109F4000010137F033FB002C60D0671EDFF8F8A06A
:109F5000FFB24FF001094FF00008D6F8883433B152
:109F60001A689B8851690B4214BF53831383D6F838
:109F7000843433B11A689B8851690B4214BF5383F0
:109F80001383B6F89034002B42D196F89214D6F889
:109F9000940437F00BFBFA2536F022FD044636F028
:109FA0001FFD031BB3F57A7FF9D3013DF4D1D6F839
:109FB000883433B11A689B8851690B4214BF5383AC
:109FC0001383D6F8843433B11A689B8851690B42E5
:109FD00014BF53831383B6F8903443BB96F892149E
:109FE000D6F8940481F0010137F0E0FAFA2536F052
:109FF000F7FC044636F0F4FC031BB3F57A7FF9D383
:10A00000013DF4D1013FFFB2FF2FA6D1BDE8F0879B
:10A01000D6F8AC34002BBED0D6F89824B6F8B034BD
:10A02000BAFBF3F35B10136086F8A994B3E7D6F894
:10A03000AC34002BDAD0D6F89834C3F8008086F818
:10A04000A984D3E77036002040420F002DE9F04785
:10A05000464EDFF81CA196F88014D6F88804C1F3A8
:10A06000400137F0A3FA96F88014D6F88404C94367
:10A0700001F0010137F09AFA05274FF001094FF07E
:10A080000008D6F8883433B11A689B8851690B42AE
:10A0900014BF53831383D6F8843433B11A689B8872
:10A0A00051690B4214BF53831383B6F89034002BCD
:10A0B0004DD196F89214D6F8940437F077FA3225F9
:10A0C00036F08EFC044636F08BFC031BB3F57A7F2A
:10A0D000F9D3013DF4D1D6F8883433B11A689B889E
:10A0E00051690B4214BF53831383D6F8843433B1C0
:10A0F0001A689B8851690B4214BF53831383B6F8C7
:10A100009034CBB996F89214D6F8940481F00101FA
:10A1100037F04CFA322536F063FC044636F060FC2A
:10A12000031BB3F57A7FF9D3013DF4D1013F17F05A
:10A13000FF07A6D1BDE8F087D6F8AC34002BE9D0F4
:10A14000D6F89834C3F8008086F8A984E2E7D6F8F8
:10A15000AC34002BB3D0D6F89824B6F8B034BAFBA0
:10A16000F3F35B10136086F8A994A8E7703600201B
:10A1700040420F000130F8B5C6B20A25FFF766FF6E
:10A180004FF4FA7736F02CFC044636F029FC031B1A
:10A19000B3F57A7FF9D3013FF4D13046FFF7BEFE25
:10A1A0004FF47A7736F01CFC044636F019FC031B9A
:10A1B000B3F57A7FF9D3013FF4D1013DDED1F8BD8B
:10A1C000036870B55E6A26B133460522BDE870406B
:10A1D000184704460D464E1D00E023689B68204644
:10A1E00098470028F9D0236815F8011B1B68204602
:10A1F0009847B542F1D170BD2DE9F04F9BB0DDE934
:10A20000247ADDF8989004460D461646984602E0FA
:10A21000206836F049FF206836F04EFF0028F7D15D
:10A220000146642201A83FF0C8FC2A4B8DF8045077
:10A23000CDF85CA00293002D48D0AB1E012B47D96E
:10A24000042D14BF00230323DFF88CA08DF8053004
:10A250005AF80C3C03971F440123CDE90594049759
:10A260008DF85B3036B14246314607A83FF044FCDA
:10A270008DF85A809AF8F6744FF00009132FCDF834
:10A28000609015D89AF8F5B4642202FB0BA001A9DE
:10A290000BF1010B00F59F603FF02EFCBBF1130F9B
:10A2A000D8BF5FFA8BF901378AF8F6748AF8F5940B
:10A2B000236843B143463246294620461BB0BDE8D9
:10A2C000F04F0EF0FFBC1BB0BDE8F08F0523BBE7DD
:10A2D0000223B9E7243B0020703600202DE9F0412D
:10A2E000CA4BCB4ECB4DCC4C0822C3F88820336BE5
:10A2F00082B043F00103336307464FF4C05228464F
:10A3000040F2023388466946CDE900230BF0ECFAAF
:10A310006B6AC24A23F470436B626B6A43F4204356
:10A320006B626B6A23F470236B626B6A43F42023C5
:10A330006B62736CBA4D43F480437364736B43F088
:10A340008003736341F2B021336A44F8018041F223
:10A35000B82143F0805341F2B42C67503362B14EC0
:10A3600044F80C50C4F8D06CAF4FB049B04EC4F8AC
:10A37000CC7C022584F8D45CAE4FAF4DC4F8DC1C15
:10A380004FF0A043C4F8D83CC4F8206D03F5326305
:10A3900001F5A071A6F5D076C4F8E47CC4F8E85CB9
:10A3A000C4F8243DC4F8EC1C0123C4F8F06C07F594
:10A3B000107705F51075A1F5A861A6F58C66C4F8AF
:10A3C000287DC4F82C5D84F8D73CA7F5E06753617D
:10A3D000A5F5C465C4F8E01C984A84F8DE3D19462A
:10A3E000C4F85C6D964BC4F8987DA03607F5A0774D
:10A3F000C4F8645DC4F8706DA035924EC4F8682D41
:10A40000C4F86C7D02F52A6207F5D457C4F8743D90
:10A41000C4F8785D03F569534FF050250020DFF84C
:10A4200048C2C4F89C2DC4F8A07D02F5A04207F5EF
:10A43000A047C4F8A46DC4F8A83D06F5A046A3F54E
:10A440004853C4F8AC5D04F6CC45C4F8B02DC4F84C
:10A45000B86DC4F8D83DC4F860CD0246C4F8B47DE8
:10A460002B4684F8E00D402683F81C21A3F8222116
:10A470000132042AC3E9496083F81D1183F81F01E2
:10A48000C3F8300103F12803EED1002211462B4618
:10A49000402083F87423A3F87A230132042AC3E905
:10A4A000DF0183F8751383F87713C3F8881303F17A
:10A4B0002803EED14FF0A04363489A6822F00102CE
:10A4C0009A60DA6842F04002DA600AF0A7FE94F877
:10A4D000D53C0022212161F317420BB142F48012D6
:10A4E00094F8CF1CD4F8D83C01299A6300F0E1809D
:10A4F000DA68D4F8D86DD4F8DC0CC2F3076121F027
:10A50000600141F0400161F31F620021DA603160B7
:10A51000026861F3CC22026094F8D72C012A00F083
:10A52000B580102149480AF039FF48480AF01CFF5D
:10A53000D4F8DC0C94F8CD3C00224FF0FF310261DE
:10A5400042618161C26153B305F11407404E114667
:10A5500007EB83074FEA830C4FF0FF0E56F8042FEA
:10A560001368002BACBF00234FF09043B742136039
:10A570001161C2F808E0F1D105F150033549634497
:10A580000027FF2651F8042F1568002DACBF0025C9
:10A590004FF090459942156017619660F2D10369BA
:10A5A00094F8CF1C43F48073012903615ED0D4F882
:10A5B000D82C29480023936100294FF0FF336FF016
:10A5C000804151615360516114BF00231023906199
:10A5D00043F47013916943F4605343F008030B4351
:10A5E000936141F2B4219368615843F00103936091
:10A5F0000B689847194B1A4ADA606846194B009362
:10A600000AF0EAFE02B0BDE8F08100BF00E100E020
:10A61000003802400000024070360020003C01403B
:10A6200030010020400040010804010000080050F3
:10A63000000B005000090050200900506005005038
:10A64000C005005000300050484300203C4300202B
:10A65000504300208C4300200008008000ED00E003
:10A660000005FA054302000120050050D4F8D82C5B
:10A67000144B03636FF08041134D00234FF0FF3004
:10A6800093615161506051619561A1E701680F4A82
:10A690000F4E41F003010160802159629E62C3F8B0
:10A6A0000421E022C3F80821C0F24002C3F80C21C3
:10A6B00037E79A6822F03E0141F02A0161F3070270
:10A6C0009A6015E70301810000080080A0004000A7
:10A6D000800020009FED737A07EE901A20EE070AA3
:10A6E000F8EE677A27EE800AFDEEC07A17EE903A10
:10A6F0002033402B00F2C780DFED6B7AB4EEE70A1F
:10A70000F1EE10FAF0EE407A0CDD9FED686ADFEDB5
:10A71000686AB0EE677AB4EEE67AF1EE10FA77EE98
:10A72000C67AF6DC9FED637AF4EEC77AF1EE10FAA2
:10A730000CD59FED5E6ADFED606AB0EE677AB4EE2D
:10A74000E67AF1EE10FA77EE867AF6D49FED5B7A30
:10A75000F4EEC77AF1EE10FA00F38D809FED587A8F
:10A76000F4EEC77AF1EE10FA44BF9FED527A77EE1D
:10A77000677A27EEA76ADFED535A9FED537ADFED34
:10A78000536AA6EE257A67EE865AE6EE076AB6EEBB
:10A79000007AE5EEA67A27EE877ADFED486A70EE5A
:10A7A000267ABDEEE76A16EE103A2033402B67D8C2
:10A7B000B4EEE60AF1EE10FA0CDDDFED3C5A9FED47
:10A7C0003C6AF0EE676AF4EEC66AF1EE10FA77EED4
:10A7D000E57AF6DCDFED376AF4EEE67AF1EE10FAB0
:10A7E0000CD5DFED325A9FED346AF0EE676AF4EE75
:10A7F000C66AF1EE10FA77EEA57AF6D4DFED2F6A8D
:10A80000F4EEE67AF1EE10FA40DDDFED276A76EE3F
:10A81000E77A67EEA75A9FED2B5A9FED2B6ADFED83
:10A820002B6AA5EE856A27EEA55AE5EE866AB8EE94
:10A83000006AE5EE267A67EE867AC7EE206A002384
:10A84000836143610362C361B7EE006A76EE865AA4
:10A8500076EE666A86EE257A67EE277A66EE876A76
:10A86000C0ED017AC0ED037A80ED007A80ED027AC6
:10A87000C0ED046A70479FED0C7A77EE677A78E74F
:10A88000DFED137AD9E79FED127A86E7DFED0C6AE8
:10A89000F4EEE67AF1EE10FA44BFDFED066A76EEEA
:10A8A000E77AB6E727D4D236DB0F4940DB0FC94041
:10A8B000E4CB1641DB0F49C0E4CB16C1DB0FC93F27
:10A8C000DB0FC9BF92E741B99730083C15A82ABEF3
:10A8D0000000000038B53F4C3F4D94F8C931002BC3
:10A8E00014BF0122002285F8542002D185F82430BB
:10A8F00038BD94F9CA31022BDBBF384A1B01002254
:10A90000D25894F8C8312A65002B14BF01230023C4
:10A9100085F856302ED194F8CC0100283DD194F81A
:10A92000CB31E865002B45D11A464FF48071286D74
:10A9300085F85530AA6538F01BFE4FF47A7036F072
:10A94000CBF8E86D264C36F02BFE0022286D114620
:10A950000A233AF0EFFE01E0013C35D0286D3BF0D0
:10A96000FDFD0028F8D11F4B287653F80C3C6B6195
:10A970000123BBE794F8CE0194F8CF211A4B85F858
:10A980006420421E03EB4213172100222B663AF08B
:10A9900075FD94F8CC010028C1D035F04BFDE86579
:10A9A00008B11823C380092136F054FC94F8CB3148
:10A9B000002BB9D0184635F03DFD94F8CD31003B61
:10A9C000024618BF0123B0E72B7E85F824400133EF
:10A9D0002B7638BD6847002078250020E804001059
:10A9E000A1860100703600204C010020F0B40D68F3
:10A9F00000240CE0BCF1050F18D8A0F137030A2B96
:10AA000014D104EB840415F8010B03EB4404A0F10A
:10AA10003003DEB2092EA0F16107A0F1410CF0D99C
:10AA2000052FE7D8A0F157030A2BEAD00D60146078
:10AA3000F0BC704738B5164D95F8D10808B900201C
:10AA400038BD35F0F7FC134CC5F8CC0894F8E52177
:10AA500020B1837913B1353B012BF0D8101E18BFFC
:10AA60000120FDF7FBFF0028E9D00B4B0B48C4F891
:10AA7000D03109F0DDFF4FF6017200230748A4F83A
:10AA8000DC2184F8DE3109F095FF044838BD00BFB1
:10AA90007825002068470020DC9C04083849002005
:10AAA0000C480D4BD0F8001210B40C4CC0F8F43127
:10AAB0008A1E2231B0F81A321B01A4FB03C3DB0843
:10AAC000A3F5B06322F8023F9142F3D15DF8044B45
:10AAD000704700BF68470020C5BD0108CDCCCCCC75
:10AAE00070B5084C251D2E4614F8010B2FF036FCCE
:10AAF00028B1037805F8013BB442F5D170BDFF23BE
:10AB0000F8E700BF9C4900202DE9F0471D4F0126C2
:10AB100007F10805B2464FF033094FF0000817F867
:10AB2000010B35F087FC044690B180F80690C671A1
:10AB3000FB7803F07F02012A18D013F0800F204623
:10AB40000DD185F8048036F025FD85F805802C6050
:10AB50000136052E05F10805E1D1BDE8F08785F83D
:10AB600004A036F01DFD85F805A0F0E71B0605D40E
:10AB70000121204636F06EFBFB78DEE736F010FD53
:10AB8000F6E700BFA44900202DE9F04FDFF830A21E
:10AB900083B00AF10C0501241AF8016BD6B337090A
:10ABA000013F032F06F00F0337D8DFF8188208EBB8
:10ABB0004702B2F8A00140FA03F212F0010238D0C5
:10ABC0004FF0010909FA03F3013B184047443CF0F8
:10ABD000C1FB97F8A831744A184402EBC00704235C
:10ABE000252E6F61FC71BB7100F0D680202E3CD009
:10ABF000232E00F0B580212E00F0B580122E00F03B
:10AC0000BF80132E00F0BF80182E00F0BF80282ECA
:10AC100000F0BF8003B0BDE8F08F0023252E6B61EC
:10AC20000AD0202E00F0BB80232E00F0BA8000272F
:10AC3000E1E7252E6A61F4D15C495D4B5D4AB3F8CA
:10AC40006402B3F866320090013400200190B2FB38
:10AC5000F3F328469BB2E4B224F078FD0123092CDB
:10AC60006B7405F1180597D1D4E7534902203B686E
:10AC700003F13F4202F57E0208EB92284FF0010CEF
:10AC800098F8482002F01F065209032A0CFA06F62B
:10AC90005ED0042A54D0022A4AD0B7F804E0BEFAA3
:10ACA0008EF2C2F11F02C2F3CC0603EB860602F05D
:10ACB0000702376A92004FF00F0C0CFA02FC27EAE9
:10ACC0000C073762376A00FA02F217430022376234
:10ACD00010464FF0010B4FF003090BFA00FC3CEA61
:10ACE0000E0600F101001ED11E6809FA02F726EADD
:10ACF00007061E60D3F800800226964046EA080642
:10AD00001E609E6826EA07069E609E689E605E68DA
:10AD100026EA0C065E605E685E60DE6826EA07066C
:10AD2000DE60DE68DE60102802F10202D5D184E721
:10AD3000DFF894C0DCF844201643CCF84460ACE75C
