:020000040800F2
:10000000F0FF001065CA040855FD000885F90308D3
:1000100001CB040801CB040801CB04080000000058
:10002000000000000000000000000000CD030108F7
:10003000C903010800000000C503010889F0030896
:1000400001CB040801CB040801CB040801CB040850
:1000500001CB040801CB0408DD0B0408090D0408DA
:10006000CD0C0408910C0408550C0408A590040854
:100070009590040885900408759004086190040820
:100080004D9004083990040801CB040801CB040802
:1000900001CB040801CB040801CB0408190C0408A7
:1000A000A1E80308F1E8030801CB040801E903080B
:1000B000E1E80308D1E8030801CB04084DA50408D2
:1000C00055A504083DA5040845A5040801CB04086E
:1000D00001CB040839F303089DF2030801F2030879
:1000E000A10B040801CB04088523010801CB0408F7
:1000F000B1E8030801CB0408C1E80308259004080F
:1001000001CB040801CB040801CB040801CB04088F
:1001100065F10308C9F00308596F0308456F030828
:1001200011900408FD8F0408E98F0408D58F040896
:10013000C18F040801CB040801CB040801CB0408DB
:1001400001CB040801CB040801CB040859FD0008C9
:10015000AD8F0408998F0408858F040801CB04082B
:100160002DA5040835A5040801CB040801CB04081B
:1001700001CB040801CB040801CB040801CB04081F
:0801800001CB040801CB0408C7
:0801880014C604000100000090
:10019000051006008C7C0020987C002000000000E8
:1001A000080700081302030034360020A07C00205A
:1001B000000000000E07000804008000887B00207B
:1001C000A47C0020000000000000000023001000BC
:1001D000607B0020247D002000000000F1B00108B9
:1001E0000D00340008710020347D00200000000064
:1001F000895D03081300040054700020687D00200E
:100200000000000014070008F6210C0058700020C0
:100210006C7D00200000000018070008F531740014
:100220008C6F0020787D0020000000000D6904081C
:100230000B301400786F0020EC7D002000000000DF
:100240002407000801010400746F0020007E0020D4
:10025000000000000000000000010400706F00209A
:10026000047E00200000000038070008020103009F
:100270006C6F0020087E002000000000A9590308D0
:10028000FD011E00306F00200C7E002000000000E9
:1002900069C8030806101800846200202C7E002024
:1002A00000000000C5970208FB01010080620020E9
:1002B000447E00200000000099670408FC0109004A
:1002C0004C610020487E002000000000A96704085F
:1002D000F901040044610020547E00200000000069
:1002E000E1C8030802000C0014610020587E0020C1
:1002F00000000000000000000A603600903E002070
:10030000647E0020000000003C070008340010005C
:100310003C6000209C7E00200000000099970208AD
:100320001102080014600020AC7E002000000000D4
:1003300072070008121204000C600020B47E002036
:10034000000000007A07000818202C00E05F002061
:10035000B87E0020000000006968040812200D002B
:10036000B85F0020E47E0020000000007E07000847
:10037000FF0108000C5D0020F47E0020000000005A
:10038000A18C04080202030084360020FC7E0020B9
:1003900000000000000000000C0203007036002086
:1003A000007F002000000000615B040811000C00C9
:1003B00090430020047F002000000000E95903085A
:1003C000FE01090078430020107F0020000000009B
:1003D000415B04081B02080094D9002028EC00208F
:1003E00000000000715B04080120080028EB0020D9
:1003F00030EC0020000000008C0700081900050008
:10040000A8EB002038EC0020000000009407000852
:1004100037001E0080EB002040EC002000000000B0
:100420009A0700081E00050074D7002060EC002029
:1004300000000000B80700081B00F400DCD3002017
:1004400068EC0020000000009145010826000E0025
:100450006CED00205CED002000000000E52D01089F
:100460001F201C0010D70020A0ED0020000000007D
:10047000BE070008050204003CDA0020BCED0020A5
:1004800000000000DA07000803010A0000D700207E
:10049000C0ED002000000000DE070008140004008A
:1004A00064F80020DCF8002000000000E8070008E5
:1004B0000E0202002CF80020E0F8002000000000EE
:1004C000EC070008101003005CF80020E4F800209E
:1004D00000000000EE070008281010004CF8002073
:1004E000E8F8002000000000DDB00108F821060057
:1004F00044F80020F8F8002000000000F20700088F
:100500002F00110030F8002000F90020000000004A
:10051000F80700080E8062017EF0002014F9002028
:10052000000000006D97020809020100D0F50020CC
:1005300078FA0020000000000A0800080C20B4002F
:1005400038F200207CFA00200000000079590308EE
:1005500001020500FAEF002030FB0020000000003F
:1005600049A5010800020500D4F3002038FB002053
:1005700000000000000000000312330070FF0020A4
:100580004E050120000000000C0800082500960020
:1005900004000120A8040120000000000000000069
:1005A00015007000E0020120C003012000000000DF
:1005B000000000002A006000A4FF0020600301206A
:1005C00000000000459702082C0010005003012095
:1005D0003E05012000000000252402082B00240015
:1005E000B80101208105012000000000F923020864
:1005F000291078005CFE002030040120000000007B
:10060000000000000300010014090120D4090120AA
:1006100000000000000000001A000E003408012055
:10062000D80901200000000040080008160008005A
:10063000B00B0120A40C0120000000004E080008AF
:1006400018020200D80B0120CC0C01200000000091
:100650000000000017020B00CD0B0120D00C012080
:1006600000000000B95A0408070202007C0C0120B7
:10067000DC0C0120000000005608000806020C00F7
:10068000480C0120E00C0120000000005168040823
:1006900008120900C40B0120EC0C0120000000002E
:1006A000095B0408F7010600BA0B0120F80C0120D1
:1006B00000000000580800080A020A00B80A0120D9
:1006C000000D0120000000005E0800081A023C0036
:1006D0000C0E0120BC11012000000000C5670408B9
:1006E00027000400FC110120F81101200000000087
:1006F00068080008100201009C16012098160120CD
:08070000000000006C08000875
:1007080020000201000000000000000008846110C1
:100718000000000001000000020200002B21231E3F
:1007280064010100000001000A012900230A0000F9
:100738002C0100000030010000000000730073006D
:100748006900000000000000000000000000000038
:100758000000020000019E077D00FA009600580282
:10076800B80BB80BB80B2000C40900000000010149
:100778000101FFFFFFFF0000000100000553503496
:100788004E000000E8036400040A0001000028018C
:10079800000020003200C800D00796001400320084
:1007A8002800B00440060005500014000F0008019E
:1007B800000001000000000000000001000000052A
:1007C800000001020300000000000000000000001B
:1007D800000000000000040101006C160000000089
:1007E800030000460000000500000101F4011400A8
:1007F80000000000000000000000000000000000F1
:1008080000001300000000000000000000000000CD
:1008180000000000000000000000000000000000D0
:1008280000000000000000000000000000000000C0
:1008380000000000000001007E05EA05B405030081
:10084800E803D0070000C4090700B4012828013CC8
:100858003F010000000000004A01B400D60100007A
:05086800200300000068
:10086D000403090412010002EF0201408304563211
:10087D000002010203010000120100020202004009
:10088D008304405700020102030100001A03000017
:10089D00000000000000000000000000000000004B
:1008AD000000000000000000040309041201000212
:1008BD0000000040830420570002010203010000E4
:1008CD0009022000010104C03209040000020806DB
:1008DD005005070581024000000705010240000098
:1008ED0009026400030100C0320904000001030085
:1008FD0000000921110100012226000705830308CC
:10090D00000A080B010202020100090401000102A4
:10091D000201000524001001052401000204240237
:10092D00020524060102070582030800FF090402DF
:10093D0000020A00000007050102400000070581C2
:10094D000240000009024300020100C03209040008
:10095D00000102020100052400100105240100011F
:10096D00042402020524060001070582030800FF86
:10097D0009040100020A0000000705010240000001
:10098D000705810240000000FF0000000800000084
:10099D00C9870008C5870008C1870008B58700080A
:1009AD00B1870008BD870008B987000800600240C4
:1009BD00106002400000000000000000000B00006D
:1009CD000000000000000000000000000060024078
:1009DD00286002400100000000000000060C00002D
:1009ED000000000000000000000000000060024058
:1009FD00406002400200000000000000100D0000E9
:100A0D000000000000000000000000000060024037
:100A1D00586002400300000000000000160E0000A8
:100A2D000000000000000000000000000060024017
:100A3D00706002400400000000000000200F000064
:100A4D0000000000000000000000000000600240F7
:100A5D008860024005000000000000002610000024
:100A6D0000000000000000000000000000600240D7
:100A7D00A0600240060000000000000030110000E0
:100A8D0000000000000000000000000000600240B7
:100A9D00B86002400700000000000000362F000083
:100AAD000000000000000000000000000064024093
:100ABD00106402400000000000000000003800003B
:100ACD000000000000000000000000000064024073
:100ADD0028640240010000000000000006390000FB
:100AED000000000000000000000000000064024053
:100AFD00406402400200000000000000103A0000B7
:100B0D000000000000000000000000000064024032
:100B1D00586402400300000000000000163B000076
:100B2D000000000000000000000000000064024012
:100B3D00706402400400000000000000203C000032
:100B4D0000000000000000000000000000640240F2
:100B5D0088640240050000000000000026440000EB
:100B6D0000000000000000000000000000640240D2
:100B7D00A0640240060000000000000030450000A7
:100B8D0000000000000000000000000000640240B2
:100B9D00B864024007000000000000003646000067
:100BAD000000000000000000000000000101000036
:100BBD0005010905A101A10005010930093109321D
:100BCD00093309350934094009381581257F750820
:100BDD0095088102C0C0000009022200010100E059
:100BED003209040000010301020009211101000175
:100BFD002226000705830308000A0000755401082A
:100C0D0079590108F154010825250108B953010846
:100C1D003525010851250108FD240108ED240108A1
:100C2D000000000000000000612301080988000891
:100C3D00512301080588000811230108C922010864
:100C4D00018800083004002029990008099900083E
:100C5D007DFA00080000000000000000A9970008C0
:100C6D00D596000800000000000000000000000004
:100C7D00BD890008A188000895880008C59800085E
:100C8D00E19800084D880008A99800088D98000883
:100C9D00008002021F00000053544D202020202010
:100CAD0050726F6475742020202020202020202079
:100CBD00302E303100FFFF0000000000AA55050165
:100CCD0000000100000001FFFF0100000000000016
:100CDD000102030401020304060708092D202D2D2E
:100CED00202D2D2D2D202D2D2D2D0000000000004F
:100CFD000000000000000000000000AA550B0100DC
:100D0D0000AA5507010000AA5509020000000000C5
:100D1D0001000000C012AA5503009F00FF1FFF1F16
:100D2D00FC040020040000007CED00200000000009
:100D3D000000803F0000803F000000000000000028
:100D4D000000000000000000000000000000000096
:100D5D00000000000000000000000000000200057F
:100D6D001002700BE00101010100000039A701081C
:100D7D0000000000800600209850050800000000CB
:100D8D0000000000000000000000000034350508E0
:100D9D000000000000000000050700200400000016
:100DAD001C5005080D00000089C80108882B002083
:100DBD0000000000704605080D000000B1C80108D4
:100DCD007C2B0020000000004848050808000000AA
:100DDD0000000000702B002004000000DC46050818
:100DED000D000000EDA70108642B0020000000009D
:100DFD00A04705080300000031CD0108582B002045
:100E0D0000000000A85005080300000031CD0108C6
:100E1D004C2B002000000000984105080100000047
:100E2D0000000000000000000000000000000000B5
:100E3D000E00000000000000000000000000000097
:100E4D0098500508000000000000000000000000A0
:100E5D00000000003435050800000000000000000F
:100E6D000507002004000000C84F0508030000001E
:100E7D00BDB80108402B002008000000DC46050825
:100E8D000D000000EDA70108642B002000000000FC
:100E9D00A04705080300000031CD0108582B0020A4
:100EAD0000000000A85005080300000031CD010826
:100EBD004C2B0020000000009841050801000000A7
:100ECD000000000000000000000000000000000015
:100EDD000E000000000000000000000000000000F7
:100EED00B0500508000000000000000000000000E8
:100EFD00000000003435050800000000000000006F
:100F0D000507002004000000D04F05080300000075
:100F1D0031CD0108942B00200000000098410508F8
:100F2D0001000000000000000000000000000000B3
:100F3D00000000000E000000000000000000000096
:100F4D000000000020700020702D720008000000CD
:100F5D000001010100000000000000000000000081
:100F6D00FC260020012D202D2D202D2D2D2D202D69
:100F7D002D2D00000000000000000000000000000A
:100F8D0000000000FFFFFFFFFA000000010000005D
:100F9D00010000001CF300200000F401010000001E
:100FAD001AF300200000F4010100000018F30020E6
:100FBD000000F4010100000016F300200000F40110
:100FCD000100000014F300200000F40101000000F6
:100FDD0012F300200000F4010100000010F30020C6
:100FED000000F401010000000C41050800000000A4
:100FFD000000000000000000000000002441050872
:10100D0000000000000000000000000000000000D3
:10101D004441050808000000000000007C07002086
:10102D00000000005041050808000000000000000D
:10103D0070070020000000005C410508080000005A
:10104D00000000006407002000000000644C05084B
:10105D0008000000000000005807002000000000FC
:10106D006841050808000000000000004C07002042
:10107D000000000074410508080000000000000099
:10108D004007002000000000804105080800000016
:10109D000000000034070020000000008C4105080E
:1010AD0002000000DDCB010802000000000000007E
:1010BD00984105080100000000000000000000003C
:1010CD0000000000000000000E0000000000000005
:1010DD00000000000000000061AF010821AF010811
:1010ED00880700200EF30020053201000CF30020CC
:1010FD00E803D007010000000AF30020E803D00741
:10110D000100000008F30020E803D00701000000F3
:10111D0006F300201E00B80B0100000004F30020B0
:10112D001E00F4010100000002F300201400640011
:10113D000100000000F300200000C80001000000C5
:10114D00A0410508A8410508EC4105080000000074
:10115D000000000000000000000000002441050810
:10116D000000000000000000000000000000000072
:10117D00004205080800000000000000D40800200F
:10118D0000000000084205080800000000000000F3
:10119D00C8080020000000001C42050808000000DF
:1011AD0000000000BC0800200000000030420508CF
:1011BD000800000000000000B00800200000000042
:1011CD00444205080800000000000000A4080020AB
:1011DD000000000054420508080000000000000057
:1011ED009808002000000000644205080800000077
:1011FD00000000008C08002000000000744205086B
:10120D00070000000000000084080020000000001E
:10121D00844205080300000031CD01087808002044
:10122D00000000008C41050802000000DDCB010824
:10123D0002000000000000009841050801000000B8
:10124D000000000000000000000000000000000091
:10125D000E00000000000000000000000000000073
:10126D00B44205080000000000000000000000006E
:10127D00000000003B3905080400000061C60108AC
:10128D00000000000000000098410508010000006A
:10129D000000000000000000000000000000000041
:1012AD000E00000000000000000000000000000023
:1012BD00287C00200100C40900000000267C0020CD
:1012CD000100C40900000000247C00200100C409B5
:1012DD0000000000227C00200100C4090000000075
:1012ED001E7C00200100C40900000000207C0020AD
:1012FD000100C409000000001C7C00200100C4098D
:10130D00000000001A7C00200100C409000000004C
:10131D000EF000200000FFFF0A0000000CF000207E
:10132D000100C800010000000AF0002032003075F5
:10133D003200000008F00020055A050005F00020DD
:10134D0000FF010007F0002001000000E008002070
:10135D0003F0002002000000C002050804F0002088
:10136D0000FF010006F0002001000000E008002051
:10137D0002F0002002000000C0020508F8EF002076
:10138D0080C1803E05000000F6EF002080C1803E48
:10139D0005000000F4EF002080C1803E0500000034
:1013AD00F2EF002080C1803E05000000F0EF00202C
:1013BD0000FF0100EFEF00200A320100EEEF0020E8
:1013CD0004000000CC020508EDEF00200200000033
:1013DD00E0020508DDAE010899AE0108E80800201D
:1013ED0022F30020EE02CA080100000020F30020C5
:1013FD0000C80100640000001FF3002000C80100B8
:10140D00640000001EF3002002000000EC0205083D
:10141D000000000000000000000A0020ECD90020B0
:10142D009CFF2C0100000000060500200A000000B2
:10143D00F8020508E0EF0020E0150C170000000091
:10144D000805002008000000B8FB0408070500206F
:10145D000500000044040508E2EF00200200000032
:10146D0010030508ECEF0020020000001C03050826
:10147D00EBEF002001080100EAEF0020040000005E
:10148D00480405082EF300200100FF7F0100000035
:10149D002DF300200200000028030508F2F10020C2
:1014AD000000F40101000000F0F100200000F40143
:1014BD0001000000EEF100200000F4010100000029
:1014CD00ECF100200000F4010100000002F2002008
:1014DD000100803E05000000FEF100200000803E6E
:1014ED0064000000FCF100200000803E640000005C
:1014FD00FAF100200000803E6400000000F20020A0
:10150D000300000201000000F8F10020C800E8030C
:10151D0001000000F6F100201E00E80301000000AC
:10152D00F4F100200000E80301000000EAF10020C2
:10153D000000803E01000000E8F100200000803E28
:10154D0001000000E6F100200000803E01000000D7
:10155D00E4F100200000803E01000000E2F10020D7
:10156D000000803E01000000E0F100200000803E00
:10157D000100000033F200201964010037F2002051
:10158D000064010036F200200064010035F20020F5
:10159D000A32010034F20020030000003803050870
:1015AD0030F20020E803D0070A0000002EF20020E0
:1015BD0000FA01000A0000002DF2002000FA0100DF
:1015CD000A0000002CF2002000FA01000A000000C1
:1015DD001BF20020006401001AF2002000640100DB
:1015ED0022F20020006401000A00000021F2002018
:1015FD00006401000A00000020F2002000640100D8
:10160D000A00000025F20020006401000A0000001D
:10161D0024F20020006401000A00000023F20020E3
:10162D00006401000A0000001FF2002000FF01000D
:10163D000A0000001EF2002000FF01000A00000059
:10164D001DF2002000FF01000A0000002BF2002017
:10165D00005F01000A0000002AF20020005F010077
:10166D000A00000029F20020005F01000A000000BE
:10167D0028F20020005F01000A00000027F2002080
:10168D0019AF01000A00000026F2002019AF010079
:10169D000A0000006CF00020000A01006BF0002031
:1016AD00000A01006AF00020000A01007CF0002011
:1016BD0000FA01007BF0002000FA01007AF0002012
:1016CD0000FA010078F000200000F4010100000094
:1016DD0076F000200000F4010100000074F00020FD
:1016ED000000F4010100000072F000200000F40180
:1016FD000100000070F000200000F4010100000066
:10170D006EF000200000F4010100000018F200202E
:10171D00FF08010017F200200164010016F20020FD
:10172D000064010015F200200100000048030508C7
:10173D0014F2002000C8010012F200200000D007B2
:10174D000100000011F2002000C8010010F200207D
:10175D0000C801000FF2002000C801000EF20020A9
:10176D0000C801000DF2002000FA01000A0000007F
:10177D000AF2002000FA01000A00000007F2002022
:10178D0000FA01000A0000000CF2002000FA01002E
:10179D000A00000009F2002000FA01000A00000012
:1017AD0006F2002000FA01000A0000000BF20020F2
:1017BD0000FA01000A00000008F2002000FA010002
:1017CD000A00000005F2002000FA01000A000000E6
:1017DD00EEF20020010A0100F6F2002000FA0100ED
:1017ED00F4F200200000E80305000000FFF20020E5
:1017FD0000C80100FEF2002000C80100FDF200202B
:10180D0000C80100FCF2002000C80100FBF200201E
:10181D0000C80100FAF2002000C80100F9F2002012
:10182D0000C80100F8F2002000C80100F7F2002006
:10183D0000C80100F2F2002000FA0100F0F20020D1
:10184D000000E80305000000EDF200200064010037
:10185D00004305080000000000000000000000002B
:10186D0000000000A04B050809000000000000006A
:10187D00A40A002004000000B84B05080900000070
:10188D0000000000980A002004000000B04D05087B
:10189D0009000000000000008C0A00200400000078
:1018AD00D89105080900000000000000800A002002
:1018BD0004000000104305080900000000000000AE
:1018CD00740A0020040000001843050809000000F8
:1018DD0000000000680A00200400000020430508F5
:1018ED0009000000000000005C0A00200400000058
:1018FD00284305080900000000000000500A0020E0
:10190D0004000000984105080100000000000000DF
:10191D000000000000000000000000000E000000AC
:10192D000000000000000000000000004C4505080C
:10193D00000000000000000000000000000000009A
:10194D005C8205080700000000000000D40A00209A
:10195D00000000005C4505080800000000000000C4
:10196D00C80A0020000000006845050808000000B6
:10197D0000000000BC0A00200000000070450508B2
:10198D000800000000000000B00A00200000000068
:10199D008C41050802000000DDCB010801000000AC
:1019AD000000000098410508010000000000000043
:1019BD000000000000000000000000000E0000000C
:1019CD000000000000000000000000008045050838
:1019DD0000000000000000000000000000000000FA
:1019ED00904505080D00000000000000100B0020C0
:1019FD0000000000984505080D00000000000000E3
:101A0D00040B002000000000A045050807000000A1
:101A1D0000000000FC0A002000000000A845050899
:101A2D000D00000000000000F00A00200000000082
:101A3D00B04505080D00000000000000E40A00207C
:101A4D0000000000B8450508070000000000000078
:101A5D00DC0A0020000000008C4105080200000097
:101A6D00DDCB0108010000000000000098410508D1
:101A7D000100000000000000000000000000000058
:101A8D00000000000E00000000000000000000003B
:101A9D0000000000C0450508000000000000000027
:101AAD0000000000000000005C8205080C00000032
:101ABD000000000010F0002000000000D4450508D3
:101ACD000C0000000000000012F0002000000000DB
:101ADD00E44505080C0000000000000048F000205F
:101AED0000000000F44505080C0000000000000097
:101AFD003CF0002000000000084605080C00000026
:101B0D000000000014F0002000000000144605083D
:101B1D000C0000000000000016F000200000000086
:101B2D001C4605080C0000000000000018F0002005
:101B3D0000000000304605080C0000000000000009
:101B4D001AF0002000000000384605080C000000C7
:101B5D00000000001CF000200000000040460508B9
:101B6D000C000000000000005AF0002000000000F2
:101B7D00584605080C000000000000001EF0002073
:101B8D0000000000644605080C0000000000000085
:101B9D0020F0002000000000084805080C0000009F
:101BAD000000000022F00020000000006C46050837
:101BBD000C0000000000000024F0002000000000D8
:101BCD00784605080C0000000000000026F00020FB
:101BDD0000000000844605080C0000000000000015
:101BED0028F0002000000000904605080C000000C1
:101BFD00000000002AF00020000000009C460508AF
:101C0D000C000000000000002CF00020000000007F
:101C1D00A84605080C0000000000000040F0002060
:101C2D0000000000B04605080C0000000000000098
:101C3D003EF0002000000000B84605080C00000032
:101C4D00000000004CF0002000000000C446050814
:101C5D000C000000000000004EF00020000000000D
:101C6D00D04605080C0000000000000054F00020D4
:101C7D0000000000E43605080C0000000000000024
:101C8D002EF0002000000000DC4605080C000000CE
:101C9D000000000036F0002000000000E4460508BA
:101CAD000C0000000000000030F0002000000000DB
:101CBD00F04605080C0000000000000032F0002086
:101CCD0000000000FC4605080C00000000000000AC
:101CDD0034F0002000000000044705080C0000004F
:101CED000000000038F0002000000000104705083B
:101CFD000C0000000000000042F000200000000079
:101D0D00184705080C000000000000003AF0002004
:101D1D0000000000244705080C0000000000000032
:101D2D004AF0002000000000304705080C000000BC
:101D3D000000000044F000200000000038470508B6
:101D4D000C0000000000000046F000200000000024
:101D5D00404705080C0000000000000050F0002076
:101D6D0000000000484705080C00000000000000BE
:101D7D0052F0002000000000504705080C00000044
:101D8D000000000062F000200000000098410508EE
:101D9D000100000000000000000000000000000035
:101DAD00000000000E000000000000000000000018
:101DBD00000000005847050800000000000000006A
:101DCD000000000000000000644705080D00000041
:101DDD0000000000680B0020000000006C470508A3
:101DED000D000000000000005C0B00200000000052
:101DFD00744705080700000000000000540B002088
:101E0D0000000000804705080700000000000000EA
:101E1D004C0B0020000000008C4705080900000055
:101E2D0000000000400B002000000000984705084E
:101E3D000900000000000000340B0020000000002D
:101E4D00A44705080900000000000000280B002031
:101E5D0000000000B4470508090000000000000064
:101E6D001C0B0020000000008C4105080200000042
:101E7D00DDCB0108010000000000000098410508BD
:101E8D000100000000000000000000000000000044
:101E9D00000000000E000000000000000000000027
:101EAD0000000000C8470508000000000000000009
:101EBD0000000000000000002441050800000000A3
:101ECD00000000000000000000000000D8470508D9
:101EDD000D00000000000000A40B00200000000019
:101EED00E44705080B00000000000000980B0020DF
:101EFD0000000000F04705080B0000000000000086
:101F0D008C0B0020000000000048050808000000B0
:101F1D0000000000800B00200000000014480508A0
:101F2D000300000031CD0108740B002000000000FB
:101F3D008C41050802000000DDCB01080200000005
:101F4D00000000009841050801000000000000009D
:101F5D000000000000000000000000000E00000066
:101F6D0000000000000000000000000020480508EF
:101F7D000000000000000000000000000000000054
:101F8D0030480508050000000000000069F0002041
:101F9D00000000008C41050802000000DDCB0108A7
:101FAD00010000000000000098410508010000003C
:101FBD000000000000000000000000000000000014
:101FCD000E000000000000000000000000000000F6
:101FDD003848050800000000000000000000000067
:101FED00000000003435050800000000000000006E
:101FFD007C04002004000000444805080D0000008A
:10200D00C5C60108F80B0020000000001C50050893
:10201D000D000000F1A60108EC0B002000000000EF
:10202D00704605080D000000D5A60108E00B002044
:10203D0000000000484805080800000000000000EE
:10204D00D40B002004000000DC4605080D00000044
:10205D001FA60108C80B002000000000504805080D
:10206D000900000000000000BC0B0020040000006F
:10207D00A04705080300000031CD0108B00B00207A
:10208D00000000009841050801000000000000005C
:10209D000000000000000000000000000E00000025
:1020AD000000000000000000000000005848050876
:1020BD000000000000000000000000000000000013
:1020CD001C5005080D00000000000000180C002039
:1020DD000000000064480508070000000000000033
:1020ED00100C002000000000DC4605080D0000006B
:1020FD0000000000040C00200000000098410508BD
:10210D0001000000000000000000000000000000C1
:10211D00000000000E0000000000000000000000A4
:10212D00000000006C4805080000000000000000E1
:10213D0000000000000000007C4805080D000000B4
:10214D0000000000300C002000000000844805084D
:10215D000A000000000000007EF4002000000000D6
:10216D00904805080A0000000000000086F40020D9
:10217D0000000000984805080A000000000000005B
:10218D008EF4002000000000A048050808000000A3
:10219D0000000000240C0020000000008C41050808
:1021AD0002000000DDCB010801000000000000006E
:1021BD00984105080100000000000000000000002B
:1021CD0000000000000000000E00000000000000F4
:1021DD000000000000000000A848050800000000F5
:1021ED00000000000000000000000000BC480508D1
:1021FD000800000000000000080D00200000000095
:10220D00CC4805080800000000000000FC0C002070
:10221D0000000000DC480508080000000000000078
:10222D00F00C002000000000EC480508080000003C
:10223D0000000000E40C002000000000FC48050830
:10224D000800000000000000D80C00200000000075
:10225D000C4905080800000000000000CC0C00200F
:10226D00000000001C4905080800000000000000E7
:10227D00C00C0020000000002849050808000000DF
:10228D0000000000B40C00200000000038490508D3
:10229D000800000000000000A80C00200000000055
:1022AD004849050808000000000000009C0C0020B3
:1022BD000000000050490508080000000000000063
:1022CD00900C00200000000058490508080000008F
:1022DD0000000000840C002000000000604905088B
:1022ED000800000000000000780C00200000000035
:1022FD006849050808000000000000006C0C002073
:10230D0000000000784905080800000000000000EA
:10231D00600C002000000000844905080800000042
:10232D0000000000540C002000000000904905083A
:10233D000800000000000000480C00200000000014
:10234D009C49050808000000000000003C0C00201E
:10235D00000000008C41050802000000DDCB0108E3
:10236D000100000000000000984105080100000078
:10237D000000000000000000000000000000000050
:10238D000E00000000000000000000000000000032
:10239D00A84905080000000000000000E706002025
:1023AD0000000000B44905080B000000000000000B
:1023BD00280E002000000000C44905080B00000095
:1023CD00000000001C0E002000000000D049050890
:1023DD000B00000000000000100E002000000000A7
:1023ED00E04905080B00000000000000040E00206D
:1023FD0000000000EC4905080B0000000000000083
:10240D00F80D002000000000004A05080B00000038
:10241D0000000000EC0D002000000000104A05082F
:10242D000B00000000000000E00D00200000000087
:10243D001C4A05080B00000000000000D40D002010
:10244D0000000000284A05080B00000000000000F5
:10245D00C80D002000000000344A05080B000000E4
:10246D0000000000BC0D002000000000404A0508DF
:10247D000B00000000000000B00D00200000000067
:10248D004C4A05080B00000000000000A40D0020C0
:10249D0000000000584A05080B0000000000000075
:1024AD00980D002000000000644A05080B00000094
:1024BD00000000008C0D002000000000704A05088F
:1024CD000B00000000000000800D00200000000047
:1024DD007C4A05080700000000000000780D002070
:1024ED0000000000844A05080700000000000000FD
:1024FD00700D002000000000904A05080B00000040
:10250D0000000000640D0020000000009C4A05083A
:10251D000B00000000000000580D0020000000001E
:10252D00A84A05080B000000000000004C0D00201B
:10253D0000000000B44A050808000000000000007B
:10254D00400D002000000000C44A05080D000000E9
:10255D0000000000340D002000000000D44A0508E2
:10256D0007000000000000002C0D002000000000FE
:10257D00E44A05080700000000000000240D0020BB
:10258D0000000000F44A05080700000000000000EC
:10259D001C0D002000000000044B05080700000082
:1025AD0000000000140D0020000000008C41050803
:1025BD0002000000DDCB010801000000000000005A
:1025CD009841050801000000000000000000000017
:1025DD0000000000000000000E00000000000000E0
:1025ED000000000000000000184B0508000000006E
:1025FD000000000000000000000000002C4B05084A
:10260D000800000000000000A00E002000000000E7
:10261D003C4B05080800000000000000940E00204F
:10262D00000000004C4B05080800000000000000F1
:10263D00880E0020000000005C4B0508080000001B
:10264D00000000007C0E0020000000006C4B05080F
:10265D000800000000000000700E002000000000C7
:10266D00804B05080800000000000000640E0020EB
:10267D0000000000904B050807000000000000005E
:10268D005C0E002000000000A84B050807000000AC
:10269D0000000000540E002000000000C04B050893
:1026AD0007000000000000004C0E0020000000009C
:1026BD00D44B05080700000000000000440E002068
:1026CD0000000000E44B05080700000000000000BA
:1026DD003C0E002000000000F84B0508070000002C
:1026ED0000000000340E0020000000008C410508A1
:1026FD0002000000DDCB0108010000000000000019
:10270D0098410508010000000000000000000000D5
:10271D0000000000000000000E000000000000009E
:10272D000000000000000000084C0508000000003B
:10273D0000000000E406002000000000184C050811
:10274D000B00000000000000640F002000000000DE
:10275D00244C05080B00000000000000580F00205D
:10276D0000000000304C05080B00000000000000C8
:10277D004C0F0020000000003C4C05080B00000031
:10278D0000000000400F002000000000484C05082C
:10279D000B00000000000000340F002000000000BE
:1027AD00544C05080B00000000000000280F00200D
:1027BD0000000000604C05080B0000000000000048
:1027CD001C0F0020000000006C4C05080B000000E1
:1027DD0000000000100F002000000000784C0508DC
:1027ED000B00000000000000040F0020000000009E
:1027FD00844C05080700000000000000FC0E0020BE
:10280D0000000000904C05080700000000000000CB
:10281D00F40E0020000000009C4C0508070000008D
:10282D0000000000EC0E002000000000AC4C05087C
:10283D000700000000000000E40E00200000000072
:10284D00BC4C05080800000000000000D80E002058
:10285D0000000000C44C0508070000000000000047
:10286D00D00E002000000000D04C05080D00000027
:10287D0000000000C40E002000000000E04C050820
:10288D000700000000000000BC0E0020000000004A
:10289D00EC4C05080700000000000000B40E0020FD
:1028AD0000000000FC4C05080600000000000000C0
:1028BD00AC0E0020000000008C4105080200000055
:1028CD00DDCB010801000000000000009841050863
:1028DD0001000000000000000000000000000000EA
:1028ED00000000000E0000000000000000000000CD
:1028FD00000000000C4D0508000000000000000065
:10290D00E406002000000000244D0508070000002B
:10291D0000000000E80F002000000000304D050809
:10292D000800000000000000DC0F00200000000087
:10293D003C4D05080700000000000000D40F0020EA
:10294D0000000000484D05080700000000000000D1
:10295D00CC0F002000000000504D050807000000BE
:10296D0000000000C40F002000000000584D0508B5
:10297D000700000000000000BC0F00200000000058
:10298D00404C05080700000000000000B40F0020B7
:10299D00000000004C4C050807000000000000007E
:1029AD00AC0F002000000000584C05080700000087
:1029BD0000000000A40F002000000000604D05087D
:1029CD0007000000000000009C0F00200000000028
:1029DD00684D05080700000000000000940F00205E
:1029ED0000000000704D0508070000000000000009
:1029FD008C0F002000000000784D05080800000035
:102A0D0000000000800F002000000000884D050828
:102A1D000700000000000000780F002000000000FB
:102A2D00984D05080700000000000000700F002001
:102A3D00000000008C41050802000000DDCB0108FC
:102A4D000100000000000000984105080100000091
:102A5D000000000000000000000000000000000069
:102A6D000E0000000000000000000000000000004B
:102A7D0000000000A5AA0108F00F002067F000205B
:102A8D002C0000005003050866F0002000C801006E
:102A9D0064F00020E803D0070100000053505241BC
:102AAD0043494E4746344E454F00000001F000208B
:102ABD000003010000F0002000030100E5A901085A
:102ACD00B5A90108CC10002071A9010825A901089C
:102ADD006C1100202DAA010815AA0108341200203E
:102AED0089A8010835A8010854150020D1AF0108A7
:102AFD00A1AF010844160020B9AA0108D9C80108E0
:102B0D000C1700205DA601080000000070170020C2
:102B1D0011A801082DC601084C18002089CA01080A
:102B2D0035B00108C418002039AC0108BDAB01084F
:102B3D007819002071AD0108BDAD0108301B0020D2
:102B4D0019F200200106010049AB0108E1AA0108B4
:102B5D00881D0020B5AC010809C90108C81E002058
:102B6D00F1AD0108C9C901089420002004F200202C
:102B7D0001030100A04D0508000000000000000049
:102B8D000000000000000000AC4D0508080000002A
:102B9D00000000003022002000000000B44D0508A8
:102BAD0007000000000000002822002000000000A7
:102BBD00C44D05080D000000000000001C2200207F
:102BCD0000000000D04D05080300000031CD0108C4
:102BDD0010220020000000008C41050802000000BA
:102BED00DDCB010801000000000000009841050840
:102BFD0001000000000000000000000000000000C7
:102C0D00000000000E0000000000000000000000A9
:102C1D0000000000D84D0508000000000000000075
:102C2D000000000000000000E84D05080A0000004B
:102C3D00000000004C34050800000000F04D0508B0
:102C4D000A00000000000000B83805080000000070
:102C5D00F84D05080A0000000000000024F30020D4
:102C6D0000000000004E05080A00000000000000F2
:102C7D003C220020000000009841050801000000E2
:102C8D000000000000000000000000000000000037
:102C9D000E00000000000000000000000000000019
:102CAD00084E0508000000000000000000000000B4
:102CBD0000000000144E05080300000031CD01088E
:102CCD007422002000000000204E050803000000C3
:102CDD0031CD01086822002000000000284E0508B3
:102CED000300000031CD01085C220020000000002F
:102CFD00304E05080500000000000000FFEF002029
:102D0D0000000000384E050807000000000000001C
:102D1D005422002000000000444E0508070000006A
:102D2D00000000004C220020000000008C4105082E
:102D3D0002000000DDCB01080100000000000000D2
:102D4D00984105080100000000000000000000008F
:102D5D0000000000000000000E0000000000000058
:102D6D000000000000000000504E050800000000AB
:102D7D00000000000000000000000000644E050887
:102D8D000300000031CD0108BC220020000000002E
:102D9D00704E05080300000031CD0108B02200205F
:102DAD0000000000744E05080300000031CD01083D
:102DBD000C050020000000007C4E050803000000FB
:102DCD0031CD0108A422002000000000844E05082A
:102DDD000300000031CD0108982200200000000002
:102DED00904E05080300000031CD01088C22002013
:102DFD0000000000DC4605080300000031CD01088D
:102E0D0080220020000000008C4105080200000017
:102E1D00DDCB01080100000000000000984105080D
:102E2D000100000000000000000000000000000094
:102E3D00000000000E000000000000000000000077
:102E4D00000000009C4E050800000000000000007E
:102E5D000000000000000000AC4E05080700000057
:102E6D0051CA01080C23002000000000004705088E
:102E7D000300000031CD01080023002000000000F8
:102E8D00B84E05080300000031CD0108F4220020E2
:102E9D0000000000C04E05080300000031CD010800
:102EAD00E822002000000000C84E050807000000C1
:102EBD0035CA0108E022002000000000F891050845
:102ECD000300000031CD0108D422002000000000D5
:102EDD00D44E05080300000031CD0108C8220020A2
:102EED00000000008C41050802000000DDCB010848
:102EFD0001000000000000009841050801000000DD
:102F0D0000000000000000000000000000000000B4
:102F1D000E00000000000000000000000000000096
:102F2D0075AA010845AA01081423002001B0010863
:102F3D0000000000B423002001A90108DDA801084C
:102F4D0040240020000000000000000008250020A3
:102F5D0071AE01086DCA0108E4250020E04E050898
:102F6D000000000000000000000000000000000054
:102F7D00EC4E05080300000031CD0108F0260020BD
:102F8D0000000000F44E05080300000031CD0108DB
:102F9D00E426002000000000203705080300000093
:102FAD0031CD0108D826002000000000004F050893
:102FBD000300000031CD0108CC26002000000000E8
:102FCD000C4F05080300000031CD0108C02600207C
:102FDD0000000000144F050802000000DDCB0108C1
:102FED0000000000000000008C41050802000000F8
:102FFD00DDCB010801000000000000001C4F05089A
:10300D0002000000DDCB01080200000000000000FE
:10301D00000000000E000000000000000000000095
:10302D0000000000E6EF002088136F17010000007C
:10303D00E8EF002088136F1700000000284F0508E7
:10304D000000000000000000000000000000000073
:10305D00384F05080800000000000000D0270020B0
:10306D0004000000444F05080800000000000000A7
:10307D00C427002000000000A04705080400000040
:10308D00EDC6010800000000000000009841050891
:10309D000100000000000000000000000000000022
:1030AD00000000000E000000000000000000000005
:1030BD0000000000E4EF002088136F1701000000EE
:1030CD002CDA002088136F1700000000A1A701085B
:1030DD0000000000DC2700207DF40020010000002E
:1030ED00040405082EDA0020010000001004050874
:1030FD0024DA00200200000018040508727C00206C
:10310D000000000000000000707C002000000000A6
:10311D00000000006E7C0020000000000000000098
:10312D006C7C002000000000000000006A7C002084
:10313D000000000000000000687C0020000000007E
:10314D0000000000B404002000000000000000009A
:10315D00E3EF00200200000024040508804F05085D
:10316D000000000000000000000000000000000052
:10317D00384F0508080000000000000060280020FE
:10318D0004000000444F0508080000000000000086
:10319D005428002000000000A0470508040000008E
:1031AD0071A701080000000000000000984105080B
:1031BD000100000000000000000000000000000001
:1031CD00000000000E0000000000000000000000E4
:1031DD0000000000904F05080000000000000000F6
:1031ED000000000000000000A04F05080D000000C9
:1031FD002DC801089028002004000000AC4F0508E0
:10320D000D000000C9A7010884280020040000005B
:10321D00B84F05080D000000F1C7010878280020FF
:10322D0000000000C44F050803000000DDB80108D0
:10323D006C28002008000000D04F05080300000096
:10324D0031CD0108942B00200000000098410508A5
:10325D000100000000000000000000000000000060
:10326D00000000000E000000000000000000000043
:10327D0000000000B442050800000000000000003E
:10328D0000000000000000003B39050804000000AC
:10329D0005C7010800000000000000009841050866
:1032AD000100000000000000000000000000000010
:1032BD00000000000E0000000000000000000000F3
:1032CD000000000024500508000000000000000070
:1032DD0000000000000000004C6605080D00000015
:1032ED0000000000F0280020040000003450050804
:1032FD000800000000000000E42800200400000089
:10330D00405005080800000000000000D8280020EB
:10331D0004000000485005080800000000000000EF
:10332D00CC280020040000005050050808000000C3
:10333D0000000000C02800200400000058500508BF
:10334D000800000000000000B42800200400000068
:10335D00605005080800000000000000A8280020AB
:10336D00040000006850050808000000000000007F
:10337D009C28002004000000984105080100000071
:10338D000000000000000000000000000000000030
:10339D000E00000000000000000000000000000012
:1033AD0089A7010800000000FC2800200000000093
:1033BD000000000074290020000000000000000043
:1033CD00142A00202ADA0020040000003004050829
:1033DD0028DA0020E0150C170000000027DA002085
:1033ED0008000000B8FB040826DA002005000000E4
:1033FD00440405080000000000000000642A0020BD
:10340D0001FFFFD601000000FFFFFFFF0000803F1E
:10341D000000000000000000000000000000803FE0
:10342D000000000000000000000000000000803FD0
:10343D000000000000000000000000000000803FC0
:10344D00FFFFFFFFFF00000000000000BC0C01208B
:10345D000800000000000000AC0C01200800000076
:10346D00999900088199000811FD000800000000DD
:10347D000D8A000855900008FD970008CD8F0008B3
:10348D000000000000000000C9890008D98700086D
:10349D00CD870008559800087198000839980008E4
:1034AD001D98000801980008715301087552010814
:1034BD005DFC000800000000E1890008D18F0008C4
:1034CD00D1970008318F00080000000000000000B7
:1034DD00D5890008B4300508050804000000000077
:1034ED0044040508B8FB040830040508000000007A
:1034FD0000000000E030050805080A00000000008B
:10350D0044040508B8FB0408F80205080000000093
:10351D0000000000D42C002005080300000000006E
:10352D0044040508B8FB04081C030508000000004E
:10353D0000000000672A0108632A01085B2A0108C0
:10354D00AD360108E1360108592A01084136010856
:10355D004D2A0108452A0108412A0108392A010886
:10356D00685E0C00010102FFFF0000000200020076
:10357D0004002000010000005001000007000000C1
:10358D00020000000100000000000000000000002B
:10359D000102030406070809FF000000402D00206A
:1035AD00000000000000000000000000000000000E
:1035BD0000000000000000000000000000000000FE
:1035CD0000000000000000000000000000000000EE
:1035DD0000000000000000000000000000000000DE
:1035ED0000000000000000000000000000000000CE
:1035FD0000000000000000000000000000000000BE
:108000002DE9F04F2DED108B034697B004331593F7
:10801000DFEDCACA149002238A4613928B4612934C
:10802000149C4FEADB0604EB461202EB061031010A
:10803000A6EB86034FEAC60806EB4605CDE900012C
:1080400000EBC303043108F10400119620442144DD
:108050002C01C6EBC60C0394EC00119D04944FEA6E
:10806000CC0405946C0106EB860E0294159D009CD1
:1080700003EB46174FEACE0E02EBC6064FEACB09DA
:108080004FF0000C51ED01AAD3ED001A92ED007AE9
:1080900094ED005A96ED004AD7ED007A15ED012ACD
:1080A00050ED016A32EE07BA76EE840A7AEE855A0E
:1080B00031EEA70A3BEE256A70EE804A76EEC46A7E
:1080C00036EE244A36EE646A05ED014A82ED006A16
:1080D000D0ED00BAD6ED012AD3ED019A95ED00AAB4
:1080E00092ED016A97ED013A91ED00CAD4ED014A93
:1080F0007BEEE23A36EEE19A32EE472A73EEE98AF7
:108100003AEE464A39EE279A78EE838AB0EE428AF2
:10811000A9EE6C8ADC44E24573EEC33AB0EE441A31
:10812000A8EEEC1A76EEE77A33EEA97A7CEE643AA2
:1081300077EEA17A3AEE066A7AEEC51A3CEE24AAE8
:1081400074EECC4A39EE833A35EE6A5AF0EE639A11
:10815000F0EE48AAE7EE2C9AA8EEAC4AE7EE2C4ADD
:10816000E7EE6CAAF0EE418AB0EE427AB0EE612AF8
:108170007BEE656A7BEEA22A76EE4A5AA9EE2C7A4D
:10818000A7EEAC2AA7EEAC5AE7EEEC8A32EE83BA41
:1081900076EEC3BA35EEE09A75EEC07A36EE0A6A2C
:1081A00076EEE26A36EE0BAA76EE836A77EEA07A76
:1081B00034EE423A77EE290A36EE4B6A7BEEA22A7B
:1081C00039EE000A73EEAA3A78EE244A37EE697A5D
:1081D00031EE055A71EEA85A32EE044A85ED00AA36
:1081E00082ED016A4D4441ED012A4A44C4ED006A22
:1081F00081ED000AC4ED017A494440ED010A4C4486
:1082000087ED007AC6ED003AC3ED004A80ED003AF2
:1082100087ED014A484486ED015A4F44C3ED015AA7
:108220004E444B443FF62EAF119B072B40F2C781C3
:10823000029D149E019B03980499059A08357519AF
:108240000C330E95354608F108080EF10804EB18BA
:1082500008300831083246442C1928186918AA1821
:10826000079305F10C030D960C940B900A9109925B
:1082700008934FF001084FF0000E129B9E44139B91
:1082800003EBCE0303EBCE02109302EBCE0303EB22
:10829000CE01029101EBCE0101EBCE0505EBCE063E
:1082A000D6ED007A0F93AEEB8E03019106EB03132C
:1082B00003EBCE07D3ED01AACDED067A019BD5EDF8
:1082C000007A97ED01BACDED057AD3ED007A029BE5
:1082D000CDED047AD3ED007A0F9BCDED037A07EB59
:1082E000CE0CD3ED007ADCED01BACDED027A0CEBC9
:1082F000CE01D2ED007A109A009101EBCE0001463A
:1083000091ED01DACDED017A0099D2ED007A91ED8F
:1083100001CA00EBCE0000EBCE0494ED01EAD0EDF3
:1083200001DACDED007ADDE90776DDE90954DDE912
:108330000B01DDE90D23C44602E000BFF304353F25
:1083400094ED009A90ED00FA91ED006AD5ED007A77
:10835000D3ED006A57ED014A92ED005A56ED013A0D
:1083600096ED00AA35EE060A73EEA65A39EE278A74
:1083700034EE8F7A70EE082A75EE87EA35EE465AAB
:108380003EEEA26A73EEE63A06ED016AD1ED019A7D
:10839000D2ED01FAD4ED016AD3ED011A95ED013A5F
:1083A000D0ED018A97ED004A3FEEE96A35EE491AB1
:1083B00076EE660A31EE271A3AEE612A75EE677A92
:1083C00070EE830A3FEEA95A74EECF9A77EE897A5F
:1083D0007AEE211AB0EE42AA74EE68FAA0EEECAA88
:1083E000DC44E24535EEC77AB0EE639A74EE285A63
:1083F00038EEC44AF0EE698AA1EE6C9AE7EEAC8AD8
:1084000036EE436A7FEE644A36EE266AA0EEAC2A68
:10841000F0EE4A0AE7EEEC0AE7EEAC4AF0EE687AD4
:10842000F0EE498A36EE833AE6EE6C8AE1EE2C3ABB
:10843000B0EE6F1AA6EE2C1A71EEE56AA6EE2C4A83
:1084400071EEA55A75EE031A7EEEE22A37EE43FA74
:1084500075EEE1EAB0EE686A76EEC08A39EE044A5B
:108460007FEE86FA76EEC86A33EE816A38EE888A45
:1084700073EEC13A37EE457A2CEE2E1A3FEE055ACE
:1084800022EECC9A9DED03FA70EE266A33EE077A5F
:10849000AFEE221AAFEE2E9A7AEE244A9DED01FA43
:1084A00079EEA09A25EE4BAA72EE670A37EE822A81
:1084B0006BEE087AAFEE08AAEFEE057A2DEEA63A3B
:1084C0009DED05FA67EE6D8AAFEE073AEFEE268A6C
:1084D00066EE6A2A9DED00FA2AEEA00AEFEE202A47
:1084E0006EEE02EADDED060A23EECE5AE0EEA3EAD6
:1084F0002BEEA98ADDED023AAFEE060AA3EE848ADE
:1085000024EE6B7A6DEE246A9DED044A2FEECD6A5F
:10851000A0EE825AA3EEA97AE4EE2F6AA4EE246AB2
:1085200075EEA15AC6ED005A83ED001A83ED019A4B
:108530004E4447ED017A87ED00AA4B4480ED003AA6
:10854000C0ED018A4F4482ED000A4844C2ED012A81
:10855000C5ED00EA85ED015A4A44C1ED006A81ED9E
:10856000016A4D4484ED008A84ED017A49444C440B
:108570003FF6E6AE0E9B08330E930D9B08330D932A
:108580000C9B08330C930B9B08330B930A9B08330B
:108590000A93099B08330993089B08330893079BA8
:1085A00008330793119B08F1010843457FF465AE3A
:1085B000129BDDF844B0DB009BB2129330E517B09C
:1085C000BDEC108BBDE8F08F70B4C3080D4CE25CBD
:1085D00000F00706B24004EBD004D2B20020C6F18E
:1085E00008038B4228BF0B46C3F108052A41984077
:1085F000C91A40EA02004FF0000614F8012FEED12C
:1086000070BC7047E02D0020084AD2E91A31994227
:1086100009D0D118013391F870100170C3F30A0327
:108620009366012070470020704700BFA02D0020F6
:10863000064AD2F87038D2F87428934294BF4FF4A7
:1086400000600020013B9B1A18447047A02D0020B9
:10865000012380F84D30704707B501A8FFF7D4FF1C
:108660000028FAD09DF8040003B05DF804FB044B29
:10867000D3E91A03984288BF03F50063181A7047BC
:10868000A02D002001207047024BC3F87828C3F8C2
:108690007C187047A02D0020024BC3F88028C3F837
:1086A00084187047A02D00207047704730B4124DD9
:1086B000D5E91A239A4286BF03F50064A21A9A1AD2
:1086C0000A44B2F5006F12D8A1B101444A1E013824
:1086D00010F8014FE918824203F1010381F870405C
:1086E000C3F30A03F4D1EB66002030BC70470220CC
:1086F00030BC70470846F8E7A02D0020212838B587
:108700000C4605D022282ED0202813D0002038BDBA
:108710000029FBD0072AF9D11A4BD3F8880893F81F
:108720008C1893F88D2893F88E382060217162712F
:10873000A371EBE70029E9D0072AE7D1114DD5F85D
:108740007C381BB10968D5F87808984720682179EA
:108750006279A379C5F8880885F88C1885F88D2882
:1087600085F88E38D2E70029D0D0022ACED1054A2A
:10877000D2F88438002BC9D00988D2F880089847ED
:10878000C4E700BFA02D0020024B0020C3F89008D2
:10879000704700BFA02D0020044B00200522C3F825
:1087A0009028C3F88408C3F87C087047A02D0020E7
:1087B000704700BF704700BF704700BF704700BFE1
:1087C000704700BF704700BF704700BF04230148D7
:1087D0000B8070470000002010B4074A074B92F846
:1087E0009408122403F114020C8001280CBF1846CF
:1087F00010465DF8044B7047A02D002004000020B7
:108800000020704700207047034B9B6A0B604FF4B9
:108810000073136000207047A02D00200023F0B4E7
:1088200052004F1C1E46B0F1204F4FEA107404F165
:1088300030052ABF3734CD54CC54FE5402339A420B
:108840004FEA0010EFD1F0BC704700BF0B4A0C4B51
:1088500010681B681A22C0180A8001D109487047A5
:1088600010B5094B09491C680822FFF7D7FF2046BD
:1088700007490422FFF7D2FF024810BDE8F7FF1FA7
:10888000ECF7FF1F2C000020EAF7FF1F2E0000204E
:108890003E000020042301480B8070474800002060
:1088A000122301480B8070474C000020A0B1826861
:1088B0000D4B12B107229A7070471978DA600329BC
:1088C0004FF004000CBF80214FF48071C3E9011107
:1088D0001A611A7598707047034B41F2B411012266
:1088E0005A545A70704700BF1C8F00200378022B27
:1088F00010D0006908B9012070470B4B1B78032B7F
:108900000EBF0A4B80B24FF6F773984294BF002017
:1089100001207047064A43681268B3EB422F2CBF10
:1089200001200020704700BF1C8F0020F7FFFF0FC1
:108930003CA100200378022B14D030B4104A4368C5
:10894000006941F2182441F210211559515841F2A1
:108950000C242B4012595B0A023801FB00301044F2
:1089600030BC7047064B426841F2042103F5905039
:108970005B58006800EB430000EB5220704700BFDB
:108980001C8F002010B40C4A92F8973802EBC301F8
:108990000133DBB2042B4FF0050408BF00234FF472
:1089A000045081F8984882F89738C1F89C085DF81F
:1089B000044B4FF0FF307047A02D002020230148CA
:1089C0000B80704760000020642301480B807047D3
:1089D00080000020432301480B807047E400002002
:1089E00010B5084CD4F82801FF2809D00649D1F861
:1089F000B82801F6BC01FFF781FEFF23C4F8283137
:108A0000002010BD00000020A02D0020E8E700BFDE
:108A100038B53D4CD4F8CC3805460BB11D22DA8070
:108A20001846092136F0E0FDD4F8CC0836F082FF74
:108A300094F8D238013B5BB2022BDBBF334A1B01F7
:108A40000020D058C4F8C8080223102184F8C43884
:108A50003FF042FF40210A203EF082FFFF218A20A2
:108A60003EF07EFF94F8D028C0F38011012A84F8EC
:108A7000D31800F040033BD0022A254B34D07AB300
:108A800094F8D4281A2A07D1B3F82C21A4F8D8587E
:108A9000A4F8DA18A4F8DC28B3F82C11D4F8C80824
:108AA0003FF01AFFD4F8CC0836F03EFF0221002038
:108AB0003EF056FFD4F8CC0836F03CFF94F8E52899
:108AC00094F8E63894F8E41884F8E018C2F120022B
:108AD000C3F1100384F8E72884F8E838012038BD92
:108AE0001022A3F82C21CBE70822A3F82C21C7E7FA
:108AF00025B90822064BA3F82C21C1E7002B14BF8F
:108B000008221022F6E700BFA02D0020B8050010B3
:108B10000000002010B5054C206D40F06BFB0028D4
:108B2000FAD1E06DBDE8104036F004BFA02D002062
:108B3000F8B51A4C94F8E938002BFBD159B301442D
:108B40004E1E451ED4F87428D4F8701815F8017F0D
:108B5000531CC3F30A038B422CBF4FF40060002068
:108B6000C91A224401440129C4F8743882F8EC7807
:108B70000FD1012036F078FAD4F87038D4F8741890
:108B80008B4294BF4FF4006200225B1A1344012B06
:108B9000EFD0B542D6D10020F8BD00BFA02D0020F7
:108BA0000A4B0846D3F8901810B569B1D3F890383D
:108BB000052B09D1064C002A54F80C3C04DD114663
:108BC000FFF7B6FF54F80C3C10BD00BFA02D0020ED
:108BD000983E002010B590F84C10002380F84C30DF
:108BE00089B10C4CD4F890287AB1D4F89028052A91
:108BF0000DD1094C383054F80C3CFFF799FF54F86C
:108C00000C3C012010BD0120FCE71046FAE7184695
:108C1000F8E700BFA02D0020983E0020002280F839
:108C20004D20D7E790F84C20531C0244DBB280F86B
:108C30004C3082F8381090F84D200AB1132B00D92F
:108C4000C8E770472DE9F0412DED028B0128514B0B
:108C500082B00D4658D0504E1A689B880092ADF8ED
:108C60000430371FDFF850819FED4C8AD8F8CC369E
:108C7000BDF800204A494B4C396007EE903AB4FBEE
:108C8000F3F4F8EE677A27EE888A7AB194420DD32E
:108C9000002D6CD0012D09D107EE902A1946424BC8
:108CA0003B60B8EE670A30463CF024F8BDF802306D
:108CB0008BB19C420FD3002D46D0012D0BD107EE76
:108CC000903A394AD8F8CC163A60B8EE670A06F1FD
:108CD00024003CF00FF8BDF8043083B39C422ED33F
:108CE000DDB1012D2BD107EE903A2F4AD8F8CC16E2
:108CF0003A60B8EE670A06F1480002B0BDEC028B9C
:108D0000BDE8F0413BF0F6BF284ED3F806205B8962
:108D10000092ADF80430371FA4E707EE903ADFED7C
:108D2000246A244A3A60F8EEE77A002386EEA77AAE
:108D3000B36477EE087A88EE277A86ED137A02B06C
:108D4000BDEC028BBDE8F08107EE903ADFED186ACA
:108D5000184B3B60F8EEE77A002386EEA77A736241
:108D600077EE087A88EE277A86ED0A7AB3E707EE7F
:108D7000902ADFED0F6A0F4B3B60F8EEE77A002395
:108D800086EEA77A336077EE087A88EE277A86ED4A
:108D9000017A8BE7983E0020A4060010BD37863587
:108DA000DDCA030820A1070049CA03081407001000
:108DB00083F9223E21C50308B805001010B5124CF6
:108DC0000023FF21206D23623EF00CFEFD21206D6B
:108DD0003EF008FE206DFF213EF004FEFF280AD180
:108DE0000146206D3EF0FEFDFF2804D10423022041
:108DF00084F8243010BD054B53F80C3C6361092303
:108E0000002084F8243010BDA02D0020983E0020C2
:108E1000F8B5114D06460F460924286DFF213EF096
:108E2000E1FDFF2803D1013CF7D10120F8BDFE2868
:108E300001D00220F8BD3B463246286D002140F0AB
:108E400039F9286DFF213EF0CDFD286DFF213EF060
:108E5000C9FD0020F8BD00BFA02D002070B582B074
:108E600040F040050C0E06460A0A080C95238DF8C2
:108E70000050134D8DF801408DF804108DF802005C
:108E80008DF803208DF805300824286DFF213EF071
:108E9000A9FDFF2802D0013CF7D176B9286D062341
:108EA0000022694640F006F90924286DFF213EF0B2
:108EB00099FDFF2802D1013CF7D1FF2002B070BD1F
:108EC000A02D0020F8B5184C94F82430042B074648
:108ED0000E46154607D0082B01D00020F8BDFFF73D
:108EE0006DFF0228F9D1E06D36F01EFDA37E8BB92F
:108EF00079021120FFF7B2FF90B90C4B266053F8AE
:108F00000C2C67600523C4E90350626184F82430A7
:108F10000120F8BD39461120FFF7A0FF0028ECD052
:108F2000FFF7F8FDD9E700BFA02D0020983E0020F4
:108F300023490B6B0F2B03D05A1C0A630020704788
:108F400070B5204C94F8E95800230B63EDB9D4F8C0
:108F50007028D4F87438B2F5006F18D09A422AD02D
:108F600019D9C2F50063402B17D9403B02F14005E7
:108F70004B63012384F8E938C4F8705892B2402357
:108F800011490A4481210CF0E9F8002070BDC4F8B1
:108F9000705883B12A469B1AE5E74FF0000502EBB3
:108FA00003064D630CBF02210121C4F8706892B220
:108FB00084F8E918E4E7002384F8E938E5E700BF1E
:108FC000983E0020A02D00208C360020B0E700BF86
:108FD00070B51D4C94F8E938012B03D0022B09D051
:108FE000002070BD01461948436B53B984F8E93835
:108FF000002070BD00231A4681210CF0AFF8002339
:10900000F4E7402BD4F870280FD9403B02F140051B
:109010004363C4F8705892B240230D4C0846224472
:1090200081210CF09BF8002070BD4FF0000503EB90
:109030000206456308BF0220C4F8706892B208BFF8
:1090400084F8E908E9E700BFA02D0020983E002041
:109050008C360020012905D008B503210CF016FD3F
:10906000002008BDB4E700BF70B50F4D2B6C04465F
:109070002BB195F8442095F85830134310D0812136
:1090800020460CF037F895F85830022B00D070BD10
:109090002046064ABDE870401F2301210CF08EB81F
:1090A00001210CF027F8EAE7983E0020D03E00208E
:1090B00070B50C4C0C4BE36504F15C02054684F87A
:1090C000681000260D23812184F86C600CF046F8AE
:1090D000284604F138021F23BDE8704001210CF03E
:1090E0006DB800BF983E0020555342532DE9F04122
:1090F000A94C94F84730206782B088465A2B00F27A
:10910000AC80DFE813F0C000AA00AA00CE00AA00DD
:10911000AA00AA00AA00AA00AA00AA00AA00AA00FF
:10912000AA00AA00AA00AA00AA000401AA00AA0094
:10913000AA00AA00AA00AA00AA0027017200AA0099
:10914000AA007200AA00AA00AA00AA00A401AA000C
:109150005501AA00AA007A00AA00F101AA00AA00FB
:10916000AA00AA005B00AA00AA00AA00AA00AA00FE
:10917000AA00AA00AA00AA00AA00AA00AA00AA009F
:10918000AA00AA00AA00AA00AA00AA00AA00AA008F
:10919000AA00AA00AA00AA00AA00AA00AA00AA007F
:1091A000AA00AA00AA00AA00AA00AA00AA00AA006F
:1091B000AA00AA00AA00AA00AA00CE0194F848308A
:1091C0009B0700F14082B4F84E30D4F84920D4F81F
:1091D00080105BBA9BB212BAD0188842C4E921232E
:1091E00003D9FFF7CFFB00284ADB0020A4F8780062
:1091F0000546284602B0BDE8F08194F86C30002B9B
:1092000040F0F68094F94430002B26DA636F08466C
:109210009B689847002840F0F681B4F84E50D4F887
:109220004970D4F880306DBAADB23FBA7A199A421B
:10923000C4E9217503D9FFF7A5FB002820DBE36F04
:10924000266C03FB05F503FB07F20220B542C4E9D7
:10925000212584F86C0000F0CE80504A92F89738AF
:10926000591CC9B202EBC30305244FF40050042972
:1092700082F8971883F89848C3F89C0800F08B810F
:109280004FF0FF35B5E7236C002BE6D1636F08463E
:109290009B6898470546002840F0B581A4F87800FF
:1092A000A7E73F4B002203F1120103F8012F8B4285
:1092B000FBD13A493B4891F8975894F87A30702698
:1092C00006709D424FF00C06C67112D001EBC3012F
:1092D0000133DBB291F8986891F89D5891F89C1889
:1092E0008670042B0573417314BF84F87A3084F8B8
:1092F0007A2094F84B3012229342A4F8782098BF39
:10930000A4F878300025284602B0BDE8F08194F832
:109310004830DA0700F12781636F94F84B00DA696F
:1093200001EBC10102EB81010A79531D834228BF81
:109330000346A4F87830002BE4D0013B19489BB2D7
:1093400001331944034411F8012D03F8012D834220
:10935000F9D1D7E7144E154F35460823073EC5F11E
:109360000700A4F87830002201E0127A1D462B464F
:10937000B54203F8012900EB030217FA82F2F4D197
:10938000636F4046DB6898470028BBD0AB7863F03A
:109390007F03AB7000252CE7983E0020A02D002015
:1093A0001B7F00201C7F0020237F0020ACF00408DE
:1093B000636FBA4A5B680846111D98470546002846
:1093C00040F02181D4E91F12B54B013A100E1870FC
:1093D000DA70100C120A0E0E58709A70080CD971BF
:1093E0000822090A1E7158719971A4F8782000E7C3
:1093F000D4E92126E36F656FB2FBF3F2B6F5805F27
:1094000028BF4FF480562D69A549B6FBF3F34046BB
:109410009BB24FF48057A4F87870A8470028C0F298
:10942000A78033469E4A206F81210BF097FED4E936
:109430002120636E3244851B9E1BC4E9212566668C
:10944000002D7FF45FAF032384F86C30D1E6944E97
:109450000027334606F10C0203F8017B9A42FBD148
:10946000636F40465B686A4601A998470546002835
:1094700040F0D480DDE90023013B190E3171190C55
:10948000F37171711B0A110CF272B371120A082088
:1094900071720C230221B272F0703172A4F878302C
:1094A000A7E6804E804F30460823073EC0F10705EF
:1094B000A4F87830002201E0127C18460346864268
:1094C00003F8012905EB030217FA82F2F4D1636F66
:1094D0004046DB68984700283FF414AFF37863F008
:1094E0007F03F370002584E694F86C30002B58D18C
:1094F00094F94430002BFFF6B0AE636F08469B68CA
:10950000984700287FD1636F4046DB68984705463F
:10951000002840F0A980B4F84E30D4F84960D4F85F
:1095200080205BBA9FB236BAF3199342C4E921672F
:1095300000F29480E36F226C03FB06F603FB07F353
:109540009342C4E921637FF488AEB3F5805F28BFFE
:109550004FF480530121206F514A84F86C109BB264
:109560000BF02CFE45E607234F49A4F87830E4E6DB
:109570004E4A92F89738591CC9B202EBC30304242F
:109580004FF48850A14282F8971883F89848C3F89E
:109590009C087FF475AE002382F897384FF0FF35B2
:1095A00027E6D4F88860606FE36FD4F884204569BB
:1095B000B2FBF3F2B6F5805F28BF4FF48056084641
:1095C000B6FBF3F336499BB2A84700285ADBD4E92F
:1095D0002125636E3244AD1B9B1BC4E921256366C4
:1095E00025B9206F2946FFF763FD02E6B5F5805FD8
:1095F00028BF4FF48055ABB2206F294A01210BF0F0
:10960000DDFD0025F5E5294A92F89738591CC9B2C5
:1096100002EBC30302244FF4685028E6234A92F871
:10962000973802EBC3010133DBB202244FF46850D8
:10963000042B81F89848C1F89C0820D082F897380C
:109640004FF0FF35D5E5194A92F89738591CC9B241
:1096500002EBC30305244FF4105008E6FFF792F91C
:109660000028BFF667AF0BE6104A92F89738591CEE
:10967000C9B202EBC30302244FF41C50F7E582F891
:109680009778FDE5094A92F89738591CC9B202EB60
:10969000C30304244FF4407074E700BF143F00205C
:1096A0001C7F0020237F0020ACF00408A02D0020A8
:1096B00010B5074B93F845100446FFF717FD002837
:1096C00000DB10BD20460121BDE81040F0E400BFE2
:1096D000983E002070B5304C94F86C502DB1012D9F
:1096E00001D1FFF7E5FF002070BDB0F8B433E26BA5
:1096F00022661F2B226C6266064607D1274BA26B9F
:109700009A4203D194F8451001291AD9244A92F8B3
:10971000973802EBC3010133DBB2042B08BF0023EF
:1097200005254FF40050C1F89C0882F89738304660
:10973000022381F8985884F85830FFF795FC0020F0
:1097400070BD94F84630013B0F2BDFD8FFF7CEFCFD
:10975000002819DB94F86C30013B022BC3D9B4F814
:109760007810A9B1236C626E84F868508B4228BFD0
:109770000B46D11A042561660A4A84F86C503046BB
:1097800081210BF0EBFCAEE73046FFF76DFCAAE75A
:109790003046FFF78DFCA6E7983E00205553424324
:1097A000A02D00201C7F002008B5084B93F86C30DA
:1097B000022B07D0033B012B02D80021FFF778FCD6
:1097C000002008BDFFF774FF002008BD983E002070
:1097D00010B501EB8101084A00EBC1010446B1F864
:1097E0008C131046FEF762FF034A204640230121F6
:1097F0000BF0E4FC002010BD243F0020E8E700BF90
:1098000010B5044C04480A4621460BF04DFC204696
:1098100010BD00BF643F00207C33050810B5044C28
:1098200004480A4621460BF03FFC204610BD00BF0D
:10983000643F00208C33050810B5044C04480A46E8
:1098400021460BF031FC204610BD00BF643F0020D4
:109850009833050810B5044C04480A4621460BF01D
:1098600023FC204610BD00BF643F0020A433050840
:1098700010B5044C04480A4621460BF015FC20465E
:1098800010BD00BF643F0020B033050810B5044C84
:1098900004480A4621460BF007FC204610BD00BFD5
:1098A00064400020C433050810B5044C04480A463F
:1098B00021460BF0F9FB204610BD00BF644000209C
:1098C000D433050810B5044C04480A4621460BF071
:1098D000EBFB204610BD00BF64400020E0330508CC
:1098E0000A4608B5054920B905480BF0DDFB0348D9
:1098F00008BD04480BF0D8FB004808BD64400020B8
:10990000F43305080C34050810B5812104460BF02A
:109910007BFC204601210BF077FC024B002083F8F2
:109920006C0010BD983E002070B50446134EFFF742
:10993000EBFF20460223402281210BF0ADFC4022A8
:109940000121204602230BF0A7FC736F00251B6842
:1099500086F86C50284686F85850984720460CF0F8
:109960007BF8204601210CF091F8204606F13802E0
:109970001F2301210BF022FC284670BD983E0020D9
:1099800038B50D46044683210BF03EFC294620469F
:109990000BF070FC002038BD38B508220D46044697
:1099A000032383210BF078FC294620460BF0E0FCD2
:1099B000002038BD2DE9F047484E96F8CB120446FA
:1099C000C1F34001D6F8D00235F0BAFF96F8CB12B9
:1099D000D6F8CC02C94301F0010135F0B1FF002CEB
:1099E00060D0671EDFF8F8A0FFB24FF001094FF01A
:1099F0000008D6F8D03233B11A689B8851690B42FF
:109A000014BF53831383D6F8CC3233B11A689B88C2
:109A100051690B4214BF53831383B6F8D832002B1D
:109A200042D196F8DA12D6F8DC0235F089FFFA2531
:109A300035F0B8F9044635F0B5F9031BB3F57A7F74
:109A4000F9D3013DF4D1D6F8D03233B11A689B88EE
:109A500051690B4214BF53831383D6F8CC3233B110
:109A60001A689B8851690B4214BF53831383B6F85D
:109A7000D83243BB96F8DA12D6F8DC0281F0010145
:109A800035F05EFFFA2535F08DF9044635F08AF998
:109A9000031BB3F57A7FF9D3013DF4D1013FFFB247
:109AA000FF2FA6D1BDE8F087D6F8F432002BBED048
:109AB000D6F8E022B6F8F832BAFBF3F35B10136085
:109AC00086F8F192B3E7D6F8F432002BDAD0D6F864
:109AD000E032C3F8008086F8F182D3E7983E002098
:109AE00040420F002DE9F047464EDFF81CA196F8E2
:109AF000CB12D6F8D002C1F3400135F021FF96F821
:109B0000CB12D6F8CC02C94301F0010135F018FFA1
:109B100005274FF001094FF00008D6F8D03233B1D5
:109B20001A689B8851690B4214BF53831383D6F87C
:109B3000CC3233B11A689B8851690B4214BF5383EE
:109B40001383B6F8D832002B4DD196F8DA12D6F836
:109B5000DC0235F0F5FE322535F024F9044635F007
:109B600021F9031BB3F57A7FF9D3013DF4D1D6F87F
:109B7000D03233B11A689B8851690B4214BF5383AA
:109B80001383D6F8CC3233B11A689B8851690B42E3
:109B900014BF53831383B6F8D832CBB996F8DA12D0
:109BA000D6F8DC0281F0010135F0CAFE322535F02D
:109BB000F9F8044635F0F6F8031BB3F57A7FF9D3CC
:109BC000013DF4D1013F17F0FF07A6D1BDE8F087B2
:109BD000D6F8F432002BE9D0D6F8E032C3F8008092
:109BE00086F8F182E2E7D6F8F432002BB3D0D6F84B
:109BF000E022B6F8F832BAFBF3F35B10136086F894
:109C0000F192A8E7983E002040420F0000F01F02AA
:109C100040090123032803FA02F304D004280CD0DE
:109C2000022805D07047074A116C0B431364704734
:109C3000044A516C0B4353647047024A116B0B4347
:109C4000136370470038024000285ED00368374A2B
:109C50002DE9F04103F13F4404F57E0402EB942228
:109C60000124127E02F01F055209032A04FA05F4AA
:109C700056D0042A4FD0022A48D08588B5FA85F0FC
:109C8000C0F11F00C0F3CC0603EB860600F007000E
:109C900082000F24306A944020EA04003062306A67
:109CA00001FA02F20243002132624FF0010E0A462D
:109CB0004FF0030C02270EFA02F838EA050002F111
:109CC00001021CD118680CFA01F420EA04001860A3
:109CD000186807FA01F606431E609E6826EA040625
:109CE0009E6098689860586820EA08005860586834
:109CF0005860D86820EA0400D860D868D860102A74
:109D000001F10201D7D1BDE8F0817047084A556CD6
:109D10002C435464B1E7064A156B2C431463ACE73B
:109D2000034A156C2C431464A7E700BFACF0040889
:109D30000038024000487047F4410020002869D0F4
:109D4000F0B58388B3FA83F3202B83B0C3F11F05EA
:109D50004AD005F0FC0404F1804404F59C3405F07D
:109D60000302A76800682C4E4FEA820E4FF00F0CDA
:109D70000CFA0EFC00F13F4227EA0C0006EB8507C7
:109D800002F57E02C7F88414A060D4F808C0234905
:109D90002348C2F3872202FA0EF24FF0004727FA57
:109DA00003F342EA0C02A2604B610A681D4C22EAEE
:109DB00003020A604A6822EA03024A600A681A43F8
:109DC0000A608A6822EA03028A60CA68054422EAB5
:109DD0000302CA60216895F820200B4316442360D3
:109DE00096F8C434F02B01D803B0F0BD1044F02134
:109DF00090F830308DF8043003224FF4807301A8BE
:109E000086F8C4148DF80520ADF806300BF05CFE22
:109E100003B0F0BD704700BF983E0020003C0140F9
:109E2000ACF00408083C01402DE9F04F2DED028B09
:109E3000C44F97B097F8E024002307F2CC41039178
:109E4000C7F8CC34C7F8D034C7F8D434C7F8D834FE
:109E5000C7F8DC341AB197F8E13487F8CC3497F8B6
:109E6000E2341BB197F8E33487F8DB3497F8E63433
:109E70001BB197F8E73487F8D63497F8E4341BB170
:109E800097F8E53487F8D13497F8E89409F1FF3969
:109E90004FFA89F9B9F1FF3F00F0B780AA4AAB4CFD
:109EA000029402EB09134FEA0911187955589A6880
:109EB000DB68059308EE100A002304920193A34681
:109EC0001E4698469BF800404946204637F0FCF86D
:109ED00082462046BAF1000F21D034F0BBFC08F1D5
:109EE00007021321D2B220B14FF0000E827180F828
:109EF00007E035F079FB9BF8000037F017F94FF0D9
:109F00000703721C8BF804304FF001038BF80260DA
:109F10008BF80100CDF804A0D6B28BF8033008F11D
:109F20000108B8F1040F0BF1050BCBD118EE100AA4
:109F3000029CFFF76BFE864A864B51680B4043F448
:109F400040335360B9F1000F01D1019B73B9DFF8C1
:109F500008824820FFF75AFE4046022140F00EFBDF
:109F6000D8F8083043F00103C8F8083078497A4B34
:109F70004A687A48DFF8F4E1B0F800C042F4000221
:109F80004A605A68A7F8ECC422F480525A609A6B6F
:109F9000BEF800E022F4401242F480129A63DA68BC
:109FA00042F46002DA60996B81F44012C2F301520C
:109FB00002EB82004FF01F0808FA00F221EA0201CA
:109FC000112282400A439A63DA6842F4E012DA60AE
:109FD000996BC1F30152C2F10402D2B202EB8200CA
:109FE00008FA00F221EA0201102282405C4800884F
:109FF000A7F8EAE40A439A63A0EB0C00594B93FBE1
:10A00000F0F0019BA7F8EE0423B917B0BDEC028B6A
:10A01000BDE8F08F2846314640F0B0FA039B474632
:10A0200003F1140E01204FF00708E378411CC9B278
:10A030003BB394F801C02379ACF10A0202EB42026F
:10A040000CEB4C09BCF1090F08FA02FA08FA09FBFB
:10A0500003FA02F240F28C80EB6823EA0A0A42EA31
:10A060000A02EA60431E03EB8303062807FA03F99A
:10A070000CFA03F34FD86A6B22EA0902134308462D
:10A080006B630534A645D0D1AB68DDF8108043F48E
:10A090000073AB60AB6843F48073AB60AB6843F0B4
:10A0A0000103AB6040463EF0E9FD002206213EF090
:10A0B000A1FE40460BF090FD07A80BF04FFD012ECE
:10A0C000059B294A07938CBF4FF48064002405F157
:10A0D0004C0000230B960D940890099207A94FF4A9
:10A0E00000324FF400674FF400564FF4807440463E
:10A0F0000A930C93CDE90E76CDE910420BF040FDAA
:10A10000D8F8003043F00103C8F80030AB6843F0E2
:10A110008043AB6079E7C21FA0F10D0302EB82021E
:10A1200003EB83030C2807FA02F907FA03F00CFA91
:10A1300002F226D82B6B23EA09031A4308462A6346
:10A140009FE700BF983E0020E4F00408644300202D
:10A1500000230140E030FCFF002001402C7AFF1F6B
:10A160002E7AFF1F80380100884300202A7AFF1FC3
:10A170002A6903FA09F322EA0B0B43EA0B032B616A
:10A1800070E7EA6A0CFA03F322EA00021343084676
:10A19000EB6276E70C2910D8DFE801F0100F0F0F03
:10A1A000190F0F0F220F0F0F0700838B23F400638B
:10A1B0001B041B0C43F4006383837047038B23F061
:10A1C00008031B041B0C43F0080303837047038B35
:10A1D00023F400631B041B0C43F4006303837047E8
:10A1E000838B23F008031B041B0C43F008038383B9
:10A1F000704700BF204A038890429BB212D002F5FC
:10A20000806290420ED0B0F1804F0BD0A2F5803228
:10A21000904207D002F58062904203D002F580623E
:10A22000904202D123F070039BB2144A904216D0A0
:10A2300002F58062904212D023F4407302F56C4222
:10A2400030B49BB24D680C8803809042C56204858F
:10A250000DD18B7A0386012330BC83827047038043
:10A260000B884A68C2620385012383827047044BCE
:10A270009842EED0EFE700BF000001400010004020
:10A280000004014010B53EF0BBFC064841F2580303
:10A2900000F2FA41C358BDE810401B6800F20450B8
:10A2A000184700BF983E0020F0B40D6800240CE071
:10A2B000BCF1050F18D8A0F137030A2B14D104EB19
:10A2C000840415F8010B03EB4404A0F13003DEB263
:10A2D000092EA0F16107A0F1410CF0D9052FE7D8B4
:10A2E000A0F157030A2BEAD00D601460F0BC704750
:10A2F0002DE9F047041E0D4612DB092C26DC824AAC
:10A300000B468248A0FB0410C00800EB8000A4EBC1
:10A3100040000021125C1A7059702846BDE8F08791
:10A3200064422D23092C01F8013B24D8764A774B4F
:10A33000A3FB0403DB0803EB8303A4EB430300202C
:10A34000D35C48700B702846BDE8F0876F4B632CD8
:10A35000A3FB04264FEAD60621DC6B4A0B466B4969
:10A36000A1FB0601C90801EB8101A6EB4101515C8B
:10A3700003F8011BC5E7654A632CA2FB04364FEACC
:10A38000D60637D8604A614BA3FB0603DB0803EB14
:10A390008303A6EB4303D35C01F8013BC7E7A3FBB0
:10A3A0000627B4F57A7F4FEAD7070DD2564A0B46F7
:10A3B0005649A1FB0701C90801EB8101A7EB410147
:10A3C000515C03F8011BCAE7A3FB072842F20F7296
:10A3D00094424FEAD80836D84B4A0B464B49A1FB6A
:10A3E0000801C90801EB8101A8EB4101515C03F8A8
:10A3F000011BDDE7A2FB0637B4F57A7F4FEAD707EA
:10A400000CD2414A414BA3FB0703DB0803EB830358
:10A41000A7EB4303D35C01F8013BB4E7A2FB073889
:10A4200042F20F739C424FEAD80821D8364A374B84
:10A43000A3FB0803DB0803EB8303A8EB4303D35C14
:10A4400001F8013BDEE7324AA3FB080994424FEAD8
:10A45000D90921D82C4A0B462C49A1FB0901C9086E
:10A4600001EB8101A9EB4101515C03F8011BB5E748
:10A47000274BA2FB08099C424FEAD90921D8224A5E
:10A48000224BA3FB0903DB0803EB8303A9EB430384
:10A49000D35C01F8013BCAE71E4AA3FB09039442BF
:10A4A0004FEAD30A21D80B461849174AA1FB0A01E3
:10A4B000C90801EB8101AAEB4101515C03F8011BC2
