:020000040800F2
:10000000F0FF0010A176040879E2000849F0030827
:100010003D7704083D7704083D77040800000000A0
:1000200000000000000000000000000085E2000861
:1000300081E20008000000007DE2000821E70308DB
:100040003D7704083D7704083D7704083D770408B0
:100050003D7704083D770408C5F5030805F7030854
:10006000C5F6030885F6030845F60308216404086D
:100070001164040801640408F1630408DD630408E2
:10008000C9630408B56304083D7704083D77040894
:100090003D7704083D7704083D77040805F603081A
:1000A0007DE003083D7704083D7704083D770408A8
:1000B000CDE00308BDE003083D7704083D77040860
:1000C0003D7704083D7704083D7704083D77040830
:1000D0003D77040899E803083D770408FDE7030825
:1000E00085F503083D7704082D1D01083D770408B8
:1000F0008DE003083D7704089DE00308A163040830
:100100003D7704083D770408ADE003083D77040817
:100110003D7704083D7704083501030821010308F1
:100120008D63040879630408656304085163040857
:100130003D6304083D7704083D7704083D770408D3
:100140003D7704083D7704083D770408490C010811
:1001500029630408156304080163040861E70308C0
:100160003D7704083D7704083D7704083D7704088F
:100170003D7704083D7704083D7704083D7704087F
:080180003D7704083D770408F7
:080188005072040001000000A8
:1001900003010A001C6E0020A86E00200000000071
:1001A000CC0600081302030094340020B46E002033
:1001B00000000000D606000804008000F450002073
:1001C000B86E0020000000000000000023001000B6
:1001D000CC500020386F002000000000B5990108C5
:1001E0000D003400DC4F0020486F002000000000AC
:1001F0003143030813000400284F00207C6F0020C7
:1002000000000000DC060008F6210C002C4F002046
:10021000806F002000000000E0060008F531740047
:10022000604E00208C6F002000000000C9CE030843
:100230000B3014004C4E0020007000200000000025
:10024000EC06000801010400484E00201470002054
:10025000000000000000000000010400444E0020E7
:1002600018700020000000000007000802010300D1
:10027000404E00201C7000200000000071BC0208ED
:10028000FD0124000C4E0020207000200000000022
:10029000C1C503080610180004590020447000204E
:1002A0000000000041170208FB010100044E00207D
:1002B0005C7000200000000071E50308FC010900EB
:1002C000D04C0020607000200000000081E5030891
:1002D00002000C009C4C00206C700020000000000C
:1002E000000000000A603600C43D00207870002045
:1002F000000000000407000834001000C84B002074
:10030000B07000200000000015170208110208005C
:10031000A04B0020C0700020000000003A07000839
:1003200012120400984B0020C8700020000000004A
:100330004207000818202C006C4B0020CC700020D5
:1003400000000000F1D1030812200D00444B0020F2
:10035000F87000200000000046070008F9010400C2
:1003600048400020087100200000000039C6030842
:1003700018020200444000200C7100200000000020
:100380000000000017020B00384000201071002010
:10039000000000006DCA0308FA01020014400020AA
:1003A0001C7100200000000009CC030802020300B9
:1003B000B83500202071002000000000000000007F
:1003C0000C020300A435002024710020000000006E
:1003D00015CB0308FE010900EC580020287100200D
:1003E00000000000F5CA03080902010090DD0020AA
:1003F000A4DD0020000000005407000801020500F1
:10040000FCD70020A8DD00200000000081280108A2
:1004100000020500F4D70020B0DD0020000000003D
:10042000000000001B020800DCD70020B8DD00201F
:100430000000000025CB03080120080080DC00201C
:10044000C0DD00200000000056070008190005006C
:1004500000DD0020C8DD0020000000005E0700086D
:1004600037001E00D8DC0020D0DD00200000000096
:10047000640700081E000500B8D50020F0DD00204C
:1004800000000000820700081B00F40044C30020A5
:10049000F8DD0020000000006D38010826000E0085
:1004A000FCDE0020ECDE00200000000081200108BE
:1004B0001F201C0038D5002030DF00200000000085
:1004C00088070008050204004CD800204CDF0020FB
:1004D00000000000A4070008031233003CEB0020DA
:1004E0006FEB002000000000A80700082500960020
:1004F000F0E9002086EA0020000000000000000073
:100500001500700020E8002090E8002000000000A6
:10051000000000002A00600060E70020C0E7002023
:1005200000000000A11602082F0011009CEF00201F
:1005300045E7002000000000DC0700082C00100048
:100540001CEB00202CEB002000000000E5A60108B9
:100550002B002400C6EB0020A2EB002000000000CE
:10056000B9A601082910780000E9002078E90020E8
:10057000000000000000000028101000C0EF002064
:10058000B0EF002000000000A19901081400040051
:1005900056E700205AE7002000000000EE070008A0
:1005A000051006008AE2002014F000200000000080
:1005B000F20700080C20B40094E100201CF0002099
:1005C0000000000041BC02080E806201DADF00205A
:1005D000D0F0002000000000C91602081A000E002A
:1005E000A0F5002078F7002000000000F8070008C0
:1005F0000E020200B0F2002088F700200000000088
:1006000006080008F8210600BCF200208CF7002044
:1006100000000000080800080812090090FE0020F1
:10062000E8FE002000000000BDCA0308F701060034
:1006300086FE0020F4FE0020000000000E080008E6
:100640000A020A00C8FD0020FCFE00200000000095
:10065000140800080300010074FE002008FF0020B9
:10066000000000000000000010100300C8F8002087
:100670000CFF0020000000001E0800081600080003
:1006800064020120F402012000000000220800089A
:100690001A023C00040301205C0D01200000000050
:1006A0007DCD030827000400C82C0120980D0120EF
:1006B000000000002A08000810020100D42C0120CC
:0C06C000D02C0120000000002E080008D3
:1006CC00040101006C160000000000000000000096
:1006DC0008004410000000000100000002020000AD
:1006EC002B21231E64010200000001000A012900D5
:1006FC00230A0000BC0100000030010000000000D3
:10070C00730073006900000000000000000000008E
:10071C00000000000000020000019E077D00FA00AE
:10072C0096005802B80BB80BB80B2000C409000097
:10073C00000001010101FFFFFFFF000000010000AC
:10074C00054B4957490000001300E8036400040AF4
:10075C00000100002801000020003200C800D00772
:10076C009600140032002800B0044006000550002A
:10077C0014000F0008010000010000000000000040
:10078C000001000000050000010203000000000051
:10079C00000000000000000000000000000000004D
:1007AC00000000000000000000000000000000003D
:1007BC00000000000000000000000000000000002D
:1007CC00000000000000000000000000000001001C
:1007DC00000000000000000000000000000000000D
:1007EC000000030000462000030100007E05EA051E
:1007FC00B4050300E803D007000000000101F40178
:10080C00140018000100000000004A01B400D601D9
:10081C00000000050000C4090700B40128282003CB
:03082C00000000C9
:10082F000403090412010002EF020140830456324F
:10083F000002010203010000120100020202004047
:10084F008304405700020102030100000902200047
:10085F00010104C032090400000208065005070513
:10086F0081024000000705010240000009026400F8
:10087F00030100C032090400000103000000092138
:10088F00110100012226000705830308000A080B47
:10089F000102020201000904010001020201000528
:1008AF00240010010524010002042402020524067D
:1008BF000102070582030800FF09040200020A0073
:1008CF0000000705010240000007058102400000FB
:1008DF0009024300020100C03209040000010202B4
:1008EF000100052400100105240100010424020267
:1008FF000524060001070582030800FF0904010013
:10090F00020A0000000705010240000007058102EE
:10091F0040000000FF00000000FFFF00000000008B
:10092F00AA55050100000800010100000501090595
:10093F00A101A10005010930093109320933093537
:10094F000934094009381581257F750895088102FA
:10095F00C0C0000009022200010100E032090400BA
:10096F0000010301020009211101000122260007E5
:10097F0005830308000A00008587000881870008A7
:10098F007D870008718700086D8700087987000848
:10099F0075870008006002401060024000000000F0
:1009AF0000000000000B000000000000000000002D
:1009BF0000000000006002402860024001000000BB
:1009CF0000000000060C0000000000000000000006
:1009DF000000000000600240406002400200000082
:1009EF0000000000100D00000000000000000000DB
:1009FF000000000000600240586002400300000049
:100A0F0000000000160E00000000000000000000B3
:100A1F00000000000060024070600240040000000F
:100A2F0000000000200F0000000000000000000088
:100A3F0000000000006002408860024005000000D6
:100A4F000000000026100000000000000000000061
:100A5F000000000000600240A0600240060000009D
:100A6F000000000030110000000000000000000036
:100A7F000000000000600240B86002400700000064
:100A8F0000000000362F00000000000000000000F2
:100A9F0000000000006402401064024000000000EB
:100AAF0000000000003800000000000000000000FF
:100ABF0000000000006402402864024001000000B2
:100ACF0000000000063900000000000000000000D8
:100ADF000000000000640240406402400200000079
:100AEF0000000000103A00000000000000000000AD
:100AFF000000000000640240586402400300000040
:100B0F0000000000163B0000000000000000000085
:100B1F000000000000640240706402400400000006
:100B2F0000000000203C000000000000000000005A
:100B3F0000000000006402408864024005000000CD
:100B4F00000000002644000000000000000000002C
:100B5F000000000000640240A06402400600000094
:100B6F000000000030450000000000000000000001
:100B7F000000000000640240B8640240070000005B
:100B8F0000000000364600000000000000000000DA
:100B9F000000000000000000010203040102030432
:100BAF0006070809A5EC00087DF40008F5EF00081A
:100BBF0081880008CD8A000891880008AD88000858
:100BCF005988000849880008000000000000000054
:100BDF002D202D2D202D2D2D2D202D2D2D2D0000B7
:100BEF00000000000000000000000000000000AA4C
:100BFF00550B010000AA5507010000AA5509020074
:100C0F000000000001000000C012AA5503009F0061
:100C1F000100000000000100E001010101000000DF
:100C2F00692C01080000000074050020F0EB040897
:100C3F0000000000000000000000000000000000A5
:100C4F006CEA04080000000000000000FC0900200E
:100C5F00040000009CEB04080D000000B54B0108D8
:100C6F00E409002000000000E0F504080D0000007A
:100C7F00DD4B0108D80900200000000010EC04082B
:100C8F000800000000000000CC0900200400000054
:100C9F0000EC04080D0000001D2D0108C009002004
:100CAF000000000008F704080300000061AA010813
:100CBF00B40900200000000008EC04080300000045
:100CCF0061AA0108A809002000000000B0EA04088A
:100CDF000100000000000000000000000000000004
:100CEF00000000000E0000000000000000000000E7
:100CFF0000000000F0EB04080000000000000000FE
:100D0F0000000000000000006CEA04080000000072
:100D1F0000000000FC0900200400000034EB040870
:100D2F0003000000ED4201089C09002008000000AC
:100D3F0000EC04080D0000001D2D0108C009002063
:100D4F000000000008F704080300000061AA010872
:100D5F00B40900200000000008EC040803000000A4
:100D6F0061AA0108A809002000000000B0EA0408E9
:100D7F000100000000000000000000000000000063
:100D8F00000000000E000000000000000000000046
:100D9F000000000018EC0408000000000000000034
:100DAF0000000000000000006CEA040800000000D2
:100DBF0000000000FC090020040000003CEB0408C8
:100DCF000300000061AA0108F009002000000000E4
:100DDF00B0EA04080100000000000000000000005D
:100DEF0000000000000000000E00000000000000E6
:100DFF000000000000000000010800001C0A002095
:100E0F00040000000CDF0020000000000000803F05
:100E1F000000803F00000000000000000000000004
:100E2F0000000000000000000000000000000000B3
:100E3F000000000000000000FFFF0000FF1FFF1F69
:100E4F002ED5002088136F170100000030D5002029
:100E5F0088136F170000000088EA040800000000E4
:100E6F0000000000000000000000000098EA0408E5
:100E7F0008000000000000002C0600200400000005
:100E8F00A4EA04080800000000000000200600206B
:100E9F000000000008F7040804000000054B0108DB
:100EAF000000000000000000B0EA0408010000008C
:100EBF000000000000000000000000000000000023
:100ECF000E00000000000000000000000000000005
:100EDF002CD5002088136F1701000000A06E002092
:100EEF0088136F1700000000D12C010800000000CC
:100EFF00380600204AD8002001000000B4A90408D9
:100F0F00A26E002001000000C0A90408986E002006
:100F1F0002000000C8A904082E3E002000000000B7
:100F2F00000000002C3E0020000000000000000028
:100F3F002A3E00200000000000000000283E002094
:100F4F000000000000000000263E0020000000000E
:100F5F0000000000243E0020000000000000000000
:100F6F00E803002000000000000000002BD5002047
:100F7F0002000000D4A90408ECEA040800000000F5
:100F8F0000000000000000000000000098EA0408C4
:100F9F000800000000000000BC0600200400000054
:100FAF00A4EA04080800000000000000B0060020BA
:100FBF000000000008F7040804000000A12C01083D
:100FCF000000000000000000B0EA0408010000006B
:100FDF000000000000000000000000000000000002
:100FEF000E000000000000000000000000000000E4
:100FFF00FCEA0408000000000000000000000000F0
:10100F00000000000CEB04080D000000594B010814
:10101F00EC0600200400000018EB04080D0000008F
:10102F00F92C0108E00600200400000024EB04085E
:10103F000D0000001D4B0108D40600200000000029
:10104F0030EB0408030000000D430108C806002020
:10105F00080000003CEB04080300000061AA01082F
:10106F00F009002000000000B0EA040801000000B1
:10107F000000000000000000000000000000000061
:10108F000E00000000000000000000000000000043
:10109F0044EB040800000000000000000000000006
:1010AF00000000004CEB0408040000008D4C010808
:1010BF000000000000000000B0EA0408010000007A
:1010CF000000000000000000000000000000000011
:1010DF000E000000000000000000000000000000F3
:1010EF00A4EB040800000000000000000000000056
:1010FF0000000000380A05080D0000000000000085
:10110F004C07002004000000B4EB040808000000A6
:10111F00000000004007002004000000C0EB04089E
:10112F000800000000000000340700200400000049
:10113F00C8EB04080800000000000000280700208A
:10114F0004000000D0EB04080800000000000000BD
:10115F001C07002004000000D8EB04080800000062
:10116F00000000001007002004000000E0EB04085E
:10117F000800000000000000040700200400000029
:10118F00E8EB04080800000000000000F80600204B
:10119F0004000000B0EA0408010000000000000095
:1011AF000000000000000000000000000E00000022
:1011BF00000000000000000000000000B92C010832
:1011CF000000000058070020000000000000000091
:1011DF00D007002000000000000000007008002071
:1011EF009E6E002004000000E0A904089C6E002001
:1011FF00E0150C17000000009B6E00200800000097
:10120F00A8A104089A6E002005000000F4A90408A4
:10121F000000000000000000C00800202D202D2D30
:10122F00202D2D2D2D202D2D2D0000000000000034
:10123F000000000000000000000000000002000598
:10124F001002700B20700020702D72000100000042
:10125F0000000000000000007429002000010101BF
:10126F0000D60101FFFF0000FFFFFFFFFA000000A3
:10127F00010000000100000078E200200000F401EE
:10128F000100000076E200200000F40101000000E0
:10129F0074E200200000F4010100000072E200205F
:1012AF000000F4010100000070E200200000F401D2
:1012BF00010000006EE200200000F40101000000B8
:1012CF006CE200200000F401010000009CF0040813
:1012DF0000000000000000000000000000000000FF
:1012EF00B4F004080000000000000000000000003F
:1012FF0000000000D4F00408080000000000000007
:10130F00A00A002000000000E0F004080800000020
:10131F0000000000940A002000000000ECF0040818
:10132F000800000000000000880A002000000000F4
:10133F00BCFB040808000000000000007C0A00202D
:10134F0000000000F8F00408080000000000000092
:10135F00700A00200000000004F1040808000000DB
:10136F0000000000640A00200000000010F10408D3
:10137F000800000000000000580A002000000000D4
:10138F001CF104080200000051AC0108020000002B
:10139F0000000000B0EA0408010000000000000097
:1013AF000000000000000000000000000E00000020
:1013BF000000000000000000000000004D98010830
:1013CF000D980108AC0A00206AE2002005320100E6
:1013DF0068E20020E803D0070100000066E2002069
:1013EF00E803D0070100000064E20020E803D00703
:1013FF000100000062E200201E00B80B0100000097
:10140F0060E200201E00F401010000005EE20020F7
:10141F0014006400010000005CE200200000C8001E
:10142F000100000028F1040830F1040874F10408E9
:10143F00000000000000000000000000000000009D
:10144F00B4F00408000000000000000000000000DD
:10145F000000000088F104080800000000000000F0
:10146F00F80B00200000000090F1040808000000B5
:10147F0000000000EC0B002000000000A4F10408A5
:10148F000800000000000000E00B0020000000003A
:10149F00B8F104080800000000000000D40B002081
:1014AF0000000000CCF1040808000000000000005C
:1014BF00C80B002000000000DCF104080800000049
:1014CF0000000000BC0B002000000000ECF104083D
:1014DF000800000000000000B00B0020000000001A
:1014EF00FCF104080700000000000000A80B00201A
:1014FF00000000000CF204080300000061AA0108BC
:10150F009C0B0020000000001CF1040802000000EA
:10151F0051AC01080200000000000000B0EA04080E
:10152F0001000000000000000000000000000000AB
:10153F00000000000E00000000000000000000008E
:10154F000000000044EB0408000000000000000051
:10155F0000000000000000006FF00408040000000D
:10156F00294C01080000000000000000B0EA040848
:10157F00010000000000000000000000000000005B
:10158F00000000000E00000000000000000000003E
:10159F00000000009AD500200100C40900000000DF
:1015AF0098D500200100C4090000000096D5002046
:1015BF000100C4090000000094D500200100C409F7
:1015CF000000000090D500200100C40900000000B9
:1015DF0092D500200100C409000000008ED5002024
:1015EF000100C409000000008CD500200100C409CF
:1015FF00000000006ADF00200000FFFF0A0000006B
:10160F0068DF00200100C8000100000066DF002035
:10161F00320030753200000065DF0020055A0500EA
:10162F0062DF002000FF010064DF002001000000E6
:10163F00040C002060DF00200200000048B2040804
:10164F0061DF002000FF010063DF002001000000C8
:10165F00040C00205FDF00200200000048B20408E5
:10166F005ADF002080C1803E0500000058DF0020B7
:10167F0080C1803E0500000056DF002080C1803E03
:10168F000500000054DF002080C1803E05000000EF
:10169F0053DF002000FF010052DF00200A3201005B
:1016AF0051DF00200400000054B2040850DF002076
:1016BF000200000068B20408C99701088597010865
:1016CF000C0C00207EE20020EE02CA080100000090
:1016DF007CE2002000C80100640000007BE20020D3
:1016EF0000C80100640000007AE200200200000040
:1016FF0074B204080000000000000000240D002058
:10170F00606E00209CFF2C0100000000FA030020F7
:10171F000A00000080B2040828D50020E0150C173D
:10172F0000000000FC03002008000000A8A104082E
:10173F00FB03002005000000F4A904082AD50020AF
:10174F000200000098B2040890E200200100FF7F21
:10175F000100000089E2002002000000A4B204088A
:10176F004EE100200000F401010000004CE10020D8
:10177F000000F401010000004AE100200000F40124
:10178F000100000048E100200000F401010000000A
:10179F005EE100200100803E050000005AE10020BC
:1017AF000000803E6400000058E100200000803EF1
:1017BF006400000056E100200000803E640000003D
:1017CF005CE10020030000020100000054E1002052
:1017DF00C800E8030100000052E100201E00E803EA
:1017EF000100000050E100200000E80301000000AC
:1017FF0046E100200000803E0100000044E100208F
:10180F000000803E0100000042E100200000803E09
:10181F000100000040E100200000803E01000000B8
:10182F003EE100200000803E010000003CE100206E
:10183F000000803E010000008FE1002019640100CC
:10184F0093E100200064010092E100200064010098
:10185F0091E100200A32010090E100200300000016
:10186F00B4B204088CE10020E803D0070A0000009E
:10187F008AE1002000FA01000A00000089E100203F
:10188F0000FA01000A00000088E1002000FA0100C0
:10189F000A00000077E100200064010076E10020DB
:1018AF00006401007EE10020006401000A000000D6
:1018BF007DE10020006401000A0000007CE10020AF
:1018CF00006401000A00000081E1002000640100B3
:1018DF000A00000080E10020006401000A000000FF
:1018EF007FE10020006401000A0000007BE100207E
:1018FF0000FF01000A0000007AE1002000FF010054
:10190F000A00000079E1002000FF01000A0000003A
:10191F0087E10020005F01000A00000086E100203F
:10192F00005F01000A00000085E10020005F010058
:10193F000A00000084E10020005F01000A0000009F
:10194F0083E1002019AF01000A00000082E10020AE
:10195F0019AF01000A000000C8DF0020000A0100D3
:10196F00C7DF0020000A0100C6DF0020000A0100C7
:10197F00D8DF002000FA0100D7DF002000FA0100B5
:10198F00D6DF002000FA0100D4DF00200000F401B0
:10199F0001000000D2DF00200000F4010100000070
:1019AF00D0DF00200000F40101000000CEDF002096
:1019BF000000F40101000000CCDF00200000F40162
:1019CF0001000000CADF00200000F4010100000048
:1019DF0074E10020FF08010073E1002001640100A1
:1019EF0072E100200064010071E10020010000009D
:1019FF00C4B2040870E1002000C801006EE10020AD
:101A0F000000D007010000006DE1002000C80100B8
:101A1F006CE1002000C801006BE1002000C801004C
:101A2F006AE1002000C8010069E1002000FA01000E
:101A3F000A00000066E1002000FA01000A00000021
:101A4F0063E1002000FA01000A00000068E10020B5
:101A5F0000FA01000A00000065E1002000FA010011
:101A6F000A00000062E1002000FA01000A000000F5
:101A7F0067E1002000FA01000A00000064E1002085
:101A8F0000FA01000A00000061E1002000FA0100E5
:101A9F000A0000004AE20020010A010052E2002081
:101AAF0000FA010050E200200000E80305000000EA
:101ABF005BE2002000C801005AE2002000C80100CC
:101ACF0059E2002000C8010058E2002000C80100C0
:101ADF0057E2002000C8010056E2002000C80100B4
:101AEF0055E2002000C8010054E2002000C80100A8
:101AFF0053E2002000C801004EE2002000FA01006E
:101B0F004CE200200000E8030500000049E200203D
:101B1F000064010070F204080000000000000000E3
:101B2F000000000000000000F8FA0408090000009F
:101B3F0000000000C80D00200400000010FB040886
:101B4F000900000000000000BC0D00200400000090
:101B5F0008FD04080900000000000000B00D00207F
:101B6F0004000000D4440508090000000000000034
:101B7F00A40D00200400000080F2040809000000FA
:101B8F0000000000980D00200400000088F20408F7
:101B9F0009000000000000008C0D00200400000070
:101BAF0090F204080900000000000000800D0020E2
:101BBF000400000098F20408090000000000000073
:101BCF00740D002004000000B0EA040801000000BA
:101BDF0000000000000000000000000000000000F6
:101BEF000E000000000000000000000000000000D8
:101BFF00BCF404080000000000000000000000001A
:101C0F0000000000BCFE04080700000000000000F8
:101C1F00F80D002000000000CCF4040808000000BC
:101C2F0000000000EC0D002000000000D8F40408B4
:101C3F000800000000000000E00D00200000000080
:101C4F00E0F404080800000000000000D40D00209C
:101C5F00000000001CF104080200000051AC010854
:101C6F000100000000000000B0EA040801000000BD
:101C7F000000000000000000000000000000000055
:101C8F000E00000000000000000000000000000037
:101C9F00F0F4040800000000000000000000000045
:101CAF000000000000F504080D0000000000000017
:101CBF00340E00200000000008F504080D0000009D
:101CCF0000000000280E00200000000010F504089E
:101CDF000700000000000000200E002000000000A0
:101CEF0018F504080D00000000000000140E00207D
:101CFF000000000020F504080D00000000000000A7
:101D0F00080E00200000000028F50408070000005E
:101D1F0000000000000E0020000000001CF104086D
:101D2F000200000051AC010801000000000000009B
:101D3F00B0EA0408010000000000000000000000ED
:101D4F0000000000000000000E0000000000000076
:101D5F00000000000000000030F504080000000043
:101D6F00000000000000000000000000BCFE04089E
:101D7F000C000000000000006CDF002000000000DD
:101D8F0044F504080C000000000000006EDF002086
:101D9F000000000054F504080C00000000000000D3
:101DAF00A4DF00200000000064F504080C00000010
:101DBF000000000098DF00200000000078F5040804
:101DCF000C0000000000000070DF00200000000089
:101DDF0084F504080C0000000000000072DF0020F2
:101DEF00000000008CF504080C000000000000004B
:101DFF0074DF002000000000A0F504080C000000B4
:101E0F000000000076DF002000000000A8F50408A5
:101E1F000C0000000000000078DF00200000000030
:101E2F00B0F504080C00000000000000B6DF002031
:101E3F0000000000C8F504080C00000000000000BE
:101E4F007ADF002000000000D4F504080C00000029
:101E5F00000000007CDF00200000000070F7040885
:101E6F000C000000000000007EDF002000000000DA
:101E7F00DCF504080C0000000000000080DF0020EB
:101E8F0000000000E8F504080C000000000000004E
:101E9F0082DF002000000000F4F504080C000000B1
:101EAF000000000084DF00200000000000F604089E
:101EBF000C0000000000000086DF00200000000082
:101ECF000CF604080C0000000000000088DF002062
:101EDF000000000018F604080C00000000000000CD
:101EEF009CDF00200000000020F604080C0000001A
:101EFF00000000009ADF00200000000028F6040810
:101F0F000C00000000000000A8DF0020000000000F
:101F1F0034F604080C00000000000000AADF0020C7
:101F2F000000000040F604080C0000000000000054
:101F3F00B0DF002000000000B0ED04080C0000002E
:101F4F00000000008ADF00200000000000EC040801
:101F5F000C0000000000000092DF002000000000D5
:101F6F004CF604080C000000000000008CDF00207D
:101F7F000000000058F604080C00000000000000EC
:101F8F008EDF00200000000064F604080C00000043
:101F9F000000000090DF0020000000006CF6040835
:101FAF000C0000000000000094DF00200000000083
:101FBF0078F604080C000000000000009EDF0020EF
:101FCF000000000080F604080C0000000000000074
:101FDF0096DF0020000000008CF604080C000000C3
:101FEF0000000000A6DF00200000000098F60408A3
:101FFF000C00000000000000A0DF00200000000027
:10200F00A0F604080C00000000000000A2DF002072
:10201F0000000000A8F604080C00000000000000FB
:10202F00ACDF002000000000B0F604080C00000038
:10203F0000000000AEDF002000000000B8F604082A
:10204F000C00000000000000BEDF002000000000B8
:10205F00B0EA0408010000000000000000000000CA
:10206F0000000000000000000E0000000000000053
:10207F000000000000000000C0F60408000000008F
:10208F00000000000000000000000000CCF6040873
:10209F000D000000000000008C0E0020000000006A
:1020AF00D4F604080D00000000000000800E002090
:1020BF0000000000DCF6040807000000000000002C
:1020CF00780E002000000000E8F60408070000006A
:1020DF0000000000700E002000000000F4F604085D
:1020EF000900000000000000640E00200000000046
:1020FF0000F704080900000000000000580E00203F
:10210F00000000000CF704080900000000000000A8
:10211F004C0E0020000000001CF70408090000000E
:10212F0000000000400E0020000000001CF1040819
:10213F000200000051AC0108010000000000000087
:10214F00B0EA0408010000000000000000000000D9
:10215F0000000000000000000E0000000000000062
:10216F00000000000000000030F70408000000002D
:10217F00000000000000000000000000B4F00408A0
:10218F000000000000000000000000000000000040
:10219F0040F704080D00000000000000C80E0020EA
:1021AF00000000004CF704080B00000000000000C6
:1021BF00BC0E00200000000058F704080B000000C0
:1021CF0000000000B00E00200000000068F70408B7
:1021DF000800000000000000A40E00200000000016
:1021EF007CF704080300000061AA0108980E002084
:1021FF00000000001CF104080200000051AC0108AF
:10220F000200000000000000B0EA04080100000016
:10221F0000000000000000000000000000000000AF
:10222F000E00000000000000000000000000000091
:10223F0088F7040800000000000000000000000004
:10224F000000000098F704080500000000000000DF
:10225F00C5DF0020000000001CF104080200000090
:10226F0051AC01080100000000000000B0EA0408B2
:10227F00010000000000000000000000000000004E
:10228F00000000000E000000000000000000000031
:10229F0000000000A0F7040800000000000000008C
:1022AF000000000000000000F0160508000000000C
:1022BF0000000000B003002004000000ACF7040889
:1022CF000D000000DF4A01081C0F00200000000075
:1022DF009CEB04080D000000212C0108100F0020BA
:1022EF0000000000E0F504080D000000052C0108B7
:1022FF00040F00200000000010EC0408080000008C
:10230F0000000000F80E00200400000000EC04089C
:10231F000D0000004D2B0108EC0E00200000000006
:10232F00B0F704080900000000000000E00E0020D4
:10233F000400000008F704080300000061AA010868
:10234F00D40E002000000000B0EA040801000000D5
:10235F00000000000000000000000000000000006E
:10236F000E00000000000000000000000000000050
:10237F00B8F7040800000000000000000000000093
:10238F0000000000C8F704080D0000000000000066
:10239F00340F002000000000D0F704080A000000EE
:1023AF000000000098E5002000000000DCF70408A2
:1023BF000A00000000000000A0E50020000000005F
:1023CF00E4F704080A00000000000000A8E5002060
:1023DF0000000000ECF704080800000000000000F7
:1023EF00280F002000000000F4F70408040000008C
:1023FF0095AB010800000000000000001CF104086C
:10240F000200000051AC01080100000000000000B4
:10241F00B0EA040801000000000000000000000006
:10242F0000000000000000000E000000000000008F
:10243F00000000000000000000F804080000000089
:10244F0000000000000000000000000014F8040865
:10245F0008000000000000000C1000200000000029
:10246F0024F80408080000000000000000100020FD
:10247F000000000034F8040808000000000000000D
:10248F00F40F00200000000044F8040808000000CA
:10249F0000000000E80F00200000000054F80408BE
:1024AF000800000000000000DC0F0020000000000A
:1024BF0064F804080800000000000000D00F00209E
:1024CF000000000074F8040808000000000000007D
:1024DF00C40F00200000000080F80408080000006E
:1024EF0000000000B80F00200000000090F8040862
:1024FF000800000000000000AC0F002000000000EA
:10250F00A0F804080800000000000000A00F002041
:10251F0000000000A8F804080800000000000000F8
:10252F00940F002000000000B0F80408080000001D
:10253F0000000000880F002000000000B8F8040819
:10254F0008000000000000007C0F002000000000C9
:10255F00C0F804080800000000000000700F002001
:10256F0000000000D0F80408080000000000000080
:10257F00640F002000000000DCF8040808000000D1
:10258F0000000000580F002000000000E8F80408C9
:10259F0008000000000000004C0F002000000000A9
:1025AF00F4F804080800000000000000400F0020AD
:1025BF00000000001CF104080200000051AC0108EB
:1025CF000100000000000000B0EA04080100000054
:1025DF0000000000000000000000000000000000EC
:1025EF000E000000000000000000000000000000CE
:1025FF0000F904080000000000000000270A002076
:10260F00000000000CF904080B000000000000009F
:10261F002C110020000000001CF904080B00000022
:10262F0000000000201100200000000028F904081D
:10263F000B0000000000000014110020000000003B
:10264F0038F904080B0000000000000008110020FA
:10265F000000000044F904080B0000000000000017
:10266F00FC1000200000000058F904080B000000C7
:10267F0000000000F01000200000000068F90408BE
:10268F000B00000000000000E4100020000000001C
:10269F0074F904080B00000000000000D81000209F
:1026AF000000000080F904080B000000000000008B
:1026BF00CC100020000000008CF904080B00000073
:1026CF0000000000C01000200000000098F904086E
:1026DF000B00000000000000B410002000000000FC
:1026EF00A4F904080B00000000000000A81000204F
:1026FF0000000000B0F904080B000000000000000B
:10270F009C10002000000000BCF904080B00000022
:10271F00000000009010002000000000C8F904081D
:10272F000B000000000000008410002000000000DB
:10273F00D4F9040807000000000000007C100020FE
:10274F0000000000DCF90408070000000000000092
:10275F007410002000000000E8F904080B000000CE
:10276F00000000006810002000000000F4F90408C9
:10277F000B000000000000005C10002000000000B3
:10278F0000FA04080B0000000000000050100020A9
:10279F00000000000CFA0408080000000000000010
:1027AF0044100020000000001CFA04080D00000077
:1027BF000000000038100020000000002CFA040870
:1027CF000700000000000000301000200000000093
:1027DF003CFA040807000000000000002810002049
:1027EF00000000004CFA0408070000000000000081
:1027FF0020100020000000005CFA04080700000011
:10280F000000000018100020000000001CF1040858
:10281F000200000051AC01080100000000000000A0
:10282F00B0EA0408010000000000000000000000F2
:10283F0000000000000000000E000000000000007B
:10284F00000000000000000070FA04080000000003
:10285F0000000000000000000000000084FA0408DF
:10286F000800000000000000A4110020000000007C
:10287F0094FA0408080000000000000098110020DE
:10288F0000000000A4FA0408080000000000000087
:10289F008C11002000000000B4FA040808000000AA
:1028AF00000000008011002000000000C4FA04089E
:1028BF00080000000000000074110020000000005C
:1028CF00D8FA04080800000000000000681100207A
:1028DF0000000000E8FA04080700000000000000F4
:1028EF00601100200000000000FB0408070000003A
:1028FF0000000000581100200000000018FB040821
:10290F000700000000000000501100200000000030
:10291F002CFB0408070000000000000048110020F5
:10292F00000000003CFB040807000000000000004E
:10293F00401100200000000050FB040807000000B9
:10294F000000000038110020000000001CF10408F6
:10295F000200000051AC010801000000000000005F
:10296F00B0EA0408010000000000000000000000B1
:10297F0000000000000000000E000000000000003A
:10298F00000000000000000060FB040800000000D1
:10299F0000000000240A00200000000070FB040863
:1029AF000B00000000000000681200200000000073
:1029BF007CFB04080B000000000000005C120020EC
:1029CF000000000088FB04080B000000000000005E
:1029DF00501200200000000094FB04080B000000C0
:1029EF00000000004412002000000000A0FB0408BB
:1029FF000B00000000000000381200200000000053
:102A0F00ACFB04080B000000000000002C1200209B
:102A1F0000000000B8FB04080B00000000000000DD
:102A2F002012002000000000C4FB04080B0000006F
:102A3F00000000001412002000000000D0FB04086A
:102A4F000B00000000000000081200200000000032
:102A5F00DCFB04080700000000000000001200204B
:102A6F0000000000E8FB0408070000000000000061
:102A7F00F811002000000000F4FB0408070000001C
:102A8F0000000000F01100200000000004FC04080A
:102A9F000700000000000000E81100200000000007
:102AAF0014FC04080800000000000000DC110020E6
:102ABF00000000001CFC04080700000000000000DC
:102ACF00D41100200000000028FC04080D000000B5
:102ADF0000000000C81100200000000038FC0408AE
:102AEF000700000000000000C011002000000000DF
:102AFF0044FC04080700000000000000B81100208B
:102B0F000000000054FC0408060000000000000054
:102B1F00B0110020000000001CF1040802000000AA
:102B2F0051AC01080100000000000000B0EA0408E9
:102B3F000100000000000000000000000000000085
:102B4F00000000000E000000000000000000000068
:102B5F000000000064FC04080000000000000000FA
:102B6F00240A0020000000007CFC0408070000007D
:102B7F0000000000EC1200200000000088FC040898
:102B8F000800000000000000E0120020000000001C
:102B9F0094FC04080700000000000000D812002079
:102BAF0000000000A0FC0408070000000000000067
:102BBF00D012002000000000A8FC0408070000004D
:102BCF0000000000C812002000000000B0FC040844
:102BDF000700000000000000C012002000000000ED
:102BEF0098FB04080700000000000000B812002046
:102BFF0000000000A4FB0408070000000000000014
:102C0F00B012002000000000B0FB04080700000015
:102C1F0000000000A812002000000000B8FC04080B
:102C2F000700000000000000A012002000000000BC
:102C3F00C0FC0408070000000000000098120020EC
:102C4F0000000000C8FC040807000000000000009E
:102C5F009012002000000000D0FC040808000000C3
:102C6F00000000008412002000000000E0FC0408B7
:102C7F0007000000000000007C1200200000000090
:102C8F00F0FC040807000000000000007412002090
:102C9F00000000001CF104080200000051AC010804
:102CAF000100000000000000B0EA0408010000006D
:102CBF000000000000000000000000000000000005
:102CCF000E000000000000000000000000000000E7
:102CDF000000000099930108F4120020C3DF0020C8
:102CEF002C000000CCB20408C2DF002000C8010095
:102CFF00C0DF0020E803D007010000004B4957490F
:102D0F00463400005EDF0020000301005DDF00207D
:102D1F0000030100E1920108B9920108D0130020CD
:102D2F00819201084192010870140020219301083B
:102D3F000993010838150020C591010881910108F8
:102D4F0058180020BD9801088D98010848190020D7
:102D5F00AD930108F1A70108101A00208D2B01086F
:102D6F0000000000741A002075AB010821990108BA
:102D7F00501B00202D950108B1940108181C00204C
:102D8F0065960108AD960108D01D002075E1002061
:102D9F00010601003D940108D59301082820002069
:102DAF00A995010821A8010868210020E1960108D2
:102DBF00E1A801083423002060E100200103010095
:102DCF00F8FC0408000000000000000000000000F4
:102DDF000000000004FD04080800000000000000CF
:102DEF00D0240020000000000CFD040807000000A4
:102DFF0000000000C8240020000000001CFD040893
:102E0F000D00000000000000BC24002000000000A6
:102E1F0028FD04080300000061AA0108B024002067
:102E2F00000000001CF104080200000051AC010872
:102E3F000100000000000000B0EA040801000000DB
:102E4F000000000000000000000000000000000073
:102E5F000E00000000000000000000000000000055
:102E6F0030FD04080000000000000000000000001A
:102E7F000000000040FD04080A00000000000000F0
:102E8F0040E904080000000048FD04080A000000A3
:102E9F000000000050FD04080000000058FD040869
:102EAF000A0000000000000080E200200000000087
:102EBF0060FD04080A00000000000000DC24002070
:102ECF0000000000B0EA040801000000000000004C
:102EDF000000000000000000000000000E000000D5
:102EEF0000000000000000000000000068FD040862
:102EFF0000000000000000000000000000000000C3
:102F0F0074FD04080300000061AA01080C250020CD
:102F1F000000000080FD04080300000061AA010802
:102F2F00002500200000000088FD040803000000B9
:102F3F0061AA0108F42400200000000090FD04089D
:102F4F0005000000000000005CDF00200000000012
:102F5F0098FD04080700000000000000EC2400208A
:102F6F0000000000A4FD040807000000000000009E
:102F7F00E4240020000000001CF1040802000000FF
:102F8F0051AC01080100000000000000B0EA040885
:102F9F000100000000000000000000000000000021
:102FAF00000000000E000000000000000000000004
:102FBF0000000000B0FD0408000000000000000049
:102FCF000000000000000000C4FD04080300000022
:102FDF0061AA01084825002000000000D0FD040868
:102FEF000300000061AA0108000400200000000097
:102FFF00D8FD04080300000061AA01083C25002049
:10300F0000000000E0FD04080300000061AA0108B1
:10301F003025002000000000ECFD04080300000034
:10302F0061AA0108242500200000000000EC04081C
:10303F000300000061AA010818250020000000000D
:10304F001CF104080200000051AC0108010000004F
:10305F0000000000B0EA04080100000000000000BA
:10306F000000000000000000000000000E00000043
:10307F00000000000000000000000000F8FD040840
:10308F000000000000000000000000000000000031
:10309F0008FE04080700000069A901089825002010
:1030AF000000000068F604080300000061AA010890
:1030BF008C2500200000000014FE0408030000000F
:1030CF0061AA010880250020000000001CFE0408F2
:1030DF000300000061AA0108742500200000000011
:1030EF0024FE0408070000004DA901086C250020EC
:1030FF0000000000F44405080300000061AA010865
:10310F00602500200000000030FE040803000000CE
:10311F0061AA010854250020000000001CF10408DA
:10312F000200000051AC0108010000000000000087
:10313F00B0EA0408010000000000000000000000D9
:10314F0000000000000000000E0000000000000062
:10315F000000000000000000699301083993010886
:10316F00A0250020ED980108000000004026002057
:10317F002592010809920108CC26002000000000CA
:10318F0000000000942700205D97010885A9010821
:10319F005C2800203CFE0408000000000000000036
:1031AF00000000000000000048FE040803000000BB
:1031BF0061AA0108682900200000000050FE0408E1
:1031CF000300000061AA01085C2900200000000034
:1031DF00D4ED04080300000061AA01085029002063
:1031EF00000000005CFE04080300000061AA010853
:1031FF00442900200000000068FE040803000000BE
:10320F0061AA0108382900200000000070FE0408A0
:10321F000200000051AC0108000000000000000097
:10322F001CF104080200000051AC0108010000006D
:10323F000000000078FE04080200000051AC0108F5
:10324F000200000000000000000000000E0000005F
:10325F000000000000000000000000000000803FA0
:10326F000000000000000000000000000000803F90
:10327F000000000000000000000000000000803F80
:10328F00000000000000000000000000FFFFFFFF33
:10329F000000803FFFFFFFFFFF0000000000000065
:1032AF00D8FE00200800000000000000C8FE00202B
:1032BF000800000078D4040805080400000000008E
:1032CF00F4A90408A8A10408E0A90408000000005C
:1032DF0000000000A4D4040805080A000000000044
:1032EF00F4A90408A8A1040880B204080000000093
:1032FF0000000000010102FFFF000000ED8E00083A
:10330F00DD890008D5EF000800000000458800089F
:10331F0071EC0008A18E0008E5EB0008000000002A
:10332F0000000000018800089587000889870008C1
:10333F0029E3000845E300080DE30008D5E2000883
:10334F00F1E20008A58E0008B989000821EF0008F6
:10335F000000000019880008E9EB0008758E0008CE
:10336F0041EB000800000000000000000D8800087D
:10337F001A03000000000000000000000000000021
:10338F00000000000000000000000000040309041A
:10339F0012010002000000408304205700020102C6
:1033AF0003010000CD1C040865CB030861CB0308A3
:1033BF005DCB030889F0030859CB030855CB0308ED
:1033CF0010DF0408798F0008998900083DED000887
:1033DF00000000000000000035EA00085DEA000868
:1033EF00000000000000000000000000F58700084A
:1033FF00FDCB0308F1CB030895D20308B1D2030824
:10340F00A9CB030879D203085DD20308010100009C
:10341F00500100000700000002000000FF00000044
:10342F00042C00200000000000000000000000003D
:10343F00000000000000000000000000000000007D
:10344F00000000000000000000000000000000006D
:10345F00000000000000000000000000000000005D
:10346F00000000000000000000000000000000004D
:10347F00000000000000000000000000000000003D
:04348F000000000039
:108000002DE9F04F2DED108B034697B004331593F7
:10801000DFEDCACA149002238A4613928B4612934C
:10802000149C4FEADB0604EB461202EB061031010A
:10803000A6EB86034FEAC60806EB4605CDE900012C
:1080400000EBC303043108F10400119620442144DD
:108050002C01C6EBC60C0394EC00119D04944FEA6E
:10806000CC0405946C0106EB860E0294159D009CD1
:1080700003EB46174FEACE0E02EBC6064FEACB09DA
:108080004FF0000C51ED01AAD3ED001A92ED007AE9
:1080900094ED005A96ED004AD7ED007A15ED012ACD
:1080A00050ED016A32EE07BA76EE840A7AEE855A0E
:1080B00031EEA70A3BEE256A70EE804A76EEC46A7E
:1080C00036EE244A36EE646A05ED014A82ED006A16
:1080D000D0ED00BAD6ED012AD3ED019A95ED00AAB4
:1080E00092ED016A97ED013A91ED00CAD4ED014A93
:1080F0007BEEE23A36EEE19A32EE472A73EEE98AF7
:108100003AEE464A39EE279A78EE838AB0EE428AF2
:10811000A9EE6C8ADC44E24573EEC33AB0EE441A31
:10812000A8EEEC1A76EEE77A33EEA97A7CEE643AA2
:1081300077EEA17A3AEE066A7AEEC51A3CEE24AAE8
:1081400074EECC4A39EE833A35EE6A5AF0EE639A11
:10815000F0EE48AAE7EE2C9AA8EEAC4AE7EE2C4ADD
:10816000E7EE6CAAF0EE418AB0EE427AB0EE612AF8
:108170007BEE656A7BEEA22A76EE4A5AA9EE2C7A4D
:10818000A7EEAC2AA7EEAC5AE7EEEC8A32EE83BA41
:1081900076EEC3BA35EEE09A75EEC07A36EE0A6A2C
:1081A00076EEE26A36EE0BAA76EE836A77EEA07A76
:1081B00034EE423A77EE290A36EE4B6A7BEEA22A7B
:1081C00039EE000A73EEAA3A78EE244A37EE697A5D
:1081D00031EE055A71EEA85A32EE044A85ED00AA36
:1081E00082ED016A4D4441ED012A4A44C4ED006A22
:1081F00081ED000AC4ED017A494440ED010A4C4486
:1082000087ED007AC6ED003AC3ED004A80ED003AF2
:1082100087ED014A484486ED015A4F44C3ED015AA7
:108220004E444B443FF62EAF119B072B40F2C781C3
:10823000029D149E019B03980499059A08357519AF
:108240000C330E95354608F108080EF10804EB18BA
:1082500008300831083246442C1928186918AA1821
:10826000079305F10C030D960C940B900A9109925B
:1082700008934FF001084FF0000E129B9E44139B91
:1082800003EBCE0303EBCE02109302EBCE0303EB22
:10829000CE01029101EBCE0101EBCE0505EBCE063E
:1082A000D6ED007A0F93AEEB8E03019106EB03132C
:1082B00003EBCE07D3ED01AACDED067A019BD5EDF8
:1082C000007A97ED01BACDED057AD3ED007A029BE5
:1082D000CDED047AD3ED007A0F9BCDED037A07EB59
:1082E000CE0CD3ED007ADCED01BACDED027A0CEBC9
:1082F000CE01D2ED007A109A009101EBCE0001463A
:1083000091ED01DACDED017A0099D2ED007A91ED8F
:1083100001CA00EBCE0000EBCE0494ED01EAD0EDF3
:1083200001DACDED007ADDE90776DDE90954DDE912
:108330000B01DDE90D23C44602E000BFF304353F25
:1083400094ED009A90ED00FA91ED006AD5ED007A77
:10835000D3ED006A57ED014A92ED005A56ED013A0D
:1083600096ED00AA35EE060A73EEA65A39EE278A74
:1083700034EE8F7A70EE082A75EE87EA35EE465AAB
:108380003EEEA26A73EEE63A06ED016AD1ED019A7D
:10839000D2ED01FAD4ED016AD3ED011A95ED013A5F
:1083A000D0ED018A97ED004A3FEEE96A35EE491AB1
:1083B00076EE660A31EE271A3AEE612A75EE677A92
:1083C00070EE830A3FEEA95A74EECF9A77EE897A5F
:1083D0007AEE211AB0EE42AA74EE68FAA0EEECAA88
:1083E000DC44E24535EEC77AB0EE639A74EE285A63
:1083F00038EEC44AF0EE698AA1EE6C9AE7EEAC8AD8
:1084000036EE436A7FEE644A36EE266AA0EEAC2A68
:10841000F0EE4A0AE7EEEC0AE7EEAC4AF0EE687AD4
:10842000F0EE498A36EE833AE6EE6C8AE1EE2C3ABB
:10843000B0EE6F1AA6EE2C1A71EEE56AA6EE2C4A83
:1084400071EEA55A75EE031A7EEEE22A37EE43FA74
:1084500075EEE1EAB0EE686A76EEC08A39EE044A5B
:108460007FEE86FA76EEC86A33EE816A38EE888A45
:1084700073EEC13A37EE457A2CEE2E1A3FEE055ACE
:1084800022EECC9A9DED03FA70EE266A33EE077A5F
:10849000AFEE221AAFEE2E9A7AEE244A9DED01FA43
:1084A00079EEA09A25EE4BAA72EE670A37EE822A81
:1084B0006BEE087AAFEE08AAEFEE057A2DEEA63A3B
:1084C0009DED05FA67EE6D8AAFEE073AEFEE268A6C
:1084D00066EE6A2A9DED00FA2AEEA00AEFEE202A47
:1084E0006EEE02EADDED060A23EECE5AE0EEA3EAD6
:1084F0002BEEA98ADDED023AAFEE060AA3EE848ADE
:1085000024EE6B7A6DEE246A9DED044A2FEECD6A5F
:10851000A0EE825AA3EEA97AE4EE2F6AA4EE246AB2
:1085200075EEA15AC6ED005A83ED001A83ED019A4B
:108530004E4447ED017A87ED00AA4B4480ED003AA6
:10854000C0ED018A4F4482ED000A4844C2ED012A81
:10855000C5ED00EA85ED015A4A44C1ED006A81ED9E
:10856000016A4D4484ED008A84ED017A49444C440B
:108570003FF6E6AE0E9B08330E930D9B08330D932A
:108580000C9B08330C930B9B08330B930A9B08330B
:108590000A93099B08330993089B08330893079BA8
:1085A00008330793119B08F1010843457FF465AE3A
:1085B000129BDDF844B0DB009BB2129330E517B09C
:1085C000BDEC108BBDE8F08F074AD2E9003199422B
:1085D0001FBFD1180133097A01701DBFC3F30A030D
:1085E0000120136000207047682C0020064AD2F852
:1085F0000838D2F80C28934294BF4FF40060002052
:10860000013B9B1A18447047682C0020012380F816
:108610004D30704707B501A8FFF7D6FF0028FAD004
:108620009DF8040003B05DF804FB044BD3E900039C
:10863000984288BF03F50063181A7047682C002021
:1086400001207047024BC3F81028C3F81418704774
:10865000682C0020024BC3F81828C3F81C18704778
:10866000682C00207047704730B4124DD5E90023C4
:108670009A4286BF03F50064A21A9A1A0A44B2F518
:10868000006F11D899B101444A1E013810F8014F0A
:10869000E918824203F101030C72C3F30A03F5D116
:1086A0006B60002030BC7047022030BC7047084629
:1086B000F8E700BF682C0020212838B50C4605D00B
:1086C00022282ED0202813D0002038BD0029FBD02E
:1086D000072AF9D11A4BD3F8200893F8241893F8F5
:1086E000252893F82638206021716271A371EBE789
:1086F0000029E9D0072AE7D1114DD5F814381BB16C
:108700000968D5F810089847206821796279A3791B
:10871000C5F8200885F8241885F8252885F8263816
:10872000D2E70029D0D0022ACED1054AD2F81C388F
:10873000002BC9D00988D2F818089847C4E700BFB1
:10874000682C0020024B0020C3F82808704700BFA7
:10875000682C0020044B00200522C3F82828C3F809
:108760001C08C3F814087047682C0020704700BF2D
:10877000704700BF704700BF704700BF704700BF21
:10878000704700BF704700BF042301480B8070474B
:108790000000002010B4074A074B92F82C0812245E
:1087A00003F114020C8001280CBF184610465DF836
:1087B000044B7047682C00200400002010B40C4AC1
:1087C00092F82F3802EBC3010133DBB2042B4FF0D8
:1087D000050408BF00234FF4045081F8304882F8A4
:1087E0002F38C1F834085DF8044B4FF0FF30704764
:1087F000682C0020202301480B8070472C000020AB
:10880000642301480B8070474C000020432301483B
:108810000B807047B000002010B5084CD4F8F4006D
:10882000FF2809D00649D1F8502801F65401FFF776
:1088300043FFFF23C4F8F430002010BD00000020E7
:10884000682C0020E8E700BF08B5D0F8E4355B6A83
:108850009847002008BD00BF08B5D0F8E4351B6A72
:108860009847002008BD00BFD0F8E43510B5044695
:108870001B689847D4F8E8359B689847002010BDDE
:1088800008B5D0F8E435DB6903B19847002008BD8E
:1088900008B5042290F81211D0F8E83580F81311C9
:1088A00080F81221DB689847002008BD10B5D0F889
:1088B000E83504461B699847032384F812310020E9
:1088C00010BD00BF0B0617D401EB810300EBC303FF
:1088D00010B400EB81000124002283F8764383F872
:1088E000741383F87523426D5DF8044B136843F4E9
:1088F000001300201360704701F07F0101EB81033A
:1089000000EBC303012200EB810083F81C1183F804
:108910001E2183F81D2182691368002B01DA43F0C0
:10892000804343F400131360002070470B0630B4FB
:108930001CD401EB810200EBC202002300EB810595
:1089400082F8741382F8753301241A4604FA01F18F
:108950006D6D61F31F4201696FF3CF332B60CB69FB
:1089600023EA0203002030BCCB61704701F07F0195
:1089700001EB810400EBC404012200EB810500231C
:1089800084F81C1184F81D2102FA01F11A46AD6920
:1089900061F30F02DFE700BF10B581210446FFF746
:1089A000C5FF20460121FFF7C1FF024B002083F8DD
:1089B0005C0810BD682C002010B581210446FFF72B
:1089C000B5FF20460121FFF7B1FF82212046FFF7C6
:1089D000ADFFFFF7B7FE002010BD00BF38B50D4654
:1089E00004468321FFF7A2FF29462046FFF7E4FF54
:1089F000002038BDF0B416460A063AD401EB8105D2
:108A000000EBC5052824002204FB0104022B85F895
:108A10007413C5F87C6385F8773385F8752304F5FE
:108A20005D7448D0154600EB8107012202FA01F17E
:108A30007F6D61F31F45D7F800C01CF4004F11D1C2
:108A4000E488204946F0805242F4004242EA8342E0
:108A500004F00F041C4B42EA845211400CEA030359
:108A6000194339600269D3692B430020F0BCD361FC
:108A7000704701F07F0101EB810500EBC50528245B
:108A8000012204FB0104022B85F81C11C5F82461A6
:108A900085F81F31A5F8221185F81D2104F58E7483
:108AA0000CD0002500EB8107012202FA01F1BF6919
:108AB00061F30F05BFE722711546B4E70025257164
:108AC000F0E700BFFF87CC13007833EC002310B52C
:108AD000194604464022FFF78DFF802120460023DF
:108AE0004022FFF787FFD4F8E835A078012284F808
:108AF00012215B689847002010BD00BF82B00023A0
:108B0000016801930B6901930E4B03E00A6901921E
:108B1000013B13D0019A002AF8DA019A094B42F07E
:108B200001020192019A0A610A69019203E00A694D
:108B30000192013B02D0019AD207F8D4002002B082
:108B4000704700BF400D0300436D064A1A61C278AA
:108B5000012A06D100F2CC5058614FF080221968EA
:108B60001A6070471800086010B580210446FFF7AE
:108B7000A9FE20460021FFF7A5FE2046BDE81040D3
:108B8000E2E700BF70B44B78012B26D00B784A691E
:108B900000EB83035C6D25682369D2B18A684A6162
:108BA00002F07F0223F4002323F07F0342F400222B
:108BB00013432361C378012B04BF0B696361C5F3C1
:108BC000076363F07B0363F31F652560002070BCBF
:108BD00070478A6802F07F02E4E782694C69156891
:108BE000136944B38E68B4428CBF06F07F0404F06E
:108BF0007F0423F4002323F07F0344F4002443EA9A
:108C0000040388BF4E611361C378012B1DD0C5F3E7
:108C1000076464F07B0464F31F651560002BD5D1F5
:108C20004B69002BD2D002690878516B0123834035
:108C30000B435363CAE723F4002323F07F0343F479
:108C400000231361C378012BE1D10B780C6900EB91
:108C50008300C5F30763816963F07B0363F31F65DA
:108C60004C610020156070BC704700BF2DE9F043D7
:108C70004B78012B30D00B784C6900EB83035E6D91
:108C8000356837691CB38B681C44013CB4FBF3F4B2
:108C9000C4F3090203FB02F3C3F312034B6114464E
:108CA00043EAC44363F31C073761C378012B04BF55
:108CB0000B697361CB78012B44D0C5F3076363F074
:108CC0007B0363F31F6535600020BDE8F0838A688D
:108CD0000124C2F31203E3E791F800804E6900EB30
:108CE000880EDEF818C0DCF80050DCF8107076B39F
:108CF000D1F80890384A06EB0904013CB4FBF9F4BA
:108D000002EAC444C6F312022243CC7807F060475B
:108D10003A43012C174649D0CCF81020C278012ADA
:108D200055D00269516B03FA08F30B435363C5F343
:108D3000076363F07B0363F31F65CCF800500020EA
:108D4000BDE8F0834B7973B345F00055B5E707F004
:108D5000604747F40027CC78CCF81070C378012B1B
:108D60002FD0012CE3D102699268D20554BF45F09F
:108D7000005545F08055C5F3076262F07B0262F34F
:108D80001F65CCF80050002B9ED1B0B2033080108C
:108D9000DEF8D04098D0CA6852F8041B2160013335
:108DA0009842F9D190E745F0805586E764F35E7705
:108DB000CCF81070C378012BD5D10A69CCF81420F7
:108DC000D1E70A69CCF81420012CB0D1CBE70B69AC
:108DD000CCF81430ABE700BF0000F81F38B501EB4A
:108DE000810400EBC4040D46002184F87453C4F8D8
:108DF0008C1384F87513C4F88833C4F88023C378BF
:108E00002821012B01FB050108BFEDB201F55D71C1
:108E100008BFC4F884231DB9FFF7B4FE002038BD95
:108E2000FFF724FF002038BD70B5104BD3F8682839
:108E300093F8805804461AB193F86C382B430DD040
:108E400081212046FFF73EFD022D00D070BD204657
:108E5000074ABDE870401F230121BFE70121FFF74A
:108E600031FD20468121BDE870402BE5682C0020B3
:108E7000C834002010B501EB8101084A00EBC101A4
:108E80000446B1F88C131046FFF7EEFB034A204668
:108E900040230121FFF7A2FF002010BDEC34002089
:108EA000E8E700BF10B50223044640228121FFF706
:108EB000A1FD2046022340220121FFF79BFD8221D4
:108EC000204603230822FFF795FD064B02229A83D2
:108ED000FFF740FC044A204640230121FFF77EFFB4
:108EE000002010BD00000020EC34002038B508221E
:108EF0000D46044603238321FFF77CFD29462046C7
:108F0000FFF7D0FF002038BD82B000230193019A03
:108F1000094B42F010020192C168019A0A610A6984
:108F2000019203E00A690192013B02D0019AD20644
:108F3000F8D4002002B07047400D030082B0002337
:108F40000193019A0B4B42F020020192019A61F3C6
:108F50008A120192C168019A0A610A69019203E0CA
:108F60000A690192013B02D0019A9206F8D40020CE
:108F700002B07047400D030070B50446144EFFF771
:108F80000BFD2046022340228121FFF733FD4022C2
:108F9000012120460223FFF72DFDD6F8C438002515
:108FA0001B6886F85C58284686F880589847204603
:108FB000FFF7AAFF20460121FFF7C0FF204606F574
:108FC00006621F230121FFF709FF284670BD00BF7D
:108FD000682C00200E4BDA68D20310D4DA68D10670
:108FE0000FD4DA68D20510D4DA6812F0E00F0AD193
:108FF000DB6813F0020F14BF08200920704701201E
:10900000704706207047072070470220704700BF56
:10901000003C024030B1044B93F9C8080028D4BF8B
:1090200000200120704700BF682C002008B5FFF722
:10903000F1FF18B1024BD3F8CC380B8008BD00BF4C
:10904000682C002008B5FFF7E5FF18B1024B93F834
:10905000D0380B7008BD00BF682C002008B5FFF7A2
:10906000D9FF80B10B4BB3F8D23863B1192B0BD9B0
:10907000642B0BD9C82B0BD9B3F5C87F94BF03233E
:10908000042301330B7008BD0023FAE70123F8E73E
:109090000223F6E7682C002010B5FFF7BBFF48B1AC
:1090A000064B93F8D44834B993F8D5480C7093F82C
:1090B000D638137010BD0024F8E700BF682C0020DC
:1090C0000420704728B1034B93F9F800003818BF0B
:1090D000012070470000002008B5FFF7F3FF50B1F2
:1090E000054B93F9F820022A03BF93F8FB30C3F332
:1090F00040030B70002008BD0000002008B5FFF7FA
:10910000E1FF80B10C4A92F9FA3092F9F820012A75
:109110000ED1272B08DC182B08DC0F2BD4BF002323
:10912000012301330B7008BD0323FAE70223F8E79C
:109130000133DBB2F6E700BF0000002010B5FFF7F7
:10914000C1FFC0B10D4C94F8FB30DB0714D494F987
:10915000F930002BB8BF0733DB100133DBB20B70E3
:1091600094F9F930594201F0070103F0070358BFA1
:109170004B420133137010BD0023F0E700000020C4
:1091800003207047F0B5174AD2F8D85892F8D7386C
:1091900015F0005514BF042706275C1CB4FBF7F636
:1091A00007FB164692F8DC78BE420CD01EB2DB00FC
:1091B00055B102F50E652B4404F0030445F8360062
:1091C00082F8D7485960F0BD02F510652B4445F888
:1091D000360059600621B4FBF1F301FB134482F819
:1091E000D748F0E7682C0020002230B5044610462E
:1091F000914200DC30BDA35C0825584010F0800F80
:109200004FEA400318BF83F0D503013DD8B2F5D132
:109210000132EDE710B5E9B10F4C94F9F820CAB16D
:109220004B1EDBB2032B15D8012A0C4A0C484FEA1F
:10923000C30313444FF005010CBF1B799B7984F8DD
:109240000431FFF7D1FF062184F80501BDE8104085
:10925000034897E710BD00BF00000020EC9C040805
:1092600000010020F8B58368054613B118689B8893
:1092700043836C68171DA3894FF6FF764FF47A730A
:109280000FE083B2A3814FF47A73B4F808C01CF0E6
:10929000010F03F1FF3019D0A08902F8010BBA4287
:1092A0000DD011F8010BB4F808C0013B1CF0020FFF
:1092B0009BB2E6D1B342F6D1204636F0E7FAAB686E
:1092C00013B11A689B8813830120F8BD83B2B3429F
:1092D000DBD1F1E738B53D4CD4F8383905460BB150
:1092E0001D22DA801846092135F02EFCD4F8380901
:1092F00035F0D0FD94F83E39013B5BB2022BDBBF69
:10930000334A1B010020D058C4F83409022310212D
:1093100084F830393DF08CF840210A203AF092FB75
:10932000FF218A203AF08EFB94F83C29C0F380118B
:10933000012A84F83F1900F0400334D0022A254B5B
:109340003BD0B2B394F84029D4F834091A2A04BFA8
:10935000B3F80621A4F84619B3F8061104BFA4F81F
:109360004829A4F844593DF063F8D4F8380935F099
:109370008BFD022100203AF065FBD4F8380935F066
:1093800089FD94F8512994F8523994F8501984F8C9
:109390004C19C2F12002C3F1100384F8532984F858
:1093A0005439012038BD65B908220A4BA3F80621BB
:1093B000C8E71022A3F80621C4E70822A3F8062173
:1093C000C0E7002B14BF08221022EEE7682C002013
:1093D000E804001000000020F8B51A4C94F8553944
:1093E000002BFBD159B301444E1E451ED4F80C2866
:1093F000D4F8081815F8017F531CC3F30A038B42F5
:109400002CBF4FF400600020C91A224401440129F6
:10941000C4F80C3882F858790FD1012035F05EF984
:10942000D4F80838D4F80C188B4294BF4FF400627B
:1094300000225B1A1344012BEFD0B542D6D1002095
:10944000F8BD00BF682C0020094B0846D3F8281847
:1094500010B559B1D3F82838052B07D1054C002A8F
:10946000236E03DD1146FFF7B7FF236E10BD00BF6B
:10947000682C0020603D002010B590F84C100023AF
:1094800080F84C3079B10B4CD4F828286AB1D4F864
:109490002828052A0BD1084C3830236EFFF79CFF93
:1094A000236E012010BD0120FCE71046FAE71846A4
:1094B000F8E700BF682C0020603D0020002280F803
:1094C0004D20D9E790F84C20531C0244DBB280F8C1
:1094D0004C3082F8381090F84D200AB1132B00D987
:1094E000CAE770472DE9F0412DED028B504BDFF8B4
:1094F00064819FED508A504C012882B015BFDA6E0E
:10950000D3F87220B3F87030B3F87630ADF8043089
:10951000D8F8CC3614BF494E494E009207EE903A27
:10952000B4FBF3F4F8EE677A371FBDF800200D4660
:109530004449396027EE888A7AB194420DD3002DD0
:1095400063D0012D09D107EE902A19463E4B3B60AE
:10955000B8EE670A304636F08DFFBDF802308BB1A9
:109560009C420FD3002D3DD0012D0BD107EE903A38
:10957000354AD8F8CC163A60B8EE670A06F12400EE
:1095800036F078FFBDF804303BB39C4225D395B14B
:10959000012D22D107EE903A2B4AD8F8CC163A602A
:1095A000B8EE670A06F1480002B0BDEC028BBDE8D8
:1095B000F04136F05FBF07EE903ADFED246A244AAF
:1095C0003A60F8EEE77A002386EEA77AB36477EE86
:1095D000087A88EE277A86ED137A02B0BDEC028B0A
:1095E000BDE8F08107EE903ADFED186A184B3B605A
:1095F000F8EEE77A002386EEA77A736277EE087AB0
:1096000088EE277A86ED0A7ABCE707EE902ADFED2E
:109610000F6A0F4B3B60F8EEE77A002386EEA77ADD
:10962000336077EE087A88EE277A86ED017A94E740
:10963000603D0020BD37863520A10700D40500100D
:1096400044060010F9C6030849C6030883F9223E00
:10965000DDC60308E8040010F8B5124C0546D4F83E
:109660009C0090F834301E3B012B02D9002135F0CC
:10967000A1F90D4F0026AE42D4F89C000BDB00216F
:1096800035F098F9236EC4F8C030B4F8C430013313
:10969000A4F8C430F8BD17F8011B35F08BF901367A
:1096A000E9E700BF603D0020003E002070B5124C8D
:1096B00094F8DC3800EBC3020D4650F833105068C4
:1096C0000E4A0023984212DC8B780D4A5B0882F820
:1096D000D830C2F8D400FFF7BFFF94F8DC1801318E
:1096E000B1FBF5F305FB131184F8DC1870BDCE5CFB
:1096F00002F8016B0133E5E7682C0020003E0020F2
:10970000603D0020094890F8D72890F8DC389A424C
:109710000BD0D0F8D8389B0003D5042100F50E609B
:10972000C4E7062100F51060C0E77047682C0020F0
:1097300038B50C46FFF7C6FC054638B10E4B93F81A
:10974000FB20D20704D5B3F8FC002080284638BDA2
:1097500093F9F930594201F0070103F0070258BFAD
:109760004A42002BB8BF0733DB1001320133D1B2BC
:10977000D8B20BF047FAE8E70000002000F01F0223
:1097800040090123032803FA02F304D004280CD073
:10979000022805D07047074A116C0B4313647047C9
:1097A000044A516C0B4353647047024A116B0B43DC
:1097B0001363704700380240004870479C3E002009
:1097C00000285FD00368374A2DE9F04103F13F4498
:1097D00004F57E0402EB9422012492F8202002F08A
:1097E0001F055209032A04FA05F456D0042A4FD063
:1097F000022A48D08588B5FA85F0C0F11F00C0F371
:10980000CC0603EB860600F0070082000F24306AC6
:10981000944020EA04003062306A01FA02F2024306
:10982000002132624FF0010E0A464FF0030C02276E
:109830000EFA02F838EA050002F101021CD118689C
:109840000CFA01F420EA04001860186807FA01F61F
:1098500006431E609E6826EA04069E60986898602B
:10986000586820EA0800586058685860D86820EAAC
:109870000400D860D868D860102A01F10201D7D15D
:10988000BDE8F0817047084A556C2C435464B1E739
:10989000054A156B2C431463ACE7034A156C2C4343
:1098A0001464A7E7EC9C0408003802402DE9F04757
:1098B00000230F6801264FF0030C02E00133102B48
:1098C00041D006FA03F232EA0704F7D1D0F800E0FB
:1098D0005C000CFA04F52EEA050EC0F800E091F8E1
:1098E0000490D0F800A009FA04FE09F1FF394EEA0D
:1098F0000A0EB9F1010FA846C0F800E06FEA0505AD
:1099000015D8D0F808E005EA0E0585604D79D0F845
:1099100008E0A54045EA0E058560456825EA020293
:1099200042608A7945689A4092B22A434260C2688E
:1099300022EA0802C260CA79C568A24001332A43FC
:10994000102BC260BDD1BDE8F08700BF2DE9F04704
:10995000484E96F864120446C1F34001D6F86C02F2
:1099600035F012FB96F86412D6F86802C94301F08C
:10997000010135F009FB002C60D0671EDFF8F8A06C
:10998000FFB24FF001094FF00008D6F86C3233B146
:109990001A689B8851690B4214BF53831383D6F80E
:1099A000683233B11A689B8851690B4214BF5383E4
:1099B0001383B6F87432002B42D196F87612D6F89B
:1099C000780235F0E1FAFA2534F006FE044634F068
:1099D00003FE031BB3F57A7FF9D3013DF4D1D6F82A
:1099E0006C3233B11A689B8851690B4214BF5383A0
:1099F0001383D6F8683233B11A689B8851690B42D9
:109A000014BF53831383B6F8743243BB96F87612AF
:109A1000D6F8780281F0010135F0B6FAFA2534F073
:109A2000DBFD044634F0D8FD031BB3F57A7FF9D390
:109A3000013DF4D1013FFFB2FF2FA6D1BDE8F08771
:109A4000D6F89032002BBED0D6F87C22B6F89432ED
:109A5000BAFBF3F35B10136086F88D92B3E7D6F888
:109A60009032002BDAD0D6F87C32C3F8008086F82A
:109A70008D82D3E7603D002040420F002DE9F04782
:109A8000464EDFF81CA196F86412D6F86C02C1F3BA
:109A9000400135F079FA96F86412D6F86802C943A5
:109AA00001F0010135F070FA05274FF001094FF080
:109AB0000008D6F86C3233B11A689B8851690B42A2
:109AC00014BF53831383D6F8683233B11A689B8866
:109AD00051690B4214BF53831383B6F87432002BC1
:109AE0004DD196F87612D6F8780235F04DFA322537
:109AF00034F072FD044634F06FFD031BB3F57A7F3A
:109B0000F9D3013DF4D1D6F86C3233B11A689B8891
:109B100051690B4214BF53831383D6F8683233B1B3
:109B20001A689B8851690B4214BF53831383B6F89C
:109B30007432CBB996F87612D6F8780281F001012A
:109B400035F022FA322534F047FD044634F044FD66
:109B5000031BB3F57A7FF9D3013DF4D1013F17F030
:109B6000FF07A6D1BDE8F087D6F89032002BE9D0E8
:109B7000D6F87C32C3F8008086F88D82E2E7D6F80A
:109B80009032002BB3D0D6F87C22B6F89432BAFBD0
:109B9000F3F35B10136086F88D92A8E7603D002018
:109BA00040420F000130F8B5C6B20A25FFF766FF44
:109BB0004FF4FA7734F010FD044634F00DFD031B2A
:109BC000B3F57A7FF9D3013FF4D13046FFF7BEFEFB
:109BD0004FF47A7734F000FD044634F0FDFC031BAB
:109BE000B3F57A7FF9D3013FF4D1013DDED1F8BD61
:109BF000F0B40D6800240CE0BCF1050F18D8A0F1FA
:109C000037030A2B14D104EB840415F8010B03EB82
:109C10004404A0F13003DEB2092EA0F16107A0F1E7
:109C2000410CF0D9052FE7D8A0F157030A2BEAD051
:109C30000D601460F0BC70472DE9F047041E0D461E
:109C400012DB092C26DC824A0B468248A0FB04105A
:109C5000C00800EB8000A4EB40000021125C1A70E9
:109C600059702846BDE8F08764422D23092C01F87D
:109C7000013B24D8764A774BA3FB0403DB0803EBB4
:109C80008303A4EB43030020D35C48700B70284689
:109C9000BDE8F0876F4B632CA3FB04264FEAD60682
:109CA00021DC6B4A0B466B49A1FB0601C90801EB9D
:109CB0008101A6EB4101515C03F8011BC5E7654A30
:109CC000632CA2FB04364FEAD60637D8604A614BB4
:109CD000A3FB0603DB0803EB8303A6EB4303D35C80
:109CE00001F8013BC7E7A3FB0627B4F57A7F4FEAEB
:109CF000D7070DD2564A0B465649A1FB0701C908A2
:109D000001EB8101A7EB4101515C03F8011BCAE79C
:109D1000A3FB072842F20F7294424FEAD80836D8C4
:109D20004B4A0B464B49A1FB0801C90801EB8101D5
:109D3000A8EB4101515C03F8011BDDE7A2FB0637EC
:109D4000B4F57A7F4FEAD7070CD2414A414BA3FBC7
:109D50000703DB0803EB8303A7EB4303D35C01F8A2
:109D6000013BB4E7A2FB073842F20F739C424FEA73
:109D7000D80821D8364A374BA3FB0803DB0803EB8E
:109D80008303A8EB4303D35C01F8013BDEE7324ACF
:109D9000A3FB080994424FEAD90921D82C4A0B4663
:109DA0002C49A1FB0901C90801EB8101A9EB410183
:109DB000515C03F8011BB5E7274BA2FB08099C4245
:109DC0004FEAD90921D8224A224BA3FB0903DB0819
:109DD00003EB8303A9EB4303D35C01F8013BCAE720
:109DE0001E4AA3FB090394424FEAD30A21D80B462B
:109DF0001849174AA1FB0A01C90801EB8101AAEB26
:109E00004101515C03F8011BCAE7144BA2FB090294
:109E10009C424FEAD20A13D80E4B0D4AA3FB0A0309
:109E2000DB0803EB8303AAEB4303D35C01F8013B9C
:109E3000CAE70A22BAFBF2F037F0DAF80346D7E7AE
:109E40000A22BAFBF2F037F0D3F80146E4E700BF8C
:109E500018E90408CDCCCCCC9F8601003F420F000E
:109E600038B54FF02033C0E90033044683600D4617
:109E700039B108463CF060FD2946024620463FF0D5
:109E80006BFE38F01DF920B135B10648294637F090
:109E900061FA0023E37238BD0349024837F05AFAE9
:109EA000F7E700BFF63F0020BEE904082DE9F041C6
:109EB000874C94F8B40204F52A7382B0C4F8A43233
:109EC00018B9002002B0BDE8F08134F0B1F8C4F850
:109ED000B00220B1837913B1353B012BF1D894F84E
:109EE000B532013B02225BB2934284F8A822E8DC3F
:109EF000784A1B01D358002BE3D0C4F8AC3208B128
:109F00001A23C380092134F01FFED4F8A4329868C4
:109F100034F0C0FFD4F8A432102158683CF088FA1D
:109F2000D4F8A432C4F8B83232209F23009334F01E
:109F3000D5FB002301AA6946D4F8A4028DF80530A8
:109F4000FFF790F99DF806209DF805009DF8071091
:109F5000614B120242EA00420A439A4200F08480B6
:109F60006EDC5E4B9A4227D038DCA3F51A43033BE4
:109F70009A4200F0948003F51A4302339A4218D1B2
:109F8000574BC4F8C0324FF480304FF40001C4E99D
:109F9000B1014FF480720023A4F8CC2284F8CE32B1
:109FA000504BC4F8BC32012084F8D50202B0BDE8A1
:109FB000F0814D4B9A4217D14FF001254FF480307C
:109FC0004FF080714FF480720023C4E9B050C4F8A0
:109FD000C812A4F8CC2284F8CE32E1E7434B9A426F
:109FE00065D001339A42CBD0002594F8B402A4F88E
:109FF000C052C4E9B155A4F8CC5234F019F83C4E23
:10A00000804616F8017B384634F012F8804558D067
:10A0100001350B2DF5D194F8E452284634F008F8B8
:10A0200080454CD094F8E552284634F001F880453C
:10A0300008BF01217FF445AF284635F002FC40E718
:10A040002C4B1344042BCFD8042BCDD801A252F8AB
:10A0500023F000BF9FA00008AFA00008819F000868
:10A06000B99F000869A00008234BC4F8C0324FF024
:10A0700000714FF480334FF480750022C4F8C4326D
:10A08000C4F8C8120123D4F8B802A4F8CC52B721FE
:10A0900084F8CE2284F8D43237F032FC80E7174BB4
:10A0A000C4F8C0324FF480304FF400116FE7144B06
:10A0B000C4F8C0324FF480304FF4800167E70021CC
:10A0C000BAE73846294635F0CEFB0020FAE600BF55
:10A0D000603D0020E80400101920C20018BA2000DA
:10A0E00080000001149D0408186001001620C200C1
:10A0F00038400020EBBF10FF0002000120000001EB
:10A10000400000012DE9F041204D95F8EB3285F833
:10A11000643205F53A7705F51A7600244FF0050804
:10A1200017F8010B20BB30600134032C06F1040644
:10A13000F6D195F86412D5F86802C94301F001011F
:10A1400034F022FF95F86412D5F86C0281F0020118
:10A15000C1F3400134F018FF95F86412D5F870028D
:10A1600081F00401BDE8F041C1F3800134F00CBF7F
:10A1700033F05EFF013401213060E3B210B180F8AA
:10A180000680C371306834F0DFFCCEE7603D00200C
:10A1900099B10A6B824216D9154BD3F81C23914210
:10A1A00021D34C3991421ED30B6B9842F9D38B6B60
:10A1B0009842F6D80B46184670470D4BD3F81C133F
:10A1C0000A6B904212D30B680BB9F4E70A6B90420A
:10A1D0000B4602D38A6B9042EDD951F84C3F002BCD
:10A1E000F4D1184670470023184670470A46D8E74E
:10A1F000603D00202DE9F047CC0143D10346224ABF
:10A2000043F8082B4FF0FF324260022418467E26A6
:10A21000DFF87880D8F820932644013E051D494692
:10A220006FF070474FF0010A08E0A3421CD0631C96
:10A2300045F8043C321B1C460435CAB10B6BA342E3
:10A2400002D88B6BA34204D22046FFF7A1FF014640
:10A2500090B10A794B6B002AE7D1A34204D0E6D231
:10A2600045F8042C631CE5E745F8047C631CE1E732
:10A27000C8F82013BDE8F08745F804AC321B631C16
:10A280004946D8E78026C3E7F8FFFF0F603D00206E
:10A29000036870B55E6A26B133460522BDE870409A
:10A2A000184704460D464E1D00E023689B68204673
:10A2B00098470028F9D0236815F8011B1B68204631
:10A2C0009847B542F1D170BD2DE9F04F9BB0DDE963
:10A2D000247ADDF8989004460D461646984602E02A
:10A2E000206834F05BFB206834F060FB0028F7D175
:10A2F0000146642201A83FF090FC2A4B8DF80450DF
:10A30000CDF85CA00293002D48D0AB1E012B47D99D
:10A31000042D14BF00230323DFF88CA08DF8053033
:10A32000DAF8603003971F440123CDE905940497C0
:10A330008DF85B3036B14246314607A83FF00CFC41
:10A340008DF85A809AF86A734FF00009132FCDF8F0
:10A35000609015D89AF869B3642202FB0BA001A99A
:10A360000BF1010B00F55B703FF0F6FBBBF1130F37
:10A37000D8BF5FFA8BF901378AF86A738AF8699354
:10A38000236843B143463246294620461BB0BDE808
:10A39000F04F0DF0A1BE1BB0BDE8F08F0523BBE769
:10A3A0000223B9E788400020603D002070B4447962
:10A3B00041BB03684FF400524FF400762025022180
:10A3C0003CBB1A8C22F001021204120C1A841A8B64
:10A3D000188C22F0F30280B2120420F00A00120C52
:10A3E000014342F0010241F001011A8319841A8BE2
:10A3F00022F00C021204120C1A831A8B92B270BC57
:10A400001A83704700220368164615461146002C31
:10A41000D7D0042C21D0082C38D0198C21F48051AD
:10A420000904090C19849C8B1D8C45F6FF7040F6BD
:10A43000FF4128402140024342F4805241F48071A0
:10A4400099831A849A8B22F440621204120C9A8324
:10A450009A8B92B270BC9A8370471A8C22F01002C9
:10A460001204120C1A84188B198C89B240F6FF4220
:10A4700021F0A00102400D4342F4807245F0100526
:10A480001A831D841A8B22F44062B3E71A8C22F4DB
:10A4900080721204120C1A84998B1A8C21F0F30129
:10A4A00092B2090422F42062090C324342F4807211
:10A4B00041F0010199831A849A8B22F00C02C4E7BF
:10A4C0009FED737A07EE901A20EE070AF8EE677A8E
:10A4D00027EE800AFDEEC07A17EE903A2033402B2B
:10A4E00000F2C780DFED6B7AB4EEE70AF1EE10FA06
:10A4F000F0EE407A0CDD9FED686ADFED686AB0EE41
:10A50000677AB4EEE67AF1EE10FA77EEC67AF6DC08
:10A510009FED637AF4EEC77AF1EE10FA0CD59FED59
:10A520005E6ADFED606AB0EE677AB4EEE67AF1EE6D
:10A5300010FA77EE867AF6D49FED5B7AF4EEC77A5E
:10A54000F1EE10FA00F38D809FED587AF4EEC77AA1
:10A55000F1EE10FA44BF9FED527A77EE677A27EE5C
:10A56000A76ADFED535A9FED537ADFED536AA6EEEB
:10A57000257A67EE865AE6EE076AB6EE007AE5EED1
:10A58000A67A27EE877ADFED486A70EE267ABDEE6E
:10A59000E76A16EE103A2033402B67D8B4EEE60A8D
:10A5A000F1EE10FA0CDDDFED3C5A9FED3C6AF0EE67
:10A5B000676AF4EEC66AF1EE10FA77EEE57AF6DC39
:10A5C000DFED376AF4EEE67AF1EE10FA0CD5DFED46
:10A5D000325A9FED346AF0EE676AF4EEC66AF1EE25
:10A5E00010FA77EEA57AF6D4DFED2F6AF4EEE67A6C
:10A5F000F1EE10FA40DDDFED276A76EEE77A67EEDE
:10A60000A75A9FED2B5A9FED2B6ADFED2B6AA5EE23
:10A61000856A27EEA55AE5EE866AB8EE006AE5EE91
:10A62000267A67EE867AC7EE206A0023836143614B
:10A630000362C361B7EE006A76EE865A76EE666A0A
