:020000040800F2
:10000000F0FF0010A178040879E20008B1A8030805
:100010003D7904083D7904083D790408000000009A
:1000200000000000000000000000000085E2000861
:1000300081E20008000000007DE200081D9C03082A
:100040003D7904083D7904083D7904083D790408A8
:100050003D7904083D79040829B0030869B1030813
:1000600029B10308E9B00308A9B003088D620408A8
:100070007D6204086D6204085D6204084962040838
:1000800035620408216204083D7904083D790408BA
:100090003D7904083D7904083D79040869B00308F6
:1000A0003D7904083D7904083D7904083D79040848
:1000B0003D790408B99803083D7904083D7904089E
:1000C0003D7904083D7904083D7904083D79040828
:1000D0003D790408CD9E0308319E0308959D0308D1
:1000E000E9AF03083D790408852301083D79040838
:1000F000899803083D790408999803080D6204085B
:100100003D7904083D790408A99803083D7904085D
:10011000F99C03085D9C03080D300308F92F0308C0
:10012000F9610408E5610408D1610408BD610408AF
:10013000A96104083D7904083D7904083D79040863
:100140003D7904083D7904083D790408150F01083C
:1001500095610408816104086D6104083D79040813
:100160003D7904083D7904083D7904083D79040887
:100170003D7904083D7904083D7904083D79040877
:080180003D7904083D790408F3
:080188005074040001000000A6
:1001900003010A004A3E002008670020000000001A
:1001A000B806000813020300A434002014670020DE
:1001B00000000000C206000804008000A8530020D0
:1001C000186700200000000000000000230010005D
:1001D000805300209867002000000000E5BC010863
:1001E0000D00340090520020A8670020000000009D
:1001F000AD1F030813000400DC510020DC67002061
:1002000000000000C8060008F6210C00E0510020A4
:10021000E067002000000000CC060008F531740003
:1002200014510020EC67002000000000258703081F
:100230000B30140000510020606800200000000016
:10024000D806000801010400FC500020746800205A
:10025000000000000000000000010400F850002031
:100260007868002000000000EC060008020103008E
:10027000F45000207C680020000000003D1D0308B1
:10028000FD011E00C4500020806800200000000016
:10029000F97C0308061018001C420020A06800200A
:1002A0000000000091550208FB010100C45C002021
:1002B000B868002000000000B59A0308FC0109009E
:1002C000905B0020BC68002000000000C59A030875
:1002D00002000C0090500020C868002000000000C0
:1002E000000000000A603600D43D0020D4680020E1
:1002F00000000000F006000834001000BC4F002091
:100300000C69002000000000655502081102080079
:10031000944F00201C690020000000002607000800
:10032000121204008C4F00202469002000000000FD
:100330002E07000818202C00604F0020286900209C
:1003400000000000618A030812200D00384F0020D1
:10035000546900200000000032070008F901040081
:10036000104400206469002000000000717D030833
:10037000180202000C440020686900200000000000
:100380000000000017020B00004400206C690020F0
:1003900000000000B9810308FA010200DC430020DC
:1003A00078690020000000003D830308020203007A
:1003B000C83500207C69002000000000000000001B
:1003C0000C020300B435002080690020000000000A
:1003D00049820308FE010900DC5C002084690020DA
:1003E00000000000418203080E02020044DB0020EE
:1003F00078DB002000000000400700081010030018
:1004000074DB00207CDB00200000000042070008B5
:100410002810100064DB002080DB002000000000BA
:10042000D5BC0108F82106005CDB002090DB002031
:1004300000000000460700082F00110048DB0020E4
:1004400098DB0020000000004C07000805100600A3
:1004500038D00020ACDB0020000000005E07000860
:100460000C20B4001ACF0020B4DB002000000000F4
:100470000D1D03080E80620160CD002068DC0020A5
:10048000000000003955020801020500D6CC00200A
:10049000CCDD002000000000E12C01080002050076
:1004A0001CD30020D4DD002000000000000000006C
:1004B0001B02080004D30020DCDD00200000000047
:1004C000598203080120080020D00020E4DD00202C
:1004D00000000000640700081900050058D700203C
:1004E000ECDD0020000000006C07000837001E0053
:1004F000E4CF0020F4DD00200000000072070008B7
:100500001E000500E4D0002014DE002000000000E2
:10051000900700081B00F40000BB00201CDE002038
:10052000000000005944010826000E0020DF0020D2
:1005300010DF002000000000D52401081F201C004F
:1005400064D0002054DF002000000000960700085F
:1005500005020400B4D3002070DF0020000000007A
:10056000B2070008031233008CE5002066EB002080
:1005700000000000B60700082500960020E60020D5
:10058000C0EA00200000000000000000150070001C
:10059000F4E80020D8E9002000000000000000007E
:1005A0002A006000C0E5002078E90020000000007B
:1005B000115502082C00100064E9002056EB0020C1
:1005C00000000000B9C901082B002400CCE700207E
:1005D00099EB0020000000008DC901082910780067
:1005E00074E4002048EA0020000000000000000041
:1005F00014000400B0E3002074E9002000000000B3
:10060000EA07000803000100F8EF002000F00020D6
:1006100000000000000000001A000E00A4EE002000
:1006200004F0002000000000EE070008160008009B
:100630005CF10020A0F1002000000000FC07000891
:10064000081209006EF10020C8F10020000000002F
:1006500009820308F701060068F10020D4F10020A8
:1006600000000000040800080A020A0094F00020BC
:10067000DCF10020000000000A0800081A023C001B
:10068000FCF1002074FB002000000000D985030865
:1006900027000400E01A0120B0FB00200000000049
:1006A0001408000810020100401F01203C1F012017
:0806B00000000000180800081A
:1006B800040101006C1600000000000000000000AA
:1006C8001820401000000000010000000202000095
:1006D8002B21231E64000200000001000A012900EA
:1006E800230A000090010000003001000000000013
:1006F80073007300690000000000000000000000A3
:10070800000000000000020000019E077D00FA00C2
:1007180096005802B80BB80BB80B2000C4090000AB
:10072800000001010101FFFFFFFF000000010000C0
:100738000541574634000000000000050000010193
:10074800F401140000000000000000000000000098
:10075800000000000000200001010000E803640020
:10076800040A000100002801000020003200C8002F
:10077800D0079600140032002800B0044006000597
:10078800500014000F0008010000010000000000E4
:100798000000000100000005000001020300000045
:1007A8000000000000000000000000000000000041
:1007B8000000000000000000000000000000000031
:1007C8000000000000000000000000000000000021
:1007D8000000000000000000000000000000000011
:1007E8000100030000467E05EA05B4050300E8039E
:1007F800D0070000C4090700B4012828120100002E
:10080800000000004A01B400D601000020030000E7
:0108180000DF
:100819000403090412010002EF0201408304563265
:10082900000201020301000012010002020200405D
:10083900830440570002010203010000090220005D
:10084900010104C032090400000208065005070529
:10085900810240000007050102400000090264000E
:10086900030100C03209040000010300000009214E
:10087900110100012226000705830308000A080B5D
:10088900010202020100090401000102020100053E
:100899002400100105240100020424020205240693
:1008A9000102070582030800FF09040200020A0089
:1008B9000000070501024000000705810240000011
:1008C90009024300020100C03209040000010202CA
:1008D900010005240010010524010001042402027D
:1008E9000524060001070582030800FF0904010029
:1008F900020A000000070501024000000705810205
:1009090040000000FF00000000FFFF0000000000A1
:10091900AA550501000008000101000005010905AB
:10092900A101A1000501093009310932093309354D
:100939000934094009381581257F75089508810210
:10094900C0C0000009022200010100E032090400D0
:1009590000010301020009211101000122260007FB
:1009690005830308000A00008587000881870008BD
:100979007D870008718700086D870008798700085E
:100989007587000801000000006002401060024005
:100999000000000000000000000B00000000000043
:1009A90000000000000000000060024028600240D2
:1009B9000100000000000000060C0000000000001B
:1009C900000000000000000000600240406002409A
:1009D9000200000000000000100D000000000000EF
:1009E9000000000000000000006002405860024062
:1009F9000300000000000000160E000000000000C7
:100A09000000000000000000006002407060024029
:100A19000400000000000000200F0000000000009A
:100A290000000000000000000060024088600240F1
:100A39000500000000000000261000000000000072
:100A4900000000000000000000600240A0600240B9
:100A59000600000000000000301100000000000046
:100A6900000000000000000000600240B860024081
:100A79000700000000000000362F00000000000001
:100A89000000000000000000006402401064024001
:100A99000000000000000000003800000000000015
:100AA90000000000000000000064024028640240C9
:100AB90001000000000000000639000000000000ED
:100AC9000000000000000000006402404064024091
:100AD9000200000000000000103A000000000000C1
:100AE9000000000000000000006402405864024059
:100AF9000300000000000000163B00000000000099
:100B09000000000000000000006402407064024020
:100B19000400000000000000203C0000000000006C
:100B290000000000000000000064024088640240E8
:100B3900050000000000000026440000000000003D
:100B4900000000000000000000640240A0640240B0
:100B59000600000000000000304500000000000011
:100B6900000000000000000000640240B864024078
:100B790007000000000000003646000000000000E9
:100B89000000000000000000000000000102030452
:100B99000102030406070809A5EC00087DF4000812
:100BA900F5EF000881880008CD8A000891880008BF
:100BB900AD8800085988000849880008000000002D
:100BC900000000002D202D2D202D2D2D2D202D2D27
:100BD9002D2D0000000000000000000000000000B2
:100BE900000000AA550B010000AA5507010000AA40
:100BF900550902000000000001000000C012AA55BA
:100C090003009F00FF1FFF1F00000100E001010119
:100C190001000000F92F01080000000078050020FC
:100C2900DC030508000000000000000000000000CF
:100C3900000000006CEC0408000000000000000047
:100C49004206002004000000600305080D000000B2
:100C590029540108142A002000000000BCF90408E6
:100C69000D00000051540108082A0020000000006E
:100C790094FB04080800000000000000FC29002083
:100C89000400000028FA04080D000000AD30010836
:100C9900F029002000000000ECFA0408030000001D
:100CA900DD560108E429002000000000EC030508D6
:100CB90003000000DD560108D829002000000000CB
:100CC900D4F4040801000000000000000000000046
:100CD90000000000000000000E00000000000000FD
:100CE9000000000000000000DC030508000000000F
:100CF9000000000000000000000000006CEC040887
:100D0900000000000000000042060020040000006E
:100D19000C03050803000000F54E0108CC2900204A
:100D29000800000028FA04080D000000AD30010891
:100D3900F029002000000000ECFA0408030000007C
:100D4900DD560108E429002000000000EC03050835
:100D590003000000DD560108D8290020000000002A
:100D6900D4F40408010000000000000000000000A5
:100D790000000000000000000E000000000000005C
:100D89000000000000000000F40305080000000056
:100D99000000000000000000000000006CEC0408E6
:100DA90000000000000000004206002004000000CE
:100DB9001403050803000000DD560108202A00205D
:100DC90000000000D4F40408010000000000000045
:100DD9000000000000000000000000000E000000FC
:100DE900000000000000000000000000207000204A
:100DF900702D7200FFFFFFFF0108000000000000D6
:100E09000000000088250020FA0000000100000011
:100E1900010000002C2A00200400000030DF00201F
:100E2900000000000000803F0000803F000000003B
:100E390000000000000000000000000000000000A9
:100E49000000000000000000000000000000000099
:100E5900FFFF2D202D2D202D2D2D2D202D2D2D0069
:100E69000000000000000000000000000000000079
:100E7900000000001ED000200000F4010100000065
:100E89001CD000200000F401010000001AD000204D
:100E99000000F4010100000018D000200000F40156
:100EA9000100000016D000200000F401010000003C
:100EB90014D000200000F4010100000012D000202D
:100EC9000000F4010100000048F4040800000000DB
:100ED90000000000000000000000000060F40408A9
:100EE90000000000000000000000000000000000F9
:100EF90080F404080800000000000000AC0600208F
:100F0900000000008CF40408080000000000000044
:100F1900A00600200000000098F404080800000062
:100F2900000000009406002000000000A8FF04084B
:100F390008000000000000008806002000000000F2
:100F4900A4F4040808000000000000007C0600204A
:100F590000000000B0F404080800000000000000D0
:100F69007006002000000000BCF40408080000001E
:100F7900000000006406002000000000C8F4040816
:100F890002000000D1580108020000000000000022
:100F9900D4F4040801000000000000000000000073
:100FA90000000000000000000E000000000000002A
:100FB900000000000000000019380108D1370108BD
:100FC900B806002010D00020053201000ED0002004
:100FD900E803D007010000000CD00020E803D00787
:100FE900010000000AD00020E803D007010000003A
:100FF90008D000201E00B80B0100000006D0002018
:101009001E00F4010100000004D000201400640057
:101019000100000002D000200000C800010000000B
:10102900DCF40408E4F4040828F5040800000000CE
:1010390000000000000000000000000060F4040847
:101049000000000000000000000000000000000097
:101059003CF5040808000000000000000408002016
:101069000000000044F5040808000000000000002A
:10107900F80700200000000058F5040808000000E7
:1010890000000000EC070020000000006CF50408D7
:101099000800000000000000E00700200000000038
:1010A90080F504080800000000000000D4070020B3
:1010B9000000000090F5040808000000000000008E
:1010C900C807002000000000A0F50408080000007F
:1010D90000000000BC07002000000000B0F5040873
:1010E9000700000000000000B40700200000000015
:1010F900C0F5040803000000DD560108A807002018
:1011090000000000C8F4040802000000D1580108DA
:101119000200000000000000D4F4040801000000EF
:1011290000000000000000000000000000000000B6
:101139000E00000000000000000000000000000098
:10114900F0F50408000000000000000000000000A5
:1011590000000000200605080400000001520108F3
:101169000000000000000000D4F4040801000000A1
:101179000000000000000000000000000000000066
:101189000E00000000000000000000000000000048
:10119900C6D000200100C40900000000C4D000200E
:1011A9000100C40900000000C2D000200100C409E8
:1011B90000000000C0D000200100C40900000000A8
:1011C900BCD000200100C40900000000BED00020EE
:1011D9000100C40900000000BAD000200100C409C0
:1011E90000000000B8D000200100C4090000000080
:1011F900EACC00200000FFFF0A000000E8CC002034
:101209000100C80001000000E6CC00203200307562
:1012190032000000E4CC0020055A0500E1CC002092
:1012290000FF0100E3CC00200100000010080020AD
:10123900DFCC002002000000A0AA0408E0CC0020B6
:1012490000FF0100E2CC002001000000100800208E
:10125900DECC002002000000A0AA0408D4CC0020A3
:1012690080C1803E05000000D2CC002080C1803EB4
:1012790005000000D0CC002080C1803E05000000A0
:10128900CECC002080C1803E05000000CDCC0020DE
:1012990000FF0100CCCC00200A320100CBCC002099
:1012A90004000000ACAA0408CACC00200200000017
:1012B900C0AA04088137010831370108180800203D
:1012C9002CD00020EE02CA08010000002AD000201C
:1012D90000C801006400000029D0002000C80100F6
:1012E9006400000028D0002002000000CCAA0408F5
:1012F900000000000000000030090020B86600204E
:101309009CFF2C0100000000FE0300200A000000E1
:10131900D8AA0408C0CC0020E0150C170000000072
:101329000004002008000000A8A20408FF03002010
:101339000500000018AC0408C2CC0020020000001F
:10134900F0AA04083ED000200100FF7F0100000040
:1013590037D0002002000000FCAA0408D4CE0020E7
:101369000000F40101000000D2CE00200000F401C9
:1013790001000000D0CE00200000F40101000000AF
:10138900CECE00200000F40101000000E4CE0020D0
:101399000100803E05000000E0CE00200000803EF4
:1013A90064000000DECE00200000803E64000000E2
:1013B900DCCE00200000803E64000000E2CE002068
:1013C9000300000201000000DACE0020C800E80393
:1013D90001000000D8CE00201E00E8030100000033
:1013E900D6CE00200000E80301000000CCCE00208A
:1013F9000000803E01000000CACE00200000803EAF
:1014090001000000C8CE00200000803E010000005D
:10141900C6CE00200000803E01000000C4CE00209E
:101429000000803E01000000C2CE00200000803E86
:101439000100000015CF00201964010019CF002018
:101449000064010018CF00200064010017CF0020BC
:101459000A32010016CF0020030000000CAB04087B
:1014690012CF0020E803D0070A00000010CF0020A7
:1014790000FA01000A0000000FCF002000FA010065
:101489000A0000000ECF002000FA01000A00000047
:10149900FDCE002000640100FCCE002000640100A4
:1014A90004CF0020006401000A00000003CF0020DF
:1014B900006401000A00000002CF0020006401005E
:1014C9000A00000007CF0020006401000A000000A4
:1014D90006CF0020006401000A00000005CF0020AB
:1014E900006401000A00000001CF002000FF010094
:1014F9000A00000000CF002000FF01000A000000E0
:10150900FFCE002000FF01000A0000000DCF0020DF
:10151900005F01000A0000000CCF0020005F0100FD
:101529000A0000000BCF0020005F01000A00000044
:101539000ACF0020005F01000A00000009CF002047
:1015490019AF01000A00000008CF002019AF0100FF
:101559000A0000004ECD0020000A01004DCD0020F8
:10156900000A01004CCD0020000A01005ECD0020D8
:1015790000FA01005DCD002000FA01005CCD0020D9
:1015890000FA01005ACD00200000F401010000001A
:1015990058CD00200000F4010100000056CD0020C4
:1015A9000000F4010100000054CD00200000F40106
:1015B9000100000052CD00200000F40101000000EC
:1015C90050CD00200000F40101000000FACE0020F7
:1015D900FF080100F9CE002001640100F8CE0020C7
:1015E90000640100F7CE0020010000001CAB0408D4
:1015F900F6CE002000C80100F4CE00200000D0077C
:1016090001000000F3CE002000C80100F2CE002046
:1016190000C80100F1CE002000C80100F0CE002072
:1016290000C80100EFCE002000FA01000A00000006
:10163900ECCE002000FA01000A000000E9CE0020EB
:1016490000FA01000A000000EECE002000FA0100B5
:101659000A000000EBCE002000FA01000A00000099
:10166900E8CE002000FA01000A000000EDCE0020BB
:1016790000FA01000A000000EACE002000FA010089
:101689000A000000E7CE002000FA01000A0000006D
:10169900D0CF0020010A0100D8CF002000FA0100B4
:1016A900D6CF00200000E80305000000E1CF0020AC
:1016B90000C80100E0CF002000C80100DFCF0020F2
:1016C90000C80100DECF002000C80100DDCF0020E6
:1016D90000C80100DCCF002000C80100DBCF0020DA
:1016E90000C80100DACF002000C80100D9CF0020CE
:1016F90000C80100D4CF002000FA0100D2CF002099
:101709000000E80305000000CFCF002000640100BD
:1017190034F604080000000000000000000000008A
:1017290000000000E4FE04080900000000000000B9
:10173900D409002004000000FCFE04080900000090
:1017490000000000C809002004000000F40005089A
:101759000900000000000000BC090020040000008E
:10176900384605080900000000000000B009002003
:101779000400000044F6040809000000000000000D
:10178900A4090020040000004CF604080900000028
:1017990000000000980900200400000054F6040825
:1017A90009000000000000008C090020040000006E
:1017B9005CF6040809000000000000008009002010
:1017C90004000000D4F40408010000000000000037
:1017D9000000000000000000000000000E000000F2
:1017E90000000000000000000000000098F8040854
:1017F90000000000000000000000000000000000E0
:101809009C3605080700000000000000040A0020BB
:1018190000000000A8F8040808000000000000000B
:10182900F809002000000000B4F8040808000000CE
:1018390000000000EC09002000000000BCF80408CA
:101849000800000000000000E0090020000000007E
:10185900C8F4040802000000D15801080100000082
:1018690000000000D4F4040801000000000000009A
:101879000000000000000000000000000E00000051
:10188900000000000000000000000000CCF804087F
:10189900000000000000000000000000000000003F
:1018A900DCF804080D00000000000000400A0020D8
:1018B90000000000E4F804080D000000000000002A
:1018C900340A002000000000ECF8040807000000BA
:1018D900000000002C0A002000000000F4F80408B1
:1018E9000D00000000000000200A00200000000098
:1018F900FCF804080D00000000000000140A002094
:101909000000000004F904080700000000000000BE
:101919000C0A002000000000C8F4040802000000BE
:10192900D15801080100000000000000D4F40408A7
:10193900010000000000000000000000000000009D
:10194900000000000E000000000000000000000080
:10195900000000000CF9040800000000000000006D
:1019690000000000000000009C3605080C00000083
:1019790000000000ECCC00200000000020F9040861
:101989000C00000000000000EECC00200000000068
:1019990030F904080C0000000000000024CD0020EC
:1019A9000000000040F904080C00000000000000DD
:1019B90018CD00200000000054F904080C000000B4
:1019C90000000000F0CC00200000000060F90408CD
:1019D9000C00000000000000F2CC00200000000014
:1019E90068F904080C00000000000000F4CC002095
:1019F900000000007CF904080C0000000000000051
:101A0900F6CC00200000000084F904080C00000056
:101A190000000000F8CC0020000000008CF9040848
:101A29000C0000000000000036CD0020000000007E
:101A3900A4F904080C00000000000000FACC002002
:101A490000000000B0F904080C00000000000000CC
:101A5900FCCC00200000000054FB04080C0000002E
:101A690000000000FECC002000000000B8F90408C6
:101A79000C0000000000000000CD00200000000064
:101A8900C4F904080C0000000000000002CD002089
:101A990000000000D0F904080C000000000000005C
:101AA90004CD002000000000DCF904080C0000004F
:101AB9000000000006CD002000000000E8F904083D
:101AC9000C0000000000000008CD0020000000000C
:101AD900F4F904080C000000000000001CCD0020EF
:101AE90000000000FCF904080C00000000000000E0
:101AF9001ACD00200000000004FA04080C000000C0
:101B09000000000028CD00200000000010FA0408A1
:101B19000C000000000000002ACD00200000000099
:101B29001CFA04080C0000000000000030CD002061
:101B3900000000000CF704080C0000000000000081
:101B49000ACD00200000000028FA04080C0000005B
:101B59000000000012CD00200000000030FA040847
:101B69000C000000000000000CCD00200000000067
:101B79003CFA04080C000000000000000ECD002013
:101B89000000000048FA04080C00000000000000F2
:101B990010CD00200000000050FA04080C000000DD
:101BA9000000000014CD0020000000005CFA0408C9
:101BB9000C000000000000001ECD00200000000005
:101BC90064FA04080C0000000000000016CD002093
:101BD9000000000070FA04080C000000000000007A
:101BE90026CD0020000000007CFA04080C0000004B
:101BF9000000000020CD00200000000084FA040845
:101C09000C0000000000000022CD002000000000B0
:101C19008CFA04080C000000000000002CCD002004
:101C29000000000094FA04080C0000000000000005
:101C39002ECD0020000000009CFA04080C000000D2
:101C4900000000003ECD002000000000D4F404088C
:101C5900010000000000000000000000000000007A
:101C6900000000000E00000000000000000000005D
:101C790000000000A4FA04080000000000000000B1
:101C89000000000000000000B0FA04080D00000088
:101C990000000000980A002000000000B8FA0408BB
:101CA9000D000000000000008C0A00200000000068
:101CB900C0FA04080700000000000000840A0020A0
:101CC90000000000CCFA0408070000000000000032
:101CD9007C0A002000000000D8FA0408090000006E
:101CE90000000000700A002000000000E4FA040867
:101CF9000900000000000000640A00200000000044
:101D0900F0FA04080900000000000000580A002049
:101D19000000000000FB04080900000000000000AA
:101D29004C0A002000000000C8F40408020000006A
:101D3900D15801080100000000000000D4F4040893
:101D49000100000000000000000000000000000089
:101D5900000000000E00000000000000000000006C
:101D69000000000014FB040800000000000000004F
:101D7900000000000000000060F4040800000000FA
:101D890000000000000000000000000024FB04081F
:101D99000D00000000000000D40A0020000000002F
:101DA90030FB04080B00000000000000C80A0020F6
:101DB900000000003CFB04080B00000000000000CC
:101DC900BC0A0020000000004CFB040808000000C9
:101DD90000000000B00A00200000000060FB0408B9
:101DE90003000000DD560108A40A002000000000DD
:101DF900C8F4040802000000D158010802000000DC
:101E090000000000D4F404080100000000000000F4
:101E19000000000000000000000000000E000000AB
:101E29000000000000000000000000006CFB040836
:101E39000000000000000000000000000000000099
:101E49007CFB0408050000000000000045CD0020CF
:101E590000000000C8F4040802000000D15801087D
:101E69000100000000000000D4F404080100000093
:101E79000000000000000000000000000000000059
:101E89000E0000000000000000000000000000003B
:101E990084FB0408000000000000000000000000AE
:101EA900000000006CEC04080000000000000000C5
:101EB900B40300200400000090FB04080D0000009A
:101EC90065520108280B0020000000006003050886
:101ED9000D000000B12F01081C0B002000000000BC
:101EE900BCF904080D000000952F0108100B002013
:101EF9000000000094FB0408080000000000000036
:101F0900040B00200400000028FA04080D0000005A
:101F1900DD2E0108F80A0020000000009CFB0408DF
:101F29000900000000000000EC0A00200400000085
:101F3900ECFA040803000000DD560108E00A00205D
:101F490000000000D4F404080100000000000000B3
:101F59000000000000000000000000000E0000006A
:101F6900000000000000000000000000A4FB0408BD
:101F79000000000000000000000000000000000058
:101F8900B4FB04080D00000000000000400B002015
:101F990000000000BCFB04080A000000000000006B
:101FA9007DD3002000000000C8FB04080A000000DF
:101FB9000000000085D3002000000000D0FB0408C9
:101FC9000A000000000000008DD30020000000007E
:101FD900D8FB04080800000000000000340B0020B2
:101FE90000000000E0FB0408040000007D5801081F
:101FF9000000000000000000C8F40408020000000E
:10200900D15801080100000000000000D4F40408C0
:1020190001000000000000000000000000000000B6
:10202900000000000E000000000000000000000099
:1020390000000000ECFB04080000000000000000A4
:10204900000000000000000000FC04080800000077
:1020590000000000180C00200000000010FC04081B
:1020690008000000000000000C0C00200000000027
:1020790020FC04080800000000000000000C0020FB
:102089000000000030FC0408080000000000000007
:10209900F40B00200000000040FC040808000000C8
:1020A90000000000E80B00200000000050FC0408BC
:1020B9000800000000000000DC0B00200000000008
:1020C90060FC04080800000000000000D00B00209C
:1020D900000000006CFC040808000000000000007B
:1020E900C40B0020000000007CFC0408080000006C
:1020F90000000000B80B0020000000008CFC040860
:102109000800000000000000AC0B002000000000E7
:1021190094FC04080800000000000000A00B002047
:10212900000000009CFC04080800000000000000FA
:10213900940B002000000000A4FC04080800000023
:1021490000000000880B002000000000ACFC04081F
:1021590008000000000000007C0B002000000000C7
:10216900BCFC04080800000000000000700B0020FF
:1021790000000000C8FC040808000000000000007E
:10218900640B002000000000D4FC040808000000D3
:1021990000000000580B002000000000E0FC0408CB
:1021A90008000000000000004C0B002000000000A7
:1021B900C8F4040802000000D15801080100000019
:1021C90000000000D4F40408010000000000000031
:1021D9000000000000000000000000000E000000E8
:1021E900000000000000000000000000ECFC0408F2
:1021F9000000000000000000DF05002000000000D2
:10220900F8FC04080B00000000000000380D002055
:102219000000000008FD04080B0000000000000099
:102229002C0D00200000000014FD04080B00000024
:1022390000000000200D00200000000024FD04081B
:102249000B00000000000000140D00200000000039
:1022590030FD04080B00000000000000080D0020FC
:102269000000000044FD04080B000000000000000D
:10227900FC0C00200000000054FD04080B000000C5
:1022890000000000F00C00200000000060FD0408C0
:102299000B00000000000000E40C0020000000001A
:1022A9006CFD04080B00000000000000D80C0020A1
:1022B9000000000078FD04080B0000000000000089
:1022C900CC0C00200000000084FD04080B00000075
:1022D90000000000C00C00200000000090FD040870
:1022E9000B00000000000000B40C002000000000FA
:1022F9009CFD04080B00000000000000A80C002051
:1023090000000000A8FD04080B0000000000000008
:102319009C0C002000000000B4FD04080B00000024
:1023290000000000900C002000000000C0FD04081F
:102339000700000000000000880C002000000000D9
:10234900C8FD04080700000000000000800C002000
:1023590000000000D4FD04080B000000000000008C
:10236900740C002000000000E0FD04080B000000D0
:1023790000000000680C002000000000ECFD0408CB
:102389000B000000000000005C0C002000000000B1
:10239900F8FD04080800000000000000500C0020AF
:1023A9000000000008FE04080D0000000000000005
:1023B900440C00200000000018FE0408070000007B
:1023C900000000003C0C00200000000028FE04086A
:1023D9000700000000000000340C0020000000008D
:1023E90038FE040807000000000000002C0C002043
:1023F9000000000048FE040807000000000000007B
:10240900240C002000000000C8F4040802000000A9
:10241900D15801080100000000000000D4F40408AC
:1024290001000000000000000000000000000000A2
:10243900000000000E000000000000000000000085
:10244900000000005CFE040800000000000000001D
:10245900000000000000000070FE040808000000F1
:1024690000000000B00D00200000000080FE0408FC
:102479000800000000000000A40D0020000000007A
:1024890090FE04080800000000000000980D0020DC
:1024990000000000A0FE0408080000000000000081
:1024A9008C0D002000000000B0FE040808000000A8
:1024B90000000000800D002000000000C4FE040898
:1024C9000800000000000000740D0020000000005A
:1024D900D4FE040807000000000000006C0D002075
:1024E90000000000ECFE04080700000000000000E6
:1024F900640D00200000000004FF0408070000002C
:10250900000000005C0D00200000000018FF040816
:102519000700000000000000540D0020000000002A
:1025290028FF040807000000000000004C0D0020EF
:10253900000000003CFF0408070000000000000044
:10254900440D002000000000C8F404080200000047
:10255900D15801080100000000000000D4F404086B
:102569000100000000000000000000000000000061
:10257900000000000E000000000000000000000044
:10258900000000004CFF04080000000000000000EB
:10259900DC050020000000005CFF04080B000000BF
:1025A90000000000740E00200000000068FF04080D
:1025B9000B00000000000000680E00200000000071
:1025C90074FF04080B000000000000005C0E0020EE
:1025D9000000000080FF04080B000000000000005C
:1025E900500E0020000000008CFF04080B000000C2
:1025F90000000000440E00200000000098FF0408BD
:102609000B00000000000000380E00200000000050
:10261900A4FF04080B000000000000002C0E00209D
:1026290000000000B0FF04080B00000000000000DB
:10263900200E002000000000BCFF04080B00000071
:1026490000000000140E002000000000C8FF04086C
:1026590007000000000000000C0E00200000000030
:10266900D4FF04080700000000000000040E002049
:1026790000000000E0FF040807000000000000005F
:10268900FC0D002000000000F0FF04080700000016
:1026990000000000F40D0020000000000000050803
:1026A9000800000000000000E80D00200000000004
:1026B900080005080700000000000000E00D0020E8
:1026C90000000000140005080D00000000000000D3
:1026D900D40D0020000000002400050807000000B8
:1026E90000000000CC0D00200000000030000508AB
:1026F9000700000000000000C40D002000000000D9
:10270900400005080600000000000000BC0D002084
:1027190000000000C8F4040802000000D1580108B4
:102729000100000000000000D4F4040801000000CA
:102739000000000000000000000000000000000090
:102749000E00000000000000000000000000000072
:10275900500005080000000000000000DC05002012
:1027690000000000680005080700000000000000E4
:10277900F80E0020000000007400050808000000A1
:1027890000000000EC0E0020000000008000050899
:102799000700000000000000E40E00200000000017
:1027A9008C0005080700000000000000DC0E002076
:1027B9000000000094000508070000000000000068
:1027C900D40E0020000000009C000508070000004E
:1027D90000000000CC0E00200000000084FF040867
:1027E9000700000000000000C40E002000000000E7
:1027F90090FF04080700000000000000BC0E002044
:10280900000000009CFF0408070000000000000011
:10281900B40E002000000000A40005080700000015
:1028290000000000AC0E002000000000AC0005080C
:102839000700000000000000A40E002000000000B6
:10284900B400050807000000000000009C0E0020ED
:1028590000000000BC00050808000000000000009E
:10286900900E002000000000CC00050807000000C1
:1028790000000000880E002000000000DC000508B0
:102889000700000000000000800E0020000000008A
:10289900C8F4040802000000D15801080100000032
:1028A90000000000D4F4040801000000000000004A
:1028B9000000000000000000000000000E00000001
:1028C90000000000000000000000000000000000FF
:1028D90041330108000F002043CD00202C000000E7
:1028E90024AB040842CD002000C8010040CD0020DF
:1028F900E803D00701000000414C49454E57484FB5
:102909004F50463400000000DDCC002000030100D8
:10291900DCCC00200003010081320108513201089A
:10292900DC0F00200D320108C13101087C100020A4
:10293900C9320108B13201084411002025310108CA
:10294900D130010864140020913801086138010868
:102959005415002055330108795401081C1600202C
:102969001D2F010800000000801600205D58010895
:10297900F53801085C170020D134010855340108E5
:10298900241800200936010855360108DC190020F1
:10299900FBCE002001060100E13301087D33010867
:1029A900341C00204D350108A9540108741D00206C
:1029B9008936010865550108401F0020E6CE002030
:1029C90001030100E4000508000000000000000008
:1029D9000000000000000000F000050808000000E9
:1029E90000000000DC20002000000000F8000508BD
:1029F9000700000000000000D420002000000000B3
:102A0900080105080D00000000000000C820002092
:102A1900000000001401050803000000DD5601084C
:102A2900BC20002000000000C8F4040802000000D7
:102A3900D15801080100000000000000D4F4040886
:102A4900010000000000000000000000000000007C
:102A5900000000000E00000000000000000000005F
:102A6900000000001C010508000000000000000033
:102A790000000000000000002C0105080A00000009
:102A890000000000E0EA0408000000003401050825
:102A99000A0000000000000010F404080000000013
:102AA9003C0105080A000000000000002ED00020AB
:102AB90000000000440105080A00000000000000B1
:102AC900E820002000000000D4F404080100000000
:102AD90000000000000000000000000000000000ED
:102AE9000E000000000000000000000000000000CF
:102AF9004C01050800000000000000000000000073
:102B0900000000005801050803000000DD56010817
:102B190020210020000000006401050803000000D6
:102B2900DD56010814210020000000006C01050891
:102B390003000000DD560108082100200000000004
:102B4900740105080500000000000000DBCC00202E
:102B5900000000007C0105080700000000000000DB
:102B6900002100200000000088010508070000007E
:102B790000000000F820002000000000C8F404084C
:102B890002000000D1580108010000000000000007
:102B9900D4F4040801000000000000000000000057
:102BA90000000000000000000E000000000000000E
:102BB900000000000000000094010508000000006A
:102BC900000000000000000000000000A801050846
:102BD90003000000DD5601085C2100200000000010
:102BE900B401050803000000DD56010804040020B3
:102BF90000000000BC01050803000000DD560108C3
:102C09005021002000000000C40105080300000055
:102C1900DD5601084421002000000000D00105080C
:102C290003000000DD5601083821002000000000E3
:102C390028FA040803000000DD5601082C210020B1
:102C490000000000C8F4040802000000D15801087F
:102C59000100000000000000D4F404080100000095
:102C6900000000000000000000000000000000005B
:102C79000E0000000000000000000000000000003D
:102C8900DC01050800000000000000000000000051
:102C990000000000EC01050807000000E5550108E7
:102CA900AC210020000000004CFA040803000000D9
:102CB900DD560108A021002000000000F8010508E8
:102CC90003000000DD5601089421002000000000E7
:102CD9000002050803000000DD56010888210020D4
:102CE900000000000802050807000000C955010896
:102CF900802100200000000058460508030000005C
:102D0900DD560108742100200000000014020508A6
:102D190003000000DD5601086821002000000000C2
:102D2900C8F4040802000000D1580108010000009D
:102D390000000000D4F404080100000000000000B5
:102D49000000000000000000000000000E0000006C
:102D5900000000000000000000000000113301081D
:102D6900E1320108B4210020C13801080000000047
:102D7900542200209D31010879310108E022002008
:102D89000000000000000000A82300200937010806
:102D990001560108702400202002050800000000E7
:102DA9000000000000000000000000002C020508DF
:102DB90003000000DD5601087C250020000000000A
:102DC9003402050803000000DD56010870250020C3
:102DD900000000004002050803000000DD5601085C
:102DE90064250020000000004402050803000000DB
:102DF900DD56010858250020000000005002050892
:102E090003000000DD5601084C25002000000000E9
:102E19005802050802000000D1580108000000000E
:102E290000000000C8F4040802000000D15801089D
:102E39000100000000000000600205080200000017
:102E4900D158010802000000000000000000000045
:102E59000E0000000000000000000000000000005B
:102E6900C6CC002088136F1701000000C8CC0020D1
:102E790088136F17000000006C02050800000000AD
:102E89000000000000000000000000007C020508AE
:102E990008000000000000005C260020040000007B
:102EA90088020508080000000000000050260020E4
:102EB90000000000ECFA0408040000008D5201082B
:102EC9000000000000000000D4F404080100000024
:102ED90000000000000000000000000000000000E9
:102EE9000E000000000000000000000000000000CB
:102EF900C4CC002088136F1701000000F866002079
:102F090088136F17000000006130010800000000FD
:102F19006826002023D3002001000000D8AB040854
:102F2900FA66002001000000E4AB0408F066002006
:102F390002000000ECAB04083E3E00200000000047
:102F4900000000003C3E00200000000000000000DE
:102F59003A3E00200000000000000000383E00203A
:102F69000000000000000000363E002000000000C4
:102F790000000000343E00200000000000000000B6
:102F8900EC0300200000000000000000C3CC00207A
:102F990002000000F8AB0408C402050800000000A4
:102FA9000000000000000000000000007C0205088D
:102FB9000800000000000000EC26002004000000CA
:102FC900880205080800000000000000E026002033
:102FD90000000000ECFA0408040000003130010888
:102FE9000000000000000000D4F404080100000003
:102FF90000000000000000000000000000000000C8
:103009000E000000000000000000000000000000A9
:10301900D4020508000000000000000000000000C4
:1030290000000000E40205080D000000CD5301086E
:103039001C27002004000000F00205080D00000014
:10304900893001081027002004000000FC0205084F
:103059000D00000091530108042700200000000022
:103069000803050803000000154F0108F826002091
:10307900080000001403050803000000DD560108DC
:10308900202A002000000000D4F4040801000000F8
:103099000000000000000000000000000000000027
:1030A9000E00000000000000000000000000000009
:1030B900F0F5040800000000000000000000000016
:1030C900000000002006050804000000A5520108C0
:1030D9000000000000000000D4F404080100000012
:1030E90000000000000000000000000000000000D7
:1030F9000E000000000000000000000000000000B9
:10310900680305080000000000000000000000003E
:10311900000000001C1B05080D0000000000000055
:103129007C2700200400000078030508080000003F
:103139000000000070270020040000008403050837
:1031490008000000000000006427002004000000BF
:103159008C03050808000000000000005827002023
:1031690004000000940305080800000000000000A6
:103179004C270020040000009C03050808000000FB
:10318900000000004027002004000000A4030508F7
:10319900080000000000000034270020040000009F
:1031A900AC030508080000000000000028270020E3
:1031B90004000000D4F4040801000000000000002D
:1031C9000000000000000000000000000E000000E8
:1031D9000000000000000000000000004930010864
:1031E9000000000088270020000000000000000007
:1031F900002800200000000000000000A028002096
:10320900F66600200400000004AC0408F4660020FF
:10321900E0150C1700000000F3660020080000000C
:10322900A8A20408F26600200500000018AC0408F2
:103239000000000000000000F02800200002000546
:103249001002700B01FFFF00000101010001D6010E
:10325900FFFFFFFF0000803F0000000000000000AA
:10326900000000000000803F000000000000000096
:10327900000000000000803F000000000000000086
:10328900000000000000803FFFFFFFFFFF0000007B
:1032990000000000B8F10020080000000000000054
:1032A900A8F1002008000000ED8E0008DD89000863
:1032B900D5EF0008000000004588000871EC0008FF
:1032C900A18E0008E5EB00080000000000000000E6
:1032D90001880008958700088987000829E3000804
:1032E90045E300080DE30008F1E20008D5E2000813
:1032F900A58E0008B989000821EF00080000000028
:1033090019880008E9EB0008758E000841EB0008F0
:1033190000000000000000000D8800084CDC0408D3
:10332900050804000000000018AC0408A8A204085D
:1033390004AC0408000000000000000078DC040868
:1033490005080A000000000018AC0408A8A2040837
:10335900D8AA040800000000000000001A030000B9
:103369000000000000000000000000000000000054
:10337900000000000000000004030904120100021B
:1033890000000040830420570002010203010101EB
:103399000102FFFF8D25040899820308958203081D
:1033A90091820308F1A803088D8203088982030822
:1033B90068E00408798F0008998900083DED000844
:1033C900000000000000000035EA00085DEA00087E
:1033D900000000000000000000000000F587000860
:1033E9003183030825830308098B0308258B030808
:1033F900DD820308ED8A0308D18A03080100000071
:103409005001000007000000020000000000000059
:10341900000000000102030406070809FF0000007C
:10342900142C002000000000000000000000000033
:103439000000000000000000000000000000000083
:103449000000000000000000000000000000000073
:103459000000000000000000000000000000000063
:103469000000000000000000000000000000000053
:103479000000000000000000000000000000000043
:04348900000000003F
:108000002DE9F04F2DED108B034697B004331593F7
:10801000DFEDCACA149002238A4613928B4612934C
:10802000149C4FEADB0604EB461202EB061031010A
:10803000A6EB86034FEAC60806EB4605CDE900012C
:1080400000EBC303043108F10400119620442144DD
:108050002C01C6EBC60C0394EC00119D04944FEA6E
:10806000CC0405946C0106EB860E0294159D009CD1
:1080700003EB46174FEACE0E02EBC6064FEACB09DA
:108080004FF0000C51ED01AAD3ED001A92ED007AE9
:1080900094ED005A96ED004AD7ED007A15ED012ACD
:1080A00050ED016A32EE07BA76EE840A7AEE855A0E
:1080B00031EEA70A3BEE256A70EE804A76EEC46A7E
:1080C00036EE244A36EE646A05ED014A82ED006A16
:1080D000D0ED00BAD6ED012AD3ED019A95ED00AAB4
:1080E00092ED016A97ED013A91ED00CAD4ED014A93
:1080F0007BEEE23A36EEE19A32EE472A73EEE98AF7
:108100003AEE464A39EE279A78EE838AB0EE428AF2
:10811000A9EE6C8ADC44E24573EEC33AB0EE441A31
:10812000A8EEEC1A76EEE77A33EEA97A7CEE643AA2
:1081300077EEA17A3AEE066A7AEEC51A3CEE24AAE8
:1081400074EECC4A39EE833A35EE6A5AF0EE639A11
:10815000F0EE48AAE7EE2C9AA8EEAC4AE7EE2C4ADD
:10816000E7EE6CAAF0EE418AB0EE427AB0EE612AF8
:108170007BEE656A7BEEA22A76EE4A5AA9EE2C7A4D
:10818000A7EEAC2AA7EEAC5AE7EEEC8A32EE83BA41
:1081900076EEC3BA35EEE09A75EEC07A36EE0A6A2C
:1081A00076EEE26A36EE0BAA76EE836A77EEA07A76
:1081B00034EE423A77EE290A36EE4B6A7BEEA22A7B
:1081C00039EE000A73EEAA3A78EE244A37EE697A5D
:1081D00031EE055A71EEA85A32EE044A85ED00AA36
:1081E00082ED016A4D4441ED012A4A44C4ED006A22
:1081F00081ED000AC4ED017A494440ED010A4C4486
:1082000087ED007AC6ED003AC3ED004A80ED003AF2
:1082100087ED014A484486ED015A4F44C3ED015AA7
:108220004E444B443FF62EAF119B072B40F2C781C3
:10823000029D149E019B03980499059A08357519AF
:108240000C330E95354608F108080EF10804EB18BA
:1082500008300831083246442C1928186918AA1821
:10826000079305F10C030D960C940B900A9109925B
:1082700008934FF001084FF0000E129B9E44139B91
:1082800003EBCE0303EBCE02109302EBCE0303EB22
:10829000CE01029101EBCE0101EBCE0505EBCE063E
:1082A000D6ED007A0F93AEEB8E03019106EB03132C
:1082B00003EBCE07D3ED01AACDED067A019BD5EDF8
:1082C000007A97ED01BACDED057AD3ED007A029BE5
:1082D000CDED047AD3ED007A0F9BCDED037A07EB59
:1082E000CE0CD3ED007ADCED01BACDED027A0CEBC9
:1082F000CE01D2ED007A109A009101EBCE0001463A
:1083000091ED01DACDED017A0099D2ED007A91ED8F
:1083100001CA00EBCE0000EBCE0494ED01EAD0EDF3
:1083200001DACDED007ADDE90776DDE90954DDE912
:108330000B01DDE90D23C44602E000BFF304353F25
:1083400094ED009A90ED00FA91ED006AD5ED007A77
:10835000D3ED006A57ED014A92ED005A56ED013A0D
:1083600096ED00AA35EE060A73EEA65A39EE278A74
:1083700034EE8F7A70EE082A75EE87EA35EE465AAB
:108380003EEEA26A73EEE63A06ED016AD1ED019A7D
:10839000D2ED01FAD4ED016AD3ED011A95ED013A5F
:1083A000D0ED018A97ED004A3FEEE96A35EE491AB1
:1083B00076EE660A31EE271A3AEE612A75EE677A92
:1083C00070EE830A3FEEA95A74EECF9A77EE897A5F
:1083D0007AEE211AB0EE42AA74EE68FAA0EEECAA88
:1083E000DC44E24535EEC77AB0EE639A74EE285A63
:1083F00038EEC44AF0EE698AA1EE6C9AE7EEAC8AD8
:1084000036EE436A7FEE644A36EE266AA0EEAC2A68
:10841000F0EE4A0AE7EEEC0AE7EEAC4AF0EE687AD4
:10842000F0EE498A36EE833AE6EE6C8AE1EE2C3ABB
:10843000B0EE6F1AA6EE2C1A71EEE56AA6EE2C4A83
:1084400071EEA55A75EE031A7EEEE22A37EE43FA74
:1084500075EEE1EAB0EE686A76EEC08A39EE044A5B
:108460007FEE86FA76EEC86A33EE816A38EE888A45
:1084700073EEC13A37EE457A2CEE2E1A3FEE055ACE
:1084800022EECC9A9DED03FA70EE266A33EE077A5F
:10849000AFEE221AAFEE2E9A7AEE244A9DED01FA43
:1084A00079EEA09A25EE4BAA72EE670A37EE822A81
:1084B0006BEE087AAFEE08AAEFEE057A2DEEA63A3B
:1084C0009DED05FA67EE6D8AAFEE073AEFEE268A6C
:1084D00066EE6A2A9DED00FA2AEEA00AEFEE202A47
:1084E0006EEE02EADDED060A23EECE5AE0EEA3EAD6
:1084F0002BEEA98ADDED023AAFEE060AA3EE848ADE
:1085000024EE6B7A6DEE246A9DED044A2FEECD6A5F
:10851000A0EE825AA3EEA97AE4EE2F6AA4EE246AB2
:1085200075EEA15AC6ED005A83ED001A83ED019A4B
:108530004E4447ED017A87ED00AA4B4480ED003AA6
:10854000C0ED018A4F4482ED000A4844C2ED012A81
:10855000C5ED00EA85ED015A4A44C1ED006A81ED9E
:10856000016A4D4484ED008A84ED017A49444C440B
:108570003FF6E6AE0E9B08330E930D9B08330D932A
:108580000C9B08330C930B9B08330B930A9B08330B
:108590000A93099B08330993089B08330893079BA8
:1085A00008330793119B08F1010843457FF465AE3A
:1085B000129BDDF844B0DB009BB2129330E517B09C
:1085C000BDEC108BBDE8F08F074AD2E9003199422B
:1085D0001FBFD1180133097A01701DBFC3F30A030D
:1085E0000120136000207047782C0020064AD2F842
:1085F0000838D2F80C28934294BF4FF40060002052
:10860000013B9B1A18447047782C0020012380F806
:108610004D30704707B501A8FFF7D6FF0028FAD004
:108620009DF8040003B05DF804FB044BD3E900039C
:10863000984288BF03F50063181A7047782C002011
:1086400001207047024BC3F81028C3F81418704774
:10865000782C0020024BC3F81828C3F81C18704768
:10866000782C00207047704730B4124DD5E90023B4
:108670009A4286BF03F50064A21A9A1A0A44B2F518
:10868000006F11D899B101444A1E013810F8014F0A
:10869000E918824203F101030C72C3F30A03F5D116
:1086A0006B60002030BC7047022030BC7047084629
:1086B000F8E700BF782C0020212838B50C4605D0FB
:1086C00022282ED0202813D0002038BD0029FBD02E
:1086D000072AF9D11A4BD3F8200893F8241893F8F5
:1086E000252893F82638206021716271A371EBE789
:1086F0000029E9D0072AE7D1114DD5F814381BB16C
:108700000968D5F810089847206821796279A3791B
:10871000C5F8200885F8241885F8252885F8263816
:10872000D2E70029D0D0022ACED1054AD2F81C388F
:10873000002BC9D00988D2F818089847C4E700BFB1
:10874000782C0020024B0020C3F82808704700BF97
:10875000782C0020044B00200522C3F82828C3F8F9
:108760001C08C3F814087047782C0020704700BF1D
:10877000704700BF704700BF704700BF704700BF21
:10878000704700BF704700BF042301480B8070474B
:108790000000002010B4074A074B92F82C0812245E
:1087A00003F114020C8001280CBF184610465DF836
:1087B000044B7047782C00200400002010B40C4AB1
:1087C00092F82F3802EBC3010133DBB2042B4FF0D8
:1087D000050408BF00234FF4045081F8304882F8A4
:1087E0002F38C1F834085DF8044B4FF0FF30704764
:1087F000782C0020202301480B8070472C0000209B
:10880000642301480B8070474C000020432301483B
:108810000B807047B000002010B5084CD4F8F4006D
:10882000FF2809D00649D1F8502801F65401FFF776
:1088300043FFFF23C4F8F430002010BD00000020E7
:10884000782C0020E8E700BF08B5D0F8E4355B6A73
:108850009847002008BD00BF08B5D0F8E4351B6A72
:108860009847002008BD00BFD0F8E43510B5044695
:108870001B689847D4F8E8359B689847002010BDDE
:1088800008B5D0F8E435DB6903B19847002008BD8E
:1088900008B5042290F81211D0F8E83580F81311C9
:1088A00080F81221DB689847002008BD10B5D0F889
:1088B000E83504461B699847032384F812310020E9
:1088C00010BD00BF0B0617D401EB810300EBC303FF
:1088D00010B400EB81000124002283F8764383F872
:1088E000741383F87523426D5DF8044B136843F4E9
:1088F000001300201360704701F07F0101EB81033A
:1089000000EBC303012200EB810083F81C1183F804
:108910001E2183F81D2182691368002B01DA43F0C0
:10892000804343F400131360002070470B0630B4FB
:108930001CD401EB810200EBC202002300EB810595
:1089400082F8741382F8753301241A4604FA01F18F
:108950006D6D61F31F4201696FF3CF332B60CB69FB
:1089600023EA0203002030BCCB61704701F07F0195
:1089700001EB810400EBC404012200EB810500231C
:1089800084F81C1184F81D2102FA01F11A46AD6920
:1089900061F30F02DFE700BF10B581210446FFF746
:1089A000C5FF20460121FFF7C1FF024B002083F8DD
:1089B0005C0810BD782C002010B581210446FFF71B
:1089C000B5FF20460121FFF7B1FF82212046FFF7C6
:1089D000ADFFFFF7B7FE002010BD00BF38B50D4654
:1089E00004468321FFF7A2FF29462046FFF7E4FF54
:1089F000002038BDF0B416460A063AD401EB8105D2
:108A000000EBC5052824002204FB0104022B85F895
:108A10007413C5F87C6385F8773385F8752304F5FE
:108A20005D7448D0154600EB8107012202FA01F17E
:108A30007F6D61F31F45D7F800C01CF4004F11D1C2
:108A4000E488204946F0805242F4004242EA8342E0
:108A500004F00F041C4B42EA845211400CEA030359
:108A6000194339600269D3692B430020F0BCD361FC
:108A7000704701F07F0101EB810500EBC50528245B
:108A8000012204FB0104022B85F81C11C5F82461A6
:108A900085F81F31A5F8221185F81D2104F58E7483
:108AA0000CD0002500EB8107012202FA01F1BF6919
:108AB00061F30F05BFE722711546B4E70025257164
:108AC000F0E700BFFF87CC13007833EC002310B52C
:108AD000194604464022FFF78DFF802120460023DF
:108AE0004022FFF787FFD4F8E835A078012284F808
:108AF00012215B689847002010BD00BF82B00023A0
:108B0000016801930B6901930E4B03E00A6901921E
:108B1000013B13D0019A002AF8DA019A094B42F07E
:108B200001020192019A0A610A69019203E00A694D
:108B30000192013B02D0019AD207F8D4002002B082
:108B4000704700BF400D0300436D064A1A61C278AA
:108B5000012A06D100F2CC5058614FF080221968EA
:108B60001A6070471800086010B580210446FFF7AE
:108B7000A9FE20460021FFF7A5FE2046BDE81040D3
:108B8000E2E700BF70B44B78012B26D00B784A691E
:108B900000EB83035C6D25682369D2B18A684A6162
:108BA00002F07F0223F4002323F07F0342F400222B
:108BB00013432361C378012B04BF0B696361C5F3C1
:108BC000076363F07B0363F31F652560002070BCBF
:108BD00070478A6802F07F02E4E782694C69156891
:108BE000136944B38E68B4428CBF06F07F0404F06E
:108BF0007F0423F4002323F07F0344F4002443EA9A
:108C0000040388BF4E611361C378012B1DD0C5F3E7
:108C1000076464F07B0464F31F651560002BD5D1F5
:108C20004B69002BD2D002690878516B0123834035
:108C30000B435363CAE723F4002323F07F0343F479
:108C400000231361C378012BE1D10B780C6900EB91
:108C50008300C5F30763816963F07B0363F31F65DA
:108C60004C610020156070BC704700BF2DE9F043D7
:108C70004B78012B30D00B784C6900EB83035E6D91
:108C8000356837691CB38B681C44013CB4FBF3F4B2
:108C9000C4F3090203FB02F3C3F312034B6114464E
:108CA00043EAC44363F31C073761C378012B04BF55
:108CB0000B697361CB78012B44D0C5F3076363F074
:108CC0007B0363F31F6535600020BDE8F0838A688D
:108CD0000124C2F31203E3E791F800804E6900EB30
:108CE000880EDEF818C0DCF80050DCF8107076B39F
:108CF000D1F80890384A06EB0904013CB4FBF9F4BA
:108D000002EAC444C6F312022243CC7807F060475B
:108D10003A43012C174649D0CCF81020C278012ADA
:108D200055D00269516B03FA08F30B435363C5F343
:108D3000076363F07B0363F31F65CCF800500020EA
:108D4000BDE8F0834B7973B345F00055B5E707F004
:108D5000604747F40027CC78CCF81070C378012B1B
:108D60002FD0012CE3D102699268D20554BF45F09F
:108D7000005545F08055C5F3076262F07B0262F34F
:108D80001F65CCF80050002B9ED1B0B2033080108C
:108D9000DEF8D04098D0CA6852F8041B2160013335
:108DA0009842F9D190E745F0805586E764F35E7705
:108DB000CCF81070C378012BD5D10A69CCF81420F7
:108DC000D1E70A69CCF81420012CB0D1CBE70B69AC
:108DD000CCF81430ABE700BF0000F81F38B501EB4A
:108DE000810400EBC4040D46002184F87453C4F8D8
:108DF0008C1384F87513C4F88833C4F88023C378BF
:108E00002821012B01FB050108BFEDB201F55D71C1
:108E100008BFC4F884231DB9FFF7B4FE002038BD95
:108E2000FFF724FF002038BD70B5104BD3F8682839
:108E300093F8805804461AB193F86C382B430DD040
:108E400081212046FFF73EFD022D00D070BD204657
:108E5000074ABDE870401F230121BFE70121FFF74A
:108E600031FD20468121BDE870402BE5782C0020A3
:108E7000D834002010B501EB8101084A00EBC10194
:108E80000446B1F88C131046FFF7EEFB034A204668
:108E900040230121FFF7A2FF002010BDFC34002079
:108EA000E8E700BF10B50223044640228121FFF706
:108EB000A1FD2046022340220121FFF79BFD8221D4
:108EC000204603230822FFF795FD064B02229A83D2
:108ED000FFF740FC044A204640230121FFF77EFFB4
:108EE000002010BD00000020FC34002038B508220E
:108EF0000D46044603238321FFF77CFD29462046C7
:108F0000FFF7D0FF002038BD82B000230193019A03
:108F1000094B42F010020192C168019A0A610A6984
:108F2000019203E00A690192013B02D0019AD20644
:108F3000F8D4002002B07047400D030082B0002337
:108F40000193019A0B4B42F020020192019A61F3C6
:108F50008A120192C168019A0A610A69019203E0CA
:108F60000A690192013B02D0019A9206F8D40020CE
:108F700002B07047400D030070B50446144EFFF771
:108F80000BFD2046022340228121FFF733FD4022C2
:108F9000012120460223FFF72DFDD6F8C438002515
:108FA0001B6886F85C58284686F880589847204603
:108FB000FFF7AAFF20460121FFF7C0FF204606F574
:108FC00006621F230121FFF709FF284670BD00BF7D
:108FD000782C00200E4BDA68D20310D4DA68D10660
:108FE0000FD4DA68D20510D4DA6812F0E00F0AD193
:108FF000DB6813F0020F14BF08200920704701201E
:10900000704706207047072070470220704700BF56
:10901000003C024030B1044B93F9C8080028D4BF8B
:1090200000200120704700BF782C002008B5FFF712
:10903000F1FF18B1024BD3F8CC380B8008BD00BF4C
:10904000782C002008B5FFF7E5FF18B1024B93F824
:10905000D0380B7008BD00BF782C002008B5FFF792
:10906000D9FF80B10B4BB3F8D23863B1192B0BD9B0
:10907000642B0BD9C82B0BD9B3F5C87F94BF03233E
:10908000042301330B7008BD0023FAE70123F8E73E
:109090000223F6E7782C002010B5FFF7BBFF48B19C
:1090A000064B93F8D44834B993F8D5480C7093F82C
:1090B000D638137010BD0024F8E700BF782C0020CC
:1090C0000420704728B1034B93F9F800003818BF0B
:1090D000012070470000002008B5FFF7F3FF50B1F2
:1090E000054B93F9F820022A03BF93F8FB30C3F332
:1090F00040030B70002008BD0000002008B5FFF7FA
:10910000E1FF80B10C4A92F9FA3092F9F820012A75
:109110000ED1272B08DC182B08DC0F2BD4BF002323
:10912000012301330B7008BD0323FAE70223F8E79C
:109130000133DBB2F6E700BF0000002010B5FFF7F7
:10914000C1FFC0B10D4C94F8FB30DB0714D494F987
:10915000F930002BB8BF0733DB100133DBB20B70E3
:1091600094F9F930594201F0070103F0070358BFA1
:109170004B420133137010BD0023F0E700000020C4
:1091800003207047F0B5174AD2F8D85892F8D7386C
:1091900015F0005514BF042706275C1CB4FBF7F636
:1091A00007FB164692F8DC78BE420CD01EB2DB00FC
:1091B00055B102F50E652B4404F0030445F8360062
:1091C00082F8D7485960F0BD02F510652B4445F888
:1091D000360059600621B4FBF1F301FB134482F819
:1091E000D748F0E7782C0020002230B5044610461E
:1091F000914200DC30BDA35C0825584010F0800F80
:109200004FEA400318BF83F0D503013DD8B2F5D132
:109210000132EDE710B5E9B10F4C94F9F820CAB16D
:109220004B1EDBB2032B15D8012A0C4A0C484FEA1F
:10923000C30313444FF005010CBF1B799B7984F8DD
:109240000431FFF7D1FF062184F80501BDE8104085
:10925000034897E710BD00BF00000020EC9E040803
:1092600000010020F8B58368054613B118689B8893
:1092700043836C68171DA3894FF6FF764FF47A730A
:109280000FE083B2A3814FF47A73B4F808C01CF0E6
:10929000010F03F1FF3019D0A08902F8010BBA4287
:1092A0000DD011F8010BB4F808C0013B1CF0020FFF
:1092B0009BB2E6D1B342F6D1204632F019F8AB6842
:1092C00013B11A689B8813830120F8BD83B2B3429F
:1092D000DBD1F1E770B5434CD4F8383906462BB1F1
:1092E0001D22DA801846092130F098FED4F838099A
:1092F00031F0B6FA94F83E39013B5BB2022BDBBF8A
:10930000394A1B010020D058C4F834090223102127
:1093100084F830393BF002F940210A203BF056FB3B
:10932000FF218A203BF052FB94F83C39C0F38012B5
:10933000012B84F83F2900F040003FD0022B2B4D39
:1093400046D0002B40D094F84039B5F80611D4F837
:1093500034091A2B01BFB5F80631A4F84629A4F840
:109360004839A4F844693BF0D9F8B5F80611D4F8A7
:1093700034093BF0D3F8D4F8380931F06BFA022104
:1093800000203BF023FBD4F8380931F069FAD4F817
:10939000340904213BF0C2F894F8512994F8523969
:1093A00094F8501984F84C19C2F12002C3F110034B
:1093B00084F8532984F85439012070BD66B9082314
:1093C0000A4DA5F80631BEE71023A5F80631BAE725
:1093D0000823A5F80631B6E7002814BF0823102398
:1093E000EEE700BF782C00201C05001000000020D4
:1093F000F8B51A4C94F85539002BFBD159B30144F8
:109400004E1E451ED4F80C28D4F8081815F8017F14
:10941000531CC3F30A038B422CBF4FF4006000209F
:10942000C91A224401440129C4F80C3882F8587939
:109430000FD1012030F0E2FBD4F80838D4F80C1832
:109440008B4294BF4FF4006200225B1A1344012B3D
:10945000EFD0B542D6D10020F8BD00BF782C002057
:1094600010B590F84C10002380F84C3079B10B4CBB
:10947000D4F828286AB1D4F82828052A0BD1084C3A
:109480003830236EFFF7B4FF236E012010BD01209A
:10949000FCE71046FAE71846F8E700BF782C0020F2
:1094A000703D0020002280F84D20D9E790F84C2034
:1094B000531C0244DBB280F84C3082F8381090F82C
:1094C0004D200AB1132B00D9CAE77047094B084653
:1094D000D3F8281810B559B1D3F82838052B07D17F
:1094E000054C002A236E03DD1146FFF781FF236E32
:1094F00010BD00BF782C0020703D00202DE9F04108
:109500002DED028B504BDFF864819FED508A504C5B
:10951000012882B015BFDA6ED3F87220B3F870302C
:10952000B3F87630ADF80430D8F8CC3614BF494ED5
:10953000494E009207EE903AB4FBF3F4F8EE677AE6
:10954000371FBDF800200D464449396027EE888A50
:109550007AB194420DD3002D63D0012D09D107EECD
:10956000902A19463E4B3B60B8EE670A304633F00E
:1095700061F8BDF802308BB19C420FD3002D3DD075
:10958000012D0BD107EE903A354AD8F8CC163A6047
:10959000B8EE670A06F1240033F04CF8BDF8043049
:1095A0003BB39C4225D395B1012D22D107EE903AD1
:1095B0002B4AD8F8CC163A60B8EE670A06F1480094
:1095C00002B0BDEC028BBDE8F04133F033B807EEDA
:1095D000903ADFED246A244A3A60F8EEE77A0023F5
:1095E00086EEA77AB36477EE087A88EE277A86ED5E
:1095F000137A02B0BDEC028BBDE8F08107EE903A21
:10960000DFED186A184B3B60F8EEE77A002386EE30
:10961000A77A736277EE087A88EE277A86ED0A7A5F
:10962000BCE707EE902ADFED0F6A0F4B3B60F8EEC8
:10963000E77A002386EEA77A336077EE087A88EE21
:10964000277A86ED017A94E7703D0020BD37863594
:1096500020A107000806001078060010457E0308C8
:10966000B17D030883F9223E757B03081C050010B9
:10967000F8B5124C0546D4F89C0090F834301E3BE7
:10968000012B02D9002130F0AFFC0D4F0026AE4275
:10969000D4F89C000BDB002130F0A6FC236EC4F84C
:1096A000C030B4F8C4300133A4F8C430F8BD17F8A2
:1096B000011B30F099FC0136E9E700BF703D002046
:1096C000103E002070B5124C94F8DC3800EBC30259
:1096D0000D4650F8331050680E4A0023984212DCB1
:1096E0008B780D4A5B0882F8D830C2F8D400FFF7B7
:1096F000BFFF94F8DC180131B1FBF5F305FB131142
:1097000084F8DC1870BDCE5C02F8016B0133E5E72C
:10971000782C0020103E0020703D0020094890F871
:10972000D72890F8DC389A420BD0D0F8D8389B0074
:1097300003D5042100F50E60C4E7062100F5106092
:10974000C0E77047782C00202DE9F84F1A4C0546E9
:10975000202094F8DAB094F8DBA094F8DC60B4F838
:10976000DE80B4F8E07094F8E2901FF0A3FA48B1FC
:1097700020201FF06DFA28B1002F1EBFB846012629
:109780004FF0000B94F8E430DB0707D4B9F1000F79
:1097900004D094F8EB30002B08BF012685F800B008
:1097A00085F801A0AE70A5F80480EF8085F80890D8
:1097B0002846BDE8F88F00BF703D0020F8B57C4C0E
:1097C000D4F80C3173B194F810315BB1794B94F843
:1097D0001121A3FB0013012A4FEA931331D0022A6F
:1097E00008D002B1F8BD744B9842FBD9012384F82C
:1097F0001131F8BDD4F8142164329A4242D894F859
:10980000283104EB031393F82C24FF2A06D06B496C
:109810000132012083F82C2481F808010CF014FD9A
:10982000674A92F840390121092B84F81111D9D1E6
:10983000B4F8C6340B449BB2A4F8C634A2F8463937
:10984000F8BD94F828115E48C4F81431002584F856
:10985000265101EB41030A2504EB431384F82751F9
:1098600090F8405983F84021092D04F58E724FF08D
:109870000203C4F8182184F81131B3D10131A0F8E2
:109880004419F8BD94F8262194F827319A42A9D1B9
:1098900004F21B1004F59275002310F8012F082123
:1098A00053405A0013F0800F08BF5B0082F007029C
:1098B00014BFD3B2DBB20139F3D18542EDD194F8B4
:1098C00025219A423BD194F823C194F8286194F859
:1098D0002431B4F81F0194F81DE1394DB4F8217119
:1098E00004EB061243EA0C2394F81EC182F82C14F0
:1098F00040BA81B24CEA0E2095F840C9DFF8BCE0CE
:10990000C2F830147FBAA2F82E04BFB294F91C0139
:10991000C2F834741BB20121BCF10C0FA2F8383428
:1099200082F82D048EF808112CD0BCF10D0F03D154
:1099300005EB4605A5F844090CF086FC56E794F8BB
:10994000283104EB031393F82C24FF2A06D01B497B
:109950000132012083F82C2481F808010CF074FCFA
:10996000174B93F840290121092A84F811117FF43B
:1099700039AFB4F8C4240A4492B2A4F8C424A3F8BA
:109980004829F8BD94F8C2140E4A03EB830303EB95
:10999000830349089B0005EB460593FBF1F382FB2B
:1099A0000312DB17C3EBA203A5F84439C4E700BFD9
:1099B000703D0020D34D62103F4B4C000000002052
:1099C000782C00206766666600F01F0240090123BC
:1099D000032803FA02F304D004280CD0022805D08F
:1099E0007047074A116C0B4313647047044A516C6B
:1099F0000B4353647047024A116B0B431363704768
:109A000000380240004870479842002000285FD08C
:109A10000368374A2DE9F04103F13F4404F57E0421
:109A200002EB9422012492F8202002F01F05520933
:109A3000032A04FA05F456D0042A4FD0022A48D04B
:109A40008588B5FA85F0C0F11F00C0F3CC0603EBA2
:109A5000860600F0070082000F24306A944020EA56
:109A600004003062306A01FA02F2024300213262DD
:109A70004FF0010E0A464FF0030C02270EFA02F8CF
:109A800038EA050002F101021CD118680CFA01F451
:109A900020EA04001860186807FA01F606431E6001
:109AA0009E6826EA04069E6098689860586820EAD6
:109AB0000800586058685860D86820EA0400D860E8
:109AC000D868D860102A01F10201D7D1BDE8F08131
:109AD0007047084A556C2C435464B1E7054A156B2E
:109AE0002C431463ACE7034A156C2C431464A7E7BA
:109AF000EC9E0408003802402DE9F04700230F686F
:109B000001264FF0030C02E00133102B41D006FA7E
:109B100003F232EA0704F7D1D0F800E05C000CFA57
:109B200004F52EEA050EC0F800E091F80490D0F894
:109B300000A009FA04FE09F1FF394EEA0A0EB9F154
:109B4000010FA846C0F800E06FEA050515D8D0F867
:109B500008E005EA0E0585604D79D0F808E0A540DB
:109B600045EA0E058560456825EA020242608A7969
:109B700045689A4092B22A434260C26822EA0802CB
:109B8000C260CA79C568A24001332A43102BC26063
:109B9000BDD1BDE8F08700BFF0B40D6800240CE033
:109BA000BCF1050F18D8A0F137030A2B14D104EB30
:109BB000840415F8010B03EB4404A0F13003DEB27A
:109BC000092EA0F16107A0F1410CF0D9052FE7D8CB
:109BD000A0F157030A2BEAD00D601460F0BC704767
:109BE0002DE9F047041E0D4612DB092C26DC824AC3
:109BF0000B468248A0FB0410C00800EB8000A4EBD9
:109C000040000021125C1A7059702846BDE8F087A8
:109C100064422D23092C01F8013B24D8764A774B66
:109C2000A3FB0403DB0803EB8303A4EB4303002043
:109C3000D35C48700B702846BDE8F0876F4B632CEF
:109C4000A3FB04264FEAD60621DC6B4A0B466B4980
:109C5000A1FB0601C90801EB8101A6EB4101515CA2
:109C600003F8011BC5E7654A632CA2FB04364FEAE3
:109C7000D60637D8604A614BA3FB0603DB0803EB2B
:109C80008303A6EB4303D35C01F8013BC7E7A3FBC7
:109C90000627B4F57A7F4FEAD7070DD2564A0B460E
:109CA0005649A1FB0701C90801EB8101A7EB41015E
:109CB000515C03F8011BCAE7A3FB072842F20F72AD
:109CC00094424FEAD80836D84B4A0B464B49A1FB81
:109CD0000801C90801EB8101A8EB4101515C03F8BF
:109CE000011BDDE7A2FB0637B4F57A7F4FEAD70701
:109CF0000CD2414A414BA3FB0703DB0803EB830370
:109D0000A7EB4303D35C01F8013BB4E7A2FB0738A0
:109D100042F20F739C424FEAD80821D8364A374B9B
:109D2000A3FB0803DB0803EB8303A8EB4303D35C2B
:109D300001F8013BDEE7324AA3FB080994424FEAEF
:109D4000D90921D82C4A0B462C49A1FB0901C90885
:109D500001EB8101A9EB4101515C03F8011BB5E75F
:109D6000274BA2FB08099C424FEAD90921D8224A75
:109D7000224BA3FB0903DB0803EB8303A9EB43039B
:109D8000D35C01F8013BCAE71E4AA3FB09039442D6
:109D90004FEAD30A21D80B461849174AA1FB0A01FA
:109DA000C90801EB8101AAEB4101515C03F8011BD9
:109DB000CAE7144BA2FB09029C424FEAD20A13D80D
:109DC0000E4B0D4AA3FB0A03DB0803EB8303AAEB4C
:109DD0004303D35C01F8013BCAE70A22BAFBF2F065
:109DE00033F0D4F90346D7E70A22BAFBF2F033F096
:109DF000CDF90146E4E700BFB8EA0408CDCCCCCCED
:109E00009F8601003F420F0038B54FF02033C0E974
:109E10000033044683600D4639B108463CF08CFEA1
:109E20002946024620463FF097FF3AF07DFA20B1DE
:109E300035B10648294633F05BFB0023E37238BD99
:109E40000349024833F054FBF7E700BFC04300204A
:109E500076EB04082DE9F0418A4C94F86C0604F581
:109E6000CC6382B0C4F85C3618B9002002B0BDE8FB
:109E7000F0812FF0E3FCC4F8680620B1837913B1B8
:109E8000353B012BF1D894F86D36013B02225BB2D1
:109E9000934284F86026E8DC7B4A1B01D358002BF0
:109EA000E3D0C4F8643638B11A23C380092130F0F6
:109EB000B5F8D4F85C36986830F0D2FCD4F85C364B
:109EC000102158683AF02AFBD4F85C36C4F8703692
:109ED00032209F2300932FF091FE002301AA6946B0
:109EE000D4F85C068DF80530FFF7BCF99DF8062024
:109EF0009DF805009DF80710644B120242EA0042EB
:109F00000A439A4200F08A8074DC614B9A4229D05D
:109F10003CDCA3F51A43033B9A4200F09A8003F518
:109F20001A4302339A421AD15A4BC4F878364FF486
:109F300080304FF400014FF480720023C4F87C0697
:109F4000C4F88016A4F8842684F88636524BC4F8E8
:109F50007436012084F88D0602B0BDE8F0814F4BC5
:109F60009A4219D14FF001254FF480304FF08071A3
:109F70004FF480720023C4F87856C4F87C06C4F805
:109F80008016A4F8842684F88636DFE7444B9A428C
:109F900067D001339A42C7D0002594F86C06A4F824
:109FA0007856A4F88456C4F87C56C4F880562FF02E
:109FB00045FC3C4E804616F8017B38462FF03EFCAF
:109FC000804558D001350B2DF5D194F89C56284684
:109FD0002FF034FC80454CD094F89D5628462FF045
:109FE0002DFC804508BF01217FF43FAF284631F0AA
:109FF0005AF93AE72C4B1344042BCDD8042BCBD879
:10A0000001A252F823F000BF53A0000863A000088B
:10A01000299F0008659F00081DA00008234BC4F875
:10A0200078364FF000714FF480334FF48075002282
:10A03000C4F87C36C4F880160123D4F87006A4F85E
:10A040008456B72184F8862684F88C363BF06EFC63
:10A050007CE7174BC4F878364FF480304FF400118A
:10A0600069E7144BC4F878364FF480304FF4800120
:10A0700061E70021BAE73846294631F026F9002089
:10A08000F4E600BF703D00201C0500101920C2003E
:10A0900018BA200080000001149F04081860010015
:10A0A0001620C20000440020EBBF10FF0002000198
:10A0B00020000001400000012DE9F041204D95F8FD
:10A0C000A33685F89E3605F5D46705F2A46600240C
:10A0D0004FF0050817F8010B20BB30600134032C4A
:10A0E00006F10406F6D195F89E16D5F8A406C943E4
:10A0F00001F0010130F0BAFB95F89E16D5F8A806DC
:10A1000081F00201C1F3400130F0B0FB95F89E16DA
:10A11000D5F8AC0681F00401BDE8F041C1F380013F
:10A1200030F0A4BB2FF08AFB013401213060E3B290
:10A1300010B180F80680C371306830F0EBF9CEE7DB
:10A14000703D002099B10A6B824216D9154BD3F8A5
:10A15000DC26914221D34C3991421ED30B6B98429D
:10A16000F9D38B6B9842F6D80B46184670470D4BC7
:10A17000D3F8DC160A6B904212D30B680BB9F4E7E4
:10A180000A6B90420B4602D38A6B9042EDD951F88C
:10A190004C3F002BF4D118467047002318467047F7
:10A1A0000A46D8E7703D00202DE9F047CC0143D1A5
:10A1B0000346224A43F8082B4FF0FF324260022444
:10A1C00018467E26DFF87880D8F8E0962644013ECF
:10A1D000051D49466FF070474FF0010A08E0A342A1
:10A1E0001CD0631C45F8043C321B1C460435CAB124
:10A1F0000B6BA34202D88B6BA34204D22046FFF71D
:10A20000A1FF014690B10A794B6B002AE7D1A34226
:10A2100004D0E6D245F8042C631CE5E745F8047C3D
:10A22000631CE1E7C8F8E016BDE8F08745F804AC28
:10A23000321B631C4946D8E78026C3E7F8FFFF0FAF
:10A24000703D0020036870B55E6A26B13346052272
:10A25000BDE87040184704460D464E1D00E02368D7
:10A260009B68204698470028F9D0236815F8011B01
:10A270001B6820469847B542F1D170BD2DE9F04FDB
:10A280009BB0DDE9247ADDF8989004460D46164629
:10A29000984602E020682FF09BFE20682FF0A0FE79
:10A2A0000028F7D10146642201A83FF0B6FD2A4BF1
:10A2B0008DF80450CDF85CA00293002D48D0AB1E61
:10A2C000012B47D9042D14BF00230323DFF88CA0F2
:10A2D0008DF80530DAF8603003971F440123CDE98B
:10A2E000059404978DF85B3036B14246314607A895
:10A2F0003FF032FD8DF85A809AF82A774FF0000926
:10A30000132FCDF8609015D89AF829B7642202FB74
:10A310000BA001A90BF1010B00F22C703FF01CFD0A
:10A32000BBF1130FD8BF5FFA8BF901378AF82A7790
:10A330008AF82997236843B1434632462946204686
:10A340001BB0BDE8F04F0EF0DBBF1BB0BDE8F08FD7
:10A350000523BBE70223B9E758440020703D0020E5
:10A360009FED737A07EE901A20EE070AF8EE677AEF
:10A3700027EE800AFDEEC07A17EE903A2033402B8C
:10A3800000F2C780DFED6B7AB4EEE70AF1EE10FA67
:10A39000F0EE407A0CDD9FED686ADFED686AB0EEA2
:10A3A000677AB4EEE67AF1EE10FA77EEC67AF6DC6A
:10A3B0009FED637AF4EEC77AF1EE10FA0CD59FEDBB
:10A3C0005E6ADFED606AB0EE677AB4EEE67AF1EECF
:10A3D00010FA77EE867AF6D49FED5B7AF4EEC77AC0
:10A3E000F1EE10FA00F38D809FED587AF4EEC77A03
:10A3F000F1EE10FA44BF9FED527A77EE677A27EEBE
:10A40000A76ADFED535A9FED537ADFED536AA6EE4C
:10A41000257A67EE865AE6EE076AB6EE007AE5EE32
:10A42000A67A27EE877ADFED486A70EE267ABDEECF
:10A43000E76A16EE103A2033402B67D8B4EEE60AEE
:10A44000F1EE10FA0CDDDFED3C5A9FED3C6AF0EEC8
:10A45000676AF4EEC66AF1EE10FA77EEE57AF6DC9A
:10A46000DFED376AF4EEE67AF1EE10FA0CD5DFEDA7
:10A47000325A9FED346AF0EE676AF4EEC66AF1EE86
:10A4800010FA77EEA57AF6D4DFED2F6AF4EEE67ACD
:10A49000F1EE10FA40DDDFED276A76EEE77A67EE3F
:10A4A000A75A9FED2B5A9FED2B6ADFED2B6AA5EE85
:10A4B000856A27EEA55AE5EE866AB8EE006AE5EEF3
:10A4C000267A67EE867AC7EE206A002383614361AD
:10A4D0000362C361B7EE006A76EE865A76EE666A6C
:10A4E00086EE257A67EE277A66EE876AC0ED017AF6
:10A4F000C0ED037A80ED007A80ED027AC0ED046A47
:10A5000070479FED0C7A77EE677A78E7DFED137A84
:10A51000D9E79FED127A86E7DFED0C6AF4EEE67A72
:10A52000F1EE10FA44BFDFED066A76EEE77AB6E7A1
:10A5300027D4D236DB0F4940DB0FC940E4CB1641AC
:10A54000DB0F49C0E4CB16C1DB0FC93FDB0FC9BF2E
:10A5500092E741B99730083C15A82ABE00000000D8
:10A560002DE9F047464EDFF81CA196F89E16D6F866
:10A57000A806C1F3400130F079F996F89E16D6F896
:10A58000A406C94301F0010130F070F905274FF02E
:10A5900001094FF00008D6F8A83633B11A689B8835
:10A5A00051690B4214BF53831383D6F8A43633B1D9
:10A5B0001A689B8851690B4214BF53831383B6F802
:10A5C000003F002B4DD196F8021FD6F8040F30F053
:10A5D0004DF932252FF0B6FA04462FF0B3FA031BDB
:10A5E000B3F57A7FF9D3013DF4D1D6F8A83633B16B
:10A5F0001A689B8851690B4214BF53831383D6F8A2
:10A60000A43633B11A689B8851690B4214BF538337
:10A610001383B6F8003FCBB996F8021FD6F8040FA3
:10A6200081F0010130F022F932252FF08BFA044637
:10A630002FF088FA031BB3F57A7FF9D3013DF4D1EB
