:020000040800F2
:10000000F0FF00101D970408F9FF0008CDCE03088B
:10001000B9970408B9970408B997040800000000CC
:100020000000000000000000000000007906010848
:10003000750601080000000071060108F5C50308F7
:10004000B9970408B9970408B9970408B997040840
:10005000B9970408B99704085DE203089DE3030813
:100060005DE303081DE30308DDE203087D6D04087A
:100070006D6D04085D6D04084D6D0408396D04084C
:10008000256D0408116D0408B9970408B997040890
:10009000B9970408B9970408B99704089DE20308C2
:1000A000B997040845C00308B997040855C0030868
:1000B00035C0030825C0030815C00308B997040814
:1000C000B9970408B9970408B9970408B9970408C0
:1000D000B9970408A1C8030805C8030869C703083D
:1000E0001DE20308B9970408A9200108B99704087C
:1000F000E5BF0308B9970408F5BF0308FD6C0408C1
:10010000B9970408215F040805C00308B9970408DB
:10011000CDC60308B99704088D4B0308552403087E
:10012000E96C0408D56C0408C16C0408AD6C0408C3
:10013000996C0408B9970408B9970408B99704089A
:10014000B9970408B9970408B9970408FDFF000897
:10015000856C0408716C04085D6C040831C60308E2
:10016000B9970408B9970408B9970408B99704081F
:10017000B9970408B9970408B9970408B99704080F
:08018000B9970408B9970408BF
:08018800CC920400010000000C
:1001900005100600E06F00204C70002000000000F9
:1001A000E006000813020300EC3400205470002025
:1001B00000000000E6060008040080000C6F00202C
:1001C0005870002000000000000000002300100014
:1001D000E46E0020D8700020000000002DA501086A
:1001E0000D0034008C640020E87000200000000046
:1001F000314C030813000400D86300201C71002058
:1002000000000000EC060008F6210C00DC63002072
:100210002071002000000000F0060008F531740095
:10022000106300202C7100200000000049340408F5
:100230000B301400FC620020A071002000000000C0
:10024000FC06000801010400F8620020B4710020DF
:10025000000000000000000000010400F462002023
:10026000B871002000000000100700080201030020
:10027000F0620020BC71002000000000A14B0308C8
:10028000FD011E00C0620020C071002000000000BF
:10029000FD9E03080610180014560020E07100208F
:1002A00000000000251D0208FB010100105600207F
:1002B000F87100200000000091320408FC010900E0
:1002C000DC540020FC71002000000000A132040872
:1002D000F9010400D454002008720020000000003E
:1002E000759F030802000C00A45400200C7200202B
:1002F00000000000000000000A60360048350020C1
:1003000018720020000000001407000834001000DC
:10031000445200205072002000000000F91C020826
:10032000110208001C520020607200200000000032
:100330004A070008121204001452002068720020BC
:10034000000000005207000818202C00E85100208F
:100350006C720020000000004933040812200D00D8
:10036000C0510020987200200000000056070008CD
:100370000202030040350020A872002000000000A7
:10038000000000000C0203002C350020AC7200209D
:1003900000000000F12F0408FE010900B840002011
:1003A000B072002000000000D12F04081B020800DA
:1003B00024ED002094FF002000000000013004081C
:1003C00001200800A4FE00209CFF00200000000087
:1003D000640700081900050024FF0020A4FF002086
:1003E000000000006C07000837001E00FCFE002023
:1003F000ACFF002000000000720700081E0005008E
:1004000004EB0020CCFF0020000000009007000853
:100410001B00F40048E70020D4FF0020000000008B
:10042000B540010826000E00D8000120C8000120B8
:1004300000000000152A01081F201C007CEA002093
:100440000C010120000000009607000805020400CE
:10045000B8ED00202801012000000000B2070008CC
:1004600003010A006CEA00202C01012000000000BA
:10047000B60700082C001000240F0120140F0120E3
:100480000000000079B201082B002400580F012061
:10049000340F0120000000004DB20108291078003F
:1004A000240E01207C0F012000000000000000004D
:1004B0002810100004100120F40F0120000000009B
:1004C00019A5010814000400AC0D0120141001202E
:1004D00000000000C00700080E020200F80B012017
:1004E0001810012000000000C407000810100300CD
:1004F000180C01201C10012000000000C607000895
:10050000F8210600100C012020100120000000003E
:10051000CA0700082F001100FC0B01202810012041
:1005200000000000D00700080C20B400A005012046
:100530003C100120000000004DBA02080E8062014C
:10054000E6030120F010012000000000A11C0208B9
:10055000090201004C0B0120541201200000000090
:10056000E207000801020500620301205812012081
:1005700000000000A99901080002050058090120A7
:100580006012012000000000000000001A000E00B0
:1005900080170120B81A012000000000E4070008BD
:1005A0000312330070130120821A012000000000A2
:1005B000F20700082500960004140120EC19012020
:1005C0000000000000000000150070006C12012007
:1005D0007C19012000000000000000002A006000DB
:1005E000A41301201C19012000000000791C02083E
:1005F0000A020A003C1D0120C41D01200000000069
:100600002608000803000100341D0120D01D012030
:10061000000000000000000016000800781E012005
:10062000D01E01200000000030080008180202005F
:10063000A01E0120F81E01200000000000000000A4
:1006400017020B00951E0120FC1E01200000000077
:10065000612F040814020200CC1E0120081F012093
:100660000000000038080008FF010800C41E012037
:100670000C1F012000000000F567040808120900A3
:100680008C1E0120141F012000000000B12F04085F
:10069000F7010600821E0120201F0120000000003B
:1006A0003A0800081A023C00381F012034230120B8
:1006B00000000000BD32040827000400742301205C
:1006C0007023012000000000400800081002010013
:1006D0000428012000280120000000004408000830
:1006E000200002010000000000000000080040108F
:1006F0000000000001000000020200002B21231E68
:1007000064010100000001000A012900230A000021
:100710009001000000300100000000007300730031
:100720006900000000000000000000000000000060
:100730000000020000019E077D00FA0096005802AA
:10074000B80BB80BB80B2000C40900000000010171
:100750000101FFFFFFFF00000001000005504952AA
:1007600058000000E8036400040A000100002801AA
:10077000000020003200C800D007960014003200AC
:100780002800B00440060005500014000F000801C6
:100790000000010000000000000000010000000552
:1007A0000000010203000000000000000000000043
:1007B000000000000000040101006C1600000000B1
:1007C000030000460000000500000101F4011400D0
:1007D0000000000000000000000000000000000019
:1007E000000029007E05EA05B4050300E803D007F0
:1007F00000000000000000000000000000000000F9
:1008000000000000000000000000000000000000E8
:1008100000000000000000000000000000000000D8
:1008200000000000010000004A01B400D6011400DD
:10083000C4090700B401282800001F0100000000BF
:05084000200300000090
:100845000403090412010002EF0201408304563239
:100855000002010203010000120100020202004031
:100865008304405700020102030100001A0300003F
:100875000000000000000000000000000000000073
:10088500000000000000000004030904120100023A
:10089500000000408304205700020102030100000C
:1008A50009022000010104C0320904000002080603
:1008B50050050705810240000007050102400000C0
:1008C50009026400030100C03209040000010300AD
:1008D50000000921110100012226000705830308F4
:1008E500000A080B010202020100090401000102CD
:1008F5000201000524001001052401000204240260
:10090500020524060102070582030800FF09040207
:1009150000020A00000007050102400000070581EA
:100925000240000009024300020100C03209040030
:100935000001020201000524001001052401000147
:10094500042402020524060001070582030800FFAE
:1009550009040100020A0000000705010240000029
:100965000705810240000000FF00000008000000AC
:1009750005010905A101A100050109300931093267
:10098500093309350934094009381581257F75086A
:1009950095088102C0C0000009022200010100E0A3
:1009A50032090400000103010200092111010001BF
:1009B5002226000705830308000A0000498800086D
:1009C50045880008418800083588000831880008F6
:1009D5003D880008398800080101000000600240D8
:1009E500106002400000000000000000000B000045
:1009F5000000000000000000000000000060024050
:100A0500286002400100000000000000060C000004
:100A1500000000000000000000000000006002402F
:100A2500406002400200000000000000100D0000C0
:100A3500000000000000000000000000006002400F
:100A4500586002400300000000000000160E000080
:100A550000000000000000000000000000600240EF
:100A6500706002400400000000000000200F00003C
:100A750000000000000000000000000000600240CF
:100A850088600240050000000000000026100000FC
:100A950000000000000000000000000000600240AF
:100AA500A0600240060000000000000030110000B8
:100AB500000000000000000000000000006002408F
:100AC500B86002400700000000000000362F00005B
:100AD500000000000000000000000000006402406B
:100AE5001064024000000000000000000038000013
:100AF500000000000000000000000000006402404B
:100B050028640240010000000000000006390000D2
:100B1500000000000000000000000000006402402A
:100B2500406402400200000000000000103A00008E
:100B3500000000000000000000000000006402400A
:100B4500586402400300000000000000163B00004E
:100B550000000000000000000000000000640240EA
:100B6500706402400400000000000000203C00000A
:100B750000000000000000000000000000640240CA
:100B850088640240050000000000000026440000C3
:100B950000000000000000000000000000640240AA
:100BA500A06402400600000000000000304500007F
:100BB500000000000000000000000000006402408A
:100BC500B86402400700000000000000364600003F
:100BD50000000000000000000000000041A1000826
:100BE50065A0000885930008B58A00085DA4000883
:100BF500C58A0008E18A00088D8A00087D8A0008F8
:100C05000000000000000000BDA3000891A300083B
:100C150075A30008858800081DA30008C5A2000863
:100C25008188000830040020C1A50008A1A500089E
:100C35008DA400080000000000000000359F00089A
:100C4500619E000800000000000000000000000098
:100C5500298A00080D8900080189000881A2000879
:100C65009DA20008B988000865A2000849A20008ED
:100C7500008002021F00000053544D202020202038
:100C850050726F64757420202020202020202020A1
:100C9500302E303100FFFF0000000000AA5505018D
:100CA50000000100000001FFFF010000000000003E
:100CB5000102030401020304060708092D202D2D56
:100CC500202D2D2D2D202D2D2D2D00000000000077
:100CD5000000000000000000000000AA550B010004
:100CE50000AA5507010000AA5509020000000000EE
:100CF50001000000C012AA5503009F00FF1FFF1F3F
:100D0500FC04002004000000E800012000000000B1
:100D15000000803F0000803F000000000000000050
:100D250000000000000000000000000000000000BE
:100D350000000000000000000000000000020005A7
:100D45001002700BE001010101000000999B0108F0
:100D5500000000008006002098140508000000002F
:100D65000000000000000000000000000CFB04086B
:100D7500000000000000000007070020040000003C
:100D85001C1405080D00000045BE0108CC2A0020F2
:100D950000000000880A05080D0000006DBE01086E
:100DA500C02A002000000000600C050808000000B3
:100DB50000000000B42A002004000000F40A050821
:100DC5000D0000004D9C0108A82A0020000000002D
:100DD500B80B050803000000EDC201089C2A00209D
:100DE50000000000A814050803000000EDC201087A
:100DF500902A002000000000B80505080100000049
:100E050000000000000000000000000000000000DD
:100E15000E000000000000000000000000000000BF
:100E25009814050800000000000000000000000004
:100E3500000000000CFB040800000000000000009A
:100E45000707002004000000C81305080300000080
:100E550069BC0108842A002008000000F40A05087E
:100E65000D0000004D9C0108A82A0020000000008C
:100E7500B80B050803000000EDC201089C2A0020FC
:100E850000000000A814050803000000EDC20108D9
:100E9500902A002000000000B805050801000000A8
:100EA500000000000000000000000000000000003D
:100EB5000E0000000000000000000000000000001F
:100EC500B01405080000000000000000000000004C
:100ED500000000000CFB04080000000000000000FA
:100EE5000707002004000000D013050803000000D8
:100EF500EDC20108D82A002000000000B805050849
:100F050001000000000000000000000000000000DB
:100F1500000000000E0000000000000000000000BE
:100F25000000000020700020702D720001080000F4
:100F350000010101000000000000000000000000A9
:100F45004026002001D6012D202D2D202D2D2D2DC3
:100F5500202D2D2D000000000000000000000000E5
:100F65000000000000000000FFFFFFFFFA00000086
:100F75000100000001000000840601200000F401CA
:100F850001000000820601200000F40101000000BC
:100F9500800601200000F401010000007E0601200A
:100FA5000000F401010000007C0601200000F401AE
:100FB500010000007A0601200000F4010100000094
:100FC500780601200000F401010000002C05050849
:100FD500000000000000000000000000000000000C
:100FE50044050508000000000000000000000000A6
:100FF500000000006405050808000000000000006E
:1010050080070020000000007005050808000000AA
:101015000000000074070020000000007C050508A2
:101025000800000000000000680700200000000024
:101035006810050808000000000000005C0700209B
:1010450000000000880505080800000000000000F9
:101055005007002000000000940505080800000066
:10106500000000004407002000000000A00505085E
:101075000800000000000000380700200000000004
:10108500AC0505080200000099C101080200000036
:1010950000000000B8050508010000000000000080
:1010A5000000000000000000000000000E0000002D
:1010B5000000000000000000000000009DA30108E2
:1010C5005DA301088C07002076060120053201008A
:1010D50074060120E803D007010000007206012014
:1010E500E803D0070100000070060120E803D007DF
:1010F500010000006E0601201E00B80B0100000073
:101105006C0601201E00F401010000006A060120A2
:101115001400640001000000680601200000C800FA
:1011250001000000C0050508C80505080C060508EE
:1011350000000000000000000000000000000000AA
:101145004405050800000000000000000000000044
:10115500000000002006050808000000000000004F
:10116500D808002000000000280605080800000037
:1011750000000000CC080020000000003C06050827
:101185000800000000000000C0080020000000006A
:10119500500605080800000000000000B408002003
:1011A50000000000640605080800000000000000BB
:1011B500A8080020000000007406050808000000CB
:1011C500000000009C0800200000000084060508BF
:1011D500080000000000000090080020000000004A
:1011E500940605080700000000000000880800209C
:1011F50000000000A406050803000000EDC2010878
:101205007C08002000000000AC0505080200000075
:1012150099C101080200000000000000B80505089A
:1012250001000000000000000000000000000000B8
:10123500000000000E00000000000000000000009B
:1012450000000000D40605080000000000000000B2
:10125500000000000000000074FD04080400000008
:10126500DFBB01080000000000000000B80505080C
:101275000100000000000000000000000000000068
:10128500000000000E00000000000000000000004B
:1012950000000000E6EA00200100C409000000008B
:1012A500E4EA00200100C40900000000E2EA002091
:1012B5000100C40900000000E0EA00200100C409A3
:1012C50000000000DCEA00200100C4090000000065
:1012D500DEEA00200100C40900000000DAEA00206F
:1012E5000100C40900000000D8EA00200100C4097B
:1012F50000000000760301200000FFFF0A00000047
:10130500740301200100C8000100000072030120E0
:10131500320030753200000070030120055A0500C7
:101325006D03012000FF01006F0301200100000093
:10133500E40800206B03012002000000CCCA040869
:101345006C03012000FF01006E0301200100000075
:10135500E40800206A03012002000000CCCA04084A
:101365006003012080C1803E050000005E0301206E
:1013750080C1803E050000005C03012080C1803EE5
:10138500050000005A03012080C1803E05000000D1
:101395005903012000FF0100580301200A32010012
:1013A5005703012004000000D8CA04085603012091
:1013B50002000000ECCA040819A30108D5A201081F
:1013C500EC0800208A060120EE02CA080100000090
:1013D5008806012000C8010064000000870601207E
:1013E50000C801006400000086060120020000001C
:1013F500F8CA04080000000000000000040A0020EC
:1014050068ED00209CFF2C0100000000060500206F
:101415000A00000004CB04084C030120E0150C175A
:101425000000000008050020080000000CC70408A3
:10143500070500200500000044CC04084E030120E8
:10144500020000001CCB0408960601200100FF7F66
:1014550001000000950601200200000028CB0408C9
:101465005A0501200000F401010000005805012083
:101475000000F40101000000560501200000F40100
:1014850001000000540501200000F40101000000E6
:101495006A0501200100803E050000006605012067
:1014A5000000803E64000000640501200000803ECD
:1014B50064000000620501200000803E6400000019
:1014C50068050120030000020100000060050120FD
:1014D500C800E803010000005E0501201E00E803C6
:1014E500010000005C0501200000E8030100000088
:1014F500520501200000803E01000000500501203A
:101505000000803E010000004E0501200000803EE5
:10151500010000004C0501200000803E0100000094
:101525004A0501200000803E010000004805012019
:101535000000803E010000009B05012019640100A8
:101545009F050120006401009E0501200064010043
:101555009D0501200A3201009C05012003000000C1
:1015650038CB040898050120E803D0070A000000DD
:101575009605012000FA01000A00000095050120EA
:1015850000FA01000A0000009405012000FA01009C
:101595000A00000083050120006401008205012086
:1015A500006401008A050120006401000A000000B2
:1015B50089050120006401000A000000880501205A
:1015C500006401000A0000008D050120006401008F
:1015D5000A0000008C050120006401000A000000DB
:1015E5008B050120006401000A0000008705012029
:1015F50000FF01000A0000008605012000FF010030
:101605000A0000008505012000FF01000A00000016
:1016150093050120005F01000A00000092050120EA
:10162500005F01000A00000091050120005F010034
:101635000A00000090050120005F01000A0000007B
:101645008F05012019AF01000A0000008E05012059
:1016550019AF01000A000000D4030120000A0100AF
:10166500D3030120000A0100D2030120000A010072
:10167500E403012000FA0100E303012000FA010060
:10168500E203012000FA0100E00301200000F4015B
:1016950001000000DE0301200000F401010000004C
:1016A500DC0301200000F40101000000DA03012041
:1016B5000000F40101000000D80301200000F4013E
:1016C50001000000D60301200000F4010100000024
:1016D50080050120FF0801007F050120016401004C
:1016E5007E050120006401007D0501200100000048
:1016F50048CB04087C05012000C801007A050120BB
:101705000000D007010000007905012000C8010094
:101715007805012000C801007705012000C80100F7
:101725007605012000C801007505012000FA0100B9
:101735000A0000007205012000FA01000A000000FD
:101745006F05012000FA01000A0000007405012060
:1017550000FA01000A0000007105012000FA0100ED
:101765000A0000006E05012000FA01000A000000D1
:101775007305012000FA01000A0000007005012030
:1017850000FA01000A0000006D05012000FA0100C1
:101795000A00000056060120010A01005E0601202C
:1017A50000FA01005C0601200000E80305000000C6
:1017B5006706012000C801006606012000C8010077
:1017C5006506012000C801006406012000C801006B
:1017D5006306012000C801006206012000C801005F
:1017E5006106012000C801006006012000C8010053
:1017F5005F06012000C801005A06012000FA010019
:10180500580601200000E8030500000055060120E8
:101815000064010018070508000000000000000032
:101825000000000000000000A40F050809000000EA
:1018350000000000A80A002004000000BC0F0508F5
:1018450009000000000000009C0A002004000000C0
:10185500B41105080900000000000000900A0020EE
:1018650004000000E0540508090000000000000025
:10187500840A00200400000028070508090000006C
:1018850000000000780A0020040000003007050869
:1018950009000000000000006C0A002004000000A0
:1018A500380705080900000000000000600A002054
:1018B50004000000400705080900000000000000C2
:1018C500540A002004000000B805050801000000C6
:1018D5000000000000000000000000000000000003
:1018E5000E000000000000000000000000000000E5
:1018F5006409050800000000000000000000000069
:10190500000000005C45050807000000000000001D
:10191500D80A00200000000074090508080000002E
:1019250000000000CC0A0020000000008009050826
:101935000800000000000000C00A002000000000B0
:10194500880905080800000000000000B40A00200E
:1019550000000000AC0505080200000099C101085F
:101965000100000000000000B805050801000000A6
:101975000000000000000000000000000000000062
:101985000E00000000000000000000000000000044
:101995009809050800000000000000000000000094
:1019A50000000000A80905080D0000000000000067
:1019B500140B002000000000B00905080D00000010
:1019C50000000000080B002000000000B809050811
:1019D5000700000000000000000B002000000000D0
:1019E500C00905080D00000000000000F40A0020F1
:1019F50000000000C80905080D00000000000000F7
:101A0500E80A002000000000D009050807000000D2
:101A150000000000E00A002000000000AC050508F9
:101A25000200000099C1010801000000000000004B
:101A3500B8050508010000000000000000000000D6
:101A450000000000000000000E0000000000000083
:101A55000000000000000000D80905080000000093
:101A65000000000000000000000000005C450508C3
:101A75000C000000000000007803012000000000B9
:101A8500EC0905080C000000000000007A030120A5
:101A950000000000FC0905080C0000000000000023
:101AA500B0030120000000000C0A05080C0000002E
:101AB50000000000A403012000000000200A050822
:101AC5000C000000000000007C0301200000000065
:101AD5002C0A05080C000000000000007E03012010
:101AE50000000000340A05080C000000000000009A
:101AF5008003012000000000480A05080C000000D2
:101B0500000000008203012000000000500A0508C3
:101B15000C0000000000000084030120000000000C
:101B2500580A05080C00000000000000C20301204F
:101B350000000000700A05080C000000000000000D
:101B450086030120000000007C0A05080C00000047
:101B5500000000008803012000000000200C05089B
:101B65000C000000000000008A03012000000000B6
:101B7500840A05080C000000000000008C03012009
:101B850000000000900A05080C000000000000009D
:101B95008E030120000000009C0A05080C000000CF
:101BA500000000009003012000000000A80A0508BD
:101BB5000C0000000000000092030120000000005E
:101BC500B40A05080C000000000000009403012081
:101BD50000000000C00A05080C000000000000001D
:101BE500A803012000000000C80A05080C00000039
:101BF50000000000A603012000000000D00A05082F
:101C05000C00000000000000B403012000000000EB
:101C1500DC0A05080C00000000000000B6030120E6
:101C250000000000E80A05080C00000000000000A4
:101C3500BC03012000000000ACFC04080C000000FF
:101C4500000000009603012000000000F40A0508CA
:101C55000C000000000000009E03012000000000B1
:101C6500FC0A05080C000000000000009803012094
:101C750000000000080B05080C0000000000000033
:101C85009A03012000000000140B05080C00000059
:101C9500000000009C030120000000001C0B05084B
:101CA5000C00000000000000A0030120000000005F
:101CB500280B05080C00000000000000AA03012005
:101CC50000000000300B05080C00000000000000BB
:101CD500A2030120000000003C0B05080C000000D9
:101CE50000000000B203012000000000480B0508B9
:101CF5000C00000000000000AC0301200000000003
:101D0500500B05080C00000000000000AE03012088
:101D150000000000580B05080C0000000000000042
:101D2500B803012000000000600B05080C0000004E
:101D350000000000BA03012000000000680B050840
:101D45000C00000000000000CA0301200000000094
:101D5500B8050508010000000000000000000000B3
:101D650000000000000000000E0000000000000060
:101D75000000000000000000700B050800000000D6
:101D85000000000000000000000000007C0B0508BA
:101D95000D000000000000006C0B0020000000009A
:101DA500840B05080D00000000000000600B0020FA
:101DB500000000008C0B0508070000000000000073
:101DC500580B002000000000980B050807000000D4
:101DD50000000000500B002000000000A40B0508C7
:101DE5000900000000000000440B00200000000076
:101DF500B00B05080900000000000000380B0020AA
:101E050000000000BC0B05080900000000000000F0
:101E15002C0B002000000000CC0B05080900000079
:101E250000000000200B002000000000AC050508A4
:101E35000200000099C10108010000000000000037
:101E4500B8050508010000000000000000000000C2
:101E550000000000000000000E000000000000006F
:101E65000000000000000000E00B05080000000075
:101E75000000000000000000000000004405050807
:101E8500000000000000000000000000000000004D
:101E9500F00B05080D00000000000000A80B002055
:101EA50000000000FC0B05080B000000000000000E
:101EB5009C0B002000000000080C05080B0000002A
:101EC50000000000900B002000000000180C050821
:101ED5000800000000000000840B00200000000046
:101EE5002C0C050803000000EDC20108780B00204A
:101EF50000000000AC0505080200000099C10108BA
:101F05000200000000000000B805050801000000FF
:101F150000000000000000000000000000000000BC
:101F25000E0000000000000000000000000000009E
:101F3500380C05080000000000000000000000004B
:101F450000000000480C0508050000000000000026
:101F5500D103012000000000AC05050802000000C7
:101F650099C101080100000000000000B80505083E
:101F7500010000000000000000000000000000005B
:101F8500000000000E00000000000000000000003E
:101F950000000000500C05080000000000000000D3
:101FA50000000000000000000CFB04080000000019
:101FB500000000007C040020040000005C0C050803
:101FC5000D00000041BC0108FC0B002000000000D2
:101FD5001C1405080D000000519B0108F00B0020A2
:101FE50000000000880A05080D000000359B010867
:101FF500E40B002000000000600C0508080000004C
:1020050000000000D80B002004000000F40A0508B9
:102015000D0000007D9A0108CC0B00200000000097
:10202500680C05080900000000000000C00B002036
:1020350004000000B80B050803000000EDC201080C
:10204500B40B002000000000B805050801000000E1
:10205500000000000000000000000000000000007B
:102065000E0000000000000000000000000000005D
:10207500700C0508000000000000000000000000D2
:1020850000000000800C05080D00000000000000A5
:10209500140C002000000000880C05080A00000050
:1020A50000000000D509012000000000940C05087F
:1020B5000A00000000000000DD090120000000000A
:1020C5009C0C05080A00000000000000E50901203D
:1020D50000000000A40C0508080000000000000036
:1020E500080C002000000000AC05050802000000F7
:1020F50099C101080100000000000000B8050508AD
:1021050001000000000000000000000000000000C9
:10211500000000000E0000000000000000000000AC
:1021250000000000AC0C05080000000000000000E5
:102135000000000000000000C00C050808000000B9
:1021450000000000EC0C002000000000D00C050889
:102155000800000000000000E00C00200000000066
:10216500E00C05080800000000000000D40C002069
:1021750000000000F00C0508080000000000000049
:10218500C80C002000000000000D05080800000034
:1021950000000000BC0C002000000000100D050828
:1021A5000800000000000000B00C00200000000046
:1021B500200D05080800000000000000A40C002008
:1021C500000000002C0D05080800000000000000BC
:1021D500980C0020000000003C0D050808000000D8
:1021E500000000008C0C0020000000004C0D0508CC
:1021F5000800000000000000800C00200000000026
:10220500540D05080800000000000000740C0020B3
:10221500000000005C0D050808000000000000003B
:10222500680C002000000000640D0508080000008F
:10223500000000005C0C0020000000006C0D05088B
:102245000800000000000000500C00200000000005
:102255007C0D05080800000000000000440C00206B
:1022650000000000880D05080800000000000000BF
:10227500380C002000000000940D0508080000003F
:10228500000000002C0C002000000000A00D050837
:102295000800000000000000200C002000000000E5
:1022A500AC0505080200000099C101080100000005
:1022B50000000000B805050801000000000000004E
:1022C5000000000000000000000000000E000000FB
:1022D500000000000000000000000000AC0D050833
:1022E5000000000000000000E706002000000000DC
:1022F500B80D05080B000000000000000C0E0020C2
:1023050000000000C80D05080B00000000000000DB
:10231500000E002000000000D40D05080B00000091
:1023250000000000F40D002000000000E40D050889
:102335000B00000000000000E80D00200000000078
:10234500F00D05080B00000000000000DC0D00206A
:1023550000000000040E05080B000000000000004E
:10236500D00D002000000000140E05080B00000031
:1023750000000000C40D002000000000200E05082C
:102385000B00000000000000B80D00200000000058
:102395002C0E05080B00000000000000AC0D00200D
:1023A50000000000380E05080B00000000000000CA
:1023B500A00D002000000000440E05080B000000E1
:1023C50000000000940D002000000000500E0508DC
:1023D5000B00000000000000880D00200000000038
:1023E5005C0E05080B000000000000007C0D0020BD
:1023F50000000000680E05080B000000000000004A
:10240500700D002000000000740E05080B00000090
:1024150000000000640D002000000000800E05088B
:1024250007000000000000005C0D00200000000017
:10243500880E05080700000000000000540D00206C
:1024450000000000940E05080B00000000000000CD
:10245500480D002000000000A00E05080B0000003C
:10246500000000003C0D002000000000AC0E050837
:102475000B00000000000000300D002000000000EF
:10248500B80E05080800000000000000240D00201B
:1024950000000000C80E05080D0000000000000047
:1024A500180D002000000000D80E050807000000E8
:1024B50000000000100D002000000000E80E0508D7
:1024C5000700000000000000080D002000000000CB
:1024D500F80E05080700000000000000000D0020B0
:1024E50000000000080F05080700000000000000BC
:1024F500F80C002000000000AC05050802000000F3
:1025050099C101080100000000000000B805050898
:1025150001000000000000000000000000000000B5
:10252500000000000E000000000000000000000098
:10253500000000001C0F050800000000000000005E
:102545000000000000000000300F05080800000032
:1025550000000000840E002000000000400F050868
:102565000800000000000000780E002000000000B8
:10257500500F050808000000000000006C0E002048
:1025850000000000600F05080800000000000000C2
:10259500600E002000000000700F05080800000014
:1025A50000000000540E002000000000840F050804
:1025B5000800000000000000480E00200000000098
:1025C500940F05080700000000000000400E0020E1
:1025D50000000000AC0F0508070000000000000027
:1025E500380E002000000000C40F05080700000099
:1025F50000000000300E002000000000D80F050884
:102605000700000000000000280E00200000000068
:10261500E80F05080700000000000000200E00205C
:1026250000000000FC0F0508070000000000000086
:10263500180E002000000000AC050508020000008F
:1026450099C101080100000000000000B805050857
:102655000100000000000000000000000000000074
:10266500000000000E000000000000000000000057
:10267500000000000C10050800000000000000002C
:10268500E4060020000000001C1005080B000000F7
:1026950000000000480F0020000000002810050879
:1026A5000B000000000000003C0F002000000000AF
:1026B500341005080B00000000000000300F00205A
:1026C50000000000401005080B000000000000009D
:1026D500240F0020000000004C1005080B0000002E
:1026E50000000000180F0020000000005810050829
:1026F5000B000000000000000C0F0020000000008F
:10270500641005080B00000000000000000F002009
:1027150000000000701005080B000000000000001C
:10272500F40E0020000000007C1005080B000000DE
:1027350000000000E80E00200000000088100508D9
:102745000700000000000000E00E0020000000006F
:10275500941005080700000000000000D80E0020B6
:1027650000000000A01005080700000000000000A0
:10277500D00E002000000000B01005080700000082
:1027850000000000C80E002000000000C010050871
:102795000800000000000000BC0E00200000000042
:1027A500C81005080700000000000000B40E002056
:1027B50000000000D41005080D0000000000000016
:1027C500A80E002000000000E41005080700000026
:1027D50000000000A00E002000000000F010050819
:1027E5000700000000000000980E00200000000017
:1027F500001105080600000000000000900E0020F2
:1028050000000000AC0505080200000099C10108A0
:102815000100000000000000B805050801000000E7
:1028250000000000000000000000000000000000A3
:102835000E00000000000000000000000000000085
:10284500101105080000000000000000E40600204B
:102855000000000028110508070000000000000026
:10286500CC0F00200000000034110508080000000E
:1028750000000000C00F0020000000004011050806
:102885000700000000000000B80F00200000000055
:102895004C1105080700000000000000B00F0020E3
:1028A50000000000541105080700000000000000AA
:1028B500A80F0020000000005C11050807000000BB
:1028C50000000000A00F00200000000044100508D3
:1028D5000700000000000000980F00200000000025
:1028E500501005080700000000000000900F0020B0
:1028F500000000005C100508070000000000000053
:10290500880F002000000000641105080700000082
:1029150000000000800F0020000000006C11050879
:102925000700000000000000780F002000000000F4
:10293500741105080700000000000000700F00205A
:10294500000000007C1105080800000000000000E0
:10295500640F0020000000008C110508070000002E
:10296500000000005C0F0020000000009C1105081D
:102975000700000000000000540F002000000000C8
:10298500AC0505080200000099C10108010000001E
:1029950000000000B8050508010000000000000067
:1029A5000000000000000000000000000E00000014
:1029B5000000000000000000000000000000000012
:1029C500E19E0108D40F0020CF0301202C00000058
:1029D50050CB0408CE03012000C80100CC03012020
:1029E500E803D00701000000504952584634000062
:1029F50069030120000301006803012000030100B1
:102A0500219E0108F19D0108B0100020AD9D01082F
:102A1500619D010850110020699E0108519E010821
:102A250018120020C59C0108719C0108381500206A
:102A35000DA40108DDA3010828160020F59E010854
:102A450095BE0108F0160020BD9A0108000000009F
:102A55005417002045C0010871A401083018002052
:102A650075A00108F99F0108E4180020ADA101082F
:102A7500F9A101089C1A0020810501200106010029
:102A8500859F01081D9F0108F41C0020F1A0010885
:102A9500C5BE0108341E00202DA2010885BF01080E
:102AA500002000206C05012001030100A411050888
:102AB5000000000000000000000000000000000011
:102AC500B011050808000000000000009C2100204E
:102AD50000000000B8110508070000000000000014
:102AE5009421002000000000C81105080D00000019
:102AF500000000008821002000000000D411050816
:102B050003000000EDC201087C2100200000000048
:102B1500AC0505080200000099C10108010000008C
:102B250000000000B80505080100000000000000D5
:102B35000000000000000000000000000E00000082
:102B4500000000000000000000000000DC11050886
:102B55000000000000000000000000000000000070
:102B6500EC1105080A000000000000002CFA04081A
:102B750000000000F41105080A0000000000000034
:102B8500F404050800000000FC1105080A00000017
:102B9500000000008C06012000000000041205085A
:102BA5000A00000000000000A8210020000000002D
:102BB500B805050801000000000000000000000045
:102BC50000000000000000000E00000000000000F2
:102BD50000000000000000000C12050800000000C5
:102BE50000000000000000000000000018120508A9
:102BF50003000000EDC20108D821002000000000FC
:102C05002412050803000000EDC20108CC210020B4
:102C1500000000002C12050803000000EDC20108A9
:102C2500C021002000000000341205080500000046
:102C35000000000067030120000000003C120508A9
:102C45000700000000000000B8210020000000007F
:102C5500481205080700000000000000B021002010
:102C650000000000AC0505080200000099C101083C
:102C75000100000000000000B80505080100000083
:102C8500000000000000000000000000000000003F
:102C95000E00000000000000000000000000000021
:102CA50054120508000000000000000000000000AC
:102CB500000000006812050803000000EDC20108CD
:102CC5001422002000000000741205080300000013
:102CD500EDC201080C050020000000007C1205086B
:102CE50003000000EDC201080822002000000000DA
:102CF5008412050803000000EDC20108FC21002034
:102D0500000000009012050803000000EDC2010854
:102D1500F021002000000000F40A0508030000006F
:102D2500EDC20108E421002000000000AC05050803
:102D35000200000099C10108010000000000000028
:102D4500B8050508010000000000000000000000B3
:102D550000000000000000000E0000000000000060
:102D650000000000000000009C12050800000000A3
:102D7500000000000000000000000000AC12050883
:102D8500070000000DC001086422002000000000BB
:102D9500180B050803000000EDC2010858220020A9
:102DA50000000000B812050803000000EDC201088C
:102DB5004C22002000000000C0120508030000009E
:102DC500EDC201084022002000000000C8120508DD
:102DD50007000000F1BF01083822002000000000B4
:102DE5000055050803000000EDC201082C22002053
:102DF50000000000D412050803000000EDC2010820
:102E05002022002000000000AC050508020000009B
:102E150099C101080100000000000000B80505087F
:102E2500010000000000000000000000000000009C
:102E3500000000000E00000000000000000000007F
:102E450000000000B19E0108819E01086C2200204F
:102E55003DA40108000000000C2300203D9D010851
:102E6500199D0108982300200000000000000000C3
:102E750060240020ADA2010829C0010828250020F2
:102E8500E01205080000000000000000000000003E
:102E950000000000EC12050803000000EDC2010867
:102EA5003426002000000000F4120508030000008D
:102EB500EDC201082826002000000000D0FC04080F
:102EC50003000000EDC201081C26002000000000E0
:102ED5000013050803000000EDC2010810260020BC
:102EE500000000000C13050803000000EDC20108F6
:102EF500042600200000000014130508020000004D
:102F050099C101080000000000000000AC0505089B
:102F15000200000099C10108010000000000000046
:102F25001C1305080200000099C1010802000000F9
:102F350000000000000000000E000000000000007E
:102F450000000000000000005203012088136F17E5
:102F5500010000005403012088136F1700000000D2
:102F65002813050800000000000000000000000014
:102F750000000000381305080800000000000000EC
:102F85001427002004000000441305080800000071
:102F9500000000000827002000000000B80B05080D
:102FA50004000000A9BC01080000000000000000AA
:102FB500B805050801000000000000000000000041
:102FC50000000000000000000E00000000000000EE
:102FD50000000000000000005003012088136F1757
:102FE50001000000A8ED002088136F170000000005
:102FF500019C01080000000020270020D4090120C1
:103005000100000004CC0408AAED00200100000026
:1030150010CC0408A0ED00200200000018CC040824
:10302500D26F00200000000000000000D06F0020DB
:103035000000000000000000CE6F0020000000002E
:1030450000000000CC6F0020000000000000000020
:10305500CA6F00200000000000000000C86F0020BB
:103065000000000000000000B40400200000000083
:10307500000000004F0301200200000024CC0408DA
:10308500801305080000000000000000000000009B
:1030950000000000381305080800000000000000CB
:1030A500A4270020040000004413050808000000C0
:1030B500000000009827002000000000B80B05085C
:1030C50004000000D19B0108000000000000000082
:1030D500B805050801000000000000000000000020
:1030E50000000000000000000E00000000000000CD
:1030F500000000000000000090130508000000001B
:10310500000000000000000000000000A0130508FA
:103115000D000000E9BD0108D427002004000000CF
:10312500AC1305080D000000299C0108C8270020E4
:1031350004000000B81305080D000000ADBD01082E
:10314500BC27002000000000C41305080300000090
:1031550089BC0108B027002008000000D01305082D
:1031650003000000EDC20108D82A0020000000007D
:10317500B80505080100000000000000000000007F
:1031850000000000000000000E000000000000002C
:103195000000000000000000D40605080000000043
:1031A50000000000000000000000000074FD04089D
:1031B50004000000C1BC0108000000000000000080
:1031C500B80505080100000000000000000000002F
:1031D50000000000000000000E00000000000000DC
:1031E5000000000000000000241405080000000095
:1031F500000000000000000000000000282A05086B
:103205000D0000000000000034280020040000002C
:1032150034140508080000000000000028280020DC
:10322500040000004014050808000000000000002C
:103235001C280020040000004814050808000000B0
:1032450000000000102800200400000050140508AC
:103255000800000000000000042800200400000011
:10326500581405080800000000000000F827002099
:1032750004000000601405080800000000000000BC
:10328500EC27002004000000681405080800000071
:1032950000000000E027002004000000B805050834
:1032A5000100000000000000000000000000000018
:1032B500000000000E0000000000000000000000FB
:1032C50000000000E99B01080000000040280020E4
:1032D5000000000000000000B828002000000000E9
:1032E5000000000058290020A6ED00200400000081
:1032F50030CC0408A4ED0020E0150C1700000000F8
:10330500A3ED0020080000000CC70408A2ED002072
:103315000500000044CC0408000000000000000087
:10332500A8290020FFFF0000FFFFFFFF0000803FEE
:103335000000000000000000000000000000803FC9
:103345000000000000000000000000000000803FB9
:103355000000000000000000000000000000803FA9
:10336500FFFFFFFFFF00000000000000E81E012036
:103375000800000000000000D81E01200800000021
:1033850041A400083DA6000841A000080000000077
:10339500798A000871920008899F0008E991000860
:1033A5000000000000000000358A00085988000868
:1033B5004D88000811A200082DA20008F5A10008FB
:1033C500D9A10008BDA10008F9A3000819A60008A5
:1033D5008D9F0008000000004D8A0008ED9100084F
:1033E5005D9F00084D9100080000000000000000EE
:1033F500418A00089CF60408050804000000000046
:1034050044CC04080CC7040830CC040800000000B4
:1034150000000000C8F6040805080A0000000000C6
:1034250044CC04080CC7040804CB040800000000C1
:1034350000000000010102FFFF0000000100000084
:10344500500100000700000002000000010000001C
:10345500000000000000000001020304060708093F
:10346500FF000000282C00200000000000000000E4
:103475000000000000000000000000000000000047
:103485000000000000000000000000000000000037
:103495000000000000000000000000000000000027
:1034A5000000000000000000000000000000000017
:1034B5000000000000000000000000000000000007
:0834C5000000000000000000FF
:10800000F0B401292A4C2B4D23684FF0000694BF91
:1080100000270127EE626662A6626763676B47EA24
:1080200042076763EE63EC6B002A38D144F4957421
:10803000EC631C6824F001041C601C68E407FCD499
:10804000490289085960D8601968EAB921F04001ED
:10805000196019498B421DD018494FF47410C8603B
:10806000196841F01E011960596941F08001596198
:10807000196841F00101196022B90E4AD36A43F030
:108080000803D362F0BC704741F0400119600A490F
:108090008B42E1D14FF0746041F8500CE0E744F0BE
:1080A0001A04EC63EC6A44F00804EC62C1E700BF18
:1080B000882C0020002C01405864024000640240DB
:1080C0002DE9F04F2DED108B034697B00433159337
:1080D000DFEDCACA149002238A4613928B4612938C
:1080E000149C4FEADB0604EB461202EB061031014A
:1080F000A6EB86034FEAC60806EB4605CDE900016C
:1081000000EBC303043108F104001196204421441C
:108110002C01C6EBC60C0394EC00119D04944FEAAD
:10812000CC0405946C0106EB860E0294159D009C10
:1081300003EB46174FEACE0E02EBC6064FEACB0919
:108140004FF0000C51ED01AAD3ED001A92ED007A28
:1081500094ED005A96ED004AD7ED007A15ED012A0C
:1081600050ED016A32EE07BA76EE840A7AEE855A4D
:1081700031EEA70A3BEE256A70EE804A76EEC46ABD
:1081800036EE244A36EE646A05ED014A82ED006A55
:10819000D0ED00BAD6ED012AD3ED019A95ED00AAF3
:1081A00092ED016A97ED013A91ED00CAD4ED014AD2
:1081B0007BEEE23A36EEE19A32EE472A73EEE98A36
:1081C0003AEE464A39EE279A78EE838AB0EE428A32
:1081D000A9EE6C8ADC44E24573EEC33AB0EE441A71
:1081E000A8EEEC1A76EEE77A33EEA97A7CEE643AE2
:1081F00077EEA17A3AEE066A7AEEC51A3CEE24AA28
:1082000074EECC4A39EE833A35EE6A5AF0EE639A50
:10821000F0EE48AAE7EE2C9AA8EEAC4AE7EE2C4A1C
:10822000E7EE6CAAF0EE418AB0EE427AB0EE612A37
:108230007BEE656A7BEEA22A76EE4A5AA9EE2C7A8C
:10824000A7EEAC2AA7EEAC5AE7EEEC8A32EE83BA80
:1082500076EEC3BA35EEE09A75EEC07A36EE0A6A6B
:1082600076EEE26A36EE0BAA76EE836A77EEA07AB5
:1082700034EE423A77EE290A36EE4B6A7BEEA22ABA
:1082800039EE000A73EEAA3A78EE244A37EE697A9C
:1082900031EE055A71EEA85A32EE044A85ED00AA75
:1082A00082ED016A4D4441ED012A4A44C4ED006A61
:1082B00081ED000AC4ED017A494440ED010A4C44C5
:1082C00087ED007AC6ED003AC3ED004A80ED003A32
:1082D00087ED014A484486ED015A4F44C3ED015AE7
:1082E0004E444B443FF62EAF119B072B40F2C78103
:1082F000029D149E019B03980499059A08357519EF
:108300000C330E95354608F108080EF10804EB18F9
:1083100008300831083246442C1928186918AA1860
:10832000079305F10C030D960C940B900A9109929A
:1083300008934FF001084FF0000E129B9E44139BD0
:1083400003EBCE0303EBCE02109302EBCE0303EB61
:10835000CE01029101EBCE0101EBCE0505EBCE067D
:10836000D6ED007A0F93AEEB8E03019106EB03136B
:1083700003EBCE07D3ED01AACDED067A019BD5ED37
:10838000007A97ED01BACDED057AD3ED007A029B24
:10839000CDED047AD3ED007A0F9BCDED037A07EB98
:1083A000CE0CD3ED007ADCED01BACDED027A0CEB08
:1083B000CE01D2ED007A109A009101EBCE00014679
:1083C00091ED01DACDED017A0099D2ED007A91EDCF
:1083D00001CA00EBCE0000EBCE0494ED01EAD0ED33
:1083E00001DACDED007ADDE90776DDE90954DDE952
:1083F0000B01DDE90D23C44602E000BFF304353F65
:1084000094ED009A90ED00FA91ED006AD5ED007AB6
:10841000D3ED006A57ED014A92ED005A56ED013A4C
:1084200096ED00AA35EE060A73EEA65A39EE278AB3
:1084300034EE8F7A70EE082A75EE87EA35EE465AEA
:108440003EEEA26A73EEE63A06ED016AD1ED019ABC
:10845000D2ED01FAD4ED016AD3ED011A95ED013A9E
:10846000D0ED018A97ED004A3FEEE96A35EE491AF0
:1084700076EE660A31EE271A3AEE612A75EE677AD1
:1084800070EE830A3FEEA95A74EECF9A77EE897A9E
:108490007AEE211AB0EE42AA74EE68FAA0EEECAAC7
:1084A000DC44E24535EEC77AB0EE639A74EE285AA2
:1084B00038EEC44AF0EE698AA1EE6C9AE7EEAC8A17
:1084C00036EE436A7FEE644A36EE266AA0EEAC2AA8
:1084D000F0EE4A0AE7EEEC0AE7EEAC4AF0EE687A14
:1084E000F0EE498A36EE833AE6EE6C8AE1EE2C3AFB
:1084F000B0EE6F1AA6EE2C1A71EEE56AA6EE2C4AC3
:1085000071EEA55A75EE031A7EEEE22A37EE43FAB3
:1085100075EEE1EAB0EE686A76EEC08A39EE044A9A
:108520007FEE86FA76EEC86A33EE816A38EE888A84
:1085300073EEC13A37EE457A2CEE2E1A3FEE055A0D
:1085400022EECC9A9DED03FA70EE266A33EE077A9E
:10855000AFEE221AAFEE2E9A7AEE244A9DED01FA82
:1085600079EEA09A25EE4BAA72EE670A37EE822AC0
:108570006BEE087AAFEE08AAEFEE057A2DEEA63A7A
:108580009DED05FA67EE6D8AAFEE073AEFEE268AAB
:1085900066EE6A2A9DED00FA2AEEA00AEFEE202A86
:1085A0006EEE02EADDED060A23EECE5AE0EEA3EA15
:1085B0002BEEA98ADDED023AAFEE060AA3EE848A1D
:1085C00024EE6B7A6DEE246A9DED044A2FEECD6A9F
:1085D000A0EE825AA3EEA97AE4EE2F6AA4EE246AF2
:1085E00075EEA15AC6ED005A83ED001A83ED019A8B
:1085F0004E4447ED017A87ED00AA4B4480ED003AE6
:10860000C0ED018A4F4482ED000A4844C2ED012AC0
:10861000C5ED00EA85ED015A4A44C1ED006A81EDDD
:10862000016A4D4484ED008A84ED017A49444C444A
:108630003FF6E6AE0E9B08330E930D9B08330D9369
:108640000C9B08330C930B9B08330B930A9B08334A
:108650000A93099B08330993089B08330893079BE7
:1086600008330793119B08F1010843457FF465AE79
:10867000129BDDF844B0DB009BB2129330E517B0DB
:10868000BDEC108BBDE8F08F084AD2E90E3199425B
:1086900009D0D118013391F840100170C3F30A03D7
:1086A0009363012070470020704700BF882C002092
:1086B000064AD2F84038D2F84428934294BF4FF487
:1086C00000600020013B9B1A18447047882C002052
:1086D000012380F84D30704707B501A8FFF7D4FF9C
:1086E0000028FAD09DF8040003B05DF804FB044BA9
:1086F000D3E90E03984288BF03F50063181A704748
:10870000882C002001207047024BC3F84828C3F88A
:108710004C187047882C0020024BC3F85028C3F82F
:1087200054187047882C00207047704730B4124DA1
:10873000D5E90E239A4286BF03F50064A21A9A1A5D
:108740000A44B2F5006F12D8A1B101444A1E0138A3
:1087500010F8014FE918824203F1010381F840400B
:10876000C3F30A03F4D1EB63002030BC704702204E
:1087700030BC70470846F8E7882C0020212838B51F
:108780000C4605D022282ED0202813D0002038BD3A
:108790000029FBD0072AF9D11A4BD3F8580893F8CF
:1087A0005C1893F85D2893F85E382060217162713F
:1087B000A371EBE70029E9D0072AE7D1114DD5F8DD
:1087C0004C381BB10968D5F84808984720682179CA
:1087D0006279A379C5F8580885F85C1885F85D2892
:1087E00085F85E38D2E70029D0D0022ACED1054ADA
:1087F000D2F85438002BC9D00988D2F850089847CD
:10880000C4E700BF882C0020024B0020C3F860089A
:10881000704700BF882C0020044B00200522C3F8BD
:108820006028C3F85408C3F84C087047882C00200F
:10883000704700BF704700BF704700BF704700BF60
:10884000704700BF704700BF704700BF0423014856
:108850000B8070470000002010B4074A074B92F8C5
:108860006408122403F114020C8001280CBF18467E
:1088700010465DF8044B7047882C0020040000204F
:1088800000207047002070470023F0B452004F1CB6
:108890001E46B0F1204F4FEA107404F130052ABF94
:1088A0003734CD54CC54FE5402339A424FEA001070
:1088B000EFD1F0BC704700BF0B4A0C4B10681B682F
:1088C0001A22C0180A8001D10948704710B5094B17
:1088D00009491C680822FFF7D7FF204607490422F0
:1088E000FFF7D2FF024810BDE8F7FF1FECF7FF1FAC
:1088F0002C000020EAF7FF1F2E0000203E00002081
:10890000042301480B8070474800002012230148CF
:108910000B8070474C000020A0B182680D4B12B153
:1089200007229A7070471978DA6003294FF0040023
:108930000CBF80214FF48071C3E901111A611A75CF
:1089400098707047034B41F2B41101225A545A7087
:10895000704700BFBCA200200378022B10D0006932
:1089600008B9012070470B4B1B78032B0EBF0A4B35
:1089700080B24FF6F773984294BF002001207047F1
:10898000064A43681268B3EB422F2CBF0120002037
:10899000704700BFBCA20020F7FFFF0FDCB400202F
:1089A0000378022B14D030B4104A4368006941F2B6
:1089B000182441F210211559515841F20C242B4032
:1089C00012595B0A023801FB0030104430BC70477A
:1089D000064B426841F2042103F590505B58006851
:1089E00000EB430000EB5220704700BFBCA2002008
:1089F00010B40C4A92F8673802EBC3010133DBB2C2
:108A0000042B4FF0050408BF00234FF4045081F8F5
:108A1000684882F86738C1F86C085DF8044B4FF07D
:108A2000FF307047882C0020202301480B807047BE
:108A300060000020642301480B8070478000002004
:108A4000432301480B807047E400002010B5084C18
:108A5000D4F82801FF2809D00649D1F8882801F662
:108A60008C01FFF78BFEFF23C4F82831002010BDD6
:108A700000000020882C0020E8E700BF08B5D0F8EF
:108A8000E4355B6A9847002008BD00BF08B5D0F800
:108A9000E4351B6A9847002008BD00BFD0F8E435D4
:108AA00010B504461B689847D4F8E8359B6898478A
:108AB000002010BD08B5D0F8E435DB6903B1984754
:108AC000002008BD08B5042290F81211D0F8E8354E
:108AD00080F8131180F81221DB689847002008BD48
:108AE00010B5D0F8E83504461B699847032384F88D
:108AF0001231002010BD00BF00285DD0036803F1D3
:108B00003F4202F57E022DE9F041920A324DAA5C05
:108B100002F01F0552090124032A04FA05F456D075
:108B2000042A4FD0022A48D08588B5FA85F0C0F1D2
:108B30001F00C0F3CC0603EB860600F0070082009E
:108B40000F24306A944020EA04003062306A01FA4F
:108B500002F20243002132624FF0010E0A464FF04A
:108B6000030C02270EFA02F838EA050002F10102AE
:108B70001CD118680CFA01F420EA04001860186887
:108B800007FA01F606431E609E6826EA04069E6008
:108B900098689860586820EA0800586058685860DB
:108BA000D86820EA0400D860D868D860102A01F19B
:108BB0000201D7D1BDE8F0817047084A556C2C43BB
:108BC0005464B1E7054A156B2C431463ACE7034AC0
:108BD000156C2C431464A7E764BD040800380240F8
:108BE0002DE9F84FDFF8D0B09BF894180124022942
:108BF000074619461046CBF82C404FF000022C4C8B
:108C00001D4618BF7F02FFF7FBF92A4B63626B0218
:108C1000A362E36A40F2FF5943F093034FF40070FC
:108C20004FF48A62E3620121C4F83890A0601020FA
:108C3000E2603CF0C7FF012D40F251434E46C4F8BC
:108C40003890CA4640F252488EBF4FF012099846FB
:108C50004FF011090A25C4F838A00121A760484641
:108C6000C4F80C803CF0AEFF03464FF0000C40F21D
:108C7000774201213720A6632BB900231846CBF891
:108C80002830BDE8F88FA663C4F808C0E2603CF065
:108C900099FF013DA6630028EFD015F0FF05DAD15A
:108CA0000346CBF82C50CBF82830BDE8F88F00BF36
:108CB000002C014000E1F505882C00202DE9F84F3B
:108CC0002F4DDFF8C09095F894180229074618BF79
:108CD0004702012B1E4640F259484FF0010498BF4D
:108CE0004FF48B683B462C6347469346B04640F2B0
:108CF000FF558CBF4FF0190A4FF0180A0A241E4680
:108D000040F2FF53C9F838300121C9F808605046D5
:108D1000C9F80C703CF056FF03464FF0000C40F2CF
:108D2000774201213720C9F83850A3B95846414647
:108D30000122FFF765F94646124A134B5362760249
:108D40009662D36A43F09103D3620D4B002108462B
:108D50009962BDE8F88FC9F83850C9F808C0C9F859
:108D60000C203CF02FFF013CC9F838500028DDD022
:108D700014F0FF04C4D1024B1C63BDE8F88F00BFA0
:108D8000882C0020002C014000E1F50570B5424C14
:108D9000D4F8A03806460BB11D22DA801846092106
:108DA00033F0C6FED4F8A00834F068F894F8A6387A
:108DB000013B5BB2022BDBBF384A1B010020D058BD
:108DC000C4F89C080223102184F898383BF0FCFC7E
:108DD00040210A203BF024FDFF218A203BF020FDAA
:108DE00094F8A438C0F38012012B84F8A72800F06F
:108DF000400046D0022B2A4D3FD0D3B394F8A83878
:108E00001A2B07D1B5F82C31A4F8AC68A4F8AE2819
:108E1000A4F8B038B5F82C11D4F89C083BF0D4FC79
:108E2000B5F82C11D4F89C083BF0CEFCD4F8A0087F
:108E300034F01EF8022100203BF0F2FCD4F8A00828
:108E400034F01CF8D4F89C0804213BF0BDFC94F8E5
:108E5000B92894F8BA3894F8B81884F8B418C2F15C
:108E60002002C3F1100384F8BB2884F8BC38012029
:108E700070BD1023A5F82C31C0E70823A5F82C31CC
:108E8000BCE726B90823064DA5F82C31B6E7002823
:108E900014BF08231023F6E7882C0020E8040010F4
:108EA000000000202DE9F0412DED028B0128534BED
:108EB00082B00D465AD0524ED3F8C828B3F8CC38F9
:108EC0000092ADF80430371FDFF854819FED4D8AD2
:108ED000D8F8CC36BDF800204B494C4C396007EE31
:108EE000903AB4FBF3F4F8EE677A27EE888A7AB109
:108EF00094420DD3002D6DD0012D09D107EE902A9B
:108F00001946434B3B60B8EE670A304636F0C8FB63
:108F1000BDF802308BB19C420FD3002D47D0012DFC
:108F20000BD107EE903A3A4AD8F8CC163A60B8EE30
:108F3000670A06F1240036F0B3FBBDF804308BB3AA
:108F40009C422FD3E5B1012D2CD107EE903A304A47
:108F5000D8F8CC163A60B8EE670A06F1480002B0BD
:108F6000BDEC028BBDE8F04136F09ABB294ED3F838
:108F7000CE28B3F8D2380092ADF80430371FA3E7FB
:108F800007EE903ADFED246A244A3A60F8EEE77A79
:108F9000002386EEA77AB36477EE087A88EE277A04
:108FA00086ED137A02B0BDEC028BBDE8F08107EECE
:108FB000903ADFED196A194B3B60F8EEE77A00232F
:108FC00086EEA77A736277EE087A88EE277A86EDC6
:108FD0000A7AB2E707EE902ADFED0F6A0F4B3B608B
:108FE000F8EEE77A002386EEA77A336077EE087A08
:108FF00088EE277A86ED017A8AE700BF882C002068
:10900000D4050010BD37863549A0030820A107000C
:10901000B59F03084406001083F9223E799D03089A
:10902000E8040010F8B51A4C94F8F638002BFBD180
:1090300059B301444E1E451ED4F84428D4F84018B4
:1090400015F8017F531CC3F30A038B422CBF4FF466
:1090500000600020C91A224401440129C4F84438A0
:1090600082F8F8780FD1012033F0B4FAD4F8403800
:10907000D4F844188B4294BF4FF4006200225B1A6C
:109080001344012BEFD0B542D6D10020F8BD00BF6C
:10909000882C0020094B0846D3F8601810B559B148
:1090A000D3F86038052B07D1054C002A236803DD6F
:1090B0001146FFF7B7FF236810BD00BF882C0020C2
:1090C000803D002010B590F84C10002380F84C3003
:1090D00079B10B4CD4F860286AB1D4F86028052A1D
:1090E0000BD1084C38302368FFF79CFF2368012020
:1090F00010BD0120FCE71046FAE71846F8E700BF6C
:10910000882C0020803D0020002280F84D20D9E7E7
:1091100090F84C20531C0244DBB280F84C3082F8AB
:10912000381090F84D200AB1132B00D9CAE77047C8
:1091300010B5802104460BF06FFD204600210BF096
:109140006BFD2046BDE810400BF0AABE23494B68DA
:109150000F2B03D05A1C4A600020704770B5204C7A
:1091600094F8F65800234B60EDB9D4F84028D4F8B1
:109170004438B2F5006F18D09A422AD019D9C2F5F6
:109180000063402B17D9403B02F140058B6001235F
:1091900084F8F638C4F8405892B2402311490A4482
:1091A00081210BF06DFD002070BDC4F8405883B1E3
:1091B0002A469B1AE5E74FF0000502EB03068D6097
:1091C0000CBF02210121C4F8406892B284F8F6185D
:1091D000E4E7002384F8F638E5E700BF803D00208F
:1091E000882C002080350020B0E700BF70B51D4CF2
:1091F00094F8F638012B03D0022B09D0002070BD63
:1092000001461948836853B984F8F638002070BDC8
:1092100000231A4681210BF033FD0023F4E7402B95
:10922000D4F840280FD9403B02F140058360C4F8D0
:10923000405892B240230D4C0846224481210BF045
:109240001FFD002070BD4FF0000503EB0206856096
:1092500008BF0220C4F8406892B208BF84F8F6083C
:10926000E9E700BF882C0020803D002080350020E9
:10927000012905D008B503210BF03CFE002008BDF4
:10928000B4E700BF10B5002304220446194680F855
:1092900011211A460BF0F4FC20460BF001FE0020D1
:1092A00010BD00BF38B5134602250A46C0E94E334B
:1092B00080F8115100210BF0E3FC002038BD00BF05
:1092C00010B50C7814F0600413D0202C0AD14B7820
:1092D000023B092B17D8DFE803F01A2016161616E2
:1092E0001616262C21490122FFF7DCFF0024204618
:1092F00010BD4B78062B21D00A2BF3D01C4B8A785B
:109300005A61204610BDFFF713FF0224EFE7194909
:109310000122FFF7C7FF0024E9E717490122FFF701
:10932000C1FF0024E3E74B88114A1B0A13610024A4
:10933000DDE70F4B8A78DA600024D8E74B881B0AF8
:10934000222B0CD0212B04D021462246FFF7AAFF66
:10935000CDE7CA880949092A28BF0922F6E7CA8841
:109360000749262A28BF2622F0E700BF943D0020A7
:10937000803D0020903D00208C3D00206A010020AF
:1093800030010020F0B5012190F8D17590F8D36537
:1093900090F8CFC590F8CE5590F8D03590F8D225FA
:1093A00080F8111190F8CC1585B005EB0C2503EB76
:1093B000072302EB062201F01F06AFB292B290F82B
:1093C000CD558DF808109BB2012E0446ADF80A70F9
:1093D000ADF80C30ADF80E20C0F840218DF80950E2
:1093E00017D0022E1FD036B101F080010BF014FC13
:1093F000002005B0F0BD092D0FD8DFE815F0BB0047
:10940000A8000E00CF000E00E40082000E007400E1
:10941000530090F81221032A2ED02046FFF788FE31
:10942000002005B0F0BD01F060012029DAB233D090
:10943000012D00F01981032D00F0FF80002DD7D100
:1094400090F81211022900F0D9800329E5D11B06FA
:1094500000F1448102EB820200EBC20393F8763301
:10946000002B00F04681BB4B01229A62BA4920468C
:109470000222FFF717FFBBE7DAB2012ACDD8D0F8F6
:10948000E43502A99B689847BDF80E30002BAFD198
:109490002046FFF7F7FEABE7D0F8E43502A99B685A
:1094A0009847A5E7F9B2AB4D01292976B5D890F8D0
:1094B0001231022B00F02181032BAED1002900F0E4
:1094C000808190F810110129E2D0D0F8E4355B6872
:1094D0009847297E84F810112046FFF7DFFA2046CE
:1094E000FFF7D0FE84E7012A97D190F81231022BC2
:1094F00000F01281032B90D100F58871FFF7D2FEA6
:1095000076E73D0A022DADF8062000F04B81032DD1
:1095100000F00681012D80D1D0F8EC3580781B68F1
:109520000DF106019847BDF80620002A3FF460AF10
:10953000BDF80E30002B3FF45BAF9A4228BF1A46AD
:1095400001462046ADF80620FFF7ACFE50E790F844
:109550001231023B012B3FF660AF012F7FF448AF81
:10956000D0F8E43500229B68C0F8182102A92046F3
:1095700098478DE790F81231023B012B3FF64DAF33
:10958000744BD0F81821002119620AB102221A6224
:10959000724920460222FFF785FE29E7012F00F0DD
:1095A0009780022F7FF424AF13F0FF0F7FF420AFDA
:1095B00002691B0A023B5268032B00F21B81DFE8A1
:1095C00003F0383430241A437FF427AF90F8123177
:1095D000032B3FF422AF036907F07F0580F8145195
:1095E000196867F30A120A431A60FFF74BFE002D51
:1095F00000F0E380022384F81231F9E651063FF4CB
:10960000F7AE11460BF008FBF2E6052363F30612F2
:10961000504B012184F8161120465A62FFF732FEA2
:10962000E6E6042363F30612F2E7032363F306126C
:10963000EEE7022363F30612EAE790F81231022BF9
:10964000DCD0032B7FF4E9AE27B9550602D01146D2
:109650000BF0E2FAD4F8E43502A99B68204698475B
:109660002046FFF70FFEC3E690F812110229C5D07D
:1096700003297FF4D2AE002F7FF4BAAE12F07F013F
:109680003FF406AF180600F1A68002EB820304EB5C
:10969000C30304EB810083F8767383F8741383F8B3
:1096A0007573282303FB0243416D03F55D73DA787C
:1096B0000B68023A6FF35553012AD4F8E42598BF9A
:1096C00043F080530B602046936802A99847DFE679
:1096D000D0F8E435C0F818719B6847E702F07F02C4
:1096E00002EB820200EBC20393F81E31002B7FF4E1
:1096F000BAAE184B00229A62B8E600293FF4C8AE11
:109700000121032380F8101180F81231FFF7C6F908
:109710002046FFF7B7FD6BE61149FFF7C3FD67E68B
:10972000FDB2052D3FF679AEDFE805F0342C241CA0
:109730000B03D0F8EC3580789B690DF10601984752
:10974000F1E6D0F8EC3580785B690DF106019847B9
:10975000E9E600BF803D0020A83D0020A03D00209C
:109760009C3D0020D0F8EC3580781B690DF1060196
:109770009847D8E6D0F8EC358078DB680DF1060123
:109780009847D0E6D0F8EC3580789B680DF106015B
:109790009847C8E6D0F8EC3580785B680DF1060193
:1097A0009847C0E6D0F8E43580789B6A0DF1060151
:1097B00098474570C4F8F005B5E6012384F81231E6
:1097C00016E60222D0F8E43580F8101180F8122154
:1097D0005B6898475CE6282202FB014304EB8100AA
:1097E00083F81E7183F81C1183F81D51816903F5FC
:1097F0008E735CE7012363F3061209E770B50F4D22
:109800006B6B04462BB195F8382095F84C30134318
:1098100010D0812120460BF0FFF995F84C30022B37
:1098200000D070BD2046064ABDE870401F230121CC
:109830000BF048BA01210BF0EFF9EAE7803D002078
:10984000AC3D002070B50C4C0C4B236504F150026C
:10985000054684F85C1000260D23812184F86060A1
:109860000BF00EFA284604F12C021F23BDE87040CD
:1098700001210BF027BA00BF803D00205553425311
:109880002DE9F041A84C94F83B30606682B08846E0
:109890005A2B00F2AA80DFE813F0BE00A800A8004F
:1098A000CC00A800A800A800A800A800A800A80054
:1098B000A800A800A800A800A800A800A80002010D
:1098C000A800A800A800A800A800A800A8002501DA
:1098D0007100A800A8007100A800A800A800A800B6
:1098E000A201A8005301A800A8007900A800EF0178
:1098F000A800A800A800A8005B00A800A800A80075
:10990000A800A800A800A800A800A800A800A80017
:10991000A800A800A800A800A800A800A800A80007
:10992000A800A800A800A800A800A800A800A800F7
:10993000A800A800A800A800A800A800A800A800E7
:10994000A800A800A800A800A800A800A800CC01B2
:1099500094F83C309B0700F13B82B4F84230D4F8D5
:109960003D20616F5BBA9BB212BAD0188842C4E93D
:109970001E2303D9FFF73CF8002849DB0020A4F898
:109980006C000546284602B0BDE8F08194F86030CE
:10999000002B40F0F58094F93830002B25DAA36EC7
:1099A00008469B689847002840F0F281B4F842507E
:1099B000D4F83D70636F6DBAADB23FBA7A199A426E
:1099C000C4E91E7503D9FFF713F8002820DB236FC5
:1099D000666B03FB05F503FB07F20220B542C4E901
:1099E0001E2584F8600000F0CE80504A92F8673857
:1099F000591CC9B202EBC30305244FF400500429DB
:109A000082F8671883F86848C3F86C0800F08A8108
:109A10004FF0FF35B6E7636B002BE6D1A36E084627
:109A20009B6898470546002840F0B281A4F86C0076
:109A3000A8E73F4B002203F1120103F8012F8B42EC
:109A4000FBD13A493B4891F8675894F86E3070263C
:109A500006709D424FF00C06C67112D001EBC30197
:109A60000133DBB291F8686891F86D5891F86C1881
:109A70008670042B0573417314BF84F86E3084F82C
:109A80006E2094F83F3012229342A4F86C2098BFC5
:109A9000A4F86C300025284602B0BDE8F08194F8A7
:109AA0003C30DA0700F12681A36E94F83F00DA69B2
:109AB00001EBC10102EB81010A79531D834228BFEA
:109AC0000346A4F86C30002BE4D0013B19489BB24C
:109AD00001331944034411F8012D03F8012D834289
:109AE000F9D1D7E7144E154F35460823073EC5F187
:109AF0000700A4F86C30002201E0127C1D462B46C2
:109B0000B54203F8012900EB030217FA82F2F4D1FF
:109B1000A36E4046DB6898470028BBD0AB7863F063
:109B20007F03AB7000252DE7803D0020882C0020AE
:109B3000BB920020BC920020C392002064BD0408A8
:109B4000A36EB84A5B680846111D98470546002871
:109B500040F01E81D4E91C12B34B013A100E18706C
:109B6000DA70100C120A0E0E58709A70080CD97127
:109B70000822090A1E7158719971A4F86C2001E736
:109B8000D4E91E26236FA56EB2FBF3F2B6F5805F13
:109B900028BF4FF480562D69A349B6FBF3F3404626
:109BA0009BB24FF48057A4F86C70A8470028C0F20D
:109BB000A68033469C4A606E81210BF061F8D4E99F
:109BC0001E20A36D3244851B9E1BC4E91E25A6657D
:109BD000002D7FF45FAF032384F86030D2E6924E0D
:109BE0000027334606F10C0203F8017B9A42FBD1B1
:109BF000A36E40465B686A4601A99847054600285F
:109C000040F0D180DDE90023013B190E3171190CC0
:109C1000F37171711B0A110CF272B371120A0820F0
:109C200071720C230221B272F0703172A4F86C30A0
:109C3000A8E67E4E7E4F30460823073EC0F107055A
:109C4000A4F86C30002201E0127E184603468642DA
:109C500003F8012905EB030217FA82F2F4D1A36E8F
:109C60004046DB68984700283FF414AFF37863F070
:109C70007F03F370002585E694F86030002B57D100
:109C800094F93830002BFFF6B0AEA36E08469B68FF
:109C9000984700287CD1A36E4046DB68984705466C
:109CA000002840F0A680B4F84230D4F83D60626FDE
:109CB0005BBA9FB236BAF3199342C4E91E6700F249
:109CC0009280236F626B03FB06F603FB07F393425C
:109CD000C4E91E637FF489AEB3F5805F28BF4FF4FB
:109CE00080530121606E504A84F860109BB20AF0E4
:109CF000E9FF47E607234F49A4F86C30E5E64E4AF2
:109D000092F86738591CC9B202EBC30304244FF41C
:109D10008850A14282F8671883F86848C3F86C0835
:109D20007FF476AE002382F867384FF0FF3529E6DE
:109D3000E66FA06E236FA26F4569B2FBF3F2B6F532
:109D4000805F28BF4FF480560846B6FBF3F33649D0
:109D50009BB2A84700285ADBD4E91E25A36D3244E4
:109D6000AD1B9B1BC4E91E25A36525B9606E294662
:109D7000FFF768FD06E6B5F5805F28BF4FF4805514
:109D8000ABB2606E284A01210AF09CFF0025F9E57C
:109D9000294A92F86738591CC9B202EBC30302245E
:109DA0004FF468502BE6244A92F8673802EBC3015F
:109DB0000133DBB202244FF46850042B81F8684869
:109DC000C1F86C0820D082F867384FF0FF35D9E52C
:109DD000194A92F86738591CC9B202EBC30305242B
:109DE0004FF410500BE6FEF703FE0028BFF669AFF4
:109DF0000EE6114A92F86738591CC9B202EBC30348
:109E000002244FF41C50FAE582F8677800E60A4A0B
:109E100092F86738591CC9B202EBC30304244FF40B
:109E2000407076E7F03D0020BC920020C3920020F5
:109E300064BD04086CBD0408882C002010B5074BD5
:109E400093F839100446FFF71BFD002800DB10BD16
:109E500020460121BDE81040F4E400BF803D002011
:109E600070B5304C94F860502DB1012D01D1FFF741
:109E7000E5FF002070BDB0F8B433226B62651F2B84
:109E8000626BA265064607D1274BE26A9A4203D16C
:109E900094F8391001291AD9244A92F8673802EB4C
:109EA000C3010133DBB2042B08BF002305254FF4A7
:109EB0000050C1F86C0882F867383046022381F8F8
:109EC000685884F84C30FFF799FC002070BD94F876
:109ED0003A30013B0F2BDFD8FFF7D2FC002819DB0B
:109EE00094F86030013B022BC3D9B4F86C10A9B1CF
:109EF000636BA26D84F85C508B4228BF0B46D11A6D
:109F00000425A1650A4A84F86050304681210AF090
:109F1000B7FEAEE73046FFF771FCAAE73046FFF721
:109F200091FCA6E7803D002055534243882C002039
:109F3000BC92002008B5084B93F86030022B07D084
:109F4000033B012B02D80021FFF77CFC002008BD59
:109F5000FFF774FF002008BD803D002010B501EB25
:109F60008101084A00EBC1010446B1F88C13104688
:109F7000FEF7DCFB034A2046402301210AF0A2FE43
:109F8000002010BD003E0020E8E700BFF8B50B78C8
:109F900013F060050C46064611D0202D16D1CD8851
:109FA000D5B11B062AD52A4620496078FEF7E6FB84
:109FB000E2881E493046FFF775F900250AE04B7824
:109FC0000A2B16D00B2B0ED0062B03D13046FFF7F1
:109FD000AFF802252846F8BD022260781144FEF74A
:109FE000CDFB2846F8BD8B78E3B9114BC3F8C050C0
:109FF000F0E710490122FFF755F9EBE70E4B4A78DD
:10A000000E4FC3F8282103230021C0E9E45580F84E
:10A01000113107F68C022B46C7F888580D460AF016
:10A0200051FED7E7FFF784F8D4E700BF14350020CE
:10A03000803D0020403E002000000020882C0020B1
:10A040000B7803F00303012B03D0022B05D0002073
:10A0500070478B8823B9FFF733B98B88832BFAD0ED
:10A0600094E700BF70B5044649B990F81131022B4E
:10A070001AD094F81631012B0DD0002070BDD0F805
:10A08000E4355B69002BF8D090F81221032AF4D153
:10A090009847002070BD294A2369526A5A600023FC
:10A0A00084F81631002070BDD0F83831D0F8245132
:10A0B000AB4217D9C278012AD0F82821A3EB0503B7
:10A0C00008BF5219C0F8383108BFC0F828219BB228
:10A0D00000210AF0D5FD00231A46194620460AF051
:10A0E000F1FDC6E7D0F83C31B3FBF5F605FB1636BB
:10A0F00066B99D420AD8D0F84021934206D2334631
:10A1000032460AF0BDFDC4F84061E4E7D4F8E43516
:10A11000DB681BB194F81221032A0CD0002305221E
:10A1200084F8112119461A4620460AF0CBFD204634
:10A130000AF0B6FE9DE720469847EFE7803D0020F5
:10A1400010B5044629B990F81131032B0DD0002029
:10A1500010BDD0F8E4359B69002BF8D090F812219F
:10A16000032AF4D19847002010BDD0F89013D0F8FE
:10A170007C33994214D9C078D4F880230128A1EB0C
:10A18000030104BFD218C4F880238B4228BF0B46BA
:10A19000C4F890139BB2204600210AF093FDD6E745
:10A1A000D0F8E4351B691BB190F81221032A03D0C3
:10A1B0002046FFF767F8CAE79847F9E710B5044C5F
:10A1C00004480A4621460AF001FD204610BD00BFA2
:10A1D000443E002068F9040810B5044C04480A46BF
:10A1E00021460AF0F3FC204610BD00BF443E00208B
:10A1F00078F9040810B5044C04480A4621460AF0D0
:10A20000E5FC204610BD00BF443E002084F9040850
:10A2100010B5044C04480A4621460AF0D7FC2046F3
:10A2200010BD00BF443E002090F9040810B5044C56
:10A2300004480A4621460AF0C9FC204610BD00BF6A
:10A24000443E00209CF9040810B5044C04480A461A
:10A2500021460AF0BBFC204610BD00BF443F002051
:10A26000A4F9040810B5044C04480A4621460AF033
:10A27000ADFC204610BD00BF443F0020B4F90408E7
:10A2800010B5044C04480A4621460AF09FFC2046BB
:10A2900010BD00BF443F0020C0F904080A4608B5BD
:10A2A000054920B905480AF091FC034808BD044857
:10A2B0000AF08CFC004808BD443F0020D4F9040893
:10A2C000ECF9040870B50D4614461E463BF012FF2B
:10A2D000C0B10121084632F0DFFD33462A46204650
:10A2E0000021FEF7EBFC80B90B4A136B002BFCD16D
:10A2F0003BF076FE0028FBD00021012032F0CCFD9F
:10A30000002070BD4FF0FF3070BD0021012032F001
:10A31000C3FD4FF0FF3070BD882C002070B50D4696
:10A3200014461E463BF0E6FEC0B10121084632F05D
:10A33000B3FD33462A4620460021FEF751FC80B982
:10A340000B4AD36A002BFCD13BF04AFE0028FBD01D
:10A350000021012032F0A0FD002070BD4FF0FF3041
:10A3600070BD0021012032F097FD4FF0FF3070BD2D
:10A37000882C002008B53BF033FE30B13BF0BAFE2C
:10A3800080F00100404240B208BD4FF0FF3008BDF0
:10A3900038B50D4614463BF0ADFE50B13BF0CAFA5D
:10A3A000054A4FF40073D2F810232A60002023607E
:10A3B00038BD4FF0FF3038BD803D002010B53F2044
:10A3C00031F0EAFD08B11923C380202132F0B0FB3F
:10A3D0000021084632F060FD06483CF0CFFA3BF021
:10A3E0009FFE044608B1012010BD012132F054FD4A
:10A3F000204610BD5864024010B502230446402296
:10A4000081210AF0BBFC20460223402201210AF0F0
:10A41000B5FC82212046032308220AF0AFFC064B3C
:10A4200002229A83FEF7F8F9044A204640230121CC
:10A430000AF048FC002010BD00000020003E002073
:10A4400038B508220D460446032383210AF096FC02
:10A4500029462046FFF7D0FF002038BD002310B565
:10A460001946044640220AF089FC80212046002338
:10A4700040220AF083FCD4F8E835A078012284F861
:10A4800012215B689847002010BD00BFF8B50B781B
:10A4900013F060050C4606461DD0202D18D14A78D1
:10A4A000FE2A45D0FF2A3ED14A88002A56D1CD88BF
:10A4B000002D53D11B0651D4374B012103F12C023F
:10A4C00083F8605083F84C101F230AF0FBFB00E078
:10A4D00000252846F8BD4B780A2B4AD00B2B43D0D9
:10A4E000012BF6D191F904308988002B46DB0AF064
:10A4F000E7FC2179284F30460AF00AFC0223217933
:10A50000402230460AF03AFC97F84C30022B3AD001
:10A5100094F90420002ADCDA012BDAD0304601213C
:10A52000FFF790F9D5E70225FEF702FE2846F8BDB1
:10A530004D889DB9CC88012C10D11A060ED5164F26
:10A54000BB6E9B699847C0B287F8200330B12246A2
:10A5500007F548713046FEF7A5FEBAE730460225FA
:10A56000FEF7E6FD2846F8BD0B4B4A8883F8212309
:10A57000AFE70A490122FEF795FEAAE701F07F0145
:10A580000AF0B8FCB5E7304681210AF045FB00230C
:10A5900087F84C309DE700BF803D0020A14000209F
:10A5A00010B5812104460AF0B3FB204601210AF0D0
:10A5B000AFFB024B002083F8600010BD803D0020FF
:10A5C00070B50446134EFFF7EBFF204602234022EE
:10A5D00081210AF0D3FB40220121204602230AF008
:10A5E000CDFBB36E00251B6886F86050284686F8C0
:10A5F0004C50984720460AF063FC204601210AF09F
