:020000040800F2
:10000000F0FF0010FD92040801F80008C51D040867
:100010009993040899930408999304080000000038
:1000200000000000000000000000000071FE000859
:100030006DFE00080000000069FE0008C9150408F4
:1000400099930408999304089993040899930408D0
:10005000999304089993040891250408D12604086B
:10006000912604085126040811260408C57B0408BB
:10007000B57B0408A57B0408957B0408817B0408F4
:100080006D7B0408597B040899930408999304082C
:10009000999304089993040899930408D1250408B6
:1000A0009993040899930408999304089993040870
:1000B000610D0408510D0408410D040899930408CA
:1000C0009993040899930408999304089993040850
:1000D000999304084117040899930408A516040885
:1000E00051250408999304086D1F01089993040889
:1000F000999304089993040899930408457B04088C
:100100009993040899930408310D040899930408FD
:1001100099930408999304089931030885310308D9
:10012000317B04081D7B0408097B0408F57A040868
:10013000E17A0408999304089993040899930408B0
:1001400099930408999304089993040805F8000802
:10015000CD7A0408B97A0408A57A040809160408B7
:1001600099930408999304089993040899930408AF
:10017000999304089993040899930408999304089F
:08018000999304089993040807
:08018800AC8E04000100000030
:10019000130203002C2E0020FC660020000000004B
:1001A000E00600080400800044660020006700208C
:1001B0000000000000000000230010001C6600206A
:1001C00080670020000000001DB401080D0034000D
:1001D000C45C00209067002000000000116F03083D
:1001E00013000400105C0020C46700200000000021
:1001F000E4060008F6210C00145C0020C86700200B
:1002000000000000E8060008F5317400485B00209B
:10021000D467002000000000CF2E01080B3014002E
:10022000345B00204868002000000000F40600084D
:1002300001010400305B00205C6800200000000029
:1002400000000000000104002C5B0020606800201A
:10025000000000000807000802010300285B0020DE
:100260006468002000000000E9D90208FD012400B4
:10027000F45A00206868002000000000A5EE030882
:1002800006101800484E00208C6800200000000076
:10029000013E0208FB010100444E0020A46800203A
:1002A00000000000C5110408FC010900104D0020E9
:1002B000A868002000000000D511040802000C000E
:1002C000DC4C0020B46800200000000000000000AA
:1002D0000A60360088360020C06800200000000058
:1002E0000C07000834001000044C0020F8680020BF
:1002F00000000000D53D020811020800DC4B002080
:1003000008690020000000004207000812120400E3
:10031000D44B002010690020000000004A070008AC
:1003200018202C00A84B00201469002000000000B9
:1003300035FE030812200D00804B0020406900208C
:10034000000000004E070008FF0108005C4000208C
:100350005069002000000000C5770408F90104007E
:100360004C40002058690020000000001DEF0308E9
:1003700018020200503A00205C69002000000000D2
:100380000000000017020B00443A002060690020C2
:100390000000000035F30308FA010200203A0020B3
:1003A0006C69002000000000EDF403080202030065
:1003B0007C2E00207069002000000000000000007A
:1003C0000C020300682E0020746900200000000069
:1003D000DDF30308FE010900F839002078690020E8
:1003E00000000000BDF303081B020800B4D3002086
:1003F00028E6002000000000EDF3030801200800BB
:10040000CCE4002030E60020000000005C0700087B
:10041000190005004CE5002038E60020000000002F
:100420006407000837001E0024E5002040E6002095
:10043000000000006A0700081E00050090D100209F
:1004400060E6002000000000880700081B00F400A0
:10045000ECCD002068E6002000000000953F010878
:100460000E020200A4D700205CE70020000000007C
:100470008E0700082F001100C4E5002060E700206F
:1004800000000000900700080510060008E60020A4
:1004900074E7002000000000A207000826000E00FC
:1004A0008CE700207CE7002000000000FD2601080A
:1004B0001F201C00E4D00020C0E700200000000046
:1004C000A807000805020400DCD30020DCE70020B8
:1004D00000000000C407000803010A0070CC0020DF
:1004E000E0E7002000000000C80700082C00100012
:1004F00094F6002084F60020000000004DC10108A1
:100500002B002400C8F60020A4F600200000000004
:1005100021C101082910780094F50020ECF6002094
:1005200000000000000000002810100074F70020F8
:1005300064F700200000000009B401081400040062
:100540001CF5002084F7002000000000D2070008FE
:100550001010030088F3002088F70020000000003E
:10056000D6070008F821060080F300208CF7002051
:1005700000000000DA0700080C20B40042EC002064
:1005800094F7002000000000B9D902080E80620133
:1005900088EA002048F80020000000007D3D0208A5
:1005A0000902010044F20020ACF900200000000024
:1005B000E00700080102050004EA0020B0F900206D
:1005C0000000000075AA010800020500E8EF002005
:1005D000B8F9002000000000000000001A000E0022
:1005E000C0FE00201402012000000000E207000805
:1005F00003123300B4FA0020DE01012000000000E5
:10060000F00700082500960048FB00204801012063
:10061000000000000000000015007000C4F9002078
:10062000D800012000000000000000002A00600047
:10063000E8FA00207800012000000000553D020883
:1006400008120900600901209C0901200000000037
:1006500085F30308F701060056090120A8090120C7
:1006600000000000240800080A020A009408012083
:10067000B0090120000000002A0800080300010062
:100680004C090120BC09012000000000000000000E
:1006900016000800E80C0120780D01200000000081
:1006A000340800081A023C00A80D0120FC170120A4
:1006B00000000000F9FB0308270004006837012050
:1006C00038180120000000003C080008100201005A
:1006D0007437012070370120000000004008000836
:1006E00000000000080044100000000001000000AD
:1006F000020200002B21231E640101000000010002
:100700000A012900230A00009001000000300100C6
:10071000000000007300730069000000000000008A
:1007200000000000000000000000020000019E0721
:100730007D00FA0096005802B80BB80BB80B2000E9
:10074000C4090000000001010101FFFFFFFF0000DC
:10075000000100000553584634000000E80364001F
:10076000040A000100002801000020003200C80037
:10077000D0079600140032002800B004400600059F
:10078000500014000F0008010000010000000000EC
:100790000000000000000000000000000000000059
:1007A0000000200002010000000000000001000025
:1007B000000500000102030000000000000000002E
:1007C0000000000000000000040101006C160000A1
:1007D000000003000046000500000101F4011400C0
:1007E00020007E05EA05B4050300E803D0070000F9
:1007F00000000000000000000000000000000000F9
:1008000000000000000000000000000000000000E8
:1008100000000000000000000000000000000000D8
:10082000000001003F010000000000004A01B40088
:10083000D6010000C4090700B401282820030000E5
:0108400000B7
:100841000403090412010002EF020140830456323D
:100851000002010203010000120100020202004035
:100861008304405700020102030100000902200035
:10087100010104C032090400000208065005070501
:1008810081024000000705010240000009026400E6
:10089100030100C032090400000103000000092126
:1008A100110100012226000705830308000A080B35
:1008B1000102020201000904010001020201000516
:1008C100240010010524010002042402020524066B
:1008D1000102070582030800FF09040200020A0061
:1008E10000000705010240000007058102400000E9
:1008F10009024300020100C03209040000010202A2
:100901000100052400100105240100010424020254
:100911000524060001070582030800FF0904010000
:10092100020A0000000705010240000007058102DC
:1009310040000000FF00000008000000C987000817
:10094100C5870008C1870008B5870008B18700087E
:10095100BD870008B98700080060024010600240AE
:100961000000000000000000000B0000000000007B
:10097100000000000000000000600240286002400A
:100981000100000000000000060C00000000000053
:1009910000000000000000000060024040600240D2
:1009A1000200000000000000100D00000000000027
:1009B100000000000000000000600240586002409A
:1009C1000300000000000000160E000000000000FF
:1009D1000000000000000000006002407060024062
:1009E1000400000000000000200F000000000000D3
:1009F100000000000000000000600240886002402A
:100A010005000000000000002610000000000000AA
:100A1100000000000000000000600240A0600240F1
:100A2100060000000000000030110000000000007E
:100A3100000000000000000000600240B8600240B9
:100A41000700000000000000362F00000000000039
:100A51000000000000000000006402401064024039
:100A6100000000000000000000380000000000004D
:100A71000000000000000000006402402864024001
:100A81000100000000000000063900000000000025
:100A910000000000000000000064024040640240C9
:100AA1000200000000000000103A000000000000F9
:100AB1000000000000000000006402405864024091
:100AC1000300000000000000163B000000000000D1
:100AD1000000000000000000006402407064024059
:100AE1000400000000000000203C000000000000A5
:100AF1000000000000000000006402408864024021
:100B01000500000000000000264400000000000075
:100B1100000000000000000000640240A0640240E8
:100B21000600000000000000304500000000000049
:100B3100000000000000000000640240B8640240B0
:100B41000700000000000000364600000000000021
:100B510000000000000000000101000079500108C0
:100B6100D5520108614B01088589000839520108F5
:100B710095890008B1890008758900086589000810
:100B8100000000000000000005010905A101A1000D
:100B910005010930093109320933093509340940A0
:100BA10009381581257F750895088102C0C00000AC
:100BB10009022200010100E03209040000010301E1
:100BC1000200092111010001222600070583030803
:100BD100000A000001000000000001FFFF01000009
:100BE10000000000010203040102030406070809D2
:100BF100FF1FFF1FF8030020040000009CE70020F6
:100C0100000000000000803F0000803F0000000065
:100C110000000000000000000000000000000000D3
:100C210000000000000000000000000000000000C3
:100C310001000000FFFFFFFF000200051002700B22
:100C4100E00120700020702D7200010800010101F7
:100C510000000000000000000000000054220020FD
:100C610001D60100FFFFFFFFFA00000001000000B4
:100C71000100000026ED00200000F4010100000049
:100C810024ED00200000F4010100000022ED00200D
:100C91000000F4010100000020ED00200000F4013B
:100CA100010000001EED00200000F4010100000021
:100CB1001CED00200000F401010000001AED0020ED
:100CC1000000F40101000000081305080000000005
:100CD10000000000000000000000000020130508D3
:100CE1000000000000000000000000000000000003
:100CF1004013050808000000000000007C040020EB
:100D0100000000004C13050808000000000000006E
:100D110070040020000000005813050808000000BE
:100D2100000000006404002000000000441E0508CB
:100D3100080000000000000058040020000000002E
:100D41006413050808000000000000004C040020A6
:100D510000000000701305080800000000000000FA
:100D610040040020000000007C130508080000007A
:100D71000000000034040020000000008813050872
:100D8100020000009DD001080200000000000000E8
:100D9100941305080100000000000000000000009D
:100DA10000000000000000000E0000000000000034
:100DB100000000000000000099B2010859B20108CA
:100DC1008804002018ED00200532010016ED0020F6
:100DD100E803D0070100000014ED0020E803D0076C
:100DE1000100000012ED0020E803D007010000001F
:100DF10010ED00201E00B80B010000000EED0020D8
:100E01001E00F401010000000CED0020140064003C
:100E1100010000000AED00200000C80001000000F0
:100E21009C130508A4130508C01305080000000061
:100E31000000000000000000000000002013050871
:100E410000000000000000000000000000000000A1
:100E51007C0705080800000000000000D405002000
:100E610000000000D4130508080000000000000085
:100E7100C805002000000000E81305080800000074
:100E810000000000BC05002000000000FC13050864
:100E91000800000000000000B00500200000000074
:100EA100101405080800000000000000A40500203F
:100EB10000000000201405080800000000000000E8
:100EC100980500200000000030140508080000000B
:100ED100000000008C0500200000000040140508FF
:100EE1000700000000000000840500200000000051
:100EF10050140508030000001DCE010878050020EC
:100F01000000000088130508020000009DD00108C0
:100F11000200000000000000941305080100000019
:100F210000000000000000000000000000000000C0
:100F31000E000000000000000000000000000000A2
:100F410076D100200100C4090000000074D1002006
:100F51000100C4090000000072D100200100C40991
:100F61000000000070D100200100C4090000000051
:100F71006CD100200100C409000000006ED10020E6
:100F81000100C409000000006AD100200100C40969
:100F91000000000068D100200100C4090000000029
:100FA10018EA00200000FFFF0A00000016EA0020F6
:100FB1000100C8000100000014EA00203200307571
:100FC1003200000012EA0020055A05000FEA002055
:100FD10000FF010011EA002001000000E0050020EF
:100FE1000DEA0020020000009CC504080EEA002062
:100FF10000FF010010EA002001000000E0050020D0
:101001000CEA0020020000009CC5040802EA00204E
:1010110080C1803E0500000000EA002080C1803EC2
:1010210005000000FEE9002080C1803E05000000AF
:10103100FCE9002080C1803E05000000FAE90020A3
:1010410000FF0100F9E900200A320100F8E900205F
:10105100040000008CC70408F7E90020020000002A
:10106100A0C7040815B20108D1B10108E8050020A4
:101071002CED0020EE02CA08010000002AED00203C
:1010810000C801006400000029ED002000C8010033
:101091006400000028ED002002000000ACC7040835
:1010A100F6E9002001000000BCC70408F5E90020B2
:1010B10001080100F4E9002004000000C8C7040889
:1010C10038ED00200100FF7F0100000037ED002016
:1010D10002000000DCC70408FCEB00200000F40162
:1010E10001000000FAEB00200000F4010100000003
:1010F100F8EB00200000F40101000000F6EB0020F5
:101101000000F401010000000CEC00200100803E11
:101111000500000008EC00200000803E6400000093
:1011210006EC00200000803E6400000004EC00207A
:101131000000803E640000000AEC00200300000271
:101141000100000002EC0020C800E80301000000DB
:1011510000EC00201E00E80301000000FEEB00206F
:101161000000E80301000000F4EB00200000803ED5
:1011710001000000F2EB00200000803E01000000B1
:10118100F0EB00200000803E01000000EEEB0020AB
:101191000000803E01000000ECEB00200000803EDA
:1011A10001000000EAEB00200000803E0100000089
:1011B1003DEC00201964010041EC002000640100B5
:1011C10040EC0020006401003FEC00200A320100E5
:1011D1003EEC002003000000ECC704083AEC0020BC
:1011E100E803D0070A00000038EC002000FA0100F3
:1011F1000A00000037EC002000FA01000A0000009C
:1012010036EC002000FA01000A00000025EC002065
:101211000064010024EC0020006401002CEC00209B
:10122100006401000A0000002BEC002000640100B2
:101231000A0000002AEC0020006401000A000000FE
:101241002FEC0020006401000A0000002EEC0020B9
:10125100006401000A0000002DEC00200064010080
:101261000A00000029EC002000FF01000A00000034
:1012710028EC002000FF01000A00000027EC0020FC
:1012810000FF01000A00000035EC0020005F0100B2
:101291000A00000034EC0020005F01000A00000099
:1012A10033EC0020005F01000A00000032EC002056
:1012B100005F01000A00000031EC002019AF0100BD
:1012C1000A00000030EC002019AF01000A00000004
:1012D10076EA0020000A010075EA0020000A0100F8
:1012E10074EA0020000A010086EA002000FA0100E9
:1012F10085EA002000FA010084EA002000FA0100DA
:1013010082EA00200000F4010100000080EA0020D0
:101311000000F401010000007EEA00200000F40159
:10132100010000007CEA00200000F401010000003F
:101331007AEA00200000F4010100000078EA0020B0
:101341000000F4010100000022EC0020FF08010070
:1013510021EC00200164010020EC00200064010068
:101361001FEC002001000000FCC704081EEC002057
:1013710000C801001CEC00200000D00701000000A3
:101381001BEC002000C801001AEC002000C801007D
:1013910019EC002000C8010018EC002000C8010071
:1013A10017EC002000FA01000A00000014EC0020F4
:1013B10000FA01000A00000011EC002000FA01000F
:1013C1000A00000016EC002000FA01000A000000EB
:1013D10013EC002000FA01000A00000010EC0020CC
:1013E10000FA01000A00000015EC002000FA0100DB
:1013F1000A00000012EC002000FA01000A000000BF
:101401000FEC002000FA01000A000000F8EC0020B7
:10141100010A010000ED002000FA0100FEEC0020AD
:101421000000E8030500000009ED002000C80100EC
:1014310008ED002000C8010007ED002000C80100F0
:1014410006ED002000C8010005ED002000C80100E4
:1014510004ED002000C8010003ED002000C80100D8
:1014610002ED002000C8010001ED002000C80100CC
:10147100FCEC002000FA0100FAEC00200000E80377
:1014810005000000F7EC002000640100F4140508D9
:10149100000000000000000000000000000000004B
:1014A100801D05080900000000000000540700200D
:1014B10004000000981D050809000000000000005C
:1014C1004807002004000000901F050809000000E3
:1014D100000000003C07002004000000E0060508B1
:1014E1000900000000000000300700200400000097
:1014F1000415050809000000000000002407002071
:10150100040000000C15050809000000000000009F
:101511001807002004000000141505080900000048
:10152100000000000C070020040000001C15050845
:101531000900000000000000000700200400000076
:1015410094130508010000000000000000000000E5
:1015510000000000000000000E000000000000007C
:101561000000000000000000401705080000000016
:10157100000000000000000000000000805105088C
:1015810007000000000000008407002000000000A8
:10159100501705080800000000000000780700202F
:1015A100000000005C1705080800000000000000B2
:1015B1006C07002000000000641705080800000007
:1015C10000000000600700200000000088130508EB
:1015D100020000009DD00108010000000000000091
:1015E1009413050801000000000000000000000045
:1015F10000000000000000000E00000000000000DC
:101601000000000000000000741705080000000041
:101611000000000000000000000000008417050821
:101621000D00000000000000C007002000000000C5
:101631008C1705080D00000000000000B407002011
:1016410000000000941705080700000000000000DA
:10165100AC070020000000009C1705080D000000E9
:1016610000000000A007002000000000A4170508EA
:101671000D000000000000009407002000000000A1
:10168100AC17050807000000000000008C070020CF
:101691000000000088130508020000009DD0010829
:1016A1000100000000000000941305080100000083
:1016B1000000000000000000000000000000000029
:1016C1000E0000000000000000000000000000000B
:1016D100B417050800000000000000000000000031
:1016E10000000000805105080C000000000000000F
:1016F1001AEA002000000000C81705080C000000CD
:10170100000000001CEA002000000000D8170508B6
:101711000C0000000000000052EA00200000000060
:10172100E81705080C0000000000000046EA002050
:1017310000000000FC1705080C000000000000007C
:101741001EEA002000000000081805080C00000037
:101751000000000020EA0020000000001018050829
:101761000C0000000000000022EA00200000000040
:10177100241805080C0000000000000024EA0020E5
:10178100000000002C1805080C00000000000000FB
:1017910026EA002000000000341805080C000000B3
:1017A1000000000064EA0020000000004C18050859
:1017B1000C0000000000000028EA002000000000EA
:1017C100581805080C000000000000002AEA00205B
:1017D10000000000FC1905080C00000000000000DA
:1017E1002CEA002000000000601805080C00000031
:1017F100000000002EEA0020000000006C1805081F
:101801000C0000000000000030EA00200000000091
:10181100781805080C0000000000000032EA0020E2
:1018210000000000841805080C0000000000000002
:1018310034EA002000000000901805080C000000A8
:101841000000000036EA0020000000009C18050896
:101851000C000000000000004AEA00200000000027
:10186100A41805080C0000000000000048EA002050
:1018710000000000AC1805080C000000000000008A
:1018810056EA002000000000B81805080C0000000E
:101891000000000058EA002000000000C4180508FC
:1018A1000C000000000000005EEA002000000000C3
:1018B100780805080C0000000000000038EA00204C
:1018C10000000000D01805080C0000000000000016
:1018D10040EA002000000000D81805080C000000B4
:1018E100000000003AEA002000000000E4180508AA
:1018F1000C000000000000003CEA00200000000095
:10190100F01805080C000000000000003EEA00206D
:1019110000000000F81805080C000000000000009D
:1019210042EA002000000000041905080C00000034
:10193100000000004CEA0020000000000C1905081E
:101941000C0000000000000044EA0020000000003C
:10195100181905080C0000000000000054EA0020DE
:1019610000000000241905080C0000000000000020
:101971004EEA0020000000002C1905080C000000B0
:101981000000000050EA00200000000034190508A2
:101991000C000000000000005AEA002000000000D6
:1019A1003C1905080C000000000000005CEA002062
:1019B10000000000441905080C00000000000000B0
:1019C1006CEA0020000000009413050801000000EB
:1019D1000000000000000000000000000000000006
:1019E1000E000000000000000000000000000000E8
:1019F1004C19050800000000000000000000000074
:101A010000000000581905080D000000000000004A
:101A11001808002000000000601905080D000000F2
:101A2100000000000C0800200000000068190508F3
:101A31000700000000000000040800200000000072
:101A4100741905080700000000000000FC070020D1
:101A510000000000801905080900000000000000D6
:101A6100F0070020000000008C19050809000000A3
:101A710000000000E407002000000000981905089C
:101A81000900000000000000D8070020000000004D
:101A9100A81905080900000000000000CC0700207B
:101AA1000000000088130508020000009DD0010815
:101AB100010000000000000094130508010000006F
:101AC1000000000000000000000000000000000015
:101AD1000E000000000000000000000000000000F7
:101AE100BC19050800000000000000000000000013
:101AF10000000000201305080000000000000000A5
:101B01000000000000000000CC1905080D000000D5
:101B1100000000005408002000000000D81905084A
:101B21000B00000000000000480800200000000039
:101B3100E41905080B000000000000003C0800202B
:101B410000000000F4190508080000000000000072
:101B51003008002000000000081A050803000000FA
:101B61001DCE01082408002000000000881305088C
:101B7100020000009DD001080200000000000000EA
:101B8100941305080100000000000000000000009F
:101B910000000000000000000E0000000000000036
:101BA1000000000000000000141A050800000000F9
:101BB100000000000000000000000000241A0508D9
:101BC100050000000000000073EA00200000000092
:101BD10088130508020000009DD0010801000000E3
:101BE100000000009413050801000000000000003F
:101BF1000000000000000000000000000E000000D6
:101C01000000000000000000000000002C1A050880
:101C110000000000000000000000000000000000C3
:101C2100C81405080D000000000000007408002021
:101C310000000000381A050807000000000000003D
:101C41006C08002000000000D01805080D000000FD
:101C51000000000060080020000000009413050847
:101C61000100000000000000000000000000000072
:101C7100000000000E000000000000000000000055
:101C810000000000401A05080000000000000000EC
:101C91000000000000000000501A05080D000000BF
:101CA100000000008C08002000000000581A050800
:101CB1000A00000000000000BDF00020000000004C
:101CC100641A05080A00000000000000C5F00020A9
:101CD100000000006C1A05080A0000000000000066
:101CE100CDF0002000000000741A05080800000073
:101CF1000000000080080020000000007C1A050898
:101D01000400000049D001080000000000000000AC
:101D110088130508020000009DD0010801000000A1
:101D210000000000941305080100000000000000FD
:101D31000000000000000000000000000E00000094
:101D4100000000000000000000000000881A0508E3
:101D51000000000000000000000000000000000082
:101D61009C1A05080800000000000000640900201A
:101D710000000000AC1A0508080000000000000087
:101D81005809002000000000BC1A050808000000E6
:101D9100000000004C09002000000000CC1A0508DA
:101DA10008000000000000004009002000000000C1
:101DB100DC1A0508080000000000000034090020BA
:101DC10000000000EC1A05080800000000000000F7
:101DD1002809002000000000FC1A05080800000086
:101DE100000000001C09002000000000081B05087D
:101DF10008000000000000001009002000000000A1
:101E0100181B05080800000000000000040900205C
:101E110000000000281B0508080000000000000069
:101E2100F808002000000000301B05080800000031
:101E310000000000EC08002000000000381B05082D
:101E41000800000000000000E00800200000000081
:101E5100401B05080800000000000000D408002015
:101E610000000000481B05080800000000000000F9
:101E7100C808002000000000581B050808000000E9
:101E810000000000BC08002000000000641B0508E1
:101E91000800000000000000B00800200000000061
:101EA100701B05080800000000000000A4080020C5
:101EB100000000007C1B0508080000000000000075
:101EC10098080020000000008813050802000000A7
:101ED1009DD00108010000000000000094130508D6
:101EE10001000000000000000000000000000000F0
:101EF100000000000E0000000000000000000000D3
:101F010000000000881B0508000000000000000020
:101F11000504002000000000941B05080B000000D0
:101F210000000000840A002000000000A41B050836
:101F31000B00000000000000780A002000000000F3
:101F4100B01B05080B000000000000006C0A002017
:101F510000000000C01B05080B000000000000008D
:101F6100600A002000000000CC1B05080B000000E7
:101F710000000000540A002000000000E01B0508DA
:101F81000B00000000000000480A002000000000D3
:101F9100F01B05080B000000000000003C0A0020B7
:101FA10000000000FC1B05080B0000000000000001
:101FB100300A002000000000081C05080B0000008A
:101FC10000000000240A002000000000141C050885
:101FD1000B00000000000000180A002000000000B3
:101FE100201C05080B000000000000000C0A002066
:101FF100000000002C1C05080B0000000000000080
:10200100000A002000000000381C05080B00000039
:1020110000000000F409002000000000441C050835
:102021000B00000000000000E80900200000000093
:10203100501C05080B00000000000000DC09002016
:10204100000000005C1C0508070000000000000003
:10205100D409002000000000641C050807000000EE
:1020610000000000CC09002000000000701C0508E1
:102071000B00000000000000C0090020000000006B
:102081007C1C05080B00000000000000B4090020C2
:1020910000000000881C05080B0000000000000083
:1020A100A809002000000000941C05080800000099
:1020B100000000009C09002000000000A41C05088D
:1020C1000D00000000000000900900200000000049
:1020D100B41C05080700000000000000880900206A
:1020E10000000000C41C05080700000000000000FB
:1020F1008009002000000000D41C05080700000032
:10210100000000007809002000000000E41C050820
:10211100070000000000000070090020000000001E
:1021210088130508020000009DD00108010000008D
:1021310000000000941305080100000000000000E9
:102141000000000000000000000000000E00000080
:10215100000000000000000000000000F81C05085D
:10216100000000000000000000000000000000006E
:102171000C1D05080800000000000000FC0A0020FA
:10218100000000001C1D0508080000000000000000
:10219100F00A0020000000002C1D050808000000C6
:1021A10000000000E40A0020000000003C1D0508BA
:1021B1000800000000000000D80A00200000000014
:1021C1004C1D05080800000000000000CC0A00209A
:1021D10000000000601D050808000000000000006C
:1021E100C00A002000000000701D05080700000063
:1021F10000000000B80A002000000000881D05084A
:102201000700000000000000B00A002000000000EC
:10221100A01D05080700000000000000A80A00201A
:1022210000000000B41D05080700000000000000C8
:10223100A00A002000000000C41D050807000000DE
:1022410000000000980A002000000000D81D0508C9
:102251000700000000000000900A002000000000BC
:1022610088130508020000009DD00108010000004C
:1022710000000000941305080100000000000000A8
:102281000000000000000000000000000E0000003F
:10229100000000000000000000000000E81D05082B
:1022A1000000000000000000020400200000000007
:1022B100F81D05080B00000000000000C00B002005
:1022C10000000000041E05080B00000000000000D3
:1022D100B40B002000000000101E05080B000000D8
:1022E10000000000A80B0020000000001C1E0508D3
:1022F1000B000000000000009C0B0020000000000B
:10230100281E05080B00000000000000900B0020B3
:1023110000000000341E05080B0000000000000052
:10232100840B002000000000401E05080B00000087
:1023310000000000780B0020000000004C1E050882
:102341000B000000000000006C0B002000000000EA
:10235100581E05080B00000000000000600B002063
:1023610000000000641E05080700000000000000D6
:10237100580B002000000000701E05080700000037
:1023810000000000500B0020000000007C1E05082A
:102391000700000000000000480B002000000000C2
:1023A1008C1E05080700000000000000400B002003
:1023B100000000009C1E050808000000000000004D
:1023C100340B002000000000A41E050807000000D7
:1023D100000000002C0B002000000000B01E0508CA
:1023E1000D00000000000000200B00200000000094
:1023F100C01E05080700000000000000180B0020A7
:1024010000000000CC1E05080700000000000000CD
:10241100100B002000000000DC1E05080600000073
:1024210000000000080B00200000000088130508D0
:10243100020000009DD00108010000000000000022
:1024410094130508010000000000000000000000D6
:1024510000000000000000000E000000000000006D
:102461000000000000000000EC1E05080000000054
:10247100000000000204002000000000041F050805
:102481000700000000000000440C002000000000D4
:10249100101F05080800000000000000380C002093
:1024A100000000001C1F05080700000000000000DC
:1024B100300C002000000000281F05080700000064
:1024C10000000000280C002000000000301F05085B
:1024D1000700000000000000200C002000000000A8
:1024E100381F05080700000000000000180C00203C
:1024F10000000000201E0508070000000000000089
:10250100100C0020000000002C1E05080700000030
:1025110000000000080C002000000000381E050823
:102521000700000000000000000C00200000000077
:10253100401F05080700000000000000F80B002004
:1025410000000000481F050807000000000000000F
:10255100F00B002000000000501F050807000000DC
:1025610000000000E80B002000000000581F0508D3
:102571000800000000000000DC0B0020000000004B
:10258100681F05080700000000000000D40B0020B0
:1025910000000000781F050807000000000000008F
:1025A100CC0B002000000000881305080200000089
:1025B1009DD00108010000000000000094130508EF
:1025C1000100000000000000000000000000000009
:1025D100000000000E0000000000000000000000EC
:1025E1000000000000000000E5AD01084C0C0020D7
:1025F10071EA00202C00000004C8040870EA0020E1
:1026010000C801006EEA0020E803D00701000000C5
:10261100535441434B5800000BEA002000030100D2
:102621000AEA00200003010025AD0108F5AC01080C
:10263100280D0020B1AC010865AC0108C80D0020CF
:102641006DAD010855AD0108900E0020C9AB010820
:1026510075AB0108B011002009B30108D9B2010816
:10266100A0120020F9AD0108ADCB010868130020CC
:102671004DAB010877CB0108CC13002025D0010810
:102681006DB301084414002079AF0108FDAE0108C3
:102691000C150020B1B00108F9B00108C4160020E2
:1026A10023EC00200106010089AE010821AE0108DA
:1026B1001C190020F5AF0108DDCB01085C1A0020D0
:1026C1002DB101089DCC0108281C00200EEC002032
:1026D10001030100801F0508000000000000000048
:1026E10000000000000000008C1F05080800000029
:1026F10000000000C41D002000000000941F050818
:102701000700000000000000BC1D002000000000C8
:10271100A41F05080D00000000000000B01D0020EE
:1027210000000000B01F0508030000001DCE0108D5
:10273100A41D00200000000088130508020000000D
:102741009DD001080100000000000000941305085D
:102751000100000000000000000000000000000077
:10276100000000000E00000000000000000000005A
:1027710000000000B81F0508000000000000000074
:102781000000000000000000C81F05080A0000004A
:10279100000000005004050800000000D01F0508DB
:1027A1000A00000000000000D0120508000000002F
:1027B100D81F05080A000000000000002EED0020CF
:1027C10000000000E01F05080A00000000000000F2
:1027D100D01D002000000000941305080100000036
:1027E10000000000000000000000000000000000E8
:1027F1000E000000000000000000000000000000CA
:10280100E81F0508000000000000000000000000B3
:1028110000000000F41F0508030000001DCE0108A0
:10282100001E002000000000002005080300000039
:102831001DCE0108F41D002000000000082005083D
:10284100030000001DCE0108E81D0020000000006B
:1028510010200508050000000000000009EA002022
:10286100000000001820050807000000000000001B
:10287100E01D0020000000002420050807000000E2
:1028810000000000D81D002000000000881305088A
:10289100020000009DD001080100000000000000BE
:1028A1009413050801000000000000000000000072
:1028B10000000000000000000E0000000000000009
:1028C10000000000000000003020050800000000AA
:1028D1000000000000000000000000004420050886
:1028E100030000001DCE01083C1E00200000000076
:1028F10050200508030000001DCE0108301E0020F5
:102901000000000054200508030000001DCE01084E
:10291100241E0020000000004C07050803000000F1
:102921001DCE0108181E002000000000D018050867
:10293100030000001DCE01080C1E00200000000055
:1029410088130508020000009DD001080100000065
:1029510000000000941305080100000000000000C1
:102961000000000000000000000000000E00000058
:1029710000000000000000000000000060200508C9
:102981000000000000000000000000000000000046
:10299100702005080700000025CD01088C1E0020CD
:1029A10000000000F4180508030000001DCE010816
:1029B100801E0020000000007C20050803000000AC
:1029C1001DCE0108741E00200000000084200508AF
:1029D100030000001DCE0108681E00200000000059
:1029E1008C2005080700000009CD0108601E0020A9
:1029F1000000000000070508030000001DCE0108CB
:102A0100541E00200000000098200508030000006B
:102A11001DCE0108481E0020000000008813050893
:102A2100020000009DD0010801000000000000002C
:102A310094130508010000000000000000000000E0
:102A410000000000000000000E0000000000000077
:102A51000000000000000000B5AD010885AD0108CF
:102A6100941E002039B3010800000000341F00202B
:102A710041AC01081DAC0108C01F0020000000008E
:102A81000000000088200020A9B1010841CD010803
:102A91003C210020A42005080000000000000000E7
:102AA1000000000000000000B02005080300000045
:102AB1001DCE01084822002000000000B8200508B2
:102AC100030000001DCE01083C2200200000000090
:102AD100B4070508030000001DCE010830220020C4
:102AE10000000000C4200508030000001DCE0108FD
:102AF1002422002000000000D0200508030000006F
:102B01001DCE01081822002000000000D820050871
:102B1100020000009DD0010800000000000000003C
:102B210088130508020000009DD001080100000083
:102B310000000000E0200508020000009DD001080F
:102B41000200000000000000000000000E00000074
:102B5100000000000000000000000000FFFF000076
:102B61000000803F000000000000000000000000A5
:102B71000000803F00000000000000000000000095
:102B81000000803F00000000000000000000000085
:102B9100FFFFFFFF0000803FFF0000007C230020BB
:102BA1000508030000000000C4C70408BCC40408F1
:102BB100B8C7040800000000000000009B230108C2
:102BC100972301088F230108AB2F0108DD2F01088E
:102BD1008D230108692F0108812301087923010848
:102BE100752301086D230108010102FFFF000000A8
:102BF10000000000900D012008000000000000000E
:102C0100800D01200800000021980008D9980008D3
:102C1100351F01080000000061890008A18F00082C
:102C210049970008198F000800000000000000000B
:102C31001D890008D9870008CD870008A1970008E1
:102C4100BD97000885970008699700084D9700080F
:102C5100D9970008B5980008811E010800000000FE
:102C6100358900081D8F00081D9700087D8E00081A
:102C71000000000000000000298900081A0300007C
:102C81000000000000000000000000000000000043
:102C9100000000000000000004030904120100020A
:102CA10000000040830420570002010203010000DC
:102CB1007523040849F4030865F703082DF4030894
:102CC10035230408ED2204081DF40308082500201B
:102CD1000D54040835F4030831F4030829F40308FA
:102CE100051E040825F4030821F40308E0F904088B
:102CF1005D9800083D980008A11C01080000000033
:102D010000000000F5960008219600080000000070
:102D1100000000000000000011890008E1F4030830
:102D2100D5F40308D9FE0308F5FE03088DF4030862
:102D3100BDFE0308A1FE03080100000050010000D0
:102D41000700000002000000008002021F000000D6
:102D510053544D202020202050726F647574202020
:102D61002020202020202020302E3031FF000000A4
:102D710034250020000000000000000000000000D9
:102D81000000000000000000000000000000000042
:102D91000000000000000000000000000000000032
:102DA1000000000000000000000000000000000022
:102DB1000000000000000000000000000000000012
:102DC1000000000000000000000000000000000002
:042DD10000000000FE
:108000002DE9F04F2DED108B034697B004331593F7
:10801000DFEDCACA149002238A4613928B4612934C
:10802000149C4FEADB0604EB461202EB061031010A
:10803000A6EB86034FEAC60806EB4605CDE900012C
:1080400000EBC303043108F10400119620442144DD
:108050002C01C6EBC60C0394EC00119D04944FEA6E
:10806000CC0405946C0106EB860E0294159D009CD1
:1080700003EB46174FEACE0E02EBC6064FEACB09DA
:108080004FF0000C51ED01AAD3ED001A92ED007AE9
:1080900094ED005A96ED004AD7ED007A15ED012ACD
:1080A00050ED016A32EE07BA76EE840A7AEE855A0E
:1080B00031EEA70A3BEE256A70EE804A76EEC46A7E
:1080C00036EE244A36EE646A05ED014A82ED006A16
:1080D000D0ED00BAD6ED012AD3ED019A95ED00AAB4
:1080E00092ED016A97ED013A91ED00CAD4ED014A93
:1080F0007BEEE23A36EEE19A32EE472A73EEE98AF7
:108100003AEE464A39EE279A78EE838AB0EE428AF2
:10811000A9EE6C8ADC44E24573EEC33AB0EE441A31
:10812000A8EEEC1A76EEE77A33EEA97A7CEE643AA2
:1081300077EEA17A3AEE066A7AEEC51A3CEE24AAE8
:1081400074EECC4A39EE833A35EE6A5AF0EE639A11
:10815000F0EE48AAE7EE2C9AA8EEAC4AE7EE2C4ADD
:10816000E7EE6CAAF0EE418AB0EE427AB0EE612AF8
:108170007BEE656A7BEEA22A76EE4A5AA9EE2C7A4D
:10818000A7EEAC2AA7EEAC5AE7EEEC8A32EE83BA41
:1081900076EEC3BA35EEE09A75EEC07A36EE0A6A2C
:1081A00076EEE26A36EE0BAA76EE836A77EEA07A76
:1081B00034EE423A77EE290A36EE4B6A7BEEA22A7B
:1081C00039EE000A73EEAA3A78EE244A37EE697A5D
:1081D00031EE055A71EEA85A32EE044A85ED00AA36
:1081E00082ED016A4D4441ED012A4A44C4ED006A22
:1081F00081ED000AC4ED017A494440ED010A4C4486
:1082000087ED007AC6ED003AC3ED004A80ED003AF2
:1082100087ED014A484486ED015A4F44C3ED015AA7
:108220004E444B443FF62EAF119B072B40F2C781C3
:10823000029D149E019B03980499059A08357519AF
:108240000C330E95354608F108080EF10804EB18BA
:1082500008300831083246442C1928186918AA1821
:10826000079305F10C030D960C940B900A9109925B
:1082700008934FF001084FF0000E129B9E44139B91
:1082800003EBCE0303EBCE02109302EBCE0303EB22
:10829000CE01029101EBCE0101EBCE0505EBCE063E
:1082A000D6ED007A0F93AEEB8E03019106EB03132C
:1082B00003EBCE07D3ED01AACDED067A019BD5EDF8
:1082C000007A97ED01BACDED057AD3ED007A029BE5
:1082D000CDED047AD3ED007A0F9BCDED037A07EB59
:1082E000CE0CD3ED007ADCED01BACDED027A0CEBC9
:1082F000CE01D2ED007A109A009101EBCE0001463A
:1083000091ED01DACDED017A0099D2ED007A91ED8F
:1083100001CA00EBCE0000EBCE0494ED01EAD0EDF3
:1083200001DACDED007ADDE90776DDE90954DDE912
:108330000B01DDE90D23C44602E000BFF304353F25
:1083400094ED009A90ED00FA91ED006AD5ED007A77
:10835000D3ED006A57ED014A92ED005A56ED013A0D
:1083600096ED00AA35EE060A73EEA65A39EE278A74
:1083700034EE8F7A70EE082A75EE87EA35EE465AAB
:108380003EEEA26A73EEE63A06ED016AD1ED019A7D
:10839000D2ED01FAD4ED016AD3ED011A95ED013A5F
:1083A000D0ED018A97ED004A3FEEE96A35EE491AB1
:1083B00076EE660A31EE271A3AEE612A75EE677A92
:1083C00070EE830A3FEEA95A74EECF9A77EE897A5F
:1083D0007AEE211AB0EE42AA74EE68FAA0EEECAA88
:1083E000DC44E24535EEC77AB0EE639A74EE285A63
:1083F00038EEC44AF0EE698AA1EE6C9AE7EEAC8AD8
:1084000036EE436A7FEE644A36EE266AA0EEAC2A68
:10841000F0EE4A0AE7EEEC0AE7EEAC4AF0EE687AD4
:10842000F0EE498A36EE833AE6EE6C8AE1EE2C3ABB
:10843000B0EE6F1AA6EE2C1A71EEE56AA6EE2C4A83
:1084400071EEA55A75EE031A7EEEE22A37EE43FA74
:1084500075EEE1EAB0EE686A76EEC08A39EE044A5B
:108460007FEE86FA76EEC86A33EE816A38EE888A45
:1084700073EEC13A37EE457A2CEE2E1A3FEE055ACE
:1084800022EECC9A9DED03FA70EE266A33EE077A5F
:10849000AFEE221AAFEE2E9A7AEE244A9DED01FA43
:1084A00079EEA09A25EE4BAA72EE670A37EE822A81
:1084B0006BEE087AAFEE08AAEFEE057A2DEEA63A3B
:1084C0009DED05FA67EE6D8AAFEE073AEFEE268A6C
:1084D00066EE6A2A9DED00FA2AEEA00AEFEE202A47
:1084E0006EEE02EADDED060A23EECE5AE0EEA3EAD6
:1084F0002BEEA98ADDED023AAFEE060AA3EE848ADE
:1085000024EE6B7A6DEE246A9DED044A2FEECD6A5F
:10851000A0EE825AA3EEA97AE4EE2F6AA4EE246AB2
:1085200075EEA15AC6ED005A83ED001A83ED019A4B
:108530004E4447ED017A87ED00AA4B4480ED003AA6
:10854000C0ED018A4F4482ED000A4844C2ED012A81
:10855000C5ED00EA85ED015A4A44C1ED006A81ED9E
:10856000016A4D4484ED008A84ED017A49444C440B
:108570003FF6E6AE0E9B08330E930D9B08330D932A
:108580000C9B08330C930B9B08330B930A9B08330B
:108590000A93099B08330993089B08330893079BA8
:1085A00008330793119B08F1010843457FF465AE3A
:1085B000129BDDF844B0DB009BB2129330E517B09C
:1085C000BDEC108BBDE8F08F70B4C3080D4CE25CBD
:1085D00000F00706B24004EBD004D2B20020C6F18E
:1085E00008038B4228BF0B46C3F108052A41984077
:1085F000C91A40EA02004FF0000614F8012FEED12C
:1086000070BC7047D8250020084AD2E91A31994237
:1086100009D0D118013391F870100170C3F30A0327
:108620009366012070470020704700BF9825002006
:10863000064AD2F87038D2F87428934294BF4FF4A7
:1086400000600020013B9B1A1844704798250020C9
:10865000012380F84D30704707B501A8FFF7D4FF1C
:108660000028FAD09DF8040003B05DF804FB044B29
:10867000D3E91A03984288BF03F50063181A7047BC
:108680009825002001207047024BC3F87828C3F8D2
:108690007C18704798250020024BC3F88028C3F847
:1086A00084187047982500207047704730B4124DE9
:1086B000D5E91A239A4286BF03F50064A21A9A1AD2
:1086C0000A44B2F5006F12D8A1B101444A1E013824
:1086D00010F8014FE918824203F1010381F870405C
:1086E000C3F30A03F4D1EB66002030BC70470220CC
:1086F00030BC70470846F8E798250020212838B597
:108700000C4605D022282ED0202813D0002038BDBA
:108710000029FBD0072AF9D11A4BD3F8880893F81F
:108720008C1893F88D2893F88E382060217162712F
:10873000A371EBE70029E9D0072AE7D1114DD5F85D
:108740007C381BB10968D5F87808984720682179EA
:108750006279A379C5F8880885F88C1885F88D2882
:1087600085F88E38D2E70029D0D0022ACED1054A2A
:10877000D2F88438002BC9D00988D2F880089847ED
:10878000C4E700BF98250020024B0020C3F89008E2
:10879000704700BF98250020044B00200522C3F835
:1087A0009028C3F88408C3F87C08704798250020F7
:1087B000704700BF704700BF704700BF704700BFE1
:1087C000704700BF704700BF704700BF04230148D7
:1087D0000B8070470000002010B4074A074B92F846
:1087E0009408122403F114020C8001280CBF1846CF
:1087F00010465DF8044B70479825002004000020C7
:10880000A0B182680D4B12B107229A707047197897
:10881000DA6003294FF004000CBF80214FF480710F
:10882000C3E901111A611A7598707047034B41F240
:10883000B41101225A545A70704700BF9489002025
:108840000378022B10D0006908B9012070470B4B48
:108850001B78032B0EBF0A4B80B24FF6F77398427A
:1088600094BF002001207047064A43681268B3EBAA
:10887000422F2CBF01200020704700BF94890020A8
:10888000F7FFFF0FB49B00200378022B14D030B405
:10889000104A4368006941F2182441F21021155929
:1088A000515841F20C242B4012595B0A023801FB4B
:1088B0000030104430BC7047064B426841F204213E
:1088C00003F590505B58006800EB430000EB52202A
:1088D000704700BF9489002010B40C4A92F8973872
:1088E00002EBC3010133DBB2042B4FF0050408BFD8
:1088F00000234FF4045081F8984882F89738C1F863
:108900009C085DF8044B4FF0FF307047982500201D
:10891000202301480B8070472C000020642301486D
:108920000B8070474C000020432301480B807047A8
:10893000B000002010B5084CD4F8F400FF2809D08E
:108940000649D1F8B82801F6BC01FFF7D7FEFF238E
:10895000C4F8F430002010BD00000020982500204D
:10896000E8E700BF08B5D0F8E4355B6A9847002017
:1089700008BD00BF08B5D0F8E4351B6A9847002051
:1089800008BD00BF08B5D0F8E435DB6903B19847EE
:10899000002008BD08B5042290F81211D0F8E8357F
:1089A00080F8131180F81221DB689847002008BD79
:1089B00010B5D0F8E83504461B699847032384F8BE
:1089C0001231002010BD00BF38B53D4CD4F8CC3872
:1089D00005460BB11D22DA801846092138F0F8FF50
:1089E000D4F8CC0839F09AF994F8D238013B5BB24C
:1089F000022BDBBF334A1B010020D058C4F8C80843
:108A00000223102184F8C4383EF06EF840210A2079
:108A10003DF024F9FF218A203DF020F994F8D02878
:108A2000C0F38011012A84F8D31800F040033BD032
:108A3000022A254B34D07AB394F8D4281A2A07D1C5
:108A4000B3F8F820A4F8D858A4F8DA18A4F8DC2869
:108A5000B3F8F810D4F8C8083EF046F8D4F8CC08BB
:108A600039F056F9022100203DF0F8F8D4F8CC088E
:108A700039F054F994F8E52894F8E63894F8E418B5
:108A800084F8E018C2F12002C3F1100384F8E7284B
:108A900084F8E838012038BD1022A3F8F820CBE78D
:108AA0000822A3F8F820C7E725B90822064BA3F847
:108AB000F820C1E7002B14BF08221022F6E700BF00
:108AC00098250020E804001000000020F8B51A4C9A
:108AD00094F8E938002BFBD159B301444E1E451ED2
:108AE000D4F87428D4F8701815F8017F531CC3F318
:108AF0000A038B422CBF4FF400600020C91A2244A5
:108B000001440129C4F8743882F8EC780FD10120AF
:108B100038F0FCFBD4F87038D4F874188B4294BF4A
:108B20004FF4006200225B1A1344012BEFD0B542D0
:108B3000D6D10020F8BD00BF982500200A4B08467A
:108B4000D3F8901810B569B1D3F89038052B09D136
:108B5000064C002A54F80C3C04DD1146FFF7B6FF22
:108B600054F80C3C10BD00BF982500209036002022
:108B700010B590F84C10002380F84C3089B10C4CA3
:108B8000D4F890287AB1D4F89028052A0DD1094C50
:108B9000383054F80C3CFFF799FF54F80C3C012096
:108BA00010BD0120FCE71046FAE71846F8E700BFC1
:108BB0009825002090360020002280F84D20D7E72D
:108BC00090F84C20531C0244DBB280F84C3082F801
:108BD000381090F84D200AB1132B00D9C8E7704720
:108BE00010B5124C0023FF21206D23623FF0F2FAF2
:108BF000FD21206D3FF0EEFA206DFF213FF0EAFAF3
:108C0000FF280AD10146206D3FF0E4FAFF2804D185
:108C10000423022084F8243010BD054B53F80C3C8B
:108C200063610923002084F8243010BD98250020BA
:108C300090360020F8B5114D06460F460924286DE0
:108C4000FF213FF0C7FAFF2803D1013CF7D10120F3
:108C5000F8BDFE2801D00220F8BD3B463246286D03
:108C600000213EF0B7FF286DFF213FF0B3FA286DD9
:108C7000FF213FF0AFFA0020F8BD00BF982500208B
:108C800070B582B040F040050C0E06460A0A080C8A
:108C900095238DF80050134D8DF801408DF8041088
:108CA0008DF802008DF803208DF805300824286D1A
:108CB000FF213FF08FFAFF2802D0013CF7D176B9AF
:108CC000286D0623002269463EF084FF0924286DA2
:108CD000FF213FF07FFAFF2802D1013CF7D1FF20AE
:108CE00002B070BD9825002010B5054C206D3FF0F6
:108CF00069FA0028FAD1E06DBDE8104039F00EB8ED
:108D0000982500202DE9F0412DED028B0128514BD3
:108D100082B00D4658D0504E1A689B880092ADF82C
:108D20000430371FDFF850819FED4C8AD8F8CC36DD
:108D3000BDF800204A494B4C396007EE903AB4FB2D
:108D4000F3F4F8EE677A27EE888A7AB194420DD36D
:108D5000002D6CD0012D09D107EE902A1946424B07
:108D60003B60B8EE670A30463BF024F8BDF80230AD
:108D70008BB19C420FD3002D46D0012D0BD107EEB5
:108D8000903A394AD8F8CC163A60B8EE670A06F13C
:108D900024003BF00FF8BDF8043083B39C422ED37F
:108DA000DDB1012D2BD107EE903A2F4AD8F8CC1621
:108DB0003A60B8EE670A06F1480002B0BDEC028BDB
:108DC000BDE8F0413AF0F6BF284ED3F806205B89A3
:108DD0000092ADF80430371FA4E707EE903ADFEDBC
:108DE000246A244A3A60F8EEE77A002386EEA77AEE
:108DF000B36477EE087A88EE277A86ED137A02B0AC
:108E0000BDEC028BBDE8F08107EE903ADFED186A09
:108E1000184B3B60F8EEE77A002386EEA77A736280
:108E200077EE087A88EE277A86ED0A7AB3E707EEBE
:108E3000902ADFED0F6A0F4B3B60F8EEE77A0023D4
:108E400086EEA77A336077EE087A88EE277A86ED89
:108E5000017A8BE790360020D4050010BD378635A7
:108E6000C1EF030820A107002DEF030844060010FE
:108E700083F9223E21ED0308E804001023490B6B1F
:108E80000F2B03D05A1C0A630020704770B5204C8A
:108E900094F8E95800230B63EDB9D4F87028D4F89E
:108EA0007438B2F5006F18D09A422AD019D9C2F599
:108EB0000063402B17D9403B02F140054B6301236F
:108EC00084F8E938C4F8705892B2402311490A4432
:108ED00081210CF089F8002070BDC4F8705883B16E
:108EE0002A469B1AE5E74FF0000502EB03064D63A7
:108EF0000CBF02210121C4F8706892B284F8E9180D
:108F0000E4E7002384F8E938E5E700BF9036002065
:108F100098250020842E0020B0E700BF70B51D4CBE
:108F200094F8E938012B03D0022B09D0002070BD42
:108F300001461948436B53B984F8E938002070BDE5
:108F400000231A4681210CF04FF80023F4E7402B50
:108F5000D4F870280FD9403B02F140054363C4F8B0
:108F6000705892B240230D4C0846224481210CF0E7
:108F70003BF8002070BD4FF0000503EB020645638F
:108F800008BF0220C4F8706892B208BF84F8E908EC
:108F9000E9E700BF9825002090360020842E0020AD
:108FA000012905D008B503210CF01EFA002008BDE8
:108FB000B4E700BF70B50F4D2B6C04462BB195F88C
:108FC000442095F85830134310D0812120460BF0EF
:108FD00093FD95F85830022B00D070BD2046064A0C
:108FE000BDE870401F2301210CF020B801210BF0D7
:108FF00083FDEAE790360020C836002070B50C4C9F
:109000000C4BE36504F15C02054684F86810002609
:109010000D23812184F86C600BF0E6FF284604F1F3
:1090200038021F23BDE8704001210BF0FFBF00BFD5
:1090300090360020555342532DE9F041A94C94F845
:109040004730206782B088465A2B00F2AC80DFE8B8
:1090500013F0C000AA00AA00CE00AA00AA00AA002D
:10906000AA00AA00AA00AA00AA00AA00AA00AA00B0
:10907000AA00AA00AA000401AA00AA00AA00AA0045
:10908000AA00AA00AA0027017200AA00AA00720082
:10909000AA00AA00AA00AA00A401AA005501AA00D9
:1090A000AA007A00AA00F101AA00AA00AA00AA0058
:1090B0005B00AA00AA00AA00AA00AA00AA00AA00AF
:1090C000AA00AA00AA00AA00AA00AA00AA00AA0050
:1090D000AA00AA00AA00AA00AA00AA00AA00AA0040
:1090E000AA00AA00AA00AA00AA00AA00AA00AA0030
:1090F000AA00AA00AA00AA00AA00AA00AA00AA0020
:10910000AA00AA00AA00CE0194F848309B0700F1FB
:109110004082B4F84E30D4F84920D4F880105BBABD
:109120009BB212BAD0188842C4E9212303D9FFF7B1
:10913000D3FB00284ADB0020A4F878000546284627
:1091400002B0BDE8F08194F86C30002B40F0F6805E
:1091500094F94430002B26DA636F08469B689847E1
:10916000002840F0F681B4F84E50D4F84970D4F895
:1091700080306DBAADB23FBA7A199A42C4E921750E
:1091800003D9FFF7A9FB002820DBE36F266C03FB64
:1091900005F503FB07F20220B542C4E9212584F856
:1091A0006C0000F0CE80504A92F89738591CC9B232
:1091B00002EBC30305244FF40050042982F89718EA
:1091C00083F89848C3F89C0800F08B814FF0FF3576
:1091D000B5E7236C002BE6D1636F08469B68984780
:1091E0000546002840F0B581A4F87800A7E73F4B7A
:1091F000002203F1120103F8012F8B42FBD13A49FF
:109200003B4891F8975894F87A30702606709D4242
:109210004FF00C06C67112D001EBC3010133DBB273
:1092200091F8986891F89D5891F89C188670042BD5
:109230000573417314BF84F87A3084F87A2094F867
:109240004B3012229342A4F8782098BFA4F87830CB
:109250000025284602B0BDE8F08194F84830DA07CE
:1092600000F12781636F94F84B00DA6901EBC101CB
:1092700002EB81010A79531D834228BF0346A4F8FB
:109280007830002BE4D0013B19489BB201331944DC
:10929000034411F8012D03F8012D8342F9D1D7E7DA
:1092A000144E154F35460823073EC5F10700A4F8B4
:1092B0007830002201E0127A1D462B46B54203F8B1
:1092C000012900EB030217FA82F2F4D1636F4046E2
:1092D000DB6898470028BBD0AB7863F07F03AB70A6
:1092E00000252CE790360020982500208369002077
:1092F000846900208B69002044B90408636FBA4A6E
:109300005B680846111D98470546002840F02181FA
:10931000D4E91F12B54B013A100E1870DA70100C18
:10932000120A0E0E58709A70080CD9710822090A98
:109330001E7158719971A4F8782000E7D4E92126AC
:10934000E36F656FB2FBF3F2B6F5805F28BF4FF4B1
:1093500080562D69A549B6FBF3F340469BB24FF406
:109360008057A4F87870A8470028C0F2A780334639
:109370009E4A206F81210BF037FED4E92120636ED5
:109380003244851B9E1BC4E921256666002D7FF4AF
:109390005FAF032384F86C30D1E6944E0027334648
:1093A00006F10C0203F8017B9A42FBD1636F404641
:1093B0005B686A4601A998470546002840F0D480BA
:1093C000DDE90023013B190E3171190CF371717144
:1093D0001B0A110CF272B371120A082071720C236D
:1093E0000221B272F0703172A4F87830A7E6804E94
:1093F000804F30460823073EC0F10705A4F87830B7
:10940000002201E0127C18460346864203F8012937
:1094100005EB030217FA82F2F4D1636F4046DB6872
:10942000984700283FF414AFF37863F07F03F3709C
:10943000002584E694F86C30002B58D194F9443020
:10944000002BFFF6B0AE636F08469B689847002874
:109450007FD1636F4046DB6898470546002840F09F
:10946000A980B4F84E30D4F84960D4F880205BBAB3
:109470009FB236BAF3199342C4E9216700F294808F
:10948000E36F226C03FB06F603FB07F39342C4E988
:1094900021637FF488AEB3F5805F28BF4FF480531B
:1094A0000121206F514A84F86C109BB20BF0BEFD75
:1094B00045E607234F49A4F87830E4E64E4A92F88F
:1094C0009738591CC9B202EBC30304244FF48850E7
:1094D000A14282F8971883F89848C3F89C087FF453
:1094E00075AE002382F897384FF0FF3527E6D4F8A1
:1094F0008860606FE36FD4F884204569B2FBF3F2B3
:10950000B6F5805F28BF4FF480560846B6FBF3F3EC
:1095100036499BB2A84700285ADBD4E92125636E5F
:109520003244AD1B9B1BC4E92125636625B9206F1E
:109530002946FFF763FD02E6B5F5805F28BF4FF4CB
:109540008055ABB2206F294A01210BF06FFD002539
:10955000F5E5294A92F89738591CC9B202EBC303C2
:1095600002244FF4685028E6234A92F8973802EB19
:10957000C3010133DBB202244FF46850042B81F89D
:109580009848C1F89C0820D082F897384FF0FF35F2
:10959000D5E5194A92F89738591CC9B202EBC303B2
:1095A00005244FF4105008E6FFF796F90028BFF69F
:1095B00067AF0BE6104A92F89738591CC9B202EB14
:1095C000C30302244FF41C50F7E582F89778FDE5B9
:1095D000094A92F89738591CC9B202EBC303042414
:1095E0004FF4407074E700BF0C37002084690020FE
:1095F0008B69002044B904089825002010B5074B5A
:1096000093F845100446FFF717FD002800DB10BD56
:1096100020460121BDE81040F0E400BF9036002054
:1096200070B5304C94F86C502DB1012D01D1FFF77D
:10963000E5FF002070BDB0F8B433E26B22661F2B4B
:10964000226C6266064607D1274BA26B9A4203D171
:1096500094F8451001291AD9244A92F8973802EB58
:10966000C3010133DBB2042B08BF002305254FF4EF
:109670000050C1F89C0882F897383046022381F8E0
:10968000985884F85830FFF795FC002070BD94F886
:109690004630013B0F2BDFD8FFF7CEFC002819DB4B
:1096A00094F86C30013B022BC3D9B4F87810A9B1FF
:1096B000236C626E84F868508B4228BF0B46D11A27
:1096C000042561660A4A84F86C50304681210BF00B
:1096D0008BFCAEE73046FFF76DFCAAE73046FFF79C
:1096E0008DFCA6E790360020555342439825002074
:1096F0008469002008B5084B93F86C30022B07D022
:10970000033B012B02D80021FFF778FC002008BDA5
:10971000FFF774FF002008BD9036002010B501EB64
:109720008101084A00EBC1010446B1F88C131046D0
:10973000FEF7BCFF034A2046402301210BF076FCD4
:10974000002010BD1C370020E8E700BF10B5044C16
:1097500004480A4621460BF0A9F9204610BD00BF77
:109760005C370020E803050810B5044C04480A469D
:1097700021460BF09BF9204610BD00BF5C3700204E
:10978000F803050810B5044C04480A4621460BF0BE
:109790008DF9204610BD00BF5C3700200404050889
:1097A00010B5044C04480A4621460BF07FF92046C8
:1097B00010BD00BF5C3700201004050810B5044C34
:1097C00004480A4621460BF071F9204610BD00BF3F
:1097D0005C3700201C04050810B502230446402213
:1097E00081210BF0BDFC20460223402201210BF019
:1097F000B7FC82212046032308220BF0B1FC064B64
:1098000002229A83FEF7C8FF044A20464023012122
:109810000BF00CFC002010BD000000201C370020C5
:1098200038B508220D460446032383210BF098FC2B
:1098300029462046FFF7D0FF002038BD10B5812112
:1098400004460BF057FC204601210BF053FC024B61
:10985000002083F86C0010BD9036002070B50446DF
:10986000134EFFF7EBFF20460223402281210BF02D
:1098700077FC40220121204602230BF071FC736F1C
:1098800000251B6886F86C50284686F85850984783
:1098900020460BF08FFD204601210BF0A5FD204650
:1098A00006F138021F2301210BF0C0FB284670BDD2
:1098B0009036002010B5812104460BF01BFC204699
:1098C00001210BF017FC822120460BF013FCFEF760
:1098D0005BFF002010BD00BF38B50D460446832154
:1098E0000BF008FC29462046FFF7E4FF002038BDB6
:1098F00000F01F0240090123032803FA02F304D0F9
:1099000004280CD0022805D07047074A116C0B437D
:1099100013647047044A516C0B4353647047024A06
:10992000116B0B43136370470038024000487047C7
:10993000BC3800202DE9F04F2DED028BC44F97B0BD
:1099400097F86823002307F555710391C7F854333E
:10995000C7F85833C7F85C33C7F86033C7F86433C7
:109960001AB197F8693387F8543397F86A331BB103
:1099700097F86B3387F8633397F86E331BB197F81A
:109980006F3387F85E3397F86C331BB197F86D33FC
:1099900087F8593397F8709309F1FF394FFA89F92D
:1099A000B9F1FF3F00F0B780AA4AAB4C029402EB3A
:1099B00009134FEA0911187955589A68DB6805931D
:1099C00008EE100A002304920193A3461E4698460F
:1099D0009BF800404946204639F088FC82462046E4
:1099E000BAF1000F21D037F07DF908F107021321F9
:1099F000D2B220B14FF0000E827180F807E037F04C
:109A0000E7FF9BF8000039F0A3FC4FF00703721C3E
:109A10008BF804304FF001038BF802608BF80100E3
:109A2000CDF804A0D6B28BF8033008F10108B8F1E4
:109A3000040F0BF1050BCBD118EE100A029CFFF7B7
:109A400057FF864A864B51680B4043F440335360BE
:109A5000B9F1000F01D1019B73B9DFF808824820EA
:109A6000FFF746FF404602213EF0C6FCD8F808301A
:109A700043F00103C8F8083078497A4B4A687A48BD
:109A8000DFF8F4E1B0F800C042F400024A605A681E
:109A9000A7F874C322F480525A609A6BBEF800E0B3
:109AA00022F4401242F480129A63DA6842F46002AF
:109AB000DA60996B81F44012C2F3015202EB82002A
:109AC0004FF01F0808FA00F221EA02011122824039
:109AD0000A439A63DA6842F4E012DA60996BC1F3E0
:109AE0000152C2F10402D2B202EB820008FA00F283
:109AF00021EA0201102282405C480088A7F872E344
:109B00000A439A63A0EB0C00594B93FBF0F0019BC6
:109B1000A7F8760323B917B0BDEC028BBDE8F08F30
:109B2000284631463EF068FC039B474603F1140E7D
:109B300001204FF00708E378411CC9B23BB394F809
:109B400001C02379ACF10A0202EB42020CEB4C0992
:109B5000BCF1090F08FA02FA08FA09FB03FA02F24B
:109B600040F28C80EB6823EA0A0A42EA0A02EA60C1
:109B7000431E03EB8303062807FA03F90CFA03F3E9
:109B80004FD86A6B22EA0902134308466B63053417
:109B9000A645D0D1AB68DDF8108043F40073AB600C
:109BA000AB6843F48073AB60AB6843F00103AB6018
:109BB00040463DF0F5FD002206213DF0AFFE404657
:109BC0000BF0B8FC07A80BF077FC012E059B294A87
:109BD00007938CBF4FF48064002405F14C000023F0
:109BE0000B960D940890099207A94FF400324FF498
:109BF00000674FF400564FF4807440460A930C936C
:109C0000CDE90E76CDE910420BF068FCD8F80030B3
:109C100043F00103C8F80030AB6843F08043AB6009
:109C200079E7C21FA0F10D0302EB820203EB83036D
:109C30000C2807FA02F907FA03F00CFA02F226D808
:109C40002B6B23EA09031A4308462A639FE700BFE8
:109C5000903600205CB90408E4390020002301405C
:109C6000E030FCFF002001402C7AFF1F2E7AFF1FFE
:109C700080380100083A00202A7AFF1F2A6903FA77
:109C800009F322EA0B0B43EA0B032B6170E7EA6A44
:109C90000CFA03F322EA000213430846EB6276E76C
:109CA00000285FD00368374A2DE9F04103F13F44B3
:109CB00004F57E0402EB9422012492F8482002F07D
:109CC0001F055209032A04FA05F456D0042A4FD07E
:109CD000022A48D08588B5FA85F0C0F11F00C0F38C
:109CE000CC0603EB860600F0070082000F24306AE2
:109CF000944020EA04003062306A01FA02F2024322
:109D0000002132624FF0010E0A464FF0030C022789
:109D10000EFA02F838EA050002F101021CD11868B7
:109D20000CFA01F420EA04001860186807FA01F63A
:109D300006431E609E6826EA04069E609868986046
:109D4000586820EA0800586058685860D86820EAC7
:109D50000400D860D868D860102A01F10201D7D178
:109D6000BDE8F0817047084A556C2C435464B1E754
:109D7000054A156B2C431463ACE7034A156C2C435E
:109D80001464A7E744B90408003802402DE9F04103
:109D9000884C94F8900304F5617382B0C4F8803362
:109DA00018B9002002B0BDE8F08136F09BFFC4F87E
:109DB0008C0320B1837913B1353B012BF1D894F892
:109DC0009133013B02225BB2934284F88423E8DCA6
:109DD000794A1B01D358002BE3D0C4F8883308B16B
:109DE0001A23C380092137F0F3FDD4F88033986833
:109DF00037F094FFD4F88033102158683CF074FE9B
:109E0000D4F88033C4F8943332209F23009337F082
:109E10007DFA04230DEB03026946D4F88003002584
:109E20008DF805503DF046FF9DF806209DF8050091
:109E30009DF80710614B120242EA00420A439A421F
:109E400000F084806EDC5E4B9A4227D038DCA3F5AC
:109E50001A43033B9A4200F0948003F51A430233FD
:109E60009A4218D1574BC4F89C334FF480304FF4CA
:109E70000001C4E9E8014FF480720023A4F8A8238C
:109E800084F8AA33504BC4F89833012084F8B10306
:109E900002B0BDE8F0814D4B9A4217D14FF0012539
:109EA0004FF480304FF080714FF480720023C4E98A
:109EB000E750C4F8A413A4F8A82384F8AA33E1E770
:109EC000434B9A4265D001339A42CBD0002594F897
:109ED0009003A4F89C53C4E9E855A4F8A85336F0BD
:109EE00001FF3C4E804616F8017B384636F0FAFEFC
:109EF000804558D001350B2DF5D194F8C053284634
:109F000036F0F0FE80454CD094F8C153284636F028
:109F1000E9FE804508BF01217FF443AF284638F0B1
:109F20005CFC3EE72C4B1344042BCFD8042BCDD83C
:109F300001A252F823F000BF839F0008939F0008FE
:109F4000659E00089D9E00084D9F0008234BC4F8A5
:109F50009C334FF000714FF480334FF48075002232
:109F6000C4F8A033C4F8A4130123D4F89403A4F8CC
:109F7000A853B72184F8AA2384F8B0333BF0F8F84B
:109F800080E7174BC4F89C334FF480304FF4001136
:109F90006FE7144BC4F89C334FF480304FF48001CA
:109FA00067E70021BAE73846294638F028FC002048
:109FB000F8E600BF90360020E80400101920C20027
:109FC00018BA20008000000194B90408186001004C
:109FD0001620C200443A0020EBBF10FF000200012F
:109FE00020000001400000012DE9F041C64BC74EA2
:109FF000C74DC84C0822C3F88820336B82B043F0A9
:10A000000103336307464FF4C052284640F202333F
:10A0100088466946CDE900230BF08CFC6B6AC4F8D6
:10A02000A88923F470436B626B6AC4F8B07943F477
:10A0300020436B626B6AB848C4F8AC0923F4702300
:10A040006B626B6AB549C4F8C41343F420236B6296
:10A05000736CB34FC4F8C87343F480437364736B79
:10A06000B048C4F8D40343F080037363336AAE4945
:10A07000C4F8DC1343F0805302213362AB4D84F803
:10A08000CC13AB4EAB49AC4AAC4FC4F8E0534FF0E5
:10A09000A043C4F8D033C4F8E4130123C4F8E86340
:10A0A000DFF8C8C2DFF8C8E2C4F81CC405F51075B3
:10A0B000A1F5A861A6F58C66C4F82074C4F82454F0
:10A0C00084F8CF33C4F818E4A7F5E0675361A5F529
:10A0D000C465C4F8D8139A4A84F8D6341946C4F82B
:10A0E0005464984BC4F89074A03607F5A077C4F870
:10A0F0005C54C4F86864A035934EC4F86024C4F876
:10A10000647402F52A6207F5D457C4F86C34C4F8B5
:10A11000705403F569534FF050250020ACF5C06C26
:10A12000C4F89424C4F8987402F5A04207F5A04737
:10A13000C4F89C64C4F8A03406F5A046A3F54853BF
:10A14000C4F8A45404F57175C4F8A824C4F8B06424
:10A15000C4F8D034C4F858C40246C4F8AC742B46D2
:10A1600084F8D804402683F81C21A3F82221013268
:10A17000042AC3E9496083F81D1183F81F01C3F85D
:10A18000300103F12803EED1002211462B46402076
:10A1900083F87423A3F87A230132042AC3E9DF0188
:10A1A00083F8751383F87713C3F8881303F1280332
:10A1B000EED14FF0A04365489A6822F001029A6000
:10A1C000DA6842F04002DA600BF04EF894F8CD33D2
:10A1D0000022212161F317420BB142F4801294F85E
:10A1E000C713D4F8D03301299A6300F0E680DA6807
:10A1F000D4F8D064D4F8D403C2F3076121F060012D
:10A2000041F0400161F31F620021DA6031600268B1
:10A2100061F3CC22026094F8CF23012A00F0BA80C7
:10A2200010214B480BF0E0F849480BF0C3F8D4F884
:10A23000D40394F8C53300224FF0FF31026142612C
:10A240008161C26153B305F11407424E114607EB19
:10A2500083074FEA830C4FF0FF0E56F8042F136864
:10A26000002BACBF00234FF09043B7421360116145
:10A27000C2F808E0F1D105F15003374963440027E3
:10A28000FF2651F8042F1568002DACBF00254FF0B4
:10A2900090459942156017619660F2D1036994F870
:10A2A000C71343F480730129036163D0D4F8D0232A
:10A2B0002A480023936100294FF0FF336FF080415B
:10A2C00051615360516114BF00231023906143F426
:10A2D00070139069D4F8AC1943F4605343F0080349
:10A2E000034393619368096843F0010393608847CF
:10A2F0001B4B1C4ADA6068461B4B00930BF092F82C
:10A3000002B0BDE8F08100BF00E100E0003802408B
:10A310000000024090360020FC00002008040100EC
:10A320004000400100080050000900502009005082
:10A330006009005040090050003C0140400B0050B3
:10A3400060050050C005005000300050603A002009
:10A35000543A0020683A0020A43A00200008008007
:10A3600000ED00E00005FA0543020001200B00505B
:10A37000000B0050D4F8D023144B03636FF08041DE
:10A38000134D00234FF0FF309361516150605161D4
:10A3900095619CE701680F4A0F4E41F0030101608F
:10A3A000802159629E62C3F80421E022C3F808218B
:10A3B000C0F24002C3F80C2132E79A6822F03E0155
:10A3C00041F02A0161F307029A6010E7030181005E
:10A3D00000080080A0004000800020002DE9F0412E
:10A3E000204D95F8BF3985F8B83905F6BC1705F545
:10A3F0001C6600244FF0050817F8010B20BB3060E5
:10A400000134032C06F10406F6D195F8B819D5F8F5
:10A41000C009C94301F0010137F086FC95F8B8196D
:10A42000D5F8C40981F00201C1F3400137F07CFC8A
:10A4300095F8B819D5F8C80981F00401BDE8F041D4
:10A44000C1F3800137F070BC36F04CFC01340121BF
:10A450003060E3B210B180F80680C371306837F025
:10A46000B7FACEE790360020F8B5184C94F82430AF
:10A47000042B07460E46154607D0082B01D00020B6
:10A48000F8BDFEF7ADFB0228F9D1E06D37F040FCD6
:10A49000A37E8BB979021120FEF7F2FB90B90C4B29
:10A4A000266053F80C2C67600523C4E903506261F1
:10A4B00084F824300120F8BD39461120FEF7E0FB76
:10A4C0000028ECD0FEF710FCD9E700BF982500204B
:10A4D0009036002070B53F4E3F4D96F8CD39002B99
:10A4E00014BF0122002285F8542002D185F82430BF
:10A4F00070BD96F9CE39022BDBBF384A1B01002212
:10A50000D25896F8CC392A65002B14BF01230023BA
:10A5100085F856302DD196F8D00900283CD196F810
:10A52000CF39E865002B44D11A464FF48071286D6D
:10A5300085F85530AA653CF0D7FA4FF47A7036F0BA
:10A54000E5FEE86D264C37F0E9FB0022286D114648
:10A550000A233DF03FFB01E0013C34D0286D3DF083
:10A5600031FE0028F8D156F80C3C6B6128760123A7
:10A57000BCE796F8D20996F8D3291A4B85F86420DF
:10A58000421E03EB4213172100222B663DF0C6F951
:10A5900096F8D0090028C2D036F0A4FBE86508B1CF
:10A5A0001823C380092137F013FA96F8CF39002B0E
:10A5B000BAD0184636F096FB96F8D139003B0246E1
:10A5C00018BF0123B1E72B7E85F8244001332B7699
:10A5D00070BD00BF9036002098250020E8040010D0
:10A5E000A18601001801002099B10A6B824216D998
:10A5F000154BD3F8042A914221D34C3991421ED3F2
:10A600000B6B9842F9D38B6B9842F6D80B461846E1
:10A6100070470D4BD3F8041A0A6B904212D30B68A3
:10A620000BB9F4E70A6B90420B4602D38A6B904257
:10A63000EDD951F84C3F002BF4D118467047002358
:10A64000184670470A46D8E7903600202DE9F047B3
:10A65000CC0143D10346224A43F8082B4FF0FF3286
:10A660004260022418467E26DFF87880D8F8089ADF
:10A670002644013E051D49466FF070474FF0010A20
:10A6800008E0A3421CD0631C45F8043C321B1C4666
:10A690000435CAB10B6BA34202D88B6BA34204D220
:10A6A0002046FFF7A1FF014690B10A794B6B002AC3
:10A6B000E7D1A34204D0E6D245F8042C631CE5E7B9
:10A6C00045F8047C631CE1E7C8F8081ABDE8F08788
:10A6D00045F804AC321B631C4946D8E78026C3E723
:10A6E000F8FFFF0F90360020F0B40D6800240CE056
:10A6F000BCF1050F18D8A0F137030A2B14D104EBD5
:10A70000840415F8010B03EB4404A0F13003DEB21E
:10A71000092EA0F16107A0F1410CF0D9052FE7D86F
:10A72000A0F157030A2BEAD00D601460F0BC70470B
:10A73000036870B55E6A26B133460522BDE87040F5
:10A74000184704460D464E1D00E023689B682046CE
:10A7500098470028F9D0236815F8011B1B6820468C
:10A760009847B542F1D170BD2DE9F04F9BB0DDE9BE
:10A77000247ADDF8989004460D461646984602E085
:10A78000206837F05FF8206837F064F80028F7D1C8
:10A790000146642201A841F06CF82A4B8DF8045060
:10A7A000CDF85CA00293002D48D0AB1E012B47D9F9
:10A7B000042D14BF00230323DFF88CA08DF805308F
:10A7C0005AF80C3C03971F440123CDE905940497E4
:10A7D0008DF85B3036B14246314607A840F0E8FFBD
:10A7E0008DF85A809AF8527A4FF00009132FCDF85D
:10A7F000609015D89AF851BA642202FB0BA001A907
:10A800000BF1010B00F6542040F0D2FFBBF1130F07
:10A81000D8BF5FFA8BF901378AF8527A8AF8519AD1
:10A82000236843B143463246294620461BB0BDE863
:10A83000F04F0EF0A1BB1BB0BDE8F08F0523BBE7C6
:10A840000223B9E7A04000209036002070B444797C
:10A8500041BB03684FF400524FF4007620250221DB
:10A860003CBB1A8C22F001021204120C1A841A8BBF
:10A87000188C22F0F30280B2120420F00A00120CAD
:10A88000014342F0010241F001011A8319841A8B3D
:10A8900022F00C021204120C1A831A8B92B270BCB2
:10A8A0001A83704700220368164615461146002C8D
:10A8B000D7D0042C21D0082C38D0198C21F4805109
:10A8C0000904090C19849C8B1D8C45F6FF7040F619
:10A8D000FF4128402140024342F4805241F48071FC
:10A8E00099831A849A8B22F440621204120C9A8380
:10A8F0009A8B92B270BC9A8370471A8C22F0100225
:10A900001204120C1A84188B198C89B240F6FF427B
:10A9100021F0A00102400D4342F4807245F0100581
:10A920001A831D841A8B22F44062B3E71A8C22F436
:10A9300080721204120C1A84998B1A8C21F0F30184
:10A9400092B2090422F42062090C324342F480726C
:10A9500041F0010199831A849A8B22F00C02C4E71A
:10A960009FED737A07EE901A20EE070AF8EE677AE9
:10A9700027EE800AFDEEC07A17EE903A2033402B86
:10A9800000F2C780DFED6B7AB4EEE70AF1EE10FA61
:10A99000F0EE407A0CDD9FED686ADFED686AB0EE9C
:10A9A000677AB4EEE67AF1EE10FA77EEC67AF6DC64
:10A9B0009FED637AF4EEC77AF1EE10FA0CD59FEDB5
:10A9C0005E6ADFED606AB0EE677AB4EEE67AF1EEC9
:10A9D00010FA77EE867AF6D49FED5B7AF4EEC77ABA
:10A9E000F1EE10FA00F38D809FED587AF4EEC77AFD
:10A9F000F1EE10FA44BF9FED527A77EE677A27EEB8
:10AA0000A76ADFED535A9FED537ADFED536AA6EE46
:10AA1000257A67EE865AE6EE076AB6EE007AE5EE2C
:10AA2000A67A27EE877ADFED486A70EE267ABDEEC9
:10AA3000E76A16EE103A2033402B67D8B4EEE60AE8
:10AA4000F1EE10FA0CDDDFED3C5A9FED3C6AF0EEC2
:10AA5000676AF4EEC66AF1EE10FA77EEE57AF6DC94
:10AA6000DFED376AF4EEE67AF1EE10FA0CD5DFEDA1
:10AA7000325A9FED346AF0EE676AF4EEC66AF1EE80
:10AA800010FA77EEA57AF6D4DFED2F6AF4EEE67AC7
:10AA9000F1EE10FA40DDDFED276A76EEE77A67EE39
:10AAA000A75A9FED2B5A9FED2B6ADFED2B6AA5EE7F
:10AAB000856A27EEA55AE5EE866AB8EE006AE5EEED
:10AAC000267A67EE867AC7EE206A002383614361A7
:10AAD0000362C361B7EE006A76EE865A76EE666A66
:10AAE00086EE257A67EE277A66EE876AC0ED017AF0
:10AAF000C0ED037A80ED007A80ED027AC0ED046A41
:10AB000070479FED0C7A77EE677A78E7DFED137A7E
:10AB1000D9E79FED127A86E7DFED0C6AF4EEE67A6C
:10AB2000F1EE10FA44BFDFED066A76EEE77AB6E79B
:10AB300027D4D236DB0F4940DB0FC940E4CB1641A6
:10AB4000DB0F49C0E4CB16C1DB0FC93FDB0FC9BF28
:10AB500092E741B99730083C15A82ABE00000000D2
:10AB60002DE9F84FDFF82081464E98F8B819D8F84B
:10AB7000C409DFF818B1C1F3400137F0D5F898F8EF
:10AB8000B819D8F8C009C94301F0010137F0CCF871
:10AB900005274FF0010A4FF00009D8F8C43933B146
:10ABA0001A689B8851690B4214BF53831383D8F8EA
:10ABB000C03933B11A689B8851690B4214BF538363
:10ABC0001383B6F83031002B4DD196F83211D6F8F8
:10ABD000340137F0A9F8322536F03CFB044636F054
:10ABE00039FB001BB0F57A7FF9D3013DF4D1D8F8D9
:10ABF000C43933B11A689B8851690B4214BF53831F
:10AC00001383D8F8C03933B11A689B8851690B4255
:10AC100014BF53831383B6F83031CBB996F8321191
:10AC2000D6F8340181F0010137F07EF8322536F094
:10AC300011FB044636F00EFB001BB0F57A7FF9D30A
:10AC4000013DF4D1013F17F0FF07A6D1BDE8F88F11
:10AC5000D6F84C31002BE9D0D6F83831C3F8009043
:10AC600086F84991E2E7D6F84C31002BB3D0D6F8FC
:10AC70003821B6F85031BBFBF3F35B10136086F854
:10AC800049A1A8E7884700209036002040420F00E5
:10AC90002DE9F84F584F594E4FF00A08FFF760FF63
:10ACA0004FF4FA7536F0D6FA044636F0D3FA031BA1
:10ACB000B3F57A7FF9D3013DF4D197F8B819D7F8F5
:10ACC000C409C1F3400137F02FF897F8B819D7F845
:10ACD000C009C94301F0010137F026F84FF0060A18
:10ACE0004FF0010BD7F8C43933B11A689B8851690A
:10ACF0000B4214BF53831383D7F8C03933B11A689A
