:020000040800F2
:10000000F0FF0010B1A304085DFB0008C5DD030884
:100010004DA404084DA404084DA4040800000000E9
:10002000000000000000000000000000E9010108DD
:10003000E501010800000000E101010825D60308E0
:100040004DA404084DA404084DA404084DA40408BC
:100050004DA404084DA4040851E003087DE1030801
:1000600041E1030805E10308C9E003081991040808
:1000700009910408F9900408E9900408D59004084F
:10008000C1900408AD9004084DA404084DA40408D0
:100090004DA404084DA404084DA404088DE00308F1
:1000A0004DA404084DA404084DA404084DA404085C
:1000B0003DD003082DD003081DD003084DA404082B
:1000C0004DA404084DA404084DA404084DA404083C
:1000D0004DA4040899D703084DA40408FDD60308CD
:1000E00015E003084DA4040889210108DDCF0308A9
:1000F000EDCF03084DA40408FDCF03089990040830
:100100004DA404084DA404080DD003084DA4040810
:100110004DA404084DA4040801620308ED6103081E
:1001200085900408719004085D90040849900408C3
:10013000359004084DA404084DA404084DA40408F7
:100140004DA404084DA404084DA4040861FB000854
:10015000219004080D900408F98F040861D6030863
:100160004DA404084DA404084DA404084DA404089B
:100170004DA404084DA404084DA404084DA404088B
:080180004DA404084DA404087D
:08018800609F0400010000006B
:1001900005100600F06F0020FC6F0020000000003A
:1001A000CC060008130203001C3500200470002058
:1001B00000000000D206000804008000106F00203C
:1001C0000870002000000000000000002300100064
:1001D000E86E0020887000200000000071AD01086A
:1001E0000D00340090640020987000200000000092
:1001F000C959030813000400DC630020CC70002000
:1002000000000000D8060008F6210C00E063002082
:10021000D070002000000000DC060008F5317400FA
:1002200010630020DC70002000000000E5BA030825
:100230000B301400FC620020507100200000000010
:10024000E806000801010400F86200206471002043
:10025000000000000000000000010400F462002023
:100260006871002000000000FC0600080201030085
:10027000F06200206C71002000000000115903089A
:10028000FD012400BC62002070710020000000000D
:10029000E5AD0308061018001056002094710020E8
:1002A000000000000DB40208FB0101000C56002004
:1002B000AC71002000000000B1D40308FC0109006B
:1002C000D8540020B071002000000000C1D4030801
:1002D000F9010400D0540020BC710020000000008F
:1002E0005DAE030802000C00A0540020C071002085
:1002F00000000000000000000A6036007C3D002085
:10030000CC7100200000000000070008340010003D
:10031000C85300200472002000000000B12E020823
:1003200011020800A05300201472002000000000F9
:100330003607000812120400985300201C72002097
:10034000000000003E07000818202C006C5300201D
:100350002072002000000000BDBE030812200D0026
:10036000445300204C7200200000000042070008A7
:10037000FF010800985000205C720020000000007F
:1003800091BE03080202030074350020647200204D
:1003900000000000000000000C0203006035002097
:1003A00068720020000000003DB30308FE01090050
:1003B000344200206C720020000000001DB30308CE
:1003C0001B020800DCCC002060DF002000000000E1
:1003D00049B303080120080070DE002068DF002018
:1003E000000000005007000819000500F0DE0020A2
:1003F00070DF0020000000005807000837001E00D2
:10040000C8DE002078DF0020000000005E07000842
:100410001E000500BCCA002098DF0020000000007C
:100420007C0700081B00F40000C70020A0DF0020AC
:10043000000000001142010826000E00A4E0002088
:1004400094E0002000000000712B01081F201C0018
:1004500034CA0020D8E00020000000008207000815
:100460000502040084CD0020F4E00020000000001C
:100470009E07000803010A0024CA0020F8E00020BB
:1004800000000000A20700082C001000B8EE0020B9
:10049000A8EE002000000000ADBA01082B002400E7
:1004A000ECEE0020C8EE00200000000081BA010838
:1004B00029107800B8ED002010EF002000000000A7
:1004C000000000002810100098EF002088EF0020A6
:1004D000000000005DAD01081400040040ED0020A4
:1004E000A8EF002000000000AC0700080E02020088
:1004F0008CEB0020ACEF002000000000B0070008EB
:1005000010100300ACEB0020B0EF00200000000052
:10051000B2070008F8210600A4EB0020B4EF002089
:1005200000000000B60700082F00110090EB00202B
:10053000BCEF002000000000BC0700080C20B40045
:100540006CE50020D0EF002000000000E158030817
:100550000E806201B2E3002084F000200000000061
:100560006525020809020100E0EA0020E8F1002008
:1005700000000000CE070008010205002EE3002065
:10058000ECF100200000000055A101080002050068
:100590002CE90020F4F10020000000000000000021
:1005A0001A000E004CF7002088FA0020000000001E
:1005B000D0070008031233003CF3002052FA002059
:1005C00000000000DE07000825009600D0F30020A0
:1005D000BCF90020000000000000000015007000C1
:1005E00038F200204CF9002000000000000000005C
:1005F0002A00600070F30020ECF8002000000000EA
:100600003D2502080300010060FD002038020120A2
:100610000000000000000000160008000803012090
:100620005403012000000000120800081802020014
:10063000300301207C0301200000000000000000C6
:1006400017020B0025030120800301200000000099
:10065000ADB20308081209001C0301208C0301201D
:1006600000000000FDB20308F7010600120301209C
:1006700098030120000000001A0800080A020A007E
:1006800040020120A0030120000000002008000813
:100690001A023C00C0030120DC0B01200000000016
:1006A00099B90308270004001C0C0120180C012034
:1006B000000000002A08000810020100380C012088
:0C06C000340C0120000000002E0800088F
:1006CC00200003010000000000000000080044109E
:1006DC000000000001000000020200002B21231E7C
:1006EC0064010100000001000A012900230A000036
:1006FC009600000000300100000000007300730041
:10070C006900000000000000000000000000000074
:10071C000000020000019E077D00FA0096005802BE
:10072C00B80BB80BB80B2000C40900000000010185
:10073C000101FFFFFFFF00000001000005595046BA
:10074C0034000000E8036400040A000100002801E2
:10075C00000020003200C800D007960014003200C0
:10076C002800B00440060005500014000F000801DA
:10077C000000010000000000000000010000000566
:10078C000000010203000000000000000000000057
:10079C00000000000000040101006C1600000000C5
:1007AC00030000460000000500000101F4011400E4
:1007BC00000000000000000000000000000000002D
:1007CC00000038007E05EA05B4050300E803D007F5
:1007DC00000000000000000000000000000000000D
:1007EC0000000000000000000000000000000000FD
:1007FC0000000000000000000000000000000000ED
:10080C00000000000100C4090700B40128283900C9
:10081C0001004E0C00004A01B400D6012700200351
:03082C00000000C9
:10082F000403090412010002EF020140830456324F
:10083F000002010203010000120100020202004047
:10084F008304405700020102030100001A03000055
:10085F000000000000000000000000000000000089
:10086F000000000000000000040309041201000250
:10087F000000004083042057000201020301000022
:10088F0009022000010104C0320904000002080619
:10089F0050050705810240000007050102400000D6
:1008AF0009026400030100C03209040000010300C3
:1008BF00000009211101000122260007058303080A
:1008CF00000A080B010202020100090401000102E3
:1008DF000201000524001001052401000204240276
:1008EF00020524060102070582030800FF0904021E
:1008FF0000020A0000000705010240000007058101
:10090F000240000009024300020100C03209040046
:10091F00000102020100052400100105240100015D
:10092F00042402020524060001070582030800FFC4
:10093F0009040100020A000000070501024000003F
:10094F000705810240000000FF00000008000000C2
:10095F00C9870008C5870008C1870008B587000848
:10096F00B1870008BD870008B98700080060024002
:10097F00106002400000000000000000000B0000AB
:10098F0000000000000000000000000000600240B6
:10099F00286002400100000000000000060C00006B
:1009AF000000000000000000000000000060024096
:1009BF00406002400200000000000000100D000027
:1009CF000000000000000000000000000060024076
:1009DF00586002400300000000000000160E0000E7
:1009EF000000000000000000000000000060024056
:1009FF00706002400400000000000000200F0000A3
:100A0F000000000000000000000000000060024035
:100A1F008860024005000000000000002610000062
:100A2F000000000000000000000000000060024015
:100A3F00A06002400600000000000000301100001E
:100A4F0000000000000000000000000000600240F5
:100A5F00B86002400700000000000000362F0000C1
:100A6F0000000000000000000000000000640240D1
:100A7F001064024000000000000000000038000079
:100A8F0000000000000000000000000000640240B1
:100A9F002864024001000000000000000639000039
:100AAF000000000000000000000000000064024091
:100ABF00406402400200000000000000103A0000F5
:100ACF000000000000000000000000000064024071
:100ADF00586402400300000000000000163B0000B5
:100AEF000000000000000000000000000064024051
:100AFF00706402400400000000000000203C000071
:100B0F000000000000000000000000000064024030
:100B1F008864024005000000000000002644000029
:100B2F000000000000000000000000000064024010
:100B3F00A0640240060000000000000030450000E5
:100B4F0000000000000000000000000000640240F0
:100B5F00B8640240070000000000000036460000A5
:100B6F000000000000000000000000000101000074
:100B7F0005010905A101A10005010930093109325B
:100B8F00093309350934094009381581257F75085E
:100B9F0095088102C0C0000009022200010100E097
:100BAF0032090400000103010200092111010001B3
:100BBF002226000705830308000A00008950010858
:100BCF008D5501080551010829230108CD4F010852
:100BDF00392301085523010801230108F1220108D7
:100BEF0000000000000000006521010809880008CE
:100BFF00552101080588000815210108CD2001089D
:100C0F0001880008300400209199000871990008AC
:100C1F0085F800080000000000000000AD970008F4
:100C2F00D99600080000000000000000000000003E
:100C3F00C18A0008A188000895880008C998000893
:100C4F00E59800084D880008AD98000891980008B5
:100C5F00008002021F00000053544D20202020204E
:100C6F0050726F64757420202020202020202020B7
:100C7F00302E303100FFFF0000000000AA550501A3
:100C8F0000000100000001FFFF0100000000000054
:100C9F000102030401020304060708092D202D2D6C
:100CAF00202D2D2D2D202D2D2D2D0000000000008D
:100CBF000000000000000000000000AA550B01001A
:100CCF0000AA5507010000AA550902000000000004
:100CDF0001000000C012AA5503009F00FF1FFF1F55
:100CEF00FC04002004000000B4E00020000000001D
:100CFF000000803F0000803F000000000000000067
:100D0F0000000000000000000000000000000000D4
:100D1F0000000000000000000000000000020005BD
:100D2F001002700BE00101010100000045A3010852
:100D3F0000000000800600206C2105080000000064
:100D4F00000000000000000000000000E0070508A0
:100D5F000000000000000000070700200400000052
:100D6F00F02005080D00000009C60108CC2A00205C
:100D7F00000000005C1705080D00000031C60108D7
:100D8F00C02A0020000000003419050808000000E8
:100D9F0000000000B42A002004000000C817050856
:100DAF000D000000F9A30108A82A00200000000090
:100DBF008C18050803000000B1CA01089C2A002006
:100DCF00000000007C21050803000000B1CA0108E3
:100DDF00902A0020000000008C120508010000007E
:100DEF0000000000000000000000000000000000F4
:100DFF000E000000000000000000000000000000D6
:100E0F006C21050800000000000000000000000039
:100E1F0000000000E00705080000000000000000CF
:100E2F0007070020040000009C20050803000000B5
:100E3F002DC40108842A002008000000C8170508E7
:100E4F000D000000F9A30108A82A002000000000EF
:100E5F008C18050803000000B1CA01089C2A002065
:100E6F00000000007C21050803000000B1CA010842
:100E7F00902A0020000000008C12050801000000DD
:100E8F000000000000000000000000000000000053
:100E9F000E00000000000000000000000000000035
:100EAF008421050800000000000000000000000081
:100EBF0000000000E007050800000000000000002F
:100ECF000707002004000000A4200508030000000D
:100EDF00B1CA0108D82A0020000000008C120508B2
:100EEF0001000000000000000000000000000000F2
:100EFF00000000000E0000000000000000000000D5
:100F0F000000000020700020702D7200010800000A
:100F1F0000010101000000000000000000000000BF
:100F2F004026002001D6012D202D2D202D2D2D2DD9
:100F3F00202D2D2D000000000000000000000000FB
:100F4F000000000000000000FFFFFFFFFA0000009C
:100F5F00010000000100000050E600200000F40135
:100F6F00010000004EE600200000F4010100000027
:100F7F004CE600200000F401010000004AE60020CA
:100F8F000000F4010100000048E600200000F40119
:100F9F000100000046E600200000F40101000000FF
:100FAF0044E600200000F4010100000000120508D3
:100FBF000000000000000000000000000000000022
:100FCF0018120508000000000000000000000000DB
:100FDF0000000000381205080800000000000000A3
:100FEF0080070020000000004412050808000000E0
:100FFF0000000000740700200000000050120508D8
:10100F00080000000000000068070020000000003A
:10101F003C1D050808000000000000005C070020D0
:10102F00000000005C12050808000000000000002E
:10103F00500700200000000068120508080000009B
:10104F000000000044070020000000007412050893
:10105F00080000000000000038070020000000001A
:10106F0080120508020000005DC90108020000009F
:10107F00000000008C1205080100000000000000B5
:10108F000000000000000000000000000E00000043
:10109F0000000000000000000000000049AB010844
:1010AF0009AB01088C07002042E600200532010041
:1010BF0040E60020E803D007010000003EE60020D4
:1010CF00E803D007010000003CE60020E803D0074A
:1010DF00010000003AE600201E00B80B01000000DE
:1010EF0038E600201E00F4010100000036E6002063
:1010FF00140064000100000034E600200000C80066
:10110F0001000000941205089C120508E012050862
:10111F0000000000000000000000000000000000C0
:10112F001812050800000000000000000000000079
:10113F0000000000F4120508080000000000000085
:10114F00D808002000000000FC120508080000006D
:10115F0000000000CC08002000000000101305085C
:10116F000800000000000000C00800200000000080
:10117F00241305080800000000000000B408002038
:10118F0000000000381305080800000000000000F0
:10119F00A808002000000000481305080800000000
:1011AF00000000009C0800200000000058130508F4
:1011BF000800000000000000900800200000000060
:1011CF0068130508070000000000000088080020D1
:1011DF00000000007813050803000000B1CA0108E1
:1011EF007C080020000000008012050802000000AB
:1011FF005DC9010802000000000000008C12050804
:10120F0001000000000000000000000000000000CE
:10121F00000000000E0000000000000000000000B1
:10122F0000000000A81305080000000000000000E7
:10123F000000000000000000480A0508040000003C
:10124F00A1C3010800000000000000008C12050877
:10125F00010000000000000000000000000000007E
:10126F00000000000E000000000000000000000061
:10127F00000000009ECA00200100C4090000000009
:10128F009CCA00200100C409000000009ACA002077
:10129F000100C4090000000098CA00200100C40921
:1012AF000000000094CA00200100C40900000000E3
:1012BF0096CA00200100C4090000000092CA002055
:1012CF000100C4090000000090CA00200100C409F9
:1012DF000000000042E300200000FFFF0A000000B2
:1012EF0040E300200100C800010000003EE30020A1
:1012FF0032003075320000003CE30020055A050033
:10130F0039E3002000FF01003BE300200100000053
:10131F00E408002037E3002002000000E8D70408AB
:10132F0038E3002000FF01003AE300200100000035
:10133F00E408002036E3002002000000E8D704088C
:10134F002CE3002080C1803E050000002AE300202E
:10135F0080C1803E0500000028E3002080C1803E50
:10136F000500000026E3002080C1803E050000003C
:10137F0025E3002000FF010024E300200A320100D2
:10138F0023E3002004000000F4D7040822E3002028
:10139F000200000008D80408C5AA010881AA0108A4
:1013AF00EC08002056E60020EE02CA0801000000FB
:1013BF0054E6002000C801006400000053E600203E
:1013CF0000C801006400000052E600200200000087
:1013DF0014D804080000000000000000040A0020D8
:1013EF0034CD00209CFF2C010000000006050020DA
:1013FF000A00000020D8040818E30020E0150C179D
:10140F0000000000080500200800000028D4040890
:10141F00070500200500000060D904081AE300202A
:10142F000200000038D8040862E600200100FF7FA8
:10143F000100000061E600200200000044D804080B
:10144F0026E500200000F4010100000024E5002043
:10145F000000F4010100000022E500200000F4016B
:10146F000100000020E500200000F4010100000051
:10147F0036E500200100803E0500000032E5002027
:10148F000000803E6400000030E500200000803E38
:10149F00640000002EE500200000803E6400000084
:1014AF0034E5002003000002010000002CE50020BD
:1014BF00C800E803010000002AE500201E00E80331
:1014CF000100000028E500200000E80301000000F3
:1014DF001EE500200000803E010000001CE50020FA
:1014EF000000803E010000001AE500200000803E51
:1014FF000100000018E500200000803E0100000000
:10150F0016E500200000803E0100000014E50020D9
:10151F000000803E0100000067E500201964010013
:10152F006BE50020006401006AE500200064010003
:10153F0069E500200A32010068E500200300000081
:10154F0054D8040864E50020E803D0070A0000001F
:10155F0062E5002000FA01000A00000061E50020AA
:10156F0000FA01000A00000060E5002000FA010007
:10157F000A0000004FE50020006401004EE5002046
:10158F000064010056E50020006401000A0000001D
:10159F0055E50020006401000A00000054E500201A
:1015AF00006401000A00000059E5002000640100FA
:1015BF000A00000058E50020006401000A00000046
:1015CF0057E50020006401000A00000053E50020E9
:1015DF0000FF01000A00000052E5002000FF01009B
:1015EF000A00000051E5002000FF01000A00000082
:1015FF005FE50020005F01000A0000005EE50020AB
:10160F00005F01000A0000005DE50020005F01009F
:10161F000A0000005CE50020005F01000A000000E6
:10162F005BE5002019AF01000A0000005AE5002019
:10163F0019AF01000A000000A0E30020000A01001A
:10164F009FE30020000A01009EE30020000A010032
:10165F00B0E3002000FA0100AFE3002000FA010020
:10166F00AEE3002000FA0100ACE300200000F4011B
:10167F0001000000AAE300200000F40101000000B7
:10168F00A8E300200000F40101000000A6E3002001
:10169F000000F40101000000A4E300200000F401A9
:1016AF0001000000A2E300200000F401010000008F
:1016BF004CE50020FF0801004BE50020016401000C
:1016CF004AE500200064010049E500200100000008
:1016DF0064D8040848E5002000C8010046E5002052
:1016EF000000D0070100000045E5002000C8010000
:1016FF0044E5002000C8010043E5002000C80100B8
:10170F0042E5002000C8010041E5002000FA010079
:10171F000A0000003EE5002000FA01000A00000068
:10172F003BE5002000FA01000A00000040E5002020
:10173F0000FA01000A0000003DE5002000FA010058
:10174F000A0000003AE5002000FA01000A0000003C
:10175F003FE5002000FA01000A0000003CE50020F0
:10176F0000FA01000A00000039E5002000FA01002C
:10177F000A00000022E60020010A01002AE60020EC
:10178F0000FA010028E600200000E8030500000031
:10179F0033E6002000C8010032E6002000C8010037
:1017AF0031E6002000C8010030E6002000C801002B
:1017BF002FE6002000C801002EE6002000C801001F
:1017CF002DE6002000C801002CE6002000C8010013
:1017DF002BE6002000C8010026E6002000FA0100D9
:1017EF0024E600200000E8030500000021E60020A9
:1017FF0000640100EC130508000000000000000069
:10180F000000000000000000781C0508090000001F
:10181F0000000000A80A002004000000901C05082A
:10182F0009000000000000009C0A002004000000D6
:10183F00881E05080900000000000000900A002023
:10184F0004000000246105080900000000000000EA
:10185F00840A002004000000FC13050809000000A2
:10186F0000000000780A002004000000041405089E
:10187F0009000000000000006C0A002004000000B6
:10188F000C1405080900000000000000600A002089
:10189F0004000000141405080900000000000000F7
:1018AF00540A0020040000008C12050801000000FB
:1018BF000000000000000000000000000000000019
:1018CF000E000000000000000000000000000000FB
:1018DF00381605080000000000000000000000009E
:1018EF00000000001452050807000000000000006F
:1018FF00D80A002000000000481605080800000064
:10190F0000000000CC0A002000000000541605085B
:10191F000800000000000000C00A002000000000C6
:10192F005C1605080800000000000000B40A002043
:10193F000000000080120508020000005DC90108C8
:10194F0001000000000000008C12050801000000DB
:10195F000000000000000000000000000000000078
:10196F000E0000000000000000000000000000005A
:10197F006C160508000000000000000000000000C9
:10198F00000000007C1605080D000000000000009C
:10199F00140B002000000000841605080D00000045
:1019AF0000000000080B0020000000008C16050846
:1019BF000700000000000000000B002000000000E6
:1019CF00941605080D00000000000000F40A002026
:1019DF00000000009C1605080D000000000000002C
:1019EF00E80A002000000000A41605080700000008
:1019FF0000000000E00A002000000000801205082F
:101A0F00020000005DC90108010000000000000095
:101A1F008C1205080100000000000000000000000B
:101A2F0000000000000000000E0000000000000099
:101A3F000000000000000000AC16050800000000C8
:101A4F000000000000000000000000001452050814
:101A5F000C0000000000000044E300200000000024
:101A6F00C01605080C0000000000000046E300202F
:101A7F0000000000D01605080C0000000000000058
:101A8F007CE3002000000000E01605080C000000B9
:101A9F000000000070E3002000000000F4160508AD
:101AAF000C0000000000000048E3002000000000D0
:101ABF00001705080C000000000000004AE300209A
:101ACF0000000000081705080C00000000000000CF
:101ADF004CE30020000000001C1705080C0000005C
:101AEF00000000004EE3002000000000241705084E
:101AFF000C0000000000000050E300200000000078
:101B0F002C1705080C000000000000008EE30020D9
:101B1F0000000000441705080C0000000000000042
:101B2F0052E3002000000000501705080C000000D1
:101B3F000000000054E3002000000000F418050826
:101B4F000C0000000000000056E300200000000021
:101B5F00581705080C0000000000000058E3002093
:101B6F0000000000641705080C00000000000000D2
:101B7F005AE3002000000000701705080C00000059
:101B8F00000000005CE30020000000007C17050847
:101B9F000C000000000000005EE3002000000000C9
:101BAF00881705080C0000000000000060E300200B
:101BBF0000000000941705080C0000000000000052
:101BCF0074E30020000000009C1705080C000000C3
:101BDF000000000072E3002000000000A4170508B9
:101BEF000C0000000000000080E300200000000057
:101BFF00B01705080C0000000000000082E3002071
:101C0F0000000000BC1705080C00000000000000D9
:101C1F0088E3002000000000800905080C00000088
:101C2F000000000062E3002000000000C817050854
:101C3F000C000000000000006AE30020000000001C
:101C4F00D01705080C0000000000000064E300201E
:101C5F0000000000DC1705080C0000000000000069
:101C6F0066E3002000000000E81705080C000000E4
:101C7F000000000068E3002000000000F0170508D6
:101C8F000C000000000000006CE3002000000000CA
:101C9F00FC1705080C0000000000000076E3002090
:101CAF0000000000041805080C00000000000000F0
:101CBF006EE3002000000000101805080C00000063
:101CCF00000000007EE30020000000001C18050843
:101CDF000C0000000000000078E30020000000006E
:101CEF00241805080C000000000000007AE3002013
:101CFF00000000002C1805080C0000000000000078
:101D0F0084E3002000000000341805080C000000D8
:101D1F000000000086E30020000000003C180508CA
:101D2F000C0000000000000096E3002000000000FF
:101D3F008C120508010000000000000000000000E8
:101D4F0000000000000000000E0000000000000076
:101D5F00000000000000000044180508000000000B
:101D6F0000000000000000000000000050180508EF
:101D7F000D000000000000006C0B002000000000B0
:101D8F00581805080D00000000000000600B00202F
:101D9F0000000000601805080700000000000000A8
:101DAF00580B0020000000006C1805080700000009
:101DBF0000000000500B00200000000078180508FC
:101DCF000900000000000000440B0020000000008C
:101DDF00841805080900000000000000380B0020DF
:101DEF000000000090180508090000000000000026
:101DFF002C0B002000000000A018050809000000AF
:101E0F0000000000200B00200000000080120508D9
:101E1F00020000005DC90108010000000000000081
:101E2F008C120508010000000000000000000000F7
:101E3F0000000000000000000E0000000000000085
:101E4F000000000000000000B418050800000000AA
:101E5F00000000000000000000000000181205083C
:101E6F000000000000000000000000000000000063
:101E7F00C41805080D00000000000000A80B00208A
:101E8F0000000000D01805080B0000000000000043
:101E9F009C0B002000000000DC1805080B00000060
:101EAF0000000000900B002000000000EC18050857
:101EBF000800000000000000840B0020000000005C
:101ECF000019050803000000B1CA0108780B0020B3
:101EDF000000000080120508020000005DC9010823
:101EEF0002000000000000008C1205080100000035
:101EFF0000000000000000000000000000000000D3
:101F0F000E000000000000000000000000000000B4
:101F1F000C19050800000000000000000000000080
:101F2F00000000001C19050805000000000000005B
:101F3F009DE3002000000000801205080200000051
:101F4F005DC9010801000000000000008C120508A7
:101F5F000100000000000000000000000000000071
:101F6F00000000000E000000000000000000000054
:101F7F000000000024190508000000000000000008
:101F8F000000000000000000E0070508000000004E
:101F9F00000000007C040020040000003019050838
:101FAF000D00000005C40108FC0B0020000000001C
:101FBF00F02005080D000000FDA20108F00B002025
:101FCF00000000005C1705080D000000E1A20108E9
:101FDF00E40B002000000000341905080800000081
:101FEF0000000000D80B002004000000C8170508EF
:101FFF000D00000029A20108CC0B002000000000FA
:10200F003C1905080900000000000000C00B00206B
:10201F00040000008C18050803000000B1CA010875
:10202F00B40B0020000000008C1205080100000016
:10203F000000000000000000000000000000000091
:10204F000E00000000000000000000000000000073
:10205F004419050800000000000000000000000007
:10206F0000000000541905080D00000000000000DA
:10207F00140C0020000000005C1905080A00000085
:10208F000000000069E90020000000006819050841
:10209F000A0000000000000071E9002000000000AD
:1020AF00701905080A0000000000000079E90020FF
:1020BF00000000007819050808000000000000006B
:1020CF00080C00200000000080120508020000002C
:1020DF005DC9010801000000000000008C12050816
:1020EF0001000000000000000000000000000000E0
:1020FF00000000000E0000000000000000000000C3
:10210F00000000008019050800000000000000001A
:10211F0000000000000000009419050808000000EE
:10212F0000000000EC0C002000000000A4190508BE
:10213F000800000000000000E00C0020000000007C
:10214F00B41905080800000000000000D40C00209E
:10215F0000000000C419050808000000000000007E
:10216F00C80C002000000000D4190508080000006A
:10217F0000000000BC0C002000000000E41905085E
:10218F000800000000000000B00C0020000000005C
:10219F00F41905080800000000000000A40C00203E
:1021AF0000000000001A05080800000000000000F1
:1021BF00980C002000000000101A0508080000000D
:1021CF00000000008C0C002000000000201A050801
:1021DF000800000000000000800C0020000000003C
:1021EF00281A05080800000000000000740C0020E9
:1021FF0000000000301A0508080000000000000071
:10220F00680C002000000000381A050808000000C4
:10221F00000000005C0C002000000000401A0508C0
:10222F000800000000000000500C0020000000001B
:10223F00501A05080800000000000000440C0020A0
:10224F00000000005C1A05080800000000000000F4
:10225F00380C002000000000681A05080800000074
:10226F00000000002C0C002000000000741A05086C
:10227F000800000000000000200C002000000000FB
:10228F0080120508020000005DC90108010000006E
:10229F00000000008C120508010000000000000083
:1022AF000000000000000000000000000E00000011
:1022BF00000000000000000000000000801A050868
:1022CF000000000000000000E706002000000000F2
:1022DF008C1A05080B000000000000000C0E0020F7
:1022EF00000000009C1A05080B0000000000000011
:1022FF00000E002000000000A81A05080B000000C7
:10230F0000000000F40D002000000000B81A0508BE
:10231F000B00000000000000E80D0020000000008E
:10232F00C41A05080B00000000000000DC0D00209F
:10233F0000000000D81A05080B0000000000000084
:10234F00D00D002000000000E81A05080B00000067
:10235F0000000000C40D002000000000F41A050862
:10236F000B00000000000000B80D0020000000006E
:10237F00001B05080B00000000000000AC0D002042
:10238F00000000000C1B05080B00000000000000FF
:10239F00A00D002000000000181B05080B00000016
:1023AF0000000000940D002000000000241B050811
:1023BF000B00000000000000880D0020000000004E
:1023CF00301B05080B000000000000007C0D0020F2
:1023DF00000000003C1B05080B000000000000007F
:1023EF00700D002000000000481B05080B000000C6
:1023FF0000000000640D002000000000541B0508C1
:10240F0007000000000000005C0D0020000000002D
:10241F005C1B05080700000000000000540D0020A1
:10242F0000000000681B05080B0000000000000002
:10243F00480D002000000000741B05080B00000071
:10244F00000000003C0D002000000000801B05086C
:10245F000B00000000000000300D00200000000005
:10246F008C1B05080800000000000000240D002050
:10247F00000000009C1B05080D000000000000007C
:10248F00180D002000000000AC1B0508070000001D
:10249F0000000000100D002000000000BC1B05080C
:1024AF000700000000000000080D002000000000E1
:1024BF00CC1B05080700000000000000000D0020E5
:1024CF0000000000DC1B05080700000000000000F2
:1024DF00F80C002000000000801205080200000028
:1024EF005DC9010801000000000000008C12050802
:1024FF0001000000000000000000000000000000CC
:10250F00000000000E0000000000000000000000AE
:10251F0000000000F01B0508000000000000000094
:10252F000000000000000000041C05080800000067
:10253F0000000000840E002000000000141C05089D
:10254F000800000000000000780E002000000000CE
:10255F00241C050808000000000000006C0E00207D
:10256F0000000000341C05080800000000000000F7
:10257F00600E002000000000441C05080800000049
:10258F0000000000540E002000000000581C050839
:10259F000800000000000000480E002000000000AE
:1025AF00681C05080700000000000000400E002016
:1025BF0000000000801C050807000000000000005C
:1025CF00380E002000000000981C050807000000CE
:1025DF0000000000300E002000000000AC1C0508B9
:1025EF000700000000000000280E0020000000007F
:1025FF00BC1C05080700000000000000200E002092
:10260F0000000000D01C05080700000000000000BB
:10261F00180E0020000000008012050802000000C4
:10262F005DC9010801000000000000008C120508C0
:10263F00010000000000000000000000000000008A
:10264F00000000000E00000000000000000000006D
:10265F0000000000E01C0508000000000000000062
:10266F00E406002000000000F01C05080B0000002D
:10267F0000000000480F002000000000FC1C0508AF
:10268F000B000000000000003C0F002000000000C5
:10269F00081D05080B00000000000000300F00208F
:1026AF0000000000141D05080B00000000000000D2
:1026BF00240F002000000000201D05080B00000063
:1026CF0000000000180F0020000000002C1D05085E
:1026DF000B000000000000000C0F002000000000A5
:1026EF00381D05080B00000000000000000F00203F
:1026FF0000000000441D05080B0000000000000052
:10270F00F40E002000000000501D05080B00000013
:10271F0000000000E80E0020000000005C1D05080E
:10272F000700000000000000E00E00200000000085
:10273F00681D05080700000000000000D80E0020EB
:10274F0000000000741D05080700000000000000D5
:10275F00D00E002000000000841D050807000000B7
:10276F0000000000C80E002000000000941D0508A6
:10277F000800000000000000BC0E00200000000058
:10278F009C1D05080700000000000000B40E00208B
:10279F0000000000A81D05080D000000000000004B
:1027AF00A80E002000000000B81D0508070000005B
:1027BF0000000000A00E002000000000C41D05084E
:1027CF000700000000000000980E0020000000002D
:1027DF00D41D05080600000000000000900E002028
:1027EF000000000080120508020000005DC901080A
:1027FF0001000000000000008C120508010000001D
:10280F0000000000000000000000000000000000B9
:10281F000E0000000000000000000000000000009B
:10282F00E41D05080000000000000000E406002081
:10283F0000000000FC1D050807000000000000005C
:10284F00CC0F002000000000081E05080800000043
:10285F0000000000C00F002000000000141E05083B
:10286F000700000000000000B80F0020000000006B
:10287F00201E05080700000000000000B00F002018
:10288F0000000000281E05080700000000000000DF
:10289F00A80F002000000000301E050807000000F0
:1028AF0000000000A00F002000000000181D050808
:1028BF000700000000000000980F0020000000003B
:1028CF00241D05080700000000000000900F0020E5
:1028DF0000000000301D0508070000000000000088
:1028EF00880F002000000000381E050807000000B8
:1028FF0000000000800F002000000000401E0508AF
:10290F000700000000000000780F0020000000000A
:10291F00481E05080700000000000000700F00208F
:10292F0000000000501E0508080000000000000015
:10293F00640F002000000000601E05080700000063
:10294F00000000005C0F002000000000701E050852
:10295F000700000000000000540F002000000000DE
:10296F0080120508020000005DC901080100000087
:10297F00000000008C12050801000000000000009C
:10298F000000000000000000000000000E0000002A
:10299F000000000000000000000000000000000028
:1029AF008DA60108D40F00209BE300202C0000000F
:1029BF006CD804089AE3002000C8010098E30020B7
:1029CF00E803D00701000000595550494634000074
:1029DF0035E300200003010034E300200003010071
:1029EF00CDA501089DA50108B010002059A501082B
:1029FF000DA501085011002015A60108FDA501081D
:102A0F001812002071A401081DA401083815002018
:102A1F00B9AB010889AB010828160020A1A601084F
:102A2F0059C60108F016002069A201080000000035
:102A3F005417002009C801081DAC010830180020E8
:102A4F0021A80108A5A70108E418002059A9010829
:102A5F00A5A901089C1A00204DE5002001060100E0
:102A6F0031A70108C9A60108F41C00209DA8010880
:102A7F0089C60108341E0020D9A9010849C70108D9
:102A8F000020002038E5002001030100781E050812
:102A9F000000000000000000000000000000000027
:102AAF00841E050808000000000000009C21002083
:102ABF00000000008C1E0508070000000000000049
:102ACF0094210020000000009C1E05080D0000004E
:102ADF00000000008821002000000000A81E05084B
:102AEF0003000000B1CA01087C2100200000000093
:102AFF0080120508020000005DC9010801000000F6
:102B0F00000000008C12050801000000000000000A
:102B1F000000000000000000000000000E00000098
:102B2F00000000000000000000000000B01E0508BB
:102B3F000000000000000000000000000000000086
:102B4F00C01E05080A00000000000000000705086D
:102B5F0000000000C81E05080A0000000000000069
:102B6F00C811050800000000D01E05080A0000006B
:102B7F000000000058E6002000000000D81E0508E5
:102B8F000A00000000000000A82100200000000043
:102B9F008C1205080100000000000000000000007A
:102BAF0000000000000000000E0000000000000008
:102BBF000000000000000000E01E050800000000FB
:102BCF00000000000000000000000000EC1E0508DF
:102BDF0003000000B1CA0108D82100200000000046
:102BEF00F81E050803000000B1CA0108CC2100201F
:102BFF0000000000001F050803000000B1CA010813
:102C0F00C021002000000000081F0508050000007B
:102C1F000000000033E3002000000000101F050833
:102C2F000700000000000000B82100200000000095
:102C3F001C1F05080700000000000000B021002045
:102C4F000000000080120508020000005DC90108A5
:102C5F0001000000000000008C12050801000000B8
:102C6F000000000000000000000000000000000055
:102C7F000E00000000000000000000000000000037
:102C8F00281F0508000000000000000000000000E1
:102C9F00000000003C1F050803000000B1CA010836
:102CAF001422002000000000481F05080300000048
:102CBF00B1CA01080C05002000000000501F0508D4
:102CCF0003000000B1CA0108082200200000000024
:102CDF00581F050803000000B1CA0108FC2100209D
:102CEF0000000000641F050803000000B1CA0108BE
:102CFF00F021002000000000C817050803000000A5
:102D0F00B1CA0108E421002000000000801205086C
:102D1F00020000005DC90108010000000000000072
:102D2F008C120508010000000000000000000000E8
:102D3F0000000000000000000E0000000000000076
:102D4F000000000000000000701F050800000000D8
:102D5F00000000000000000000000000801F0508B8
:102D6F0007000000D1C70108642200200000000006
:102D7F00EC17050803000000B1CA01085822002013
:102D8F00000000008C1F050803000000B1CA0108F5
:102D9F004C22002000000000941F050803000000D3
:102DAF00B1CA010840220020000000009C1F050846
:102DBF0007000000B5C701083822002000000000FE
:102DCF004461050803000000B1CA01082C2200204D
:102DDF0000000000A81F050803000000B1CA010889
:102DEF0020220020000000008012050802000000D1
:102DFF005DC9010801000000000000008C120508E9
:102E0F0001000000000000000000000000000000B2
:102E1F00000000000E000000000000000000000095
:102E2F00000000005DA601082DA601086C220020FD
:102E3F00E9AB0108000000000C230020E9A4010801
:102E4F00C5A4010898230020000000000000000026
:102E5F006024002059AA0108EDC701082825002089
:102E6F00B41F050800000000000000000000000073
:102E7F0000000000C01F050803000000B1CA0108D0
:102E8F003426002000000000C81F050803000000C2
:102E9F00B1CA01082826002000000000A409050877
:102EAF0003000000B1CA01081C260020000000002A
:102EBF00D41F050803000000B1CA01081026002026
:102ECF0000000000E01F050803000000B1CA010860
:102EDF000426002000000000E81F05080200000083
:102EEF005DC9010800000000000000008012050805
:102EFF00020000005DC90108010000000000000091
:102F0F00F01F0508020000005DC901080200000063
:102F1F0000000000000000000E0000000000000094
:102F2F0000000000000000001EE3002088136F1750
:102F3F000100000020E3002088136F17000000003D
:102F4F00FC1F05080000000000000000000000004A
:102F5F00000000000C200508080000000000000021
:102F6F0014270020040000001820050808000000A6
:102F7F000000000008270020000000008C18050842
:102F8F00040000006DC401080000000000000000F4
:102F9F008C12050801000000000000000000000076
:102FAF0000000000000000000E0000000000000004
:102FBF0000000000000000001CE3002088136F17C2
:102FCF000100000074CD002088136F17000000006F
:102FDF00ADA30108000000002027002068E90020B1
:102FEF000100000020D9040876CD00200100000068
:102FFF002CD904086CCD00200200000034D904083D
:10300F00D66F00200000000000000000D46F0020E9
:10301F000000000000000000D26F00200000000040
:10302F0000000000D06F0020000000000000000032
:10303F00CE6F00200000000000000000CC6F0020C9
:10304F000000000000000000B40400200000000099
:10305F00000000001BE300200200000040D904081C
:10306F0054200508000000000000000000000000D0
:10307F00000000000C200508080000000000000000
:10308F00A4270020040000001820050808000000F5
:10309F000000000098270020000000008C18050891
:1030AF00040000007DA301080000000000000000E4
:1030BF008C12050801000000000000000000000055
:1030CF0000000000000000000E00000000000000E3
:1030DF000000000000000000642005080000000050
:1030EF000000000000000000000000007420050830
:1030FF000D000000ADC50108D4270020040000001A
:10310F00802005080D000000D5A30108C827002066
:10311F00040000008C2005080D00000071C5010897
:10312F00BC270020000000009820050803000000C5
:10313F004DC40108B027002008000000A420050896
:10314F0003000000B1CA0108D82A002000000000C7
:10315F008C120508010000000000000000000000B4
:10316F0000000000000000000E0000000000000042
:10317F000000000000000000A81305080000000078
:10318F00000000000000000000000000480A0508D1
:10319F000400000085C401080000000000000000CA
:1031AF008C12050801000000000000000000000064
:1031BF0000000000000000000E00000000000000F2
:1031CF000000000000000000F820050800000000CB
:1031DF00000000000000000000000000003705089C
:1031EF000D00000000000000342800200400000043
:1031FF000821050808000000000000002828002012
:10320F000400000014210508080000000000000061
:10321F001C280020040000001C21050808000000E5
:10322F0000000000102800200400000024210508E1
:10323F000800000000000000042800200400000027
:10324F002C2105080800000000000000F8270020CE
:10325F0004000000342105080800000000000000F1
:10326F00EC270020040000003C21050808000000A6
:10327F0000000000E0270020040000008C12050869
:10328F00010000000000000000000000000000002E
:10329F00000000000E000000000000000000000011
:1032AF000000000095A30108000000004028002046
:1032BF000000000000000000B828002000000000FF
:1032CF00000000005829002072CD002004000000EB
:1032DF004CD9040870CD0020E0150C170000000039
:1032EF006FCD00200800000028D404086ECD002008
:1032FF000500000060D90408000000000000000075
:10330F00A8290020FFFF0000FFFFFFFF0000803F04
:10331F000000000000000000000000000000803FDF
:10332F000000000000000000000000000000803FCF
:10333F000000000000000000000000000000803FBF
:10334F00FFFFFFFFFF000000000000006C030120E3
:10335F0008000000000000005C03012008000000CE
:10336F00559900080D9A000819FB0008000000008D
:10337F00118B00084D90000801980008C58F0008B8
:10338F000000000000000000CD8A0008D987000867
:10339F00CD87000859980008759800083D980008D7
:1033AF0021980008059800080D990008E999000870
:1033BF0065FA000800000000E58A0008C98F0008C0
:1033CF00D5970008298F00080000000000000000BA
:1033DF00D98A0008880305080508040000000000CA
:1033EF0060D9040828D404084CD904080000000050
:1033FF0000000000B403050805080A0000000000E3
:10340F0060D9040828D4040820D80408000000005C
:10341F0000000000010102FFFF0100000100000099
:10342F005001000007000000020000000000000033
:10343F00000000000102030406070809FF00000056
:10344F00242C0020000000000000000000000000FD
:10345F00000000000000000000000000000000005D
:10346F00000000000000000000000000000000004D
:10347F00000000000000000000000000000000003D
:10348F00000000000000000000000000000000002D
:10349F00000000000000000000000000000000001D
:0434AF000000000019
:108000002DE9F04F2DED108B034697B004331593F7
:10801000DFEDCACA149002238A4613928B4612934C
:10802000149C4FEADB0604EB461202EB061031010A
:10803000A6EB86034FEAC60806EB4605CDE900012C
:1080400000EBC303043108F10400119620442144DD
:108050002C01C6EBC60C0394EC00119D04944FEA6E
:10806000CC0405946C0106EB860E0294159D009CD1
:1080700003EB46174FEACE0E02EBC6064FEACB09DA
:108080004FF0000C51ED01AAD3ED001A92ED007AE9
:1080900094ED005A96ED004AD7ED007A15ED012ACD
:1080A00050ED016A32EE07BA76EE840A7AEE855A0E
:1080B00031EEA70A3BEE256A70EE804A76EEC46A7E
:1080C00036EE244A36EE646A05ED014A82ED006A16
:1080D000D0ED00BAD6ED012AD3ED019A95ED00AAB4
:1080E00092ED016A97ED013A91ED00CAD4ED014A93
:1080F0007BEEE23A36EEE19A32EE472A73EEE98AF7
:108100003AEE464A39EE279A78EE838AB0EE428AF2
:10811000A9EE6C8ADC44E24573EEC33AB0EE441A31
:10812000A8EEEC1A76EEE77A33EEA97A7CEE643AA2
:1081300077EEA17A3AEE066A7AEEC51A3CEE24AAE8
:1081400074EECC4A39EE833A35EE6A5AF0EE639A11
:10815000F0EE48AAE7EE2C9AA8EEAC4AE7EE2C4ADD
:10816000E7EE6CAAF0EE418AB0EE427AB0EE612AF8
:108170007BEE656A7BEEA22A76EE4A5AA9EE2C7A4D
:10818000A7EEAC2AA7EEAC5AE7EEEC8A32EE83BA41
:1081900076EEC3BA35EEE09A75EEC07A36EE0A6A2C
:1081A00076EEE26A36EE0BAA76EE836A77EEA07A76
:1081B00034EE423A77EE290A36EE4B6A7BEEA22A7B
:1081C00039EE000A73EEAA3A78EE244A37EE697A5D
:1081D00031EE055A71EEA85A32EE044A85ED00AA36
:1081E00082ED016A4D4441ED012A4A44C4ED006A22
:1081F00081ED000AC4ED017A494440ED010A4C4486
:1082000087ED007AC6ED003AC3ED004A80ED003AF2
:1082100087ED014A484486ED015A4F44C3ED015AA7
:108220004E444B443FF62EAF119B072B40F2C781C3
:10823000029D149E019B03980499059A08357519AF
:108240000C330E95354608F108080EF10804EB18BA
:1082500008300831083246442C1928186918AA1821
:10826000079305F10C030D960C940B900A9109925B
:1082700008934FF001084FF0000E129B9E44139B91
:1082800003EBCE0303EBCE02109302EBCE0303EB22
:10829000CE01029101EBCE0101EBCE0505EBCE063E
:1082A000D6ED007A0F93AEEB8E03019106EB03132C
:1082B00003EBCE07D3ED01AACDED067A019BD5EDF8
:1082C000007A97ED01BACDED057AD3ED007A029BE5
:1082D000CDED047AD3ED007A0F9BCDED037A07EB59
:1082E000CE0CD3ED007ADCED01BACDED027A0CEBC9
:1082F000CE01D2ED007A109A009101EBCE0001463A
:1083000091ED01DACDED017A0099D2ED007A91ED8F
:1083100001CA00EBCE0000EBCE0494ED01EAD0EDF3
:1083200001DACDED007ADDE90776DDE90954DDE912
:108330000B01DDE90D23C44602E000BFF304353F25
:1083400094ED009A90ED00FA91ED006AD5ED007A77
:10835000D3ED006A57ED014A92ED005A56ED013A0D
:1083600096ED00AA35EE060A73EEA65A39EE278A74
:1083700034EE8F7A70EE082A75EE87EA35EE465AAB
:108380003EEEA26A73EEE63A06ED016AD1ED019A7D
:10839000D2ED01FAD4ED016AD3ED011A95ED013A5F
:1083A000D0ED018A97ED004A3FEEE96A35EE491AB1
:1083B00076EE660A31EE271A3AEE612A75EE677A92
:1083C00070EE830A3FEEA95A74EECF9A77EE897A5F
:1083D0007AEE211AB0EE42AA74EE68FAA0EEECAA88
:1083E000DC44E24535EEC77AB0EE639A74EE285A63
:1083F00038EEC44AF0EE698AA1EE6C9AE7EEAC8AD8
:1084000036EE436A7FEE644A36EE266AA0EEAC2A68
:10841000F0EE4A0AE7EEEC0AE7EEAC4AF0EE687AD4
:10842000F0EE498A36EE833AE6EE6C8AE1EE2C3ABB
:10843000B0EE6F1AA6EE2C1A71EEE56AA6EE2C4A83
:1084400071EEA55A75EE031A7EEEE22A37EE43FA74
:1084500075EEE1EAB0EE686A76EEC08A39EE044A5B
:108460007FEE86FA76EEC86A33EE816A38EE888A45
:1084700073EEC13A37EE457A2CEE2E1A3FEE055ACE
:1084800022EECC9A9DED03FA70EE266A33EE077A5F
:10849000AFEE221AAFEE2E9A7AEE244A9DED01FA43
:1084A00079EEA09A25EE4BAA72EE670A37EE822A81
:1084B0006BEE087AAFEE08AAEFEE057A2DEEA63A3B
:1084C0009DED05FA67EE6D8AAFEE073AEFEE268A6C
:1084D00066EE6A2A9DED00FA2AEEA00AEFEE202A47
:1084E0006EEE02EADDED060A23EECE5AE0EEA3EAD6
:1084F0002BEEA98ADDED023AAFEE060AA3EE848ADE
:1085000024EE6B7A6DEE246A9DED044A2FEECD6A5F
:10851000A0EE825AA3EEA97AE4EE2F6AA4EE246AB2
:1085200075EEA15AC6ED005A83ED001A83ED019A4B
:108530004E4447ED017A87ED00AA4B4480ED003AA6
:10854000C0ED018A4F4482ED000A4844C2ED012A81
:10855000C5ED00EA85ED015A4A44C1ED006A81ED9E
:10856000016A4D4484ED008A84ED017A49444C440B
:108570003FF6E6AE0E9B08330E930D9B08330D932A
:108580000C9B08330C930B9B08330B930A9B08330B
:108590000A93099B08330993089B08330893079BA8
:1085A00008330793119B08F1010843457FF465AE3A
:1085B000129BDDF844B0DB009BB2129330E517B09C
:1085C000BDEC108BBDE8F08F70B4C3080D4CE25CBD
:1085D00000F00706B24004EBD004D2B20020C6F18E
:1085E00008038B4228BF0B46C3F108052A41984077
:1085F000C91A40EA02004FF0000614F8012FEED12C
:1086000070BC7047C82C0020084AD2E91A31994240
:1086100009D0D118013391F870100170C3F30A0327
:108620009366012070470020704700BF882C00200F
:10863000064AD2F87038D2F87428934294BF4FF4A7
:1086400000600020013B9B1A18447047882C0020D2
:10865000012380F84D30704707B501A8FFF7D4FF1C
:108660000028FAD09DF8040003B05DF804FB044B29
:10867000D3E91A03984288BF03F50063181A7047BC
:10868000882C002001207047024BC3F87828C3F8DB
:108690007C187047882C0020024BC3F88028C3F850
:1086A00084187047882C00207047704730B4124DF2
:1086B000D5E91A239A4286BF03F50064A21A9A1AD2
:1086C0000A44B2F5006F12D8A1B101444A1E013824
:1086D00010F8014FE918824203F1010381F870405C
:1086E000C3F30A03F4D1EB66002030BC70470220CC
:1086F00030BC70470846F8E7882C0020212838B5A0
:108700000C4605D022282ED0202813D0002038BDBA
:108710000029FBD0072AF9D11A4BD3F8880893F81F
:108720008C1893F88D2893F88E382060217162712F
:10873000A371EBE70029E9D0072AE7D1114DD5F85D
:108740007C381BB10968D5F87808984720682179EA
:108750006279A379C5F8880885F88C1885F88D2882
:1087600085F88E38D2E70029D0D0022ACED1054A2A
:10877000D2F88438002BC9D00988D2F880089847ED
:10878000C4E700BF882C0020024B0020C3F89008EB
:10879000704700BF882C0020044B00200522C3F83E
:1087A0009028C3F88408C3F87C087047882C002000
:1087B000704700BF704700BF704700BF704700BFE1
:1087C000704700BF704700BF704700BF04230148D7
:1087D0000B8070470000002010B4074A074B92F846
:1087E0009408122403F114020C8001280CBF1846CF
:1087F00010465DF8044B7047882C002004000020D0
:108800000020704700207047034B9B6A0B604FF4B9
:108810000073136000207047882C00200023F0B400
:1088200052004F1C1E46B0F1204F4FEA107404F165
:1088300030052ABF3734CD54CC54FE5402339A420B
:108840004FEA0010EFD1F0BC704700BF0B4A0C4B51
:1088500010681B681A22C0180A8001D109487047A5
:1088600010B5094B09491C680822FFF7D7FF2046BD
:1088700007490422FFF7D2FF024810BDE8F7FF1FA7
:10888000ECF7FF1F2C000020EAF7FF1F2E0000204E
:108890003E000020042301480B8070474800002060
:1088A000122301480B8070474C000020A0B1826861
:1088B0000D4B12B107229A7070471978DA600329BC
:1088C0004FF004000CBF80214FF48071C3E9011107
:1088D0001A611A7598707047034B41F2B411012266
:1088E0005A545A70704700BF788200200378022BD8
:1088F00010D0006908B9012070470B4B1B78032B7F
:108900000EBF0A4B80B24FF6F773984294BF002017
:1089100001207047064A43681268B3EB422F2CBF10
:1089200001200020704700BF78820020F7FFFF0F72
:10893000989400200378022B14D030B4104A436876
:10894000006941F2182441F210211559515841F2A1
:108950000C242B4012595B0A023801FB00301044F2
:1089600030BC7047064B426841F2042103F5905039
:108970005B58006800EB430000EB5220704700BFDB
:108980007882002010B5124C0023FF21206D236255
:108990003FF05EFAFD21206D3FF05AFA206DFF2175
:1089A0003FF056FAFF280AD10146206D3FF050FAF9
:1089B000FF2804D10423022084F8243010BDD4F809
:1089C000983863610923002084F8243010BD00BF6B
:1089D000882C0020F8B5114D06460F460924286D55
:1089E000FF213FF035FAFF2803D1013CF7D10120E8
:1089F000F8BDFE2801D00220F8BD3B463246286D66
:108A0000002140F091FB286DFF213FF021FA286DF5
:108A1000FF213FF01DFA0020F8BD00BF882C002088
:108A200070B582B040F040050C0E06460A0A080CEC
:108A300095238DF80050134D8DF801408DF80410EA
:108A40008DF802008DF803208DF805300824286D7C
:108A5000FF213FF0FDF9FF2802D0013CF7D176B9A4
:108A6000286D06230022694640F05EFB0924286D2C
:108A7000FF213FF0EDF9FF2802D1013CF7D1FF20A3
:108A800002B070BD882C002010B40C4A92F89C38BB
:108A900002EBC3010133DBB2042B4FF0050408BF26
:108AA00000234FF4045081F8A04882F89C38C1F8A4
:108AB000A4085DF8044B4FF0FF307047882C00206D
:108AC000202301480B807047600000206423014888
:108AD0000B80704780000020432301480B807047C3
:108AE000E400002010B5084CD4F82801FF2809D074
:108AF0000649D1F8C02801F6C401FFF7FFFDFF23A6
:108B0000C4F82831002010BD00000020882C00206F
:108B1000E8E700BF70B5424CD4F8D43806460BB134
:108B20001D22DA801846092134F07EFFD4F8D408DB
:108B300035F020F994F8DA38013B5BB2022BDBBF49
:108B4000384A1B010020D058C4F8D0080223102155
:108B500084F8CC383FF00EF940210A203FF036F976
:108B6000FF218A203FF032F994F8D838C0F3801200
:108B7000012B84F8DB2800F0400046D0022B2A4D60
:108B80003FD0D3B394F8DC381A2B07D1B5F82C3189
:108B9000A4F8E068A4F8E228A4F8E438B5F82C11A9
:108BA000D4F8D0083FF0E6F8B5F82C11D4F8D00886
:108BB0003FF0E0F8D4F8D40835F0D6F802210020D0
:108BC0003FF004F9D4F8D40835F0D4F8D4F8D0083C
:108BD00004213FF0CFF894F8ED2894F8EE3894F89B
:108BE000EC1884F8E818C2F12002C3F1100384F8ED
:108BF000EF2884F8F038012070BD1023A5F82C313F
:108C0000C0E70823A5F82C31BCE726B90823064D98
:108C1000A5F82C31B6E7002814BF08231023F6E787
:108C2000882C0020E80400100000002010B5054C3E
:108C3000206D40F049FB0028FAD1E06DBDE81040FE
:108C400035F098B8882C0020F8B5174C94F82430EB
:108C5000042B07460E46154607D0082B01D00020EE
:108C6000F8BDFFF78FFE0228F9D1E06D35F07CF8F2
:108C7000A37E83B979021120FFF7D2FE88B9D4F818
:108C8000983826600522C4E90350676084F82420E0
:108C900063610120F8BD39461120FFF7C1FE0028AD
:108CA000EDD0FFF7C3FFDAE7882C0020F8B51A4CA7
:108CB00094F8F138002BFBD159B301444E1E451EE8
:108CC000D4F87428D4F8701815F8017F531CC3F336
:108CD0000A038B422CBF4FF400600020C91A2244C3
:108CE00001440129C4F8743882F8F4780FD10120C6
:108CF00034F078FCD4F87038D4F874188B4294BFF0
:108D00004FF4006200225B1A1344012BEFD0B542EE
:108D1000D6D10020F8BD00BF882C002010B590F8F7
:108D20004C10002380F84C3081B10B4CD4F89028C3
:108D300072B1D4F89028052A0CD13830D4F898387C
:108D4000FFF7B4FFD4F89838012010BD0120FCE7EC
:108D50001046FAE71846F8E7882C0020002280F831
:108D60004D20DBE790F84C20531C0244DBB280F826
:108D70004C3082F8381090F84D200AB1132B00D9EE
:108D8000CCE7704710B5094CD4F890380846114626
:108D90005BB1D4F89038052B07D1002AD4F8983865
:108DA00003DDFFF783FFD4F8983810BD882C00202E
:108DB0002DE9F0412DED028B0128514B82B00D467B
:108DC00058D0504E5A681B890092ADF80430371FB6
:108DD000DFF850819FED4C8AD8F8CC36BDF80020E2
:108DE0004A494B4C396007EE903AB4FBF3F4F8EE85
:108DF000677A27EE888A7AB194420DD3002D6CD021
:108E0000012D09D107EE902A1946424B3B60B8EE7E
:108E1000670A304636F03EFBBDF802308BB19C420B
:108E20000FD3002D46D0012D0BD107EE903A394AD1
:108E3000D8F8CC163A60B8EE670A06F1240036F08E
:108E400029FBBDF8043083B39C422ED3DDB1012D44
:108E50002BD107EE903A2F4AD8F8CC163A60B8EEEC
:108E6000670A06F1480002B0BDEC028BBDE8F04194
:108E700036F010BB284ED3F80A20DB890092ADF8FB
:108E80000430371FA4E707EE903ADFED246A244A46
:108E90003A60F8EEE77A002386EEA77AB36477EEBD
:108EA000087A88EE277A86ED137A02B0BDEC028B41
:108EB000BDE8F08107EE903ADFED186A184B3B6091
:108EC000F8EEE77A002386EEA77A736277EE087AE7
:108ED00088EE277A86ED0A7AB3E707EE902ADFED6F
:108EE0000F6A0F4B3B60F8EEE77A002386EEA77A15
:108EF000336077EE087A88EE277A86ED017A8BE781
:108F0000803D0020D4050010BD37863539AF0308F9
:108F100020A10700A5AE03084406001083F9223EF5
:108F200061AC0308E804001023494B6B0F2B03D0FE
:108F30005A1C4A630020704770B5204C94F8F158D1
:108F400000234B63EDB9D4F87028D4F87438B2F527
:108F5000006F18D09A422AD019D9C2F50063402B6D
:108F600017D9403B02F140058B63012384F8F138A7
:108F7000C4F8705892B2402311490A4481210BF081
:108F80002DFF002070BDC4F8705883B12A469B1A8B
:108F9000E5E74FF0000502EB03068D630CBF0221ED
:108FA0000121C4F8706892B284F8F118E4E7002354
:108FB00084F8F138E5E700BF803D0020882C0020D0
:108FC0007C350020B0E700BF70B51D4C94F8F13837
:108FD000012B03D0022B09D0002070BD0146194897
:108FE000836B53B984F8F138002070BD00231A4612
:108FF00081210BF0F3FE0023F4E7402BD4F8702816
:109000000FD9403B02F140058363C4F8705892B217
:1090100040230D4C0846224481210BF0DFFE002046
:1090200070BD4FF0000503EB0206856308BF022008
:10903000C4F8706892B208BF84F8F108E9E700BF8D
:10904000882C0020803D00207C350020012905D09F
:1090500008B503210CF024FB002008BDB4E700BFD5
:1090600070B50F4D6B6C04462BB195F8482095F800
:109070005C30134310D0812120460BF07BFE95F825
:109080005C30022B00D070BD2046064ABDE870401F
:109090001F2301210BF0D2BE01210BF06BFEEAE78A
:1090A000803D0020BC3D002070B50C4C0C4B23666D
:1090B00004F16002054684F86C1000260D2381211E
:1090C00084F870600BF08AFE284604F13C021F23EE
:1090D000BDE8704001210BF0B1BE00BF803D002013
:1090E000555342532DE9F041AA4C94F84B30606738
:1090F00082B088465A2B00F2AD80DFE813F0C10041
:10910000AB00AB00CF00AB00AB00AB00AB00AB00E3
:10911000AB00AB00AB00AB00AB00AB00AB00AB00F7
:10912000AB000501AB00AB00AB00AB00AB00AB008C
:10913000AB0028017200AB00AB007200AB00AB00CB
:10914000AB00AB00A701AB005701AB00AB007A004E
:10915000AB00F401AB00AB00AB00AB005B00AB00BD
:10916000AB00AB00AB00AB00AB00AB00AB00AB00A7
:10917000AB00AB00AB00AB00AB00AB00AB00AB0097
:10918000AB00AB00AB00AB00AB00AB00AB00AB0087
:10919000AB00AB00AB00AB00AB00AB00AB00AB0077
:1091A000AB00AB00AB00AB00AB00AB00AB00AB0067
:1091B000AB00D10194F84C309B0700F14682B4F823
:1091C0005230D4F84D20D4F884105BBA9BB212BA56
:1091D000D0188842C4E9222303D9FFF755FC0028A0
:1091E0004BDB0020A4F87C000546284602B0BDE811
:1091F000F08194F87030002B40F0F88094F94830FA
:10920000002B27DAA36F08469B689847002840F098
:10921000FC81B4F85250D4F84D70D4F884306DBA53
:10922000ADB23FBA7A199A42C4E9227503D9FFF761
:109230002BFC002821DBD4F88030666C03FB05F59D
:1092400003FB07F20220B542C4E9222584F870002E
:1092500000F0D080504A92F89C38591CC9B202EBF9
:10926000C30305244FF40050042982F89C1883F8A6
:10927000A048C3F8A40800F08F814FF0FF35B4E791
:10928000636C002BE6D1A36F08469B6898470546A0
:10929000002840F0BA81A4F87C00A6E73F4B0022EA
:1092A00003F1120103F8012F8B42FBD13A493C48EC
:1092B00091F89C5894F87E30702606709D424FF0CD
:1092C0000C06C67112D001EBC3010133DBB291F879
:1092D000A06891F8A55891F8A4188670042B05731E
:1092E000417314BF84F87E3084F87E2094F84F30A8
:1092F00012229342A4F87C2098BFA4F87C30002569
:10930000284602B0BDE8F08194F84C30DA0700F14D
:109310002B81A36F94F84F00DA6901EBC10102EBD6
:1093200081010A79531D834228BF0346A4F87C308B
:10933000002BE4D0013B1A489BB20133194403448B
:1093400011F8012D03F8012D8342F9D1D7E7154E0D
:10935000154F35460823073EC5F10700A4F87C30B9
:10936000002201E0127A1D462B46B54203F801297E
:1093700000EB030217FA82F2F4D1A36F4046DB68D8
:1093800098470028BBD0AB7863F07F03AB70002513
:109390002BE700BF803D0020882C00207772002042
:1093A000787200207F720020FCC90408A36FBC4AB9
:1093B0005B680846111D98470546002840F0258146
:1093C000D4E92012B74B013A100E1870DA70100C65
:1093D000120A0E0E58709A70080CD9710822090AE8
:1093E0001E7158719971A4F87C20FEE6D4E92226FA
:1093F000D4F88030A56FB2FBF3F2B6F5805F28BFDA
:109400004FF480562D69A749B6FBF3F340469BB253
:109410004FF48057A4F87C70A8470028C0F2A980B8
:109420003346A04A606F81210BF0D8FCD4E922209A
:10943000A36E3244851B9E1BC4E92225A666002D1F
:109440007FF45DAF032384F87030CEE6954E00279D
:10945000334606F10C0203F8017B9A42FBD1A36F5D
:1094600040465B686A4601A998470546002840F0D7
:10947000D780DDE90023013B190E3171190CF3711E
:1094800071711B0A110CF272B371120A0820717209
:109490000C230221B272F0703172A4F87C30A4E681
:1094A000814E824F30460823073EC0F10705A4F8DD
:1094B0007C30002201E0127C18460346864203F805
:1094C000012905EB030217FA82F2F4D1A36F40469B
:1094D000DB68984700283FF412AFF37863F07F030E
:1094E000F370002581E694F87030002B5AD194F97E
:1094F0004830002BFFF6AEAEA36F08469B68984736
:10950000002840F08280A36F4046DB6898470546FC
:10951000002840F0AB80B4F85230D4F84D60D4F855
:1095200084205BBA9FB236BAF3199342C4E922672A
:1095300000F29680D4F88030626C03FB06F603FBE1
:1095400007F39342C4E922637FF484AEB3F5805FEE
:1095500028BF4FF480530121606F524A84F8701085
:109560009BB20BF06BFC40E607235049A4F87C301B
:10957000E0E64F4A92F89C38591CC9B202EBC3038B
:1095800004244FF48850A14282F89C1883F8A04824
:10959000C3F8A4087FF471AE002382F89C384FF022
:1095A000FF3522E6D4F88C60A06FD4F88030D4F870
:1095B00088204569B2FBF3F2B6F5805F28BF4FF40F
:1095C00080560846B6FBF3F336499BB2A8470028FD
:1095D0005ADBD4E92225A36E3244AD1B9B1BC4E9A0
:1095E0002225A36625B9606F2946FFF75DFDFCE5DE
:1095F000B5F5805F28BF4FF48055ABB2606F294A44
:1096000001210BF01BFC0025EFE5294A92F89C385C
:10961000591CC9B202EBC30302244FF4685023E67D
:10962000234A92F89C3802EBC3010133DBB20224D7
:109630004FF46850042B81F8A048C1F8A40820D04A
:1096400082F89C384FF0FF35CFE5194A92F89C38E4
:10965000591CC9B202EBC30305244FF4105003E6B2
:10966000FFF712FA0028BFF665AF06E6104A92F837
:109670009C38591CC9B202EBC30302244FF41C509E
:10968000F2E582F89C78F8E5094A92F89C38591C72
:10969000C9B202EBC30304244FF4407073E700BF68
:1096A000003E0020787200207F720020FCC9040870
:1096B000882C002010B5074B93F849100446FFF79B
:1096C00011FD002800DB10BD20460121BDE810403F
:1096D000EAE400BF803D002070B5304C94F8705033
:1096E0002DB1012D01D1FFF7E5FF002070BDB0F8CD
:1096F000B433226C62661F2B626CA266064607D1E9
:10970000274BE26B9A4203D194F8491001291AD9E8
:10971000244A92F89C3802EBC3010133DBB2042BDC
:1097200008BF002305254FF40050C1F8A40882F8B3
:109730009C383046022381F8A05884F85C30FFF74B
:109740008FFC002070BD94F84A30013B0F2BDFD80E
:10975000FFF7C8FC002819DB94F87030013B022B9E
:10976000C3D9B4F87C10A9B1636CA26E84F86C50B4
:109770008B4228BF0B46D11A0425A1660A4A84F8F9
:109780007050304681210BF029FBAEE73046FFF7E1
:1097900067FCAAE73046FFF787FCA6E7803D00207C
:1097A00055534243882C00207872002008B5084B9E
:1097B00093F87030022B07D0033B012B02D8002115
:1097C000FFF772FC002008BDFFF774FF002008BD02
:1097D000803D002010B501EB8101084A00EBC1017A
:1097E0000446B1F88C131046FEF760FF034A20468A
:1097F000402301210BF022FB002010BD103E002071
:10980000E8E700BF10B5044C04480A4621460BF0B7
:109810008BFA204610BD00BF503E00203C060508D4
:1098200010B5044C04480A4621460BF07DFA204648
:1098300010BD00BF503E00204C06050810B5044C7A
:1098400004480A4621460BF06FFA204610BD00BFBF
:10985000503E00205806050810B5044C04480A463E
:1098600021460BF061FA204610BD00BF503E00209B
:109870006406050810B5044C04480A4621460BF05E
:1098800053FA204610BD00BF503E00207006050868
:1098900010B5044C04480A4621460BF045FA204610
:1098A00010BD00BF503F00207806050810B5044CDD
:1098B00004480A4621460BF037FA204610BD00BF87
:1098C000503F00208806050810B5044C04480A469D
:1098D00021460BF029FA204610BD00BF503F002062
:1098E000940605080A4608B5054920B905480BF055
:1098F0001BFA034808BD04480BF016FA004808BDDF
:10990000503F0020A8060508C006050810B5022330
:109910000446402281210BF0EDFA2046022340222A
:1099200001210BF0E7FA82212046032308220BF0E5
:10993000E1FA064B02229A83FEF72EFF044A2046E4
:10994000402301210BF07AFA002010BD0000002016
:10995000103E002038B508220D460446032383211B
:109960000BF0C8FA29462046FFF7D0FF002038BD8B
:1099700010B5812104460BF087FA204601210BF037
:1099800083FA024B002083F8700010BD803D002058
:1099900070B50446134EFFF7EBFF2046022340222A
:1099A00081210BF0A7FA40220121204602230BF06F
:1099B000A1FAB36F00251B6886F87050284686F818
:1099C0005C50984720460BF051FE204601210BF0D9
:1099D00067FE204606F13C021F2301210BF02EFA00
:1099E000284670BD803D002010B5812104460BF053
:1099F0004BFA204601210BF047FA822120460BF05A
:109A000043FAFEF7C1FE002010BD00BF38B50D4679
:109A1000044683210BF038FA29462046FFF7E4FF7D
:109A2000002038BD38B5264CA36C13B11A689B884A
:109A30005383606C40F2E9330289013B12F0020F5C
:109A40009BB236D0F523838140F2E9330289013B92
:109A500012F0010F9BB226D08389838940F2E9334B
:109A60000289013B12F0020F9BB217D0FF238381C2
:109A700040F2E9330289013B12F0010F9BB208D09A
:109A80008589EDB2A36C13B11A689B8813832846AD
:109A900038BD002BEED134F00BFCF3E7002BDFD107
:109AA00034F006FCEEE7002BD0D134F001FC606C02
:109AB000D3E7002BC0D134F0FBFB606CCDE700BFD7
:109AC000E804001000F01F0240090123032803FAF4
:109AD00002F304D004280CD0022805D07047074AAE
:109AE000116C0B4313647047044A516C0B4353646D
:109AF0007047024A116B0B431363704700380240F2
:109B000000487047B0400020002868D0F0B5838836
:109B1000B3FA83F3202B83B0C3F11F0549D005F0BE
:109B2000FC0404F1804404F59C3405F00302A768AA
:109B300000682B4E4FEA820E4FF00F0C0CFA0EFC11
:109B400000F13F4227EA0C0006EB850702F57E0292
:109B5000C7F85814A060D4F808C022492248C2F3BC
:109B6000872202FA0EF24FF0004727FA03F342EA87
:109B70000C02A2604B610A681C4C22EA03020A60D4
:109B80004A6822EA03024A600A681A430A608A683D
:109B900022EA03028A60CA68054422EA0302CA6014
:109BA00021682A7E0B431644236096F89834F02BE4
:109BB00001D803B0F0BD1044F02190F828308DF8A2
:109BC000043003224FF4807301A886F898148DF8AE
:109BD0000520ADF806300BF081FD03B0F0BD7047F5
:109BE000803D0020003C0140FCC90408083C0140C5
:109BF0002DE9F04F2DED028BC44F97B097F8B424A8
:109C0000002307F594610391C7F8A034C7F8A43482
:109C1000C7F8A834C7F8AC34C7F8B0341AB197F80D
:109C2000B53487F8A03497F8B6341BB197F8B73439
:109C300087F8AF3497F8BA341BB197F8BB3487F87C
:109C4000AA3497F8B8341BB197F8B93487F8A5341B
:109C500097F8BC9409F1FF394FFA89F9B9F1FF3F40
:109C600000F0B780AA4AAB4C029402EB09134FEA0A
:109C70000911187955589A68DB68059308EE100A9F
:109C8000002304920193A3461E4698469BF8004089
:109C90004946204634F088FB82462046BAF1000F40
:109CA00021D033F075F908F107021321D2B220B1A7
:109CB0004FF0000E827180F807E033F0B5FE9BF89C
:109CC000000034F0A3FB4FF00703721C8BF8043044
:109CD0004FF001038BF802608BF80100CDF804A06F
:109CE000D6B28BF8033008F10108B8F1040F0BF17C
:109CF000050BCBD118EE100A029CFFF7E3FE864A53
:109D0000864B51680B4043F440335360B9F1000F68
:109D100001D1019B73B9DFF808824820FFF7D2FE1A
:109D2000404602213FF0C8FBD8F8083043F0010359
:109D3000C8F8083078497A4B4A687A48DFF8F4E185
:109D4000B0F800C042F400024A605A68A7F8C0C4E4
:109D500022F480525A609A6BBEF800E022F440125E
:109D600042F480129A63DA6842F46002DA60996B16
:109D700081F44012C2F3015202EB82004FF01F083F
:109D800008FA00F221EA0201112282400A439A6392
:109D9000DA6842F4E012DA60996BC1F30152C2F161
:109DA0000402D2B202EB820008FA00F221EA0201B8
:109DB000102282405C480088A7F8BEE40A439A63F8
:109DC000A0EB0C00594B93FBF0F0019BA7F8C204E9
:109DD00023B917B0BDEC028BBDE8F08F28463146A1
:109DE0003FF06AFB039B474603F1140E01204FF03E
:109DF0000708E378411CC9B23BB394F801C023794A
:109E0000ACF10A0202EB42020CEB4C09BCF1090F67
:109E100008FA02FA08FA09FB03FA02F240F28C800F
:109E2000EB6823EA0A0A42EA0A02EA60431E03EBED
:109E30008303062807FA03F90CFA03F34FD86A6B79
:109E400022EA0902134308466B630534A645D0D1C4
:109E5000AB68DDF8108043F40073AB60AB6843F48B
:109E60008073AB60AB6843F00103AB6040463EF0EB
:109E700053FF002206213EF0F7FF40460BF0B6FCF0
:109E800007A80BF075FC012E059B294A07938CBF90
:109E90004FF48064002405F14C0000230B960D94D0
:109EA0000890099207A94FF400324FF400674FF46D
:109EB00000564FF4807440460A930C93CDE90E7619
:109EC000CDE910420BF066FCD8F8003043F00103F6
:109ED000C8F80030AB6843F08043AB6079E7C21F3D
:109EE000A0F10D0302EB820203EB83030C2807FAB7
:109EF00002F907FA03F00CFA02F226D82B6B23EAD8
:109F000009031A4308462A639FE700BF803D0020EB
:109F10002CCA04082042002000230140E030FCFF4E
:109F2000002001402C7AFF1F2E7AFF1F803801008D
:109F3000444200202A7AFF1F2A6903FA09F322EA21
:109F40000B0B43EA0B032B6170E7EA6A0CFA03F38D
:109F500022EA000213430846EB6276E700285FD04E
:109F60000368374A2DE9F04103F13F4404F57E04CC
:109F700002EB9422012492F8602002F01F0552099E
:109F8000032A04FA05F456D0042A4FD0022A48D0F6
:109F90008588B5FA85F0C0F11F00C0F3CC0603EB4D
:109FA000860600F0070082000F24306A944020EA01
:109FB00004003062306A01FA02F202430021326288
:109FC0004FF0010E0A464FF0030C02270EFA02F87A
:109FD00038EA050002F101021CD118680CFA01F4FC
:109FE00020EA04001860186807FA01F606431E60AC
:109FF0009E6826EA04069E6098689860586820EA81
:10A000000800586058685860D86820EA0400D86092
:10A01000D868D860102A01F10201D7D1BDE8F081DB
:10A020007047084A556C2C435464B1E7054A156BD8
:10A030002C431463ACE7034A156C2C431464A7E764
:10A04000FCC9040800380240F0B40D6800240CE09C
:10A05000BCF1050F18D8A0F137030A2B14D104EB7B
:10A06000840415F8010B03EB4404A0F13003DEB2C5
:10A07000092EA0F16107A0F1410CF0D9052FE7D816
:10A08000A0F157030A2BEAD00D601460F0BC7047B2
:10A090002DE9F047041E0D4612DB092C26DC824A0E
:10A0A0000B468248A0FB0410C00800EB8000A4EB24
:10A0B00040000021125C1A7059702846BDE8F087F4
:10A0C00064422D23092C01F8013B24D8764A774BB2
:10A0D000A3FB0403DB0803EB8303A4EB430300208F
:10A0E000D35C48700B702846BDE8F0876F4B632C3B
:10A0F000A3FB04264FEAD60621DC6B4A0B466B49CC
:10A10000A1FB0601C90801EB8101A6EB4101515CED
:10A1100003F8011BC5E7654A632CA2FB04364FEA2E
:10A12000D60637D8604A614BA3FB0603DB0803EB76
:10A130008303A6EB4303D35C01F8013BC7E7A3FB12
:10A140000627B4F57A7F4FEAD7070DD2564A0B4659
:10A150005649A1FB0701C90801EB8101A7EB4101A9
:10A16000515C03F8011BCAE7A3FB072842F20F72F8
:10A1700094424FEAD80836D84B4A0B464B49A1FBCC
:10A180000801C90801EB8101A8EB4101515C03F80A
:10A19000011BDDE7A2FB0637B4F57A7F4FEAD7074C
:10A1A0000CD2414A414BA3FB0703DB0803EB8303BB
:10A1B000A7EB4303D35C01F8013BB4E7A2FB0738EC
:10A1C00042F20F739C424FEAD80821D8364A374BE7
:10A1D000A3FB0803DB0803EB8303A8EB4303D35C77
:10A1E00001F8013BDEE7324AA3FB080994424FEA3B
:10A1F000D90921D82C4A0B462C49A1FB0901C908D1
:10A2000001EB8101A9EB4101515C03F8011BB5E7AA
:10A21000274BA2FB08099C424FEAD90921D8224AC0
:10A22000224BA3FB0903DB0803EB8303A9EB4303E6
:10A23000D35C01F8013BCAE71E4AA3FB0903944221
:10A240004FEAD30A21D80B461849174AA1FB0A0145
:10A25000C90801EB8101AAEB4101515C03F8011B24
:10A26000CAE7144BA2FB09029C424FEAD20A13D858
:10A270000E4B0D4AA3FB0A03DB0803EB8303AAEB97
:10A280004303D35C01F8013BCAE70A22BAFBF2F0B0
:10A2900035F0ACFE0346D7E70A22BAFBF2F035F000
:10A2A000A5FE0146E4E700BFD8060508CDCCCCCC1E
:10A2B0009F8601003F420F0038B54FF02033C0E9C0
:10A2C0000033044683600D4639B108463FF0BCF9BF
:10A2D00029460246204642F0C7FA3AF072F820B109
:10A2E00035B10648294636F033F80023E37238BD0D
:10A2F0000349024836F02CF8F7E700BF4C42002033
:10A3000043070508036870B55E6A26B13346052227
:10A31000BDE87040184704460D464E1D00E0236816
:10A320009B68204698470028F9D0236815F8011B40
:10A330001B6820469847B542F1D170BD2DE9F04F1A
:10A340009BB0DDE9247ADDF8989004460D46164668
:10A35000984602E0206833F0A1FA206833F0A6FAAC
:10A360000028F7D10146642201A842F0DEFA2B4B07
:10A370008DF80450CDF85CA00293002D4AD0AB1E9E
:10A38000012B49D9042D14BF00220322244B03972B
:10A39000D3F898388DF805201F440123CDE90594A2
:10A3A00004978DF85B3036B14246314607A842F03B
:10A3B0005BFA8DF85A801B4F97F81A954FF0000AF8
:10A3C000B9F1130FCDF860A016D897F819B564222B
:10A3D00002FB0B7001A90BF1010B00F21C5042F0C3
:10A3E00043FABBF1130FD8BF5FFA8BFA09F10109E9
:10A3F00087F81A9587F819A5236843B14346324672
:10A40000294620461BB0BDE8F04F0FF0C9BB1BB07A
:10A41000BDE8F08F0522B9E70222B7E758420020D5
:10A42000882C0020803D002070B4447941BB036833
:10A430004FF400524FF40076202502213CBB1A8CC9
:10A4400022F001021204120C1A841A8B188C22F0CA
:10A45000F30280B2120420F00A00120C014342F011
:10A46000010241F001011A8319841A8B22F00C02B7
:10A470001204120C1A831A8B92B270BC1A837047A2
:10A4800000220368164615461146002CD7D0042C2E
:10A4900021D0082C38D0198C21F480510904090CE2
:10A4A00019849C8B1D8C45F6FF7040F6FF412840B7
:10A4B0002140024342F4805241F4807199831A840E
:10A4C0009A8B22F440621204120C9A839A8B92B2F5
:10A4D00070BC9A8370471A8C22F010021204120C7E
:10A4E0001A84188B198C89B240F6FF4221F0A00122
:10A4F00002400D4342F4807245F010051A831D841A
:10A500001A8B22F44062B3E71A8C22F48072120490
:10A51000120C1A84998B1A8C21F0F30192B209045F
:10A5200022F42062090C324342F4807241F00101AE
:10A5300099831A849A8B22F00C02C4E72DE9F0412A
:10A54000CA4BCB4ECB4DCC4C0822C3F88820336B82
:10A5500082B043F00103336307464FF4C0522846EC
:10A5600040F2023388466946CDE900230BF03EFBFA
:10A570006B6AC24A23F470436B626B6A43F42043F4
:10A580006B626B6A23F470236B626B6A43F4202363
:10A590006B62736CBA4D43F480437364736B43F026
:10A5A0008003736341F2D421336A44F8018041F29D
:10A5B000DC2143F0805341F2D82C67503362B14E16
:10A5C00044F80C50C4F8F46CAF4FB049B04EC4F826
:10A5D000F07C022584F8F85CAE4FAF4DC4F8001D46
:10A5E0004FF0A043C4F8FC3CC4F8446D03F532635B
:10A5F00001F5A071A6F5D076C4F8087DC4F80C5D0D
:10A60000C4F8483DC4F8101D0123C4F8146D07F5C3
:10A61000107705F51075A1F5A861A6F58C66C4F84C
