:020000040800F2
:10000000000001201DA5040899A50408CDC103081E
:1000100029C2030899A5040899A504080000000056
:1000200000000000000000000000000099A5040886
:1000300099A504080000000099A5040839BD03082B
:1000400099A5040899A5040899A5040899A5040888
:1000500099A5040899A5040899A5040899A5040878
:1000600099A5040899A5040899A50408498E0408CF
:10007000398E0408298E0408198E0408058E040898
:10008000F18D0408DD8D040899A5040899A50408DC
:1000900099A5040899A5040899A5040899A5040838
:1000A000E17C0408557D040899A50408457D0408F1
:1000B000357D0408257D0408157D0408E18F0408BA
:1000C00005900408218F0408458F040899A50408A9
:1000D00099A504080D6E0408016E0408F56D040866
:1000E00099A5040899A5040899A50408D17C0408D9
:1000F000017D040899A50408F17C0408C98D040851
:1001000099A5040899A50408057D040899A5040883
:10011000E96D0408DD6D040899A504087D11010846
:10012000B58D0408A18D04088D8D0408798D04080F
:10013000658D0408000000000000000000000000C1
:10014000000000000000000000000000A1160108EF
:10015000518D04083D8D0408298D0408D16D0408D3
:10016000598E0408818E040899A5040899A50408ED
:1001700099A5040899A504080000000000000000EB
:1001800099A5040899A5040899A5040899A5040847
:1001900099A5040899A504080000000099A5040881
:1001A00000000000000000000000000099A5040805
:1001B00099A5040899A504080000000000000000AB
:1001C000000000000000000000000000000000002F
:1001D00000000000000000000000000099A50408D5
:0801E00074A0040001000000FE
:1001E80004008000787001207C710120000000006C
:1001F80000000000230010002C7001204072012034
:100208000000000061D401081300040034660120D6
:10021800507201200000000088070008F6210C0039
:100228003866012054720120000000008C07000885
:10023800F53174006C650120607201200000000037
:10024800C14C01080B30140058650120D4720120FC
:10025800000000009807000801010400546501200F
:10026800E872012000000000000000000001040006
:1002780050650120EC72012000000000AC07000866
:10028800020103004C650120F0720120000000000B
:1002980049560308FD0124000C650120F472012071
:1002A8000000000005AD030806101800EC640120EA
:1002B8001873012000000000B1BB0208FB01010017
:1002C800E86401203073012000000000394304086D
:1002D800FC010900B4630120347301200000000010
:1002E8004943040802000C00806301204073012088
:1002F80000000000000000000A603600182C0120F1
:100308004C73012000000000B00700083400100002
:10031800A8620120847301200000000081BB02084C
:10032800110208008062012094730120000000007F
:10033800E607000812120400786201209C7301206D
:1003480000000000EE07000818202C004C62012075
:10035800A0730120000000001144040812200D00C1
:1003680024620120CC73012000000000F20700087D
:100378000D004C0000570120DC7301200000000034
:1003880015570308F9010400C056012028740120FC
:100398000000000081AD0308FA0102009C52012010
:1003A8002C74012000000000D53F0408020203005D
:1003B800942D01203074012000000000000000008E
:1003C8000C020300802D012034740120000000007D
:1003D800693F040811000C00D04401203874012042
:1003E8000000000085560308FE010900D4410120E1
:1003F8004474012000000000453F04080120080063
:1004080038C2012038C3012000000000000800089D
:1004180019000500B8C2012040C3012000000000F7
:100428000808000837001E0090C2012048C30120B8
:10043800000000000E0800081E00050084B9012015
:1004480068C30120000000002C0800081B00F4000D
:1004580080B6012070C30120000000008D51010802
:100468000E02020020C1012064C401200000000027
:10047800320800082F001100ECC2012068C40120D6
:1004880000000000340800080510060030C30120F1
:100498007CC40120000000004608000826000E0069
:1004A80094C4012084C401200000000075390108AB
:1004B8001F201C007CB80120C8C4012000000000D7
:1004C8004C080008050204002CBC0120E4C40120EB
:1004D800000000006808000803010A006CB8012049
:1004E800E8C40120000000006C0800082810100073
:1004F800ECCF012068D00120000000004DD4010895
:100508000412020044D0012078D00120000000002D
:10051800760800080F02010040D001207CD001209D
:10052800000000007808000814000400E4CF01204F
:1005380080D00120000000007A0800080E806201C7
:1005480096C7012084D001200000000055BB020896
:100558000902010010CD0120E8D1012000000000AF
:100568007E0800080C20B40050C90120ECD10120FD
:100578000000000009C002080102050012C701209E
:10058800A0D2012000000000A1C701080002050058
:1005980004CB0120A8D201200000000000000000C8
:1005A8001B020800D8CA0120B0D2012000000000B8
:1005B800793F0408F8210600AAD80120B4DD0120FB
:1005C80000000000800800080312330080D70120D3
:1005D8005ADD01200000000086080008250096006A
:1005E80014D80120B4DC0120000000000000000045
:1005F80015007000ECDA0120CCDB012000000000BF
:10060800000000002A006000B4D701206CDB012044
:10061800000000002DBB02082C0010005CDB01204C
:100628004ADD012000000000E54002082B002400FC
:10063800C4D901208DDD012000000000B940020866
:100648002910780068D601203CDC01200000000059
:10065800000000000A020A006CE701207CE7012084
:1006680000000000BA0800080300010078E2012039
:1006780088E70120000000000000000010100300BF
:10068800E0E101208CE7012000000000C408000818
:100698001A000E00C8E1012090E7012000000000C8
:1006A800C80800081600080090E801207CE901202D
:1006B80000000000D608000818020200BBE801206C
:1006C800A4E90120000000000000000017020B0050
:1006D800B0E80120A8E9012000000000C53E040898
:1006E80013020300BDE80120B4E901200000000066
:1006F800DE08000807020200F4E80120B8E901203A
:1007080000000000E208000806021000C4E801200A
:10071800BCE9012000000000F543040808120C00A1
:10072800A4E80120CCE90120000000000D3F0408E6
:10073800F70106009EE80120D8E90120000000002A
:10074800E40800081A023C0010EB012000EF012029
:1007580000000000694304082700040040EF01205E
:100768003CEF012000000000EA0800081002010028
:10077800F0F70120ECF7012000000000EE08000867
:1007880048004418000000000100000002020000B8
:100798002B21231E64010300000001000A01290027
:1007A800230A000090010000003001000000000052
:1007B80073007300690000000000000000000000E2
:1007C800000000000000020000019E077D00FA0002
:1007D80096005802B80BB80BB80B2000C4090000EB
:1007E800000001010101FFFFFFFF00000001000000
:1007F8000541475837000000E8036400040A000177
:1008080000002801000020003200C800D007960030
:10081800140032002800B0044006000550001400FF
:100828000F000801000001000000000000000000A7
:100838000000000000000000000000000000200090
:100848000101000000000000000100000005000098
:10085800010203000000000000000000000000008A
:1008680000000000040101006C16000000000000F8
:1008780000000300004618000101F4011400000004
:100888000000000000000000000000000000000060
:100898000000000000000000000000000000000050
:1008A8000000000000000000000000000000000040
:1008B800010000004A01B400D60113000005000041
:1008C8007E05EA05B4050300E803D0070000C40963
:1008D8000700B401282800000000023C00010000C5
:0708E80000002003000000E6
:1008EF000100000000C20100000008001A03000010
:1008FF0000000000000000000000000000000000E9
:10090F0000000000000000000403090412010002AF
:10091F00020000408304405700020102030100005F
:10092F00120100020000004083042A570002010256
:10093F00030100000A060002000000400100000051
:10094F0009072000010104C0320904000002080653
:10095F005005070581024000000705010240000015
:10096F0009022000010104C0320904000002080638
:10097F0050050705810240000007050102400000F5
:10098F0009022000010104C0320904000002080618
:10099F005005070581020002000705010200020051
:1009AF000A06000200000040010000000907430092
:1009BF00020104C0320904000001020201000524F3
:1009CF000010010524010001042402020524060081
:1009DF0001070582030800FF09040100020A000055
:1009EF0000070501024000000705810240000000DA
:1009FF0009024300020100C0320904000001020293
:100A0F000100052400100105240100010424020245
:100A1F0005240600010705820308001009040100E0
:100A2F00020A00000007050102000200070581020B
:100A3F000002000009024300020100C03209040055
:100A4F00000102020100052400100105240100012C
:100A5F000424020205240600010705820308001082
:100A6F0009040100020A000000070501024000000E
:100A7F0007058102400000001000000000600240E6
:100A8F00106002400000000000000000000B00009A
:100A9F0000000000000000000000000000600240A5
:100AAF00286002400100000000000000060C00005A
:100ABF000000000000000000000000000060024085
:100ACF00406002400200000000000000100D000016
:100ADF000000000000000000000000000060024065
:100AEF00586002400300000000000000160E0000D6
:100AFF000000000000000000000000000060024045
:100B0F00706002400400000000000000200F000091
:100B1F000000000000000000000000000060024024
:100B2F008860024005000000000000002610000051
:100B3F000000000000000000000000000060024004
:100B4F00A06002400600000000000000301100000D
:100B5F0000000000000000000000000000600240E4
:100B6F00B86002400700000000000000362F0000B0
:100B7F0000000000000000000000000000640240C0
:100B8F001064024000000000000000000038000068
:100B9F0000000000000000000000000000640240A0
:100BAF002864024001000000000000000639000028
:100BBF000000000000000000000000000064024080
:100BCF00406402400200000000000000103A0000E4
:100BDF000000000000000000000000000064024060
:100BEF00586402400300000000000000163B0000A4
:100BFF000000000000000000000000000064024040
:100C0F00706402400400000000000000203C00005F
:100C1F00000000000000000000000000006402401F
:100C2F008864024005000000000000002644000018
:100C3F0000000000000000000000000000640240FF
:100C4F00A0640240060000000000000030450000D4
:100C5F0000000000000000000000000000640240DF
:100C6F00B864024007000000000000003646000094
:100C7F000000000000000000000000000000400025
:100C8F00030000040101000000FFFF00000000004E
:100C9F00AA55050100000100000001FFFF012D20F2
:100CAF002D2D202D2D2D2D202D2D2D2D0000000033
:100CBF0000000000000000000000000000AA550B1B
:100CCF00010000AA5507010000AA55090200000003
:100CDF0001000000C012AA5503009F00FF1FFF1F55
:100CEF004404012004000000A4C4012000000000FF
:100CFF000000803F0000803F000000000000000067
:100D0F0000000000000000000000000000000000D4
:100D1F0000000000000000000000000001000000C3
:100D2F00FFFFFFFF000200051002700BE001000043
:100D3F00FFFFFFFF01010100A1C901080000000032
:100D4F00CC050120E4390508000000000000000078
:100D5F000000000000000000D4250508000000007E
:100D6F00000000005C06012004000000683905083F
:100D7F000D000000D1EB0108242A01200000000023
:100D8F00D42F05080D000000F9EB0108182A0120E7
:100D9F0000000000AC310508080000000000000052
:100DAF000C2A012004000000403005080D0000004F
:100DBF0055CA0108002A012000000000043105086F
:100DCF000300000095EE0108F42901200000000047
:100DDF00F43905080300000095EE0108E829012009
:100DEF0000000000342B0508010000000000000087
:100DFF000000000000000000000000000E000000D6
:100E0F00000000000000000000000000E4390508A9
:100E1F0000000000000000000000000000000000C3
:100E2F00D425050800000000000000005C0601202A
:100E3F00040000001439050803000000E1D7010881
:100E4F00DC29012008000000403005080D000000DB
:100E5F0055CA0108002A01200000000004310508CE
:100E6F000300000095EE0108F429012000000000A6
:100E7F00F43905080300000095EE0108E829012068
:100E8F0000000000342B05080100000000000000E6
:100E9F000000000000000000000000000E00000035
:100EAF00000000000000000000000000FC390508F1
:100EBF000000000000000000000000000000000023
:100ECF00D425050800000000000000005C0601208A
:100EDF00040000001C3905080300000095EE01080E
:100EEF00302A012000000000342B0508010000000B
:100EFF0000000000000000000000000000000000E3
:100F0F000E000000000000000000000000000000C4
:100F1F0020700020702D7200FFFFFFFF0001010104
:100F2F0000080000000000000000000098250120CC
:100F3F00FA00000001000000010000002D202D2DFF
:100F4F00202D2D2D2D202D2D2D0000000000000017
:100F5F0000000000000000000000000034CA012063
:100F6F000000F4010100000032CA01200000F4016A
:100F7F000100000030CA01200000F4010100000050
:100F8F002ECA01200000F401010000002CCA01202C
:100F9F000000F401010000002ACA01200000F40142
:100FAF000100000028CA01200000F4010100000028
:100FBF00A82A050800000000000000000000000043
:100FCF0000000000C02A050800000000000000001B
:100FDF000000000000000000E02A050808000000E3
:100FEF0000000000C406012000000000EC2A0508E4
:100FFF000800000000000000B806012000000000FB
:10100F00F82A05080800000000000000AC060120C7
:10101F0000000000C03505080800000000000000B7
:10102F00A006012000000000042B050808000000A6
:10103F00000000009406012000000000102B05089E
:10104F0008000000000000008806012000000000DA
:10105F001C2B050808000000000000007C06012082
:10106F0000000000282B05080200000085F0010891
:10107F000200000000000000342B050801000000F2
:10108F000000000000000000000000000000000051
:10109F000E00000000000000000000000000000033
:1010AF00A9D1010869D10108D006012026CA012063
:1010BF000532010024CA0120E803D0070100000017
:1010CF0022CA0120E803D0070100000020CA012036
:1010DF00E803D007010000001ECA01201E00B80B54
:1010EF00010000001CCA01201E00F40101000000D5
:1010FF001ACA0120140064000100000018CA012060
:10110F000000C800010000003C2B0508442B050817
:10111F00602B050800000000000000000000000028
:10112F0000000000C02A05080000000000000000B9
:10113F000000000000000000202805080800000043
:10114F00000000001C08012000000000742B05089F
:10115F00080000000000000010080120000000003F
:10116F00882B05080800000000000000040801207B
:10117F00000000009C2B0508080000000000000084
:10118F00F807012000000000B02B05080800000040
:10119F0000000000EC07012000000000C02B050834
:1011AF000800000000000000E00701200000000020
:1011BF00D02B05080800000000000000D407012014
:1011CF0000000000E02B05080700000000000000F1
:1011DF00CC07012000000000F02B050803000000E1
:1011EF0095EE0108C007012000000000282B05081C
:1011FF000200000085F0010802000000000000005E
:10120F00342B050801000000000000000000000062
:10121F0000000000000000000E00000000000000B1
:10122F000000000000000000202C05080000000056
:10123F00000000000000000000000000182A050850
:10124F0004000000A9E901080000000000000000F0
:10125F00342B050801000000000000000000000012
:10126F0000000000000000000E0000000000000061
:10127F000000000000000000187101200100C409E7
:10128F0000000000167101200100C40900000000D9
:10129F00147101200100C409000000001271012027
:1012AF000100C409000000000E7101200100C409F3
:1012BF0000000000107101200100C40900000000AF
:1012CF000C7101200100C409000000000A71012007
:1012DF000100C4090000000026C701200000FFFF25
:1012EF000A00000024C701200100C800010000000F
:1012FF0022C70120320030753200000020C70120C4
:10130F00055A05001DC7012000FF01001FC701205E
:10131F0001000000280801201BC701200200000067
:10132F007CDC04081CC7012000FF01001EC7012040
:10133F0001000000280801201AC701200200000048
:10134F007CDC040810C7012080C1803E050000002E
:10135F000EC7012080C1803E050000000CC7012090
:10136F0080C1803E050000000AC7012080C1803E79
:10137F000500000009C7012000FF010008C7012078
:10138F000A32010007C701200400000098E1040899
:10139F0006C7012002000000ACE1040825D10108B6
:1013AF00E1D00108300801203ACA0120EE02CA0834
:1013BF000100000038CA012000C8010064000000CD
:1013CF0037CA012000C801006400000036CA01209E
:1013DF0002000000B8E10408000000000000000057
:1013EF0048090120DCBB01209CFF2C0100000000FC
:1013FF00540401200A000000C4E10408FCC60120C7
:10140F00E0150C1700000000560401200800000032
:10141F007CD90408550401200500000004E30408EA
:10142F00FEC6012002000000DCE1040846CA0120CC
:10143F000100FF7F0100000045CA012002000000EB
:10144F00E8E104080AC901200000F40101000000CE
:10145F0008C901200000F4010100000006C90120A5
:10146F000000F4010100000004C901200000F40194
:10147F00010000001AC901200100803E0500000094
:10148F0016C901200000803E6400000014C901202D
:10149F000000803E6400000012C901200000803E61
:1014AF006400000018C901200300000201000000C1
:1014BF0010C90120C800E803010000000EC9012077
:1014CF001E00E803010000000CC901200000E80322
:1014DF000100000002C901200000803E0100000051
:1014EF0000C901200000803E01000000FEC801205D
:1014FF000000803E01000000FCC801200000803E7B
:10150F0001000000FAC801200000803E0100000029
:10151F00F8C801200000803E010000004BC90120E7
:10152F00196401004FC90120006401004EC9012058
:10153F00006401004DC901200A3201004CC901208D
:10154F0003000000F8E1040848C90120E803D007B0
:10155F000A00000046C9012000FA01000A0000003D
:10156F0045C9012000FA01000A00000044C901200A
:10157F0000FA01000A00000033C9012000640100D5
:10158F0032C90120006401003AC901200064010042
:10159F000A00000039C90120006401000A000000A0
:1015AF0038C90120006401000A0000003DC9012074
:1015BF00006401000A0000003CC901200064010022
:1015CF000A0000003BC90120006401000A0000006E
:1015DF0037C9012000FF01000A00000036C90120B1
:1015EF0000FF01000A00000035C9012000FF0100C3
:1015FF000A00000043C90120005F01000A0000003B
:10160F0042C90120005F01000A00000041C901200A
:10161F00005F01000A00000040C90120005F0100C7
:10162F000A0000003FC9012019AF01000A000000A5
:10163F003EC9012019AF01000A00000084C7012034
:10164F00000A010083C70120000A010082C70120A0
:10165F00000A010094C7012000FA010093C701207E
:10166F0000FA010092C7012000FA010090C7012083
:10167F000000F401010000008EC701200000F401FA
:10168F00010000008CC701200000F40101000000E0
:10169F008AC701200000F4010100000088C7012063
:1016AF000000F4010100000086C701200000F401D2
:1016BF000100000030C90120FF0801002FC90120DF
:1016CF00016401002EC90120006401002DC9012011
:1016DF000100000008E204082CC9012000C8010025
:1016EF002AC901200000D0070100000029C90120EC
:1016FF0000C8010028C9012000C8010027C9012026
:10170F0000C8010026C9012000C8010025C9012019
:10171F0000FA01000A00000022C9012000FA0100AE
:10172F000A0000001FC9012000FA01000A00000092
:10173F0024C9012000FA01000A00000021C901207C
:10174F0000FA01000A0000001EC9012000FA010082
:10175F000A00000023C9012000FA01000A0000005E
:10176F0020C9012000FA01000A0000001DC9012054
:10177F0000FA01000A00000006CA0120010A010058
:10178F000ECA012000FA01000CCA01200000E80374
:10179F000500000017CA012000C8010016CA012069
:1017AF0000C8010015CA012000C8010014CA012099
:1017BF0000C8010013CA012000C8010012CA01208D
:1017CF0000C8010011CA012000C8010010CA012081
:1017DF0000C801000FCA012000C801000ACA012079
:1017EF0000FA010008CA01200000E803050000000C
:1017FF0005CA012000640100642C050800000000E8
:10180F00000000000000000000000000FC3405088C
:10181F000900000000000000EC0901200400000096
:10182F00143505080900000000000000E009012040
:10183F00040000000C37050809000000000000003C
:10184F00D4090120040000008427050809000000C6
:10185F0000000000C809012004000000742C0508D6
:10186F000900000000000000BC0901200400000076
:10187F007C2C05080900000000000000B0090120C1
:10188F0004000000842C050809000000000000007F
:10189F00A4090120040000008C2C05080900000099
:1018AF00000000009809012004000000342B0508F7
:1018BF000100000000000000000000000000000018
:1018CF00000000000E0000000000000000000000FB
:1018DF0000000000B02E050800000000000000000E
:1018EF000000000000000000DC6D0508070000008C
:1018FF00000000001C0A012000000000C02E050897
:10190F000800000000000000100A01200000000085
:10191F00CC2E05080800000000000000040A01207A
:10192F0000000000D42E0508080000000000000091
:10193F00F809012000000000282B05080200000014
:10194F0085F001080100000000000000342B05089D
:10195F000100000000000000000000000000000077
:10196F00000000000E00000000000000000000005A
:10197F0000000000E42E0508000000000000000039
:10198F000000000000000000F42E05080D0000000C
:10199F0000000000580A012000000000FC2E05087E
:1019AF000D000000000000004C0A012000000000A4
:1019BF00042F05080700000000000000440A012062
:1019CF00000000000C2F05080D00000000000000B3
:1019DF00380A012000000000142F05080D00000038
:1019EF00000000002C0A0120000000001C2F050839
:1019FF000700000000000000240A01200000000082
:101A0F00282B05080200000085F0010801000000E6
:101A1F0000000000342B050801000000000000004A
:101A2F000000000000000000000000000E00000099
:101A3F00000000000000000000000000242F050837
:101A4F000000000000000000000000000000000087
:101A5F00DC6D05080C0000000000000028C7012005
:101A6F0000000000382F05080C00000000000000E7
:101A7F002AC7012000000000482F05080C000000B5
:101A8F000000000060C7012000000000582F05086B
:101A9F000C0000000000000054C7012000000000EF
:101AAF006C2F05080C000000000000002CC701205F
:101ABF0000000000782F05080C0000000000000057
:101ACF002EC7012000000000802F05080C00000029
:101ADF000000000030C7012000000000942F05080F
:101AEF000C0000000000000032C7012000000000C1
:101AFF009C2F05080C0000000000000034C70120D7
:101B0F0000000000A42F05080C00000000000000DA
:101B1F0072C7012000000000BC2F05080C00000058
:101B2F000000000036C7012000000000C82F050884
:101B3F000C0000000000000038C70120000000006A
:101B4F006C3105080C000000000000003AC70120AE
:101B5F0000000000D02F05080C000000000000005E
:101B6F003CC7012000000000DC2F05080C0000001E
:101B7F00000000003EC7012000000000E82F05080C
:101B8F000C0000000000000040C701200000000012
:101B9F00F42F05080C0000000000000042C70120D0
:101BAF0000000000003005080C00000000000000DD
:101BBF0044C70120000000000C3005080C00000095
:101BCF000000000058C70120000000001430050875
:101BDF000C0000000000000056C7012000000000AC
:101BEF001C3005080C0000000000000064C7012035
:101BFF0000000000283005080C0000000000000065
:101C0F0066C7012000000000343005080C000000FA
:101C1F00000000006CC7012000000000BC22050876
:101C2F000C0000000000000046C70120000000006B
:101C3F00403005080C000000000000004EC70120D6
:101C4F0000000000483005080C00000000000000F4
:101C5F0048C7012000000000543005080C000000A8
:101C6F00000000004AC70120000000006030050896
:101C7F000C000000000000004CC701200000000015
:101C8F00683005080C0000000000000050C701205C
:101C9F0000000000743005080C0000000000000078
:101CAF005AC70120000000007C3005080C0000001E
:101CBF000000000052C70120000000008830050816
:101CCF000C0000000000000062C7012000000000AF
:101CDF00943005080C000000000000005CC70120D4
:101CEF00000000009C3005080C0000000000000000
:101CFF005EC7012000000000A43005080C000000A2
:101D0F000000000068C7012000000000AC3005088B
:101D1F000C000000000000006AC701200000000056
:101D2F00B43005080C000000000000007AC7012045
:101D3F0000000000342B0508010000000000000027
:101D4F000000000000000000000000000E00000076
:101D5F00000000000000000000000000BC3005087B
:101D6F000000000000000000000000000000000064
:101D7F00C83005080D00000000000000B00A012067
:101D8F0000000000D03005080D000000000000002A
:101D9F00A40A012000000000D83005080700000049
:101DAF00000000009C0A012000000000E43005083C
:101DBF000700000000000000940A0120000000004E
:101DCF00F03005080900000000000000880A01201B
:101DDF0000000000FC3005080900000000000000B2
:101DEF007C0A0120000000000831050809000000EE
:101DFF0000000000700A01200000000018310508E3
:101E0F000900000000000000640A0120000000002B
:101E1F00282B05080200000085F0010801000000D2
:101E2F0000000000342B0508010000000000000036
:101E3F000000000000000000000000000E00000085
:101E4F000000000000000000000000002C31050819
:101E5F000000000000000000000000000000000073
:101E6F00C02A05080000000000000000000000006C
:101E7F00000000003C3105080D00000000000000CC
:101E8F00EC0A012000000000483105080B0000009B
:101E9F0000000000E00A0120000000005431050896
:101EAF000B00000000000000D40A01200000000019
:101EBF00643105080800000000000000C80A012076
:101ECF0000000000783105080300000095EE0108BE
:101EDF00BC0A012000000000282B050802000000AA
:101EEF0085F001080200000000000000342B0508F7
:101EFF0001000000000000000000000000000000D2
:101F0F00000000000E0000000000000000000000B4
:101F1F0000000000843105080000000000000000F0
:101F2F0000000000000000009431050805000000CB
:101F3F000000000081C7012000000000282B0508C9
:101F4F000200000085F00108010000000000000001
:101F5F00342B050801000000000000000000000005
:101F6F0000000000000000000E0000000000000054
:101F7F0000000000000000009C3105080000000078
:101F8F00000000000000000000000000D42505083C
:101F9F000000000000000000BE030120040000004C
:101FAF00A83105080D0000000DEA0108400B0120C3
:101FBF0000000000683905080D00000059C901082C
:101FCF00340B012000000000D42F05080D00000085
:101FDF003DC90108280B012000000000AC310508A5
:101FEF0008000000000000001C0B0120040000008E
:101FFF00403005080D00000087C80108100B0120B4
:10200F0000000000B43105080900000000000000C6
:10201F00040B012004000000043105080300000038
:10202F0095EE0108F80A012000000000342B050886
:10203F000100000000000000000000000000000090
:10204F00000000000E000000000000000000000073
:10205F0000000000BC310508000000000000000077
:10206F000000000000000000CC3105080D0000004A
:10207F0000000000580B012000000000D4310508BB
:10208F000A000000000000008DCB012000000000BE
:10209F00E03105080A0000000000000095CB012088
:1020AF0000000000E83105080A00000000000000F1
:1020BF009DCB012000000000F03105080800000052
:1020CF00000000004C0B012000000000F831050853
:1020DF000400000031F001080000000000000000C3
:1020EF00282B05080200000085F001080100000000
:1020FF0000000000342B0508010000000000000064
:10210F000000000000000000000000000E000000B2
:10211F00000000000000000000000000043205086D
:10212F0000000000000000000000000000000000A0
:10213F00183205080800000000000000300C0120D4
:10214F000000000028320508080000000000000011
:10215F00240C0120000000003832050808000000A0
:10216F0000000000180C0120000000004832050894
:10217F0008000000000000000C0C0120000000000F
:10218F00583205080800000000000000000C012074
:10219F000000000068320508080000000000000081
:1021AF00F40B012000000000783205080800000041
:1021BF0000000000E80B0120000000008432050839
:1021CF000800000000000000DC0B012000000000F0
:1021DF00943205080800000000000000D00B012019
:1021EF0000000000A43205080800000000000000F5
:1021FF00C40B012000000000AC32050808000000ED
:10220F0000000000B80B012000000000B4320508E8
:10221F000800000000000000AC0B012000000000CF
:10222F00BC3205080800000000000000A00B0120D0
:10223F0000000000C4320508080000000000000084
:10224F00940B012000000000D432050808000000A4
:10225F0000000000880B012000000000E03205089C
:10226F0008000000000000007C0B012000000000AF
:10227F00EC3205080800000000000000700B012080
:10228F0000000000F8320508080000000000000000
:10229F00640B012000000000282B0508020000003D
:1022AF0085F001080100000000000000342B050834
:1022BF00010000000000000000000000000000000E
:1022CF00000000000E0000000000000000000000F1
:1022DF0000000000043305080000000000000000AB
:1022EF003306012000000000103305080B0000002A
:1022FF0000000000500D01200000000020330508F1
:10230F000B00000000000000440D01200000000041
:10231F002C3305080B00000000000000380D0120D1
:10232F00000000003C3305080B0000000000000017
:10233F002C0D012000000000483305080B000000A1
:10234F0000000000200D0120000000005C33050894
:10235F000B00000000000000140D01200000000021
:10236F006C3305080B00000000000000080D012071
:10237F0000000000783305080B000000000000008B
:10238F00FC0C012000000000843305080B00000046
:10239F0000000000F00C0120000000009033050841
:1023AF000B00000000000000E40C01200000000002
:1023BF009C3305080B00000000000000D80C012022
:1023CF0000000000A83305080B000000000000000B
:1023DF00CC0C012000000000B43305080B000000F6
:1023EF0000000000C00C012000000000C0330508F1
:1023FF000B00000000000000B40C012000000000E2
:10240F00CC3305080B00000000000000A80C0120D1
:10241F0000000000D833050807000000000000008E
:10242F00A00C012000000000E033050807000000A9
:10243F0000000000980C012000000000EC3305089C
:10244F000B000000000000008C0C012000000000B9
:10245F00F83305080B00000000000000800C01207D
:10246F0000000000043405080B000000000000000D
:10247F00740C012000000000103405080800000053
:10248F0000000000680C0120000000002034050847
:10249F000D000000000000005C0C01200000000097
:1024AF00303405080700000000000000540C012024
:1024BF000000000040340508070000000000000085
:1024CF004C0C0120000000005034050807000000EC
:1024DF0000000000440C01200000000060340508DB
:1024EF0007000000000000003C0C0120000000006D
:1024FF00282B05080200000085F0010801000000EC
:10250F0000000000342B050801000000000000004F
:10251F000000000000000000000000000E0000009E
:10252F0000000000000000000000000074340508E7
:10253F00000000000000000000000000000000008C
:10254F00883405080800000000000000C80D0120B5
:10255F00000000009834050808000000000000008B
:10256F00BC0D012000000000A83405080800000081
:10257F0000000000B00D012000000000B834050875
:10258F000800000000000000A40D01200000000062
:10259F00C83405080800000000000000980D012055
:1025AF0000000000DC3405080800000000000000F7
:1025BF008C0D012000000000EC340508070000001E
:1025CF0000000000840D0120000000000435050804
:1025DF0007000000000000007C0D0120000000003B
:1025EF001C3505080700000000000000740D0120D5
:1025FF000000000030350508070000000000000053
:10260F006C0D012000000000403505080700000098
:10261F0000000000640D0120000000005435050883
:10262F0007000000000000005C0D0120000000000A
:10263F00282B05080200000085F0010801000000AA
:10264F0000000000342B050801000000000000000E
:10265F000000000000000000000000000E0000005D
:10266F0000000000000000000000000064350508B5
:10267F0000000000000000003006012000000000F4
:10268F00743505080B000000000000008C0E0120BF
:10269F0000000000803505080B000000000000005E
:1026AF00800E0120000000008C3505080B00000093
:1026BF0000000000740E012000000000983505088E
:1026CF000B00000000000000680E01200000000059
:1026DF00A43505080B000000000000005C0E01206F
:1026EF0000000000B03505080B00000000000000DE
:1026FF00500E012000000000BC3505080B00000043
:10270F0000000000440E012000000000C83505083D
:10271F000B00000000000000380E01200000000038
:10272F00D43505080B000000000000002C0E01201E
:10273F0000000000E0350508070000000000000061
:10274F00240E012000000000EC35050807000000F2
:10275F00000000001C0E012000000000F8350508E5
:10276F000700000000000000140E01200000000010
:10277F000836050807000000000000000C0E0120BD
:10278F0000000000183605080800000000000000D7
:10279F00000E012000000000203605080700000091
:1027AF0000000000F80D0120000000002C36050885
:1027BF000D00000000000000EC0D012000000000E3
:1027CF003C3605080700000000000000E40D012062
:1027DF000000000048360508070000000000000058
:1027EF00DC0D01200000000058360508060000002F
:1027FF0000000000D40D012000000000282B050868
:10280F000200000085F00108010000000000000038
:10281F00342B05080100000000000000000000003C
:10282F0000000000000000000E000000000000008B
:10283F0000000000000000006836050800000000DE
:10284F00000000003006012000000000803605085F
:10285F000700000000000000100F01200000000022
:10286F008C3605080800000000000000040F01204E
:10287F000000000098360508070000000000000067
:10288F00FC0E012000000000A43605080700000020
:10289F0000000000F40E012000000000AC36050817
:1028AF000700000000000000EC0E012000000000F7
:1028BF00B43605080700000000000000E40E0120F8
:1028CF00000000009C350508070000000000000014
:1028DF00DC0E012000000000A835050807000000ED
:1028EF0000000000D40E012000000000B4350508E0
:1028FF000700000000000000CC0E012000000000C7
:10290F00BC3605080700000000000000C40E0120BF
:10291F0000000000C436050807000000000000009A
:10292F00BC0E012000000000CC3605080700000097
:10293F0000000000B40E012000000000D43605088E
:10294F000800000000000000A80E01200000000099
:10295F00E43605080700000000000000A00E01206B
:10296F0000000000F436050807000000000000001A
:10297F00980E012000000000282B0508020000001F
:10298F0085F001080100000000000000342B05084D
:10299F000100000000000000000000000000000027
:1029AF00000000000E00000000000000000000000A
:1029BF000000000000000000E9CC0108180F012002
:1029CF007FC701202C00000010E204087EC7012001
:1029DF0000C801007CC70120E803D00701000000F8
:1029EF00414733584637000019C701200003010043
:1029FF0018C701200003010029CC0108F9CB0108F9
:102A0F00F40F0120B5CB010869CB01089410012008
:102A1F0071CC010859CC01085C110120CDCA010805
:102A2F0079CA01087C14012015D20108E9D10108E7
:102A3F006C150120FDCC010821EC01083416012092
:102A4F00C5C8010800000000981601200DF001080C
:102A5F0075D20108741701207DCE010801CE01083F
:102A6F003C180120B5CF010801D00108F41901204D
:102A7F0031C90120010601008DCD010825CD0108C6
:102A8F004C1C0120F9CE010851EC01088C1D0120CE
:102A9F0035D0010811ED0108581F01201CC9012074
:102AAF0001030100FC3605080000000000000000D3
:102ABF0000000000000000000837050808000000B3
:102ACF0000000000F420012000000000103705086E
:102ADF000700000000000000EC20012000000000B3
:102AEF00203705080D00000000000000E020012045
:102AFF00000000002C3705080300000095EE0108C8
:102B0F00D420012000000000282B0508020000003F
:102B1F0085F001080100000000000000342B0508BB
:102B2F000100000000000000000000000000000095
:102B3F00000000000E000000000000000000000078
:102B4F0000000000343705080000000000000000FE
:102B5F000000000000000000443705080A000000D4
:102B6F0000000000A4200508000000004C370508F5
:102B7F000A00000000000000D32905080000000033
:102B8F00543705080A000000000000003CCA01206D
:102B9F00000000005C3705080A000000000000007C
:102BAF000021012000000000342B05080100000067
:102BBF000000000000000000000000000000000006
:102BCF000E000000000000000000000000000000E8
:102BDF00643705080000000000000000000000003E
:102BEF0000000000703705080300000095EE010893
:102BFF0030210120000000007C3705080300000091
:102C0F0095EE0108242101200000000084370508FB
:102C1F000300000095EE01081821012000000000BC
:102C2F008C370508050000000000000017C70120C1
:102C3F0000000000943705080700000000000000A6
:102C4F001021012000000000A03705080700000038
:102C5F00000000000821012000000000282B0508BB
:102C6F000200000085F001080100000000000000D4
:102C7F00342B0508010000000000000000000000D8
:102C8F0000000000000000000E0000000000000027
:102C9F000000000000000000AC3705080000000035
:102CAF00000000000000000000000000C037050811
:102CBF000300000095EE01086C21012000000000C8
:102CCF00CC3705080300000095EE010858040120D9
:102CDF0000000000D43705080300000095EE01083E
:102CEF006021012000000000DC3705080300000010
:102CFF0095EE01085421012000000000F02705087F
:102D0F000300000095EE010848210120000000009B
:102D1F00403005080300000095EE01083C2101201A
:102D2F0000000000282B05080200000085F00108B4
:102D3F000100000000000000342B05080100000016
:102D4F000000000000000000000000000000000074
:102D5F000E00000000000000000000000000000056
:102D6F00E837050800000000000000000000000028
:102D7F0000000000F837050807000000A1ED01086A
:102D8F00BC21012000000000643005080300000092
:102D9F0095EE0108B021012000000000043805085D
:102DAF000300000095EE0108A4210120000000009F
:102DBF000C3805080300000095EE0108982101204A
:102DCF0000000000143805080700000085ED010819
:102DDF009021012000000000A42705080300000037
:102DEF0095EE01088421012000000000203805081D
:102DFF000300000095EE010878210120000000007B
:102E0F00282B05080200000085F0010801000000D2
:102E1F0000000000342B0508010000000000000036
:102E2F000000000000000000000000000E00000085
:102E3F00000000000000000000000000B9CC0108F5
:102E4F0089CC0108C421012041D2010800000000F3
:102E5F006422012045CB010821CB0108F02201207B
:102E6F000000000000000000B8230120B9D00108C5
:102E7F00BDED0108802401202C380508000000005A
:102E8F0000000000000000000000000038380508B6
:102E9F000300000095EE01088C25012000000000C2
:102EAF00403805080300000095EE01088025012039
:102EBF0000000000F82205080300000095EE01084D
:102ECF0074250120000000004C38050803000000A5
:102EDF0095EE01086825012000000000583805080C
:102EEF000300000095EE01085C25012000000000A2
:102EFF00603805080200000085F00108000000009E
:102F0F0000000000282B05080200000085F00108D2
:102F1F0001000000000000006838050802000000F2
:102F2F0085F0010802000000000000000000000012
:102F3F000E00000000000000000000000000000074
:102F4F0002C7012088136F170100000004C701207A
:102F5F0088136F1700000000743805080000000088
:102F6F000000000000000000000000008438050889
:102F7F0008000000000000006C2601200400000083
:102F8F0090380508080000000000000060260120AE
:102F9F0000000000043105080400000035EA0108B4
:102FAF000000000000000000342B050801000000A5
:102FBF000000000000000000000000000000000002
:102FCF000E000000000000000000000000000000E4
:102FDF0000C7012088136F17010000001CBC0120DF
:102FEF0088136F170000000009CA010800000000D5
:102FFF007826012031CB012001000000C4E2040833
:10300F001EBC012001000000D0E2040814BC012006
:10301F0002000000D8E204086E71012000000000D9
:10302F00000000006C710120000000000000000093
:10303F006A7101200000000000000000687101208B
:10304F000000000000000000667101200000000079
:10305F00000000006471012000000000000000006B
:10306F00F40301200000000000000000FFC6012053
:10307F0002000000E4E20408CC380508000000005C
:10308F000000000000000000000000008438050868
:10309F000800000000000000FC26012004000000D2
:1030AF00903805080800000000000000F0260120FD
:1030BF00000000000431050804000000D9C9010810
:1030CF000000000000000000342B05080100000084
:1030DF0000000000000000000000000000000000E1
:1030EF000E000000000000000000000000000000C3
:1030FF00DC380508000000000000000000000000A0
:10310F0000000000EC3805080D00000075EB010809
:10311F002C27012004000000F83805080D000000DE
:10312F0031CA0108202701200400000004390508D6
:10313F000D00000039EB01081427012000000000EA
:10314F00103905080300000001D8010808270120E5
:10315F00080000001C3905080300000095EE010867
:10316F00302A012000000000342B05080100000068
:10317F000000000000000000000000000000000040
:10318F000E00000000000000000000000000000022
:10319F00202C0508000000000000000000000000C7
:1031AF0000000000182A0508040000004DEA01087D
:1031BF000000000000000000342B05080100000093
:1031CF0000000000000000000000000000000000F0
:1031DF000E000000000000000000000000000000D2
:1031EF00703905080000000000000000000000001A
:1031FF0000000000502105080D0000000000000035
:10320F008C27012004000000803905080800000009
:10321F000000000080270120040000008C39050801
:10322F0008000000000000007427012004000000C7
:10323F0094390508080000000000000068270120ED
:10324F00040000009C390508080000000000000081
:10325F005C27012004000000A439050808000000C5
:10326F00000000005027012004000000AC390508C1
:10327F0008000000000000004427012004000000A7
:10328F00B4390508080000000000000038270120AD
:10329F0004000000342B05080100000000000000AE
:1032AF000000000000000000000000000E00000001
:1032BF00000000000000000000000000F1C901083C
:1032CF00000000009827012000000000000000000F
:1032DF00102801200000000000000000B02801208D
:1032EF001ABC012004000000F0E2040818BC012001
:1032FF00E0150C170000000017BC012008000000AB
:10330F007CD9040816BC01200500000004E3040862
:10331F0000000000000000000029012001FFFFD67F
:10332F0001000000FFFFFFFF0000803F00000000D2
:10333F0000000000000000000000803F00000000BF
:10334F0000000000000000000000803F00000000AF
:10335F0000000000000000000000803F000000009F
:10336F0094E90120080000000000000084E901201A
:10337F0008000000418E0008358E0008FD8D000802
:10338F00118E0008B58D0008A18D00088D8D0008E5
:10339F00DD300108E5AA00086130010800000000D7
:1033AF00ED8E00084D8F0008198F000800000000F7
:1033BF000000000000000000CD8E0008DD8E000828
:1033CF00BD8E0008AD8E00088DAB0008658C00081F
:1033DF00E18B0008C58B0008EC11050805080400F7
:1033EF000000000004E304087CD90408F0E204089C
:1033FF0000000000000000001812050805080A0070
:10340F000000000004E304087CD90408C4E10408A8
:10341F000000000000000000685E0C00FF010102C8
:10342F00FFFF0000D92F0108BDAA00088D2E01084B
:10343F000000000000000000552E0108552D010866
:10344F000000000000000000000000009D8E00083A
:10345F008D8E00087D8E00086D8E0008315B04088C
:10346F00B93F0408B53F0408B13F04086945040893
:10347F00AD3F0408A93F04080C1605080100000021
:10348F00B00100000200000009000000FF00000072
:10349F00B42B01200000000000000000000000001D
:1034AF00000000000000000000000000000000000D
:1034BF0000000000000000000000000000000000FD
:1034CF0000000000000000000000000000000000ED
:1034DF0000000000000000000000000000000000DD
:1034EF0000000000000000000000000000000000CD
:0434FF0000000000C9
:103503003022050838220508000000005956030838
:10351300A08601000400000000000000000000007D
:103523000000000000000000000000000000000098
:1035330000000000302205084022050800000000BA
:1035430001AB0308E80300000400000000000000D2
:103553000000000000000000000000000000000068
:103563000000000000000000643005084822050840
:1035730000000000AD0B00007D000000060000000D
:103583000000000000000000000000000000000038
:1035930000000000000000000000000050220508A9
:1035A30000000000000000003DFF0308E8030000E6
:1035B3000500000000000000000000000000000003
:1035C30000000000000000000000000000000000F8
:1035D30054220508000000000000000069C0020832
:1035E300C409000005000000000000000000000006
:1035F30000000000000000000000000000000000C8
:10360300000000006022050800000000953E02084B
:103613007DD103086A1800000500000000000000C7
:103623000000000000000000000000000000000097
:103633000000000000000000BC6F0508000000004F
:1036430000000000213304081027000001000000DF
:103653000000000000000000000000000000000067
:1036630000000000000000000000000064220508C4
:10367300000000000000000005AB0308E8030000A1
:103683000500000000000000000000000000000032
:103693000000000000000000000000000000000027
:1036A3007022050800000000000000007964030890
:1036B300204E000003000000000000000000000096
:1036C30000000000000000000000000000000000F7
:1036D3000000000080220508000000000000000038
:1036E3005D620308204E000003000000000000009C
:1036F30000000000000000000000000000000000C7
:1037030000000000000000009022050800000000F7
:103713000000000099B50308400D030003000000FA
:103723000000000000000000000000000000000096
:10373300000000000000000000000000A0220508B7
:103743000000000000000000DD6B030810270000EC
:103753000100000000000000000000000000000065
:103763000000000000000000000000000000000056
:10377300A822050800000000000000009DA4010825
:1037830010270000030000000000000000000000FC
:103793000000000000000000000000000000000026
:1037A30000000000AC22050800000000000000003B
:1037B300F5310208A08601000100000000000000AE
:1037C30000000000000000000000000000000000F6
:1037D3000000000000000000B42205080000000003
:1037E3000000000011B3030850C3000001000000F3
:1037F30000000000000000000000000000000000C6
:1038030000000000000000000000000000000000B5
:1038130000000000000000000000000000000000A5
:103823000000000000000000000000000000000095
:103833000000000000000000000000000000000085
:10384300BC2205080000000000000000A9B0030826
:10385300A86100000100000000000000000000005B
:103863000000000000000000000000000000000055
:1038730000000000C822050800000000000000004E
:1038830065170208A0860100010000000000000087
:103893000000000000000000000000000000000025
:1038A3000000000000000000D42205080000000012
:1038B30000000000E1040408A00F00000100000064
:1038C30000000000000000000000000000000000F5
:1038D300000000000000000000000000E0220508D6
:1038E3000000000000000000594D010810270000EF
:1038F30001000000000000000000000000000000C4
:1039030000000000000000000000000000000000B4
:10391300EC2205080000000000000000415B0308E2
:10392300A00F0000010000000000000000000000E4
:103933000000000000000000000000000000000084
:1039430000000000F822050800000000000000004D
:10395300C9BD01081A410000010000000000000079
:103963000000000000000000000000000000000054
:103973000000000000000000FC2205080000000019
:10398300000000004D360108102700000100000070
:103993000000000000000000000000000000000024
:1039A30000000000000000000000000008230508DC
:1039B300000000000000000005F201081A410000A9
:1039C30001000000000000000000000000000000F3
:1039D30000000000000000000000000000000000E4
:1039E3000C2305080000000000000000157D0108FD
:1039F300400D030000000000000000000000000074
:103A030000000000000000000000000000000000B3
:103A1300000000001423050800000000000000005F
:103A2300D1560308400D0300000000000000000011
:103A33000000000000000000000000000000000083
:103A430000000000000000001C2305080000000027
:103A5300000000003909020850C300000300000001
:103A63000000000000000000000000000000000053
:103A730000000000000000000000000028230508EB
:103A83000000000000000000D561030840420F0061
:103A93000000000000000000000000000000000023
:103AA3000000000000000000000000000000000013
:103AB300342305080000000000000000515C0308E7
:103AC30050C30000000000000000000000000000E0
:103AD30000000000000000000000000000000000E3
:0C3AE30000000000912000009120000075
:108000002DE9F04F022389468A462DED108B99B059
:10801000DFEDCABA149303461690043315921793F2
:108020004FEADA06169DDDF85CC04FEACA0305EB9D
:1080300046111396F0004FF0000B01EB06143701C8
:108040000390A6EB86020194049706EB460E04EB20
:10805000C202041D381D06EB86072C44C6EBC60879
:1080600002972844029D02EB46174FEAC808ED002C
:1080700001EBC60602954FEA0E1505954FEACE05AF
:108080000695139D4FEA451E019D95ED007AD34458
:1080900092ED005AD7ED004AD945D1ED006A50ED76
:1080A000013A35EE241AD6ED002A1CED016A73EE72
:1080B000875A54ED017A33EEC73A36EE264A77EE08
:1080C000A21A36EE666A77EEE27A74EE256A71EEEF
:1080D000812A77EE633A37EEC57A36EEA22A77EE3A
:1080E000E47A76EEE26A0CED012A37EE247A77EE36
:1080F000857AD1ED018AC1ED006A74EE655A96ED7C
:10810000015AB0EE460A94ED004AA7EE2B6AD2ED72
:10811000010AE7EEAB3A74EE456AD7ED012AA7EE05
:108120006B0A9CED007AD5ED014A34EE054A37EE34
:10813000689A90ED005A36EEE02A76EEE26A30EE6A
:10814000A28A32EE222A76EEA06AF0EE492A75EE75
:10815000640A37EE287A75EE249AE2EE6B2A74EE02
:10816000C54AF0EE608AB0EE40AAE6EEAB4AE6EE13
:10817000AB8AA6EEEBAAF0EE496AB0EE629A37EE51
:10818000695AE2EE2B6AB0EE432A74EE08AAA7EE13
:10819000EB9AA7EEAB2A77EE297A35EE617A75EE87
:1081A000C89A35EE415A75EEC45A37EEAABA77EE40
:1081B000EA7A37EE011A8CED00BA36EE287AC1ED74
:1081C000017A39EE844A76EEC27A194475EE885AFD
:1081D0009C4435EE215A00ED014A70EE8A0A70EE99
:1081E000244AC5ED005A36EE686A80ED001A72EE38
:1081F000A33A85ED015A33EE093A04ED017A72EEA5
:10820000266A87ED006A1D44C6ED000A1844C2EDD7
:10821000004AC4ED007A1C44C7ED016A1F44C6ED54
:10822000013A1E4482ED013A1A443FF62EAF139AEA
:10823000072A40F2C681039A0EF1080E169F08F134
:1082400008000832029E059D4FF0000894463A4609
:10825000083608357244069C0499D346109207EB01
:108260000C0208340C310F92BA190E927A190D9241
:108270003A190C923A180B927A18099207F10C02EB
:108280000A9201220892149ADDF824C09044159AAB
:108290000A9F02EBC8020B9EA8EB880E0C9D02EB16
:1082A000C80192ED00BA0D9C01EBC802D1ED00AA05
:1082B0000E9802EBC80192ED00AA01EBC802D1EDC5
:1082C000009A02EBC80192ED009A01EBC802D1EDD1
:1082D000008A0F9902EB0E1E92ED008A109A0EEBA7
:1082E000C80ADEED017A1192CDED047A0AEBC802DC
:1082F000DAED017A02EBC80A1291CDED057AD2EDE2
:10830000017A0AEBC802DDF820E0CDED017ADAED62
:10831000017A02EBC80ACDED067AD2ED017A0AEBBA
:10832000C802CDED027ADAED017ACDED077AD2ED11
:10833000017ADDE91121CDED037A01E0F304353F47
:1083400017ED017ADE44D2ED007A94ED005AF14542
:10835000D5ED006A37EE274AD0ED004A77EE677A0E
:108360001CED016A96ED007A91ED001A76EE055A41
:1083700036EE872A97ED00DA71EE24EA76EE453A7A
:1083800074EE252A31EE641A35EE466A3EEE825AC4
:1083900074EE655A31EE664A72EE854A31EE471A3E
:1083A000B0EE67CA47ED014A34EE077AD1ED014AD3
:1083B00031EE261AD0ED016A72EEC52A95ED014A1A
:1083C000A7EE6BCA74EEE60A96ED010AE7EE2B7A89
:1083D00092ED017A94ED015A74EEA64A3DEE473AC9
:1083E000DCED006A70EEC4CA70EEC00AB0EE43EA7B
:1083F0007CEE80CA74EE001A70EE840AACEEEBEAF2
:1084000036EEC54A3DEE077AB0EE63DA36EE850AFF
:10841000ACEEAB3AF0EE4EDAA1EE2BDAA1EE2B6A1F
:10842000E1EE6BDA75EE666AB0EE441AF0EE4CCA15
:1084300037EE405AA0EEAB1AE0EEEBCAE0EEAB6AC4
:1084400037EE007A74EEA10A35EEE1FA75EEE45AE1
:1084500075EE6EFA37EE600A71EEA55ADDED061A7A
:1084600035EE425A7FEE244A3FEE822A22EEE1FAAE
:1084700061EE80FADDED051A3EEE855A3EEE066AA3
:1084800073EEAD3A21EE82EA73EE4DDA3DEE033A39
:1084900024EEE1DADDED071A34EE2C4A7CEE266A92
:1084A00061EE85CA25EEE1CADDED041A77EE81EAB8
:1084B00077EEC17AE9EEA2FADDED032AA9EE80FAA1
:1084C0009DED030AAAEEA4EADDED014AAAEE82DAE6
:1084D0009DED012AE8EEA5CADDED025AA8EE85CA97
:1084E0009DED025A21EEAD1A62EE832A6EEEE11A7C
:1084F00027EEC00A64EEA34A26EEC22A65EE865A2B
:1085000024EE455AABEE2E1AEBEE2D1AE8EE272A92
:10851000A8EE030AEAEE264AAAEE232AE9EE045A56
:10852000A9EE065A37EE207A87ED007A1F44C2ED95
:1085300000FA82ED01FA1A440CED01EA8CED00DA42
:108540009C44C4ED00CA84ED01CA1C4481ED001AAC
:10855000C1ED011A1944C6ED002A86ED010A1E4438
:10856000C0ED005A80ED015A1844C5ED004A85ED72
:10857000012A1D443FF6E4AE1099089A08310132F1
:1085800010910F99089208310F910E9908310E91B0
:108590000D9908310D910C9908310C910B99083106
:1085A0000B910A9908310A91099908310991139997
:1085B00091427FF468AE149B8A46DB009BB2149311
:1085C0002EE519B0BDEC108BBDE8F08F2DE9F04F12
:1085D000002383B0DFF8089288460D68DFF804E2D4
:1085E00003E00133102B00F0B58001229A4032EAFB
:1085F000050102EA050CF4D1D8F8044024F0100A71
:10860000BAF1020F40F0A980DE0803F0070B4FF02B
:108610000F0AD8F8101000EB86064FEA8B0B376A6A
:108620000AFA0BFA01FA0BFB590027EA0A074FF086
:10863000030A4BEA07070AFA01FB04EA0A0A37624F
:108640006FEA0B0706680AFA01FA26EA0B064AEAFD
:1086500006060660C4F30016D0F808A006FA03FB6D
:10866000D8F80C600AEA070A06FA01F141EA0A01A1
:108670008160416821EA02024BEA02064660C26854
:10868000E60007EA0207C760ABD5D9F8446023F0DB
:10869000030703F003020F2146F4804607F18047E9
:1086A0009200C9F8446007F59C37D9F8446001FA94
:1086B00002FA06F480460196424E0199B042B9682A
:1086C00021EA0A011AD006F58066B0425CD03E4E1F
:1086D000B0425ED03D4EB04260D03D4EB04262D01E
:1086E0003C4EB04264D03C4EB04266D03B4EB042AD
:1086F0000CBF0726082606FA02F21143B9606FEA9A
:108700000C06DEF80020E10303F1010354BF324000
:108710004CEA0202CEF80020A203DEF8041054BF97
:1087200031404CEA0101E702CEF80410DEF80810EF
:1087300054BF31404CEA0101CEF80810A102DEF826
:108740000C2054BF32404CEA0202102BCEF80C2011
:108750007FF44BAF03B0BDE8F08F59000327D0F88A
:1087600000B00AF1FF3A04EA07068F40BAF1010FA0
:108770002BEA070B06FA01F66FEA070746EA0B0633
:1087800006603FF67CAF65E7012606FA02F2114368
:10879000B4E7022606FA02F21143AFE7032606FA0F
:1087A00002F21143AAE7042606FA02F21143A5E7F2
:1087B000052606FA02F21143A0E7062606FA02F29F
:1087C00011439BE70000024000080240000C0240F9
:1087D000001002400014024000180240001C024039
:1087E00000380240003C01409FED747A07EE901A79
:1087F00020EE070AF8EE677A27EE800AFDEEC07ACF
:1088000017EE903A2033402B00F2C880DFED6C7AEF
:10881000B4EEE70AF0EE407AF1EE10FA0CDD9FEDCF
:10882000696ADFED696AB0EE677A77EEC67AB4EE10
:10883000E67AF1EE10FAF6DC9FED647AF4EEC77A90
:10884000F1EE10FA0CD59FED5F6ADFED616AB0EED4
:10885000677A77EE867AB4EEE67AF1EE10FAF6D41D
:108860009FED5C7AF4EEC77AF1EE10FA40F3868061
:108870009FED537A77EE677A67EEA75A9FED565AC7
:108880009FED566AB6EE007ADFED556AA5EE856A71
:1088900027EEA55AE5EE866AE5EE267A27EE877A78
:1088A000DFED4C6A70EE267ABDEEE76A16EE103AFE
:1088B0002033402B6FD8B4EEE60AF1EE10FA0CDD4F
:1088C000DFED405A9FED406AF0EE676A77EEE57A99
:1088D000F4EEC66AF1EE10FAF6DCDFED3C6AF4EE77
:1088E000E67AF1EE10FA0CD5DFED365A9FED386AD4
:1088F000F0EE676A77EEA57AF4EEC66AF1EE10FA4A
:10890000F6D4DFED346AF4EEE67AF1EE10FA48DDE3
:10891000DFED2B6A76EEE77A67EEA75ADFED2E4A97
:108920009FED2E6AB8EE005ADFED2D6AA5EEA46A1F
:1089300067EEA54AE5EE866AE4EEA67A67EE857AEA
:10894000C7EE206A0023836143610362B7EE006AC9
:10895000C36176EE865A76EE666A86EE257A67EE13
:10896000277A80ED007A66EE876A80ED027AC0EDA4
:10897000017AC0ED037AC0ED046A70479FED197A61
:10898000F4EEC77AF1EE10FA7FF576AF9FED0F7A2D
:1089900077EE677A70E7DFED147AD1E79FED127A10
:1089A0007EE7DFED106AF4EEE67AF1EE10FAB3D569
:1089B000DFED066A76EEE77AAEE700BF27D4D2365F
:1089C000DB0F4940DB0FC940E4CB1641DB0F49C048
:1089D000E4CB16C1DB0FC93F92E741B99730083CA1
:1089E00015A82ABEDB0FC9BF00000000114A124BB8
:1089F000B2F92220DFED116A07EE902A93ED117A89
:108A0000F8EEE77AB0EEC77A77EEE67AF4EEC77A58
:108A1000F1EE10FA0ADDD3F8CC1344F62062401AC6
:108A2000904205DD002283F8D0237047C3F8CC03C1
:108A3000704700BF182C0120EC0500200000C84240
:108A4000174BDFED186AD3ED087A93ED0F7A67EED6
:108A5000A67AB0EEC77AF4EEC77AF1EE10FA08DD26
:108A600093ED107AB0EEC77AF4EEC77AF1EE10FA11
:108A700002DCC3F8C403704793ED117AB0EEC77AF5
:108A8000F4EEC77AF1EE10FAF3DDD3F8C4134CF22A
:108A90005032401A9042EEDD002283F8C82370471E
:108AA000EC0500200008ED460F49104B01EB400299
:108AB0009B7FB2F95420ABB90D4B1B7893B900F1F1
:108AC000120310B451F82340101B0028B8BF4042D5
:108AD000B0F5804FCCBF224641F823205DF8044B0F
:108AE0001046704710467047EC050020182C0120F6
:108AF00000000120037870B433B30246C0F10105D1
:108B0000531912F8014FDBB2002CF9D101335B008D
:108B1000DAB20F4C03250B8084F8382084F83950E2
:108B2000017879B1022300265A1CE518023354FA61
:108B300082F285F83810DBB282F8386010F8011F35
:108B40000029F1D170BC704702221346E1E700BF53
:108B5000182C012030B5EFF31181802383F31288A4
:108B60000A4AD2F83831D2F83C41D2F83801D2F86A
:108B70003C51CAB282F31188013BA84294BF4FF422
:108B8000006000201B1B184430BD00BF182C0120C2
:108B9000012380F84D307047014BD3F840017047F6
:108BA000182C012001207047014BC3E95121704767
:108BB000182C0120014BC3E953217047182C0120C8
:108BC0007047704710B4054B04460A680020C3F88C
:108BD00054415DF8044BC3F840217047182C012024
:108BE000212870B505D0222829D0202810D00020B7
:108BF00070BD0029FBD0072AF9D1184B187A5C68A0
:108C00005A7A9B7A087100200C604A718B7170BD92
:108C10000029ECD0072AEAD11148104B0C680E79D4
:108C20004D79D0F8482189795C601E725D72997225
:108C3000002ADCD02146D0F844019047D7E700292C
:108C4000D5D0022AD3D1064AD2F85031002BCED04B
:108C50000988D2F84C019847C9E700BF00000120FD
:108C6000182C01200020704770B40E06D0F8304256
:108C700041D41C20C1EBC105002600FB014004EBE0
:108C8000850500F5FC7085F8F811C5F8003285F807
:108C9000FB2185F8F961022A01D10023037194F8C0
:108CA000B833012B18D00121236884F8B813427817
:108CB0008A4234D0067803F5006503F53063EA692B
:108CC000B14003EB461342EA0141E9611A6812041C
:108CD00005D5002384F8B833002070BC7047826843
:108CE0001D68C2F30A02C0781B492A4342EA804247
:108CF00011431960EDE701F07F011C200126C1EB53
:108D0000C10500FB014004EB8505383085F83810BB
:108D10002B6485F83B20E98785F83960BBE701784B
:108D200003F5006503F51063EE698A4003EB411318
:108D300092B23243EA611A681504CAD482681E6886
:108D4000C2F30A02C5780448324342EA854242EA45
:108D5000815210431860BCE700800010F0B400247A
:108D600052004E1C2746030FB0F1204F4FEA00106F
:108D700003F1300503F1370334BF0D550B5537555B
:108D80000234A242EFD1F0BC704700BF024808B5E0
:108D9000FFF7B0FE014808BD0C200508502C01204B
:108DA000024808B5FFF7A6FE014808BD1C200508CB
:108DB000502C01200B481A220B4B00681B680A80BC
:108DC000C01801D109487047094B0822094910B55C
:108DD0001C68FFF7C3FF042207492046FFF7BEFFC8
:108DE000024810BD107AF01F187AF01F0C00012005
:108DF000147AF01F0E0001201E000120024808B561
:108E0000FFF778FE014808BD28200508502C0120F6
:108E100008B520B90448FFF76DFE044808BD0448B2
:108E2000FFF768FE014808BD34200508502C0120DA
:108E300058200508042301480B80704728000120B2
:108E4000074A084B084830B41468122503F114028D
:108E50000D80844214BF1846104630BC704700BFD6
:108E6000404002402C0001201010DDDD03460A22A4
:108E700001481A80704700BF540001200346202299
:108E800001481A80704700BF60000120034620227D
:108E900001481A80704700BF80000120034620224D
:108EA00001481A80704700BFA000012003460A2233
:108EB00001481A80704700BFC000012003464322CA
:108EC00001481A80704700BFCC00012003464322AE
:108ED00001481A80704700BF100101200346432259
:108EE00001481A80704700BF54010120D0F81C329D
:108EF00083B110B5D0F8184294F80002FF2807D0CB
:108F00009B68214694F801229847FF2384F8003299
:108F1000002010BD0020704701F00F01D0F8302272
:108F2000C1EBC10102EB810238B5D0F81832D0F89C
:108F30001C52B2F8104203F50371EA68D3F8040238
:108F4000C3F80C429047002038BD00BFD0F818325B
:108F50001BB10020C3F8140270470220704700BF05
:108F600008B5D0F814321BB11B68984700B908BD8A
:108F7000022008BD0B4B01E0013B10D00269002A22
:108F8000FADA0369074A43F00103036101E0013A99
:108F900005D0036913F00103F9D118467047032087
:108FA000704700BF400D030010B400240129C0F831
:108FB000104BD0F8104B44F40024C0F8104BD0F8FC
:108FC000104B44F01804C0F8104BD0F8104B44F08C
:108FD000C044C0F8104B05D14FF08021C0F8142BCD
:108FE000C0F8001B00205DF8044B70474AB2002A0D
:108FF00010B5D0F8304229DB1C2303FB014303F5F5
:10900000FC73D20F012019705A70987094F8B8232D
:10901000824219D084F8B8035A782068012A1A7855
:109020001BD000F5306303EB42131A68002A03DB00
:109030001A6822F080421A601A6842F400121A601C
:10904000B9B1002384F8B833002010BD01F07F01CE
:109050001C2303FB01433833D3E700F5106303EB14
:1090600042131A68002AE7DB1A6822F080421A606D
:10907000E2E704F56F72217CFFF796FFE1E700BF9E
:10908000026C03463AB11A6CD20608D500220120C0
:1090900083F83C207047426480F83C20F3E71A6C68
:1090A0004B494C4811401A6841F00201F0B4196470
:1090B0004168494D21F44031416041685C68214379
:1090C00041605168186921F48071D3F808C0DF68E5
:1090D000516054689E6A44EA0024AE425460546869
:1090E00024F040745460506840EA0C00506090686E
:1090F00020F400609060916841EA0701916059D0C6
:109100009068DC6A20F07060906091680E43966011
:10911000906820F040509060916821439160906881
:109120009D6920F002001C6A9060916841EA450147
:1091300091605168002C46D041F400614FF46040CA
:109140005160516821F46041516090FAA0F0596A71
:10915000B0FA80F054680139814021435160D06AEF
:109160000026DD6920F47000D3F830C0691E5F6905
:10917000D0623046D56A45EA0155D562956825F436
:1091800000759560946844EA4C249460946824F4D3
:1091900080649460916841EA872191605E641A6CF2
:1091A00022F0030242F001021A64002283F83C20FC
:1091B000F0BC7047916821F070619160916821F076
:1091C00040519160ABE721F400615160C7E700BFF7
:1091D000FDEEFFFF002301400100000F70B5444C7D
:1091E0000646D4F864310BB11D22DA8018460D21F1
:1091F00032F0ACFFD4F8640132F0C0FF94F86A3169
:10920000013B5BB2032B71DC3A4AD82101FB0323FB
:10921000D3F8A00602232021C4F85C0184F8583159
:109220003CF080FE40210A203CF0ECFEFF218A2029
:109230003CF0E8FE94F86831C0F3801200F0400082
:10924000012B84F86B2146D0022B2B4D3FD0D3B39A
:1092500094F86C311A2B07D1B5F89831A4F87061E5
:10926000A4F87221A4F87431B5F89811D4F85C010F
:109270003CF058FEB5F89811D4F85C013CF052FE71
:10928000D4F8640132F074FF022100203CF0BAFEF1
:10929000D4F8640132F072FFD4F85C0108213CF08C
:1092A00041FE94F87D2194F87E310120C2F1200224
:1092B00094F87C11C3F1100384F87F2184F8803185
:1092C00084F8781170BD2023A5F89831C0E71023E9
:1092D000A5F89831BCE726B91023074DA5F89831B9
:1092E000B6E7002814BF10232023F6E7002091E7FB
:1092F000182C0120EC050020000001202DE9F84386
:10930000884600294FD04718461E284C802507F173
:10931000FF39EFF3118185F31288D4F83821C9B2EF
:10932000D4F83C01D4F83831D4F83CC181F3118829
:10933000634594BF4FF400630023121A1344012BBA
:109340001AD1012032F0EAFCEFF3118185F3128883
:10935000D4F83821C9B2D4F83C01D4F83831D4F863
:109360003C7181F31188BB4294BF4FF4006300232A
:10937000121A1344012BE4D0EFF3118285F3128803
:10938000D4F83C31D2B216F8011F234483F884117B
:10939000D4F83C310133C3F30A03C4F83C3182F3FF
:1093A00011884E45B5D14046BDE8F883182C012000
:1093B000F8B5002390F84C5080F84C30CDB10F4EEA
:1093C00096F8802B032A16D1D6F8B87B00F1380422
:1093D00029462046FFF792FFD6F8B83B2D1A0444E1
:1093E000DB1B322B01D8002DF2D1B5FA85F04009F4
:1093F000F8BD0120FCE71846FAE700BF182C012051
:10940000002280F84D20D3E790F84C20531C0244F2
:10941000DBB280F84C3082F8381090F84D200AB159
:10942000132B00D9C4E77047F8B50B4E0D46144610
:1094300096F8803B032B0ED1D6F8B87B002C0ADDC2
:1094400021462846FFF75AFFD6F8B83B241A0544B0
:10945000DB1B322BF2D9F8BD182C01200128544B0C
:109460002DE9F0410D462DED028B82B05AD0514EC0
:109470009A68371F9B890092ADF80430DFF8548159
:109480009FED4D8AD8F8003A4C4C07EE903A4C4983
:10949000BDF80020F8EE677A3960B4FBF3F427EEEC
:1094A000888A8AB194420FD3002D6ED0012D0BD142
:1094B000DFF810C107EE902A19463046B8EE670A69
:1094C000C7F800C039F0EAFDBDF802308BB19C420C
:1094D0000FD3002D46D0012D0BD13A4A07EE903A1A
:1094E000D8F8001A06F12400B8EE670A3A6039F09D
:1094F000D5FDBDF8043083B39C422ED3DDB1012DE0
:109500002BD107EE903A2F4A06F14800D8F8001AFE
:10951000B8EE670A3A6002B0BDEC028BBDE8F041DC
:1095200039F0BCBDD3F80E20274E5B8A371F00925E
:10953000ADF80430A2E707EE903ADFED246A244A42
:109540000023F8EEE77A3A60B36486EEA77A77EE06
:10955000087A88EE277A86ED137A02B0BDEC028B8A
:10956000BDE8F08107EE903ADFED186A184A002353
:10957000F8EEE77A3A60736286EEA77A77EE087AB9
:1095800088EE277A86ED0A7AB3E707EE902ADFEDB8
:109590000F6A0F4A0023F8EEE77A3A60336086EEEE
:1095A000A77A77EE087A88EE277A86ED017A8BE73C
:1095B000182C0120AC060020BD37863520A10700FD
:1095C00091200000012000001C07002083F9223EAA
:1095D000E51F0000EC0500202DE9F047344C002287
:1095E00094F8D43394F8D513013384F89426DBB27D
:1095F000994284F8D4332DED048B82B009D094F8CD
:109600006C35002B41F02C8202B0BDEC048BBDE820
:10961000F087284F94EDF68A97F86C51B7F97401EA
:109620000F2D94F8E86384F8D42300F0D78694EDE6
:10963000F77A06F12602D4EDF87A04EB860327EEDA
:10964000087A04EB820267EE887A83EDFB7A06F1F2
:109650004603C2EDF57A0022D4EDF97A04EB8303D8
:10966000C4F8DC2327EE888AC4F8E02383EDF58A6A
:10967000C4F8E423731C0C22A7F8740103F01F0341
:1096800084F86C2584F8E833102D00F0CF8694F828
:109690006D850026B8F1060F00F21C86DFE818F091
:1096A000E407340645060C00D900EA06E10700BFCE
:1096B000EC050020182C0120EC4B102D1A4693EDE0
:1096C000037AD3ED057AB2EC011A27EE073A67EE7A
:1096D000A73A93ED077A92ED006AD3ED097A27EE67
:1096E000074AD3ED0B6A66EE062A93ED0D7A67EE14
:1096F000A74AD3ED0F7A26EEA65AD3ED021A67EEEB
:10970000075A93ED042A27EEA76AD3ED116AE1EE1A
:10971000012A93ED137AA1EEA13AD3ED157AE2EE88
:10972000023AD3ED060A66EEA66A93ED081A27EE12
:10973000077AD3ED0A1A67EEA77A93ED0C2AA0EE0A
:10974000A04AE1EE014AD3ED0E0AA1EEA15A93ED33
:10975000101AE2EE025AD3ED121A93ED142AA0EE7B
:10976000A06AE1EE016AE2EE027AA1EEA17AB1EE20
:10977000E22AF1EEC32AB1EEE33AF1EEC43A03ED88
:10978000202AB1EEE44A43ED1F2AF1EEC54A03ED6B
:109790001E3AB1EEE55A43ED1D3AF1EEC65A03ED1D
:1097A0001C4AB1EEE66A43ED1B4AF1EEC76A03EDCF
:1097B0001A5AB1EEE77A43ED195A03ED186A43EDF0
:1097C000176A03ED167A93ED177AD3ED197A67EEDF
:1097D000075AD3ED1B6A27EEA76A93ED1D7AD3EDE6
:1097E0001F7A66EEA66AD3ED164A27EE077A93ED46
:1097F000185A67EEA77AE4EEA45A93ED1A4AA5EE3A
:10980000056AD3ED1C4A93ED1E5AE4EE046AA4EEF9
:10981000A47AE5EE057AB1EEE55AF1EEC65AB1EE5C
:10982000E66AF1EEC76A03ED155AB1EEE77A43ED49
:10983000145A03ED136A43ED126A03ED117A01F035
:10984000568094F86D8508F101085FFA88F884F86D
:109850006D8594F8903A0F2B01F335800D2B04EBB6
:10986000830103F1010C01F2538003F16C0201F258
:10987000845104EB8202D1ED007A92EDF67AB4EED7
:10988000677AF1EE10FA05DDB5EEC07AF1EE10FA66
:1098900001F307800020DFED767A0CF16C0204EB17
:1098A0008202D2EDF66AF4EE476AF1EE10FA08DDB4
:1098B000F4EE676AF1EE10FA03DDF0EE667A5FFA15
:1098C0008CF0D91C03F1020C0E29624600F31481BE
:1098D00003F16E0204EB820292EDF67AB4EE667A40
:1098E000F1EE10FA08DDB4EE677AF1EE10FA03DD5E
:1098F000F0EE477A5FFA8CF003F16F0204EB82021C
:10990000D2EDF66AF4EE476AF1EE10FA07DDF4EEF6
:10991000676AF1EE10FA02DDF0EE667AC8B2591D00
:1099200003F1040C0E29624600F3E68003F1700295
:1099300004EB820292EDF67AB4EE667AF1EE10FA5A
:1099400008DDB4EE677AF1EE10FA03DDF0EE477A47
:109950005FFA8CF003F1710204EB8202D2EDF66A39
:10996000F4EE476AF1EE10FA07DDF4EE676AF1EE05
:1099700010FA02DDF0EE667AC8B2D91D03F1060CCA
:109980000E29624600F3B88003F1720204EB8202F2
:1099900092EDF67AB4EE667AF1EE10FA08DDB4EEE6
:1099A000677AF1EE10FA03DDF0EE477A5FFA8CF099
:1099B00003F1730204EB8202D2EDF66AF4EE476A19
:1099C000F1EE10FA07DDF4EE676AF1EE10FA02DD4F
:1099D000F0EE667AC8B203F1090103F1080C0E2912
:1099E000624600F3898003F1740204EB820292ED77
:1099F000F67AB4EE667AF1EE10FA08DDB4EE677A24
:109A0000F1EE10FA03DDF0EE477A5FFA8CF003F125
:109A1000750204EB8202D2EDF66AF4EE476AF1EECB
:109A200010FA07DDF4EE676AF1EE10FA02DDF0EEEF
:109A3000667AC8B203F10B0103F10A0C0E296246E3
:109A40005ADC03F1760204EB820292EDF67AB4EE70
:109A5000667AF1EE10FA0DDDB4EE677AF1EE10FAE7
:109A600008DDF0EE477A5FFA8CF003E0F40B00209B
:109A70000000000003F1770204EB8202D2EDF66AE7
:109A8000F4EE476AF1EE10FA07DDF4EE676AF1EEE4
:109A900010FA02DDF0EE667AC8B203F10C01012B78
:109AA0000A4629DC03F1780204EB820292EDF67A91
:109AB000B4EE667AF1EE10FA07DDB4EE677AF1EEF5
:109AC00010FA02DDF0EE477AC8B203F1790204EB36
:109AD0008202D2EDF66AF4EE476AF1EE10FA09DD81
:109AE000F4EE676AF1EE10FA04DD03F10D00F0EE1A
:109AF000667AC0B203F10E0202F16C0102F16B034F
:109B000004EB810C04EB83039CEDF67AD3EDF66A4B
:109B1000F4EE476AF1EE10FA07D5B4EE677AF1EE8B
:109B200010FA02DDF0EE477AD0B20F2A02F1010CF2
:109B300000F0958102F16D0304EB810104EB8303D6
:109B4000D1EDF66A93EDF67AF4EE476AF1EE10FA8B
:109B500005D5B4EE677AF1EE10FA00F3E2860E2A2C
:109B600002F1020100F07B8101F16C0201F16B0353
:109B700004EB820204EB830392EDF67AD3EDF66AEE
:109B8000F4EE476AF1EE10FA05D5B4EE677AF1EE1D
:109B900010FA00F3D1860F2901F1010C00F05F816A
:109BA0000CF16C020CF16B0304EB820204EB8303F7
:109BB00092EDF67AD3EDF66AF4EE476AF1EE10FA1A
:109BC00005D5B4EE677AF1EE10FA00F3BF86BCF16A
:109BD0000F0F0CF1010100F0428101F16C0201F163
:109BE0006B0304EB820204EB830392EDF67AD3ED70
:109BF000F66AF4EE476AF1EE10FA05D5B4EE677A2C
:109C0000F1EE10FA00F3AE860F2901F1010C00F01D
:109C100026810CF16C020CF16B0304EB820204EB65
:109C2000830392EDF67AD3EDF66AF4EE476AF1EE2D
:109C300010FA05D5B4EE677AF1EE10FA00F39C86BF
:109C4000BCF10F0F0CF1010100F0098101F16C0270
:109C500001F16B0304EB820204EB830392EDF67ACD
:109C6000D3EDF66AF4EE476AF1EE10FA05D5B4EEDC
:109C7000677AF1EE10FA00F393860F2901F1010CD7
:109C800000F0ED800CF16C020CF16B0304EB82022E
:109C900004EB830392EDF67AD3EDF66AF4EE476AAD
:109CA000F1EE10FA05D5B4EE677AF1EE10FA00F392
:109CB0008186BCF10F0F0CF1010100F0D08001F1A1
:109CC0006C0201F16B0304EB820204EB830392ED5F
:109CD000F67AD3EDF66AF4EE476AF1EE10FA05D59E
:109CE000B4EE677AF1EE10FA00F370860F2901F1F5
:109CF000010C00F0B4800CF16C020CF16B0304EB6E
:109D0000820204EB830392EDF67AD3EDF66AF4EE69
:109D1000476AF1EE10FA05D5B4EE677AF1EE10FA63
:109D200000F35E86BCF10F0F0CF1010100F097808B
:109D300001F16C0201F16B0304EB820204EB83037B
:109D400092EDF67AD3EDF66AF4EE476AF1EE10FA88
:109D500005D5B4EE677AF1EE10FA00F34D860F29BF
:109D600001F1010C7BD00CF16C020CF16B0304EBE4
:109D7000820204EB830392EDF67AD3EDF66AF4EEF9
:109D8000476AF1EE10FA05D5B4EE677AF1EE10FAF3
:109D900000F33C86BCF10F0F0CF101015FD001F123
:109DA0006C0201F16B0304EB820204EB830392ED7E
:109DB000F67AD3EDF66AF4EE476AF1EE10FA05D5BD
:109DC000B4EE677AF1EE10FA00F32C860F2901F158
:109DD000010C44D00CF16C020CF16B0304EB820219
:109DE00004EB830392EDF67AD3EDF66AF4EE476A5C
:109DF000F1EE10FA05D5B4EE677AF1EE10FA00F341
:109E00001B86BCF10F0F0CF1010128D001F16C028F
:109E100001F16B0304EB820204EB830392EDF67A0B
:109E2000D3EDF66AF4EE476AF1EE10FA05D5B4EE1A
:109E3000677AF1EE10FA00F30B860E290FD1F54B7D
:109E400093ED007A53ED016AB4EE667AF1EE10FA02
:109E500005DDB4EEE77AF1EE10FA00F3C8840028CD
:109E600000F0EE84431E012B40F3928500F16B025B
:109E700000F16A0304EB820204EB830392EDF67AAD
:109E8000821ED3EDF66AF4EEC76AF1EE10FA00F323
:109E9000B180012A00F0AE8000F16903C21E04EB1C
:109EA000830393EDF67AB4EEE67AF1EE10FA00F35E
:109EB0000685012A00F0038500F16803021F04EB08
:109EC0008303D3EDF66AF4EEC76AF1EE10FA00F3FD
:109ED0009180012A00F08E8000F16703421F04EB9D
:109EE000830393EDF67AB4EEE67AF1EE10FA00F31E
:109EF000E684012A00F0E38400F16603821F04EB8C
:109F00008303D3EDF66AF4EEC76AF1EE10FA71DC62
:109F1000012A6FD000F16503C21F04EB830393EDA8
:109F2000F67AB4EEE67AF1EE10FA00F3C884012A6C
:109F300000F0C58400F16403A0F1080204EB830380
:109F4000D3EDF66AF4EEC76AF1EE10FA52DC012A9C
:109F500050D000F16303A0F1090204EB830393EDF9
:109F6000F67AB4EEE67AF1EE10FA00F3A884012A4C
:109F700000F0A58400F16203A0F10A0204EB830360
:109F8000D3EDF66AF4EEC76AF1EE10FA32DC012A7C
:109F900030D000F16103A0F10B0204EB830393EDD9
:109FA000F67AB4EEE67AF1EE10FA00F38884012A2C
:109FB00000F0858400F16003A0F10C0204EB830340
:109FC000D3EDF66AF4EEC76AF1EE10FA12DC012A5C
:109FD00010D000F15F03A0F10D0204EB830393EDB9
