:020000040800F2
:10000000F0FF00109DBF0408C1E700082DF70308AA
:1000100039C0040839C0040839C0040800000000D1
:10002000000000000000000000000000CDE7000814
:10003000C9E7000800000000C5E7000881EE0308DA
:1000400039C0040839C0040839C0040839C004089C
:1000500039C0040839C0040871FD0308B1FE030863
:1000600071FE030831FE0308F1FD0308C9A8040866
:10007000B9A80408A9A8040899A8040885A8040830
:1000800071A804085DA8040839C0040839C0040830
:1000900039C0040839C0040839C00408B1FD030898
:1000A00025E6030895E6030839C00408A5E6030819
:1000B00085E6030875E6030865E6030879B00408D9
:1000C00081B004086DB0040875B0040839C0040894
:1000D00039C00408F9EF030839C004085DEF0308CC
:1000E00031FD030839C00408F123010815E60308AF
:1000F00035E6030839C0040845E6030849A80408A2
:1001000039C0040839C0040855E6030839C004089A
:1001100039C0040839C00408F9680308E568030811
:1001200035A8040821A804080DA80408F9A70408A4
:10013000E5A7040839C0040839C0040839C0040818
:1001400039C0040839C0040839C00408151301086F
:10015000D1A70408BDA70408A9A70408C1EE030895
:1001600061B0040869B0040839C0040839C0040843
:1001700039C0040839C0040839C0040839C004086B
:0801800039C0040839C004086D
:080188004CBB04000100000063
:1001900003010A002C7A0020B87A00200000000039
:1001A0003007000813020300C4340020C47A002082
:1001B000000000003A07000804008000D45C002022
:1001C000C87A00200000000000000000230010009A
:1001D000AC5C0020487B00200000000095A80108CE
:1001E0000D003400BC5B0020587B002000000000A4
:1001F0004D57030813000400085B00208C7B00208F
:100200000000000040070008F6210C000C5B0020F5
:10021000907B00200000000044070008F5317400C6
:10022000405A00209C7B0020000000009D3B0108FC
:100230000B3014002C5A0020107C0020000000001D
:100240005007000801010400285A0020247C0020E7
:10025000000000000000000000010400245A0020FB
:10026000287C002000000000640700080201030051
:10027000205A00202C7C002000000000D54D0308EF
:10028000FD012400E0590020307C00200000000027
:10029000D5C303080610180014650020547C002004
:1002A00000000000C18E0208FB010100D8590020A7
:1002B0006C7C00200000000035EB0308FC01090005
:1002C000A4580020707C00200000000045EB0308CB
:1002D00002000C00705800207C7C00200000000010
:1002E000000000000A603600F43D0020887C0020F9
:1002F000000000006807000834001000605700206C
:10030000C07C002000000000958E02081102080049
:1003100038570020D07C0020000000009E07000815
:100320001212040030570020D87C0020000000008A
:10033000A607000818202C0004570020DC7C0020B1
:100340000000000091D4030812200D00DC560020AC
:10035000087D002000000000AA070008F901040041
:10036000E44B0020187D0020000000004DC403086D
:1003700018020200E04B00201C7D0020000000005D
:100380000000000017020B00D44B0020207D00204D
:1003900000000000BDC90308FA010200684B0020FC
:1003A0002C7D00200000000059CB0308020203004E
:1003B000E8350020307D0020000000000000000033
:1003C0000C020300D4350020347D00200000000022
:1003D00065CA030811000C00F43F0020387D00209E
:1003E00000000000154E0308FE010900FC64002017
:1003F000447D00200000000045CA03081B020800DD
:1004000054D50020ACE700200000000075CA0308A6
:100410000120080058E60020B4E70020000000009A
:10042000B807000819000500D8E60020BCE7002046
:1004300000000000C007000837001E00B0E60020E2
:10044000C4E7002000000000C60700081E000500E9
:1004500034D30020E4E7002000000000E407000897
:100460001B00F40098CF0020ECE700200000000003
:10047000454001080E02020030D90020E0E80020CB
:1004800000000000EA0700082F00110060E70020CC
:10049000E4E8002000000000EC070008051006005A
:1004A000A4E70020F8E8002000000000FE07000894
:1004B00026000E0010E9002000E9002000000000E6
:1004C000892701081F201C00ACD2002044E900202D
:1004D00000000000040800080502040068D50020A0
:1004E00060E900200000000020080008281010002B
:1004F00014F4002024F500200000000081A8010869
:1005000004120200A0F4002034F5002000000000D6
:10051000240800080F0201009CF4002038F5002098
:100520000000000026080008140004000CF400205D
:100530003CF5002000000000280800080E80620141
:100540000CEC002040F5002000000000698E02083D
:10055000090201000CF10020A4F6002000000000B8
:100560002C0800080C20B400C6ED0020A8F60020DE
:1005700000000000A54D03080102050088EB0020E3
:100580005CF7002000000000DD9B01080002050070
:1005900038EF002064F70020000000000000000099
:1005A000F821060036FD0020400201200000000076
:1005B0002E080008031233000CFC0020E601012085
:1005C000000000003408000825009600A0FC002070
:1005D0004001012000000000000000001500700034
:1005E00078FF0020580001200000000000000000FB
:1005F0002A00600040FC0020F8FF002000000000FE
:10060000418E02082C001000E8FF0020D6010120D6
:1006100000000000891A02082B00240050FE002070
:1006200019020120000000005D1A0208291078005C
:10063000F4FA0020C80001200000000000000000C3
:1006400003000100580501200C06012000000000F5
:1006500000000000101003003005012010060120EA
:1006600000000000680800081A000E009004012035
:1006700014060120000000006C08000816000800A5
:100680002C0D01200C0E0120000000007A0800084B
:1006900007020200E40D0120340E012000000000DA
:1006A0008208000806020C00BC0D0120380E012053
:1006B000000000004DCF030808120900400D012082
:1006C000440E0120000000000DCA0308F7010600D7
:1006D000360D0120500E01200000000084080008A3
:1006E0000A020A006C070120580E012000000000D9
:1006F0008A0800081A023C00680F0120EC1C012047
:1007000000000000A5D1030827000400583C012088
:10071000281D0120000000009408000810020100BC
:10072000903C01208C3C012000000000980800084B
:10073000040101006C160000000000000000000031
:100740000020441000000000010000000202000030
:100750002B21231E64010100000001000A01290071
:10076000230A00009001000000300100000000009A
:10077000730073006900000000000000000000002A
:10078000000000000000020000019E077D00FA004A
:1007900096005802B80BB80BB80B2000C409000033
:1007A000000001010101FFFFFFFF00000001000048
:1007B000054C555834000000E8036400040A0001A9
:1007C00000002801000020003200C800D007960079
:1007D000140032002800B004400600055000140048
:1007E0000F000801000001000000000000000000F0
:1007F00000000000000000000000000000002000D9
:1008000001010000000000000001000000050000E0
:1008100001020300000000000000000000000000D2
:100820000000000011180000030000462E00010126
:10083000F4011400000000000000000000000000AF
:1008400000000000000000000000000000000000A8
:100850000000000000000000000000000000000098
:100860000000000000000100000500007E05EA0510
:10087000B4050300E803D0070000C4090700B40171
:100880002828023C24010000000000004A01B400B6
:09089000D6010000200300000065
:100899000403090412010002EF02014083045632E5
:1008A90000020102030100001201000202020040DD
:1008B90083044057000201020301000009022000DD
:1008C900010104C0320904000002080650050705A9
:1008D900810240000007050102400000090264008E
:1008E900030100C0320904000001030000000921CE
:1008F900110100012226000705830308000A080BDD
:1009090001020202010009040100010202010005BD
:100919002400100105240100020424020205240612
:100929000102070582030800FF09040200020A0008
:100939000000070501024000000705810240000090
:1009490009024300020100C0320904000001020249
:1009590001000524001001052401000104240202FC
:100969000524060001070582030800FF09040100A8
:10097900020A000000070501024000000705810284
:1009890040000000FF00000000FFFF000000000021
:10099900AA55050100000800FFFFFFFF0101000043
:1009A90005010905A101A100050109300931093233
:1009B900093309350934094009381581257F750836
:1009C90095088102C0C0000009022200010100E06F
:1009D900320904000001030102000921110100018B
:1009E9002226000705830308000A000085870008FE
:1009F900818700087D870008718700086D870008D6
:100A0900798700087587000800600240106002407D
:100A19000000000000000000000B000000000000C2
:100A29000000000000000000006002402860024051
:100A39000100000000000000060C0000000000009A
:100A49000000000000000000006002404060024019
:100A59000200000000000000100D0000000000006E
:100A690000000000000000000060024058600240E1
:100A79000300000000000000160E00000000000046
:100A890000000000000000000060024070600240A9
:100A99000400000000000000200F0000000000001A
:100AA9000000000000000000006002408860024071
:100AB90005000000000000002610000000000000F2
:100AC900000000000000000000600240A060024039
:100AD90006000000000000003011000000000000C6
:100AE900000000000000000000600240B860024001
:100AF9000700000000000000362F00000000000081
:100B09000000000000000000006402401064024080
:100B19000000000000000000003800000000000094
:100B29000000000000000000006402402864024048
:100B3900010000000000000006390000000000006C
:100B49000000000000000000006402404064024010
:100B59000200000000000000103A00000000000040
:100B690000000000000000000064024058640240D8
:100B79000300000000000000163B00000000000018
:100B890000000000000000000064024070640240A0
:100B99000400000000000000203C000000000000EC
:100BA9000000000000000000006402408864024068
:100BB90005000000000000002644000000000000BD
:100BC900000000000000000000640240A064024030
:100BD9000600000000000000304500000000000091
:100BE900000000000000000000640240B8640240F8
:100BF9000700000000000000364600000000000069
:100C090000000000000000000000000001020304D1
:100C19000102030406070809C1F1000895F9000853
:100C29000DF5000881880008CD8A00089188000820
:100C3900AD880008598800084988000800000000AC
:100C4900000000002D202D2D202D2D2D2D202D2DA6
:100C59002D2D000000000000000000000000000031
:100C6900000000AA550B010000AA5507010000AABF
:100C7900550902000000000001000000C012AA5539
:100C890003009F0001000000000001FFFF010000B8
:100C9900FF1FFF1F480400200400000020E9002076
:100CA900000000000000803F0000803F00000000BD
:100CB900000000000000000000000000000000002B
:100CC900000000000000000000000000000000001B
:100CD90001000000FFFFFFFF000200051002700B7A
:100CE900E0010000FFFFFFFF01010100FD9D010878
:100CF90000000000D005002008520508000000008F
:100D0900000000000000000000000000BC390508D8
:100D1900000000000000000065060020040000003B
:100D2900445005080D000000E1C20108402A0020D6
:100D390000000000B04605080D00000009C30108C5
:100D4900342A002000000000884805080800000037
:100D590000000000282A0020040000001C470508A4
:100D69000D000000B19E01081C2A002000000000AF
:100D7900E047050803000000A1C50108102A00206A
:100D8900000000001852050803000000A1C5010871
:100D9900042A00200000000010420508010000009C
:100DA900000000000000000000000000000000003A
:100DB9000E0000000000000000000000000000001C
:100DC90008520508000000000000000000000000B3
:100DD90000000000BC390508000000000000000008
:100DE9006506002004000000F04F0508030000001C
:100DF9005DAC0108F8290020080000001C4705081F
:100E09000D000000B19E01081C2A0020000000000E
:100E1900E047050803000000A1C50108102A0020C9
:100E2900000000001852050803000000A1C50108D0
:100E3900042A0020000000001042050801000000FB
:100E49000000000000000000000000000000000099
:100E59000E0000000000000000000000000000007B
:100E690020520508000000000000000000000000FA
:100E790000000000BC390508000000000000000067
:100E89006506002004000000F84F05080300000073
:100E9900A1C501084C2A00200000000010420508E5
:100EA9000100000000000000000000000000000038
:100EB900000000000E00000000000000000000001B
:100EC9000000000020700020702D72000800000052
:100ED9000001010100000000425702000000010664
:100EE9004257020000000106000000000000000057
:100EF900B4250020012D202D2D202D2D2D2D202D27
:100F09002D2D00000000000000000000000000007E
:100F190000000000FFFFFFFFFA00000001000000D1
:100F290001000000AAEE00200000F4010100000009
:100F3900A8EE00200000F40101000000A6EE002048
:100F49000000F40101000000A4EE00200000F401FB
:100F590001000000A2EE00200000F40101000000E1
:100F6900A0EE00200000F401010000009EEE002028
:100F79000000F401010000008441050800000000A0
:100F89000000000000000000000000009C4105086E
:100F99000000000000000000000000000000000048
:100FA900BC4105080800000000000000DC06002024
:100FB90000000000C841050808000000000000000A
:100FC900D006002000000000D441050808000000F8
:100FD90000000000C4060020000000009C4C050829
:100FE9000800000000000000B80600200000000012
:100FF900E04105080800000000000000AC060020E0
:1010090000000000EC410508080000000000000095
:10101900A006002000000000F841050808000000B3
:1010290000000000940600200000000004420508AA
:101039000200000095C7010802000000000000003E
:101049001042050801000000000000000000000037
:1010590000000000000000000E0000000000000079
:10106900000000000000000001A60108C1A5010858
:10107900E80600209CEE0020053201009AEE0020CF
:10108900E803D0070100000098EE0020E803D0072C
:101099000100000096EE0020E803D00701000000DF
:1010A90094EE00201E00B80B0100000092EE002013
:1010B9001E00F4010100000090EE002014006400FD
:1010C900010000008EEE00200000C80001000000B1
:1010D90018420508204205083C42050800000000A6
:1010E9000000000000000000000000009C4105080D
:1010F90000000000000000000000000000000000E7
:10110900083C050808000000000000003408002021
:10111900000000005042050808000000000000001F
:1011290028080020000000006442050808000000AB
:10113900000000001C08002000000000784205089B
:101149000800000000000000100800200000000056
:101159008C42050808000000000000000408002077
:10116900000000009C420508080000000000000083
:10117900F807002000000000AC4205080800000044
:1011890000000000EC07002000000000BC42050838
:101199000700000000000000E40700200000000034
:1011A900CC42050803000000A1C50108D8070020AA
:1011B90000000000044205080200000095C701086C
:1011C90002000000000000001042050801000000B4
:1011D9000000000000000000000000000000000006
:1011E9000E000000000000000000000000000000E8
:1011F900FC4205080000000000000000000000009B
:10120900000000006241050804000000B9C001089F
:101219000000000000000000104205080100000065
:1012290000000000000000000000000000000000B5
:101239000E00000000000000000000000000000097
:10124900745D00200100C40900000000725D0020E7
:101259000100C40900000000705D00200100C409FC
:10126900000000006E5D00200100C40900000000BC
:101279006A5D00200100C409000000006C5D0020C7
:101289000100C40900000000685D00200100C409D4
:1012990000000000665D00200100C4090000000094
:1012A9009CEB00200000FFFF0A0000009AEB0020E1
:1012B9000100C8000100000098EB002032003075E1
:1012C9003200000096EB0020055A050093EB002040
:1012D90000FF010095EB00200100000040080020FC
:1012E90091EB002002000000F8F3040892EB0020C3
:1012F90000FF010094EB00200100000040080020DD
:1013090090EB002002000000F8F3040886EB0020AF
:1013190080C1803E0500000084EB002080C1803E32
:101329000500000082EB002080C1803E050000001E
:1013390080EB002080C1803E050000007FEB00208B
:1013490000FF01007EEB00200A3201007DEB002046
:1013590004000000C4FA04087CEB0020020000002D
:10136900D8FA04087DA5010839A501084808002014
:10137900B0EE0020EE02CA0801000000AEEE002027
:1013890000C8010064000000ADEE002000C80100A3
:1013990064000000ACEE002002000000E4FA04083A
:1013A900000000000000000060090020707A0020A1
:1013B9009CFF2C0100000000580400200A000000D6
:1013C900F0FA040872EB0020E0150C170000000089
:1013D9005A0400200800000040EB040859040020CA
:1013E9000500000030FC040874EB00200200000036
:1013F90008FB0408BCEE00200100FF7F010000008B
:10140900BBEE00200200000014FB040880ED002060
:101419000000F401010000007EED00200000F4014D
:10142900010000007CED00200000F4010100000033
:101439007AED00200000F4010100000090ED002089
:101449000100803E050000008CED00200000803E78
:10145900640000008AED00200000803E6400000066
:1014690088ED00200000803E640000008EED002021
:10147900030000020100000086ED0020C800E80317
:101489000100000084ED00201E00E80301000000B7
:1014990082ED00200000E8030100000078ED002043
:1014A9000000803E0100000076ED00200000803E33
:1014B9000100000074ED00200000803E01000000E2
:1014C90072ED00200000803E0100000070ED002058
:1014D9000000803E010000006EED00200000803E0B
:1014E90001000000C1ED002019640100C5ED0020D4
:1014F90000640100C4ED002000640100C3ED002078
:101509000A320100C2ED00200300000024FB040898
:10151900BEED0020E803D0070A000000BCED002062
:1015290000FA01000A000000BBED002000FA0100EA
:101539000A000000BAED002000FA01000A000000CC
:10154900A9ED002000640100A8ED0020006401005D
:10155900B0ED0020006401000A000000AFED00209A
:10156900006401000A000000AEED002000640100E3
:101579000A000000B3ED0020006401000A00000029
:10158900B2ED0020006401000A000000B1ED002066
:10159900006401000A000000ADED002000FF010019
:1015A9000A000000ACED002000FF01000A00000065
:1015B900ABED002000FF01000A000000B9ED00209A
:1015C900005F01000A000000B8ED0020005F010083
:1015D9000A000000B7ED0020005F01000A000000CA
:1015E900B6ED0020005F01000A000000B5ED002003
:1015F90019AF01000A000000B4ED002019AF010085
:101609000A000000FAEB0020000A0100F9EB0020B3
:10161900000A0100F8EB0020000A01000AEC002092
:1016290000FA010009EC002000FA010008EC002092
:1016390000FA010006EC00200000F401010000009E
:1016490004EC00200000F4010100000002EC00207D
:101659000000F4010100000000EC00200000F4018A
:1016690001000000FEEB00200000F4010100000071
:10167900FCEB00200000F40101000000A6ED0020B1
:10168900FF080100A5ED002001640100A4ED002080
:1016990000640100A3ED00200100000034FB0408F0
:1016A900A2ED002000C80100A0ED00200000D00735
:1016B900010000009FED002000C801009EED002000
:1016C90000C801009DED002000C801009CED00202C
:1016D90000C801009BED002000FA01000A0000008B
:1016E90098ED002000FA01000A00000095ED0020A5
:1016F90000FA01000A0000009AED002000FA01003A
:101709000A00000097ED002000FA01000A0000001D
:1017190094ED002000FA01000A00000099ED002074
:1017290000FA01000A00000096ED002000FA01000D
:101739000A00000093ED002000FA01000A000000F1
:101749007CEE0020010A010084EE002000FA01006D
:1017590082EE00200000E803050000008DEE002065
:1017690000C801008CEE002000C801008BEE0020AB
:1017790000C801008AEE002000C8010089EE00209F
:1017890000C8010088EE002000C8010087EE002093
:1017990000C8010086EE002000C8010085EE002087
:1017A90000C8010080EE002000FA01007EEE002052
:1017B9000000E803050000007BEE00200064010042
:1017C9004043050800000000000000000000000080
:1017D90000000000D84B05080900000000000000C7
:1017E900040A002004000000F04B0508090000006D
:1017F90000000000F809002004000000E84D050879
:101809000900000000000000EC09002004000000AD
:101819006C3B05080900000000000000E0090020F9
:101829000400000050430508090000000000000002
:10183900D4090020040000005843050809000000ED
:1018490000000000C80900200400000060430508EA
:101859000900000000000000BC090020040000008D
:10186900684305080900000000000000B0090020D5
:1018790004000000104205080100000000000000FB
:101889000000000000000000000000000E00000041
:101899000000000000000000000000008C45050861
:1018A900000000000000000000000000000000002F
:1018B900F48505080700000000000000340A002034
:1018C900000000009C450508080000000000000019
:1018D900280A002000000000A845050808000000AB
:1018E900000000001C0A002000000000B0450508A7
:1018F9000800000000000000100A0020000000009D
:10190900044205080200000095C701080100000013
:10191900000000001042050801000000000000005E
:101929000000000000000000000000000E000000A0
:10193900000000000000000000000000C04505088C
:10194900000000000000000000000000000000008E
:10195900D04505080D00000000000000700A0020B5
:1019690000000000D84505080D0000000000000037
:10197900640A002000000000E04505080700000097
:10198900000000005C0A002000000000E84505088E
:101999000D00000000000000500A002000000000B7
:1019A900F04505080D00000000000000440A002071
:1019B90000000000F84505080700000000000000CD
:1019C9003C0A002000000000044205080200000053
:1019D90095C7010801000000000000001042050839
:1019E90001000000000000000000000000000000ED
:1019F900000000000E0000000000000000000000D0
:101A0900000000000046050800000000000000007A
:101A19000000000000000000F48505080C0000002B
:101A2900000000009EEB002000000000144605089D
:101A39000C00000000000000A0EB002000000000E6
:101A4900244605080C00000000000000D6EB002029
:101A590000000000344605080C00000000000000EA
:101A6900CAEB002000000000484605080C000000F1
:101A790000000000A2EB0020000000005446050809
:101A89000C00000000000000A4EB00200000000092
:101A99005C4605080C00000000000000A6EB0020D1
:101AA90000000000704605080C000000000000005E
:101AB900A8EB002000000000784605080C00000093
:101AC90000000000AAEB0020000000008046050885
:101AD9000C00000000000000E8EB002000000000FE
:101AE900984605080C00000000000000ACEB00203F
:101AF90000000000A44605080C00000000000000DA
:101B0900AEEB002000000000484805080C0000006A
:101B190000000000B0EB002000000000AC46050802
:101B29000C00000000000000B2EB002000000000E3
:101B3900B84605080C00000000000000B4EB0020C6
:101B490000000000C44605080C0000000000000069
:101B5900B6EB002000000000D04605080C0000008C
:101B690000000000B8EB002000000000DC4605087A
:101B79000C00000000000000BAEB0020000000008B
:101B8900E84605080C00000000000000CEEB00202C
:101B990000000000F04605080C00000000000000ED
:101BA900CCEB002000000000F84605080C000000FE
:101BB90000000000DAEB00200000000004470508DF
:101BC9000C00000000000000DCEB00200000000019
:101BD900104705080C00000000000000E2EB00209F
:101BE900000000000C3D05080C000000000000008A
:101BF900BCEB0020000000001C4705080C00000099
:101C090000000000C4EB0020000000002447050884
:101C19000C00000000000000BEEB002000000000E6
:101C2900304705080C00000000000000C0EB002050
:101C3900000000003C4705080C00000000000000FF
:101C4900C2EB002000000000444705080C0000001A
:101C590000000000C6EB0020000000005047050806
:101C69000C00000000000000D0EB00200000000084
:101C7900584705080C00000000000000C8EB0020D0
:101C890000000000644705080C0000000000000087
:101C9900D8EB002000000000704705080C00000088
:101CA90000000000D2EB0020000000007847050882
:101CB9000C00000000000000D4EB00200000000030
:101CC900804705080C00000000000000DEEB002042
:101CD90000000000884705080C0000000000000013
:101CE900E0EB002000000000904705080C00000010
:101CF90000000000F0EB0020000000001042050881
:101D090001000000000000000000000000000000C9
:101D1900000000000E0000000000000000000000AC
:101D290000000000984705080000000000000000BE
:101D39000000000000000000A44705080D00000095
:101D490000000000C80A002000000000AC47050898
:101D59000D00000000000000BC0A00200000000087
:101D6900B44705080700000000000000B40A00207D
:101D790000000000C047050807000000000000003F
:101D8900AC0A002000000000CC470508090000004B
:101D990000000000A00A002000000000D847050844
:101DA9000900000000000000940A00200000000063
:101DB900E44705080900000000000000880A002027
:101DC90000000000F44705080900000000000000B9
:101DD9007C0A0020000000000442050802000000FF
:101DE90095C7010801000000000000001042050825
:101DF90001000000000000000000000000000000D9
:101E0900000000000E0000000000000000000000BB
:101E1900000000000848050800000000000000005C
:101E290000000000000000009C41050800000000BF
:101E3900000000000000000000000000184805082C
:101E49000D00000000000000040B0020000000004D
:101E5900244805080B00000000000000F80A0020D3
:101E690000000000304805080B00000000000000D9
:101E7900EC0A0020000000004048050808000000A6
:101E890000000000E00A0020000000005448050896
:101E990003000000A1C50108D40A002000000000C9
:101EA900044205080200000095C70108020000006D
:101EB90000000000104205080100000000000000B9
:101EC9000000000000000000000000000E000000FB
:101ED9000000000000000000000000006048050844
:101EE90000000000000000000000000000000000E9
:101EF900704805080500000000000000F7EB00200D
:101F090000000000044205080200000095C701080E
:101F19000100000000000000104205080100000057
:101F290000000000000000000000000000000000A8
:101F39000E0000000000000000000000000000008A
:101F490078480508000000000000000000000000BB
:101F590000000000BC390508000000000000000076
:101F6900B403002004000000844805080D000000A7
:101F79001DC10108580B002000000000445005084D
:101F89000D000000B59D01084C0B00200000000069
:101F9900B04605080D000000999D0108400B00207E
:101FA9000000000088480508080000000000000043
:101FB900340B0020040000001C4705080D00000038
:101FC900E39C0108280B0020000000009048050848
:101FD90009000000000000001C0B002004000000A4
:101FE900E047050803000000A1C50108100B002007
:101FF9000000000010420508010000000000000078
:102009000000000000000000000000000E000000B9
:1020190000000000000000000000000098480508CA
:1020290000000000000000000000000000000000A7
:10203900A84805080D00000000000000700B0020F2
:1020490000000000B04805080A0000000000000078
:10205900C5F0002000000000BC4805080A00000087
:1020690000000000CDF0002000000000C448050871
:102079000A00000000000000D5F000200000000068
:10208900CC4805080800000000000000640B00208F
:1020990000000000D44805080400000041C70108F9
:1020A90000000000000000000442050802000000D2
:1020B90095C7010801000000000000001042050852
:1020C9000100000000000000000000000000000006
:1020D900000000000E0000000000000000000000E9
:1020E90000000000E04805080000000000000000B2
:1020F9000000000000000000F44805080800000086
:1021090000000000480C00200000000004490508F8
:1021190008000000000000003C0C00200000000046
:10212900144905080800000000000000300C0020D8
:102139000000000024490508080000000000000014
:10214900240C0020000000003449050808000000A4
:1021590000000000180C0020000000004449050898
:1021690008000000000000000C0C00200000000026
:10217900544905080800000000000000000C002078
:102189000000000060490508080000000000000088
:10219900F40B002000000000704905080800000049
:1021A90000000000E80B002000000000804905083D
:1021B9000800000000000000DC0B00200000000007
:1021C900884905080800000000000000D00B002025
:1021D9000000000090490508080000000000000008
:1021E900C40B002000000000984905080800000001
:1021F90000000000B80B002000000000A0490508FD
:102209000800000000000000AC0B002000000000E6
:10221900B04905080800000000000000A00B0020DC
:1022290000000000BC49050808000000000000008B
:10223900940B002000000000C849050808000000B0
:1022490000000000880B002000000000D4490508A8
:1022590008000000000000007C0B002000000000C6
:10226900044205080200000095C7010801000000AA
:1022790000000000104205080100000000000000F5
:102289000000000000000000000000000E00000037
:10229900000000000000000000000000E0490508FF
:1022A90000000000000000003706002000000000C8
:1022B900EC4905080B00000000000000680D002033
:1022C90000000000FC4905080B00000000000000A8
:1022D9005C0D002000000000084A05080B00000002
:1022E90000000000500D002000000000184A0508F9
:1022F9000B00000000000000440D00200000000059
:10230900244A05080B00000000000000380D0020D9
:1023190000000000384A05080B000000000000001A
:102329002C0D002000000000484A05080B000000A1
:1023390000000000200D002000000000544A05089C
:102349000B00000000000000140D00200000000038
:10235900604A05080B00000000000000080D00207D
:10236900000000006C4A05080B0000000000000096
:10237900FC0C002000000000784A05080B00000052
:1023890000000000F00C002000000000844A05084D
:102399000B00000000000000E40C00200000000019
:1023A900904A05080B00000000000000D80C00202E
:1023B900000000009C4A05080B0000000000000016
:1023C900CC0C002000000000A84A05080B00000002
:1023D90000000000C00C002000000000B44A0508FD
:1023E9000700000000000000B80C002000000000F9
:1023F900BC4A05080700000000000000B00C0020DE
:1024090000000000C84A05080B0000000000000099
:10241900A40C002000000000D44A05080B000000AD
:1024290000000000980C002000000000E04A0508A8
:102439000B000000000000008C0C002000000000D0
:10244900EC4A05080800000000000000800C00208C
:1024590000000000FC4A05080D0000000000000013
:10246900740C0020000000000C4B05080700000058
:10247900000000006C0C0020000000001C4B050847
:102489000700000000000000640C002000000000AC
:102499002C4B050807000000000000005C0C002020
:1024A900000000003C4B0508070000000000000088
:1024B900540C00200000000004420508020000003E
:1024C90095C701080100000000000000104205083E
:1024D90001000000000000000000000000000000F2
:1024E900000000000E0000000000000000000000D5
:1024F90000000000504B050800000000000000002B
:102509000000000000000000644B050808000000FE
:1025190000000000E00D002000000000744B0508D9
:102529000800000000000000D40D00200000000099
:10253900844B05080800000000000000C80D0020B9
:1025490000000000944B050808000000000000008E
:10255900BC0D002000000000A44B05080800000085
:1025690000000000B00D002000000000B84B050875
:102579000800000000000000A40D00200000000079
:10258900C84B050807000000000000009C0D002052
:1025990000000000E04B05080700000000000000F3
:1025A900940D002000000000F84B0508070000000A
:1025B900000000008C0D0020000000000C4C0508F4
:1025C9000700000000000000840D0020000000004A
:1025D9001C4C050807000000000000007C0D0020CD
:1025E90000000000304C0508070000000000000052
:1025F900740D0020000000000442050802000000DC
:1026090095C70108010000000000000010420508FC
:1026190001000000000000000000000000000000B0
:10262900000000000E000000000000000000000093
:1026390000000000404C05080000000000000000F8
:102649003406002000000000504C05080B00000073
:1026590000000000A40E0020000000005C4C0508EA
:102669000B00000000000000980E00200000000090
:10267900684C05080B000000000000008C0E0020CB
:1026890000000000744C05080B0000000000000069
:10269900800E002000000000804C05080B0000009F
:1026A90000000000740E0020000000008C4C05089A
:1026B9000B00000000000000680E00200000000070
:1026C900984C05080B000000000000005C0E00207B
:1026D90000000000A44C05080B00000000000000E9
:1026E900500E002000000000B04C05080B0000004F
:1026F90000000000440E002000000000BC4C05084A
:1027090007000000000000003C0E0020000000004F
:10271900C84C05080700000000000000340E002026
:1027290000000000D44C050807000000000000006C
:102739002C0E002000000000E44C050807000000F2
:1027490000000000240E002000000000F44C0508E1
:102759000800000000000000180E00200000000022
:10276900FC4C05080700000000000000100E0020C6
:1027790000000000084D05080D00000000000000E1
:10278900040E002000000000184D05080700000095
:1027990000000000FC0D002000000000244D050889
:1027A9000700000000000000F40D002000000000F8
:1027B900344D05080600000000000000EC0D002063
:1027C90000000000044205080200000095C7010846
:1027D900010000000000000010420508010000008F
:1027E90000000000000000000000000000000000E0
:1027F9000E000000000000000000000000000000C2
:10280900444D0508000000000000000034060020C7
:10281900000000005C4D05080700000000000000F2
:10282900280F002000000000684D0508080000007E
:10283900000000001C0F002000000000744D050876
:102849000700000000000000140F00200000000035
:10285900804D050807000000000000000C0F002053
:1028690000000000884D0508070000000000000076
:10287900040F002000000000904D0508070000002B
:1028890000000000FC0E002000000000784C050844
:102899000700000000000000F40E00200000000006
:1028A900844C05080700000000000000EC0E002021
:1028B90000000000904C050807000000000000001F
:1028C900E40E002000000000984D050807000000F4
:1028D90000000000DC0E002000000000A04D0508EB
:1028E9000700000000000000D40E002000000000D6
:1028F900A84D05080700000000000000CC0E0020CC
:1029090000000000B04D05080800000000000000AC
:10291900C00E002000000000C04D0508070000009F
:1029290000000000B80E002000000000D04D05088E
:102939000700000000000000B00E002000000000A9
:10294900044205080200000095C7010801000000C3
:10295900000000001042050801000000000000000E
:102969000000000000000000000000000E00000050
:10297900000000000000000000000000000000004E
:1029890045A10108300F0020F5EB00202C000000C4
:102999003CFB0408F4EB002000C80100F2EB002026
:1029A900E803D007010000004C555846344F534402
:1029B900000000008FEB0020000301008EEB0020D7
:1029C9000003010085A0010855A001080C10002092
:1029D90011A00108C59F0108AC100020CDA0010875
:1029E900B5A0010874110020299F0108D59E01088E
:1029F9009414002071A6010841A60108841500203D
:102A090059A1010831C301084C160020219D010874
:102A190000000000B01600201DC70108D5A6010856
:102A29008C170020D9A201085DA2010854180020C2
:102A390011A401085DA401080C1A0020A7ED0020CB
:102A490001060100E9A1010881A10108641C002017
:102A590055A3010861C30108A41D002091A4010820
:102A690021C40108701F002092ED0020010301001C
:102A7900D84D05080000000000000000000000001B
:102A890000000000E44D05080800000000000000F7
:102A99000C21002000000000EC4D05080700000093
:102AA900000000000421002000000000FC4D050882
:102AB9000D00000000000000F820002000000000C8
:102AC900084E050803000000A1C50108EC200020FC
:102AD90000000000044205080200000095C7010833
:102AE900010000000000000010420508010000007C
:102AF90000000000000000000000000000000000CD
:102B09000E000000000000000000000000000000AE
:102B1900104E050800000000000000000000000041
:102B290000000000204E05080A0000000000000017
:102B39008438050800000000284E05080A00000036
:102B490000000000E640050800000000304E0508BE
:102B59000A00000000000000B2EE002000000000A2
:102B6900384E05080A000000000000001821002066
:102B790000000000104205080100000000000000EC
:102B89000000000000000000000000000E0000002E
:102B9900000000000000000000000000404E050891
:102BA900000000000000000000000000000000001C
:102BB9004C4E050803000000A1C501084C21002066
:102BC90000000000584E050803000000A1C50108D7
:102BD9004021002000000000604E050803000000AD
:102BE900A1C501083421002000000000684E050835
:102BF90005000000000000008DEB0020000000002F
:102C0900704E050807000000000000002C2100207C
:102C1900000000007C4E05080700000000000000CD
:102C290024210020000000000442050802000000E1
:102C390095C70108010000000000000010420508C6
:102C4900010000000000000000000000000000007A
:102C5900000000000E00000000000000000000005D
:102C690000000000884E0508000000000000000078
:102C790000000000000000009C4E05080300000051
:102C8900A1C501088821002000000000A84E050800
:102C990003000000A1C501085C0400200000000039
:102CA900B04E050803000000A1C501087C210020E1
:102CB90000000000B84E050803000000A1C5010886
:102CC9007021002000000000D83B05080300000027
:102CD900A1C5010864210020000000001C47050867
:102CE90003000000A1C501085821002000000000D0
:102CF900044205080200000095C701080100000010
:102D0900000000001042050801000000000000005A
:102D19000000000000000000000000000E0000009C
:102D2900000000000000000000000000C44E05087B
:102D3900000000000000000000000000000000008A
:102D4900D44E050807000000A9C40108D8210020B5
:102D5900000000004047050803000000A1C5010864
:102D6900CC21002000000000E04E0508030000000F
:102D7900A1C50108C021002000000000E84E050897
:102D890003000000A1C50108B421002000000000D3
:102D9900F04E0508070000008DC40108AC21002091
:102DA900000000008C3B050803000000A1C50108D4
:102DB900A021002000000000FC4E050803000000CF
:102DC900A1C5010894210020000000000442050863
:102DD9000200000095C70108010000000000000082
:102DE900104205080100000000000000000000007A
:102DF90000000000000000000E00000000000000BC
:102E0900000000000000000015A10108E5A001086C
:102E1900E0210020A1A60108000000008022002076
:102E2900A19F01087D9F01080C23002000000000DC
:102E390000000000D423002011A50108C5C4010821
:102E49009C240020084F0508000000000000000035
:102E59000000000000000000144F050803000000F6
:102E6900A1C50108A8250020000000001C4F050885
:102E790003000000A1C501089C25002000000000F6
:102E8900403C050803000000A1C501089025002069
:102E990000000000284F050803000000A1C5010833
:102EA9008425002000000000344F050803000000BD
:102EB900A1C5010878250020000000003C4F050845
:102EC9000200000095C70108000000000000000092
:102ED900044205080200000095C70108010000002E
:102EE90000000000444F05080200000095C70108D2
:102EF9000200000000000000000000000E000000B9
:102F090000000000000000000000000078EB002035
:102F190088136F17010000007AEB002088136F17E0
:102F290000000000504F05080000000000000000EC
:102F39000000000000000000604F050808000000C4
:102F49000000000088260020040000006C4F0508DE
:102F590008000000000000007C260020000000009E
:102F6900E04705080400000045C101080000000011
:102F790000000000104205080100000000000000E8
:102F89000000000000000000000000000E0000002A
:102F990000000000000000000000000076EB0020A7
:102FA90088136F1701000000B07A002088136F178B
:102FB90000000000659E0108000000009426002022
:102FC90069F0002001000000F0FB0408B27A00203B
:102FD90001000000FCFB0408A87A002002000000A0
:102FE90004FC04085E3E0020000000000000000010
:102FF9005C3E002000000000000000005A3E002056
:103009000000000000000000583E00200000000001
:1030190000000000563E00200000000000000000F3
:10302900543E00200000000000000000EC030020D6
:10303900000000000000000075EB00200200000005
:1030490010FC0408A84F050800000000000000005B
:103059000000000000000000604F050808000000A3
:103069000000000018270020040000006C4F05082C
:1030790008000000000000000C27002000000000EC
:10308900E047050804000000359E01080000000023
:1030990000000000104205080100000000000000C7
:1030A9000000000000000000000000000E00000009
:1030B900000000000000000000000000B84F0508F3
:1030C90000000000000000000000000000000000F7
:1030D900C84F05080D00000085C2010848270020D7
:1030E90004000000D44F05080D0000008D9E010862
:1030F9003C27002004000000E04F05080D000000F7
:1031090049C201083027002000000000EC4F0508E3
:10311900030000007DAC01082427002008000000FE
:10312900F84F050803000000A1C501084C2A00203A
:103139000000000010420508010000000000000026
:103149000000000000000000000000000E00000068
:10315900000000000000000000000000FC4205081B
:103169000000000000000000000000000000000056
:1031790062410508040000005DC10108000000006B
:1031890000000000104205080100000000000000D6
:103199000000000000000000000000000E00000018
:1031A9000000000000000000000000004C5005086D
:1031B9000000000000000000000000000000000006
:1031C900005105080D00000000000000A82700209C
:1031D900040000005C500508080000000000000021
:1031E9009C27002004000000685005080800000022
:1031F900000000009027002004000000705005081E
:1032090008000000000000008427002004000000DE
:103219007850050808000000000000007827002009
:1032290004000000805005080800000000000000AC
:103239006C270020040000008850050808000000E1
:1032490000000000602700200400000090500508DD
:1032590008000000000000005427002004000000BE
:1032690010420508010000000000000000000000F5
:1032790000000000000000000E0000000000000037
:1032890000000000000000004D9E01080000000041
:10329900B427002000000000000000002C280020B6
:1032A9000000000000000000CC280020AE7A0020B9
:1032B900040000001CFC0408AC7A0020E0150C177F
:1032C90000000000AB7A00200800000040EB040871
:1032D900AA7A00200500000030FC04080000000064
:1032E900000000001C29002001FFFFD6010000009A
:1032F900FFFFFFFF0000803F00000000000000000A
:10330900000000000000803F0000000000000000F5
:10331900000000000000803F0000000000000000E5
:10332900000000000000803FFF00000000000000D6
:10333900240E01200800000000000000140E0120E6
:1033490008000000ED8E0008DD890008EDF4000892
:1033590000000000458800088DF10008A18E0008D2
:1033690001F10008000000000000000001880008C9
:10337900958700088987000871E800088DE800082A
:1033890055E8000839E800081DE80008A58E00087E
:10339900B989000839F400080000000019880008FC
:1033A90005F10008758E00085DF0000800000000B6
:1033B900000000000D880008942A0508050804008B
:1033C9000000000030FC040840EB04081CFC040861
:1033D9000000000000000000C02A050805080A00D6
:1033E9000000000030FC040840EB0408F0FA04086F
:1033F90000000000000000001A03000000000000A7
:1034090000000000000000000000000000000000B3
:10341900000000000403090412010002000000403A
:10342900830420570002010203010000685E0C00BA
:10343900010102FFFF000000756A0408B5CA03080C
:10344900B1CA0308ADCA0308B9F70308A9CA030832
:10345900A5CA0308242E0508798F00089989000850
:1034690059F20008000000000000000051EF0008B8
:1034790079EF0008000000000000000000000000D3
:10348900F58700084DCB030841CB030835D5030860
:1034990051D50308F9CA030819D50308FDD403084F
:1034A90001000000500100000700000002000000B8
:1034B90000000000000000000102030406070809DB
:1034C900FF000000382C0020000000000000000070
:1034D90000000000000000000000000000000000E3
:1034E90000000000000000000000000000000000D3
:1034F90000000000000000000000000000000000C3
:1035090000000000000000000000000000000000B2
:1035190000000000000000000000000000000000A2
:0835290000000000000000009A
:108000002DE9F04F2DED108B034697B004331593F7
:10801000DFEDCACA149002238A4613928B4612934C
:10802000149C4FEADB0604EB461202EB061031010A
:10803000A6EB86034FEAC60806EB4605CDE900012C
:1080400000EBC303043108F10400119620442144DD
:108050002C01C6EBC60C0394EC00119D04944FEA6E
:10806000CC0405946C0106EB860E0294159D009CD1
:1080700003EB46174FEACE0E02EBC6064FEACB09DA
:108080004FF0000C51ED01AAD3ED001A92ED007AE9
:1080900094ED005A96ED004AD7ED007A15ED012ACD
:1080A00050ED016A32EE07BA76EE840A7AEE855A0E
:1080B00031EEA70A3BEE256A70EE804A76EEC46A7E
:1080C00036EE244A36EE646A05ED014A82ED006A16
:1080D000D0ED00BAD6ED012AD3ED019A95ED00AAB4
:1080E00092ED016A97ED013A91ED00CAD4ED014A93
:1080F0007BEEE23A36EEE19A32EE472A73EEE98AF7
:108100003AEE464A39EE279A78EE838AB0EE428AF2
:10811000A9EE6C8ADC44E24573EEC33AB0EE441A31
:10812000A8EEEC1A76EEE77A33EEA97A7CEE643AA2
:1081300077EEA17A3AEE066A7AEEC51A3CEE24AAE8
:1081400074EECC4A39EE833A35EE6A5AF0EE639A11
:10815000F0EE48AAE7EE2C9AA8EEAC4AE7EE2C4ADD
:10816000E7EE6CAAF0EE418AB0EE427AB0EE612AF8
:108170007BEE656A7BEEA22A76EE4A5AA9EE2C7A4D
:10818000A7EEAC2AA7EEAC5AE7EEEC8A32EE83BA41
:1081900076EEC3BA35EEE09A75EEC07A36EE0A6A2C
:1081A00076EEE26A36EE0BAA76EE836A77EEA07A76
:1081B00034EE423A77EE290A36EE4B6A7BEEA22A7B
:1081C00039EE000A73EEAA3A78EE244A37EE697A5D
:1081D00031EE055A71EEA85A32EE044A85ED00AA36
:1081E00082ED016A4D4441ED012A4A44C4ED006A22
:1081F00081ED000AC4ED017A494440ED010A4C4486
:1082000087ED007AC6ED003AC3ED004A80ED003AF2
:1082100087ED014A484486ED015A4F44C3ED015AA7
:108220004E444B443FF62EAF119B072B40F2C781C3
:10823000029D149E019B03980499059A08357519AF
:108240000C330E95354608F108080EF10804EB18BA
:1082500008300831083246442C1928186918AA1821
:10826000079305F10C030D960C940B900A9109925B
:1082700008934FF001084FF0000E129B9E44139B91
:1082800003EBCE0303EBCE02109302EBCE0303EB22
:10829000CE01029101EBCE0101EBCE0505EBCE063E
:1082A000D6ED007A0F93AEEB8E03019106EB03132C
:1082B00003EBCE07D3ED01AACDED067A019BD5EDF8
:1082C000007A97ED01BACDED057AD3ED007A029BE5
:1082D000CDED047AD3ED007A0F9BCDED037A07EB59
:1082E000CE0CD3ED007ADCED01BACDED027A0CEBC9
:1082F000CE01D2ED007A109A009101EBCE0001463A
:1083000091ED01DACDED017A0099D2ED007A91ED8F
:1083100001CA00EBCE0000EBCE0494ED01EAD0EDF3
:1083200001DACDED007ADDE90776DDE90954DDE912
:108330000B01DDE90D23C44602E000BFF304353F25
:1083400094ED009A90ED00FA91ED006AD5ED007A77
:10835000D3ED006A57ED014A92ED005A56ED013A0D
:1083600096ED00AA35EE060A73EEA65A39EE278A74
:1083700034EE8F7A70EE082A75EE87EA35EE465AAB
:108380003EEEA26A73EEE63A06ED016AD1ED019A7D
:10839000D2ED01FAD4ED016AD3ED011A95ED013A5F
:1083A000D0ED018A97ED004A3FEEE96A35EE491AB1
:1083B00076EE660A31EE271A3AEE612A75EE677A92
:1083C00070EE830A3FEEA95A74EECF9A77EE897A5F
:1083D0007AEE211AB0EE42AA74EE68FAA0EEECAA88
:1083E000DC44E24535EEC77AB0EE639A74EE285A63
:1083F00038EEC44AF0EE698AA1EE6C9AE7EEAC8AD8
:1084000036EE436A7FEE644A36EE266AA0EEAC2A68
:10841000F0EE4A0AE7EEEC0AE7EEAC4AF0EE687AD4
:10842000F0EE498A36EE833AE6EE6C8AE1EE2C3ABB
:10843000B0EE6F1AA6EE2C1A71EEE56AA6EE2C4A83
:1084400071EEA55A75EE031A7EEEE22A37EE43FA74
:1084500075EEE1EAB0EE686A76EEC08A39EE044A5B
:108460007FEE86FA76EEC86A33EE816A38EE888A45
:1084700073EEC13A37EE457A2CEE2E1A3FEE055ACE
:1084800022EECC9A9DED03FA70EE266A33EE077A5F
:10849000AFEE221AAFEE2E9A7AEE244A9DED01FA43
:1084A00079EEA09A25EE4BAA72EE670A37EE822A81
:1084B0006BEE087AAFEE08AAEFEE057A2DEEA63A3B
:1084C0009DED05FA67EE6D8AAFEE073AEFEE268A6C
:1084D00066EE6A2A9DED00FA2AEEA00AEFEE202A47
:1084E0006EEE02EADDED060A23EECE5AE0EEA3EAD6
:1084F0002BEEA98ADDED023AAFEE060AA3EE848ADE
:1085000024EE6B7A6DEE246A9DED044A2FEECD6A5F
:10851000A0EE825AA3EEA97AE4EE2F6AA4EE246AB2
:1085200075EEA15AC6ED005A83ED001A83ED019A4B
:108530004E4447ED017A87ED00AA4B4480ED003AA6
:10854000C0ED018A4F4482ED000A4844C2ED012A81
:10855000C5ED00EA85ED015A4A44C1ED006A81ED9E
:10856000016A4D4484ED008A84ED017A49444C440B
:108570003FF6E6AE0E9B08330E930D9B08330D932A
:108580000C9B08330C930B9B08330B930A9B08330B
:108590000A93099B08330993089B08330893079BA8
:1085A00008330793119B08F1010843457FF465AE3A
:1085B000129BDDF844B0DB009BB2129330E517B09C
:1085C000BDEC108BBDE8F08F074AD2E9003199422B
:1085D0001FBFD1180133097A01701DBFC3F30A030D
:1085E0000120136000207047982C0020064AD2F822
:1085F0000838D2F80C28934294BF4FF40060002052
:10860000013B9B1A18447047982C0020012380F8E6
:108610004D30704707B501A8FFF7D6FF0028FAD004
:108620009DF8040003B05DF804FB044BD3E900039C
:10863000984288BF03F50063181A7047982C0020F1
:1086400001207047024BC3F81028C3F81418704774
:10865000982C0020024BC3F81828C3F81C18704748
:10866000982C00207047704730B4124DD5E9002394
:108670009A4286BF03F50064A21A9A1A0A44B2F518
:10868000006F11D899B101444A1E013810F8014F0A
:10869000E918824203F101030C72C3F30A03F5D116
:1086A0006B60002030BC7047022030BC7047084629
:1086B000F8E700BF982C0020212838B50C4605D0DB
:1086C00022282ED0202813D0002038BD0029FBD02E
:1086D000072AF9D11A4BD3F8200893F8241893F8F5
:1086E000252893F82638206021716271A371EBE789
:1086F0000029E9D0072AE7D1114DD5F814381BB16C
:108700000968D5F810089847206821796279A3791B
:10871000C5F8200885F8241885F8252885F8263816
:10872000D2E70029D0D0022ACED1054AD2F81C388F
:10873000002BC9D00988D2F818089847C4E700BFB1
:10874000982C0020024B0020C3F82808704700BF77
:10875000982C0020044B00200522C3F82828C3F8D9
:108760001C08C3F814087047982C0020704700BFFD
:10877000704700BF704700BF704700BF704700BF21
:10878000704700BF704700BF042301480B8070474B
:108790000000002010B4074A074B92F82C0812245E
:1087A00003F114020C8001280CBF184610465DF836
:1087B000044B7047982C00200400002010B40C4A91
:1087C00092F82F3802EBC3010133DBB2042B4FF0D8
:1087D000050408BF00234FF4045081F8304882F8A4
:1087E0002F38C1F834085DF8044B4FF0FF30704764
:1087F000982C0020202301480B8070472C0000207B
:10880000642301480B8070474C000020432301483B
:108810000B807047B000002010B5084CD4F8F4006D
:10882000FF2809D00649D1F8502801F65401FFF776
:1088300043FFFF23C4F8F430002010BD00000020E7
:10884000982C0020E8E700BF08B5D0F8E4355B6A53
:108850009847002008BD00BF08B5D0F8E4351B6A72
:108860009847002008BD00BFD0F8E43510B5044695
:108870001B689847D4F8E8359B689847002010BDDE
:1088800008B5D0F8E435DB6903B19847002008BD8E
:1088900008B5042290F81211D0F8E83580F81311C9
:1088A00080F81221DB689847002008BD10B5D0F889
:1088B000E83504461B699847032384F812310020E9
:1088C00010BD00BF0B0617D401EB810300EBC303FF
:1088D00010B400EB81000124002283F8764383F872
:1088E000741383F87523426D5DF8044B136843F4E9
:1088F000001300201360704701F07F0101EB81033A
:1089000000EBC303012200EB810083F81C1183F804
:108910001E2183F81D2182691368002B01DA43F0C0
:10892000804343F400131360002070470B0630B4FB
:108930001CD401EB810200EBC202002300EB810595
:1089400082F8741382F8753301241A4604FA01F18F
:108950006D6D61F31F4201696FF3CF332B60CB69FB
:1089600023EA0203002030BCCB61704701F07F0195
:1089700001EB810400EBC404012200EB810500231C
:1089800084F81C1184F81D2102FA01F11A46AD6920
:1089900061F30F02DFE700BF10B581210446FFF746
:1089A000C5FF20460121FFF7C1FF024B002083F8DD
:1089B0005C0810BD982C002010B581210446FFF7FB
:1089C000B5FF20460121FFF7B1FF82212046FFF7C6
:1089D000ADFFFFF7B7FE002010BD00BF38B50D4654
:1089E00004468321FFF7A2FF29462046FFF7E4FF54
:1089F000002038BDF0B416460A063AD401EB8105D2
:108A000000EBC5052824002204FB0104022B85F895
:108A10007413C5F87C6385F8773385F8752304F5FE
:108A20005D7448D0154600EB8107012202FA01F17E
:108A30007F6D61F31F45D7F800C01CF4004F11D1C2
:108A4000E488204946F0805242F4004242EA8342E0
:108A500004F00F041C4B42EA845211400CEA030359
:108A6000194339600269D3692B430020F0BCD361FC
:108A7000704701F07F0101EB810500EBC50528245B
:108A8000012204FB0104022B85F81C11C5F82461A6
:108A900085F81F31A5F8221185F81D2104F58E7483
:108AA0000CD0002500EB8107012202FA01F1BF6919
:108AB00061F30F05BFE722711546B4E70025257164
:108AC000F0E700BFFF87CC13007833EC002310B52C
:108AD000194604464022FFF78DFF802120460023DF
:108AE0004022FFF787FFD4F8E835A078012284F808
:108AF00012215B689847002010BD00BF82B00023A0
:108B0000016801930B6901930E4B03E00A6901921E
:108B1000013B13D0019A002AF8DA019A094B42F07E
:108B200001020192019A0A610A69019203E00A694D
:108B30000192013B02D0019AD207F8D4002002B082
:108B4000704700BF400D0300436D064A1A61C278AA
:108B5000012A06D100F2CC5058614FF080221968EA
:108B60001A6070471800086010B580210446FFF7AE
:108B7000A9FE20460021FFF7A5FE2046BDE81040D3
:108B8000E2E700BF70B44B78012B26D00B784A691E
:108B900000EB83035C6D25682369D2B18A684A6162
:108BA00002F07F0223F4002323F07F0342F400222B
:108BB00013432361C378012B04BF0B696361C5F3C1
:108BC000076363F07B0363F31F652560002070BCBF
:108BD00070478A6802F07F02E4E782694C69156891
:108BE000136944B38E68B4428CBF06F07F0404F06E
:108BF0007F0423F4002323F07F0344F4002443EA9A
:108C0000040388BF4E611361C378012B1DD0C5F3E7
:108C1000076464F07B0464F31F651560002BD5D1F5
:108C20004B69002BD2D002690878516B0123834035
:108C30000B435363CAE723F4002323F07F0343F479
:108C400000231361C378012BE1D10B780C6900EB91
:108C50008300C5F30763816963F07B0363F31F65DA
:108C60004C610020156070BC704700BF2DE9F043D7
:108C70004B78012B30D00B784C6900EB83035E6D91
:108C8000356837691CB38B681C44013CB4FBF3F4B2
:108C9000C4F3090203FB02F3C3F312034B6114464E
:108CA00043EAC44363F31C073761C378012B04BF55
:108CB0000B697361CB78012B44D0C5F3076363F074
:108CC0007B0363F31F6535600020BDE8F0838A688D
:108CD0000124C2F31203E3E791F800804E6900EB30
:108CE000880EDEF818C0DCF80050DCF8107076B39F
:108CF000D1F80890384A06EB0904013CB4FBF9F4BA
:108D000002EAC444C6F312022243CC7807F060475B
:108D10003A43012C174649D0CCF81020C278012ADA
:108D200055D00269516B03FA08F30B435363C5F343
:108D3000076363F07B0363F31F65CCF800500020EA
:108D4000BDE8F0834B7973B345F00055B5E707F004
:108D5000604747F40027CC78CCF81070C378012B1B
:108D60002FD0012CE3D102699268D20554BF45F09F
:108D7000005545F08055C5F3076262F07B0262F34F
:108D80001F65CCF80050002B9ED1B0B2033080108C
:108D9000DEF8D04098D0CA6852F8041B2160013335
:108DA0009842F9D190E745F0805586E764F35E7705
:108DB000CCF81070C378012BD5D10A69CCF81420F7
:108DC000D1E70A69CCF81420012CB0D1CBE70B69AC
:108DD000CCF81430ABE700BF0000F81F38B501EB4A
:108DE000810400EBC4040D46002184F87453C4F8D8
:108DF0008C1384F87513C4F88833C4F88023C378BF
:108E00002821012B01FB050108BFEDB201F55D71C1
:108E100008BFC4F884231DB9FFF7B4FE002038BD95
:108E2000FFF724FF002038BD70B5104BD3F8682839
:108E300093F8805804461AB193F86C382B430DD040
:108E400081212046FFF73EFD022D00D070BD204657
:108E5000074ABDE870401F230121BFE70121FFF74A
:108E600031FD20468121BDE870402BE5982C002083
:108E7000F834002010B501EB8101084A00EBC10174
:108E80000446B1F88C131046FFF7EEFB034A204668
:108E900040230121FFF7A2FF002010BD1C35002058
:108EA000E8E700BF10B50223044640228121FFF706
:108EB000A1FD2046022340220121FFF79BFD8221D4
:108EC000204603230822FFF795FD064B02229A83D2
:108ED000FFF740FC044A204640230121FFF77EFFB4
:108EE000002010BD000000201C35002038B50822ED
:108EF0000D46044603238321FFF77CFD29462046C7
:108F0000FFF7D0FF002038BD82B000230193019A03
:108F1000094B42F010020192C168019A0A610A6984
:108F2000019203E00A690192013B02D0019AD20644
:108F3000F8D4002002B07047400D030082B0002337
:108F40000193019A0B4B42F020020192019A61F3C6
:108F50008A120192C168019A0A610A69019203E0CA
:108F60000A690192013B02D0019A9206F8D40020CE
:108F700002B07047400D030070B50446144EFFF771
:108F80000BFD2046022340228121FFF733FD4022C2
:108F9000012120460223FFF72DFDD6F8C438002515
:108FA0001B6886F85C58284686F880589847204603
:108FB000FFF7AAFF20460121FFF7C0FF204606F574
:108FC00006621F230121FFF709FF284670BD00BF7D
:108FD000982C00200E4BDA68D20310D4DA68D10640
:108FE0000FD4DA68D20510D4DA6812F0E00F0AD193
:108FF000DB6813F0020F14BF08200920704701201E
:10900000704706207047072070470220704700BF56
:10901000003C024030B1044B93F9C8080028D4BF8B
:1090200000200120704700BF982C002008B5FFF7F2
:10903000F1FF18B1024BD3F8CC380B8008BD00BF4C
:10904000982C002008B5FFF7E5FF18B1024B93F804
:10905000D0380B7008BD00BF982C002008B5FFF772
:10906000D9FF80B10B4BB3F8D23863B1192B0BD9B0
:10907000642B0BD9C82B0BD9B3F5C87F94BF03233E
:10908000042301330B7008BD0023FAE70123F8E73E
:109090000223F6E7982C002010B5FFF7BBFF48B17C
:1090A000064B93F8D44834B993F8D5480C7093F82C
:1090B000D638137010BD0024F8E700BF982C0020AC
:1090C0000420704728B1034B93F9F800003818BF0B
:1090D000012070470000002008B5FFF7F3FF50B1F2
:1090E000054B93F9F820022A03BF93F8FB30C3F332
:1090F00040030B70002008BD0000002008B5FFF7FA
:10910000E1FF80B10C4A92F9FA3092F9F820012A75
:109110000ED1272B08DC182B08DC0F2BD4BF002323
:10912000012301330B7008BD0323FAE70223F8E79C
:109130000133DBB2F6E700BF0000002010B5FFF7F7
:10914000C1FFC0B10D4C94F8FB30DB0714D494F987
:10915000F930002BB8BF0733DB100133DBB20B70E3
:1091600094F9F930594201F0070103F0070358BFA1
:109170004B420133137010BD0023F0E700000020C4
:1091800003207047F0B5174AD2F8D85892F8D7386C
:1091900015F0005514BF042706275C1CB4FBF7F636
:1091A00007FB164692F8DC78BE420CD01EB2DB00FC
:1091B00055B102F50E652B4404F0030445F8360062
:1091C00082F8D7485960F0BD02F510652B4445F888
:1091D000360059600621B4FBF1F301FB134482F819
:1091E000D748F0E7982C0020002230B504461046FE
:1091F000914200DC30BDA35C0825584010F0800F80
:109200004FEA400318BF83F0D503013DD8B2F5D132
:109210000132EDE710B5E9B10F4C94F9F820CAB16D
:109220004B1EDBB2032B15D8012A0C4A0C484FEA1F
:10923000C30313444FF005010CBF1B799B7984F8DD
:109240000431FFF7D1FF062184F80501BDE8104085
:10925000034897E710BD00BF00000020E4E50408C4
:1092600000010020F8B58368054613B118689B8893
:1092700043836C680F1DA3894FF6FF764FF47A7312
:1092800011E083B2A3814FF47A73B4F808C01CF0E4
:10929000010F03F1FF301BD0A08980B20AB102F8A0
:1092A000010BB9420DD011F8010BB4F808C0013B15
:1092B0001CF0020F9BB2E4D1B342F6D1204636F047
:1092C00021FFAB6813B11A689B8813830120F8BD96
:1092D00083B2B342D9D1F1E770B5434CD4F83839F1
:1092E00006460BB11D22DA801846092135F0DCFF55
:1092F000D4F8380936F07EF994F83E39013B5BB278
:10930000022BDBBF394A1B010020D058C4F83409B6
:109310000223102184F830393FF0D8FB40210A2085
:109320003FF000FCFF218A203FF0FCFB94F83C3921
:10933000C0F38012012B84F83F2900F040003FD099
:10934000022B2B4D46D0002B40D094F84039B5F875
:109350000611D4F834091A2B01BFB5F80631A4F868
:109360004629A4F84839A4F844693FF0AFFBB5F8A2
:109370000611D4F834093FF0A9FBD4F8380936F0C7
:1093800033F9022100203FF0CDFBD4F8380936F044
:1093900031F9D4F8340904213FF098FB94F85129AD
:1093A00094F8523994F8501984F84C19C2F12002FB
:1093B000C3F1100384F8532984F85439012070BD97
:1093C00066B908230A4DA5F80631BEE71023A5F8B3
:1093D0000631BAE70823A5F80631B6E7002814BF1E
:1093E00008231023EEE700BF982C0020EC050010A6
:1093F00000000020F8B51A4C94F85539002BFBD129
:1094000059B301444E1E451ED4F80C28D4F8081850
:1094100015F8017F531CC3F30A038B422CBF4FF492
:1094200000600020C91A224401440129C4F80C3804
:1094300082F858790FD1012035F012FDD4F80838A0
:10944000D4F80C188B4294BF4FF4006200225B1AD0
:109450001344012BEFD0B542D6D10020F8BD00BF98
:10946000982C0020094B0846D3F8281810B559B19C
:10947000D3F82838052B07D1054C002A236E03DDCD
:109480001146FFF7B7FF236E10BD00BF982C0020D8
:10949000903D002010B590F84C10002380F84C301F
:1094A00079B10B4CD4F828286AB1D4F82828052AB9
:1094B0000BD1084C3830236EFFF79CFF236E012040
:1094C00010BD0120FCE71046FAE71846F8E700BF98
:1094D000982C0020903D0020002280F84D20D9E7F4
:1094E00090F84C20531C0244DBB280F84C3082F8D8
:1094F000381090F84D200AB1132B00D9CAE77047F5
:109500002DE9F0412DED028B504BDFF864819FED8A
:10951000508A504C012882B015BFDA6ED3F8722001
:10952000B3F87030B3F87630ADF80430D8F8CC36F4
:1095300014BF494E494E009207EE903AB4FBF3F443
:10954000F8EE677A371FBDF800200D4644493960B0
:1095500027EE888A7AB194420DD3002D63D0012D75
:1095600009D107EE902A19463E4B3B60B8EE670AD8
:10957000304637F08BFFBDF802308BB19C420FD3E1
:10958000002D3DD0012D0BD107EE903A354AD8F889
:10959000CC163A60B8EE670A06F1240037F076FF81
:1095A000BDF804303BB39C4225D395B1012D22D1A7
:1095B00007EE903A2B4AD8F8CC163A60B8EE670A14
:1095C00006F1480002B0BDEC028BBDE8F04137F077
:1095D0005DBF07EE903ADFED246A244A3A60F8EE68
:1095E000E77A002386EEA77AB36477EE087A88EEEE
:1095F000277A86ED137A02B0BDEC028BBDE8F081CC
:1096000007EE903ADFED186A184B3B60F8EEE77A08
:10961000002386EEA77A736277EE087A88EE277ABF
:1096200086ED0A7ABCE707EE902ADFED0F6A0F4B52
:109630003B60F8EEE77A002386EEA77A336077EE98
:10964000087A88EE277A86ED017A94E7903D00202B
:10965000BD37863520A10700D80600104807001046
:1096600049C60308B5C5030883F9223E8DC0030827
:10967000EC050010F8B5124C0546D4F89C0090F8A3
:1096800034301E3B012B02D9002135F043FD0D4F34
:109690000026AE42D4F89C000BDB002135F03AFDE9
:1096A000236EC4F8C030B4F8C4300133A4F8C43019
:1096B000F8BD17F8011B35F02DFD0136E9E700BFB5
:1096C000903D0020303E002070B5124C94F8DC38FC
:1096D00000EBC3020D4650F8331050680E4A0023C9
:1096E000984212DC8B780D4A5B0882F8D830C2F8B9
:1096F000D400FFF7BFFF94F8DC180131B1FBF5F39C
:1097000005FB131184F8DC1870BDCE5C02F8016B08
:109710000133E5E7982C0020303E0020903D0020EA
:10972000094890F8D72890F8DC389A420BD0D0F846
:10973000D8389B0003D5042100F50E60C4E706214C
:1097400000F51060C0E77047982C002038B50C4633
:10975000FFF7B8FC054638B10E4B93F8FB20D20753
:1097600004D5B3F8FC002080284638BD93F9F930C1
:10977000594201F0070103F0070258BF4A42002B8B
:10978000B8BF0733DB1001320133D1B2D8B20BF0CE
:10979000E5F9E8E7000000202DE9F047484E96F88B
:1097A000D9100446C1F34001D6F8E00035F09CFF23
:1097B00096F8D910D6F8DC00C94301F0010135F064
:1097C00093FF002C60D0671EDFF8F8A0FFB24FF0C7
:1097D00001094FF00008D6F8E03033B11A689B88D1
:1097E00051690B4214BF53831383D6F8DC3033B175
:1097F0001A689B8851690B4214BF53831383B6F8D0
:10980000E830002B42D196F8EA10D6F8EC0035F09B
:109810006BFFFA2535F0C2F9044635F0BFF9031B9A
:10982000B3F57A7FF9D3013DF4D1D6F8E03033B106
:109830001A689B8851690B4214BF53831383D6F86F
:10984000DC3033B11A689B8851690B4214BF5383D3
:109850001383B6F8E83043BB96F8EA10D6F8EC006C
:1098600081F0010135F040FFFA2535F097F9044603
:1098700035F094F9031BB3F57A7FF9D3013DF4D1A8
:10988000013FFFB2FF2FA6D1BDE8F087D6F8043123
:10989000002BBED0D6F8F020B6F80831BAFBF3F3AF
:1098A0005B10136086F80191B3E7D6F80431002B02
:1098B000DAD0D6F8F030C3F8008086F80181D3E71B
:1098C000903D002040420F002DE9F047464EDFF862
:1098D0001CA196F8D910D6F8E000C1F3400135F08C
:1098E00003FF96F8D910D6F8DC00C94301F0010156
:1098F00035F0FAFE05274FF001094FF00008D6F8C1
:10990000E03033B11A689B8851690B4214BF53830E
:109910001383D6F8DC3033B11A689B8851690B4247
:1099200014BF53831383B6F8E830002B4DD196F85B
:10993000EA10D6F8EC0035F0D7FE322535F02EF9D6
:10994000044635F02BF9031BB3F57A7FF9D3013DBB
:10995000F4D1D6F8E03033B11A689B8851690B42D4
:1099600014BF53831383D6F8DC3033B11A689B8855
:1099700051690B4214BF53831383B6F8E830CBB957
:1099800096F8EA10D6F8EC0081F0010135F0ACFE53
:10999000322535F003F9044635F000F9031BB3F521
:1099A0007A7FF9D3013DF4D1013F17F0FF07A6D12B
:1099B000BDE8F087D6F80431002BE9D0D6F8F030B6
:1099C000C3F8008086F80181E2E7D6F80431002B65
:1099D000B3D0D6F8F020B6F80831BAFBF3F35B1039
:1099E000136086F80191A8E7903D002040420F00E7
:1099F00000F01F0240090123032803FA02F304D0F8
:109A000004280CD0022805D07047074A116C0B437C
:109A100013647047044A516C0B4353647047024A05
:109A2000116B0B43136370470038024000285FD06E
:109A30000368374A2DE9F04103F13F4404F57E0401
:109A400002EB9422012492F8202002F01F05520913
:109A5000032A04FA05F456D0042A4FD0022A48D02B
:109A60008588B5FA85F0C0F11F00C0F3CC0603EB82
:109A7000860600F0070082000F24306A944020EA36
:109A800004003062306A01FA02F2024300213262BD
:109A90004FF0010E0A464FF0030C02270EFA02F8AF
:109AA00038EA050002F101021CD118680CFA01F431
:109AB00020EA04001860186807FA01F606431E60E1
:109AC0009E6826EA04069E6098689860586820EAB6
:109AD0000800586058685860D86820EA0400D860C8
:109AE000D868D860102A01F10201D7D1BDE8F08111
:109AF0007047084A556C2C435464B1E7054A156B0E
:109B00002C431463ACE7034A156C2C431464A7E799
:109B1000E4E50408003802402DE9F04700230F680F
:109B200001264FF0030C02E00133102B41D006FA5E
:109B300003F232EA0704F7D1D0F800E05C000CFA37
:109B400004F52EEA050EC0F800E091F80490D0F874
:109B500000A009FA04FE09F1FF394EEA0A0EB9F134
:109B6000010FA846C0F800E06FEA050515D8D0F847
:109B700008E005EA0E0585604D79D0F808E0A540BB
:109B800045EA0E058560456825EA020242608A7949
:109B900045689A4092B22A434260C26822EA0802AB
:109BA000C260CA79C568A24001332A43102BC26043
:109BB000BDD1BDE8F08700BF00487047FC3E0020E3
:109BC0008268F8B5054612B11368908858836C68AE
:109BD0008F1CA3894FF6FF764FF47A730DE083B2A2
:109BE000A3814FF47A73B4F808C01CF0010F03F19D
:109BF000FF3017D0B942A0890ED011F8010BB4F88C
:109C000008C0013B1CF0020F9BB2E8D1B342F6D171
:109C1000204636F077FAAA6812B1136892881A8340
:109C20000120F8BD83B2B342DDD1204636F06AFA96
:109C3000AA68F1E70C2910D8DFE801F0100F0F0F28
:109C4000190F0F0F220F0F0F0700838B23F40063F0
:109C50001B041B0C43F4006383837047038B23F0C6
:109C600008031B041B0C43F0080303837047038B9A
:109C700023F400631B041B0C43F40063038370474D
:109C8000838B23F008031B041B0C43F0080383831E
:109C9000704700BF204A038890429BB212D002F561
:109CA000806290420ED0B0F1804F0BD0A2F580328E
:109CB000904207D002F58062904203D002F58062A4
:109CC000904202D123F070039BB2144A904216D006
:109CD00002F58062904212D023F4407302F56C4288
:109CE00030B49BB24D680C8803809042C5620485F5
:109CF0000DD18B7A0386012330BC838270470380A9
:109D00000B884A68C2620385012383827047044B33
:109D10009842EED0EFE700BF000001400010004085
:109D20000004014010B540F093FB0548D0F8C43D55
:109D300000F26621BDE810401B6800F51C70184752
:109D4000903D00202DE9F04FBD4C94F8D80D04F65D
:109D5000CC5383B0C4F8C83D18B9002003B0BDE8A7
:109D6000F08F34F031FCC4F8D40D20B1837913B1F5
:109D7000353B012BF1D894F8D93D013B02225BB26F
:109D8000934284F8CC2DE8DCAE4A1B01D358002B5B
:109D9000E3D0C4F8D03D08B11A23C380092135F0BF
:109DA00083FAD4F8C83D986835F024FCD4F8C83D4F
:109DB000102158683EF08AFED4F8C83DC4F8DC3D56
:109DC00032209F23009335F04BF8002301AA694607
:109DD000D4F8C80D8DF80530FFF744FA9DF8062039
:109DE0009DF805009DF80710974B120242EA0042C9
:109DF0000A439A4200F09B8050DC944B9A4229D04F
:109E00003CDCA3F51A43033B9A4200F0AB8003F518
:109E10001A4302339A421AD18D4BC4F8E43D4FF4F1
:109E200080304FF400014FF480720023C4F8E80D35
:109E3000C4F8EC1DA4F8F02D84F8F23D854BC4F86D
:109E4000E03D012084F8F90D03B0BDE8F08F824BAE
:109E50009A4219D14FF001254FF480304FF08071B4
:109E60004FF480720023C4F8E45DC4F8E80DC4F830
:109E7000EC1DA4F8F02D84F8F23DDFE7774B9A4211
:109E800078D001339A42C7D00023A4F8E43DA4F867
:109E9000F03DC4F8E83DC4F8EC3D1FE0704B1344BE
:109EA000042B0FD8042B0DD801A151F823F000BFCB
:109EB000659F0008759F0008199E0008559E0008C0
:109EC0002F9F0008674B00269A42A4F8E46DA4F87F
:109ED000F06DC4F8E86DC4F8EC6D53D094F8D80D6B
:109EE000614E34F071FB0025804616F8017B384640
:109EF00034F06AFB804500F09C8001350B2DF4D1D5
:109F000094F8505E284634F05FFB804500F0968060
:109F100094F8515E284634F057FB804508BF012174
:109F20007FF41BAF284636F0C8F8002016E74F4BE9
:109F3000C4F8E43D4FF000714FF480334FF4807566
:109F40000022C4F8E83DC4F8EC1D0123D4F8DC0D70
:109F5000A4F8F05DB72184F8F22D84F8F83D3CF0C8
:109F6000A3FB6BE7424BC4F8E43D4FF480304FF461
:109F7000001158E73F4BC4F8E43D4FF480304FF4F4
:109F8000800150E70222DFF8F4B0DFF8F4A0C4F853
:109F9000FC2DB0464FF400794FF48077DAF80821B1
:109FA000D4F8DC0D96424FF0010504D031463CF068
:109FB0005FFAD4F8DC0DCBF800004FF480314FF09D
:109FC0000072CBF80C10B721CBF81020ABF808903A
:109FD000ABF814708BF81680ABF80A708BF81C5035
:109FE0003CF062FBD4F8FC2D1A4B8BF81D50013667
:109FF0009642CBF804300BF1200BCFDBD4F8103EA7
:10A00000D4F80C1EB4F8146EC4F8403E03FB02F200
:10A01000C4F8EC2D184BD4F8082E84F8F28DC4F84F
:10A02000E81D2846A4F8F06DC4F8E42DC4F8E03D1E
:10A0300094E62946384636F052F88EE6002171E75C
:10A04000903D0020EC0500101920C20018BA200035
:10A05000800000010CE60408186001001620C20010
:10A06000EBBF10FF1971EF00D44B0020000200017C
:10A07000200000014000000138E60408904B002059
:10A08000000000202DE9F041204D95F8573E85F85D
:10A09000D93005F6546705F1DC0600244FF00508B9
:10A0A00017F8010B20BB30600134032C06F10406C5
:10A0B000F6D195F8D910D5F8DC00C94301F00101BB
:10A0C00035F012FB95F8D910D5F8E00081F00201C7
:10A0D000C1F3400135F008FB95F8D910D5F8E4003C
:10A0E00081F00401BDE8F041C1F3800135F0FCBA14
:10A0F00034F06AFA013401213060E3B210B180F823
:10A100000680C371306835F0CFF8CEE7903D00206F
:10A1100099B10A6B824216D9154BD3F8842E91421D
:10A1200021D34C3991421ED30B6B9842F9D38B6BE0
:10A130009842F6D80B46184670470D4BD3F8841E4C
:10A140000A6B904212D30B680BB9F4E70A6B90428A
:10A150000B4602D38A6B9042EDD951F84C3F002B4D
:10A16000F4D1184670470023184670470A46D8E7CE
:10A17000903D00202DE9F047CC0143D10346224A0F
:10A1800043F8082B4FF0FF324260022418467E2627
:10A19000DFF87880D8F8889E2644013E051D4946A0
:10A1A0006FF070474FF0010A08E0A3421CD0631C17
:10A1B00045F8043C321B1C460435CAB10B6BA34264
:10A1C00002D88B6BA34204D22046FFF7A1FF0146C1
:10A1D00090B10A794B6B002AE7D1A34204D0E6D2B2
:10A1E00045F8042C631CE5E745F8047C631CE1E7B3
:10A1F000C8F8881EBDE8F08745F804AC321B631C24
:10A200004946D8E78026C3E7F8FFFF0F903D0020BE
:10A21000F0B40D6800240CE0BCF1050F18D8A0F1D3
:10A2200037030A2B14D104EB840415F8010B03EB5C
:10A230004404A0F13003DEB2092EA0F16107A0F1C1
:10A24000410CF0D9052FE7D8A0F157030A2BEAD02B
:10A250000D601460F0BC7047036870B55E6A26B18B
:10A2600033460522BDE87040184704460D464E1D92
:10A2700000E023689B68204698470028F9D02368AF
:10A2800015F8011B1B6820469847B542F1D170BDF7
:10A29000036870B55E6A26B133460822BDE8704097
:10A2A000184704460D4601F1080600E023689B6844
:10A2B000204698470028F9D0236815F8011B1B6831
:10A2C00020469847B542F1D170BD00BF2DE9F04F4F
:10A2D0009BB0DDE9247ADDF8989004460D461646D9
:10A2E000984602E0206834F009FF206834F00EFF41
:10A2F0000028F7D10146642201A844F00AF92A4B4C
:10A300008DF80450CDF85CA00293002D48D0AB1E10
:10A31000012B47D9042D14BF00230323DFF88CA0A1
:10A320008DF80530DAF8603003971F440123CDE93A
:10A33000059404978DF85B3036B14246314607A844
:10A3400044F086F88DF85A809AF8D27E4FF00009D2
:10A35000132FCDF8609015D89AF8D1BE642202FB75
:10A360000BA001A90BF1010B00F6D46044F070F8CA
:10A37000BBF1130FD8BF5FFA8BF901378AF8D27E91
:10A380008AF8D19E236843B1434632462946204687
:10A390001BB0BDE8F04F0DF087BE1BB0BDE8F08FDD
:10A3A0000523BBE70223B9E7204C0020903D0020A5
:10A3B00070B4447941BB03684FF400524FF4007607
:10A3C000202502213CBB1A8C22F001021204120C3F
:10A3D0001A841A8B188C22F0F30280B2120420F037
:10A3E0000A00120C014342F0010241F001011A83FC
:10A3F00019841A8B22F00C021204120C1A831A8B85
:10A4000092B270BC1A837047002203681646154644
:10A410001146002CD7D0042C21D0082C38D0198C10
:10A4200021F480510904090C19849C8B1D8C45F67C
:10A43000FF7040F6FF4128402140024342F4805221
:10A4400041F4807199831A849A8B22F44062120439
:10A45000120C9A839A8B92B270BC9A8370471A8CB2
:10A4600022F010021204120C1A84188B198C89B273
:10A4700040F6FF4221F0A00102400D4342F48072F9
:10A4800045F010051A831D841A8B22F44062B3E74D
:10A490001A8C22F480721204120C1A84998B1A8C72
:10A4A00021F0F30192B2090422F42062090C324334
:10A4B00042F4807241F0010199831A849A8B22F050
:10A4C0000C02C4E79FED737A07EE901A20EE070A9C
:10A4D000F8EE677A27EE800AFDEEC07A17EE903A22
:10A4E0002033402B00F2C780DFED6B7AB4EEE70A31
:10A4F000F1EE10FAF0EE407A0CDD9FED686ADFEDC8
:10A50000686AB0EE677AB4EEE67AF1EE10FA77EEAA
:10A51000C67AF6DC9FED637AF4EEC77AF1EE10FAB4
:10A520000CD59FED5E6ADFED606AB0EE677AB4EE3F
:10A53000E67AF1EE10FA77EE867AF6D49FED5B7A42
:10A54000F4EEC77AF1EE10FA00F38D809FED587AA1
:10A55000F4EEC77AF1EE10FA44BF9FED527A77EE2F
:10A56000677A27EEA76ADFED535A9FED537ADFED46
:10A57000536AA6EE257A67EE865AE6EE076AB6EECD
:10A58000007AE5EEA67A27EE877ADFED486A70EE6C
:10A59000267ABDEEE76A16EE103A2033402B67D8D4
