:020000040800F2
:1000000000000120B5AD040831AE04087181040878
:100010000981040831AE040831AE04080000000074
:1000200000000000000000000000000031AE0408E5
:1000300031AE04080000000031AE0408E13E0408BF
:1000400031AE040831AE040831AE040831AE040804
:1000500031AE040831AE04082944040855450408AB
:1000600019450408DD440408A144040871960408F5
:100070006196040851960408419604082D960408D8
:10008000199604080596040831AE040831AE040838
:1000900031AE040831AE040831AE040865440408EA
:1000A000F58204086983040831AE04085983040802
:1000B000498304083983040829830408099804083B
:1000C0002D980408499704086D97040831AE040878
:1000D00031AE0408B9730408AD730408A1730408B1
:1000E000ED43040831AE040831AE040831AE040813
:1000F0001583040831AE040805830408F19504084B
:1001000031AE040831AE04081983040831AE040886
:10011000957304088973040831AE0408D5E000081B
:10012000DD950408C9950408B5950408A19504084F
:100130008D95040800000000000000000000000091
:10014000000000000000000000000000D1E40008F2
:1001500079950408659504085195040831AE0408A2
:1001600081960408A996040831AE040831AE04084B
:1001700031AE040831AE04080000000000000000A9
:1001800031AE040831AE040831AE040831AE0408C3
:1001900031AE040831AE04080000000031AE04089E
:1001A00000000000000000000000000031AE040864
:1001B00031AE040831AE0408000000000000000069
:1001C000000000000000000000000000000000002F
:1001D00000000000000000000000000031AE040834
:0801E0000CA90400010000005D
:1001E80005100600746A0120806A012000000000E2
:1001F8004C07000813020300706A0120886A012076
:10020800000000005207000804008000686901200F
:100218008C6A01200000000000000000230010008C
:10022800406901200C6B01200000000001FD01085D
:100238000D003400506701201C6B012000000000F5
:10024800F1A703081300040000640120506B01208B
:100258000000000058070008F6210C000464012083
:10026800546B0120000000005C070008F5317400A1
:1002780038630120606B0120000000004D940108E4
:100288000B30140024630120D46B0120000000000F
:10029800680700080101040020630120E86B0120C1
:1002A8000000000000000000000104001C630120A1
:1002B800EC6B0120000000007C070008020103002D
:1002C80018630120F06B012000000000992C03083E
:1002D800FD011E00D8620120F46B0120000000001F
:1002E800C527040806101800B8620120146C012004
:1002F80000000000D5950208FB010100B46201204E
:100308002C6C012000000000613D0408FC0109007C
:1003180080610120306C012000000000713D04085C
:10032800F9010400786101203C6C01200000000004
:100338004128040802000C0048610120406C01209B
:10034800000000000000000034001000F05E0120F2
:100358004C6C012000000000A5950208110208005D
:10036800C85E01205C6C01200000000080070008C6
:1003780012120400C05E0120646C0120000000001D
:100388008807000818202C00945E0120686C012062
:10039800000000002D38040812200D006C5E0120BA
:1003A800946C0120000000008C070008FF01080081
:1003B800545E0120A46C012000000000D92B040821
:1003C80002020300DC2E0120AC6C012000000000BA
:1003D800000000000C020300C82E0120B06C0120B0
:1003E80000000000C52C040811000C00A8460120DC
:1003F800B46C01200000000035A60308FE010900C6
:10040800AC430120C06C012000000000A52C0408AA
:1004180026000E0070870120608701200000000080
:10042800DD1E01081F201C0090800120A4870120E8
:10043800000000009A07000805020400EC81012072
:10044800C087012000000000B607000803010A0069
:100458005C800120C487012000000000BA07000862
:100468000A603600748D0120F89401200000000015
:10047800C40700080E806201128C0120309501200B
:1004880000000000599502080C20B400028E0120DB
:100498009496012000000000592C03080102050071
:1004A8008E8B0120489701200000000089850108F3
:1004B800000205002892012050970120000000004A
:1004C800000000001B020800049201205897012038
:1004D80000000000D52C040801200800088F012026
:1004E8006097012000000000FA07000819000500C5
:1004F800BC93012068970120000000000208000852
:1005080037001E00CC8E01207097012000000000EB
:10051800080800081E000500E08F012090970120C0
:1005280000000000260800081B00F400D8870120FE
:1005380098970120000000000D9601080E020200A5
:10054800F89201208C980120000000002C08000877
:100558002F0011003C940120909801200000000019
:100568002E08000803123300B4A00120E7A00120E0
:10057800000000004008000825009600689F012040
:10058800FE9F012000000000000000001500700020
:10059800989D0120089E0120000000000000000036
:1005A8002A006000D89C0120389D0120000000002E
:1005B800319502082C00100094A00120A4A001206D
:1005C80000000000FD0902082B0024003EA10120C4
:1005D8001AA1012000000000D109020829107800A2
:1005E800789E0120F09E012000000000000000001D
:1005F8002810100084A3012040A50120000000005D
:10060800EDFC010814000400CE9C0120D29C0120BE
:1006180000000000740800081A000E00ECD9012040
:100628003CDB01200000000078080008F8210600E3
:1006380084D601204CDB0120000000008608000859
:100648001802020039DE012048DF01200000000006
:100658000000000017020B002EDE01204CDF0120F5
:1006680000000000252C04080702020078DE0120A3
:1006780058DF0120000000008C0800080602100066
:100688003BDE01205CDF012000000000713104081E
:1006980008120C0022DE01206CDF0120000000009F
:1006A8006D2C0408F70106001CDE012078DF01200C
:1006B800000000008E0800080A020A0030DD012050
:1006C80080DF0120000000009408000803000100FA
:1006D800D0DD01208CDF01200000000000000000B8
:1006E8001010030098DC012090DF012000000000BA
:1006F8009E08000816000800E4E3012078E40120C1
:1007080000000000A2080008100201005CE90120B6
:1007180058E9012000000000AA0800081A023C005D
:10072800C0E4012068E9012000000000E93604085F
:1007380027000400A8E90120A4E901200000000026
:04074800AC080008F1
:10074C002000020100000000000000000884651079
:10075C000000000001000000020200002B21231EFB
:10076C0064010100000001000A012900230A0000B5
:10077C002C0100000000000001010101FFFFFFFF40
:10078C000000000100000553503744000000000039
:10079C000000000100000005000001020300000041
:1007AC000000000000000000000000000000040138
:1007BC0001006C1600000000003001000000000277
:1007CC0073007300690000000000000000000000CE
:1007DC00000000000000020000019E077D00FA00EE
:1007EC0096005802B80BB80BB80B2000C409E803EC
:1007FC006400040A000100002801000020003200FF
:10080C00C800D0079600140032002800B00440063F
:10081C000005500014000F0008010000010000004A
:10082C0000000000000000000000000000000000BC
:10083C0000000000000000000000000000000000AC
:10084C00000000000000000000000000000000009C
:10085C00000000000000000000000000000000008C
:10086C000000000000000100030000467E05EA05C0
:10087C00B4050300E803D00700000101F4011400E3
:10088C00013C3F010000000000004A01B400D60109
:10089C00100000050000C4090700B401282800005E
:0408AC002003000025
:1008B00000C20100000008001A0300000000000050
:1008C0000000000000000000000000000000000028
:1008D00000000000040309041201000202000040AD
:1008E00083044057000201020301000012010002CC
:1008F0000000004083042A57000201020301100097
:100900000060024010600240000000000000000093
:10091000000B0000000000000000000000000000CC
:10092000006002402860024001000000000000005A
:10093000060C0000000000000000000000000000A5
:100940000060024040600240020000000000000021
:10095000100D00000000000000000000000000007A
:1009600000600240586002400300000000000000E8
:10097000160E000000000000000000000000000053
:1009800000600240706002400400000000000000AF
:10099000200F000000000000000000000000000028
:1009A0000060024088600240050000000000000076
:1009B0002610000000000000000000000000000001
:1009C00000600240A060024006000000000000003D
:1009D00030110000000000000000000000000000D6
:1009E00000600240B8600240070000000000000004
:1009F000362F000000000000000000000000000092
:100A0000006402401064024000000000000000008A
:100A1000003800000000000000000000000000009E
:100A20000064024028640240010000000000000051
:100A30000639000000000000000000000000000077
:100A40000064024040640240020000000000000018
:100A5000103A00000000000000000000000000004C
:100A600000640240586402400300000000000000DF
:100A7000163B000000000000000000000000000025
:100A800000640240706402400400000000000000A6
:100A9000203C0000000000000000000000000000FA
:100AA000006402408864024005000000000000006D
:100AB00026440000000000000000000000000000CC
:100AC00000640240A0640240060000000000000034
:100AD00030450000000000000000000000000000A1
:100AE00000640240B86402400700000000000000FB
:100AF000364600000000000000000000000000007A
:100B000001010000A1820008958200085D820008B2
:100B1000718200081582000801820008ED8100083A
:100B2000B91F01084D1F0108794D010800000000A0
:100B300000000000054C01083D4C010800000000C9
:100B40000000000000000000B9130108A91301080B
:100B5000991301088913010861120108D182000864
:100B600051120108CD82000811120108C9110108B3
:100B7000B5810008C8020120008002021F000000A9
:100B800053544D202020202050726F647574202013
:100B90002020202020202020302E30310A06000284
:100BA000000000400100000009072000010104C00E
:100BB00032090400000208065005070581024000C2
:100BC000000705010240000009022000010104C0E5
:100BD00032090400000208065005070581024000A2
:100BE000000705010240000009022000010104C0C5
:100BF00032090400000208065005070581020002C0
:100C000000070501020002000A0600020000004081
:100C10000100000009074300020104C0320904007A
:100C20000001020201000524001001052401000159
:100C3000042402020524060001070582030800FFC0
:100C400009040100020A000000070501024000003B
:100C5000070581024000000009024300020100C0B4
:100C60003209040000010202010005240010010500
:100C70002401000104240202052406000107058264
:100C80000308001009040100020A00000007050122
:100C90000200020007058102000200000902430071
:100CA000020100C032090400000102020100052413
:100CB000001001052401000104240202052406009D
:100CC000010705820308001009040100020A000060
:100CD00000070501024000000705810240000000F6
:100CE00000FFFF0000000000AA5505010000012DD3
:100CF000202D2D202D2D2D2D202D2D2D2D000000D2
:100D00000000000000000000000000000000AA55E4
:100D10000B010000AA5507010000AA5509020000B6
:100D20000000000001000000C012AA5503009F004F
:100D3000FF1FFF1F9804012004000000808701208E
:100D40000000000003000000000200051002700B0C
:100D500000000100E001010101000000B58601086A
:100D60000000000020060120842E0508000000007D
:100D70000000000000000000000000006C1F0508DB
:100D80000000000000000000DA060120040000005E
:100D9000302E05080D0000003DB60108542B01203F
:100DA00000000000AC2405080D00000065B6010835
:100DB000482B0120000000006826050808000000FC
:100DC000000000003C2B0120040000000C25050859
:100DD0000D00000069870108302B01200000000091
:100DE000C42505080300000089910108242B012077
:100DF00000000000942E05080300000089910108FE
:100E0000182B01200000000014200508010000003C
:100E100000000000000000000000000000000000D2
:100E20000E000000000000000000000000000000B4
:100E3000842E0508000000000000000000000000F3
:100E4000000000006C1F050800000000000000000A
:100E5000DA06012004000000DC2D05080300000074
:100E6000E19201080C2B0120080000000C25050868
:100E70000D00000069870108302B012000000000F0
:100E8000C42505080300000089910108242B0120D6
:100E900000000000942E050803000000899101085D
:100EA000182B01200000000014200508010000009C
:100EB0000000000000000000000000000000000032
:100EC0000E00000000000000000000000000000014
:100ED0009C2E05080000000000000000000000003B
:100EE000000000006C1F050800000000000000006A
:100EF000DA06012004000000E42D050803000000CC
:100F000089910108602B01200000000014200508D1
:100F100001000000000000000000000000000000D0
:100F2000000000000E0000000000000000000000B3
:100F30000000000020700020702D7200FFFFFFFFF6
:100F4000080100000000000000000000C826012089
:100F5000FA00000001000000010000000000803FD6
:100F60000000803F000000000000000000000000C2
:100F70000000000000000000000000000000000071
:100F80000000000000000000FFFF2D202D2D202D6F
:100F90002D2D2D202D2D2D00000000000000000023
:100FA000000000000000000000010000FFFFFFFF44
:100FB000068F01200000F40101000000048F0120D1
:100FC0000000F40101000000028F01200000F40184
:100FD00001000000008F01200000F401010000006A
:100FE000FE8E01200000F40101000000FC8E0120B3
:100FF0000000F40101000000FA8E01200000F4015D
:1010000001000000881F050800000000000000002B
:101010000000000000000000A01F05080000000004
:10102000000000000000000000000000C01F0508D4
:101030000800000000000000480701200000000038
:10104000CC1F050808000000000000003C0701203C
:1010500000000000D81F0508080000000000000084
:101060003007012000000000842A05080800000065
:10107000000000002407012000000000E41F050814
:101080000800000000000000180701200000000018
:10109000F01F050808000000000000000C070120F8
:1010A00000000000FC1F0508080000000000000010
:1010B00000070120000000000820050802000000D1
:1010C00045B80108020000000000000014200508D7
:1010D000010000000000000000000000000000000F
:1010E000000000000E0000000000000000000000F2
:1010F00000000000418F0108F98E0108540701200B
:10110000F88E012005320100F68E0120E803D00799
:1011100001000000F48E0120E803D0070100000068
:10112000F28E0120E803D00701000000F08E0120BC
:101130001E00B80B01000000EE8E01201E00F4011D
:1011400001000000EC8E012014006400010000008A
:10115000EA8E01200000C800010000001C200508E4
:1011600024200508402005080000000000000000C1
:101170000000000000000000A01F050800000000A3
:1011800000000000000000000000000054200508DE
:101190000800000000000000A0080120000000007E
:1011A0005C200508080000000000000094080120F1
:1011B000000000007020050808000000000000008A
:1011C00088080120000000008420050808000000B5
:1011D000000000007C0801200000000098200508A5
:1011E000080000000000000070080120000000005E
:1011F000A820050808000000000000006408012085
:1012000000000000B82005080800000000000000F1
:101210005808012000000000C82005080700000051
:10122000000000005008012000000000D820050840
:10123000030000008991010844080120000000001B
:10124000082005080200000045B80108020000005F
:10125000000000001420050801000000000000004C
:101260000000000000000000000000000E00000070
:101270000000000000000000000000000821050838
:10128000000000000000000000000000000000005E
:10129000EA1C05080400000015B401080000000065
:1012A00000000000142005080100000000000000FC
:1012B0000000000000000000000000000E00000020
:1012C000000000000000000000000000086A01208B
:1012D0000100C40900000000066A01200100C409E1
:1012E00000000000046A01200100C40900000000A1
:1012F000026A01200100C40900000000FE6901200B
:101300000100C40900000000006A01200100C409B6
:1013100000000000FC6901200100C4090000000079
:10132000FA6901200100C40900000000A28B01201D
:101330000000FFFF0A000000A08B01200100C80090
:10134000010000009E8B0120320030753200000049
:101350009C8B0120055A0500998B012000FF01009C
:101360009B8B012001000000AC080120978B01201D
:1013700002000000D8E60408988B012000FF01005D
:101380009A8B012001000000AC080120968B0120FF
:1013900002000000D8E604088C8B012080C1803E4A
:1013A000050000008A8B012080C1803E05000000FE
:1013B000888B012080C1803E05000000868B0120C3
:1013C00080C1803E05000000848B012000FF0100E9
:1013D000838B01200A320100828B0120040000006F
:1013E00020E70408818B01200200000034E7040894
:1013F000A98E0108598E0108B4080120148F01201C
:10140000EE02CA0801000000128F012000C801008E
:1014100064000000118F012000C80100640000007A
:10142000108F01200200000040E7040800000000C7
:1014300000000000CC0901209C8101209CFF2C01B0
:1014400000000000A60401200A0000004CE7040888
:10145000748B0120E0150C1700000000A804012087
:1014600008000000D4DF0408A704012005000000E4
:1014700098E80408768B01200200000064E7040865
:10148000808B01200200000070E704087F8B0120A0
:10149000010801007E8B0120040000009CE8040884
:1014A000208F01200100FF7F010000001F8F01201D
:1014B000020000007CE70408BC8D01200000F4015C
:1014C00001000000BA8D01200000F40101000000BD
:1014D000B88D01200000F40101000000B68D01204C
:1014E0000000F40101000000CC8D01200100803ECD
:1014F00005000000C88D01200000803E640000004F
:10150000C68D01200000803E64000000C48D0120D3
:101510000000803E64000000CA8D0120030000022C
:1015200001000000C28D0120C800E8030100000096
:10153000C08D01201E00E80301000000BE8D0120C7
:101540000000E80301000000B48D01200000803E8F
:1015500001000000B28D01200000803E010000006B
:10156000B08D01200000803E01000000AE8D012002
:101570000000803E01000000AC8D01200000803E94
:1015800001000000AA8D01200000803E0100000043
:10159000FD8D012019640100018E0120006401000D
:1015A000008E012000640100FF8D01200A3201003D
:1015B000FE8D0120030000008CE70408FA8D012055
:1015C000E803D0070A000000F88D012000FA0100AE
:1015D0000A000000F78D012000FA01000A00000057
:1015E000F68D012000FA01000A000000E58D0120BF
:1015F00000640100E48D012000640100EC8D0120F5
:10160000006401000A000000EB8D0120006401006D
:101610000A000000EA8D0120006401000A000000B9
:10162000EF8D0120006401000A000000EE8D012012
:10163000006401000A000000ED8D0120006401003B
:101640000A000000E98D012000FF01000A000000EF
:10165000E88D012000FF01000A000000E78D012055
:1016600000FF01000A000000F58D0120005F01006D
:101670000A000000F48D0120005F01000A00000054
:10168000F38D0120005F01000A000000F28D0120AF
:10169000005F01000A000000F18D012019AF010078
:1016A0000A000000F08D012019AF01000A000000BF
:1016B000008C0120000A0100FF8B0120000A0100BC
:1016C000FE8B0120000A0100108C012000FA0100AD
:1016D0000F8C012000FA01000E8C012000FA01009D
:1016E0000C8C01200000F401010000000A8C012094
:1016F0000000F40101000000088C01200000F4014A
:1017000001000000068C01200000F401010000002F
:10171000048C01200000F40101000000028C012073
:101720000000F40101000000E28D0120FF0801002B
:10173000E18D012001640100E08D012000640100C1
:10174000DF8D0120010000009CE70408DE8D0120F0
:1017500000C80100DC8D01200000D007010000005E
:10176000DB8D012000C80100DA8D012000C80100D6
:10177000D98D012000C80100D88D012000C80100CA
:10178000D78D012000FA01000A000000D48D01204D
:1017900000FA01000A000000D18D012000FA0100CA
:1017A0000A000000D68D012000FA01000A000000A6
:1017B000D38D012000FA01000A000000D08D012025
:1017C00000FA01000A000000D58D012000FA010096
:1017D0000A000000D28D012000FA01000A0000007A
:1017E000CF8D012000FA01000A000000B88E012010
:1017F000010A0100C08E012000FA0100BE8E012006
:101800000000E80305000000C98E012000C80100A7
:10181000C88E012000C80100C78E012000C8010049
:10182000C68E012000C80100C58E012000C801003D
:10183000C48E012000C80100C38E012000C8010031
:10184000C28E012000C80100C18E012000C8010025
:10185000BC8E012000FA0100BA8E01200000E803CE
:1018600005000000B78E0120006401005421050826
:101870000000000000000000000000000000000068
:10188000C02905080900000000000000700A0120BE
:1018900004000000D829050809000000000000002D
:1018A000640A012004000000D02B05080900000094
:1018B00000000000580A012004000000B51D0508C2
:1018C00009000000000000004C0A01200400000094
:1018D000642105080900000000000000400A012002
:1018E000040000006C210508090000000000000051
:1018F000340A0120040000007421050809000000DA
:1019000000000000280A0120040000007C210508D6
:1019100009000000000000001C0A01200400000073
:101920001420050801000000000000000000000075
:1019300000000000000000000E0000000000000099
:1019400000000000000000009823050800000000CF
:10195000000000000000000000000000C039050881
:101960000700000000000000A00A012000000000A5
:10197000A82305080800000000000000940A0120C8
:1019800000000000B423050808000000000000006B
:10199000880A0120000000009B1E050808000000C6
:1019A000000000007C0A012000000000082005085B
:1019B0000200000045B8010801000000000000001E
:1019C00014200508010000000000000000000000D5
:1019D00000000000000000000E00000000000000F9
:1019E0000000000000000000BC230508000000000B
:1019F000000000000000000000000000CC230508EB
:101A00000D00000000000000DC0A012000000000C2
:101A1000D42305080D00000000000000D00A0120BA
:101A200000000000DC2305080700000000000000A3
:101A3000C80A012000000000E42305080D00000092
:101A400000000000BC0A012000000000EC23050893
:101A50000D00000000000000B00A0120000000009E
:101A6000F42305080700000000000000A80A012078
:101A700000000000082005080200000045B8010829
:101A80000100000000000000142005080100000013
:101A90000000000000000000000000000000000046
:101AA0000E00000000000000000000000000000028
:101AB000FC230508000000000000000000000000FA
:101AC00000000000C03905080C0000000000000004
:101AD000A48B012000000000102405080C00000069
:101AE00000000000A68B0120000000002024050853
:101AF0000C00000000000000DC8B01200000000052
:101B0000302405080C00000000000000D08B0120EC
:101B100000000000442405080C0000000000000044
:101B2000A88B012000000000502405080C000000D4
:101B300000000000AA8B01200000000058240508C6
:101B40000C00000000000000AC8B01200000000031
:101B50006C2405080C00000000000000AE8B012082
:101B600000000000742405080C00000000000000C4
:101B7000B08B0120000000007C2405080C00000050
:101B800000000000EE8B01200000000094240508F6
:101B90000C00000000000000B28B012000000000DB
:101BA000A02405080C00000000000000B48B0120F8
:101BB000000000002C2605080C00000000000000BA
:101BC000B68B012000000000A82405080C000000CE
:101BD00000000000B88B012000000000B4240508BC
:101BE0000C00000000000000BA8B01200000000083
:101BF000DE1E05080C00000000000000BC8B012068
:101C000000000000C02405080C00000000000000D7
:101C1000BE8B012000000000CC2405080C00000051
:101C200000000000C08B012000000000D82405083F
:101C30000C00000000000000D48B01200000000018
:101C4000E02405080C00000000000000D28B0120F9
:101C500000000000E82405080C000000000000005F
:101C6000E08B012000000000F42405080C000000B7
:101C700000000000E28B01200000000000250508A4
:101C80000C00000000000000E88B012000000000B4
:101C9000A41A05080C00000000000000C28B0120FF
:101CA000000000000C2505080C00000000000000EA
:101CB000CA8B012000000000142505080C0000005C
:101CC00000000000C48B0120000000002025050852
:101CD0000C00000000000000C68B01200000000086
:101CE0002C2505080C00000000000000C88B012016
:101CF00000000000342505080C0000000000000072
:101D0000CC8B012000000000402505080C000000DD
:101D100000000000D68B01200000000048250508C7
:101D20000C00000000000000CE8B0120000000002D
:101D3000561E05080C00000000000000DE8B01208C
:101D400000000000542505080C0000000000000001
:101D5000D88B0120000000005C2505080C00000065
:101D600000000000DA8B0120000000006425050857
:101D70000C00000000000000E48B012000000000C7
:101D80006C2505080C00000000000000E68B012017
:101D900000000000742505080C0000000000000091
:101DA000F68B01200000000014200508010000004F
:101DB0000000000000000000000000000000000023
:101DC0000E00000000000000000000000000000005
:101DD0007C25050800000000000000000000000055
:101DE00000000000882505080D000000000000002C
:101DF000340B012000000000902505080D000000B4
:101E000000000000280B01200000000098250508B4
:101E10000700000000000000200B0120000000006F
:101E2000A42505080700000000000000180B012091
:101E300000000000B02505080900000000000000B7
:101E40000C0B012000000000BC2505080900000063
:101E500000000000000B012000000000C82505085C
:101E60000900000000000000F40A0120000000004A
:101E7000D82505080900000000000000E80A01203C
:101E800000000000082005080200000045B8010815
:101E900001000000000000001420050801000000FF
:101EA0000000000000000000000000000000000032
:101EB0000E00000000000000000000000000000014
:101EC000EC250508000000000000000000000000F4
:101ED00000000000A01F0508000000000000000036
:101EE0000000000000000000FC2505080D000000B7
:101EF00000000000700B012000000000082605080B
:101F00000B00000000000000640B01200000000036
:101F1000142605080B00000000000000580B0120EB
:101F20000000000024260508080000000000000052
:101F30004C0B0120000000003826050803000000BB
:101F400089910108400B01200000000008200508CD
:101F50000200000045B80108020000000000000077
:101F6000142005080100000000000000000000002F
:101F700000000000000000000E0000000000000053
:101F800000000000000000004426050800000000DA
:101F900000000000000000000000000054260508BA
:101FA0000500000000000000FD8B01200000000083
:101FB000082005080200000045B8010801000000E3
:101FC00000000000142005080100000000000000CF
:101FD0000000000000000000000000000E000000F3
:101FE0000000000000000000000000005C26050862
:101FF00000000000000000000000000000000000E1
:102000006C1F050800000000000000003F040120D4
:1020100004000000B11D05080D00000079B401089E
:10202000C40B012000000000302E05080D00000048
:102030006D860108B80B012000000000AC240508E3
:102040000D00000051860108AC0B012000000000CB
:10205000682605080800000000000000A00B012011
:10206000040000000C2505080D0000009B850108F8
:10207000940B0120000000007026050809000000F4
:1020800000000000880B012004000000C4250508A2
:1020900003000000899101087C0B01200000000072
:1020A00014200508010000000000000000000000EE
:1020B00000000000000000000E0000000000000012
:1020C0000000000000000000782605080000000065
:1020D000000000000000000000000000302E050895
:1020E0000D00000000000000E40B012000000000D3
:1020F000842605080700000000000000DC0B01201A
:10210000000000000C2505080D0000000000000084
:10211000D00B012000000000142005080100000081
:1021200000000000000000000000000000000000AF
:102130000E00000000000000000000000000000091
:102140008C260508000000000000000000000000D0
:10215000000000009C2605080D00000000000000A3
:10216000FC0B012000000000A42605080A00000066
:1021700000000000AC8F012000000000B026050820
:102180000A00000000000000B48F012000000000E1
:10219000B82605080A00000000000000BC8F0120DE
:1021A00000000000C0260508080000000000000034
:1021B000F00B0120000000000820050802000000CC
:1021C00045B80108010000000000000014200508C7
:1021D00001000000000000000000000000000000FE
:1021E000000000000E0000000000000000000000E1
:1021F00000000000C82605080000000000000000E4
:102200000000000000000000DC26050808000000B7
:1022100000000000D40C012000000000EC2605089E
:102220000800000000000000C80C012000000000B1
:10223000FC2605080800000000000000BC0C01207E
:10224000000000000C270508080000000000000046
:10225000B00C0120000000001C2705080800000049
:1022600000000000A40C0120000000002C2705083D
:102270000800000000000000980C01200000000091
:102280003C27050808000000000000008C0C01201D
:1022900000000000482705080800000000000000BA
:1022A000800C0120000000005827050808000000ED
:1022B00000000000740C01200000000068270508E1
:1022C0000800000000000000680C01200000000071
:1022D0007027050808000000000000005C0C0120C9
:1022E000000000007827050808000000000000003A
:1022F000500C0120000000008027050808000000A5
:1023000000000000440C01200000000088270508A0
:102310000800000000000000380C01200000000050
:102320009827050808000000000000002C0C012080
:1023300000000000A42705080800000000000000BD
:10234000200C012000000000B02705080800000054
:1023500000000000140C012000000000BC2705084C
:102360000800000000000000080C01200000000030
:10237000082005080200000045B80108010000001F
:10238000000000001420050801000000000000000B
:102390000000000000000000000000000E0000002F
:1023A000000000000000000000000000C827050831
:1023B000000000000000000087060120000000006F
:1023C000D42705080B00000000000000F40D0120D8
:1023D00000000000E42705080B00000000000000DA
:1023E000E80D012000000000F02705080B000000A8
:1023F00000000000DC0D012000000000002805089E
:102400000B00000000000000D00D012000000000C3
:102410000C2805080B00000000000000C40D01207E
:1024200000000000202805080B000000000000004C
:10243000B80D012000000000302805080B00000046
:1024400000000000AC0D0120000000003C28050841
:102450000B00000000000000A00D012000000000A3
:10246000482805080B00000000000000940D012022
:1024700000000000542805080B00000000000000C8
:10248000880D012000000000602805080B000000F6
:10249000000000007C0D0120000000006C280508F1
:1024A0000B00000000000000700D01200000000083
:1024B000782805080B00000000000000640D0120D2
:1024C00000000000842805080B0000000000000048
:1024D000580D012000000000902805080B000000A6
:1024E000000000004C0D0120000000009C280508A1
:1024F0000700000000000000440D01200000000063
:10250000A428050807000000000000003C0D012081
:1025100000000000B02805080B00000000000000CB
:10252000300D012000000000BC2805080B00000051
:1025300000000000240D012000000000C82805084C
:102540000B00000000000000180D0120000000003A
:10255000D428050808000000000000000C0D012030
:1025600000000000E42805080D0000000000000045
:10257000000D012000000000F428050807000000FD
:1025800000000000F80C01200000000004290508EC
:102590000700000000000000F00C01200000000017
:1025A000142905080700000000000000E80C0120C5
:1025B00000000000242905080700000000000000BA
:1025C000E00C0120000000000820050802000000C7
:1025D00045B80108010000000000000014200508B3
:1025E00001000000000000000000000000000000EA
:1025F000000000000E0000000000000000000000CD
:10260000000000003829050800000000000000005C
:1026100000000000000000004C2905080800000030
:10262000000000006C0E0120000000005C2905087D
:102630000800000000000000600E01200000000003
:102640006C2905080800000000000000540E01205D
:10265000000000007C2905080800000000000000C0
:10266000480E0120000000008C2905080800000029
:10267000000000003C0E012000000000A029050819
:102680000800000000000000300E012000000000E3
:10269000B02905080700000000000000280E0120F6
:1026A00000000000C8290508070000000000000025
:1026B000200E012000000000E029050807000000AE
:1026C00000000000180E012000000000F429050899
:1026D0000700000000000000100E012000000000B4
:1026E000042A05080700000000000000080E012071
:1026F00000000000182A0508070000000000000084
:10270000000E012000000000082005080200000063
:1027100045B8010801000000000000001420050871
:1027200001000000000000000000000000000000A8
:10273000000000000E00000000000000000000008B
:1027400000000000282A050800000000000000002A
:102750008406012000000000382A05080B00000054
:1027600000000000300F012000000000442A05088E
:102770000B00000000000000240F012000000000FA
:10278000502A05080B00000000000000180F01206F
:10279000000000005C2A05080B000000000000009B
:1027A0000C0F012000000000682A05080B00000043
:1027B00000000000000F012000000000742A05083E
:1027C0000B00000000000000F40E012000000000DB
:1027D000802A05080B00000000000000E80E012020
:1027E000000000008C2A05080B000000000000001B
:1027F000DC0E012000000000982A05080B000000F4
:1028000000000000D00E012000000000A42A0508EE
:102810000700000000000000C80E012000000000BA
:10282000B02A05080700000000000000C00E0120CB
:1028300000000000BC2A050807000000000000009E
:10284000B80E012000000000CC2A05080700000097
:1028500000000000B00E012000000000DC2A050886
:102860000800000000000000A40E0120000000008D
:10287000E42A050807000000000000009C0E01206B
:1028800000000000F02A05080D0000000000000014
:10289000900E012000000000002B0508070000003A
:1028A00000000000880E0120000000000C2B05082D
:1028B0000700000000000000800E01200000000062
:1028C0001C2B05080600000000000000780E012007
:1028D00000000000082005080200000045B80108BB
:1028E00001000000000000001420050801000000A5
:1028F00000000000000000000000000000000000D8
:102900000E000000000000000000000000000000B9
:102910002C2B0508000000000000000084060120A8
:1029200000000000442B0508070000000000000024
:10293000B40F012000000000502B05080800000023
:1029400000000000A80F0120000000005C2B05081B
:102950000700000000000000A00F012000000000A0
:10296000682B05080700000000000000980F0120F8
:1029700000000000702B05080700000000000000A8
:10298000900F012000000000782B050807000000D0
:1029900000000000880F012000000000602A0508E8
:1029A0000700000000000000800F01200000000070
:1029B0006C2A05080700000000000000780F0120C5
:1029C00000000000782A0508070000000000000051
:1029D000700F012000000000802B05080700000098
:1029E00000000000680F012000000000882B05088F
:1029F0000700000000000000600F01200000000040
:102A0000902B05080700000000000000580F01206F
:102A100000000000982B05080800000000000000DE
:102A20004C0F012000000000A82B05080700000043
:102A300000000000440F012000000000B82B050832
:102A400007000000000000003C0F01200000000013
:102A5000082005080200000045B801080100000038
:102A60000000000014200508010000000000000024
:102A70000000000000000000000000000E00000048
:102A80000000000000000000000000000000000046
:102A9000218A0108BC0F0120FB8B01202C000000C3
:102AA000A4E70408FA8B012000C80100F88B01207C
:102AB000E803D007010000005350524143494E47FC
:102AC00046374455414C0000958B0120000301001E
:102AD000948B0120000301006189010831890108FC
:102AE00098100120ED880108A18801083811012003
:102AF000A9890108918901080012012005880108AF
:102B0000B187010820150120B98F0108898F0108BC
:102B100010160120358A01088DB60108D81601204B
:102B2000D9850108000000003C1701208D870108AD
:102B3000E1B3010818180120619301081D900108F4
:102B400090180120D58B0108398B01084419012008
:102B50002D8D0108798D0108FC1A0120E38D0120DB
:102B600001060100C58A01085D8A0108541D012083
:102B7000718C0108BDB60108941E0120AD8D0108BD
:102B80007DB7010860200120CE8D012001030100E6
:102B9000C02B05080000000000000000000000003D
:102BA00000000000CC2B0508080000000000000019
:102BB000FC21012000000000D42B050807000000C4
:102BC00000000000F421012000000000E42B0508B3
:102BD0000D00000000000000E821012000000000BE
:102BE000F02B05080300000089910108DC21012079
:102BF00000000000082005080200000045B8010898
:102C00000100000000000000142005080100000081
:102C100000000000000000000000000000000000B4
:102C20000E00000000000000000000000000000096
:102C3000F82B050800000000000000000000000064
:102C400000000000082C05080A0000000000000039
:102C50003019050800000000102C05080A000000CB
:102C600000000000BD1C050800000000182C05082D
:102C70000A00000000000000168F01200000000084
:102C8000202C05080A000000000000000822012096
:102C900000000000142005080100000000000000F2
:102CA0000000000000000000000000000E00000016
:102CB000000000000000000000000000282C0508B3
:102CC0000000000000000000000000000000000004
:102CD000342C0508030000008991010840220120DE
:102CE00000000000402C0508030000008991010845
:102CF0003422012000000000482C050803000000D9
:102D0000899101082822012000000000502C0508AC
:102D10000500000000000000938B0120000000006F
:102D2000582C0508070000000000000020220120A8
:102D300000000000642C05080700000000000000EF
:102D400018220120000000000820050802000000F1
:102D500045B801080100000000000000142005082B
:102D60000100000000000000000000000000000062
:102D7000000000000E000000000000000000000045
:102D800000000000702C050800000000000000009A
:102D90000000000000000000011F05080300000003
:102DA000899101088822012000000000842C050878
:102DB00003000000899101087C220120000000002E
:102DC000882C05080300000089910108AC0401204B
:102DD00000000000902C0508030000008991010804
:102DE0007022012000000000982C0508030000005C
:102DF000899101086422012000000000A42C05082C
:102E00000300000089910108582201200000000001
:102E10000C25050803000000899101084C220120BF
:102E200000000000082005080200000045B8010865
:102E3000010000000000000014200508010000004F
:102E40000000000000000000000000000000000082
:102E50000E00000000000000000000000000000064
:102E6000B02C050800000000000000000000000079
:102E700000000000C02C0508070000000DB8010884
:102E8000D8220120000000003025050803000000C2
:102E900089910108CC22012000000000CC2C0508FB
:102EA0000300000089910108C022012000000000F9
:102EB000D42C05080300000089910108B4220120E8
:102EC00000000000DC2C050807000000F1B7010835
:102ED000AC2201200000000074300508030000004F
:102EE00089910108A022012000000000E82C0508BB
:102EF00003000000899101089422012000000000D5
:102F0000082005080200000045B801080100000083
:102F1000000000001420050801000000000000006F
:102F20000000000000000000000000000E00000093
:102F3000000000000000000000000000F18901080E
:102F4000C1890108E0220120E98F0108000000008A
:102F5000802301207D880108598801080C24012064
:102F60000000000000000000D4240120318E010880
:102F700029B80108B0250120F42C05080000000044
:102F8000000000000000000000000000002D050807
:102F90000300000089910108BC2601200000000008
:102FA000082D05080300000089910108B0260120C2
:102FB00000000000E01A05080300000089910108E4
:102FC000A426012000000000142D050803000000C5
:102FD000899101089826012000000000202D050895
:102FE00003000000899101088C26012000000000E8
:102FF000282D05080200000045B801080000000067
:1030000000000000082005080200000045B8010883
:103010000100000000000000302D05080200000043
:1030200045B8010802000000000000000000000098
:103030000E00000000000000000000000000000082
:103040007A8B012088136F17010000007C8B012010
:1030500088136F17000000003C2D050800000000D9
:103060000000000000000000000000004C2D0508DA
:1030700008000000000000009C2701200400000060
:10308000582D0508080000000000000090270120CE
:1030900000000000C425050804000000A1B40108D8
:1030A00000000000000000001420050801000000DE
:1030B0000000000000000000000000000000000010
:1030C0000E000000000000000000000000000000F2
:1030D000788B012088136F1701000000DC8101202C
:1030E00088136F17000000001D8701080000000012
:1030F000A8270120D99201200100000058E8040807
:10310000DE8101200100000064E80408D481012070
:10311000020000006CE804085E6A01200000000064
:10312000000000005C6A01200000000000000000B8
:103130005A6A01200000000000000000586A0120C7
:103140000000000000000000566A0120000000009E
:1031500000000000546A0120000000000000000090
:10316000780401200000000000000000778B01209F
:103170000200000078E80408942D05080000000013
:103180000000000000000000000000004C2D0508B9
:1031900008000000000000002C28012004000000AE
:1031A000582D05080800000000000000202801201C
:1031B00000000000C425050804000000ED86010899
:1031C00000000000000000001420050801000000BD
:1031D00000000000000000000000000000000000EF
:1031E0000E000000000000000000000000000000D1
:1031F000A42D0508000000000000000000000000F1
:1032000000000000B42D05080D000000E1B5010824
:103210005C28012004000000C02D05080D000000FE
:10322000458701085028012004000000CC2D050826
:103230000D000000A5B50108442801200000000091
:10324000D82D05080300000001930108382801204B
:1032500008000000E42D0508030000008991010822
:10326000602B012000000000142005080100000070
:10327000000000000000000000000000000000004E
:103280000E00000000000000000000000000000030
:1032900008210508000000000000000000000000F8
:1032A00000000000EA1C050804000000B9B4010891
:1032B00000000000000000001420050801000000CC
:1032C00000000000000000000000000000000000FE
:1032D0000E000000000000000000000000000000E0
:1032E000382E05080000000000000000000000006B
:1032F00000000000B04405080D00000000000000C0
:10330000BC28012004000000482E05080800000029
:1033100000000000B028012004000000542E050821
:103320000800000000000000A428012004000000A4
:103330005C2E05080800000000000000982801200D
:1033400004000000642E05080800000000000000D2
:103350008C280120040000006C2E050808000000E5
:10336000000000008028012004000000742E0508E1
:103370000800000000000000742801200400000084
:103380007C2E0508080000000000000068280120CD
:1033900004000000142005080100000000000000E7
:1033A0000000000000000000000000000E0000000F
:1033B0000000000000000000000000000587010878
:1033C00000000000C82801200000000000000000EC
:1033D000402901200000000000000000E029012039
:1033E000DA8101200400000084E80408D88101206B
:1033F000E0150C1700000000D78101200800000034
:10340000D4DF0408D68101200500000098E80408F4
:103410000000000000000000302A0120010100002F
:103420000001010100D601FFFF0000000000803F05
:103430000000000000000000000000000000803FCD
:103440000000000000000000000000000000803FBD
:10345000000000000000000000000000FFFFFFFF70
:103460000000803FFF000000F81305080508040075
:103470000000000098E80408D4DF040884E8040889
:1034800000000000000000002414050805080A00E0
:103490000000000098E80408D4DF04084CE70408A2
:1034A0000000000000000000182C012005080300A7
:1034B0000000000098E80408D4DF040870E704085E
:1034C0000000000000000000871B0108831B0108AA
:1034D0007B1B01082722010859220108791B0108DA
:1034E000E52101086D1B0108651B0108611B01082E
:1034F000591B0108010102FFFF000000685E0C007B
:103500000000000090E4012008000000000000001E
:1035100080E401200800000041200108751F010817
:10352000C54E0108000000000914010869140108D3
:103530003514010800000000000000000000000039
:10354000E9130108F9130108D9130108C913010887
:10355000898A0008B98100083181000815810008B6
:103560000400200001000000B00100000200000083
:1035700009000000FF000000CC2C0120000000002A
:10358000000000000000000000000000000000003B
:10359000000000000000000000000000000000002B
:1035A000000000000000000000000000000000001B
:1035B000000000000000000000000000000000000B
:1035C00000000000000000000000000000000000FB
:0C35D000000000000000000000000000EF
:1035DC00181A0508201A05080000000009A603089F
:1035EC00A0860100040000000000000000000000A4
:1035FC0000000000000000000000000000000000BF
:10360C0000000000181A0508281A05080000000020
:10361C0089310408E80300000400000000000000E9
:10362C00000000000000000000000000000000008E
:10363C00000000000000000030250508301A0508C5
:10364C0000000000AD0B00007D0000000600000033
:10365C00000000000000000000000000000000005E
:10366C00000000000000000000000000381A0508EF
:10367C000000000000000000B1E40308E8030000B3
:10368C000500000000000000000000000000000029
:10369C00000000000000000000000000000000001E
:1036AC003C1A0508000000000000000015990208F3
:1036BC00C40900000500000000000000000000002C
:1036CC0000000000000000000000000000000000EE
:1036DC0000000000481A050800000000B5070208A9
:1036EC001D1D04086A180000050000000000000001
:1036FC0000000000000000000000000000000000BE
:10370C0000000000000000009C3B050800000000C9
:10371C0000000000B954040810270000010000004C
:10372C00000000000000000000000000000000008D
:10373C000000000000000000000000004C1A05080A
:10374C000000000000000000C5250408E80300008C
:10375C000500000000000000000000000000000058
:10376C00000000000000000000000000000000004D
:10377C00581A050800000000000000004DDB03088B
:10378C00204E0000030000000000000000000000BC
:10379C00000000000000000000000000000000001D
:1037AC0000000000681A050800000000000000007E
:1037BC00B1520308204E000003000000000000007E
:1037CC0000000000000000000000000000000000ED
:1037DC000000000000000000781A0508000000003E
:1037EC000000000089E90308400D030003000000FD
:1037FC0000000000000000000000000000000000BD
:10380C00000000000000000000000000881A0508FD
:10381C000000000000000000A5E2030810270000D3
:10382C00010000000000000000000000000000008B
:10383C00000000000000000000000000000000007C
:10384C00901A0508000000000000000079C901086A
:10385C001027000003000000000000000000000022
:10386C00000000000000000000000000000000004C
:10387C0000000000941A0508000000000000000081
:10388C00E16F0208A08601000100000000000000AA
:10389C00000000000000000000000000000000001C
:1038AC0000000000000000009C1A05080000000049
:1038BC000000000055D8030850C3000001000000B0
:1038CC0000000000000000000000000000000000EC
:1038DC00000000000000000000000000A41A050811
:1038EC000000000000000000CDD50308A861000016
:1038FC0001000000000000000000000000000000BB
:10390C0000000000000000000000000000000000AB
:10391C00B01A05080000000000000000E1E00108FA
:10392C00A086010001000000000000000000000063
:10393C00000000000000000000000000000000007B
:10394C0000000000BC1A0508000000000000000088
:10395C0035AA0308A00F00000100000000000000C1
:10396C00000000000000000000000000000000004B
:10397C000000000000000000C81A0508000000004C
:10398C0000000000D9A6010810270000010000006B
:10399C00000000000000000000000000000000001B
:1039AC00000000000000000000000000D41A050810
:1039BC00000000000000000061A80308A00F000038
:1039CC0001000000000000000000000000000000EA
:1039DC0000000000000000000000000000000000DB
:1039EC00E01A05080000000000000000C9F0010802
:1039FC001A4100000100000000000000000000005F
:103A0C0000000000000000000000000000000000AA
:103A1C0000000000E41A050800000000000000008F
:103A2C00B11B01081027000001000000000000007D
:103A3C00000000000000000000000000000000007A
:103A4C000000000000000000F01A05080000000053
:103A5C0000000000C9B901081A4100000100000073
:103A6C00000000000000000000000000000000004A
:103A7C00000000000000000000000000F41A05081F
:103A8C000000000000000000615E0108400D030012
:103A9C00000000000000000000000000000000001A
:103AAC00000000000000000000000000000000000A
:103ABC00FC1A0508000000000000000081A60308A5
:103ACC00400D03000000000000000000000000009A
:103ADC0000000000000000000000000000000000DA
:103AEC0000000000041B050800000000000000009E
:103AFC0025D7010850C3000003000000000000009F
:103B0C0000000000000000000000000000000000A9
:103B1C000000000000000000101B05080000000061
:103B2C00000000001DDB030840420F0000000000F5
:103B3C000000000000000000000000000000000079
:103B4C000000000000000000000000001C1B050825
:103B5C00000000000000000025A9030850C300006D
:103B6C000000000000000000000000000000000049
:103B7C000000000000000000000000000000000039
:083B8C000122000001220000EB
:10800000F0B40F4BC40800F0070700221E5D03EB1D
:10801000D005BE40F6B2C7F1080300278B4228BF47
:108020000B46C3F108049A40C91A46FA04F415F83D
:10803000016F42EA0402EED11046F0BC704700BF67
:10804000702D0120037870B433B30246C0F10105EE
:10805000531912F8014FDBB2002CF9D101335B0048
:10806000DAB20F4C03250B8084F8682084F869503D
:10807000017879B1022300265A1CE518023354FA1C
:1080800082F285F86810DBB282F8686010F8011F90
:108090000029F1D170BC704702221346E1E700BF0E
:1080A000302D012030B5EFF31181802383F3128846
:1080B0000A4AD2F86831D2F86C41D2F86801D2F895
:1080C0006C51CAB282F31188013BA84294BF4FF4AD
:1080D000006000201B1B184430BD00BF302D012064
:1080E000012380F84D307047014BD3F87001704781
:1080F000302D012001207047014BC3E95D217047FD
:10810000302D0120014BC3E95F217047302D012044
:108110007047704710B4054B04460A680020C3F846
:1081200084415DF8044BC3F870217047302D012065
:10813000212870B505D0222829D0202810D0002071
:1081400070BD0029FBD0072AF9D1184B18791C689B
:108150005A799B79087100200C604A718B7170BD4F
:108160000029ECD0072AEAD11148104B0C680E798F
:108170004D79D0F8782189791C601E715D719971F3
:10818000002ADCD02146D0F874019047D7E70029B7
:10819000D5D0022AD3D1064AD2F88031002BCED0D6
:1081A0000988D2F87C019847C9E700BF0000012088
:1081B000302D01200020704700207047F0B40024CB
:1081C00052004E1C2746030FB0F1204F4FEA00101B
:1081D00003F1300503F1370334BF0D550B55375507
:1081E0000234A242EFD1F0BC704700BF024808B58C
:1081F000FFF728FF014808BD98180508982D0120B1
:10820000024808B5FFF71EFF014808BDA818050879
:10821000982D01200B481A220B4B00681B680A801E
:10822000C01801D109487047094B0822094910B507
:108230001C68FFF7C3FF042207492046FFF7BEFF73
:10824000024810BD107AF01F187AF01F08000120B4
:10825000147AF01F0A0001201A000120024808B514
:10826000FFF7F0FE014808BDB4180508982D01205D
:1082700008B520B90448FFF7E5FE044808BD0448E6
:10828000FFF7E0FE014808BDC0180508982D012041
:10829000E4180508042301480B80704724000120DE
:1082A000074A084B084830B41468122503F1140239
:1082B0000D80844214BF1846104630BC704700BF82
:1082C00040400240280001201010DDDD00207047F2
:1082D00005484FF4007310B4846A00200C605DF808
:1082E000044B1380704700BF302D012098B1826885
:1082F0000C4B12B107229A70704718780421DA608B
:1083000003281A611A750CBF80224FF4807299708D
:10831000C3E901227047034B012241F2B4115A70A4
:108320005A547047CC6C01200378022B0FD000699F
:1083300008B9012070470D4B1B78032B10D080B279
:108340004FF6F773984294BF002001207047084A07
:1083500043681268B3EB422F2CBF01200020704706
:10836000044B984294BF002001207047CC6C012040
:10837000EC7E0120F7FFFF0F30B40378022B13D0FF
:10838000104A41F21824436841F21021155941F274
:108390000C2400692B405158023812595B0A01FB2A
:1083A000003030BC10447047064B41F20424426850
:1083B00003F590511B59086800EB430030BC00EBFB
:1083C00052207047CC6C0120026C03463AB11A6C03
:1083D000D20608D50022012083F83C207047426471
:1083E00080F83C20F3E71A6C4B494C4811401A685E
:1083F00041F00201F0B419644168494D21F4403163
:10840000416041685C68214341605168186921F40A
:108410008071D3F808C0DF68516054689E6A44EAEE
:108420000024AE425460546824F040745460506894
:1084300040EA0C005060906820F400609060916801
:1084400041EA0701916059D09068DC6A20F07060C1
:10845000906091680E439660906820F04050906064
:1084600091682143916090689D6920F002001C6A28
:108470009060916841EA450191605168002C46D0B6
:1084800041F400614FF460405160516821F4604153
:10849000516090FAA0F0596AB0FA80F0546801393E
:1084A000814021435160D06A0026DD6920F47000CC
:1084B000D3F830C0691E5F69D0623046D56A45EA9C
:1084C0000155D562956825F400759560946844EA75
:1084D0004C249460946824F480649460916841EA28
:1084E000872191605E641A6C22F0030242F001025F
:1084F0001A64002283F83C20F0BC7047916821F098
:1085000070619160916821F040519160ABE721F476
:1085100000615160C7E700BFFDEEFFFF002301408F
:108520000100000F38B53E4C0546D4F894310BB12C
:108530001D22DA8018460D213BF0DAFED4F89401B2
:108540003BF0E0FE94F89A31013B5BB2032B65DC13
:10855000D822344902FB03F3C85802232021C4F86F
:108560008C0184F888313EF0E9FE40210A203EF07B
:1085700001FBFF218A203EF0FDFA94F89821C0F318
:10858000801100F04003012A84F89B113BD0022A9D
:10859000254B34D07AB394F89C211A2A07D1B3F82A
:1085A0004E20A4F8A051A4F8A211A4F8A421B3F875
:1085B0004E10D4F88C013EF0C1FED4F894013BF08B
:1085C0009BFE022100203EF0D5FAD4F894013BF046
:1085D00099FE94F8AD2194F8AE310120C2F1200249
:1085E00094F8AC11C3F1100384F8AF2184F8B031D2
:1085F00084F8A81138BD2022A3F84E20CBE7102222
:10860000A3F84E20C7E725B91022074BA3F84E2048
:10861000C1E7002B14BF10222022F6E700209CE7C0
:10862000302D0120B80500200000012010B5054CB8
:10863000206D40F0B9FD0028FAD1E06DBDE8104092
:108640003BF060BE302D01202DE9F843884600291B
:108650004FD04718461E284C802507F1FF39EFF30D
:10866000118185F31288D4F86821C9B2D4F86C015D
:10867000D4F86831D4F86CC181F31188634594BF94
:108680004FF400630023121A1344012B1AD1012066
:108690003BF018FCEFF3118185F31288D4F86821C0
:1086A000C9B2D4F86C01D4F86831D4F86C7181F394
:1086B0001188BB4294BF4FF400630023121A134485
:1086C000012BE4D0EFF3118285F31288D4F86C31DA
:1086D000D2B216F8011F234483F8B411D4F86C31D8
:1086E0000133C3F30A03C4F86C3182F311884E4599
:1086F000B5D14046BDE8F883302D0120F8B5002300
:1087000090F84C5080F84C30CDB10F4E96F8B02B0D
:10871000032A16D1D6F8E87B00F138042946204612
:10872000FFF792FFD6F8E83B2D1A0444DB1B322BEF
:1087300001D8002DF2D1B5FA85F04009F8BD01202D
:10874000FCE71846FAE700BF302D0120002280F830
:108750004D20D3E790F84C20531C0244DBB280F844
:108760004C3082F8381090F84D200AB1132B00D904
:10877000C4E77047F8B50B4E0D46144696F8B03B6B
:10878000032B0ED1D6F8E87B002C0ADD21462846C3
:10879000FFF75AFFD6F8E83B241A0544DB1B322BBF
:1087A000F2D9F8BD302D012010B5124C0023FF2165
:1087B000206D23623DF046FEFD21206D3DF042FE1E
:1087C000206DFF213DF03EFEFF280AD10146206DBD
:1087D0003DF038FEFF2804D10423022084F8243021
:1087E00010BDD4F8E82B09230020626184F82430FE
:1087F00010BD00BF302D0120F8B50924104D0646EC
:108800000F46FF21286D3DF01DFEFF2803D1013CDE
:10881000F7D10120F8BDFE2801D00220F8BD3B466B
:1088200032460021286D3FF083FFFF21286D3DF087
:1088300009FE286DFF213DF005FE0020F8BD00BFB8
:10884000302D012070B5952282B040F040030824FD
:108850008DF8041006468DF805200A0E8DF80030BC
:108860000B0C114DE1408DF801208DF802308DF890
:108870000310FF21286D3DF0E5FDFF2802D0013CEB
:10888000F7D176B9062300226946286D09243FF006
:108890004FFFFF21286D3DF0D5FDFF2802D1013C9F
:1088A000F7D1FF2002B070BD302D0120F8B5184C73
:1088B00007460E46154694F82430042B07D0082BA3
:1088C00001D00020F8BDFFF76FFF0228F9D1E06D5D
:1088D0003BF012FDA37E8BB979021120FFF7B2FFA6
:1088E000034690B90521D4F8E82B01202660676083
:1088F00084F824106261C4E90353F8BD394611209D
:10890000FFF7A0FF03460028ECD0FFF78FFED8E763
:10891000302D0120154BDB68C3F3022310B4C3F1E3
:1089200007041A1D042C28BF0424062A4FF0FF3226
:108930008CBF033B0023A240002821EA020101FA78
:1089400003F108DB09010A4BC9B2034483F80013A1
:108950005DF8044B704700F00F000901054BC9B2E8
:10896000034419765DF8044B704700BF00ED00E04A
:1089700000E100E0FCEC00E0F0B53C4B054600688F
:1089800083B0B3EB902F4FEA902236D3B2F5801F1D
:1089900059D36FF480131344022B64D8DFE803F03B
:1089A00061022B000324324A00213FF0F3FD314BDA
:1089B0000220296803EB841401272F4A0023D4F8EE
:1089C000EC6B84F8290C35682C483D43356084F8FD
:1089D000297C01E050F8332091421BD001330E2B4B
:1089E000F8D101210020FFF795FF002003B0BDE87A
:1089F000F0400BF09DBC0424D5E7214B9A422ED0C9
:108A00000F339A4201D10624CDE7103B9A421AD186
:108A10000024C8E7194A012102EBC30393F90500BA
:108A20005C790190FFF776FF01980BF081FC1B2C1D
:108A30000BD02E2C07D101212C20FFF76BFF114BFF
:108A40004FF480525A6003B0F0BD01211920FFF7A6
:108A500061FF0C4B4FF000721A6003B0F0BD0524AB
:108A6000A1E702249FE701249DE700BF0300100057
:108A700040420F00302D01200000014040D5040885
:108A80004100100000E100E0F0B5244C002524482E
:108A900041F28732D4F82C3E83B0224904F5DA77CC
:108AA000A0FB030304F6EC50C4F8EC1D04F5636668
:108AB000DB0CC4F8F82DC4F8FC5D013BC4F8F45D90
:108AC000C4F8F03D0CF096FC174B062137201A6CC9
:108AD00042F020021A641B6C03F020030193019BF7
:108AE000FFF718FFD4F8EC3D4FF400010F4A284679
:108AF000C4F880515160D968D4F8CC2B41F0010101
:108B0000C4F87851D960196841F001011960C2F8C0
:108B10001052C2E9816703B0F0BD00BF302D0120C3
:108B200083DE1B43001400400038024000E100E0F7
:108B300038B50E4B0E4AD3F82C3EA2FB03239B09FB
:108B4000013BB3F1807F09D20A4AF0250A4C00208C
:108B50000721536084F823509060116000214FF08A
:108B6000FF30FFF7D7FE002038BD00BF302D0120B9
:108B7000D34D621010E000E000ED00E02DE9F04779
:108B8000484E044696F83815D6F84005C1F3400122
:108B90003BF0BEFB96F83815D6F83C05C94301F00A
:108BA00001013BF0B5FB002C60D0671EDFF8F8A098
:108BB0004FF001094FF00008FFB2D6F8403533B14D
:108BC0001A689B8851690B4218BF1B049361D6F841
:108BD0003C3533B11A689B8851690B4218BF1B049E
:108BE0009361B6F84835002B42D196F84A15D6F86D
:108BF0004C053BF08DFBFA253BF0E8F804463BF0D2
:108C0000E5F8031BB3F57A7FF9D3013DF4D1D6F82B
:108C1000403533B11A689B8851690B4218BF1B0459
:108C20009361D6F83C3533B11A689B8851690B4281
:108C300018BF1B049361B6F8483543BB96F84A1534
:108C4000D6F84C0581F001013BF062FBFA253BF0C0
:108C5000BDF804463BF0BAF8031BB3F57A7FF9D3AD
:108C6000013DF4D1013FFFB2FF2FA6D1BDE8F0874F
:108C7000D6F86435002BBED0B6F86835D6F8502546
:108C8000BAFBF3F35B10136086F86195B3E7D6F88F
:108C90006435002BDAD0D6F85035C3F8008086F85A
:108CA0006185D3E7283E012040420F002DE9F047BF
:108CB000464E4FF001090527DFF814A196F8381544
:108CC0004FF00008D6F84005C1F340013BF020FB0F
:108CD00096F83815D6F83C05C94301EA09013BF07E
:108CE00017FBD6F8403533B11A689B8851690B429F
:108CF00018BF1B049361D6F83C3533B11A689B88C2
:108D000051690B4218BF1B049361B6F84835002B1C
:108D10004DD196F84A15D6F84C053BF0F9FA3225B4
:108D20003BF054F804463BF051F8031BB3F57A7F4F
:108D3000F9D3013DF4D1D6F8403533B11A689B8898
:108D400051690B4218BF1B049361D6F83C3533B10F
:108D50001A689B8851690B4218BF1B049361B6F8CF
:108D60004835CBB996F84A15D6F84C0581F0010183
:108D70003BF0CEFA32253BF029F804463BF026F8CA
:108D8000031BB3F57A7FF9D3013DF4D1013F17F00E
:108D9000FF07A6D1BDE8F087D6F86435002BE9D0EF
:108DA000D6F85035C3F8008086F86185E2E7D6F83A
:108DB0006435002BB3D0B6F86835D6F85025BAFB29
:108DC000F3F35B10136086F86195A8E7283E012055
:108DD00040420F0070B41D4D0646046805E0D5F80A
:108DE0006C25521AB2F5805F25D8A36913F02003D1
:108DF000F5D010222023E261E361A3699A0701D52F
:108E00000023A362A369DB0710D563680425104A19
:108E100020210120134000226360756486F8402001
:108E200086F8411086F8422070BC7047A36943F071
:108E30000103A361E9E72022032086F8403086F889
:108E4000412086F8423070BC704700BF283E0120A8
:108E500000E800FE70B5134E04460D460BE09B691A
:108E6000DB0602D5FFF7B6FFD0B9D6F86C355B1B31
:108E7000B3F5805F07D82368294620469A69920790
:108E8000EDD5002070BD636C2021002203200B4330
:108E900084F84020636484F8411084F8422070BD57
:108EA000012070BD283E012070B40E4D06460468B6
:108EB00005E0D5F86C359B1AB3F5805F06D8A36939
:108EC00031EA0303F5D1002070BC70470023202253
:108ED000032086F8412086F8403086F8423070BC86
:108EE000704700BF283E012070B5134E04460D4662
:108EF0000BE09B69DB0602D5FFF76CFFD0B9D6F813
:108F00006C355B1BB3F5805F07D823682946204684
:108F10009A699206EDD5002070BD636C2021002275
:108F200003200B4384F84020636484F8411084F8E4
:108F3000422070BD012070BD283E01202DE9F04F78
:108F4000D94C002385B004F5AE6194F88425C4F8AB
:108F500070350191C4F87435C4F87835C4F87C359F
:108F6000C4F880351AB194F8853584F8703594F8D2
:108F700086351BB194F8873584F87F3594F88A35A7
:108F80001BB194F88B3584F87A3594F888351BB189
:108F900094F8893584F87535C44E0027B8224FF00F
:108FA000070B394606F1200044F078F9B82239461B
:108FB00006F1200044F072F93546BD484A21BD4A09
:108FC0004FF08063B946C4F8900584F89415C4F84E
:108FD0009825C4F89C3595F80080022140463BF066
:108FE00055FB03464046C3B13BF0B4F809F1070313
:108FF00003214FF0000CDBB210B1837180F807C081
:109000003BF076F928783BF073FB7A1C0123AF70B4
:10901000D7B2687085F804B0EB7009F10109053525
:10902000B9F1040FD7D1DFF8B4B24FF00008012531
:10903000D4F890254FF4403A5846C4F8A885C4F8AF
:10904000C885C4F8CC85C4F8AC85C4F8C085C4F81C
:10905000C485C4F8B485C4F8A025C4F8BC75C4F8A8
:10906000A4A5C4F8B855C4F8B055C4F8D055FFF756
:10907000ABF94146B8220BF1A800DFF8649244F046
:109080000DF94146B8220BF1A80044F007F9482336
:109090000BF1B800C4F85CA684F84C36864BC4F8D3
:1090A0007056C4F85036C4F86856C4F88856C4F8E8
:1090B0004896C4F85896FFF787F90BF1A80040F0DE
:1090C0007BFC019B4146CDF8009003F11408F37836
:1090D000002B4BD094F8DC256B1C7078012ADBB296
:1090E00096F804E0029140D04FF00102092884F87C
:1090F000DC2540F230814FF003096FF01D0CD4F8ED
:10910000A0254FF0070A19FB00CCD2F80C900AFA00
:109110000CFA0EFA0CFC29EA0A09C2F80C90D2F8F3
:109120000CE04CEA0E0CC2F80CC0062D4FF0050CFA
:1091300000F2F9806FF0040E1CFB05E54FF01F0EE6
:10914000D2F834C00EFA05FE00FA05F52CEA0E0C32
:10915000C2F834C0D2F834C045EA0C055563009D0E
:10916000AA4200F0258184F8DC151D460536B0457D
:10917000ADD1D4F898150020504B5A6801302033F7
:10918000914200F020811028F7D100200022062112
:1091900040F026F90025012FD4F89C154FF4006209
:1091A000474E8CBF4FF480632B464FF4005CC4F8ED
:1091B000EC15C4F8F8354FF400334FF48071C4F85F
:1091C000FC25C4F808360322D4F898353046C4F894
:1091D000F055C4F8E835C4F8F455C4F80C56C4F892
:1091E0001456C4F81856C4F800C6C4F80416C4F8D7
:1091F00010260AF06BFA94F8DC35C4F8D865012B18
:109200000395C4F820B600F08B800123D4F8A05554
:1092100084F8DC35AB68D90714D42A4B2A49D3F833
:109220002C3EAA68B3FBF1F342F0010203EB4303C7
:10923000AA600393039B2BB1039B013B0393039B06
:10924000002BF9D1AB68DA076AD5D4F8E0251F4BBB
:10925000134043F48073C4F8E0356B685B0507D5B1
:10926000D4F8E03523F4405343F48053C4F8E03598
:10927000D4F8E03513F4805340F0A780C4F8E43507
:109280001348002313496FF02202C4F8280612483D
:1092900084F8DC353B46C4F8241605F14C01C4F8CB
:1092A00034062A601EE000BF283E012098430120BA
:1092B000002201401064024070640240500001200E
:1092C00010440120302D012040420F00FEF8FFFF26
:1092D000991701089D17010889170108C843012043
:1092E000002001406E683F4A46F080663E486E604E
:1092F000AE6846F48076AE600AF066F93B4B5B6878
:1093000013F01F0FD4F8A03502D0394A934207D189
:109310009A6812F0405F03D19A6842F080429A60E6
:1093200005B0BDE8F08F0C2D2CD86FF0220E1CFB81
:1093300005E54FF01F0ED2F830C00EFA05FE00FA18
:1093400005F52CEA0E0CC2F830C0D2F830C045EA60
:109350000C05156303E7D4F8A02500EB400C4FF093
:10936000070AD2F810900EFA0CFE0AFA0CFA29EA53
:109370000A09C2F81090D2F810C04EEA0C0EC2F8DA
:1093800010E0D2E66FF0400E1CFB05E54FF01F0E1B
:10939000D2F82CC00EFA05FE00FA05F52CEA0E0CE8
:1093A000C2F82CC0D2F82CC045EA0C05D562D6E62E
:1093B000122811D011287FF4D6AE0C48426842F42E
:1093C00000024260CFE6C0B2E0E6D4F8E43523F014
:1093D0000603C4F8E43553E70448426842F48002C7
:1093E0004260C0E61809002010440120002301401B
:1093F000002001402DE9F843DFF8B8C10446012000
:1094000090460D462768DCF86C65BDF8202084F88E
:10941000400005E0DCF86C05801B192800F28B8009
:10942000B86910F40040F5D121214FF0400C63627F
:1094300084F84110314684F842C0606462857B68DC
:10944000DFF86491574A03EA0903606320462B431F
:109450001A437A60FFF7FEFC58B1636C636C042B0F
:109460004FF000030CBF0120032084F84030BDE81A
:10947000F8832368324680212046C3F82880FFF70E
:1094800013FD0028EAD1638D9BB2FF2B5ED8628D5D
:10949000206892B24168D3B2228501EA090945EAFF
:1094A000034343EA090343F0007343603E4FDFF890
:1094B000FC8003E0638D9BB2002B31D03146204607
:1094C000FFF7C8FC002830D1616A2268481C238D50
:1094D0006062013B09789BB29162628D2385013AFB
:1094E00092B26285002BE5D1638D9BB2002BE1D057
:1094F000324680212046FFF7D7FCFF2200283FD1CB
:10950000638D9BB293422CD9216822854B683B40E6
:109510002B4343EA08034B60638D9BB2002BCDD1F4
:1095200031462046FFF7E0FC68B3636C042B27D17B
:109530000120BDE8F88300232022032084F8412085
:1095400084F8403084F84230BDE8F8832168FF2277
:109550004B68228503EA0903144A2B431A434A60E5
:10956000A4E7628D206892B24168D3B2228501EAF5
:10957000070245EA0343134343F00073436099E74E
:109580000320BDE8F88323682021094DD9615A687A
:109590002A405A6084F8411084F8400084F8420060
:1095A00065E700BF00200101009800FC0000FF01FA
:1095B00000E800FE283E01200A4610B102213AF0E0
:1095C00019BD70472DE9F0477E4CD4F80087B8F1FB
:1095D000000F00F0F480D4F80857D4F80C7715B1D8
:1095E00040F21513EB8017B14FF48B73FB802846C4
:1095F00009263AF087FE38463AF084FE11212846C3
:109600003AF076FE112138463AF072FE4FF03309F7
:1096100025B12A68AB88116919420FD1B9F1010946
:1096200009D03AF0D3FB82463AF0D0FBA0EB0A0017
:109630000928F9D9ECE71DB12A68AB881B049361AE
:109640003AF0C4FB81463AF0C1FBA0EB09000428C4
:10965000F9D915B12B68AA889A613AF0B7FB81460F
:109660003AF0B4FBA0EB09000428F9D9013ECDD1B2
:1096700028464FF001093AF03FFE05203AF0F0FB92
:1096800038463AF039FE05203AF0EAFB28463AF02F
:1096900039FE05203AF0E4FB38463AF033FE94F800
:1096A000113728460422002B4FF0240514BF3E2119
:1096B0001E213AF019FE94F8113738460422002B87
:1096C0004FF4004714BF3E211E213AF00DFE4C22FC
:1096D00031463D4843F0E2FDD4F8003794F8552771
:1096E0005B6884F85557196894F8100721F0010C4D
:1096F000364A3749DFF8E0E0002808BF0A46002074
:109700000021C4F81437C4F81827C4F81C67C4F83B
:109710002467C4F82867C4F82097CEE90C01C3F881
:1097200000C020201A6199682A4A21F400419960FA
:109730009F6059680A435A60DA6822F40042DA608E
:10974000DE601E601A6842EA09021A60C4F85867AF
:1097500084F85507C4F8446784F8566794F8552789
:109760008242D1B217D194F854274A4513D084F8D5
:1097700055571A6822F001021A601A6822F48052C2
:109780001A601A681A601A6842EA09021A6084F8B4
:10979000551784F85467002198F91200FFF7BAF8BA
:1097A00098F912000AF0C4FD98F911000021FFF7A2
:1097B000B1F898F91100BDE8F0470AF0B9BDBDE86D
:1097C000F08700BF283E01203C4501201D0D5000C0
:1097D0006F0C50000080000228450120034690F8DD
:1097E0003C00012800F03E810220F0B4012483F8FF
:1097F0003D0083F83C40142A45D8DFE812F04D00C4
:109800004400440044007B00440044004400DA006B
:10981000440044004400AA004400440044000601FF
:1098200044004400440015001A688E68156A0F68E9
:1098300025F48015AB4C1562106A556820F40010B1
:10984000D2F854C040EA0650A74E0CEA0404B242D3
:1098500044EA072400F0088106F58066B24200F071
:1098600003814E6855605465D6651062506D0C6971
:1098700040F400605065506D20F480605065516D7B
:1098800041EA0421516500220121104683F83D1070
:1098900083F83C20F0BC70471A68D1F808C0156AFC
:1098A0000F6825F00105914C1562106A566895699C
:1098B00020F002002C408C4D40EA0C00AA4244EA01
:1098C000070400F0DD8005F58065AA4200F0D8802D
:1098D0004D68566094615563106290690C6940F060
:1098E00008009061906920F0040090619169214323
:1098F0009161C8E71A68D1F808C0156A0F6825F0A9
:1099000010057B4C1562106A5668956920F020009E
:109910002C40754D40EA0C10AA4244EA072400F09E
:10992000C38005F58065AA4200F0BE804D68566090
:1099300094619563106290690C6940F400609061D5
:10994000906920F480609061916941EA04219161FD
:1099500099E71A688E68156A0F6825F48055644C7B
:109960001562106A556820F40050D2F81CC040EA15
:1099700006305D4E0CEA0404B24244EA072400F0CB
:109980008D8006F58066B24200F088804E68556092
:10999000D46116641062D0690C6940F40060D06133
:1099A000D06920F48060D061D16941EA0421D1619D
:1099B00069E71A68D1F808C0156A0F6825F4807540
:1099C0004A4C1562106A5668D56920F400702C4024
:1099D000454D40EA0C20AA4244EA070473D005F53D
:1099E0008065AA426FD04D685660D461D56310621D
:1099F000D0690C6940F00800D061D06920F0040003
:109A0000D061D1692143D1613DE71A688E68156A3A
:109A10000F6825F48035374C1562106A556820F4BC
:109A20000030D2F854C040EA06402F4E0CEA04043D
:109A3000B24244EA07041DD006F58066B24219D04E
:109A40004E685560546596651062506D0C6940F023
:109A500008005065506D20F004005065516D2143A1
:109A6000516510E70220704725F480254E6945EACC
:109A70008625F6E625F480354E6945EA0625DFE7BA
:109A800026F4407C20F008008E69CF684D69384389
:109A9000354320F0040045EA0C0619E725F480451B
:109AA0004E6945EA861571E726F4406C20F0800087
:109AB0008E69CF684D6940EA0710354320F04000B9
:109AC0004CEA850632E726F4405C20F400608E699B
:109AD000CF684D6940EA0720354320F480604CEAA6
:109AE000051680E7FF8FFFFE000001408CFFFEFFA0
:109AF000FF8CFFFE8FFFFEFF10B53FF033FC0648E2
:109B000000F59F5300F6820100F68C001B68BDE84B
:109B100010401B68184700BF283E012010B53AF0DE
:109B200055F9174B93F8F41299B9D3F8EC22821A2D
:109B3000002A0CDB93F8F522AAB1013AD2B283F8DD
:109B4000F522AAB100F57A700121C3F8EC020846AB
:109B500010BD42F210720024024483F8F442084619
:109B6000C3F8EC2210BDC3F8EC120121084610BD69
:109B7000D3F8F02201211044C3F8EC02084610BDCE
:109B8000204F01202DE9F04F022389468A462DED12
:109B9000108B99B0DFEDCABA1493034616900433C4
:109BA000159217934FEADA06169DDDF85CC04FEA6E
:109BB000CA0305EB46111396F0004FF0000B01EBC2
:109BC000061437010390A6EB86020194049706EB76
:109BD000460E04EBC202041D381D06EB86072C441A
:109BE000C6EBC60802972844029D02EB46174FEACF
:109BF000C808ED0001EBC60602954FEA0E15059563
:109C00004FEACE050695139D4FEA451E019D95ED41
:109C1000007AD34492ED005AD7ED004AD945D1EDF0
:109C2000006A50ED013A35EE241AD6ED002A1CEDFB
:109C3000016A73EE875A54ED017A33EEC73A36EE75
:109C4000264A77EEA21A36EE666A77EEE27A74EE6C
:109C5000256A71EE812A77EE633A37EEC57A36EEE1
:109C6000A22A77EEE47A76EEE26A0CED012A37EE6C
:109C7000247A77EE857AD1ED018AC1ED006A74EE1F
:109C8000655A96ED015AB0EE460A94ED004AA7EEE9
:109C90002B6AD2ED010AE7EEAB3A74EE456AD7EDD6
:109CA000012AA7EE6B0A9CED007AD5ED014A34EE4D
:109CB000054A37EE689A90ED005A36EEE02A76EEC5
:109CC000E26A30EEA28A32EE222A76EEA06AF0EE46
:109CD000492A75EE640A37EE287A75EE249AE2EE88
:109CE0006B2A74EEC54AF0EE608AB0EE40AAE6EE4A
:109CF000AB4AE6EEAB8AA6EEEBAAF0EE496AB0EE0E
:109D0000629A37EE695AE2EE2B6AB0EE432A74EE9D
:109D100008AAA7EEEB9AA7EEAB2A77EE297A35EEE2
:109D2000617A75EEC89A35EE415A75EEC45A37EE2F
:109D3000AABA77EEEA7A37EE011A8CED00BA36EE5F
:109D4000287AC1ED017A39EE844A76EEC27A194456
:109D500075EE885A9C4435EE215A00ED014A70EEAA
:109D60008A0A70EE244AC5ED005A36EE686A80ED24
:109D7000001A72EEA33A85ED015A33EE093A04ED6A
:109D8000017A72EE266A87ED006A1D44C6ED000A6C
:109D90001844C2ED004AC4ED007A1C44C7ED016AC4
:109DA0001F44C6ED013A1E4482ED013A1A443FF6C3
:109DB0002EAF139A072A40F2C681039A0EF1080EBD
:109DC000169F08F108000832029E059D4FF000081A
:109DD00094463A46083608357244069C0499D346A0
:109DE000109207EB0C0208340C310F92BA190E9244
:109DF0007A190D923A190C923A180B927A18099224
:109E000007F10C020A9201220892149ADDF824C08C
:109E10009044159A0A9F02EBC8020B9EA8EB880E8D
:109E20000C9D02EBC80192ED00BA0D9C01EBC8023B
:109E3000D1ED00AA0E9802EBC80192ED00AA01EB49
:109E4000C802D1ED009A02EBC80192ED009A01EB35
:109E5000C802D1ED008A0F9902EB0E1E92ED008A26
:109E6000109A0EEBC80ADEED017A1192CDED047A5C
:109E70000AEBC802DAED017A02EBC80A1291CDEDC5
:109E8000057AD2ED017A0AEBC802DDF820E0CDEDCB
:109E9000017ADAED017A02EBC80ACDED067AD2ED4D
:109EA000017A0AEBC802CDED027ADAED017ACDED46
:109EB000077AD2ED017ADDE91121CDED037A01E0D7
:109EC000F304353F17ED017ADE44D2ED007A94EDCC
:109ED000005AF145D5ED006A37EE274AD0ED004A29
:109EE00077EE677A1CED016A96ED007A91ED001A23
:109EF00076EE055A36EE872A97ED00DA71EE24EAFF
:109F000076EE453A74EE252A31EE641A35EE466A4D
:109F10003EEE825A74EE655A31EE664A72EE854A1A
:109F200031EE471AB0EE67CA47ED014A34EE077AC0
:109F3000D1ED014A31EE261AD0ED016A72EEC52A42
