:020000040800F2
:10000000000001203D8F0408B98F04082DCC03089F
:100010006DCC0308B98F0408B98F040800000000F4
:10002000000000000000000000000000B98F04087C
:10003000B98F040800000000B98F0408B5C7030891
:10004000B98F0408B98F0408B98F0408B98F040860
:10005000B98F0408B98F04082DCD030859CE0308C1
:100060001DCE0308E1CD0308A5CD03086978040877
:100070005978040849780408397804082578040870
:1000800011780408FD770408B98F0408B98F0408B3
:10009000B98F0408B98F0408B98F040869CD030823
:1000A000896D0408B98F0408796D0408B98F0408B4
:1000B000DD6D0408CD6D0408BD6D0408017A0408E7
:1000C000257A04084179040865790408B98F040881
:1000D000B98F0408B98F04087164040865640408C2
:1000E000F1CC0308B98F0408B98F0408696D0408BE
:1000F000A96D0408B98F0408996D0408E97704080C
:10010000B98F040801600408AD6D0408B98F0408B4
:1001100059640408B98F0408B98F04085508010808
:10012000D5770408C1770408AD77040899770408E7
:1001300085770408000000000000000000000000B7
:10014000000000000000000000000000510C010849
:10015000717704085D77040849770408B98F0408AB
:1001600079780408A1780408B98F0408B98F0408C5
:10017000B98F0408B98F04080000000000000000D7
:10018000B98F0408B98F0408B98F0408B98F04081F
:10019000B98F0408B98F040800000000B98F040863
:1001A000000000000000000000000000B98F0408FB
:1001B000B98F0408B98F0408000000000000000097
:1001C000000000000000000000000000000000002F
:1001D000000000000000000000000000B98F0408CB
:0801E000948A040001000000F4
:1001E80005100600206801208C680120000000002E
:1001F80010070008130203001C68012094680120FE
:1002080000000000160700080400800010670120A5
:100218009868012000000000000000002300100082
:10022800D0660120186901200000000005120208AC
:100238000D003400705C01202869012000000000D6
:100248009D32030813000400C85B01205C6901208B
:10025800000000001C07000812200D00645B01204C
:10026800606901200000000020070008F5317400D3
:10027800F05A0120706901200000000025AB010838
:100288000B301400DC5A0120E46901200000000052
:100298002E07000801010400D85A0120F86901203E
:1002A800000000000000000000010400D45A0120F2
:1002B800FC69012000000000420700080201030059
:1002C800D05A0120006A012000000000F530030820
:1002D800FD012400905A0120046A0120000000005A
:1002E80085AB030806101800705A0120286A0120FF
:1002F8000000000035930208FB0101006C5A012040
:10030800406A012000000000A1C40308FC010900A4
:1003180038590120446A012000000000B1C40308D4
:10032800F901040030590120506A01200000000042
:1003380001AC030802000C0000590120546A012096
:1003480000000000000000000A603600F82B0120C1
:10035800606A012000000000460700083400100011
:1003680028550120986A0120000000000593020822
:100378001102080000550120A86A012000000000B1
:100388007C07000812120400F8540120B06A01200A
:10039800000000008407000818202C00CC5401201D
:1003A800B46A01200000000039BE0308FE010900FC
:1003B8005C400120E06A01200000000039B1030818
:1003C80026000E00D8D50120C8D501200000000065
:1003D800BD3901081F201C0060CF01200CD6012068
:1003E800000000008807000805020400BCD00120B6
:1003F80028D6012000000000A407000803010A0015
:100408002ACF01202CD6012000000000A8070008F0
:100418000E8062015CD8012058E001200000000035
:10042800B992020809020100D8DF0120BCE10120CD
:1004380000000000B20700080C20B4000EDD012007
:10044800C0E1012000000000B530030800020500EB
:1004580094DC012074E2012000000000000000008C
:100468001B02080074DC01207CE20120000000006F
:1004780059B1030801200800DCDE012084E20120D4
:1004880000000000B4070008190005005CDF012027
:100498008CE2012000000000BC07000837001E00A5
:1004A80034DF012094E2012000000000C2070008A8
:1004B8001E00050050DA0120B4E20120000000000F
:1004C800E00700081B00F40040D60120BCE2012030
:1004D800000000003DB101080E020200C4DD012049
:1004E800B0E3012000000000E60700082F0011001B
:1004F80000E00120B4E3012000000000E807000844
:10050800F821060066ED0120FCF001200000000043
:10051800FA07000803123300B8EC0120EBEC0120C5
:100528000000000000080008250096006CEB012080
:1005380002EC01200000000000000000150070001F
:100548009CE901200CEA01200000000000000000E6
:100558002A006000DCE801203CE9012000000000DE
:10056800919202082C00100098EC0120A8EC0120C0
:10057800000000005D1F02082B00240042ED01204E
:100588001EED012000000000311F0208291078002C
:100598007CEA0120F4EA01200000000000000000CD
:1005A80028101000C0EF012004F101200000000015
:1005B800F111020814000400D2E80120D6E8012055
:1005C80000000000340800081010030034F6012071
:1005D80060F6012000000000380800081A000E002C
:1005E800E4F4012064F60120000000003C08000843
:1005F80016000800C0FD0120B4FE01200000000024
:100608004A080008180202004FFE0120DCFE012003
:10061800000000000000000017020B0044FE01204B
:10062800E0FE012000000000D1B00308070202002C
:1006380084FE0120ECFE01200000000052080008A2
:1006480014020200B0FE0120F0FE012000000000AC
:1006580054080008FF010800A8FE0120F4FE01204C
:100668000000000015BE03080602100051FE01201C
:10067800FCFE012000000000E1B6030808120C008F
:1006880038FE01200CFF01200000000019B103080A
:100698000A020A0084F6012018FF01200000000069
:1006A8005608000803000100E4FD012024FF012092
:1006B80000000000000000001A023C002400022094
:1006C800500402200000000089BD03082700040030
:1006D800900402208C04022000000000600800083A
:1006E80002020300A00402209C0402200000000073
:1006F8000000000010020100AC040220A80402203F
:08070800000000006408000875
:10071000200003010000000000000000080040105D
:10072000000000010000054E5537320000002B216B
:10073000231E64000200000001000A012900230AB0
:100740000000900100000030030000000000730072
:1007500073006900000000000000000000000000BD
:1007600000000000020000019E077D00FA009600D4
:100770005802B80BB80BB80B2000C40900000000E9
:1007800001010101FFFFFFFF000000000001000068
:10079000000500000102030000000000000000004E
:1007A0000000000000000000040101006C160000C1
:1007B00000002F00E8036400040A00010000280183
:1007C000000020003200C800D0079600140032005C
:1007D0002800B00440060005500014000F00080176
:1007E0000000010000000000000000000000000008
:1007F000000000000000000000000201F4011400ED
:1008000000000000000000000000000000000000E8
:1008100000000000000000000000000000000000D8
:1008200000000000000000000000000000000000C8
:100830000000010003000046000500007E05EA05F7
:10084000B4050300E803D0070000C4090700B401A1
:100850002828013C000000004A01B400D601000035
:05086000200300000070
:1008650000C20100000008001A030000000000009B
:100875000000000000000000000000000000000073
:1008850000000000040309041201000202000040F8
:100895008304405700020102030100001201000217
:1008A5000000004083042A570002010203010101F0
:1008B50000600240106002400000000000000000DF
:1008C500000B000000000000000000000000000018
:1008D50000600240286002400100000000000000A6
:1008E500060C0000000000000000000000000000F1
:1008F500006002404060024002000000000000006D
:10090500100D0000000000000000000000000000C5
:100915000060024058600240030000000000000033
:10092500160E00000000000000000000000000009E
:1009350000600240706002400400000000000000FA
:10094500200F000000000000000000000000000073
:1009550000600240886002400500000000000000C1
:10096500261000000000000000000000000000004C
:1009750000600240A0600240060000000000000088
:100985003011000000000000000000000000000021
:1009950000600240B860024007000000000000004F
:1009A500362F0000000000000000000000000000DD
:1009B50000640240106402400000000000000000D6
:1009C50000380000000000000000000000000000EA
:1009D500006402402864024001000000000000009D
:1009E50006390000000000000000000000000000C3
:1009F5000064024040640240020000000000000064
:100A0500103A000000000000000000000000000097
:100A1500006402405864024003000000000000002A
:100A2500163B000000000000000000000000000070
:100A350000640240706402400400000000000000F1
:100A4500203C000000000000000000000000000045
:100A550000640240886402400500000000000000B8
:100A65002644000000000000000000000000000017
:100A750000640240A064024006000000000000007F
:100A850030450000000000000000000000000000EC
:100A950000640240B8640240070000000000000046
:100AA50036460000000000000000000000000000C5
:100AB50001000000A98B00089D8B0008658B0008CC
:100AC500798B00081D8B0008098B0008F58A000842
:100AD5005D3B0108F13A01089D6A0108000000002C
:100AE5000000000029690108616901080000000093
:100AF5000000000000000000D12F0108C12F0108EF
:100B0500B12F0108A12F010849A7000815A7000862
:100B1500EDA60008D58B00080DB9000889A60008C8
:100B2500BD8A0008C8020120008002021F000000E3
:100B350053544D202020202050726F64757420205E
:100B45002020202020202020302E30310A060002CF
:100B5500000000400100000009072000010104C059
:100B6500320904000002080650050705810240000D
:100B7500000705010240000009022000010104C030
:100B850032090400000208065005070581024000ED
:100B9500000705010240000009022000010104C010
:100BA500320904000002080650050705810200020B
:100BB50000070501020002000A06000200000040CD
:100BC5000100000009074300020104C032090400C6
:100BD50000010202010005240010010524010001A5
:100BE500042402020524060001070582030800FF0C
:100BF50009040100020A0000000705010240000087
:100C0500070581024000000009024300020100C0FF
:100C1500320904000001020201000524001001054B
:100C250024010001042402020524060001070582AF
:100C35000308001009040100020A0000000705016D
:100C450002000200070581020002000009024300BC
:100C5500020100C03209040000010202010005245E
:100C650000100105240100010424020205240600E8
:100C7500010705820308001009040100020A0000AB
:100C85000007050102400000070581024000000041
:100C950000FFFF0000000000AA5505010000012D1E
:100CA500202D2D202D2D2D2D202D2D2D2D0000001D
:100CB5000000000000000000000000000000AA5530
:100CC5000B010000AA5507010000AA550902000002
:100CD5000000000001000000C012AA5503009F009B
:100CE500FF1FFF1F9404012004000000E8D5012028
:100CF50000000000000200051002700B0000010159
:100D050001010000FDA301080000000018060120F4
:100D1500BCFD040800000000000000000000000009
:100D25000000000030FC0408000000000000000086
:100D3500AE0601200400000060FD04080D0000005F
:100D450019CE0108980A012000000000BC10050812
:100D55000D00000041CE01088C0A012000000000B2
:100D6500DCFD04080800000000000000800A0120E6
:100D750004000000CCFD04080D000000B1A401082A
:100D8500740A012000000000DC11050803000000C2
:100D950031230208680A012000000000D4FD040880
:100DA50003000000312302085C0A01200000000056
:100DB50074FC0408010000000000000000000000B1
:100DC50000000000000000000E0000000000000010
:100DD5000000000000000000BCFD04080000000049
:100DE50000000000000000000000000030FC0408C6
:100DF5000000000000000000AE0601200400000015
:100E0500F8FC040803000000A5AA0108500A012007
:100E150008000000CCFD04080D000000B1A4010885
:100E2500740A012000000000DC1105080300000021
:100E350031230208680A012000000000D4FD0408DF
:100E450003000000312302085C0A012000000000B5
:100E550074FC040801000000000000000000000010
:100E650000000000000000000E000000000000006F
:100E75000000000000000000E4FD04080000000080
:100E850000000000000000000000000030FC040825
:100E95000000000000000000AE0601200400000074
:100EA50000FD04080300000031230208A40A012004
:100EB5000000000074FC04080100000000000000B0
:100EC5000000000000000000000000000E0000000F
:100ED500000000000000000000000000207000017C
:100EE5000000803F0000803F00000000000000007F
:100EF50000000000000000000000000000000000ED
:100F0500000000000000000000000000FFFF2D2091
:100F15002D2D202D2D2D2D202D2D2D0000000000F7
:100F250000000000000000000000000000010000BB
:100F3500FFFFFFFFD0D7012088136F1701000000C6
:100F4500D2D7012088136F17000000004CFC04085D
:100F5500000000000000000000000000000000008C
:100F65005CFC04080800000000000000E006012009
:100F75000400000068FC04080800000000000000F0
:100F8500D406012000000000DC1105080400000063
:100F95007DCC0108000000000000000074FC04087E
:100FA500010000000000000000000000000000003B
:100FB500000000000E00000000000000000000001E
:100FC50000000000CED7012088136F170100000034
:100FD500ACD0012088136F170000000065A401083C
:100FE50000000000EC060120C2DD01200100000028
:100FF500C0C70408AED0012001000000CCC704081A
:10100500A4D0012002000000D4C70408066801200E
:10101500000000000000000004680120000000003E
:101025000000000002680120000000000000000030
:10103500006801200000000000000000FE6701209C
:101045000000000000000000FC6701200000000017
:1010550000000000780401200000000000000000EE
:10106500CDD7012002000000E0C70408B0FC040849
:10107500000000000000000000000000000000006B
:101085005CFC040808000000000000007007012057
:101095000400000068FC04080800000000000000CF
:1010A5006407012000000000DC11050804000000B1
:1010B50035A40108000000000000000074FC0408CD
:1010C500010000000000000000000000000000001A
:1010D500000000000E0000000000000000000000FD
:1010E50000000000C0FC0408000000000000000033
:1010F5000000000000000000D0FC04080D00000006
:10110500BDCD0108A007012004000000DCFC040897
:101115000D0000008DA401089407012004000000C3
:10112500E8FC04080D00000081CD010888070120B6
:1011350000000000F4FC040803000000C5AA010833
:101145007C0701200800000000FD040803000000E2
:1011550031230208A40A01200000000074FC0408E1
:101165000100000000000000000000000000000079
:10117500000000000E00000000000000000000005C
:101185000000000008FD0408000000000000000049
:10119500000000000000000010FD0408040000002D
:1011A50095CC0108000000000000000074FC040854
:1011B5000100000000000000000000000000000029
:1011C500000000000E00000000000000000000000C
:1011D5000000000068FD0408000000000000000099
:1011E500000000000000000078FD04080D0000006C
:1011F50000000000000801200400000080FD040834
:101205000800000000000000F407012004000000B1
:101215008CFD04080800000000000000E80701201C
:101225000400000094FD0408080000000000000010
:10123500DC070120040000009CFD040808000000F4
:1012450000000000D007012004000000A4FD0408F0
:101255000800000000000000C40701200400000091
:10126500ACFD04080800000000000000B8070120DC
:1012750004000000B4FD04080800000000000000A0
:10128500AC0701200400000074FC04080100000004
:101295000000000000000000000000000000000049
:1012A5000E0000000000000000000000000000002B
:1012B5004DA40108000000000C08012000000000FA
:1012C500000000008408012000000000000000006C
:1012D50024090120AAD0012004000000ECC704085D
:1012E500A8D00120E0150C1700000000A7D00120B0
:1012F5000800000044C00408A6D001200500000035
:1013050000C8040800000000000000007409012066
:1013150020702D7200010000000000000000000098
:10132500A02901200001010100D601FFFF000000F6
:10133500FFFFFFFFFA0000000100000001000000B0
:1013450018E401200000F4010100000016E401206A
:101355000000F4010100000014E401200000F40184
:101365000100000012E401200000F401010000006A
:1013750010E401200000F401010000000EE401204A
:101385000000F401010000000CE401200000F4015C
:1013950001000000FC0B0508000000000000000033
:1013A5000000000000000000140C0508000000000B
:1013B500000000000000000000000000340C0508DB
:1013C5000800000000000000280B012000000000BC
:1013D500400C050808000000000000001C0B01205F
:1013E500000000004C0C050808000000000000008B
:1013F500100B0120000000008416050808000000FD
:1014050000000000040B012000000000580C050836
:101415000800000000000000F80A0120000000009C
:10142500640C05080800000000000000EC0A01201B
:1014350000000000700C0508080000000000000016
:10144500E00A0120000000007C0C050802000000F5
:10145500AD230208020000000000000074FC04082F
:101465000100000000000000000000000000000076
:10147500000000000E000000000000000000000059
:10148500000000008910020849100208340B0120F1
:101495000AE401200532010008E40120E803D00731
:1014A5000100000006E40120E803D0070100000068
:1014B50004E40120E803D0070100000002E4012054
:1014C5001E00B80B0100000000E401201E00F4011D
:1014D50001000000FEE3012014006400010000008B
:1014E500FCE301200000C80001000000880C05088D
:1014F500900C0508A40C0508000000000000000081
:101505000000000000000000140C050800000000A9
:101515000000000000000000000000004800050871
:101525000800000000000000800C01200000000001
:10153500B80C05080800000000000000740C01202C
:1015450000000000CC0C05080800000000000000A9
:10155500680C012000000000E00C050808000000F0
:10156500000000005C0C012000000000F40C0508E0
:101575000800000000000000500C012000000000E1
:10158500040D05080800000000000000440C0120BF
:1015950000000000140D0508080000000000000010
:1015A500380C012000000000240D0508070000008C
:1015B50000000000300C012000000000340D05087B
:1015C5000300000031230208240C01200000000064
:1015D5007C0C050802000000AD2302080200000093
:1015E5000000000074FC0408010000000000000079
:1015F5000000000000000000000000000E000000D8
:1016050000000000000000000000000008FD0408C4
:1016150000000000000000000000000000000000C5
:101625007806050804000000F1CB01080000000061
:101635000000000074FC0408010000000000000028
:101645000000000000000000000000000E00000087
:10165500000000000000000000000000B06701204D
:101665000100C40900000000AE6701200100C409A3
:1016750000000000AC6701200100C4090000000063
:10168500AA6701200100C40900000000A667012027
:101695000100C40900000000A86701200100C40979
:1016A50000000000A46701200100C409000000003B
:1016B500A26701200100C40900000000ECD7012049
:1016C5000000FFFF0A000000EAD701200100C80062
:1016D50001000000E8D7012032003075320000001B
:1016E500E6D70120055A0500E3D7012000FF0100D8
:1016F500E5D70120010000008C0C0120E1D7012075
:101705000200000094C70408E2D7012000FF010091
:10171500E4D70120010000008C0C0120E0D7012056
:101725000200000094C70408DED7012080C1803E76
:1017350005000000DCD7012080C1803E05000000C7
:10174500DAD7012080C1803E05000000D8D70120EE
:1017550080C1803E05000000D7D7012000FF0100B1
:10176500D6D701200A320100D5D701200400000098
:101775004CD30408D4D701200200000060D304082C
:1017850011100208D90F0208940C01201EE4012053
:10179500EE02CA08010000001CE4012000C8010097
:1017A500640000001BE4012000C801006400000083
:1017B5001AE40120020000006CD3040800000000B8
:1017C50000000000AC0D01206CD001209CFF2C0115
:1017D500000000009F0401200A00000078D30408DF
:1017E500CAD70120E0150C1700000000A104012054
:1017F5000800000044C00408A00401200500000002
:1018050000C80408CCD701200200000090D30408CA
:101815002AE401200100FF7F0100000029E40120E6
:10182500020000009CD30408D0D901200000F40177
:1018350001000000CED901200000F40101000000E4
:10184500CCD901200000F40101000000CAD9012013
:101855000000F40101000000E0D901200100803EF4
:1018650005000000DCD901200000803E6400000076
:10187500DAD901200000803E64000000D8D901209B
:101885000000803E64000000DED901200300000254
:1018950001000000D6D90120C800E80301000000BE
:1018A500D4D901201E00E80301000000D2D901208F
:1018B5000000E80301000000C8D901200000803EB7
:1018C50001000000C6D901200000803E0100000093
:1018D500C4D901200000803E01000000C2D90120CA
:1018E5000000803E01000000C0D901200000803EBC
:1018F50001000000BED901200000803E010000006B
:10190500E3E3012019640100E7E30120006401001D
:10191500E6E3012000640100E5E301200A3201004D
:10192500E4E3012003000000ACD30408E0E3012058
:10193500E803D0070A000000DEE3012000FA0100F9
:101945000A000000DDE3012000FA01000A000000A2
:10195500DCE3012000FA01000A000000CBE30120CE
:1019650000640100CAE3012000640100D2E3012004
:10197500006401000A000000D1E3012000640100B9
:101985000A000000D0E30120006401000A00000005
:10199500D5E30120006401000A000000D4E3012022
:1019A500006401000A000000D3E301200064010087
:1019B5000A000000CFE3012000FF01000A0000003B
:1019C500CEE3012000FF01000A000000CDE3012065
:1019D50000FF01000A000000DBE30120005F0100B9
:1019E5000A000000DAE30120005F01000A000000A0
:1019F500D9E30120005F01000A000000D8E30120BF
:101A0500005F01000A000000D7E3012019AF0100C3
:101A15000A000000D6E3012019AF01000A0000000A
:101A25004AD80120000A010049D80120000A010016
:101A350048D80120000A01005AD8012000FA010007
:101A450059D8012000FA010058D8012000FA0100F8
:101A550056D801200000F4010100000054D80120EF
:101A65000000F4010100000052D801200000F4013B
:101A75000100000050D801200000F4010100000021
:101A85004ED801200000F401010000004CD80120CF
:101A95000000F40101000000F6D90120FF08010053
:101AA500F5D9012001640100F4D901200064010089
:101AB500F3D9012001000000BCD30408F2D90120AC
:101AC50000C80100F0D901200000D0070100000086
:101AD500EFD9012000C80100EED9012000C801009E
:101AE500EDD9012000C80100ECD9012000C8010092
:101AF500EBD9012000FA01000A000000E8D9012015
:101B050000FA01000A000000E5D9012000FA0100F1
:101B15000A000000EAD9012000FA01000A000000CD
:101B2500E7D9012000FA01000A000000E4D90120EC
:101B350000FA01000A000000E9D9012000FA0100BD
:101B45000A000000E6D9012000FA01000A000000A1
:101B5500E3D9012000FA01000A000000EAE30120B0
:101B6500010A0100F2E3012000FA0100F0E301207F
:101B75000000E80305000000FBE3012000C80100A8
:101B8500FAE3012000C80100F9E3012000C80100C3
:101B9500F8E3012000C80100F7E3012000C80100B7
:101BA500F6E3012000C80100F5E3012000C80100AB
:101BB500F4E3012000C80100F3E3012000C801009F
:101BC500EEE3012000FA0100ECE301200000E80348
:101BD50005000000E9E30120006401005C0D050833
:101BE50000000000000000000000000000000000F0
:101BF500C01505080900000000000000500E012076
:101C050004000000D81505080900000000000000C8
:101C1500440E012004000000D0170508090000004B
:101C250000000000380E012004000000ACFF04088D
:101C350009000000000000002C0E01200400000037
:101C45006C0D05080900000000000000200E0120B1
:101C550004000000740D05080900000000000000E4
:101C6500140E0120040000007C0D05080900000089
:101C750000000000080E012004000000840D050886
:101C85000900000000000000FC0D01200400000018
:101C950074FC0408010000000000000000000000C2
:101CA50000000000000000000E0000000000000021
:101CB5000000000000000000980F0508000000006B
:101CC5000000000000000000000000008836050844
:101CD5000700000000000000800E01200000000049
:101CE500A80F05080800000000000000740E012080
:101CF50000000000B40F0508080000000000000007
:101D0500680E012000000000BC0F05080800000057
:101D1500000000005C0E0120000000007C0C05089E
:101D250002000000AD2302080100000000000000D1
:101D350074FC040801000000000000000000000021
:101D450000000000000000000E0000000000000080
:101D55000000000000000000CC0F05080000000096
:101D6500000000000000000000000000DC0F050876
:101D75000D00000000000000BC0E01200000000066
:101D8500E40F05080D00000000000000B00E012062
:101D950000000000EC0F050807000000000000002F
:101DA500A80E012000000000F40F05080D0000003A
:101DB500000000009C0E012000000000FC0F05083B
:101DC5000D00000000000000900E01200000000042
:101DD500041005080700000000000000880E01201F
:101DE500000000007C0C050802000000AD2302087D
:101DF500010000000000000074FC04080100000060
:101E050000000000000000000000000000000000CD
:101E15000E000000000000000000000000000000AF
:101E25000C10050800000000000000000000000084
:101E350000000000883605080C00000000000000C6
:101E4500EED7012000000000201005080C0000005E
:101E550000000000F0D70120000000003010050848
:101E65000C0000000000000026D801200000000042
:101E7500401005080C000000000000001AD80120E1
:101E850000000000541005080C00000000000000D0
:101E9500F2D7012000000000601005080C000000CA
:101EA50000000000F4D701200000000068100508BC
:101EB5000C00000000000000F6D701200000000023
:101EC5007C1005080C00000000000000F8D7012078
:101ED50000000000841005080C0000000000000050
:101EE500FAD70120000000008C1005080C00000046
:101EF5000000000038D8012000000000A4100508EB
:101F05000C00000000000000FCD7012000000000CC
:101F1500B01005080C00000000000000FED70120ED
:101F250000000000441205080C000000000000003D
:101F350000D8012000000000B81005080C000000C2
:101F45000000000002D8012000000000C4100508B0
:101F55000C0000000000000004D801200000000073
:101F6500D01005080C0000000000000006D8012074
:101F750000000000DC1005080C0000000000000057
:101F850008D8012000000000E81005080C0000003A
:101F9500000000000AD8012000000000F410050828
:101FA5000C000000000000001ED801200000000009
:101FB500FC1005080C000000000000001CD80120E2
:101FC50000000000041105080C00000000000000DE
:101FD5002AD8012000000000101105080C0000009F
:101FE500000000002CD80120000000001C1105088D
:101FF5000C0000000000000032D8012000000000A5
:1020050058F704080C000000000000000CD801205F
:1020150000000000CCFD04080C00000000000000DA
:1020250014D8012000000000281105080C0000004C
:10203500000000000ED80120000000003411050842
:102045000C0000000000000010D801200000000076
:10205500401105080C0000000000000012D8012006
:1020650000000000481105080C00000000000000F9
:1020750016D801200000000020FE04080C00000016
:102085000000000020D801200000000054110508C0
:102095000C0000000000000018D80120000000001E
:1020A500601105080C0000000000000028D8012080
:1020B500000000006C1105080C0000000000000085
:1020C50022D8012000000000741105080C00000052
:1020D5000000000024D80120000000007C11050844
:1020E5000C000000000000002ED8012000000000B8
:1020F500841105080C0000000000000030D8012004
:10210500000000008C1105080C0000000000000014
:1021150040D801200000000074FC04080100000004
:1021250000000000000000000000000000000000AA
:102135000E0000000000000000000000000000008C
:1021450094110508000000000000000000000000D8
:1021550000000000A01105080D00000000000000AF
:10216500140F012000000000A81105080D00000053
:1021750000000000080F012000000000B011050854
:102185000700000000000000000F01200000000013
:10219500BC1105080700000000000000F80E012032
:1021A50000000000C811050809000000000000003B
:1021B500EC0E012000000000D41105080900000004
:1021C50000000000E00E012000000000E0110508FD
:1021D5000900000000000000D40E012000000000EE
:1021E500F01105080900000000000000C80E0120DC
:1021F500000000007C0C050802000000AD23020869
:10220500010000000000000074FC0408010000004B
:1022150000000000000000000000000000000000B9
:102225000E0000000000000000000000000000009B
:102235000412050800000000000000000000000076
:1022450000000000140C050800000000000000005C
:102255000000000000000000141205080D00000039
:1022650000000000500F01200000000020120508AA
:102275000B00000000000000440F012000000000DA
:102285002C1205080B00000000000000380F01208B
:10229500000000003C1205080800000000000000D6
:1022A5002C0F01200000000050120508030000005B
:1022B50031230208200F0120000000007C0C0508D6
:1022C50002000000AD23020802000000000000002B
:1022D50074FC04080100000000000000000000007C
:1022E50000000000000000000E00000000000000DB
:1022F50000000000000000005C120508000000005E
:102305000000000000000000000000006C1205083D
:10231500050000000000000047D801200000000073
:102325007C0C050802000000AD2302080100000036
:102335000000000074FC040801000000000000001B
:102345000000000000000000000000000E0000007A
:1023550000000000000000000000000074120508E5
:102365000000000000000000000000000000000068
:102375004349050800000000000000003F0401205B
:1023850004000000801205080D00000055CC01086E
:10239500A40F01200000000060FD04080D000000EE
:1023A500B5A30108980F012000000000BC10050826
:1023B5000D00000099A301088C0F0120000000000A
:1023C500DCFD04080800000000000000800F01206B
:1023D50004000000CCFD04080D000000E3A2010884
:1023E500740F012000000000841205080900000098
:1023F50000000000680F012004000000DC11050842
:1024050003000000312302085C0F012000000000DA
:1024150074FC04080100000000000000000000003A
:1024250000000000000000000E0000000000000099
:1024350000000000000000008C12050800000000EC
:102445000000000000000000000000009C120508CC
:102455000D00000000000000BC0F0120000000007E
:10246500A41205080A00000000000000D6E60120BD
:1024750000000000B01205080A000000000000007E
:10248500DEE6012000000000B81205080A00000081
:1024950000000000E6E6012000000000C01205086B
:1024A5000800000000000000B00F0120000000003F
:1024B5007C0C050802000000AD23020801000000A5
:1024C5000000000074FC040801000000000000008A
:1024D5000000000000000000000000000E000000E9
:1024E500000000000000000000000000C812050800
:1024F50000000000000000000000000000000000D7
:10250500DC120508080000000000000094100120FE
:1025150000000000EC1205080800000000000000A3
:102525008810012000000000FC12050808000000CA
:10253500000000007C100120000000000C130508BD
:1025450008000000000000007010012000000000DD
:102555001C1305080800000000000000641001209D
:10256500000000002C130508080000000000000012
:1025750058100120000000003C1305080800000069
:10258500000000004C100120000000004813050861
:1025950008000000000000004010012000000000BD
:1025A5005813050808000000000000003410012041
:1025B5000000000068130508080000000000000086
:1025C5002810012000000000701305080800000015
:1025D500000000001C100120000000007813050811
:1025E500080000000000000010100120000000009D
:1025F50080130508080000000000000004100120F9
:102605000000000088130508080000000000000015
:10261500F80F0120000000009813050808000000CD
:1026250000000000EC0F012000000000A4130508C5
:102635000800000000000000E00F0120000000007D
:10264500B01305080800000000000000D40F0120A9
:1026550000000000BC130508080000000000000091
:10266500C80F0120000000007C0C050802000000D6
:10267500AD230208010000000000000074FC0408FE
:102685000100000000000000000000000000000044
:10269500000000000E000000000000000000000027
:1026A50000000000C813050800000000000000003D
:1026B500B00A012000000000D41305080B0000003B
:1026C50000000000B411012000000000E41305081B
:1026D5000B00000000000000A81101200000000010
:1026E500F01305080B000000000000009C110120FC
:1026F50000000000001405080B00000000000000A9
:1027050090110120000000000C1405080B000000CA
:1027150000000000841101200000000020140508BD
:102725000B000000000000007811012000000000EF
:10273500301405080B000000000000006C1101209A
:10274500000000003C1405080B000000000000001C
:102755006011012000000000481405080B0000006E
:102765000000000054110120000000005414050869
:102775000B000000000000004811012000000000CF
:10278500601405080B000000000000003C1101204A
:10279500000000006C1405080B000000000000009C
:1027A5003011012000000000781405080B0000001E
:1027B5000000000024110120000000008414050819
:1027C5000B000000000000001811012000000000AF
:1027D500901405080B000000000000000C110120FA
:1027E500000000009C140508070000000000000020
:1027F5000411012000000000A414050807000000D2
:1028050000000000FC10012000000000B0140508C5
:102815000B00000000000000F01001200000000087
:10282500BC1405080B00000000000000E4100120A6
:1028350000000000C81405080B000000000000009F
:10284500D810012000000000D4140508080000007D
:1028550000000000CC10012000000000E414050871
:102865000D00000000000000C01001200000000065
:10287500F41405080700000000000000B81001204E
:102885000000000004150508070000000000000016
:10289500B010012000000000141505080700000015
:1028A50000000000A8100120000000002415050804
:1028B5000700000000000000A0100120000000003B
:1028C5007C0C050802000000AD2302080100000091
:1028D5000000000074FC0408010000000000000076
:1028E5000000000000000000000000000E000000D5
:1028F5000000000000000000000000003815050879
:1029050000000000000000000000000000000000C2
:102915004C15050808000000000000002C120120DD
:10292500000000005C15050808000000000000001C
:1029350020120120000000006C15050808000000A9
:102945000000000014120120000000007C1505089D
:10295500080000000000000008120120000000002F
:102965008C1505080800000000000000FC1101207E
:1029750000000000A0150508080000000000000088
:10298500F011012000000000B01505080700000047
:1029950000000000E811012000000000C81505082E
:1029A5000700000000000000E01101200000000009
:1029B500E01505080700000000000000D8110120FF
:1029C50000000000F41505080700000000000000E5
:1029D500D0110120000000000416050807000000C2
:1029E50000000000C81101200000000018160508AD
:1029F5000700000000000000C011012000000000D9
:102A05007C0C050802000000AD230208010000004F
:102A15000000000074FC0408010000000000000034
:102A25000000000000000000000000000E00000093
:102A35000000000000000000000000002816050846
:102A450000000000000000007C06012000000000DE
:102A5500381605080B00000000000000F0120120E8
:102A650000000000441605080B00000000000000EF
:102A7500E412012000000000501605080B000000BC
:102A850000000000D8120120000000005C160508B7
:102A95000B00000000000000CC1201200000000027
:102AA500681605080B00000000000000C012012098
:102AB50000000000741605080B000000000000006F
:102AC500B412012000000000801605080B0000006C
:102AD50000000000A8120120000000008C16050867
:102AE5000B000000000000009C1201200000000007
:102AF500981605080B000000000000009012012048
:102B050000000000A41605080700000000000000F2
:102B15008812012000000000B0160508070000001B
:102B2500000000008012012000000000BC1605080E
:102B350007000000000000007812012000000000DE
:102B4500CC160508070000000000000070120120E7
:102B550000000000DC160508080000000000000069
:102B65006412012000000000E416050807000000BB
:102B7500000000005C12012000000000F0160508AE
:102B85000D000000000000005012012000000000B0
:102B9500001705080700000000000000481201208A
:102BA500000000000C1705080700000000000000E9
:102BB50040120120000000001C1705080600000057
:102BC5000000000038120120000000007C0C050800
:102BD50002000000AD230208010000000000000013
:102BE50074FC040801000000000000000000000063
:102BF50000000000000000000E00000000000000C2
:102C050000000000000000002C170508000000006F
:102C1500000000007C0601200000000044170508A4
:102C250007000000000000007413012000000000F0
:102C35005017050808000000000000006813012077
:102C4500000000005C1705080700000000000000F8
:102C55006013012000000000681705080700000048
:102C6500000000005813012000000000701705083F
:102C750007000000000000005013012000000000C4
:102C85007817050807000000000000004813012020
:102C950000000000601605080700000000000000A5
:102CA50040130120000000006C1605080700000015
:102CB5000000000038130120000000007816050808
:102CC5000700000000000000301301200000000094
:102CD50080170508070000000000000028130120E8
:102CE500000000008817050807000000000000002C
:102CF50020130120000000009017050807000000C0
:102D050000000000181301200000000098170508B6
:102D150008000000000000000C1301200000000066
:102D2500A817050807000000000000000413012093
:102D350000000000B81705080700000000000000AB
:102D4500FC120120000000007C0C050802000000B8
:102D5500AD230208010000000000000074FC040817
:102D6500010000000000000000000000000000005D
:102D7500000000000E000000000000000000000040
:102D8500000000000000000005A701087C130120D9
:102D950045D801202C000000C4D3040844D80120E4
:102DA50000C8010042D80120E803D0070100000057
:102DB5004E55434C454F46373232000045A6010873
:102DC50015A6010858140120D1A5010885A50108FB
:102DD500F81401208DA6010875A60108C01501206B
:102DE50029A50108D5A40108E0180120F51002085D
:102DF500C9100208D019012019A7010869CE0108D8
:102E0500981A012021A3010800000000FC1A0120E6
:102E15002D21020855110208D81B012099A8010887
:102E25001DA801088C1C0120A50E0208ED0E020844
:102E3500441E0120C8E3012001060100A9A70108DD
:102E450041A701089C20012015A9010899CE010878
:102E5500DC2101201D0F020861200208A8230120A2
:102E6500E2D9012001030100C01705080000000098
:102E7500000000000000000000000000CC1705085D
:102E850008000000000000004425012000000000AB
:102E9500D417050807000000000000003C250120AC
:102EA50000000000E41705080D0000000000000008
:102EB5003025012000000000F01705080300000080
:102EC5003123020824250120000000007C0C0508A0
:102ED50002000000AD230208010000000000000010
:102EE50074FC040801000000000000000000000060
:102EF50000000000000000000E00000000000000BF
:102F05000000000000000000F817050800000000A0
:102F1500000000000000000000000000081805087F
:102F25000A000000000000008CF604080000000004
:102F3500101805080A0000000000000097F90408B1
:102F450000000000181805080A0000000000000035
:102F550020E4012000000000201805080A000000F8
:102F650000000000502501200000000074FC04084A
:102F7500010000000000000000000000000000004B
:102F8500000000000E00000000000000000000002E
:102F950000000000281805080000000000000000DF
:102FA50000000000000000003418050803000000C0
:102FB500312302087425012000000000401805088F
:102FC50003000000312302086825012000000000ED
:102FD5004818050803000000312302085C2501207C
:102FE500000000007C0C050802000000AD2302086B
:102FF500010000000000000074FC0408010000004E
:1030050000000000000000000000000000000000BB
:103015000E0000000000000000000000000000009D
:103025005018050800000000000000000000000026
:1030350000000000641805080300000031230208A1
:10304500B0250120000000007018050803000000ED
:1030550031230208A40401200000000078180508A7
:103065000300000031230208A42501200000000010
:103075008018050803000000312302089825012067
:1030850000000000180005080300000031230208B5
:103095008C25012000000000CCFD04080300000081
:1030A5003123020880250120000000007C0C050862
:1030B50002000000AD23020801000000000000002E
:1030C50074FC04080100000000000000000000007E
:1030D50000000000000000000E00000000000000DD
:1030E50000000000000000008C180508000000002A
:1030F5000000000000000000000000009C1805080A
:1031050007000000ED200208002601200000000055
:10311500441105080300000031230208F4250120AD
:1031250000000000A818050803000000312302086C
:10313500E825012000000000B01805080300000084
:1031450031230208DC25012000000000B81805081D
:1031550007000000D1200208D4250120000000004E
:10316500CCFF04080300000031230208C825012014
:1031750000000000C4180508030000003123020800
:10318500BC250120000000007C0C050802000000A1
:10319500AD230208010000000000000074FC0408D3
:1031A5000100000000000000000000000000000019
:1031B500000000000E0000000000000000000000FC
:1031C50000000000D5A60108A5A6010808260120D3
:1031D5002111020800000000A826012081A5010890
:1031E5007DA5010834270120000000000000000033
:1031F500C0270120A90F02080D21020888280120F7
:10320500D0180508000000000000000000000000C4
:1032150000000000F8FD0408030000003123020847
:103225009429012000000000DC18050803000000B7
:1032350031230208882901200000000088F70408CE
:1032450003000000312302087C2901200000000052
:10325500E818050803000000312302087029012041
:1032650000000000F41805080300000031230208DF
:103275006429012000000000FC1805080200000078
:10328500AD23020800000000000000007C0C0508CA
:1032950002000000AD23020801000000000000004C
:1032A5000419050802000000AD2302080200000011
:1032B50000000000000000000E00000000000000FB
:1032C50000000000000000000000803F000000003A
:1032D50000000000000000000000803F000000002A
:1032E50000000000000000000000803F000000001A
:1032F5000000000000000000FFFFFFFF0000803F0E
:1033050000000000CCFE01200800000000000000C5
:10331500BCFE012008000000E53B0108193B01083F
:10332500E96B010800000000213001088130010827
:103335004D30010800000000000000000000000002
:103345000130010811300108F12F0108E12F0108B2
:10335500D9A70008C18A0008398A00081D8A000813
:1033650068F30408050804000000000000C804080C
:1033750044C00408ECC70408000000000000000079
:1033850094F3040805080A000000000000C80408BA
:1033950044C0040878D304080000000000000000C1
:1033A500685E0C00FF010102FFFF0000B001000094
:1033B5000200000009000000FF000000602B012052
:1033C50000000000000000000000000000000000F8
:1033D50000000000000000000000000000000000E8
:1033E50000000000000000000000000000000000D8
:1033F50000000000000000000000000000000000C8
:1034050000000000000000000000000000000000B7
:1034150000000000000000000000000000000000A7
:10342500D4F60408DCF6040800000000093103089E
:10343500A08601000400000000000000000000005C
:103445000000000000000000000000000000000077
:1034550000000000D4F60408E4F6040800000000AB
:10346500F9B60308E80300000400000000000000AE
:103475000000000000000000000000000000000047
:10348500000000000000000044110508ECF60408E7
:1034950000000000BD0D00007D00000006000000DA
:1034A5000000000000000000000000000000000017
:1034B500000000000000000000000000F4F6040811
:1034C5000000000000000000310E0408E8030000C1
:1034D50005000000000000000000000000000000E2
:1034E50000000000000000000000000000000000D7
:1034F500F8F604080000000000000000BD95020871
:10350500C4090000050000000000000000000000E4
:1035150000000000000000000000000000000000A6
:103525000000000004F7040800000000151D020853
:1035350081E503086A18000005000000000000008E
:103545000000000000000000000000000000000076
:1035550000000000000000007C38050800000000A5
:10356500000000005D17040810270000010000009E
:103575000000000000000000000000000000000046
:1035850000000000000000000000000008F704082B
:10359500000000000000000059AB0308E80300002C
:1035A5000500000000000000000000000000000011
:1035B5000000000000000000000000000000000006
:1035C50014F7040800000000000000004D57030830
:1035D500204E000003000000000000000000000075
:1035E50000000000000000000000000000000000D6
:1035F5000000000024F7040800000000000000009F
:1036050031550308204E00000300000000000000B3
:1036150000000000000000000000000000000000A5
:10362500000000000000000034F70408000000005E
:1036350000000000F9BE0308400D03000300000070
:103645000000000000000000000000000000000075
:1036550000000000000000000000000044F704081E
:103665000000000000000000A1D90108102700009B
:103675000300000000000000000000000000000042
:103685000000000000000000000000000000000035
:1036950048F704080000000000000000616B020804
:1036A500A0860100010000000000000000000000ED
:1036B5000000000000000000000000000000000005
:1036C5000000000050F704080000000000000000A2
:1036D500B1B5030850C30000010000000000000060
:1036E50000000000000000000000000000000000D5
:1036F500000000000000000058F70408000000006A
:103705000000000049B30308A861000001000000A3
:1037150000000000000000000000000000000000A4
:1037250000000000000000000000000064F704082D
:103735000000000000000000CDF50108A086010092
:103745000100000000000000000000000000000073
:103755000000000000000000000000000000000064
:1037650070F704080000000000000000D5220408DE
:10377500A00F000001000000000000000000000094
:103785000000000000000000000000000000000034
:10379500000000007CF704080000000000000000A5
:1037A5000DAD010810270000010000000000000019
:1037B5000000000000000000000000000000000004
:1037C500000000000000000088F704080000000069
:1037D50000000000A90502081A41000001000000D0
:1037E50000000000000000000000000000000000D4
:1037F5000000000000000000000000008CF7040835
:1038050000000000000000009136010810270000AC
:1038150001000000000000000000000000000000A2
:103825000000000000000000000000000000000093
:1038350098F7040800000000000000001D5302086E
:103845001A41000001000000000000000000000017
:103855000000000000000000000000000000000063
:10386500000000009CF704080000000000000000B4
:10387500017D0108400D030000000000000000006C
:103885000000000000000000000000000000000033
:103895000000000000000000A4F70408000000007C
:1038A5000000000045320308400D03000000000041
:1038B5000000000000000000000000000000000003
:1038C500000000000000000000000000ACF7040844
:1038D50000000000000000004DE7010850C3000093
:1038E50003000000000000000000000000000000D0
:1038F50000000000000000000000000000000000C3
:10390500B8F704080000000000000000A9540308EF
:1039150040420F0000000000000000000000000011
:103925000000000000000000000000000000000092
:1039350000000000C4F704080000000000000000BB
:103945009D31030850C30000000000000000000086
:103955000000000000000000000000000000000062
:103965000000000000000000B9200000B9200000A0
:108000000129F0B42A4C4FF000062A4D94BF0027F6
:1080100001272368EE626662A6626763676B47EAC0
:1080200042076763EE63EC6B002A38D144F4957421
:10803000EC631C6824F001041C601C68E407FCD499
:10804000490289085960D8601968EAB921F04001ED
:10805000196019498B421DD018494FF47410C8603B
:10806000196841F01E011960596941F08001596198
:10807000196841F00101196022B90E4AD36A43F030
:108080000803D362F0BC704741F0400119600A490F
:108090008B42E1D14FF0746041F8500CE0E744F0BE
:1080A0001A04EC63EC6A44F00804EC62C1E700BF18
:1080B000C02B0120002C01405864024000640240A3
:1080C0002DE9F04F022389468A462DED108B99B099
:1080D000DFEDCABA14930346169004331592179332
:1080E0004FEADA06169DDDF85CC04FEACA0305EBDD
:1080F00046111396F0004FF0000B01EB0614370108
:108100000390A6EB86020194049706EB460E04EB5F
:10811000C202041D381D06EB86072C44C6EBC608B8
:1081200002972844029D02EB46174FEAC808ED006B
:1081300001EBC60602954FEA0E1505954FEACE05EE
:108140000695139D4FEA451E019D95ED007AD34497
:1081500092ED005AD7ED004AD945D1ED006A50EDB5
:10816000013A35EE241AD6ED002A1CED016A73EEB1
:10817000875A54ED017A33EEC73A36EE264A77EE47
:10818000A21A36EE666A77EEE27A74EE256A71EE2E
:10819000812A77EE633A37EEC57A36EEA22A77EE79
:1081A000E47A76EEE26A0CED012A37EE247A77EE75
:1081B000857AD1ED018AC1ED006A74EE655A96EDBB
:1081C000015AB0EE460A94ED004AA7EE2B6AD2EDB2
:1081D000010AE7EEAB3A74EE456AD7ED012AA7EE45
:1081E0006B0A9CED007AD5ED014A34EE054A37EE74
:1081F000689A90ED005A36EEE02A76EEE26A30EEAA
:10820000A28A32EE222A76EEA06AF0EE492A75EEB4
:10821000640A37EE287A75EE249AE2EE6B2A74EE41
:10822000C54AF0EE608AB0EE40AAE6EEAB4AE6EE52
:10823000AB8AA6EEEBAAF0EE496AB0EE629A37EE90
:10824000695AE2EE2B6AB0EE432A74EE08AAA7EE52
:10825000EB9AA7EEAB2A77EE297A35EE617A75EEC6
:10826000C89A35EE415A75EEC45A37EEAABA77EE7F
:10827000EA7A37EE011A8CED00BA36EE287AC1EDB3
:10828000017A39EE844A76EEC27A194475EE885A3C
:108290009C4435EE215A00ED014A70EE8A0A70EED8
:1082A000244AC5ED005A36EE686A80ED001A72EE77
:1082B000A33A85ED015A33EE093A04ED017A72EEE4
:1082C000266A87ED006A1D44C6ED000A1844C2ED17
:1082D000004AC4ED007A1C44C7ED016A1F44C6ED94
:1082E000013A1E4482ED013A1A443FF62EAF139A2A
:1082F000072A40F2C681039A0EF1080E169F08F174
:1083000008000832029E059D4FF0000894463A4648
:10831000083608357244069C0499D346109207EB40
:108320000C0208340C310F92BA190E927A190D9280
:108330003A190C923A180B927A18099207F10C022A
:108340000A9201220892149ADDF824C09044159AEA
:108350000A9F02EBC8020B9EA8EB880E0C9D02EB55
:10836000C80192ED00BA0D9C01EBC802D1ED00AA44
:108370000E9802EBC80192ED00AA01EBC802D1ED04
:10838000009A02EBC80192ED009A01EBC802D1ED10
:10839000008A0F9902EB0E1E92ED008A109A0EEBE6
:1083A000C80ADEED017A1192CDED047A0AEBC8021B
:1083B000DAED017A02EBC80A1291CDED057AD2ED21
:1083C000017A0AEBC802DDF820E0CDED017ADAEDA2
:1083D000017A02EBC80ACDED067AD2ED017A0AEBFA
:1083E000C802CDED027ADAED017ACDED077AD2ED51
:1083F000017ADDE91121CDED037A01E0F304353F87
:1084000017ED017ADE44D2ED007A94ED005AF14581
:10841000D5ED006A37EE274AD0ED004A77EE677A4D
:108420001CED016A96ED007A91ED001A76EE055A80
:1084300036EE872A97ED00DA71EE24EA76EE453AB9
:1084400074EE252A31EE641A35EE466A3EEE825A03
:1084500074EE655A31EE664A72EE854A31EE471A7D
:10846000B0EE67CA47ED014A34EE077AD1ED014A12
:1084700031EE261AD0ED016A72EEC52A95ED014A59
:10848000A7EE6BCA74EEE60A96ED010AE7EE2B7AC8
:1084900092ED017A94ED015A74EEA64A3DEE473A08
:1084A000DCED006A70EEC4CA70EEC00AB0EE43EABA
:1084B0007CEE80CA74EE001A70EE840AACEEEBEA31
:1084C00036EEC54A3DEE077AB0EE63DA36EE850A3F
:1084D000ACEEAB3AF0EE4EDAA1EE2BDAA1EE2B6A5F
:1084E000E1EE6BDA75EE666AB0EE441AF0EE4CCA55
:1084F00037EE405AA0EEAB1AE0EEEBCAE0EEAB6A04
:1085000037EE007A74EEA10A35EEE1FA75EEE45A20
:1085100075EE6EFA37EE600A71EEA55ADDED061AB9
:1085200035EE425A7FEE244A3FEE822A22EEE1FAED
:1085300061EE80FADDED051A3EEE855A3EEE066AE2
:1085400073EEAD3A21EE82EA73EE4DDA3DEE033A78
:1085500024EEE1DADDED071A34EE2C4A7CEE266AD1
:1085600061EE85CA25EEE1CADDED041A77EE81EAF7
:1085700077EEC17AE9EEA2FADDED032AA9EE80FAE0
:108580009DED030AAAEEA4EADDED014AAAEE82DA25
:108590009DED012AE8EEA5CADDED025AA8EE85CAD6
:1085A0009DED025A21EEAD1A62EE832A6EEEE11ABB
:1085B00027EEC00A64EEA34A26EEC22A65EE865A6A
:1085C00024EE455AABEE2E1AEBEE2D1AE8EE272AD2
:1085D000A8EE030AEAEE264AAAEE232AE9EE045A96
:1085E000A9EE065A37EE207A87ED007A1F44C2EDD5
:1085F00000FA82ED01FA1A440CED01EA8CED00DA82
:108600009C44C4ED00CA84ED01CA1C4481ED001AEB
:10861000C1ED011A1944C6ED002A86ED010A1E4477
:10862000C0ED005A80ED015A1844C5ED004A85EDB1
:10863000012A1D443FF6E4AE1099089A0831013230
:1086400010910F99089208310F910E9908310E91EF
:108650000D9908310D910C9908310C910B99083145
:108660000B910A9908310A910999083109911399D6
:1086700091427FF468AE149B8A46DB009BB2149350
:108680002EE519B0BDEC108BBDE8F08F9FED747A2C
:1086900007EE901A20EE070AF8EE677A27EE800AB6
:1086A000FDEEC07A17EE903A2033402B00F2C880DE
:1086B000DFED6C7AB4EEE70AF0EE407AF1EE10FAF4
:1086C0000CDD9FED696ADFED696AB0EE677A77EEDF
:1086D000C67AB4EEE67AF1EE10FAF6DC9FED647A33
:1086E000F4EEC77AF1EE10FA0CD59FED5F6ADFED7C
:1086F000616AB0EE677A77EE867AB4EEE67AF1EEEA
:1087000010FAF6D49FED5C7AF4EEC77AF1EE10FA27
:1087100040F386809FED537A77EE677A67EEA75A2B
:108720009FED565A9FED566AB6EE007ADFED556A18
:10873000A5EE856A27EEA55AE5EE866AE5EE267A6D
:1087400027EE877ADFED4C6A70EE267ABDEEE76A97
:1087500016EE103A2033402B6FD8B4EEE60AF1EE55
:1087600010FA0CDDDFED405A9FED406AF0EE676ACB
:1087700077EEE57AF4EEC66AF1EE10FAF6DCDFED9C
:108780003C6AF4EEE67AF1EE10FA0CD5DFED365ADB
:108790009FED386AF0EE676A77EEA57AF4EEC66A66
:1087A000F1EE10FAF6D4DFED346AF4EEE67AF1EE8B
:1087B00010FA48DDDFED2B6A76EEE77A67EEA75A0E
:1087C000DFED2E4A9FED2E6AB8EE005ADFED2D6ADE
:1087D000A5EEA46A67EEA54AE5EE866AE4EEA67AFF
:1087E00067EE857AC7EE206A0023836143610362E6
:1087F000B7EE006AC36176EE865A76EE666A86EE5A
:10880000257A67EE277A80ED007A66EE876A80ED3A
:10881000027AC0ED017AC0ED037AC0ED046A7047B8
:108820009FED197AF4EEC77AF1EE10FA7FF576AF84
:108830009FED0F7A77EE677A70E7DFED147AD1E774
:108840009FED127A7EE7DFED106AF4EEE67AF1EE44
:1088500010FAB3D5DFED066A76EEE77AAEE700BF31
:1088600027D4D236DB0F4940DB0FC940E4CB164199
:10887000DB0F49C0E4CB16C1DB0FC93F92E741B91A
:108880009730083C15A82ABEDB0FC9BF00000000C6
:10889000114A124BB2F95A20DFED116A07EE902A05
:1088A00093ED117AF8EEE77AB0EEC77A77EEE67AD2
:1088B000F4EEC77AF1EE10FA0ADDD3F8CC1344F6E1
:1088C0002062401A904205DD002283F8D0237047D1
:1088D000C3F8CC03704700BFC02B01205005002017
:1088E0000000C842174BDFED186AD3ED087A93ED0C
:1088F0000F7A67EEA67AB0EEC77AF4EEC77AF1EE99
:1089000010FA08DD93ED107AB0EEC77AF4EEC77A6C
:10891000F1EE10FA02DCC3F8C403704793ED117A4C
:10892000B0EEC77AF4EEC77AF1EE10FAF3DDD3F8C1
:10893000C4134CF25032401A9042EEDD002283F80C
:10894000C8237047500500200008ED46037870B436
:1089500033B30246C0F10105531912F8014FDBB2DF
:10896000002CF9D101335B00DAB20F4C03250B80E8
:1089700084F8702084F87150017879B102230026C0
:108980005A1CE518023354FA82F285F87010DBB2F3
:1089900082F8706010F8011F0029F1D170BC704797
:1089A00002221346E1E700BFC02B012030B5EFF3F0
:1089B0001181802383F312880A4AD2F87031D2F8E9
:1089C0007441D2F87001D2F87451CAB282F311889E
:1089D000013BA84294BF4FF4006000201B1B1844C9
:1089E00030BD00BFC02B0120012380F84D307047FF
:1089F000014BD3F878017047C02B0120012070474C
:108A0000014BC3E95F217047C02B0120014BC3E933
:108A100061217047C02B01207047704710B4054B8F
:108A200004460A680020C3F88C415DF8044BC3F883
:108A300078217047C02B0120212870B505D022284D
:108A400029D0202810D0002070BD0029FBD0072A93
:108A5000F9D1184B18791C685A799B790871002054
:108A60000C604A718B7170BD0029ECD0072AEAD1E5
:108A70001148104B0C680E794D79D0F88021897916
:108A80001C601E715D719971002ADCD02146D0F8FE
:108A90007C019047D7E70029D5D0022AD3D1064AD6
:108AA000D2F88831002BCED00988D2F884019847BB
:108AB000C9E700BF00000120C02B01200020704743
:108AC00000207047F0B4002452004E1C2746030FCC
:108AD000B0F1204F4FEA001003F1300503F13703E6
:108AE00034BF0D550B5537550234A242EFD1F0BCBF
:108AF000704700BF024808B5FFF728FF014808BDCE
:108B0000F4F50408302C0120024808B5FFF71EFFD9
:108B1000014808BD04F60408302C01200B481A2235
:108B20000B4B00681B680A80C01801D109487047C8
:108B3000094B0822094910B51C68FFF7C3FF04223E
:108B400007492046FFF7BEFF024810BD107AF01F0C
:108B5000187AF01F08000120147AF01F0A00012083
:108B60001A000120024808B5FFF7F0FE014808BDD1
:108B700010F60408302C012008B520B90448FFF78E
:108B8000E5FE044808BD0448FFF7E0FE014808BDC3
:108B90001CF60408302C012040F604080423014888
:108BA0000B80704724000120074A084B084830B466
:108BB0001468122503F114020D80844214BF184674
:108BC000104630BC704700BF4040024028000120E2
:108BD0001010DDDD0020704798B182680C4B12B197
:108BE00007229A70704718780421DA6003281A6106
:108BF0001A750CBF80224FF480729970C3E901226C
:108C00007047034B012241F2B4115A705A54704715
:108C1000EC8A01200378022B0FD0006908B90120EB
:108C200070470D4B1B78032B10D080B24FF6F773B3
:108C3000984294BF002001207047084A4368126898
:108C4000B3EB422F2CBF012000207047044B984209
:108C500094BF002001207047EC8A01200C9D012068
:108C6000F7FFFF0F026C03463AB11A6CD20608D523
:108C70000022012083F83C207047426480F83C20A9
:108C8000F3E71A6C4B494C4811401A6841F0020155
:108C9000F0B419644168494D21F4403141604168A4
:108CA0005C68214341605168186921F48071D3F8F0
:108CB00008C0DF68516054689E6A44EA0024AE42EE
:108CC0005460546824F040745460506840EA0C00CA
:108CD0005060906820F400609060916841EA07015C
:108CE000916059D09068DC6A20F070609060916863
:108CF0000E439660906820F0405090609168214348
:108D0000916090689D6920F002001C6A90609168F3
:108D100041EA450191605168002C46D041F4006160
:108D20004FF460405160516821F46041516090FA05
:108D3000A0F0596AB0FA80F05468013981402143AB
:108D40005160D06A0026DD6920F47000D3F830C08D
:108D5000691E5F69D0623046D56A45EA0155D56221
:108D6000956825F400759560946844EA4C249460F5
:108D7000946824F480649460916841EA872191604A
:108D80005E641A6C22F0030242F001021A640022AF
:108D900083F83C20F0BC7047916821F070619160CD
:108DA000916821F040519160ABE721F4006151607E
:108DB000C7E700BFFDEEFFFF002301400100000FE9
:108DC00038B540F48062074C0B4640F2FF55012154
:108DD00000F03F00A563A360E2603CF065FFA5637F
:108DE00038BD00BF002C01402DE9F04FDFF8ACB0DA
:108DF0000124074683B09BF890119A46CBF8304087
:108E000040F2FF5602294FF00A04224D4FF00009AC
:108E100018BF4702012B00928CBF4FF059084FF04A
:108E2000580839464046FFF7CBFF013C034640F265
:108E3000774201213720E4B2BBB9009851460122A4
:108E40000193154CFFF7DCF812494FEA4A22002043
:108E5000019B4C628A62CA6A42F09102CA62CBF8F4
:108E60002800184603B0BDE8F08FAE63C5F808903F
:108E7000EA603CF019FFAE63034608B1002CD0D184
:108E8000002BDAD000221846CBF8302003B0BDE822
:108E9000F08F00BF002C014000E1F505C02B012040
:108EA0000128554B2DE9F0410D462DED028B82B086
:108EB0005BD0524E1A6C371FB3F844300092ADF8B5
:108EC0000430DFF858819FED4E8AD8F8A0364D4C1B
:108ED00007EE903A4C49BDF80020F8EE677A396009
:108EE000B4FBF3F427EE888A8AB194420FD3002DA5
:108EF0006FD0012D0BD1DFF814C107EE902A19466F
:108F00003046B8EE670AC7F800C038F00DFABDF871
:108F100002308BB19C420FD3002D47D0012D0BD1D5
:108F20003A4A07EE903AD8F8A01606F12400B8EEB7
:108F3000670A3A6038F0F8F9BDF804308BB39C4208
:108F40002FD3E5B1012D2CD107EE903A2F4A06F12F
:108F50004800D8F8A016B8EE670A3A6002B0BDEC37
:108F6000028BBDE8F04138F0DFB9D3F84620284E37
:108F7000B3F84A30371F0092ADF80430A1E707EE8E
:108F8000903ADFED246A244A0023F8EEE77A3A604B
:108F9000B36486EEA77A77EE087A88EE277A86EDB4
:108FA000137A02B0BDEC028BBDE8F08107EE903A77
:108FB000DFED186A184A0023F8EEE77A3A60736228
:108FC00086EEA77A77EE087A88EE277A86ED0A7A17
:108FD000B2E707EE902ADFED0F6A0F4A0023F8EEA2
:108FE000E77A3A60336086EEA77A77EE087A88EE01
:108FF000277A86ED017A8AE7C02B0120100600202F
:10900000BD37863520A10700B920000029200000C7
:109010008006002083F9223E0D200000500500202C
:109020002DE9F843884600294FD04718461E284CA2
:10903000802507F1FF39EFF3118185F31288D4F809
:109040007021C9B2D4F87401D4F87031D4F874C165
:1090500081F31188634594BF4FF400630023121A13
:109060001344012B1AD1012033F096FBEFF3118149
:1090700085F31288D4F87021C9B2D4F87401D4F8F9
:109080007031D4F8747181F31188BB4294BF4FF4EE
:1090900000630023121A1344012BE4D0EFF3118272
:1090A00085F31288D4F87431D2B216F8011F234424
:1090B00083F89411D4F874310133C3F30A03C4F86C
:1090C000743182F311884E45B5D14046BDE8F8832E
:1090D000C02B0120F8B5002390F84C5080F84C309C
:1090E000CDB10F4E96F8902B032A16D1D6F8C87B37
:1090F00000F1380429462046FFF792FFD6F8C83B16
:109100002D1A0444DB1B322B01D8002DF2D1B5FA05
:1091100085F04009F8BD0120FCE71846FAE700BFDA
:10912000C02B0120002280F84D20D3E790F84C207E
:10913000531C0244DBB280F84C3082F8381090F8AF
:109140004D200AB1132B00D9C4E77047F8B50B4E78
:109150000D46144696F8903B032B0ED1D6F8C87BEB
:10916000002C0ADD21462846FFF75AFFD6F8C83BF7
:10917000241A0544DB1B322BF2D9F8BDC02B012089
:10918000F0B5154E83B00D463378022B0ED14FEA61
:10919000102CC4B2114F0023012201A93868604489
:1091A0000BF04EFA012806D003B0F0BDC0F3D41C7A
:1091B00000F07F04EEE73378022B019B04D133F8F3
:1091C00014302B6003B0F0BD53F8243023F070430B
:1091D0002B6003B0F0BD00BFEC8A0120EC9C0120A5
:1091E0002DE9F047344C002294F8D43394F8D51389
:1091F000013384F89426DBB2994284F8D4332DED00
:10920000048B82B009D094F86C35002B41F02C828D
:1092100002B0BDEC048BBDE8F087284F94EDF68AD0
:1092200097F8CC5BB7F9D40B0F2D94F8E86384F86A
:10923000D42300F0D78694EDF77A06F12602D4ED18
:10924000F87A04EB860327EE087A04EB820267EED5
:10925000887A83EDFB7A06F14603C2EDF57A0022A7
:10926000D4EDF97A04EB8303C4F8DC2327EE888A73
:10927000C4F8E02383EDF58AC4F8E423731C0C22C0
:10928000A7F8D40B03F01F0384F86C2584F8E833A7
:10929000102D00F0CF8694F86D850026B8F1060FEA
:1092A00000F21C86DFE818F0E407340645060C00DF
:1092B000D900EA06E10700BF50050020C02B0120BD
:1092C000EC4B102D1A4693ED037AD3ED057AB2ECF0
:1092D000011A27EE073A67EEA73A93ED077A92ED67
:1092E000006AD3ED097A27EE074AD3ED0B6A66EEE2
:1092F000062A93ED0D7A67EEA74AD3ED0F7A26EE94
:10930000A65AD3ED021A67EE075A93ED042A27EE08
:10931000A76AD3ED116AE1EE012A93ED137AA1EE6B
:10932000A13AD3ED157AE2EE023AD3ED060A66EEE3
:10933000A66A93ED081A27EE077AD3ED0A1A67EEAC
:10934000A77A93ED0C2AA0EEA04AE1EE014AD3EDF4
:109350000E0AA1EEA15A93ED101AE2EE025AD3EDD5
:10936000121A93ED142AA0EEA06AE1EE016AE2EE71
:10937000027AA1EEA17AB1EEE22AF1EEC32AB1EEB1
:10938000E33AF1EEC43A03ED202AB1EEE44A43EDAC
:109390001F2AF1EEC54A03ED1E3AB1EEE55A43ED40
:1093A0001D3AF1EEC65A03ED1C4AB1EEE66A43EDF2
:1093B0001B4AF1EEC76A03ED1A5AB1EEE77A43EDA4
:1093C000195A03ED186A43ED176A03ED167A93ED07
:1093D000177AD3ED197A67EE075AD3ED1B6A27EE99
:1093E000A76A93ED1D7AD3ED1F7A66EEA66AD3EDD8
:1093F000164A27EE077A93ED185A67EEA77AE4EE3D
:10940000A45A93ED1A4AA5EE056AD3ED1C4A93EDD2
:109410001E5AE4EE046AA4EEA47AE5EE057AB1EEF3
:10942000E55AF1EEC65AB1EEE66AF1EEC76A03ED0F
:10943000155AB1EEE77A43ED145A03ED136A43ED82
:10944000126A03ED117A01F0568094F86D8508F1E7
:1094500001085FFA88F884F86D8594F830370F2B8F
:1094600001F335800D2B04EB830103F1010C01F2B4
:10947000538003F16C0201F2845104EB8202D1EDBE
:10948000007A92EDF67AB4EE677AF1EE10FA05DD25
:10949000B5EEC07AF1EE10FA01F307800020DFED9F
:1094A000767A0CF16C0204EB8202D2EDF66AF4EEED
:1094B000476AF1EE10FA08DDF4EE676AF1EE10FA91
:1094C00003DDF0EE667A5FFA8CF0D91C03F1020C32
:1094D0000E29624600F3148103F16E0204EB82024E
:1094E00092EDF67AB4EE667AF1EE10FA08DDB4EE9B
:1094F000677AF1EE10FA03DDF0EE477A5FFA8CF04E
:1095000003F16F0204EB8202D2EDF66AF4EE476AD1
:10951000F1EE10FA07DDF4EE676AF1EE10FA02DD03
:10952000F0EE667AC8B2591D03F1040C0E296246AA
:1095300000F3E68003F1700204EB820292EDF67A0A
:10954000B4EE667AF1EE10FA08DDB4EE677AF1EE69
:1095500010FA03DDF0EE477A5FFA8CF003F1710246
:1095600004EB8202D2EDF66AF4EE476AF1EE10FAED
:1095700007DDF4EE676AF1EE10FA02DDF0EE667ACE
:10958000C8B2D91D03F1060C0E29624600F3B8805B
:1095900003F1720204EB820292EDF67AB4EE667A7F
:1095A000F1EE10FA08DDB4EE677AF1EE10FA03DDA1
:1095B000F0EE477A5FFA8CF003F1730204EB82025B
:1095C000D2EDF66AF4EE476AF1EE10FA07DDF4EE3A
:1095D000676AF1EE10FA02DDF0EE667AC8B203F1C6
:1095E000090103F1080C0E29624600F3898003F19A
:1095F000740204EB820292EDF67AB4EE667AF1EE32
:1096000010FA08DDB4EE677AF1EE10FA03DDF0EE41
:10961000477A5FFA8CF003F1750204EB8202D2ED17
:10962000F66AF4EE476AF1EE10FA07DDF4EE676AC7
:10963000F1EE10FA02DDF0EE667AC8B203F10B012A
:1096400003F10A0C0E2962465ADC03F1760204EBA0
:10965000820292EDF67AB4EE667AF1EE10FA0DDD42
:10966000B4EE677AF1EE10FA08DDF0EE477A5FFAB1
:109670008CF003E0580B00200000000003F177029B
:1096800004EB8202D2EDF66AF4EE476AF1EE10FACC
:1096900007DDF4EE676AF1EE10FA02DDF0EE667AAD
:1096A000C8B203F10C01012B0A4629DC03F1780250
:1096B00004EB820292EDF67AB4EE667AF1EE10FADD
:1096C00007DDB4EE677AF1EE10FA02DDF0EE477ACC
:1096D000C8B203F1790204EB8202D2EDF66AF4EE2D
:1096E000476AF1EE10FA09DDF4EE676AF1EE10FA5E
:1096F00004DD03F10D00F0EE667AC0B203F10E0254
:1097000002F16C0102F16B0304EB810C04EB8303A7
:109710009CEDF67AD3EDF66AF4EE476AF1EE10FAB4
:1097200007D5B4EE677AF1EE10FA02DDF0EE477A73
:10973000D0B20F2A02F1010C00F0958102F16D0305
:1097400004EB810104EB8303D1EDF66A93EDF67A25
:10975000F4EE476AF1EE10FA05D5B4EE677AF1EE51
:1097600010FA00F3E2860E2A02F1020100F07B817A
:1097700001F16C0201F16B0304EB820204EB830341
:1097800092EDF67AD3EDF66AF4EE476AF1EE10FA4E
:1097900005D5B4EE677AF1EE10FA00F3D1860F2901
:1097A00001F1010C00F05F810CF16C020CF16B0314
:1097B00004EB820204EB830392EDF67AD3EDF66AB2
:1097C000F4EE476AF1EE10FA05D5B4EE677AF1EEE1
:1097D00010FA00F3BF86BCF10F0F0CF1010100F08D
:1097E000428101F16C0201F16B0304EB820204EB94
:1097F000830392EDF67AD3EDF66AF4EE476AF1EE62
:1098000010FA05D5B4EE677AF1EE10FA00F3AE86E1
:109810000F2901F1010C00F026810CF16C020CF112
:109820006B0304EB820204EB830392EDF67AD3ED33
:10983000F66AF4EE476AF1EE10FA05D5B4EE677AEF
:10984000F1EE10FA00F39C86BCF10F0F0CF1010150
:1098500000F0098101F16C0201F16B0304EB82025B
:1098600004EB830392EDF67AD3EDF66AF4EE476AE1
:10987000F1EE10FA05D5B4EE677AF1EE10FA00F3C6
:1098800093860F2901F1010C00F0ED800CF16C02C0
:109890000CF16B0304EB820204EB830392EDF67A86
:1098A000D3EDF66AF4EE476AF1EE10FA05D5B4EEA0
:1098B000677AF1EE10FA00F38186BCF10F0F0CF11C
:1098C000010100F0D08001F16C0201F16B0304EBA7
:1098D000820204EB830392EDF67AD3EDF66AF4EE9E
:1098E000476AF1EE10FA05D5B4EE677AF1EE10FA98
:1098F00000F370860F2901F1010C00F0B4800CF127
:109900006C020CF16B0304EB820204EB830392ED17
:10991000F67AD3EDF66AF4EE476AF1EE10FA05D561
:10992000B4EE677AF1EE10FA00F35E86BCF10F0F29
:109930000CF1010100F0978001F16C0201F16B0361
:1099400004EB820204EB830392EDF67AD3EDF66A20
:10995000F4EE476AF1EE10FA05D5B4EE677AF1EE4F
:1099600010FA00F34D860F2901F1010C7BD00CF1A8
:109970006C020CF16B0304EB820204EB830392EDA7
:10998000F67AD3EDF66AF4EE476AF1EE10FA05D5F1
:10999000B4EE677AF1EE10FA00F33C86BCF10F0FDB
:1099A0000CF101015FD001F16C0201F16B0304EBDA
:1099B000820204EB830392EDF67AD3EDF66AF4EEBD
:1099C000476AF1EE10FA05D5B4EE677AF1EE10FAB7
:1099D00000F32C860F2901F1010C44D00CF16C022C
:1099E0000CF16B0304EB820204EB830392EDF67A35
:1099F000D3EDF66AF4EE476AF1EE10FA05D5B4EE4F
:109A0000677AF1EE10FA00F31B86BCF10F0F0CF130
:109A1000010128D001F16C0201F16B0304EB820219
:109A200004EB830392EDF67AD3EDF66AF4EE476A1F
:109A3000F1EE10FA05D5B4EE677AF1EE10FA00F304
:109A40000B860E290FD1F54B93ED007A53ED016A89
:109A5000B4EE667AF1EE10FA05DDB4EEE77AF1EED7
:109A600010FA00F3C884002800F0EE84431E012B96
:109A700040F3928500F16B0200F16A0304EB82026D
:109A800004EB830392EDF67A821ED3EDF66AF4EED0
:109A9000C76AF1EE10FA00F3B180012A00F0AE803F
:109AA00000F16903C21E04EB830393EDF67AB4EE72
:109AB000E67AF1EE10FA00F30685012A00F003853C
:109AC00000F16803021F04EB8303D3EDF66AF4EEA2
:109AD000C76AF1EE10FA00F39180012A00F08E803F
:109AE00000F16703421F04EB830393EDF67AB4EEB3
:109AF000E67AF1EE10FA00F3E684012A00F0E3843E
:109B000000F16603821F04EB8303D3EDF66AF4EEE3
:109B1000C76AF1EE10FA71DC012A6FD000F165031B
:109B2000C21F04EB830393EDF67AB4EEE67AF1EE0E
:109B300010FA00F3C884012A00F0C58400F1640320
:109B4000A0F1080204EB8303D3EDF66AF4EEC76AD2
:109B5000F1EE10FA52DC012A50D000F16303A0F1BB
:109B6000090204EB830393EDF67AB4EEE67AF1EEA4
:109B700010FA00F3A884012A00F0A58400F1620322
:109B8000A0F10A0204EB8303D3EDF66AF4EEC76A90
:109B9000F1EE10FA32DC012A30D000F16103A0F1BD
:109BA0000B0204EB830393EDF67AB4EEE67AF1EE62
:109BB00010FA00F38884012A00F0858400F1600324
:109BC000A0F10C0204EB8303D3EDF66AF4EEC76A4E
:109BD000F1EE10FA12DC012A10D000F15F03A0F1BF
:109BE0000D0204EB830393EDF67AB4EEE67AF1EE20
:109BF00010FA00F36884022A07FE267A431C0E2B13
:109C000000F3CE8400F16D0100F16E0204EB8101DE
:109C100004EB8202D1EDF66A811C92EDF66AB4EE95
:109C2000E66AF1EE10FA00F32B840F2900F0BB80F6
:109C300000F16F02C11C04EB8202D2EDF66AF4EE71
:109C4000C66AF1EE10FA00F319840F2900F06A8455
:109C500000F17002011D04EB820292EDF66AF4EE4F
:109C6000C66AF1EE10FA00F10B840F2900F09B8018
:109C700000F17102411D04EB8202D2EDF66AF4EEAE
:109C8000C66AF1EE10FA00F3F9830F2900F04A8456
:109C900000F17202811D04EB820292EDF66AB4EECD
:109CA000E66AF1EE10FA00F3EB830F297BD000F1A6
:109CB0007302C11D04EB8202D2EDF66AF4EEC66AAD
:109CC000F1EE10FA00F3DA830F2900F02B8400F193
:109CD000740200F1080104EB820292EDF66AB4EE20
:109CE000E66AF1EE10FA00F3CB830F295BD000F1A6
:109CF000750200F1090104EB8202D2EDF66AF4EE7E
:109D0000C66AF1EE10FA00F3B9830F2900F00A8455
:109D100000F1760200F10A0104EB820292EDF66A8C
:109D2000B4EEE66AF1EE10FA00F3AA830F293AD0F6
:109D300000F1770200F10B0104EB8202D2EDF66A2A
:109D4000F4EEC66AF1EE10FA00F398830F2900F0E2
:109D5000E98300F1780200F10C0104EB820292ED3C
:109D6000F66AB4EEE66AF1EE10FA00F389830F2981
:109D700019D000F1790200F10D0104EB8202D2ED5D
:109D8000F66AF4EEC66AF1EE10FA00F377830E2954
:109D900040F0C883214A92ED006AB4EEE66AF1EE23
:109DA00010FA00F36D8387FE667AC7EE878A94F80F
:109DB0006E9509F1AC0A04EB8A02B2EE007AF7EE76
:109DC000007A92EDF68AC8FEC78AC8FEA78A00F11B
:109DD0006C0207EE900ADBB204EB8202F8EEE76A4F
:109DE0000F2B92EDF67A27EE077A66EE876A00F27D
:109DF000078303F16C0207EE903A012804EB82031B
:109E0000F8EEE77A93EDF66A26EE066AE6EE276A42
:109E100037EE067A00F2F48202E000BF140B002055
:109E2000B5EEC07AF1EE10FA40F3FD8286EE879A25
:109E30008C4B93ED007A29EE077AB4F8383707EEA9
:109E4000903AB4F83C37F8EE677AF4EEC77AF1EE60
:109E500010FA05DC07EE903AF8EE677AC7FEC77A8B
:109E6000814B77EEC87A04EB8A0A93ED007A28EEEC
:109E7000877AA7EE278A8AEDF68A2AF04DF900281C
:109E8000B8BF4042C3B2142B0DD9B4F8443707EE23
:109E9000903AF8EEE77A87FE888ABCEEC88A18EE18
:109EA000103AA4F84437B9F1000F40F0D0800F2DDC
:109EB00000F00083112D40F0CA806C4B9FED6C0ABE
:109EC000D3ED007A28EE800AFDEEE77A17EE903A9D
:109ED000A7F8D03B3FF014F9A7F8D20B08F101081E
:109EE000644B94F86C25A3FB0813013AA8EB03011B
:109EF00084F86C2503EB51039B08C3EBC303A8EB69
:109F0000030384F86D3502B0BDEC048BBDE8F08727
:109F1000D4F87825B4F87C1557483EF0FBF897F84C
:109F2000CC5B102D00F0F08294F86D35013384F88D
:109F30006D35DFF844C1B0EE006AB4F87005F6EE96
:109F4000006A6246D4F8841501380CF19003F2ECF3
:109F5000015AB0EE664A1031D2ED007A0CEBC00225
:109F600077EEA77A083AB0EE677AD5EE867AA5EE54
:109F7000867A67EEA67A27EE267ACCED217A8CEDEA
:109F8000207AD2ED036A0138D2ED027A01F108019C
:109F900053ED215AA2F1080253ED224A03F10803BE
:109FA00035EEE67A11ED036A37EEE45A77EEA47ADD
:109FB00076EEA56A51ED045AA6EE057AE5EE857AAD
:109FC000A5EEE67AE6EE267A27EE047A67EE847A44
:109FD00003ED037A43ED047AD3D1102D3AD094F8EF
:109FE0006D857BE794EDF70A04EB860328EE000A03
:109FF00083EDFB0A3FF084F8D4EDF87A06F12602EF
:10A0000006F1460367EE887A002104EB820204EB36
:10A010008303C4F8DC13C2EDF57A00B2D4EDF97A0B
:10A02000C4F8E01327EE888A83EDF58AC4F8E413B8
:10A03000FFF724B932F06AFA97F8CC5B94F86D8593
:10A040000646102D08BFA7F8D08BFFF727B9102DB3
:10A050007FF444AF32F05AFA801B94F86D85A7F86C
:10A06000D20B3BE7840C0020900C0020D80B002082
:10A070000000C84225499224D80A002094F86E3581
:10A080000120EB49102D1A4684F8953603F1AC03F4
:10A0900084F8940604EB8303D3F8D8330B6000F004
:10A0A0001E820132E34B08F10108A3FB021384F87E
:10A0B0006D8523F0010101EB5303D21A84F86E255C
:10A0C00094F8E83303F1FB0CC3F120030CEB421CC2
:10A0D00013F0FC0FC3F385005FFA83FE04EB8C0CD6
:10A0E00000F0F8810130D44A0CF110034FEA001857
:10A0F000A2F594710CEB001013ED026A103312ED0F
:10A10000027A103153ED076A103253ED057A26EECC
:10A11000076A52ED074A13ED087A834212ED085A96
:10A1200066EEA46A52ED055A27EE057A01ED066A3D
:10A1300067EEA57A41ED076A01ED087A41ED057AEF
:10A14000DAD1BE49A8F11003A1F594729C44C81855
:10A1500013441EF003021BD0DCED007A013A90EDAF
