:020000040800F2
:10000000F0FF0120FD4004085DE20008C9B10308CB
:1000100071410408714104087141040800000000A6
:1000200000000000000000000000000069E200087D
:1000300065E200080000000061E200089DEF03088F
:1000400071410408714104087141040871410408B8
:100050007141040871410408B9F70308E5F8030881
:10006000A9F803086DF8030831F8030819220408F9
:1000700009220408F9210408E9210408D52104080B
:10008000C1210408AD2104087141040800000000EA
:10009000000000000000000000000000F5F7030869
:1000A000714104085DE80308714104086DE8030824
:1000B0004DE803083DE803082DE80308D53104089E
:1000C000DD310408C5310408CD310408714104084C
:1000D0007141040875F00308D9EF0308000000001F
:1000E0007DF70308714104087D2401080000000029
:1000F000000000000000000000000000992104083A
:1001000000000000714104081DE803087141040863
:1001100000000000000000000000000000000000DF
:1001200085210408712104085D210408492104087F
:10013000352104080000000000000000000000005D
:10014000000000000000000000000000590201084B
:10015000212104080D210408F92004087141040834
:10016000B5310408BD3104080000000000000000A3
:10017000000000000000000000000000000000007F
:1001800000000000714104080000000000000000B1
:080190007141040871410408EB
:080198009C3C04000100000082
:1001A0001F201C00444D0020AC7E002000000000F9
:1001B000B406000805020400F87B0020C87E002079
:1001C00000000000D006000803010A000A4D0020CC
:1001D000CC7E002000000000D406000813020300BB
:1001E00014390020D87E002000000000DE06000840
:1001F000040080001C680020DC7E0020000000005D
:1002000000000000230010004C6700205C7F0020ED
:10021000000000003D9C01080D002C002864002017
:100220006C7F0020000000008548030813000400D4
:100230004C7C0020987F002000000000E4060008AD
:10024000F6210C00507C00209C7F00200000000064
:10025000E806000812200D00B1650020A87F0020EC
:1002600000000000F4060008F531740088630020E7
:10027000B87F002000000000B12E01080B301400F0
:10028000744D00202C8000200000000002070008B0
:100290000101040084630020408000200000000071
:1002A0000000000000010400806300204480002062
:1002B0000000000016070008020103007C63002014
:1002C00048800020000000005DA30208F90104003E
:1002D0005C6300204C8000200000000045CF030834
:1002E000FD01240038630020508000200000000041
:1002F000CDCE030806101800783D00207480002041
:1003000000000000D9170208FB0101006C62002008
:100310008C8000200000000085EB0308FC01090030
:1003200038610020908000200000000095EB030859
:1003300002000C00046100209C80002000000000EE
:10034000000000000A6036007C440020A8800020E5
:10035000000000001A070008340010003060002080
:10036000E080002000000000AD1702081102080024
:1003700008600020F0800020000000005007000806
:100380001212040000600020F8800020000000002D
:100390005807000818202C00D45F0020FC800020A3
:1003A0000000000095DC0308FE010900246900201C
:1003B0002881002000000000D9D3030809020100B1
:1003C000B4BA002030BB0020000000005C07000829
:1003D0000C20B400AAB6002034BB002000000000AE
:1003E0001DA902080002050040B60020E8BB00205D
:1003F00000000000000000001B0208001CB60020E6
:10040000F0BB002000000000F9D303080120080021
:10041000B0B90020F8BB0020000000005E07000813
:100420001900050030BA002000BC002000000000C8
:100430006607000837001E0008BA002008BC00202C
:10044000000000006C0700081E000500FCB300203F
:1004500028BC0020000000008A0700080E020200ED
:1004600044B9002030BC00200000000090070008C4
:100470002F001100E0BA002034BC00200000000072
:10048000920700080510060028BB002048BC002089
:1004900000000000A407000826000E0060BC002039
:1004A00050BC002000000000412501082C00100075
:1004B000FCC70020ECC700200000000059A901087B
:1004C0002B00240030C800200CC8002000000000D1
:1004D0002DA9010829107800FCC6002054C800206E
:1004E000000000000000000028101000DCC8002000
:1004F000CCC8002000000000299C01081400040062
:1005000014C60020ECC8002000000000AA07000864
:100510001010030074C40020F0C800200000000088
:10052000AE070008F82106006CC40020F4C80020C3
:1005300000000000B20700080E806201CABC002063
:10054000FCC80020000000007D1B02081A000E00FD
:1005500064D20020A8D4002000000000B8070008E2
:100560000312330070CB002072D400200000000082
:10057000C60700082500960004CC0020DCD300202C
:1005800000000000000000001500700060CA00209C
:100590006CD3002000000000000000002A00600072
:1005A000A4CB00200CD3002000000000551B020843
:1005B00018020200A8E1002084E2002000000000F0
:1005C0000000000017020B009DE1002088E20020DF
:1005D0000000000079D303080702020040E2002077
:1005E00094E2002000000000FA07000806020C0058
:1005F00018E2002098E20020000000006DDA0308F5
:100600000812090094E10020A4E20020000000008C
:10061000C9D30308F70106008AE10020B0E20020F8
:1006200000000000FC0700080A020A0098DC002015
:10063000B8E20020000000000208000803000100EA
:10064000A8D70020C4E20020000000000000000045
:1006500016000800FCE60020A8E7002000000000CB
:100660000C0800080202030054E8002050E80020B3
:1006700000000000000000001002010060E80020FF
:100680005CE8002000000000140800081A023C008A
:10069000BFE7002064E800200000000049DB0308F9
:1006A00027000400A4E80020A0E8002000000000CB
:0406B0001608000820
:1006B400000000000001000000050000010203002A
:1006C4000000000000000000000000000000000026
:1006D400040101006C16000000000000000000008E
:1006E4000020401000000000010000000202000091
:1006F400000000010000055245564E0000002B2169
:10070400231E64000200000001000A012900230ADC
:1007140000009001000000300100000000007300A0
:1007240073006900000000000000000000000000E9
:1007340000000000020000019E077D00FA00960000
:100744005802B80BB80BB80B2000C4092A000000EB
:1007540001010101FFFFFFFF2A00E8036400040A0E
:10076400000100002801000020003200C800D0076A
:100774009600140032002800B00440060005500022
:1007840014000F0008010000010000000000000038
:100794000000000000000000000000000000000055
:1007A40020000301000003000046000500000101D1
:1007B400F40114007E05EA05B4050300E803D0073C
:1007C4000000000000000000000000000000000025
:1007D4000000000000000000000000000000000015
:1007E4000000000000000000000000000000000005
:1007F400000000000100013C3D0001000000000079
:100804004A01B400D6010000C4090700B401282835
:06081400000020030000BB
:10081A000403090412010002EF0201408304563264
:10082A00000201020301000012010002020200405C
:10083A008304405700020102030100000902640018
:10084A00030100C03209040000010300000009216D
:10085A00110100012226000705830308000A080B7C
:10086A00010202020100090401000102020100055D
:10087A0024001001052401000204240202052406B2
:10088A000102070582030800FF09040200020A00A8
:10089A000000070501024000000705810240000030
:1008AA0009024300020100C03209040000010202E9
:1008BA00010005240010010524010001042402029C
:1008CA000524060001070582030800FF0904010048
:1008DA00020A000000070501024000000705810224
:1008EA0040000000FF00000000FFFF0000000000C1
:1008FA00AA55050100000100E1870008DD8700080C
:10090A00D9870008CD870008C9870008D58700085D
:10091A00D1870008558800084988000821880008FE
:10092A00358800080D880008F9870008E58700085F
:10093A000101000005010905A101A1000501093015
:10094A000931093209330935093409400938158151
:10095A00257F750895088102C0C00000090222009F
:10096A00010100E03209040000010301020009212B
:10097A00110100012226000705830308000A00006E
:10098A000060024010600240000000000000000009
:10099A00000B000000000000000000000000000042
:1009AA0000600240286002400100000000000000D0
:1009BA00060C00000000000000000000000000001B
:1009CA000060024040600240020000000000000097
:1009DA00100D0000000000000000000000000000F0
:1009EA00006002405860024003000000000000005E
:1009FA00160E0000000000000000000000000000C9
:100A0A000060024070600240040000000000000024
:100A1A00200F00000000000000000000000000009D
:100A2A0000600240886002400500000000000000EB
:100A3A002610000000000000000000000000000076
:100A4A0000600240A06002400600000000000000B2
:100A5A00301100000000000000000000000000004B
:100A6A0000600240B8600240070000000000000079
:100A7A00362F000000000000000000000000000007
:100A8A000064024010640240000000000000000000
:100A9A000038000000000000000000000000000014
:100AAA0000640240286402400100000000000000C7
:100ABA0006390000000000000000000000000000ED
:100ACA00006402404064024002000000000000008E
:100ADA00103A0000000000000000000000000000C2
:100AEA000064024058640240030000000000000055
:100AFA00163B00000000000000000000000000009B
:100B0A00006402407064024004000000000000001B
:100B1A00203C00000000000000000000000000006F
:100B2A0000640240886402400500000000000000E2
:100B3A002644000000000000000000000000000041
:100B4A0000640240A06402400600000000000000A9
:100B5A003045000000000000000000000000000016
:100B6A0000640240B8640240070000000000000070
:100B7A0036460000000000000000000000000000EF
:100B8A000000000001020304010203040607080929
:100B9A0029E40008E5EA00085DE60008FD88000887
:100BAA00DD8E00080D89000829890008D58800080B
:100BBA00C588000800000000000000002D202D2D2F
:100BCA00202D2D2D2D202D2D2D2D00000000000073
:100BDA000000000000000000000000AA550B010000
:100BEA0000AA5507010000AA5509020000000000EA
:100BFA0001000000C012AA5503009F00FF1FFF1F3B
:100C0A0001010100752901080000000068050020A3
:100C1A0040A80408000000000000000000000000D6
:100C2A0000000000BCA6040800000000000000004C
:100C3A00000F002004000000ECA704080D000000CB
:100C4A00494A0108E80E002000000000D8BC040848
:100C5A000D000000714A0108DC0E002000000000AF
:100C6A0060A804080800000000000000D00E002060
:100C7A000400000050A804080D000000292A0108F9
:100C8A00C40E002000000000F8BD040803000000A4
:100C9A008DAD0108B80E00200000000058A8040815
:100CAA00030000008DAD0108AC0E0020000000001A
:100CBA0000A7040801000000000000000000000076
:100CCA0000000000000000000E000000000000000C
:100CDA00000000000000000040A804080000000016
:100CEA00000000000000000000000000BCA604088C
:100CFA000000000000000000000F002004000000B7
:100D0A0084A7040803000000312E0108A00E002069
:100D1A000800000050A804080D000000292A010854
:100D2A00C40E002000000000F8BD04080300000003
:100D3A008DAD0108B80E00200000000058A8040874
:100D4A00030000008DAD0108AC0E00200000000079
:100D5A0000A70408010000000000000000000000D5
:100D6A0000000000000000000E000000000000006B
:100D7A00000000000000000068A80408000000004D
:100D8A00000000000000000000000000BCA60408EB
:100D9A000000000000000000000F00200400000016
:100DAA008CA70408030000008DAD0108F40E002092
:100DBA000000000000A70408010000000000000075
:100DCA000000000000000000000000000E0000000B
:100DDA00000000000000000000000000200F0020BA
:100DEA000400000070BC00200000000054AB04089E
:100DFA00F4AA040800000000E9A30208A086010082
:100E0A0004000000000000000000000000000000D4
:100E1A0000000000000000000000000000000000C8
:100E2A0054AB04085CAB040800000000ED4703085B
:100E3A00E8030000040000000000000000000000B9
:100E4A000000000000000000000000000000000098
:100E5A000000000060BD040864AB04080000000044
:100E6A008DB902087D0000000600000000000000A5
:100E7A000000000000000000000000000000000068
:100E8A0000000000000000009AAC04080000000006
:100E9A000000000051810308E8030000050000007B
:100EAA000000000000000000000000000000000038
:100EBA000000000000000000000000006CAB040805
:100ECA000000000000000000CD1B0208C409000059
:100EDA000500000000000000000000000000000003
:100EEA0000000000000000000000000000000000F8
:100EFA0098A804080000000009A70108D59E030865
:100F0A006A18000005000000000000000000000050
:100F1A0000000000000000000000000000000000C7
:100F2A000000000080FC040800000000000000002F
:100F3A0079CA030810270000010000000000000021
:100F4A000000000000000000000000000000000097
:100F5A00000000000000000078AB04080000000058
:100F6A000000000059480308E803000005000000DB
:100F7A000000000000000000000000000000000067
:100F8A0000000000000000000000000084AB04081C
:100F9A000000000000000000AD380308204E0000E9
:100FAA000300000000000000000000000000000034
:100FBA000000000000000000000000000000000027
:100FCA0094AB0408000000000000000091360308FA
:100FDA00204E000003000000000000000000000096
:100FEA0000000000000000000000000000000000F7
:100FFA0000000000A4AB040800000000000000008C
:10100A0055B20308400D0300030000000000000071
:10101A0000000000000000000000000000000000C6
:10102A000000000000000000B4AB0408000000004B
:10103A00000000004D7F0308102700000100000097
:10104A000000000000000000000000000000000096
:10105A0000000000000000000000000094A804083E
:10106A0000000000000000001962010810270000BB
:10107A000300000000000000000000000000000063
:10108A000000000000000000000000000000000056
:10109A00BCAB04080000000000000000057703084C
:1010AA0050C3000001000000000000000000000022
:1010BA000000000000000000000000000000000026
:1010CA0000000000C4AB040800000000000000009B
:1010DA006D740308A8610000010000000000000010
:1010EA0000000000000000000000000000000000F6
:1010FA000000000000000000D0AB0408000000005F
:10110A0000000000B97D0108A0860100010000006E
:10111A0000000000000000000000000000000000C5
:10112A00000000000000000000000000DCAB040822
:10113A000000000000000000CD490308A00F0000D5
:10114A000100000000000000000000000000000094
:10115A000000000000000000000000000000000085
:10116A000CAB04080000000000000000158C010808
:10117A001A41000001000000000000000000000009
:10118A000000000000000000000000000000000055
:10119A0000000000E8AB04080000000000000000A6
:1011AA006192000810270000010000000000000002
:1011BA000000000000000000000000000000000025
:1011CA00000000000000000008AB04080000000056
:1011DA000000000019D301081A41000001000000B4
:1011EA0000000000000000000000000000000000F5
:1011FA00000000000000000000000000F4AB04083A
:10120A000000000000000000C1130108400D0300A7
:10121A0000000000000000000000000000000000C4
:10122A0000000000000000000000000000000000B4
:10123A00FCAB04080000000000000000A9470308F6
:10124A00400D030000000000000000000000000044
:10125A000000000000000000000000000000000084
:10126A000000000004AC04080000000000000000B8
:10127A00BD6F010850C30000030000000000000019
:10128A000000000000000000000000000000000054
:10129A00000000000000000010AC0408000000007C
:1012AA00000000000536030840420F00000000005D
:1012BA000000000000000000000000000000000024
:1012CA000000000000000000000000001CAC040840
:1012DA000000000000000000C948030850C30000D5
:1012EA0000000000000000000000000000000000F4
:1012FA0000000000000000000000000000000000E4
:10130A000000803F0000803F000000000000000055
:10131A0000000000000000000000000000000000C3
:10132A0000000000000000000000000001000000B2
:10133A00FFFFFFFFBAB3002088136F1701000000F8
:10134A00BCB3002088136F1700000000D8A6040859
:10135A000000000000000000000000000000000083
:10136A00E8A604080800000000000000300B002076
:10137A0004000000F4A604080800000000000000B1
:10138A00240B002000000000F8BD0408040000003F
:10139A00AD480108000000000000000000A7040892
:1013AA000100000000000000000000000000000032
:1013BA00000000000E000000000000000000000015
:1013CA0000000000B8B3002088136F170100000066
:1013DA00E87B002088136F1700000000DD29010850
:1013EA00000000003C0B002064B700200100000050
:1013FA00F8760408EA7B002001000000047704085C
:10140A00E07B0020020000000C770408FE4C00205C
:10141A000000000000000000FC4C0020000000005A
:10142A0000000000FA4C002000000000000000004C
:10143A00F84C00200000000000000000F64C0020DC
:10144A000000000000000000F44C00200000000032
:10145A0000000000E403002000000000000000007B
:10146A00B7B3002002000000187704083CA704085C
:10147A000000000000000000000000000000000062
:10148A00E8A604080800000000000000C00B0020C5
:10149A0004000000F4A60408080000000000000090
:1014AA00B40B002000000000F8BD0408040000008E
:1014BA00AD290108000000000000000000A7040890
:1014CA000100000000000000000000000000000011
:1014DA00000000000E0000000000000000000000F4
:1014EA00000000004CA704080000000000000000F3
:1014FA0000000000000000005CA704080D000000C6
:10150A00ED490108F00B00200400000068A7040858
:10151A000D000000052A0108E40B00200400000069
:10152A0074A704080D000000B1490108D80B002077
:10153A000000000080A7040803000000512E0108E3
:10154A00CC0B0020080000008CA704080300000050
:10155A008DAD0108F40E00200000000000A7040869
:10156A000100000000000000000000000000000070
:10157A00000000000E000000000000000000000053
:10158A000000000094A7040800000000000000000A
:10159A0000000000000000009CA7040804000000EE
:1015AA00C5480108000000000000000000A7040868
:1015BA000100000000000000000000000000000020
:1015CA00000000000E000000000000000000000003
:1015DA0000000000F4A7040800000000000000005A
:1015EA00000000000000000074E004080D00000084
:1015FA0000000000500C00200400000004A80408A9
:10160A000800000000000000440C00200400000054
:10161A0010A804080800000000000000380C002090
:10162A000400000018A804080800000000000000D8
:10163A002C0C00200400000020A804080800000068
:10164A0000000000200C00200400000028A8040864
:10165A000800000000000000140C00200400000034
:10166A0030A804080800000000000000080C002050
:10167A000400000038A80408080000000000000068
:10168A00FC0B00200400000000A704080100000071
:10169A000000000000000000000000000000000040
:1016AA000E00000000000000000000000000000022
:1016BA00C5290108000000005C0C002000000000A1
:1016CA0000000000D40C0020000000000000000010
:1016DA00740D0020E67B0020040000002477040833
:1016EA00E47B0020E0150C1700000000E37B0020DB
:1016FA0008000000106B0408E27B002005000000CF
:10170A00387704080000000000000000C40D002023
:10171A002D202D2D202D2D2D2D202D2D2D0000009D
:10172A0000000000000000000000000000000000AF
:10173A00000200051002700B20700020702D72004C
:10174A00010000000000000000000000942D0020AD
:10175A00000101010001D601FFFFFFFFFA000000AE
:10176A000100000001000000B4BE00200000F401E6
:10177A0001000000B2BE00200000F40101000000D8
:10178A00B0BE00200000F40101000000AEBE00203F
:10179A000000F40101000000ACBE00200000F401CA
:1017AA0001000000AABE00200000F40101000000B0
:1017BA00A8BE00200000F40101000000C4B704081C
:1017CA00000000000000000000000000000000000F
:1017DA00DCB7040800000000000000000000000060
:1017EA0000000000FCB70408080000000000000028
:1017FA00A00F00200000000008B80408080000003C
:10180A0000000000940F00200000000014B8040833
:10181A000800000000000000880F002000000000FF
:10182A0088C2040808000000000000007C0F0020A5
:10183A000000000020B804080800000000000000B2
:10184A00700F0020000000002CB8040808000000F7
:10185A0000000000640F00200000000038B80408EF
:10186A000800000000000000580F002000000000DF
:10187A0044B80408020000000DAE0108020000008E
:10188A000000000000A7040801000000000000009A
:10189A000000000000000000000000000E00000030
:1018AA00000000000000000000000000D59A0108B6
:1018BA00959A0108AC0F0020A6BE0020053201004F
:1018CA00A4BE0020E803D00701000000A2BE002049
:1018DA00E803D00701000000A0BE0020E803D007FB
:1018EA00010000009EBE00201E00B80B010000008F
:1018FA009CBE00201E00F401010000009ABE0020D8
:10190A00140064000100000098BE00200000C80016
:10191A000100000050B8040858B8040874B8040854
:10192A0000000000000000000000000000000000AD
:10193A00DCB70408000000000000000000000000FE
:10194A0000000000D4AA04080800000000000000FB
:10195A00F81000200000000088B804080800000001
:10196A0000000000EC100020000000009CB80408F1
:10197A000800000000000000E01000200000000045
:10198A00B0B804080800000000000000D4100020CD
:10199A0000000000C4B804080800000000000000AD
:1019AA00C810002000000000D4B804080800000095
:1019BA0000000000BC10002000000000E4B8040889
:1019CA000800000000000000B01000200000000025
:1019DA00F4B804080700000000000000A810002066
:1019EA000000000004B90408030000008DAD0108DE
:1019FA009C1000200000000044B804080200000007
:101A0A000DAE0108020000000000000000A7040853
:101A1A0001000000000000000000000000000000BB
:101A2A00000000000E00000000000000000000009E
:101A3A000000000094A70408000000000000000055
:101A4A000000000000000000EBAF040804000000E2
:101A5A0021480108000000000000000000A7040857
:101A6A00010000000000000000000000000000006B
:101A7A00000000000E00000000000000000000004E
:101A8A0000000000BC6800200100C409000000003A
:101A9A00BA6800200100C40900000000B8680020EC
:101AAA000100C40900000000B66800200100C40952
:101ABA0000000000B26800200100C4090000000014
:101ACA00B46800200100C40900000000B0680020CA
:101ADA000100C40900000000AE6800200100C4092A
:101AEA0000000000B0BC00200000FFFF0A00000058
:101AFA00AEBC00200100C80001000000ACBC002000
:101B0A003200307532000000AABC0020055A0500D8
:101B1A00A7BC002000FF0100A9BC002001000000B2
:101B2A0004110020A5BC002002000000CC760408A5
:101B3A00A6BC002000FF0100A8BC00200100000094
:101B4A0004110020A4BC002002000000CC76040886
:101B5A00A2BC002080C1803E05000000A0BC00207D
:101B6A0080C1803E050000009EBC002080C1803EEE
:101B7A00050000009CBC002080C1803E05000000DA
:101B8A009BBC002000FF01009ABC00200A32010021
:101B9A0099BC002004000000A07B040898BC002027
:101BAA0002000000B47B0408519A01080D9A01084A
:101BBA000C110020BABE0020EE02CA080100000083
:101BCA00B8BE002000C8010064000000B7BE0020B3
:101BDA0000C8010064000000B6BE00200200000038
:101BEA00C07B04080000000000000000241200204E
:101BFA00A87B00209CFF2C0100000000F0030020BD
:101C0A000A000000CC7B0408B4B30020E0150C17CE
:101C1A0000000000F203002008000000106B040816
:101C2A00F10300200500000038770408B6B300204D
:101C3A0002000000E47B0408C6BE00200100FF7F0A
:101C4A0001000000C5BE002002000000F07B04086D
:101C5A003EBE00200000F401010000003CBE00204E
:101C6A000000F401010000003ABE00200000F40167
:101C7A000100000038BE00200000F401010000004D
:101C8A004EBE00200100803E050000004ABE002032
:101C9A000000803E6400000048BE00200000803E34
:101CAA006400000046BE00200000803E6400000080
:101CBA004CBE0020030000020100000044BE0020C8
:101CCA00C800E8030100000042BE00201E00E8032D
:101CDA000100000040BE00200000E80301000000EF
:101CEA0036BE00200000803E0100000034BE002005
:101CFA000000803E0100000032BE00200000803E4D
:101D0A000100000030BE00200000803E01000000FB
:101D1A002EBE00200000803E010000002CBE0020E4
:101D2A000000803E010000007FBE0020196401000F
:101D3A0083BE00200064010082BE0020006401000E
:101D4A0081BE00200A32010080BE0020030000008C
:101D5A00007C04087CBE0020E803D0070A000000CB
:101D6A007ABE002000FA01000A00000079BE0020B5
:101D7A0000FA01000A00000078BE002000FA010003
:101D8A000A00000067BE00200064010066BE002051
:101D9A00006401006EBE0020006401000A00000019
:101DAA006DBE0020006401000A0000006CBE002025
:101DBA00006401000A00000071BE002000640100F6
:101DCA000A00000070BE0020006401000A00000042
:101DDA006FBE0020006401000A0000006BBE0020F4
:101DEA0000FF01000A0000006ABE002000FF010097
:101DFA000A00000069BE002000FF01000A0000007E
:101E0A0077BE0020005F01000A00000076BE0020B5
:101E1A00005F01000A00000075BE0020005F01009B
:101E2A000A00000074BE0020005F01000A000000E2
:101E3A0073BE002019AF01000A00000072BE002024
:101E4A0019AF01000A000000B8BC0020000A010016
:101E5A00B7BC0020000A0100B6BC0020000A01003D
:101E6A00C8BC002000FA0100C7BC002000FA01002B
:101E7A00C6BC002000FA0100C4BC00200000F40126
:101E8A0001000000C2BC00200000F40101000000B3
:101E9A00C0BC00200000F40101000000BEBC00200C
:101EAA000000F40101000000BCBC00200000F401A5
:101EBA0001000000BABC00200000F401010000008B
:101ECA0064BE0020FF08010063BE00200164010017
:101EDA0062BE00200064010061BE00200100000013
:101EEA00107C040860BE002000C801005EBE00200D
:101EFA000000D007010000005DBE002000C80100FC
:101F0A005CBE002000C801005BBE002000C80100C2
:101F1A005ABE002000C8010059BE002000FA010084
:101F2A000A00000056BE002000FA01000A00000064
:101F3A0053BE002000FA01000A00000058BE00202B
:101F4A0000FA01000A00000055BE002000FA010054
:101F5A000A00000052BE002000FA01000A00000038
:101F6A0057BE002000FA01000A00000054BE0020FB
:101F7A0000FA01000A00000051BE002000FA010028
:101F8A000A00000086BE0020010A01008EBE002061
:101F9A0000FA01008CBE00200000E80305000000E2
:101FAA0097BE002000C8010096BE002000C80100AC
:101FBA0095BE002000C8010094BE002000C80100A0
:101FCA0093BE002000C8010092BE002000C8010094
:101FDA0091BE002000C8010090BE002000C8010088
:101FEA008FBE002000C801008ABE002000FA01004E
:101FFA0088BE00200000E8030500000085BE00201E
:10200A000064010068B90408000000000000000034
:10201A000000000000000000C4C10408090000001C
:10202A0000000000C812002004000000DCC10408FF
:10203A000900000000000000BC120020040000009B
:10204A00D4C304080900000000000000B0120020F8
:10205A000400000038AA040809000000000000007B
:10206A00A41200200400000078B904080900000046
:10207A0000000000981200200400000080B9040843
:10208A0009000000000000008C120020040000007B
:10209A0088B904080900000000000000801200202E
:1020AA000400000090B904080900000000000000C4
:1020BA00741200200400000000A7040801000000B8
:1020CA000000000000000000000000000000000006
:1020DA000E000000000000000000000000000000E8
:1020EA00B4BB04080000000000000000000000006B
:1020FA000000000094FA0408070000000000000035
:10210A00F812002000000000C4BB04080800000008
:10211A0000000000EC12002000000000D0BB040800
:10212A000800000000000000E0120020000000008B
:10213A00D8BB04080800000000000000D4120020E8
:10214A000000000044B80408020000000DAE0108B7
:10215A00010000000000000000A7040801000000C0
:10216A000000000000000000000000000000000065
:10217A000E00000000000000000000000000000047
:10218A00E8BB040800000000000000000000000096
:10219A0000000000F8BB04080D0000000000000069
:1021AA00341300200000000000BC04080D000000E9
:1021BA0000000000281300200000000008BC0408EA
:1021CA0007000000000000002013002000000000AB
:1021DA0010BC04080D0000000000000014130020C9
:1021EA000000000018BC04080D00000000000000F8
:1021FA00081300200000000020BC040807000000AB
:10220A0000000000001300200000000044B8040889
:10221A00020000000DAE01080100000000000000ED
:10222A0000A70408010000000000000000000000F0
:10223A0000000000000000000E0000000000000086
:10224A00000000000000000028BC04080000000094
:10225A0000000000000000000000000094FA0408DA
:10226A000C000000000000008AC1002000000000ED
:10227A003CBC04080C000000000000008CC10020D7
:10228A00000000004CBC04080C0000000000000024
:10229A00C2C10020000000005CBC04080C00000061
:1022AA0000000000B6C100200000000070BC040855
:1022BA000C000000000000008EC100200000000099
:1022CA007CBC04080C0000000000000090C1002043
:1022DA000000000084BC04080C000000000000009C
:1022EA0092C100200000000098BC04080C00000005
:1022FA000000000094C1002000000000A0BC0408F7
:10230A000C0000000000000096C100200000000040
:10231A00A8BC04080C00000000000000D4C1002082
:10232A0000000000C0BC04080C000000000000000F
:10233A0098C1002000000000CCBC04080C0000007A
:10234A00000000009AC100200000000060BE0408DE
:10235A000C000000000000009CC1002000000000EA
:10236A00D4BC04080C000000000000009EC100203C
:10237A0000000000E0BC04080C000000000000009F
:10238A00A0C1002000000000ECBC04080C00000002
:10239A0000000000A2C1002000000000F8BC0408F0
:1023AA000C00000000000000A4C100200000000092
:1023BA0004BD04080C00000000000000A6C10020B3
:1023CA000000000010BD04080C000000000000001E
:1023DA00BAC100200000000018BD04080C0000006B
:1023EA0000000000B8C100200000000020BD040861
:1023FA000C00000000000000C6C100200000000020
:10240A002CBD04080C00000000000000C8C1002018
:10241A000000000038BD04080C00000000000000A5
:10242A00CEC1002000000000C4AB04080C0000006C
:10243A0000000000A8C100200000000050A8040805
:10244A000C00000000000000B0C1002000000000E5
:10245A0044BD04080C00000000000000AAC10020CE
:10246A000000000050BD04080C000000000000003D
:10247A00ACC10020000000005CBD04080C00000094
:10248A0000000000AEC100200000000064BD040886
:10249A000C00000000000000B2C100200000000093
:1024AA00ACA804080C00000000000000BCC1002019
:1024BA000000000070BD04080C00000000000000CD
:1024CA00B4C10020000000007CBD04080C0000001C
:1024DA0000000000C4C100200000000088BD0408FC
:1024EA000C00000000000000BEC100200000000037
:1024FA0090BD04080C00000000000000C0C10020CC
:10250A000000000098BD04080C0000000000000054
:10251A00CAC1002000000000A0BD04080C00000091
:10252A0000000000CCC1002000000000A8BD040883
:10253A000C00000000000000DCC1002000000000C8
:10254A0000A70408010000000000000000000000CD
:10255A0000000000000000000E0000000000000063
:10256A000000000000000000B0BD040800000000E8
:10257A00000000000000000000000000BCBD0408CC
:10258A000D000000000000008C1300200000000075
:10259A00C4BD04080D0000000000000080130020E4
:1025AA0000000000CCBD0408070000000000000085
:1025BA007813002000000000D8BD040807000000BE
:1025CA00000000007013002000000000E4BD0408B1
:1025DA000900000000000000641300200000000051
:1025EA00F0BD040809000000000000005813002094
:1025FA0000000000FCBD0408090000000000000003
:10260A004C130020000000000CBE04080900000062
:10261A0000000000401300200000000044B8040835
:10262A00020000000DAE01080100000000000000D9
:10263A0000A70408010000000000000000000000DC
:10264A0000000000000000000E0000000000000072
:10265A00000000000000000020BE04080000000086
:10266A00000000000000000000000000DCB70408C1
:10267A000000000000000000000000000000000050
:10268A0030BE04080D00000000000000C81300203E
:10269A00000000003CBE04080B000000000000001F
:1026AA00BC1300200000000048BE04080B00000014
:1026BA0000000000B01300200000000058BE04080B
:1026CA000800000000000000A41300200000000021
:1026DA006CBE0408030000008DAD010898130020A9
:1026EA000000000044B80408020000000DAE010812
:1026FA00020000000000000000A70408010000001A
:10270A0000000000000000000000000000000000BF
:10271A000E000000000000000000000000000000A1
:10272A0078BE04080000000000000000000000005D
:10273A0000000000BCA60408000000000000000021
:10274A00AC0300200400000084BE04080D00000051
:10275A00854801081C14002000000000ECA70408AA
:10276A000D0000002D2901081014002000000000AF
:10277A00D8BC04080D000000112901080414002027
:10278A000000000060A80408080000000000000023
:10279A00F81300200400000050A804080D000000EF
:1027AA005B280108EC1300200000000088BE040822
:1027BA000900000000000000E013002004000000EF
:1027CA00F8BD0408030000008DAD0108D4130020F1
:1027DA000000000000A7040801000000000000003B
:1027EA000000000000000000000000000E000000D1
:1027FA0000000000000000000000000090BE040875
:10280A0000000000000000000000000000000000BE
:10281A00A0BE04080D0000000000000034140020CF
:10282A0000000000A8BE04080A0000000000000022
:10283A0072C1002000000000B4BE04080A000000B3
:10284A00000000007AC1002000000000BCBE04089D
:10285A000A0000000000000082C100200000000001
:10286A00C4BE04080800000000000000281400206C
:10287A000000000044B80408020000000DAE010880
:10288A00010000000000000000A704080100000089
:10289A00000000000000000000000000000000002E
:1028AA000E00000000000000000000000000000010
:1028BA00CCBE040800000000000000000000000078
:1028CA0000000000E0BE040808000000000000004C
:1028DA000C15002000000000F0BE040808000000EB
:1028EA0000000000001500200000000000BF0408DE
:1028FA000800000000000000F4140020000000009E
:10290A0010BF04080800000000000000E8140020BE
:10291A000000000020BF04080800000000000000BA
:10292A00DC1400200000000030BF0408080000008A
:10293A0000000000D01400200000000040BF04087E
:10294A000800000000000000C4140020000000007D
:10295A004CBF04080800000000000000B814002062
:10296A00000000005CBF040808000000000000002E
:10297A00AC140020000000006CBF0408080000002E
:10298A0000000000A01400200000000074BF04082A
:10299A00080000000000000094140020000000005D
:1029AA007CBF040808000000000000008814002012
:1029BA000000000084BF04080800000000000000B6
:1029CA007C140020000000008CBF040808000000EE
:1029DA000000000070140020000000009CBF0408E2
:1029EA00080000000000000064140020000000003D
:1029FA00A8BF0408080000000000000058140020C6
:102A0A0000000000B4BF0408080000000000000035
:102A1A004C14002000000000C0BF04080800000099
:102A2A0000000000401400200000000044B8040820
:102A3A00020000000DAE01080100000000000000C5
:102A4A0000A70408010000000000000000000000C8
:102A5A0000000000000000000E000000000000005E
:102A6A000000000000000000CCBF040800000000C5
:102A7A00000000002B0F002000000000D8BF04084F
:102A8A000B000000000000002C16002000000000CF
:102A9A00E8BF04080B000000000000002016002018
:102AAA0000000000F4BF04080B0000000000000052
:102ABA00141600200000000004C004080B000000E7
:102ACA0000000000081600200000000010C00408E2
:102ADA000B00000000000000FC15002000000000B0
:102AEA0024C004080B00000000000000F0150020BC
:102AFA000000000034C004080B00000000000000C1
:102B0A00E41500200000000040C004080B0000008B
:102B1A0000000000D8150020000000004CC0040886
:102B2A000B00000000000000CC150020000000008F
:102B3A0058C004080B00000000000000C015002067
:102B4A000000000064C004080B0000000000000040
:102B5A00B41500200000000070C004080B0000003B
:102B6A0000000000A8150020000000007CC0040836
:102B7A000B000000000000009C150020000000006F
:102B8A0088C004080B000000000000009015002017
:102B9A000000000094C004080B00000000000000C0
:102BAA008415002000000000A0C0040807000000EF
:102BBA00000000007C15002000000000A8C00408E6
:102BCA00070000000000000074150020000000004B
:102BDA00B4C004080B0000000000000068150020C3
:102BEA0000000000C0C004080B0000000000000044
:102BFA005C15002000000000CCC004080B00000097
:102C0A00000000005015002000000000D8C0040891
:102C1A000800000000000000441500200000000029
:102C2A00E8C004080D00000000000000381500206C
:102C3A0000000000F8C004080700000000000000BF
:102C4A00301500200000000008C104080700000039
:102C5A0000000000281500200000000018C1040828
:102C6A0007000000000000002015002000000000FE
:102C7A0028C1040807000000000000001815002001
:102C8A000000000044B80408020000000DAE01086C
:102C9A00010000000000000000A704080100000075
:102CAA00000000000000000000000000000000001A
:102CBA000E000000000000000000000000000000FC
:102CCA003CC10408000000000000000000000000F1
:102CDA000000000050C104080800000000000000C5
:102CEA00A41600200000000060C1040808000000CB
:102CFA0000000000981600200000000070C10408BF
:102D0A0008000000000000008C16002000000000EF
:102D1A0080C104080800000000000000801600209E
:102D2A000000000090C10408080000000000000034
:102D3A007416002000000000A4C104080800000066
:102D4A00000000006816002000000000B4C104085A
:102D5A0007000000000000006016002000000000CC
:102D6A00CCC104080700000000000000581600202B
:102D7A0000000000E4C10408070000000000000091
:102D8A005016002000000000F8C1040807000000E7
:102D9A0000000000481600200000000008C20408D5
:102DAA00070000000000000040160020000000009C
:102DBA001CC20408070000000000000038160020AA
:102DCA000000000044B80408020000000DAE01082B
:102DDA00010000000000000000A704080100000034
:102DEA0000000000000000000000000000000000D9
:102DFA000E000000000000000000000000000000BB
:102E0A002CC204080000000000000000280F002067
:102E1A00000000003CC204080B0000000000000093
:102E2A00681700200000000048C204080B000000D8
:102E3A00000000005C1700200000000054C20408D3
:102E4A000B000000000000005017002000000000E6
:102E5A0060C204080B0000000000000044170020B4
:102E6A00000000006CC204080B0000000000000013
:102E7A00381700200000000078C204080B00000088
:102E8A00000000002C1700200000000084C2040883
:102E9A000B000000000000002017002000000000C6
:102EAA0090C204080B000000000000001417002064
:102EBA00000000009CC204080B0000000000000093
:102ECA000817002000000000A8C20408070000003C
:102EDA00000000000017002000000000B4C204082F
:102EEA000700000000000000F816002000000000A3
:102EFA00C0C204080700000000000000F01600200D
:102F0A0000000000D0C20408070000000000000012
:102F1A00E816002000000000E0C2040808000000D3
:102F2A0000000000DC16002000000000E8C20408CF
:102F3A000700000000000000D41600200000000076
:102F4A00F4C204080D00000000000000C8160020AA
:102F5A000000000004C3040807000000000000008D
:102F6A00C01600200000000010C30408070000007B
:102F7A0000000000B81600200000000020C304086A
:102F8A000600000000000000B0160020000000004B
:102F9A0044B80408020000000DAE01080100000058
:102FAA000000000000A70408010000000000000063
:102FBA000000000000000000000000000E000000F9
:102FCA0000000000000000000000000030C30408F8
:102FDA000000000000000000280F00200000000090
:102FEA0048C304080700000000000000EC17002096
:102FFA000000000054C3040808000000000000009C
:10300A00E01700200000000060C304080700000069
:10301A0000000000D8170020000000006CC304085C
:10302A000700000000000000D01700200000000088
:10303A0074C304080700000000000000C81700203D
:10304A00000000007CC30408070000000000000024
:10305A00C01700200000000064C204080700000036
:10306A0000000000B81700200000000070C2040829
:10307A000700000000000000B01700200000000058
:10308A007CC204080700000000000000A817002006
:10309A000000000084C304080700000000000000CC
:1030AA00A0170020000000008CC3040807000000DD
:1030BA0000000000981700200000000094C30408D4
:1030CA000700000000000000901700200000000028
:1030DA009CC30408080000000000000084170020B8
:1030EA0000000000ACC30408070000000000000054
:1030FA007C17002000000000BCC304080700000081
:10310A0000000000741700200000000044B8040802
:10311A00020000000DAE01080100000000000000DE
:10312A0000A70408010000000000000000000000E1
:10313A0000000000000000000E0000000000000077
:10314A000000000000000000000000006596010871
:10315A00F4170020B5BC00202C000000187C0408DD
:10316A00B4BC002000C80100B2BC0020E803D007AC
:10317A00010000005245564F4E414E4F00000000DC
:10318A00ED950108C5950108D01800208D95010814
:10319A004D95010870190020CDAA0108B5AA0108A9
:1031AA00381A002001950108BD940108581D002015
:1031BA00459B0108159B0108481E00209928010813
:1031CA0000000000101F002065AA0108A99B010841
:1031DA00EC1F0020B197010835970108A0200020B4
:1031EA00E9980108359901085822002065BE002097
:1031FA0001060100D196010879960108B024002041
:10320A002D980108E5AA0108F0250020699901080E
:10321A00A5AB0108BC27002050BE00200103010015
:10322A00C4C3040800000000000000000000000001
:10323A0000000000D0C304080800000000000000DD
:10324A005829002000000000D8C304080700000025
:10325A00000000005029002000000000E8C3040814
:10326A000D000000000000004429002000000000BA
:10327A00F4C30408030000008DAD010838290020BA
:10328A000000000044B80408020000000DAE010866
:10329A00010000000000000000A70408010000006F
:1032AA000000000000000000000000000000000014
:1032BA000E000000000000000000000000000000F6
:1032CA00FCC3040800000000000000000000000029
:1032DA00000000000CC404080A00000000000000FE
:1032EA00D4A504080000000014C404080A00000061
:1032FA00000000008CB70408000000001CC4040889
:10330A000A00000000000000BCBE0020000000000F
:10331A0024C404080A0000000000000064290020F8
:10332A000000000000A704080100000000000000DF
:10333A000000000000000000000000000E00000075
:10334A000000000000000000000000002CC4040877
:10335A000000000000000000000000000000000063
:10336A0038C40408030000008DAD01088829002034
:10337A000000000044C40408030000008DAD0108E9
:10338A007C290020000000004CC40408030000004F
:10339A008DAD0108702900200000000044B804081F
:1033AA00020000000DAE010801000000000000004C
:1033BA0000A704080100000000000000000000004F
:1033CA0000000000000000000E00000000000000E5
:1033DA00000000000000000054C4040800000000BF
:1033EA0000000000000000000000000068C404089B
:1033FA00030000008DAD0108B8290020000000007C
:10340A0074C40408030000008DAD0108F403002011
:10341A00000000007CC40408030000008DAD010810
:10342A00AC29002000000000A4AA04080300000040
:10343A008DAD0108A02900200000000050A8040852
:10344A00030000008DAD010894290020000000004F
:10345A0044B80408020000000DAE01080100000093
:10346A000000000000A7040801000000000000009E
:10347A000000000000000000000000000E00000034
:10348A0000000000000000000000000084C40408DE
:10349A000000000000000000000000000000000022
:1034AA0094C40408070000002DAC0108082A002073
:1034BA000000000060BD0408030000008DAD010893
:1034CA00FC29002000000000A0C40408030000003A
:1034DA008DAD0108F029002000000000A8C40408EE
:1034EA00030000008DAD0108E4290020000000005F
:1034FA00B0C404080700000011AC0108DC29002050
:10350A000000000058AA0408030000008DAD01085D
:10351A00D029002000000000BCC4040803000000F9
:10352A008DAD0108C42900200000000044B8040839
:10353A00020000000DAE01080100000000000000BA
:10354A0000A70408010000000000000000000000BD
:10355A0000000000000000000E0000000000000053
:10356A0000000000000000003D96010815960108C1
:10357A00102A0020759B010800000000B02A0020D4
:10358A0049950108459501083C2B002000000000E0
:10359A0000000000C82B0020E599010849AC010889
:1035AA007C2C0020C8C404080000000000000000B1
:1035BA0000000000000000007CA8040803000000CE
:1035CA008DAD0108882D002000000000D4C4040835
:1035DA00030000008DAD01087C2D002000000000D2
:1035EA000CAB0408030000008DAD0108702D00200B
:1035FA0000000000E0C40408030000008DAD0108CB
:10360A00642D002000000000ECC404080300000040
:10361A008DAD0108582D002000000000F4C40408F4
:10362A00020000000DAE01080000000000000000CA
:10363A0044B80408020000000DAE010801000000B1
:10364A0000000000FCC40408020000000DAE0108DE
:10365A000200000000000000000000000E00000050
:10366A00000000000000000000000000FFFF000052
:10367A000000803F00000000000000000000000081
:10368A000000803F00000000000000000000000071
:10369A000000803F00000000000000000000000061
:1036AA00FFFFFFFF05D0030805D003080000803F95
:1036BA00FF0000000000000074E200200800000083
:1036CA000000000064E200200800000010A10408C5
:1036DA00050804000000000038770408106B04088D
:1036EA002477040800000000000000003CA1040840
:1036FA0005080A000000000038770408106B040867
:10370A00CC7B04080000000000000000010102FF59
:10371A00FF000000685E0C00A98E0008898D000871
:10372A003DE6000800000000C1880008F5E3000833
:10373A00018D00085DE300080000000000000000A1
:10374A007D880008198E0008498D000889E500085F
:10375A00000000009588000861E30008D58C000885
:10376A00B1E200080000000000000000898800089B
:10377A0080010000080000000400000000000000B2
:10378A00000000000102030406070809FF00000008
:10379A00842F00200000000000000000000000004C
:1037AA00000000000000000000000000000000000F
:1037BA0000000000000000000000000000000000FF
:1037CA0000000000000000000000000000000000EF
:1037DA0000000000000000000000000000000000DF
:1037EA0000000000000000000000000000000000CF
:0437FA0000000000CB
:108000002DE9F04F2DED108B034697B004331593F7
:10801000DFEDCACA149002238A4613928B4612934C
:10802000149C4FEADB0604EB461202EB061031010A
:10803000A6EB86034FEAC60806EB4605CDE900012C
:1080400000EBC303043108F10400119620442144DD
:108050002C01C6EBC60C0394EC00119D04944FEA6E
:10806000CC0405946C0106EB860E0294159D009CD1
:1080700003EB46174FEACE0E02EBC6064FEACB09DA
:108080004FF0000C51ED01AAD3ED001A92ED007AE9
:1080900094ED005A96ED004AD7ED007A15ED012ACD
:1080A00050ED016A32EE07BA76EE840A7AEE855A0E
:1080B00031EEA70A3BEE256A70EE804A76EEC46A7E
:1080C00036EE244A36EE646A05ED014A82ED006A16
:1080D000D0ED00BAD6ED012AD3ED019A95ED00AAB4
:1080E00092ED016A97ED013A91ED00CAD4ED014A93
:1080F0007BEEE23A36EEE19A32EE472A73EEE98AF7
:108100003AEE464A39EE279A78EE838AB0EE428AF2
:10811000A9EE6C8ADC44E24573EEC33AB0EE441A31
:10812000A8EEEC1A76EEE77A33EEA97A7CEE643AA2
:1081300077EEA17A3AEE066A7AEEC51A3CEE24AAE8
:1081400074EECC4A39EE833A35EE6A5AF0EE639A11
:10815000F0EE48AAE7EE2C9AA8EEAC4AE7EE2C4ADD
:10816000E7EE6CAAF0EE418AB0EE427AB0EE612AF8
:108170007BEE656A7BEEA22A76EE4A5AA9EE2C7A4D
:10818000A7EEAC2AA7EEAC5AE7EEEC8A32EE83BA41
:1081900076EEC3BA35EEE09A75EEC07A36EE0A6A2C
:1081A00076EEE26A36EE0BAA76EE836A77EEA07A76
:1081B00034EE423A77EE290A36EE4B6A7BEEA22A7B
:1081C00039EE000A73EEAA3A78EE244A37EE697A5D
:1081D00031EE055A71EEA85A32EE044A85ED00AA36
:1081E00082ED016A4D4441ED012A4A44C4ED006A22
:1081F00081ED000AC4ED017A494440ED010A4C4486
:1082000087ED007AC6ED003AC3ED004A80ED003AF2
:1082100087ED014A484486ED015A4F44C3ED015AA7
:108220004E444B443FF62EAF119B072B40F2C781C3
:10823000029D149E019B03980499059A08357519AF
:108240000C330E95354608F108080EF10804EB18BA
:1082500008300831083246442C1928186918AA1821
:10826000079305F10C030D960C940B900A9109925B
:1082700008934FF001084FF0000E129B9E44139B91
:1082800003EBCE0303EBCE02109302EBCE0303EB22
:10829000CE01029101EBCE0101EBCE0505EBCE063E
:1082A000D6ED007A0F93AEEB8E03019106EB03132C
:1082B00003EBCE07D3ED01AACDED067A019BD5EDF8
:1082C000007A97ED01BACDED057AD3ED007A029BE5
:1082D000CDED047AD3ED007A0F9BCDED037A07EB59
:1082E000CE0CD3ED007ADCED01BACDED027A0CEBC9
:1082F000CE01D2ED007A109A009101EBCE0001463A
:1083000091ED01DACDED017A0099D2ED007A91ED8F
:1083100001CA00EBCE0000EBCE0494ED01EAD0EDF3
:1083200001DACDED007ADDE90776DDE90954DDE912
:108330000B01DDE90D23C44602E000BFF304353F25
:1083400094ED009A90ED00FA91ED006AD5ED007A77
:10835000D3ED006A57ED014A92ED005A56ED013A0D
:1083600096ED00AA35EE060A73EEA65A39EE278A74
:1083700034EE8F7A70EE082A75EE87EA35EE465AAB
:108380003EEEA26A73EEE63A06ED016AD1ED019A7D
:10839000D2ED01FAD4ED016AD3ED011A95ED013A5F
:1083A000D0ED018A97ED004A3FEEE96A35EE491AB1
:1083B00076EE660A31EE271A3AEE612A75EE677A92
:1083C00070EE830A3FEEA95A74EECF9A77EE897A5F
:1083D0007AEE211AB0EE42AA74EE68FAA0EEECAA88
:1083E000DC44E24535EEC77AB0EE639A74EE285A63
:1083F00038EEC44AF0EE698AA1EE6C9AE7EEAC8AD8
:1084000036EE436A7FEE644A36EE266AA0EEAC2A68
:10841000F0EE4A0AE7EEEC0AE7EEAC4AF0EE687AD4
:10842000F0EE498A36EE833AE6EE6C8AE1EE2C3ABB
:10843000B0EE6F1AA6EE2C1A71EEE56AA6EE2C4A83
:1084400071EEA55A75EE031A7EEEE22A37EE43FA74
:1084500075EEE1EAB0EE686A76EEC08A39EE044A5B
:108460007FEE86FA76EEC86A33EE816A38EE888A45
:1084700073EEC13A37EE457A2CEE2E1A3FEE055ACE
:1084800022EECC9A9DED03FA70EE266A33EE077A5F
:10849000AFEE221AAFEE2E9A7AEE244A9DED01FA43
:1084A00079EEA09A25EE4BAA72EE670A37EE822A81
:1084B0006BEE087AAFEE08AAEFEE057A2DEEA63A3B
:1084C0009DED05FA67EE6D8AAFEE073AEFEE268A6C
:1084D00066EE6A2A9DED00FA2AEEA00AEFEE202A47
:1084E0006EEE02EADDED060A23EECE5AE0EEA3EAD6
:1084F0002BEEA98ADDED023AAFEE060AA3EE848ADE
:1085000024EE6B7A6DEE246A9DED044A2FEECD6A5F
:10851000A0EE825AA3EEA97AE4EE2F6AA4EE246AB2
:1085200075EEA15AC6ED005A83ED001A83ED019A4B
:108530004E4447ED017A87ED00AA4B4480ED003AA6
:10854000C0ED018A4F4482ED000A4844C2ED012A81
:10855000C5ED00EA85ED015A4A44C1ED006A81ED9E
:10856000016A4D4484ED008A84ED017A49444C440B
:108570003FF6E6AE0E9B08330E930D9B08330D932A
:108580000C9B08330C930B9B08330B930A9B08330B
:108590000A93099B08330993089B08330893079BA8
:1085A00008330793119B08F1010843457FF465AE3A
:1085B000129BDDF844B0DB009BB2129330E517B09C
:1085C000BDEC108BBDE8F08F037830B403B30246E6
:1085D000C0F10105531912F8014FDBB2002CF9D19B
:1085E00001335B00DAB20C4C0B8003232270637002
:1085F000017859B1022300255A1CD2B2E154A55486
:1086000010F8011F0233DBB20029F5D130BC7047EE
:1086100002221346E7E700BFE82F0020084AD2E90C
:10862000403199420AD0D118013391F808110170F4
:10863000C3F30A03C2F800310120704700207047DD
:10864000E82F0020064AD2F80839D2F80C299342C4
:1086500094BF4FF400600020013B9B1A1844704700
:10866000E82F0020012380F84D30704707B501A89E
:10867000FFF7D4FF0028FAD09DF8040003B05DF89E
:1086800004FB044BD3E94003984288BF03F5006321
:10869000181A7047E82F002001207047024BC3F8DA
:1086A0001029C3F814197047E82F0020024BC3F8B3
:1086B0001829C3F81C197047E82F0020704770472D
:1086C00030B4134DD5E940239A4286BF03F50064C8
:1086D000A21A9A1A0A44B2F5006F13D8A9B101443C
:1086E0004A1E013810F8014FE918824203F10103D4
:1086F00081F80841C3F30A03F4D1C5F8043100201E
:1087000030BC7047022030BC70470846F8E700BF15
:10871000E82F0020212838B50C4605D022282ED07D
:10872000202813D0002038BD0029FBD0072AF9D11A
:108730001A4BD3F8200993F8241993F8252993F8B4
:108740002639206021716271A371EBE70029E9D01D
:10875000072AE7D1114DD5F814391BB10968D5F8AE
:1087600010099847206821796279A379C5F8200912
:1087700085F8241985F8252985F82639D2E70029B6
:10878000D0D0022ACED1054AD2F81C39002BC9D04C
:108790000988D2F818099847C4E700BFE82F0020DD
:1087A000024B0020C3F82809704700BFE82F0020C3
:1087B000044B00200522C3F82829C3F81C09C3F87C
:1087C00014097047E82F0020704700BF704700BFB2
:1087D000704700BF704700BF704700BF704700BFC1
:1087E000704700BF08B50248FFF7EEFE014808BD1C
:1087F0006CA50408E82F002008B50248FFF7E4FE46
:10880000014808BD7CA50408E82F002008B50248EF
:10881000FFF7DAFE014808BD88A50408E82F00200C
:1088200008B50248FFF7D0FE014808BD94A504082A
:10883000E82F002008B50248FFF7C6FE014808BD32
:10884000A0A50408E82F0020042301480B807047EE
:108850000000002010B4074A074B92F82C0912249C
:1088600003F114020C8001280CBF184610465DF875
:10887000044B7047E82F00200400002064230148C7
:108880000B8070472C000020432301480B80704769
:108890009000002010B5084CD4F8D400FF2809D06F
:1088A0000649D1F8302901F63411FFF733FFFF23D1
:1088B000C4F8D430002010BD00000020E82F0020B4
:1088C000E8E700BF08B5D0F8E4355B6A98470020B8
:1088D00008BD00BF08B5D0F8E4351B6A98470020F2
:1088E00008BD00BFD0F8E43510B504461B689847B2
:1088F000D4F8E8359B689847002010BD08B5D0F83B
:10890000E435DB6903B19847002008BD08B50422AF
:1089100090F81211D0F8E83580F8131180F8122180
:10892000DB689847002008BD10B5D0F8E83504464C
:108930001B699847032384F81231002010BD00BF43
:108940000B0617D401EB810300EBC30310B400EB5B
:1089500081000124002283F8764383F8741383F89E
:108960007523426D5DF8044B136843F40013002037
:108970001360704701F07F0101EB810300EBC3033B
:10898000012200EB810083F81C1183F81E2183F87B
:108990001D2182691368002B01DA43F0804343F400
:1089A000001313600020704782B000230168019318
:1089B0000B6901930E4B03E00A690192013B13D04E
:1089C000019A002AF8DA019A094B42F00102019259
:1089D000019A0A610A69019203E00A690192013B66
:1089E00002D0019AD207F8D4002002B0704700BF2D
:1089F000400D0300436D064A1A61C278012A06D170
:108A000000F2CC5058614FF0802219681A6070470C
:108A10001800086010B580210446FFF791FF20463A
:108A20000021FFF78DFF2046BDE81040E2E700BFC0
:108A300070B44B78012B26D00B784A6900EB830386
:108A40005C6D25682369D2B18A684A6102F07F02B1
:108A500023F4002323F07F0342F400221343236115
:108A6000C378012B04BF0B696361C5F3076363F02F
:108A70007B0363F31F652560002070BC70478A6824
:108A800002F07F02E4E782694C691568136944B318
:108A90008E68B4428CBF06F07F0404F07F0423F498
:108AA000002323F07F0344F4002443EA040388BF37
:108AB0004E611361C378012B1DD0C5F3076464F0C8
:108AC0007B0464F31F651560002BD5D14B69002B27
:108AD000D2D002690878516B012383400B43536362
:108AE000CAE723F4002323F07F0343F40023136138
:108AF000C378012BE1D10B780C6900EB8300C5F33F
:108B00000763816963F07B0363F31F654C61002099
:108B1000156070BC704700BF2DE9F0434B78012B06
:108B200030D00B784C6900EB83035E6D3568376994
:108B30001CB38B681C44013CB4FBF3F4C4F309027E
:108B400003FB02F3C3F312034B61144643EAC4432D
:108B500063F31C073761C378012B04BF0B69736192
:108B6000CB78012B44D0C5F3076363F07B0363F339
:108B70001F6535600020BDE8F0838A680124C2F3D8
:108B80001203E3E791F800804E6900EB880EDEF8EF
:108B900018C0DCF80050DCF8107076B3D1F80890FB
:108BA000384A06EB0904013CB4FBF9F402EAC44478
:108BB000C6F312022243CC7807F060473A43012CF7
:108BC000174649D0CCF81020C278012A55D0026946
:108BD000516B03FA08F30B435363C5F3076363F068
:108BE0007B0363F31F65CCF800500020BDE8F083E1
:108BF0004B7973B345F00055B5E707F0604747F48C
:108C00000027CC78CCF81070C378012B2FD0012C22
:108C1000E3D102699268D20554BF45F0005545F092
:108C20008055C5F3076262F07B0262F31F65CCF8E2
:108C30000050002B9ED1B0B203308010DEF8D0403F
:108C400098D0CA6852F8041B216001339842F9D1C8
:108C500090E745F0805586E764F35E77CCF81070B6
:108C6000C378012BD5D10A69CCF81420D1E70A6961
:108C7000CCF81420012CB0D1CBE70B69CCF8143020
:108C8000ABE700BF0000F81F38B501EB810400EB33
:108C9000C4040D46002184F87453C4F88C1384F87E
:108CA0007513C4F88833C4F88023C3782821012BB6
:108CB00001FB050108BFEDB201F55D7108BFC4F805
:108CC00084231DB9FFF7B4FE002038BDFFF724FF51
:108CD000002038BD10B501EB8101084A00EBC1014D
:108CE0000446B1F88C131046FFF7EAFC034A20460D
:108CF00040230121FFF7C8FF002010BD24390020C8
:108D0000E8E700BF30B44C780022012C154612D0A1
:108D1000097800EB810401238B40646D63F31F45E8
:108D200001696FF3CF322260CB6923EA050300208B
:108D300030BCCB6170470B7800EB83019C4064F33F
:108D40000F058C69ECE700BF40F2011310B500F588
:108D5000A2710446A0F84431FFF7D4FF0123A4F820
:108D60009C3304F567712046FFF7CCFF4FF4817305
:108D7000A4F86C3104F5B6712046FFF7C3FFFFF786
:108D80000FFD002010BD00BF38B540F203130446AC
:108D90000D46A0F8943100F5CA71FFF7B3FF2946DC
:108DA0002046FFF7D1FF002038BD00BFF0B44B785C
:108DB0000A78012B4FF0000400EB820524D0012338
:108DC00093406D6D63F31F442E68330415D48A6895
:108DD00091F803C0CF880F49C2F30A0242F08053D2
:108DE00043F400430CF0030243EA824307F00F020E
:108DF00043EA825331400B432B600369DA69144321
:108E0000DC610020F0BC70479340AD6963F30F0450
:108E1000DAE700BF007833EC2DE9F04140F20113AE
:108E2000044602254FF0400801270026A0F84431EF
:108E3000C0F84C8180F84751A0F84A7180F8486129
:108E400000F5A271FFF7B2FF04F56771A4F89C73F7
:108E5000C4F8A48384F89F5384F8A0632046FFF7E6
:108E6000A5FF082203234FF48171C4F87421A4F8EC
:108E70006C1184F86F3104F5B671A4F87251204674
:108E8000FFF794FF064B9D83FFF792FC054A43468C
:108E900020463946FFF7F8FE3046BDE8F08100BFB6
:108EA000000000202439002070B50323082240F27E
:108EB000031604460D46C0F89C2180F89731A0F8AF
:108EC0009A31A0F8946100F5CA71FFF76FFF294647
:108ED0002046FFF7A1FF002070BD00BF70B5002540
:108EE00040260446A0F8745380F87753C0F87C639A
:108EF00000F55D71FFF75AFF4FF48073A4F81C3141
:108F000004F58E71C4F8246184F81F51A4F822512D
:108F10002046FFF74BFFD4F8E835A078012284F80B
:108F200012215B689847284670BD00BF82B00023BD
:108F30000193019A094B42F010020192C168019A13
:108F40000A610A69019203E00A690192013B02D0B9
:108F5000019AD206F8D4002002B07047400D0300F9
:108F600082B000230193019A0B4B42F02002019240
:108F7000019A61F38A120192C168019A0A610A6931
:108F8000019203E00A690192013B02D0019A920624
:108F9000F8D4002002B07047400D03000E4BDA6891
:108FA000D20310D4DA68D1060FD4DA68D20510D40F
:108FB000DA6812F0E00F0AD1DB6813F0020F14BF79
:108FC00008200920704701207047062070470720BD
:108FD00070470220704700BF003C0240024A536ABB
:108FE00023EA0000506270470038024030B1044B61
:108FF00093F97C090028D4BF00200120704700BFEE
:10900000E82F002008B5FFF7F1FF18B1024BD3F8A5
:1090100080390B8008BD00BFE82F002008B5FFF79E
:10902000E5FF18B1024B93F884390B7008BD00BFFF
:10903000E82F002008B5FFF7D9FF80B10B4BB3F83C
:10904000863963B1192B0BD9642B0BD9C82B0BD9DB
:10905000B3F5C87F94BF0323042301330B7008BD0D
:109060000023FAE70123F8E70223F6E7E82F0020C0
:1090700010B5FFF7BBFF48B1064B93F8884934B9E8
:1090800093F889490C7093F88A39137010BD002445
:10909000F8E700BFE82F00200420704728B1034BF9
:1090A00093F9D800003818BF012070470000002055
:1090B00008B5FFF7F3FF50B1054B93F9D820022A0A
:1090C00003BF93F8DB30C3F340030B70002008BDEF
:1090D0000000002008B5FFF7E1FF80B10C4A92F9CB
:1090E000DA3092F9D820012A0ED1272B08DC182B70
:1090F00008DC0F2BD4BF0023012301330B7008BD04
:109100000323FAE70223F8E70133DBB2F6E700BFF7
:109110000000002010B5FFF7C1FFC0B10D4C94F85E
:10912000DB30DB0714D494F9D930002BB8BF0733F8
:10913000DB100133DBB20B7094F9D930594201F0E6
:10914000070103F0070358BF4B420133137010BDF2
:109150000023F0E70000002003207047F0B5174A15
:10916000D2F88C5992F88B3915F0005514BF0427AA
:1091700006275C1CB4FBF7F607FB164692F89079BD
:10918000BE420CD01EB2DB0055B102F694152B4442
:1091900004F0030445F8360082F88B495960F0BDAD
:1091A00002F6B4152B4445F8360059600621B4FB8D
:1091B000F1F301FB134482F88B49F0E7E82F00201C
:1091C000002230B504461046914200DC30BDA35C5D
:1091D0000825584010F0800F4FEA400318BF83F075
:1091E000D503013DD8B2F5D10132EDE710B5E9B1B3
:1091F0000F4C94F9D820CAB14B1EDBB2032B15D803
:10920000012A0C4A0C484FEAC30313444FF00501EE
:109210000CBF1B799B7984F8E430FFF7D1FF06215E
:1092200084F8E500BDE81040034897E710BD00BF93
:10923000000000201C670408E0000020074A92F8A4
:10924000E43992F8E5190133DBB2994282F8E43946
:1092500004BF002382F8E439704700BFE82F0020E4
:10926000F8B5794CD4F8E83973B194F8EC395BB1BE
:10927000764B94F8ED29A3FB0013012A4FEA9313D0
:1092800030D0022A08D002B1F8BD714B9842FBD908
:10929000012384F8ED39F8BDD4F8F02964329A42FC
:1092A00040D894F8E43904EB031393F8102DFF2A07
:1092B00006D068490132012083F8102D81F8E600BC
:1092C000FFF7BCFF94F8043D0122092B84F8ED2937
:1092D000DAD1B4F8AA3D13449BB2A4F8AA3DA4F88D
:1092E0000A3DF8BD94F8E419C4F8F03901EB4103E4
:1092F00004EB4313002594F8040D84F8025A0A2560
:1093000084F8035A092804F6F81583F8182A4FF050
:109310000203C4F8F45984F8ED39B5D10131A4F849
:10932000081DF8BD94F8022A94F8033A9A42ABD18A
:1093300004F6F71004F52065002310F8012F08212A
:1093400053405A0013F0800F08BF5B0082F0070201
:1093500014BFD3B2DBB20139F3D18542EDD194F819
:10936000012A9A4238D194F8E46994F8FF79B4F864
:10937000FB59B4F8FD0994F8003A94F8F9C904EBE4
:10938000061240BA43EA07236DBA94F8FA7982F8D4
:10939000101DADB281B294F8040DC2F8145DC2F88C
:1093A000181D2C4D94F9F81982F8111D47EA0C2765
:1093B0001BB2A2F8127DA2F81C3D0C284FF001024E
:1093C00085F8E6202AD00D2803D104EB4606A6F83E
:1093D000081DFFF733FF5BE794F8E43904EB031350
:1093E00093F8102DFF2A06D01A490132012083F884
:1093F000102D81F8E600FFF721FF94F8043D0122CB
:10940000092B84F8ED297FF43FAFB4F8A83D13444D
:109410009BB2A4F8A83DA4F80C3DF8BD94F8A61D95
:1094200003EB830302F1663203EB830349089B00DD
:1094300004EB460693FBF1F382FB0312DB17C3EB4D
:10944000A203A6F8083DC4E7E82F0020D34D621020
:109450003F4B4C00000000200B4B93F8021A93F88E
:10946000032A91420ED010B493F8022AD3F8F4499B
:10947000511CD2B2C0B2C9B283F8021AA0545DF82E
:10948000044B7047704700BFE82F00200A4BD3F809
:10949000AC2D52070CD5D3F8D83D084A323382FBA5
:1094A0000312D817C0EBA20000F5C87080B2704755
:1094B0004FF4C870704700BFE82F002067666666EB
:1094C0000C4AD2F8F43D30B41C68D2F8EC5D5D6013
:1094D00019810025611C19609D812070D2F8F43D2E
:1094E000D2F8EC1D1A685A604FF6F67230BC19605B
:1094F0009A817047E82F002000285FD00368374A20
:109500002DE9F04103F13F4404F57E0402EB94227F
:10951000012492F8202002F01F055209032A04FAC0
:1095200005F456D0042A4FD0022A48D08588B5FACF
:1095300085F0C0F11F00C0F3CC0603EB860600F0F7
:10954000070082000F24306A944020EA0400306251
:10955000306A01FA02F20243002132624FF0010E3A
:109560000A464FF0030C02270EFA02F838EA05000B
:1095700002F101021CD118680CFA01F420EA04007F
:109580001860186807FA01F606431E609E6826EA0E
:1095900004069E6098689860586820EA0800586041
:1095A00058685860D86820EA0400D860D868D86045
:1095B000102A01F10201D7D1BDE8F0817047084AB5
:1095C000556C2C435464B1E7054A156B2C43146366
:1095D000ACE7034A156C2C431464A7E71C67040826
:1095E000003802402DE9F0412DED028B0128564E46
:1095F00082B00D465DD0554FD6F8A423B6F8A833F7
:109600000092ADF80430A7F10408D6F8D4339FEDEA
:10961000508ABDF800204F494F4CC8F8001007EEA3
:10962000903AB4FBF3F4F8EE677A27EE888A82B1B9
:1096300094420ED3002D73D0012D0AD107EE902A4B
:109640001946464BC8F80030B8EE670A384637F07E
:1096500097F8BDF8023093B19C4210D3002D4BD047
:10966000012D0CD107EE903A3C4AD6F8D413C8F835
:109670000020B8EE670A07F1240037F081F8BDF842
:109680000430A3B39C4232D3F5B1012D2FD107EEA4
:10969000903A324AD6F8D413C8F80020B8EE670AD8
:1096A00007F1480002B0BDEC028BBDE8F04137F095
:1096B00067B82B4FD6F8AA23B6F8AE330092ADF8B0
:1096C0000430A7F10408A0E707EE903ADFED256A21
:1096D000254AC8F80020F8EEE77A002386EEA77A3C
:1096E000BB6477EE087A88EE277A87ED137A02B0AA
:1096F000BDEC028BBDE8F08107EE903ADFED196A10
:10970000194BC8F80030F8EEE77A002386EEA77A06
:109710007B6277EE087A88EE277A87ED0A7AAEE7E1
:1097200007EE902ADFED0F6A0F4BC8F80030F8EE15
:10973000E77A002386EEA77A3B6077EE087A88EE18
:10974000277A87ED017A84E7E04000209C3E0020E4
:10975000BD37863505D0030820A1070055CF030883
:109760000C3F002083F9223EE9CF0308F8B51A4DDB
:1097700095F8E433002BFBD161B30144174F4E1E23
:10978000441ED7F80C29D7F8081914F801CF531C38
:10979000C3F30A038B422CBF4FF400600020C91AA8
:1097A0002A4401440129C7F80C3982F8E8C30FD1D3
:1097B000012035F097FAD7F80839D7F80C198B4201
:1097C00094BF4FF4006200225B1A1344012BEFD0C8
:1097D000B442D6D10020F8BDE0400020E82F0020A0
:1097E0000A4B0846D3F8281910B569B1D3F82839BF
:1097F000052B09D1064C002AD4F8E83B04DD1146BC
:10980000FFF7B4FFD4F8E83B10BD00BFE82F0020FD
:10981000E040002010B590F84C10002380F84C3048
:1098200089B10C4CD4F828297AB1D4F82829052A12
:109830000DD1094C3830D4F8E83BFFF797FFD4F846
:10984000E83B012010BD0120FCE71046FAE718466E
:10985000F8E700BFE82F0020E0400020002280F859
:109860004D20D7E790F84C20531C0244DBB280F81F
:109870004C3082F8381090F84D200AB1132B00D9E3
:10988000C8E77047F8B5124C0546D4F8EC0B90F8D1
:1098900034301E3B012B02D9002135F079FC0D4FED
:1098A0000026AE42D4F8EC0B0CDB002135F070FC46
:1098B000D4F8E83BC4F8103CB4F8143C0133A4F8E5
:1098C000143CF8BD17F8011B35F062FC0136E8E7DF
:1098D000E0400020D04C002070B5124C94F8903934
:1098E00000EBC3020D4650F8331050680E4A0023B7
:1098F000984212DC8B780D4A5B0882F8283CC2F84B
:10990000240CFFF7BFFF94F890190131B1FBF5F378
:1099100005FB131184F8901970BDCE5C02F8016B41
:109920000133E5E7E82F0020D04C0020E040002084
:10993000094890F88B2990F890399A420BD0D0F8CA
:109940008C399B0003D5042100F69410C4E706214E
:1099500000F6B410C0E77047E82F00202DE9F84F5B
:10996000194C0546202094F82A9C94F82BAC94F8C6
:109970002C6CB4F82E8CB4F830BC94F8327C1DF00A
:10998000C1F950B120201DF00FF930B1BBF1000F2B
:1099900003D0D84601264FF0000994F8343CDB0789
:1099A00005D427B194F83B3C002B08BF012685F86D
:1099B000009085F801A0AE70A5F80480A5F806B067
:1099C0002F722846BDE8F88FE040002070B5FD29D1
:1099D00082B000F0BB80F02900F0A580EF2901D112
:1099E00002220C21A24B0B2403F1090501E013F81C
:1099F000014FA14200F0A880AB42F8D1851804467F
:109A00000346002201A803F8012B9D4200F8012B18
:109A1000F9D14B1E832B00F28980DFE813F09A0006
:109A2000A000AB00BB00CA00D100DE00E700F400DC
:109A300087008700FE00FE00FE001B011B011B01CA
:109A4000F4008700870035013D018700870087000B
:109A500087008700870087008700870087008700CE
:109A600087008700870087008700870087008700BE
:109A700087008700870087008700870087008700AE
:109A8000870087008700870087008700870087009E
:109A900087008700870087008700870087006701AD
:109AA000870087008700870087008700870087007E
:109AB000870087008700870087008700870087006E
:109AC000870087008700870087008700870087005E
:109AD000870087008700870087008700870087004E
:109AE000870087008700870087008700870087003E
:109AF000870087008700870087008700870087002E
:109B0000870087008700870087008700870087001D
:109B1000870087008700870087008700870087000D
:109B2000870071017101022203215BE79DF8043077
:109B300004F8013BA5420DF1050205D012F8013BE6
:109B400004F8013BA542F9D102B070BD02220B21FD
:109B500048E7FFF79BFCADF80400C3B2E8E7454BCC
:109B6000D3ED037AFDEEE77A17EE903AADF80430C4
:109B7000DBB2DDE7404AB2F85C3C92F86F1C03EBC5
:109B800083035B009BB20029F0D092F8802CB3FBDA
:109B9000F2F3EBE7384AB2F85C3C92F8802CB3FB66
:109BA000F2F303EB83035B00ADF8043003F0FE0334
:109BB000BEE7314BD3F8A83CADF80430DBB2B7E7D1
:109BC0002D4BB3F89C2C002A00F0A08029F03AFC21
:109BD00080B2ADF80400C3B2AAE7274E96F8343C31
:109BE000DA0700F19980B6F89C3CBFE7224A234B84
:109BF000B2F9F01C83FB0132CB17C3EBA203ADF823
:109C00000430DBB294E71E4BD3F8AC3D13F0140FD5
:109C10008CD00023ADF804308AE7174BDFED196ACA
:109C2000B3F8CC2C0C39C9B207EE102A03EB810330
:109C300003F6D84393ED016AB8EEC77AC6EE077A09
:109C400067EEA67AFDEEE77A17EE903AADF80430AB
:109C5000DBB26DE7084B03EB4101B1F8CE3C03EBFF
:109C600083035B00ADF8043003F0FE0360E700BF40
:109C700044670408644D0020E04000206766666683
:109C8000E82F002000007A442E4B93F8343C03F078
:109C90000103ADF804304BE72A4BB3F8B42C13079B
:109CA0005ABFD34303F00103022312F4807F18BF8D
:109CB000032302F0280112F0440F18BF04232829BF
:109CC00008BF052312F0100F18BF062312F0020F71
:109CD00018BF072312F0200F18BF082312F4806F5B
:109CE00018BF0923ADF80430DBB221E7FFF7CEFB44
:109CF000154BD3F8DC3D43EAC0430193DBB217E7D1
:109D0000114BD3F8D43D0193DBB211E7D3F8B03C4B
:109D100083F3100398B25CE706F684461DF0ACF9B5
:109D2000D6ED037AFCEEE77A17EE903A9BB2002864
:109D30007FF41CAF044AD2F88C2912F0100F18BF20
:109D4000002313E7E0400020E82F00202DE9F04732
:109D5000484E96F8F21C0446C1F34001D6F8F80CC0
:109D600035F0A2FC96F8F21CD6F8F40CC94301F0C9
:109D7000010135F099FC002C60D0671EDFF8F8A0D7
:109D8000FFB24FF001094FF00008D6F8F83C33B1AC
:109D90001A689B8851690B4214BF53831383D6F80A
:109DA000F43C33B11A689B8851690B4214BF53834A
:109DB0001383B6F8003D002B42D196F8021DD6F869
:109DC000040D35F071FCFA2534F010FF044634F030
:109DD0000DFF031BB3F57A7FF9D3013DF4D1D6F81B
:109DE000F83C33B11A689B8851690B4214BF538306
:109DF0001383D6F8F43C33B11A689B8851690B423F
:109E000014BF53831383B6F8003D43BB96F8021D7D
:109E1000D6F8040D81F0010135F046FCFA2534F046
:109E2000E5FE044634F0E2FE031BB3F57A7FF9D376
:109E3000013DF4D1013FFFB2FF2FA6D1BDE8F0876D
:109E4000D6F81C3D002BBED0D6F8082DB6F8203D24
:109E5000BAFBF3F35B10136086F8199DB3E7D6F8ED
:109E60001C3D002BDAD0D6F8083DC3F8008086F8F8
:109E7000198DD3E7E040002040420F002DE9F04764
:109E8000464EDFF81CA196F8F21CD6F8F80CC1F388
:109E9000400135F009FC96F8F21CD6F8F40CC943E1
:109EA00001F0010135F000FC05274FF001094FF0EA
:109EB0000008D6F8F83C33B11A689B8851690B4208
:109EC00014BF53831383D6F8F43C33B11A689B88CC
:109ED00051690B4214BF53831383B6F8003D002B26
:109EE0004DD196F8021DD6F8040D35F0DDFB322574
:109EF00034F07CFE044634F079FE031BB3F57A7F20
:109F0000F9D3013DF4D1D6F8F83C33B11A689B88F7
:109F100051690B4214BF53831383D6F8F43C33B119
:109F20001A689B8851690B4214BF53831383B6F898
:109F3000003DCBB996F8021DD6F8040D81F0010161
:109F400035F0B2FB322534F051FE044634F04EFEBB
:109F5000031BB3F57A7FF9D3013DF4D1013F17F02C
:109F6000FF07A6D1BDE8F087D6F81C3D002BE9D04D
:109F7000D6F8083DC3F8008086F8198DE2E7D6F8D8
:109F80001C3D002BB3D0D6F8082DB6F8203DBAFB07
:109F9000F3F35B10136086F8199DA8E7E0400020FA
:109FA00040420F000E4B30B4DB68427801780D4C14
:109FB000DB43C3F30223C3F10403DBB202FA03F36E
:109FC00060181B0101F01F050122490903F0F0038D
:109FD000AA4080F8003344F8212030BC704700BF0D
:109FE00000ED00E000E100E000F01F024009012365
:109FF000032803FA02F304D004280CD0022805D069
:10A000007047074A116C0B4313647047044A516C44
:10A010000B4353647047024A116B0B431363704741
:10A02000003802402DE9F04700230F6801264FF069
:10A03000030C02E00133102B41D006FA03F232EA9E
:10A040000704F7D1D0F800E05C000CFA04F52EEA22
:10A05000050EC0F800E091F80490D0F800A009FACD
:10A0600004FE09F1FF394EEA0A0EB9F1010FA846C4
:10A07000C0F800E06FEA050515D8D0F808E005EA59
:10A080000E0585604D79D0F808E0A54045EA0E053B
:10A090008560456825EA020242608A7945689A40EF
:10A0A00092B22A434260C26822EA0802C260CA79B8
:10A0B000C568A24001332A43102BC260BDD1BDE860
:10A0C000F08700BF00487047644E0020036870B5F9
:10A0D0005E6A26B133460522BDE870401847044643
:10A0E0000D464E1D00E023689B68204698470028D7
:10A0F000F9D0236815F8011B1B6820469847B54224
:10A10000F1D170BD2DE9F04F9BB0DDE9247ADDF887
:10A11000989004460D461646984602E0206835F0B1
:10A120002BF8206835F030F80028F7D1014664227A
:10A1300001A83CF08AFA2A4B8DF80450CDF85CA0B7
:10A140000293002D48D0AB1E012B47D9042D14BF1C
:10A1500000230323DFF88CA08DF80530DAF8E83B04
:10A1600003971F440123CDE9059404978DF85B30D4
:10A1700036B14246314607A83CF03FFA8DF85A8086
:10A180009AF87E7E4FF00009132FCDF8609015D815
:10A190009AF87DBE642202FB0BA001A90BF1010B12
:10A1A00000F568603CF029FABBF1130FD8BF5FFAE5
:10A1B0008BF901378AF87E7E8AF87D9E236843B149
:10A1C00043463246294620461BB0BDE8F04F0CF00E
:10A1D000D3BE1BB0BDE8F08F0523BBE70223B9E770
:10A1E0001C4F0020E040002070B4447941BB03685C
:10A1F0004FF400524FF40076202502213CBB1A8C0C
:10A2000022F001021204120C1A841A8B188C22F00C
:10A21000F30280B2120420F00A00120C014342F053
:10A22000010241F001011A8319841A8B22F00C02F9
:10A230001204120C1A831A8B92B270BC1A837047E4
:10A2400000220368164615461146002CD7D0042C70
:10A2500021D0082C38D0198C21F480510904090C24
:10A2600019849C8B1D8C45F6FF7040F6FF412840F9
:10A270002140024342F4805241F4807199831A8450
:10A280009A8B22F440621204120C9A839A8B92B237
:10A2900070BC9A8370471A8C22F010021204120CC0
:10A2A0001A84188B198C89B240F6FF4221F0A00164
:10A2B00002400D4342F4807245F010051A831D845C
:10A2C0001A8B22F44062B3E71A8C22F480721204D3
