:020000040800F2
:10000000F0FF0120854E040821E6000885AA0308B8
:10001000F94E0408F94E0408F94E040800000000E7
:100020000000000000000000000000002DE60008B5
:1000300029E600080000000025E600082DF003086E
:10004000F94E0408F94E0408F94E0408F94E040864
:10005000F94E0408F94E0408D5FB030801FD030816
:10006000C5FC030889FC03084DFC0308353004086F
:10007000253004081530040805300408F12F040861
:10008000DD2F0408C92F0408F94E04080000000001
:1000900000000000000000000000000011FC030848
:1000A00031E8030871E80308F94E040881E8030801
:1000B00061E80308F94E040851E80308F94E040802
:1000C000F94E0408F94E0408F94E0408F94E0408E4
:1000D000F94E040805F1030869F003080000000068
:1000E00099FB0308F94E040879210108000000007B
:1000F000000000000000000000000000B52F040810
:1001000000000000F94E040841E80308F94E040815
:1001100000000000000000000000000000000000DF
:10012000A12F04088D2F0408792F0408652F0408D7
:10013000512F040800000000000000000000000033
:10014000000000000000000000000000C9020108DB
:100150003D2F0408292F0408152F0408F94E040820
:10016000F94E0408F94E04080000000000000000E9
:10017000000000000000000000000000000000007F
:1001800000000000F94E040800000000000000001C
:08019000F94E0408F94E0408C1
:08019800244A040001000000EC
:1001A0001F201C00EC4D00202880002000000000D3
:1001B000C806000805020400207F002044800020BB
:1001C00000000000E406000803010A00B24D002010
:1001D0004880002000000000E80600081302030029
:1001E000BC3900205480002000000000F206000806
:1001F000040080009C6B002058800020000000005C
:100200000000000023001000CC6A0020D8800020ED
:100210000000000051A601080D002400C467002062
:10022000E880002000000000754B03081300040064
:10023000747F00200C81002000000000F8060008F8
:10024000F6210C00787F00201081002000000000C3
:10025000FC060008F5317400246700201C81002092
:1002600000000000593201080B3014001C4E002021
:100270009081002000000000080700080101040030
:1002800020670020A4810020000000000000000082
:10029000000104001C670020A8810020000000006D
:1002A0001C0700080201030018670020AC81002031
:1002B0000000000055C20208F90104000467002094
:1002C000B081002000000000F1D0030806101800E3
:1002D000203E0020B4810020000000003D1F0208E5
:1002E000FB01010038660020CC81002000000000E6
:1002F0001DEC0308FC01090004650020D0810020EA
:10030000000000002DEC030802000C00D064002067
:10031000DC81002000000000000000000A603600C0
:1003200024450020E881002000000000200700088C
:1003300034001000FC630020208200200000000038
:10034000111F020811020800D4630020308200202F
:10035000000000005607000812120400CC630020C1
:1003600038820020000000005E07000818202C00E2
:10037000A06300203C82002000000000A9DA0308EE
:1003800012200D0078630020688200200000000029
:1003900062070008FD012100BC5A0020788200207D
:1003A0000000000079D0030802020300803E002014
:1003B0009C82002000000000000000000C020300EE
:1003C000483E0020A08200200000000089D50308DC
:1003D000FE0109007C6C0020A482002000000000C7
:1003E00075D5030809020100C0CD002018CE0020F9
:1003F00000000000700700080102050078C8002016
:100400001CCE002000000000192B0108000205008E
:1004100070C8002024CE0020000000000000000072
:100420001B02080064C800202CCE00200000000041
:1004300099D5030801200800B8CC002034CE002054
:1004400000000000720700081900050038CD0020E8
:100450003CCE0020000000007A07000837001E0094
:1004600010CD002044CE00200000000080070008CE
:100470001E00050040C6002064CE002000000000E1
:100480009E0700081B00F40028B400206CCE00205A
:1004900000000000013701080E02020048CC0020D5
:1004A00060CF002000000000A40700082F0011000A
:1004B000D1CD002064CF002000000000A607000876
:1004C0000510060010CE002078CF002000000000AC
:1004D000B807000826000E0090CF002080CF002033
:1004E000000000009922010803123300B8DB00204D
:1004F000EBDB002000000000BE070008250096008E
:100500006CDA002002DB0020000000000000000088
:10051000150070009CD800200CD9002000000000BD
:10052000000000002A006000DCD700203CD800203A
:1005300000000000A11E02082C00100098DB002023
:10054000A8DB0020000000009DB301082B00240060
:1005500042DC00201EDC00200000000071B3010816
:10056000291078007CD90020F4D900200000000078
:100570000000000028101000E8DF0020D8DF002075
:10058000000000003DA6010814000400D2D700209E
:10059000D6D7002000000000F20700080C20B400AD
:1005A00016D20020F8DF00200000000025C202085B
:1005B0000E8062015CD00020ACE000200000000052
:1005C000C91E02081A000E0014E7002060E900208E
:1005D00000000000F60700080300010010E70020FB
:1005E00070E900200000000000000000F821060073
:1005F000AEE20020B8E90020000000000408000876
:100600001802020058F100209CF1002000000000B8
:100610000000000017020B004DF10020A0F10020A7
:1006200000000000EDD403080812090044F1002086
:10063000ACF10020000000003DD50308F7010600E2
:100640003EF10020B8F10020000000000A08000878
:100650000A020A002CEB0020C0F10020000000007C
:100660001008000810100300E0EA0020CCF1002080
:10067000000000001A08000816000800FCF4002022
:10068000D0F50020000000001E0800081002010044
:10069000B8FA0020B4FA0020000000002608000884
:1006A0001A023C00DCF50020BCFA0020000000002B
:1006B00029D8030827000400FCFA0020F8FA0020DB
:0806C0000000000028080008FA
:1006C8000000000000010000000500000102030016
:1006D8000000000000000000000000000000000012
:1006E800040101006C16000000000000000000007A
:1006F800080444100000000001000000020200008D
:100708002B21231E64010100000001000A012900B9
:10071800230A0000B30000000030010000000000C0
:100728007300730069000000000000000000000072
:10073800000000000000020000019E077D00FA0092
:1007480096005802B80BB80BB80B2000C40900007B
:10075800000001010101FFFFFFFF00000001000090
:1007680005433444580000000000E8036400040A0C
:10077800000100002801000020003200C800D00756
:100788009600140032002800B0044006000550000E
:1007980014000F0008010000010000000000000024
:1007A8000000000000000000000000000000000041
:1007B800200003010000000000000000000000000D
:1007C8000000000000000000000000000000000021
:1007D8000000000000000000000000000000000011
:1007E80000000000000000000100030000467E0534
:1007F800EA05B4050300E803D00700000101F4018D
:1008080014003F010000000000004A01B400D601B6
:10081800000000050000C4090700B40128280000F2
:0408280020030000A9
:10082C000403090412010002EF0201408304563252
:10083C00000201020301000012010002020200404A
:10084C008304405700020102030100000902640006
:10085C00030100C03209040000010300000009215B
:10086C00110100012226000705830308000A080B6A
:10087C00010202020100090401000102020100054B
:10088C0024001001052401000204240202052406A0
:10089C000102070582030800FF09040200020A0096
:1008AC00000007050102400000070581024000001E
:1008BC0009024300020100C03209040000010202D7
:1008CC00010005240010010524010001042402028A
:1008DC000524060001070582030800FF0904010036
:1008EC00020A000000070501024000000705810212
:1008FC0040000000FF00000000FFFF0000000000AF
:10090C00AA5505010000010008000000E18700085D
:10091C00DD870008D9870008CD870008C987000843
:10092C00D5870008D1870008558800084988000839
:10093C0021880008358800080D880008F987000810
:10094C00E58700080101000005010905A101A100CE
:10095C0005010930093109320933093509340940D7
:10096C0009381581257F750895088102C0C00000E3
:10097C0009022200010100E0320904000001030118
:10098C00020009211101000122260007058303083A
:10099C00000A0000006002401060024000000000ED
:1009AC0000000000000B0000000000000000000030
:1009BC0000000000006002402860024001000000BE
:1009CC0000000000060C0000000000000000000009
:1009DC000000000000600240406002400200000085
:1009EC0000000000100D00000000000000000000DE
:1009FC00000000000060024058600240030000004C
:100A0C0000000000160E00000000000000000000B6
:100A1C000000000000600240706002400400000012
:100A2C0000000000200F000000000000000000008B
:100A3C0000000000006002408860024005000000D9
:100A4C000000000026100000000000000000000064
:100A5C000000000000600240A060024006000000A0
:100A6C000000000030110000000000000000000039
:100A7C000000000000600240B86002400700000067
:100A8C0000000000362F00000000000000000000F5
:100A9C0000000000006402401064024000000000EE
:100AAC000000000000380000000000000000000002
:100ABC0000000000006402402864024001000000B5
:100ACC0000000000063900000000000000000000DB
:100ADC00000000000064024040640240020000007C
:100AEC0000000000103A00000000000000000000B0
:100AFC000000000000640240586402400300000043
:100B0C0000000000163B0000000000000000000088
:100B1C000000000000640240706402400400000009
:100B2C0000000000203C000000000000000000005D
:100B3C0000000000006402408864024005000000D0
:100B4C00000000002644000000000000000000002F
:100B5C000000000000640240A06402400600000097
:100B6C000000000030450000000000000000000004
:100B7C000000000000640240B8640240070000005E
:100B8C0000000000364600000000000000000000DD
:100B9C000000000000000000010203040102030435
:100BAC0006070809EDE70008A9EE000821EA00088D
:100BBC00FD880008DD8E00080D89000829890008D1
:100BCC00D5880008C588000800000000000000005F
:100BDC002D202D2D202D2D2D2D202D2D2D2D0000BA
:100BEC00000000000000000000000000000000AA4F
:100BFC00550B010000AA5507010000AA5509020077
:100C0C000000000001000000C012AA5503009F0064
:100C1C00FF1FFF1F00000100E00101082009002058
:100C2C0004000000A0CF002000000000ECB304087A
:100C3C0088B304080000000069C20208A086010005
:100C4C000400000000000000000000000000000094
:100C5C000000000000000000000000000000000088
:100C6C00ECB30408F4B3040800000000E5490308E1
:100C7C00E803000004000000000000000000000079
:100C8C000000000000000000000000000000000058
:100C9C000000000074C40408FCB304080000000049
:100CAC000D0403087D000000060000000000000099
:100CBC000000000000000000000000000000000028
:100CCC00000000000000000004B404080000000054
:100CDC000000000089B10308E803000005000000D3
:100CEC0000000000000000000000000000000000F8
:100CFC0000000000000000000000000008B4040820
:100D0C00000000000000000075220208C409000069
:100D1C0005000000000000000000000000000000C2
:100D2C0000000000000000000000000000000000B7
:100D3C0014B404080000000045B10108B997030879
:100D4C006A18000005000000000000000000000010
:100D5C000000000000000000000000000000000087
:100D6C0000000000E4CF04080000000000000000B8
:100D7C0049CC03081027000001000000000000000F
:100D8C000000000000000000000000000000000057
:100D9C00000000000000000018B40408000000006F
:100DAC0000000000494B0308E803000005000000A8
:100DBC000000000000000000000000000000000027
:100DCC0000000000000000000000000024B4040833
:100DDC0000000000000000009D3A0308204E0000B7
:100DEC0003000000000000000000000000000000F4
:100DFC0000000000000000000000000000000000E7
:100E0C0034B404080000000000000000813803081E
:100E1C00204E000003000000000000000000000055
:100E2C0000000000000000000000000000000000B6
:100E3C000000000044B404080000000000000000A2
:100E4C0011AB0308400D030003000000000000007C
:100E5C000000000000000000000000000000000086
:100E6C00000000000000000054B404080000000062
:100E7C0000000000257C0308102700000100000082
:100E8C000000000000000000000000000000000056
:100E9C00000000000000000000000000B8B30408CF
:100EAC000000000000000000856B01081027000006
:100EBC000300000000000000000000000000000023
:100ECC000000000000000000000000000000000016
:100EDC005CB404080000000000000000E9490308AD
:100EEC00A8610000010000000000000000000000EC
:100EFC0000000000000000000000000000000000E6
:100F0C000000000068B404080000000000000000AD
:100F1C00E14C0308A00F00000100000000000000DD
:100F2C0000000000000000000000000000000000B5
:100F3C00000000000000000074B404080000000071
:100F4C0000000000F1320108102700000100000031
:100F5C000000000000000000000000000000000085
:100F6C00000000000000000000000000A0B3040816
:100F7C000000000000000000759301081A410000F9
:100F8C000100000000000000000000000000000054
:100F9C000000000000000000000000000000000045
:100FAC0080B404080000000000000000519200080A
:100FBC0010270000010000000000000000000000ED
:100FCC000000000000000000000000000000000015
:100FDC00000000009CB304080000000000000000AA
:100FEC00D1E701081A4100000100000000000000D8
:100FFC0000000000000000000000000000000000E5
:10100C0000000000000000008CB404080000000088
:10101C000000000031140108400D03000000000026
:10102C0000000000000000000000000000000000B4
:10103C0000000000000000000000000094B4040850
:10104C000000000000000000A1490308400D03004F
:10105C000000000000000000000000000000000084
:10106C000000000000000000000000000000000074
:10107C009CB4040800000000000000006179010825
:10108C0050C300000300000000000000000000003E
:10109C000000000000000000000000000000000044
:1010AC0000000000A8B404080000000000000000CC
:1010BC00F537030840420F0000000000000000005C
:1010CC000000000000000000000000000000000014
:1010DC000000000000000000B4B404080000000090
:1010EC0000000000DD4B030850C3000000000000AE
:1010FC0000000000000000000000000000000000E4
:10110C000000000000000000000000000000803F14
:10111C000000803F00000000000000000000000004
:10112C0000000000000000000000000000000000B3
:10113C000000000000000000FFFF0100FFFFFFFFA8
:10114C00000200051002700B01010100499D01080D
:10115C0000000000A00A0020C4D804080000000011
:10116C00000000000000000000000000C5E20408C0
:10117C000000000000000000260B0020040000000E
:10118C006CCD04080D0000005DB70108F42E0020A2
:10119C0000000000E4C304080D00000085B701083E
:1011AC00E82E002000000000BCC504080800000068
:1011BC0000000000DC2E00200400000050C40408D5
:1011CC000D000000F19D0108D02E00200000000051
:1011DC0014C504080300000019BB0108C42E00202C
:1011EC0000000000D4D804080300000019BB01085B
:1011FC00B82E00200000000098BF04080100000079
:10120C0000000000000000000000000000000000D2
:10121C000E000000000000000000000000000000B4
:10122C00C4D804080000000000000000000000000A
:10123C0000000000C5E204080000000000000000EF
:10124C00260B00200400000018CD04080300000049
:10125C0031B50108AC2E00200800000050C4040871
:10126C000D000000F19D0108D02E002000000000B0
:10127C0014C504080300000019BB0108C42E00208B
:10128C0000000000D4D804080300000019BB0108BA
:10129C00B82E00200000000098BF040801000000D8
:1012AC000000000000000000000000000000000032
:1012BC000E00000000000000000000000000000014
:1012CC00DCD8040800000000000000000000000052
:1012DC0000000000C5E2040800000000000000004F
:1012EC00260B00200400000020CD040803000000A1
:1012FC0019BB0108002F00200000000098BF040853
:10130C0001000000000000000000000000000000D0
:10131C00000000000E0000000000000000000000B3
:10132C000000000020700020702D720001000000F1
:10133C000000000000000000682A002000010101EC
:10134C000001D601FFFF2D202D2D202D2D2D2D2020
:10135C002D2D2D00000000000000000000000000FA
:10136C000000000000000000FFFFFFFFFA0000007B
:10137C000100000001000000FAD200200000F4017E
:10138C0001000000F8D200200000F4010100000070
:10139C00F6D200200000F40101000000F4D200207D
:1013AC000000F40101000000F2D200200000F40162
:1013BC0001000000F0D200200000F4010100000048
:1013CC00EED200200000F401010000000CBF040864
:1013DC000000000000000000000000000000000001
:1013EC0024BF040800000000000000000000000002
:1013FC000000000044BF04080800000000000000CA
:10140C00A00B00200000000050BF040808000000E2
:10141C0000000000940B0020000000005CBF0408DA
:10142C000800000000000000880B002000000000F5
:10143C00C4C9040808000000000000007C0B002058
:10144C000000000068BF0408080000000000000055
:10145C00700B00200000000074BF0408080000009E
:10146C0000000000640B00200000000080BF040896
:10147C000800000000000000580B002000000000D5
:10148C008CBF040802000000C5B90108020000006E
:10149C000000000098BF04080100000000000000DC
:1014AC000000000000000000000000000E00000022
:1014BC00000000000000000000000000E9A401088A
:1014CC00A9A40108AC0B0020ECD2002005320100CD
:1014DC00EAD20020E803D00701000000E8D2002087
:1014EC00E803D00701000000E6D20020E803D00793
:1014FC0001000000E4D200201E00B80B0100000027
:10150C00E2D200201E00F40101000000E0D2002015
:10151C001400640001000000DED200200000C800AE
:10152C0001000000A0BF0408A8BF0408BCBF040849
:10153C00000000000000000000000000000000009F
:10154C0024BF0408000000000000000000000000A0
:10155C000000000068B30408080000000000000050
:10156C00F80C002000000000D0BF040808000000A8
:10157C0000000000EC0C002000000000E4BF040898
:10158C000800000000000000E00C0020000000003B
:10159C00F8BF04080800000000000000D40C002074
:1015AC00000000000CC0040808000000000000004F
:1015BC00C80C0020000000001CC00408080000003B
:1015CC0000000000BC0C0020000000002CC004082F
:1015DC000800000000000000B00C0020000000001B
:1015EC003CC004080700000000000000A80C00200C
:1015FC00000000004CC004080300000019BB0108E7
:10160C009C0C0020000000008CBF040802000000AD
:10161C00C5B90108020000000000000098BF0408D2
:10162C0001000000000000000000000000000000AD
:10163C00000000000E000000000000000000000090
:10164C00000000005CC00408000000000000000066
:10165C00000000000000000023BA04080400000091
:10166C00A9B40108000000000000000098BF0408A5
:10167C00010000000000000000000000000000005D
:10168C00000000000E000000000000000000000040
:10169C000000000026C600200100C4090000000064
:1016AC0024C600200100C4090000000022C600204E
:1016BC000100C4090000000020C600200100C4097C
:1016CC00000000001CC600200100C409000000003E
:1016DC001EC600200100C409000000001AC600202C
:1016EC000100C4090000000018C600200100C40954
:1016FC0000000000ECCF00200000FFFF0A000000FB
:10170C00EACF00200100C80001000000E8CF002053
:10171C003200307532000000E7CF0020055A05007A
:10172C00E4CF002000FF0100E6CF00200100000004
:10173C00040D0020E2CF002002000000808104088C
:10174C00E3CF002000FF0100E5CF002001000000E6
:10175C00040D0020E1CF002002000000808104086D
:10176C00DCCF002080C1803E05000000DACF0020D5
:10177C0080C1803E05000000D8CF002080C1803E93
:10178C0005000000D6CF002080C1803E050000007F
:10179C00D5CF002000FF0100D4CF00200A32010079
:1017AC00D3CF002004000000F88A0408D2CF002018
:1017BC00020000000C8B040865A4010821A4010898
:1017CC000C0D002000D30020EE02CA08010000001E
:1017DC00FED2002000C8010064000000FDD20020F1
:1017EC0000C8010064000000FCD2002002000000D0
:1017FC00188B04080000000000000000240E0020DC
:10180C00D07E00209CFF2C01000000002809002045
:10181C000A000000248B0408C8CF0020E0150C1728
:10182C00000000002A090020080000008C78040841
:10183C002909002005000000648C0408CACF002090
:10184C00020000003C8B04080CD300200100FF7F39
:10185C00010000000BD3002002000000488B04089C
:10186C00D0D100200000F40101000000CED10020F6
:10187C000000F40101000000CCD100200000F401B4
:10188C0001000000CAD100200000F401010000009A
:10189C00E0D100200100803E05000000DCD10020DA
:1018AC000000803E64000000DAD100200000803E81
:1018BC0064000000D8D100200000803E64000000CD
:1018CC00DED100200300000201000000D6D1002070
:1018DC00C800E80301000000D4D100201E00E8037A
:1018EC0001000000D2D100200000E803010000003C
:1018FC00C8D100200000803E01000000C6D10020AD
:10190C000000803E01000000C4D100200000803E99
:10191C0001000000C2D100200000803E0100000048
:10192C00C0D100200000803E01000000BED100208C
:10193C000000803E0100000011D20020196401005B
:10194C0015D200200064010014D2002000640100B4
:10195C0013D200200A32010012D200200300000032
:10196C00588B04080ED20020E803D0070A000000B0
:10197C000CD2002000FA01000A0000000BD200205B
:10198C0000FA01000A0000000AD2002000FA01004F
:10199C000A000000F9D1002000640100F8D10020F9
:1019AC000064010000D20020006401000A00000065
:1019BC00FFD10020006401000A000000FED10020CD
:1019CC00006401000A00000003D200200064010042
:1019DC000A00000002D20020006401000A0000008E
:1019EC0001D20020006401000A000000FDD100209B
:1019FC0000FF01000A000000FCD1002000FF0100E4
:101A0C000A000000FBD1002000FF01000A000000CA
:101A1C0009D20020005F01000A00000008D200205B
:101A2C00005F01000A00000007D20020005F0100E7
:101A3C000A00000006D20020005F01000A0000002E
:101A4C0005D2002019AF01000A00000004D20020CA
:101A5C0019AF01000A0000004AD00020000A010062
:101A6C0049D00020000A010048D00020000A0100E3
:101A7C005AD0002000FA010059D0002000FA0100D1
:101A8C0058D0002000FA010056D000200000F401CC
:101A9C000100000054D000200000F40101000000FF
:101AAC0052D000200000F4010100000050D00020B2
:101ABC000000F401010000004ED000200000F401F1
:101ACC00010000004CD000200000F40101000000D7
:101ADC00F6D10020FF080100F5D1002001640100BF
:101AEC00F4D1002000640100F3D1002001000000BB
:101AFC00688B0408F2D1002000C80100F0D100204E
:101B0C000000D00701000000EFD1002000C8010048
:101B1C00EED1002000C80100EDD1002000C801006A
:101B2C00ECD1002000C80100EBD1002000FA01002C
:101B3C000A000000E8D1002000FA01000A000000B1
:101B4C00E5D1002000FA01000A000000EAD10020D3
:101B5C0000FA01000A000000E7D1002000FA0100A1
:101B6C000A000000E4D1002000FA01000A00000085
:101B7C00E9D1002000FA01000A000000E6D10020A3
:101B8C0000FA01000A000000E3D1002000FA010075
:101B9C000A000000CCD20020010A0100D4D200209F
:101BAC0000FA0100D2D200200000E803050000007A
:101BBC00DDD2002000C80100DCD2002000C80100EA
:101BCC00DBD2002000C80100DAD2002000C80100DE
:101BDC00D9D2002000C80100D8D2002000C80100D2
:101BEC00D7D2002000C80100D6D2002000C80100C6
:101BFC00D5D2002000C80100D0D2002000FA01008C
:101C0C00CED200200000E80305000000CBD200205B
:101C1C000064010084C00408000000000000000003
:101C2C00000000000000000000C9040809000000CA
:101C3C0000000000C80E00200400000018C90408B1
:101C4C000900000000000000BC0E00200400000091
:101C5C0010CB04080900000000000000B00E0020AA
:101C6C0004000000CCB204080900000000000000D1
:101C7C00A40E00200400000094C004080900000019
:101C8C0000000000980E0020040000009CC0040816
:101C9C0009000000000000008C0E00200400000071
:101CAC00A4C004080900000000000000800E002001
:101CBC0004000000ACC00408090000000000000093
:101CCC00740E00200400000098BF040801000000FE
:101CDC0000000000000000000000000000000000F8
:101CEC000E000000000000000000000000000000DA
:101CFC00C0C204080000000000000000000000004A
:101D0C0000000000F8CD04080700000000000000EF
:101D1C00F80E002000000000D0C2040808000000EB
:101D2C0000000000EC0E002000000000DCC20408E3
:101D3C000800000000000000E00E00200000000081
:101D4C00E4C204080800000000000000D40E0020CB
:101D5C00000000008CBF040802000000C5B9010897
:101D6C00010000000000000098BF04080100000002
:101D7C000000000000000000000000000000000057
:101D8C000E00000000000000000000000000000039
:101D9C00F4C2040800000000000000000000000075
:101DAC000000000004C304080D0000000000000047
:101DBC00340F0020000000000CC304080D000000CC
:101DCC0000000000280F00200000000014C30408CD
:101DDC000700000000000000200F002000000000A1
:101DEC001CC304080D00000000000000140F0020AC
:101DFC000000000024C304080D00000000000000D7
:101E0C00080F0020000000002CC30408070000008D
:101E1C0000000000000F0020000000008CBF040830
:101E2C0002000000C5B9010801000000000000001C
:101E3C0098BF040801000000000000000000000032
:101E4C0000000000000000000E0000000000000078
:101E5C00000000000000000034C304080000000073
:101E6C00000000000000000000000000F8CD040895
:101E7C000C00000000000000EECF0020000000006D
:101E8C0048C304080C00000000000000F0CF002044
:101E9C000000000058C304080C0000000000000003
:101EAC0026D000200000000068C304080C000000CD
:101EBC00000000001AD00020000000007CC30408C1
:101ECC000C00000000000000F2CF00200000000019
:101EDC0088C304080C00000000000000F4CF0020B0
:101EEC000000000090C304080C000000000000007B
:101EFC00F6CF002000000000A4C304080C00000072
:101F0C0000000000F8CF002000000000ACC3040863
:101F1C000C00000000000000FACF002000000000C0
:101F2C00B4C304080C0000000000000038D00020EE
:101F3C0000000000CCC304080C00000000000000EE
:101F4C00FCCF002000000000D8C304080C000000E7
:101F5C0000000000FECF0020000000007CC504083B
:101F6C000C0000000000000000D000200000000069
:101F7C00E0C304080C0000000000000002D00020A8
:101F8C0000000000ECC304080C000000000000007E
:101F9C0004D0002000000000F8C304080C0000006E
:101FAC000000000006D000200000000004C404085B
:101FBC000C0000000000000008D000200000000011
:101FCC0010C404080C000000000000000AD000201F
:101FDC00000000001CC404080C00000000000000FD
:101FEC001ED000200000000024C404080C000000D7
:101FFC00000000001CD00020000000002CC40408CD
:10200C000C000000000000002AD00020000000009E
:10201C0038C404080C000000000000002CD0002084
:10202C000000000044C404080C0000000000000084
:10203C0032D00020000000005CB404080C0000004A
:10204C00000000000CD000200000000050C4040868
:10205C000C0000000000000014D000200000000064
:10206C0058C404080C000000000000000ED0002032
:10207C000000000064C404080C0000000000000014
:10208C0010D000200000000070C404080C000000F8
:10209C000000000012D000200000000078C40408EA
:1020AC000C0000000000000016D000200000000012
:1020BC0084C404080C0000000000000020D00020A4
:1020CC00000000008CC404080C000000000000009C
:1020DC0018D000200000000098C404080C00000078
:1020EC000000000028D0002000000000A4C4040858
:1020FC000C0000000000000022D0002000000000B6
:10210C00ACC404080C0000000000000024D0002027
:10211C0000000000B4C404080C0000000000000023
:10212C002ED0002000000000BCC404080C000000ED
:10213C000000000030D0002000000000C4C40408DF
:10214C000C0000000000000040D000200000000047
:10215C0098BF04080100000000000000000000000F
:10216C0000000000000000000E0000000000000055
:10217C000000000000000000CCC4040800000000B7
:10218C00000000000000000000000000D8C404089B
:10219C000D000000000000008C0F0020000000006B
:1021AC00E0C404080D00000000000000800F0020B7
:1021BC0000000000E8C40408070000000000000054
:1021CC00780F002000000000F4C404080700000091
:1021DC0000000000700F00200000000000C5040883
:1021EC000900000000000000640F00200000000047
:1021FC000CC504080900000000000000580F002066
:10220C000000000018C504080900000000000000D0
:10221C004C0F00200000000028C504080900000035
:10222C0000000000400F0020000000008CBF0408DC
:10223C0002000000C5B90108010000000000000008
:10224C0098BF04080100000000000000000000001E
:10225C0000000000000000000E0000000000000064
:10226C0000000000000000003CC504080000000055
:10227C0000000000000000000000000024BF040863
:10228C000000000000000000000000000000000042
:10229C004CC504080D00000000000000C80F002011
:1022AC000000000058C504080B00000000000000EE
:1022BC00BC0F00200000000064C504080B000000E7
:1022CC0000000000B00F00200000000074C50408DE
:1022DC000800000000000000A40F00200000000017
:1022EC0088C504080300000019BB0108980F0020E2
:1022FC00000000008CBF040802000000C5B90108F2
:10230C00020000000000000098BF0408010000005B
:10231C0000000000000000000000000000000000B1
:10232C000E00000000000000000000000000000093
:10233C0094C504080000000000000000000000002C
:10234C0000000000A4C50408050000000000000007
:10235C0047D00020000000008CBF040802000000E1
:10236C00C5B90108010000000000000098BF040876
:10237C000100000000000000000000000000000050
:10238C00000000000E000000000000000000000033
:10239C0000000000ACC504080000000000000000B4
:1023AC000000000000000000C5E20408000000006E
:1023BC0000000000B003002004000000B8C50408B1
:1023CC000D0000000DB501081C10002000000000DD
:1023DC006CCD04080D000000019D010810100020B8
:1023EC0000000000E4C304080D000000E59C010897
:1023FC000410002000000000BCC504080800000008
:10240C0000000000F80F00200400000050C4040875
:10241C000D000000319C0108EC0F002000000000B2
:10242C00C4C504080900000000000000E00F0020F3
:10243C000400000014C504080300000019BB0108C7
:10244C00D40F00200000000098BF04080100000019
:10245C000000000000000000000000000000000070
:10246C000E00000000000000000000000000000052
:10247C00CCC50408000000000000000000000000B3
:10248C0000000000DCC504080D0000000000000086
:10249C003410002000000000E4C504080A0000000D
:1024AC0000000000C4D5002000000000F0C50408A6
:1024BC000A00000000000000CCD500200000000045
:1024CC00F8C504080A00000000000000D4D5002064
:1024DC000000000000C60408080000000000000016
:1024EC0028100020000000008CBF0408020000002F
:1024FC00C5B90108010000000000000098BF0408E5
:10250C0001000000000000000000000000000000BE
:10251C00000000000E0000000000000000000000A1
:10252C000000000008C604080000000000000000C5
:10253C0000000000000000001CC604080800000099
:10254C00000000000C110020000000002CC6040844
:10255C000800000000000000001100200000000036
:10256C003CC604080800000000000000F410002025
:10257C00000000004CC60408080000000000000029
:10258C00E8100020000000005CC6040808000000F1
:10259C0000000000DC100020000000006CC60408E5
:1025AC000800000000000000D01000200000000017
:1025BC007CC604080800000000000000C4100020C5
:1025CC000000000088C6040808000000000000009D
:1025DC00B81000200000000098C604080800000095
:1025EC0000000000AC10002000000000A8C6040889
:1025FC000800000000000000A010002000000000F7
:10260C00B0C6040808000000000000009410002070
:10261C0000000000B8C6040808000000000000001C
:10262C008810002000000000C0C60408080000004C
:10263C00000000007C10002000000000C8C6040848
:10264C0008000000000000007010002000000000D6
:10265C00D8C6040808000000000000006410002028
:10266C0000000000E4C604080800000000000000A0
:10267C005810002000000000F0C6040808000000FC
:10268C00000000004C10002000000000FCC60408F4
:10269C0008000000000000004010002000000000B6
:1026AC008CBF040802000000C5B90108010000003D
:1026BC000000000098BF04080100000000000000AA
:1026CC000000000000000000000000000E000000F0
:1026DC0000000000000000000000000008C7040813
:1026EC000000000000000000070B002000000000AC
:1026FC0014C704080B000000000000002C1200207E
:10270C000000000024C704080B00000000000000BB
:10271C00201200200000000030C704080B0000004D
:10272C0000000000141200200000000040C7040844
:10273C000B00000000000000081200200000000048
:10274C004CC704080B00000000000000FC11002026
:10275C000000000060C704080B000000000000002F
:10276C00F01100200000000070C704080B000000EE
:10277C0000000000E4110020000000007CC70408E9
:10278C000B00000000000000D81100200000000029
:10279C0088C704080B00000000000000CC110020CA
:1027AC000000000094C704080B00000000000000AB
:1027BC00C011002000000000A0C704080B0000009E
:1027CC0000000000B411002000000000ACC7040899
:1027DC000B00000000000000A81100200000000009
:1027EC00B8C704080B000000000000009C1100207A
:1027FC0000000000C4C704080B000000000000002B
:10280C009011002000000000D0C704080B0000004D
:10281C00000000008411002000000000DCC7040848
:10282C0007000000000000007C11002000000000E8
:10283C00E4C7040807000000000000007411002029
:10284C0000000000F0C704080B00000000000000AE
:10285C006811002000000000FCC704080B000000F9
:10286C00000000005C1100200000000008C80408F3
:10287C000B000000000000005011002000000000C0
:10288C0014C80408080000000000000044110020D7
:10289C000000000024C804080D0000000000000027
:1028AC00381100200000000034C8040807000000A4
:1028BC0000000000301100200000000044C8040893
:1028CC00070000000000000028110020000000009C
:1028DC0054C804080700000000000000201100206C
:1028EC000000000064C8040807000000000000009D
:1028FC0018110020000000008CBF0408020000002A
:10290C00C5B90108010000000000000098BF0408D0
:10291C0001000000000000000000000000000000AA
:10292C00000000000E00000000000000000000008D
:10293C000000000078C8040800000000000000003F
:10294C0000000000000000008CC804080800000013
:10295C0000000000A4120020000000009CC8040825
:10296C000800000000000000981200200000000089
:10297C00ACC8040808000000000000008C12002005
:10298C0000000000BCC804080800000000000000A3
:10299C008012002000000000CCC8040808000000D1
:1029AC00000000007412002000000000E0C80408C1
:1029BC000800000000000000681200200000000069
:1029CC00F0C804080700000000000000601200209E
:1029DC000000000008C90408070000000000000007
:1029EC00581200200000000020C904080700000055
:1029FC0000000000501200200000000034C9040840
:102A0C000700000000000000481200200000000039
:102A1C0044C9040807000000000000004012002018
:102A2C000000000058C90408070000000000000066
:102A3C0038120020000000008CBF040802000000C7
:102A4C00C5B90108010000000000000098BF04088F
:102A5C000100000000000000000000000000000069
:102A6C00000000000E00000000000000000000004C
:102A7C000000000068C9040800000000000000000D
:102A8C00040B00200000000078C904080B000000B3
:102A9C0000000000681300200000000084C9040836
:102AAC000B000000000000005C1300200000000080
:102ABC0090C904080B000000000000005013002017
:102ACC00000000009CC904080B000000000000007E
:102ADC004413002000000000A8C904080B000000EB
:102AEC00000000003813002000000000B4C90408E6
:102AFC000B000000000000002C1300200000000060
:102B0C00C0C904080B0000000000000020130020C6
:102B1C0000000000CCC904080B00000000000000FD
:102B2C001413002000000000D8C904080B0000009A
:102B3C00000000000813002000000000E4C9040895
:102B4C00070000000000000000130020000000003F
:102B5C00F0C904080700000000000000F812002073
:102B6C0000000000FCC90408070000000000000081
:102B7C00F0120020000000000CCA0408070000003E
:102B8C0000000000E8120020000000001CCA04082D
:102B9C000800000000000000DC1200200000000013
:102BAC0024CA04080700000000000000D412002012
:102BBC000000000030CA04080D00000000000000F6
:102BCC00C81200200000000040CA040807000000E2
:102BDC0000000000C0120020000000004CCA0408D5
:102BEC000700000000000000B812002000000000E8
:102BFC005CCA04080600000000000000B0120020AF
:102C0C00000000008CBF040802000000C5B90108D8
:102C1C00010000000000000098BF04080100000043
:102C2C000000000000000000000000000000000098
:102C3C000E0000000000000000000000000000007A
:102C4C006CCA04080000000000000000040B002007
:102C5C000000000084CA0408070000000000000007
:102C6C00EC1300200000000090CA040808000000CB
:102C7C0000000000E0130020000000009CCA0408C3
:102C8C000700000000000000D81300200000000026
:102C9C00A8CA04080700000000000000D0130020A0
:102CAC0000000000B0CA040807000000000000008B
:102CBC00C813002000000000B8CA04080700000078
:102CCC0000000000C013002000000000A0C9040890
:102CDC000700000000000000B813002000000000F6
:102CEC00ACC904080700000000000000B01300206D
:102CFC0000000000B8C90408070000000000000034
:102D0C00A813002000000000C0CA0408070000003F
:102D1C0000000000A013002000000000C8CA040836
:102D2C0007000000000000009813002000000000C5
:102D3C00D0CA040807000000000000009013002017
:102D4C0000000000D8CA04080800000000000000C1
:102D5C008413002000000000E8CA040807000000EB
:102D6C00000000007C13002000000000F8CA0408DA
:102D7C000700000000000000741300200000000099
:102D8C008CBF040802000000C5B901080100000056
:102D9C000000000098BF04080100000000000000C3
:102DAC000000000000000000000000000E00000009
:102DBC000000000000000000000000000000000007
:102DCC002DA00108F413002045D000202C00000099
:102DDC00708B040844D0002000C8010042D00020B1
:102DEC00E803D007010000004352415A59424545BF
:102DFC004634445800000000E0CF002000030100DE
:102E0C00DFCF002000030100759F01084D9F0108D2
:102E1C00D0140020159F0108D59E010870150020C4
:102E2C00B59F01089D9F010838160020599E010886
:102E3C00159E01085819002059A5010829A501085B
:102E4C00481A002041A00108ADB70108101B002052
:102E5C006D9C010800000000741B002071B5010876
:102E6C00BDA50108501C0020C1A1010845A1010805
:102E7C00041D0020F9A2010845A30108BC1E002076
:102E8C00F7D1002001060100D1A0010869A00108BA
:102E9C00142100203DA20108DDB7010854220020B6
:102EAC0079A301089DB8010820240020E2D100205C
:102EBC000103010000CB040800000000000000002A
:102ECC0000000000000000000CCB0408080000000B
:102EDC0000000000BC2500200000000014CB0408FA
:102EEC000700000000000000B425002000000000D6
:102EFC0024CB04080D00000000000000A8250020D1
:102F0C000000000030CB04080300000019BB0108CE
:102F1C009C250020000000008CBF0408020000006B
:102F2C00C5B90108010000000000000098BF0408AA
:102F3C000100000000000000000000000000000084
:102F4C00000000000E000000000000000000000067
:102F5C000000000038CB0408000000000000000056
:102F6C00000000000000000048CB04080A0000002C
:102F7C00000000002CB004080000000050CB040836
:102F8C000A0000000000000061B704080000000007
:102F9C0058CB04080A0000000000000002D30020F7
:102FAC000000000060CB04080A00000000000000D4
:102FBC00C82500200000000098BF04080100000094
:102FCC0000000000000000000000000000000000F5
:102FDC000E000000000000000000000000000000D7
:102FEC0068CB040800000000000000000000000096
:102FFC000000000074CB04080300000019BB01089A
:10300C00002600200000000080CB04080300000014
:10301C0019BB0108F42500200000000088CB04082F
:10302C000300000019BB0108E82500200000000087
:10303C0090CB04080500000000000000DECF00204B
:10304C000000000098CB04080700000000000000FE
:10305C00E025002000000000A4CB040807000000BD
:10306C0000000000D8250020000000008CBF0408E0
:10307C0002000000C5B901080100000000000000BA
:10308C0098BF0408010000000000000000000000D0
:10309C0000000000000000000E0000000000000016
:1030AC000000000000000000B0CB0408000000008D
:1030BC00000000000000000000000000C4CB040869
:1030CC000300000019BB01083C2600200000000092
:1030DC00D0CB04080300000019BB01082C09002008
:1030EC0000000000D8CB04080300000019BB010845
:1030FC003026002000000000E0CB04080300000094
:10310C0019BB0108242600200000000038B3040875
:10311C000300000019BB0108182600200000000065
:10312C0050C404080300000019BB01080C26002041
:10313C00000000008CBF040802000000C5B90108A3
:10314C00010000000000000098BF0408010000000E
:10315C000000000000000000000000000000000063
:10316C000E00000000000000000000000000000045
:10317C00ECCB040800000000000000000000000080
:10318C0000000000FCCB04080700000025B9010872
:10319C008C2600200000000074C40408030000000A
:1031AC0019BB0108802600200000000008CC040890
:1031BC000300000019BB0108742600200000000069
:1031CC0010CC04080300000019BB0108682600207D
:1031DC000000000018CC04080700000009B9010821
:1031EC006026002000000000ECB204080300000080
:1031FC0019BB0108542600200000000024CC040850
:10320C000300000019BB0108482600200000000044
:10321C008CBF040802000000C5B9010801000000C1
:10322C000000000098BF040801000000000000002E
:10323C000000000000000000000000000E00000074
:10324C00000000000000000000000000FD9F0108CD
:10325C00CD9F01089426002089A5010800000000DC
:10326C0034270020B99E01089D9E0108C02700202C
:10327C00000000000000000088280020F9A30108CD
:10328C0041B901085029002030CC0408000000008E
:10329C000000000000000000000000003CCC04080E
:1032AC000300000019BB01085C2A0020000000008C
:1032BC0044CC04080300000019BB0108502A00206C
:1032CC0000000000A0B304080300000019BB0108B3
:1032DC00442A00200000000050CC04080300000029
:1032EC0019BB0108382A0020000000005CCC04083F
:1032FC000300000019BB01082C2A0020000000006C
:10330C0064CC040802000000C5B9010800000000EC
:10331C00000000008CBF040802000000C5B90108C1
:10332C0001000000000000006CCC0408020000004A
:10333C00C5B90108020000000000000000000000F8
:10334C000E00000000000000000000000000000063
:10335C00CECF002088136F1701000000D0CF0020C3
:10336C0088136F170000000078CC040800000000E0
:10337C0000000000000000000000000088CC0408E1
:10338C0008000000000000003C2B0020040000009E
:10339C0094CC04080800000000000000302B002032
:1033AC000000000014C5040804000000C1B50108A9
:1033BC00000000000000000098BF0408010000009D
:1033CC0000000000000000000000000000000000F1
:1033DC000E000000000000000000000000000000D3
:1033EC00CCCF002088136F1701000000107F002045
:1033FC0088136F1700000000A99D01080000000051
:10340C00482B0020DCD5002001000000248C04088F
:10341C00127F002001000000308C0408087F00207F
:10342C0002000000388C0408A64D002000000000AB
:10343C0000000000A44D002000000000000000006F
:10344C00A24D00200000000000000000A04D002054
:10345C0000000000000000009E4D00200000000055
:10346C00000000009C4D0020000000000000000047
:10347C00E80300200000000000000000CBCF00207B
:10348C0002000000448C0408D0CC040800000000AA
:10349C0000000000000000000000000088CC0408C0
:1034AC000800000000000000CC2B002004000000ED
:1034BC0094CC04080800000000000000C02B002081
:1034CC000000000014C50408040000007D9D0108E4
:1034DC00000000000000000098BF0408010000007C
:1034EC0000000000000000000000000000000000D0
:1034FC000E000000000000000000000000000000B2
:10350C00E0CC0408000000000000000000000000F7
:10351C0000000000F0CC04080D00000001B7010809
:10352C00FC2B002004000000FCCC04080D00000063
:10353C00CD9D0108F02B00200400000008CD0408EC
:10354C000D000000C5B60108E42B002000000000AF
:10355C0014CD04080300000051B50108D82B00203D
:10356C000800000020CD04080300000019BB01086E
:10357C00002F00200000000098BF0408010000008C
:10358C00000000000000000000000000000000002F
:10359C000E00000000000000000000000000000011
:1035AC005CC00408000000000000000000000000E7
:1035BC000000000023BA040804000000D9B501087B
:1035CC00000000000000000098BF0408010000008B
:1035DC0000000000000000000000000000000000DF
:1035EC000E000000000000000000000000000000C1
:1035FC0074CD040800000000000000000000000072
:10360C0000000000D0E504080D00000000000000E0
:10361C005C2C00200400000084CD0408080000008D
:10362C0000000000502C00200400000090CD040885
:10363C000800000000000000442C002004000000E2
:10364C0098CD04080800000000000000382C002071
:10365C0004000000A0CD04080800000000000000D9
:10366C002C2C002004000000A8CD04080800000049
:10367C0000000000202C002004000000B0CD040845
:10368C000800000000000000142C002004000000C2
:10369C00B8CD04080800000000000000082C002031
:1036AC000400000098BF04080100000000000000A6
:1036BC000000000000000000000000000E000000F0
:1036CC00000000000000000000000000959D0108B3
:1036DC0000000000682C002000000000000000002A
:1036EC00E02C00200000000000000000802D0020D5
:1036FC000E7F002004000000508C04080C7F00207A
:10370C00E0150C17000000000B7F002008000000E3
:10371C008C7804080A7F002005000000648C0408E3
:10372C000000000000000000D02D00200000803FB1
:10373C000000000000000000000000000000803FBE
:10374C000000000000000000000000000000803FAE
:10375C00000000000000000000000000FFFFFFFF61
:10376C00B1D10308B1D103080000803FFF00000075
:10377C00000000008CF10020080000000000000098
:10378C007CF100200800000050AB04080508040080
:10379C0000000000648C04088C780408508C040829
:1037AC0000000000000000007CAB040805080A00C3
:1037BC0000000000648C04088C780408248B040836
:1037CC000000000000000000010102FFFF000000EB
:1037DC00A98E0008898D000801EA0008000000008D
:1037EC00C1880008B9E70008018D000821E700082E
:1037FC0000000000000000007D880008198E000801
:10380C00498D00084DE9000800000000958800086B
:10381C0025E70008D58C000875E6000800000000BC
:10382C0000000000898800080100000080010000F1
:10383C000800000004000000000000000000000070
:10384C000102030406070809FF00000030300020C5
:10385C00000000000000000000000000000000005C
:10386C00000000000000000000000000000000004C
:10387C00000000000000000000000000000000003C
:10388C00000000000000000000000000000000002C
:10389C00000000000000000000000000000000001C
:1038AC00000000000000000000000000000000000C
:108000002DE9F04F2DED108B034697B004331593F7
:10801000DFEDCACA149002238A4613928B4612934C
:10802000149C4FEADB0604EB461202EB061031010A
:10803000A6EB86034FEAC60806EB4605CDE900012C
:1080400000EBC303043108F10400119620442144DD
:108050002C01C6EBC60C0394EC00119D04944FEA6E
:10806000CC0405946C0106EB860E0294159D009CD1
:1080700003EB46174FEACE0E02EBC6064FEACB09DA
:108080004FF0000C51ED01AAD3ED001A92ED007AE9
:1080900094ED005A96ED004AD7ED007A15ED012ACD
:1080A00050ED016A32EE07BA76EE840A7AEE855A0E
:1080B00031EEA70A3BEE256A70EE804A76EEC46A7E
:1080C00036EE244A36EE646A05ED014A82ED006A16
:1080D000D0ED00BAD6ED012AD3ED019A95ED00AAB4
:1080E00092ED016A97ED013A91ED00CAD4ED014A93
:1080F0007BEEE23A36EEE19A32EE472A73EEE98AF7
:108100003AEE464A39EE279A78EE838AB0EE428AF2
:10811000A9EE6C8ADC44E24573EEC33AB0EE441A31
:10812000A8EEEC1A76EEE77A33EEA97A7CEE643AA2
:1081300077EEA17A3AEE066A7AEEC51A3CEE24AAE8
:1081400074EECC4A39EE833A35EE6A5AF0EE639A11
:10815000F0EE48AAE7EE2C9AA8EEAC4AE7EE2C4ADD
:10816000E7EE6CAAF0EE418AB0EE427AB0EE612AF8
:108170007BEE656A7BEEA22A76EE4A5AA9EE2C7A4D
:10818000A7EEAC2AA7EEAC5AE7EEEC8A32EE83BA41
:1081900076EEC3BA35EEE09A75EEC07A36EE0A6A2C
:1081A00076EEE26A36EE0BAA76EE836A77EEA07A76
:1081B00034EE423A77EE290A36EE4B6A7BEEA22A7B
:1081C00039EE000A73EEAA3A78EE244A37EE697A5D
:1081D00031EE055A71EEA85A32EE044A85ED00AA36
:1081E00082ED016A4D4441ED012A4A44C4ED006A22
:1081F00081ED000AC4ED017A494440ED010A4C4486
:1082000087ED007AC6ED003AC3ED004A80ED003AF2
:1082100087ED014A484486ED015A4F44C3ED015AA7
:108220004E444B443FF62EAF119B072B40F2C781C3
:10823000029D149E019B03980499059A08357519AF
:108240000C330E95354608F108080EF10804EB18BA
:1082500008300831083246442C1928186918AA1821
:10826000079305F10C030D960C940B900A9109925B
:1082700008934FF001084FF0000E129B9E44139B91
:1082800003EBCE0303EBCE02109302EBCE0303EB22
:10829000CE01029101EBCE0101EBCE0505EBCE063E
:1082A000D6ED007A0F93AEEB8E03019106EB03132C
:1082B00003EBCE07D3ED01AACDED067A019BD5EDF8
:1082C000007A97ED01BACDED057AD3ED007A029BE5
:1082D000CDED047AD3ED007A0F9BCDED037A07EB59
:1082E000CE0CD3ED007ADCED01BACDED027A0CEBC9
:1082F000CE01D2ED007A109A009101EBCE0001463A
:1083000091ED01DACDED017A0099D2ED007A91ED8F
:1083100001CA00EBCE0000EBCE0494ED01EAD0EDF3
:1083200001DACDED007ADDE90776DDE90954DDE912
:108330000B01DDE90D23C44602E000BFF304353F25
:1083400094ED009A90ED00FA91ED006AD5ED007A77
:10835000D3ED006A57ED014A92ED005A56ED013A0D
:1083600096ED00AA35EE060A73EEA65A39EE278A74
:1083700034EE8F7A70EE082A75EE87EA35EE465AAB
:108380003EEEA26A73EEE63A06ED016AD1ED019A7D
:10839000D2ED01FAD4ED016AD3ED011A95ED013A5F
:1083A000D0ED018A97ED004A3FEEE96A35EE491AB1
:1083B00076EE660A31EE271A3AEE612A75EE677A92
:1083C00070EE830A3FEEA95A74EECF9A77EE897A5F
:1083D0007AEE211AB0EE42AA74EE68FAA0EEECAA88
:1083E000DC44E24535EEC77AB0EE639A74EE285A63
:1083F00038EEC44AF0EE698AA1EE6C9AE7EEAC8AD8
:1084000036EE436A7FEE644A36EE266AA0EEAC2A68
:10841000F0EE4A0AE7EEEC0AE7EEAC4AF0EE687AD4
:10842000F0EE498A36EE833AE6EE6C8AE1EE2C3ABB
:10843000B0EE6F1AA6EE2C1A71EEE56AA6EE2C4A83
:1084400071EEA55A75EE031A7EEEE22A37EE43FA74
:1084500075EEE1EAB0EE686A76EEC08A39EE044A5B
:108460007FEE86FA76EEC86A33EE816A38EE888A45
:1084700073EEC13A37EE457A2CEE2E1A3FEE055ACE
:1084800022EECC9A9DED03FA70EE266A33EE077A5F
:10849000AFEE221AAFEE2E9A7AEE244A9DED01FA43
:1084A00079EEA09A25EE4BAA72EE670A37EE822A81
:1084B0006BEE087AAFEE08AAEFEE057A2DEEA63A3B
:1084C0009DED05FA67EE6D8AAFEE073AEFEE268A6C
:1084D00066EE6A2A9DED00FA2AEEA00AEFEE202A47
:1084E0006EEE02EADDED060A23EECE5AE0EEA3EAD6
:1084F0002BEEA98ADDED023AAFEE060AA3EE848ADE
:1085000024EE6B7A6DEE246A9DED044A2FEECD6A5F
:10851000A0EE825AA3EEA97AE4EE2F6AA4EE246AB2
:1085200075EEA15AC6ED005A83ED001A83ED019A4B
:108530004E4447ED017A87ED00AA4B4480ED003AA6
:10854000C0ED018A4F4482ED000A4844C2ED012A81
:10855000C5ED00EA85ED015A4A44C1ED006A81ED9E
:10856000016A4D4484ED008A84ED017A49444C440B
:108570003FF6E6AE0E9B08330E930D9B08330D932A
:108580000C9B08330C930B9B08330B930A9B08330B
:108590000A93099B08330993089B08330893079BA8
:1085A00008330793119B08F1010843457FF465AE3A
:1085B000129BDDF844B0DB009BB2129330E517B09C
:1085C000BDEC108BBDE8F08F037830B403B30246E6
:1085D000C0F10105531912F8014FDBB2002CF9D19B
:1085E00001335B00DAB20C4C0B8003232270637002
:1085F000017859B1022300255A1CD2B2E154A55486
:1086000010F8011F0233DBB20029F5D130BC7047EE
:1086100002221346E7E700BF90300020084AD2E963
:10862000403199420AD0D118013391F808110170F4
:10863000C3F30A03C2F800310120704700207047DD
:1086400090300020064AD2F80839D2F80C2993421B
:1086500094BF4FF400600020013B9B1A1844704700
:1086600090300020012380F84D30704707B501A8F5
:10867000FFF7D4FF0028FAD09DF8040003B05DF89E
:1086800004FB044BD3E94003984288BF03F5006321
:10869000181A70479030002001207047024BC3F831
:1086A0001029C3F81419704790300020024BC3F80A
:1086B0001829C3F81C197047903000207047704784
:1086C00030B4134DD5E940239A4286BF03F50064C8
:1086D000A21A9A1A0A44B2F5006F13D8A9B101443C
:1086E0004A1E013810F8014FE918824203F10103D4
:1086F00081F80841C3F30A03F4D1C5F8043100201E
:1087000030BC7047022030BC70470846F8E700BF15
:1087100090300020212838B50C4605D022282ED0D4
:10872000202813D0002038BD0029FBD0072AF9D11A
:108730001A4BD3F8200993F8241993F8252993F8B4
:108740002639206021716271A371EBE70029E9D01D
:10875000072AE7D1114DD5F814391BB10968D5F8AE
:1087600010099847206821796279A379C5F8200912
:1087700085F8241985F8252985F82639D2E70029B6
:10878000D0D0022ACED1054AD2F81C39002BC9D04C
:108790000988D2F818099847C4E700BF9030002034
:1087A000024B0020C3F82809704700BF903000201A
:1087B000044B00200522C3F82829C3F81C09C3F87C
:1087C0001409704790300020704700BF704700BF09
:1087D000704700BF704700BF704700BF704700BFC1
:1087E000704700BF08B50248FFF7EEFE014808BD1C
:1087F000B0AF04089030002008B50248FFF7E4FE4F
:10880000014808BDC0AF04089030002008B50248F8
:10881000FFF7DAFE014808BDCCAF04089030002015
:1088200008B50248FFF7D0FE014808BDD8AF0408DC
:108830009030002008B50248FFF7C6FE014808BD89
:10884000E4AF040890300020042301480B807047F7
:108850000000002010B4074A074B92F82C0912249C
:1088600003F114020C8001280CBF184610465DF875
:10887000044B70479030002004000020642301481E
:108880000B8070472C000020432301480B80704769
:108890009000002010B5084CD4F8D400FF2809D06F
:1088A0000649D1F8302901F63411FFF733FFFF23D1
:1088B000C4F8D430002010BD00000020903000200B
:1088C000E8E700BF08B5D0F8E4355B6A98470020B8
:1088D00008BD00BF08B5D0F8E4351B6A98470020F2
:1088E00008BD00BFD0F8E43510B504461B689847B2
:1088F000D4F8E8359B689847002010BD08B5D0F83B
:10890000E435DB6903B19847002008BD08B50422AF
:1089100090F81211D0F8E83580F8131180F8122180
:10892000DB689847002008BD10B5D0F8E83504464C
:108930001B699847032384F81231002010BD00BF43
:108940000B0617D401EB810300EBC30310B400EB5B
:1089500081000124002283F8764383F8741383F89E
:108960007523426D5DF8044B136843F40013002037
:108970001360704701F07F0101EB810300EBC3033B
:10898000012200EB810083F81C1183F81E2183F87B
:108990001D2182691368002B01DA43F0804343F400
:1089A000001313600020704782B000230168019318
:1089B0000B6901930E4B03E00A690192013B13D04E
:1089C000019A002AF8DA019A094B42F00102019259
:1089D000019A0A610A69019203E00A690192013B66
:1089E00002D0019AD207F8D4002002B0704700BF2D
:1089F000400D0300436D064A1A61C278012A06D170
:108A000000F2CC5058614FF0802219681A6070470C
:108A10001800086010B580210446FFF791FF20463A
:108A20000021FFF78DFF2046BDE81040E2E700BFC0
:108A300070B44B78012B26D00B784A6900EB830386
:108A40005C6D25682369D2B18A684A6102F07F02B1
:108A500023F4002323F07F0342F400221343236115
:108A6000C378012B04BF0B696361C5F3076363F02F
:108A70007B0363F31F652560002070BC70478A6824
:108A800002F07F02E4E782694C691568136944B318
:108A90008E68B4428CBF06F07F0404F07F0423F498
:108AA000002323F07F0344F4002443EA040388BF37
:108AB0004E611361C378012B1DD0C5F3076464F0C8
:108AC0007B0464F31F651560002BD5D14B69002B27
:108AD000D2D002690878516B012383400B43536362
:108AE000CAE723F4002323F07F0343F40023136138
:108AF000C378012BE1D10B780C6900EB8300C5F33F
:108B00000763816963F07B0363F31F654C61002099
:108B1000156070BC704700BF2DE9F0434B78012B06
:108B200030D00B784C6900EB83035E6D3568376994
:108B30001CB38B681C44013CB4FBF3F4C4F309027E
:108B400003FB02F3C3F312034B61144643EAC4432D
:108B500063F31C073761C378012B04BF0B69736192
:108B6000CB78012B44D0C5F3076363F07B0363F339
:108B70001F6535600020BDE8F0838A680124C2F3D8
:108B80001203E3E791F800804E6900EB880EDEF8EF
:108B900018C0DCF80050DCF8107076B3D1F80890FB
:108BA000384A06EB0904013CB4FBF9F402EAC44478
:108BB000C6F312022243CC7807F060473A43012CF7
:108BC000174649D0CCF81020C278012A55D0026946
:108BD000516B03FA08F30B435363C5F3076363F068
:108BE0007B0363F31F65CCF800500020BDE8F083E1
:108BF0004B7973B345F00055B5E707F0604747F48C
:108C00000027CC78CCF81070C378012B2FD0012C22
:108C1000E3D102699268D20554BF45F0005545F092
:108C20008055C5F3076262F07B0262F31F65CCF8E2
:108C30000050002B9ED1B0B203308010DEF8D0403F
:108C400098D0CA6852F8041B216001339842F9D1C8
:108C500090E745F0805586E764F35E77CCF81070B6
:108C6000C378012BD5D10A69CCF81420D1E70A6961
:108C7000CCF81420012CB0D1CBE70B69CCF8143020
:108C8000ABE700BF0000F81F38B501EB810400EB33
:108C9000C4040D46002184F87453C4F88C1384F87E
:108CA0007513C4F88833C4F88023C3782821012BB6
:108CB00001FB050108BFEDB201F55D7108BFC4F805
:108CC00084231DB9FFF7B4FE002038BDFFF724FF51
:108CD000002038BD10B501EB8101084A00EBC1014D
:108CE0000446B1F88C131046FFF7EAFC034A20460D
:108CF00040230121FFF7C8FF002010BDCC39002020
:108D0000E8E700BF30B44C780022012C154612D0A1
:108D1000097800EB810401238B40646D63F31F45E8
:108D200001696FF3CF322260CB6923EA050300208B
:108D300030BCCB6170470B7800EB83019C4064F33F
:108D40000F058C69ECE700BF40F2011310B500F588
:108D5000A2710446A0F84431FFF7D4FF0123A4F820
:108D60009C3304F567712046FFF7CCFF4FF4817305
:108D7000A4F86C3104F5B6712046FFF7C3FFFFF786
:108D80000FFD002010BD00BF38B540F203130446AC
:108D90000D46A0F8943100F5CA71FFF7B3FF2946DC
:108DA0002046FFF7D1FF002038BD00BFF0B44B785C
:108DB0000A78012B4FF0000400EB820524D0012338
:108DC00093406D6D63F31F442E68330415D48A6895
:108DD00091F803C0CF880F49C2F30A0242F08053D2
:108DE00043F400430CF0030243EA824307F00F020E
:108DF00043EA825331400B432B600369DA69144321
:108E0000DC610020F0BC70479340AD6963F30F0450
:108E1000DAE700BF007833EC2DE9F04140F20113AE
:108E2000044602254FF0400801270026A0F84431EF
:108E3000C0F84C8180F84751A0F84A7180F8486129
:108E400000F5A271FFF7B2FF04F56771A4F89C73F7
:108E5000C4F8A48384F89F5384F8A0632046FFF7E6
:108E6000A5FF082203234FF48171C4F87421A4F8EC
:108E70006C1184F86F3104F5B671A4F87251204674
:108E8000FFF794FF064B9D83FFF792FC054A43468C
:108E900020463946FFF7F8FE3046BDE8F08100BFB6
:108EA00000000020CC39002070B50323082240F2D6
:108EB000031604460D46C0F89C2180F89731A0F8AF
:108EC0009A31A0F8946100F5CA71FFF76FFF294647
:108ED0002046FFF7A1FF002070BD00BF70B5002540
:108EE00040260446A0F8745380F87753C0F87C639A
:108EF00000F55D71FFF75AFF4FF48073A4F81C3141
:108F000004F58E71C4F8246184F81F51A4F822512D
:108F10002046FFF74BFFD4F8E835A078012284F80B
:108F200012215B689847284670BD00BF82B00023BD
:108F30000193019A094B42F010020192C168019A13
:108F40000A610A69019203E00A690192013B02D0B9
:108F5000019AD206F8D4002002B07047400D0300F9
:108F600082B000230193019A0B4B42F02002019240
:108F7000019A61F38A120192C168019A0A610A6931
:108F8000019203E00A690192013B02D0019A920624
:108F9000F8D4002002B07047400D03000E4BDA6891
:108FA000D20310D4DA68D1060FD4DA68D20510D40F
:108FB000DA6812F0E00F0AD1DB6813F0020F14BF79
:108FC00008200920704701207047062070470720BD
:108FD00070470220704700BF003C024030B1044B94
:108FE00093F97C090028D4BF00200120704700BFFE
:108FF0009030002008B5FFF7F1FF18B1024BD3F80D
:1090000080390B8008BD00BF9030002008B5FFF705
:10901000E5FF18B1024B93F884390B7008BD00BF0F
:109020009030002008B5FFF7D9FF80B10B4BB3F8A3
:10903000863963B1192B0BD9642B0BD9C82B0BD9EB
:10904000B3F5C87F94BF0323042301330B7008BD1D
:109050000023FAE70123F8E70223F6E79030002027
:1090600010B5FFF7BBFF48B1064B93F8884934B9F8
:1090700093F889490C7093F88A39137010BD002455
:10908000F8E700BF903000200420704728B1034B60
:1090900093F9D800003818BF012070470000002065
:1090A00008B5FFF7F3FF50B1054B93F9D820022A1A
:1090B00003BF93F8DB30C3F340030B70002008BDFF
:1090C0000000002008B5FFF7E1FF80B10C4A92F9DB
:1090D000DA3092F9D820012A0ED1272B08DC182B80
:1090E00008DC0F2BD4BF0023012301330B7008BD14
:1090F0000323FAE70223F8E70133DBB2F6E700BF08
:109100000000002010B5FFF7C1FFC0B10D4C94F86E
:10911000DB30DB0714D494F9D930002BB8BF073308
:10912000DB100133DBB20B7094F9D930594201F0F6
:10913000070103F0070358BF4B420133137010BD02
:109140000023F0E70000002003207047F0B5174A25
:10915000D2F88C5992F88B3915F0005514BF0427BA
:1091600006275C1CB4FBF7F607FB164692F89079CD
:10917000BE420CD01EB2DB0055B102F694152B4452
:1091800004F0030445F8360082F88B495960F0BDBD
:1091900002F6B4152B4445F8360059600621B4FB9D
:1091A000F1F301FB134482F88B49F0E79030002083
:1091B000002230B504461046914200DC30BDA35C6D
:1091C0000825584010F0800F4FEA400318BF83F085
:1091D000D503013DD8B2F5D10132EDE710B5E9B1C3
:1091E0000F4C94F9D820CAB14B1EDBB2032B15D813
:1091F000012A0C4A0C484FEAC30313444FF00501FF
:109200000CBF1B799B7984F8E430FFF7D1FF06216E
:1092100084F8E500BDE81040034897E710BD00BFA3
:1092200000000020A4740408E0000020074A92F81F
:10923000E43992F8E5190133DBB2994282F8E43956
:1092400004BF002382F8E439704700BF903000204B
:10925000F8B5794CD4F8E83973B194F8EC395BB1CE
:10926000764B94F8ED29A3FB0013012A4FEA9313E0
:1092700030D0022A08D002B1F8BD714B9842FBD918
:10928000012384F8ED39F8BDD4F8F02964329A420C
:1092900040D894F8E43904EB031393F8102DFF2A17
:1092A00006D068490132012083F8102D81F8E600CC
:1092B000FFF7BCFF94F8043D0122092B84F8ED2947
:1092C000DAD1B4F8AA3D13449BB2A4F8AA3DA4F89D
:1092D0000A3DF8BD94F8E419C4F8F03901EB4103F4
:1092E00004EB4313002594F8040D84F8025A0A2570
:1092F00084F8035A092804F6F81583F8182A4FF061
:109300000203C4F8F45984F8ED39B5D10131A4F859
:10931000081DF8BD94F8022A94F8033A9A42ABD19A
:1093200004F6F71004F52065002310F8012F08213A
:1093300053405A0013F0800F08BF5B0082F0070211
:1093400014BFD3B2DBB20139F3D18542EDD194F829
:10935000012A9A4238D194F8E46994F8FF79B4F874
:10936000FB59B4F8FD0994F8003A94F8F9C904EBF4
:10937000061240BA43EA07236DBA94F8FA7982F8E4
:10938000101DADB281B294F8040DC2F8145DC2F89C
:10939000181D2C4D94F9F81982F8111D47EA0C2775
:1093A0001BB2A2F8127DA2F81C3D0C284FF001025E
:1093B00085F8E6202AD00D2803D104EB4606A6F84E
:1093C000081DFFF733FF5BE794F8E43904EB031360
:1093D00093F8102DFF2A06D01A490132012083F894
:1093E000102D81F8E600FFF721FF94F8043D0122DB
:1093F000092B84F8ED297FF43FAFB4F8A83D13445E
:109400009BB2A4F8A83DA4F80C3DF8BD94F8A61DA5
:1094100003EB830302F1663203EB830349089B00ED
:1094200004EB460693FBF1F382FB0312DB17C3EB5D
:10943000A203A6F8083DC4E790300020D34D621087
:109440003F4B4C00000000200B4B93F8021A93F89E
:10945000032A91420ED010B493F8022AD3F8F449AB
:10946000511CD2B2C0B2C9B283F8021AA0545DF83E
:10947000044B7047704700BF9030002000285FD039
:109480000368374A2DE9F04103F13F4404F57E04B7
:1094900002EB9422012492F8202002F01F055209C9
:1094A000032A04FA05F456D0042A4FD0022A48D0E1
:1094B0008588B5FA85F0C0F11F00C0F3CC0603EB38
:1094C000860600F0070082000F24306A944020EAEC
:1094D00004003062306A01FA02F202430021326273
:1094E0004FF0010E0A464FF0030C02270EFA02F865
:1094F00038EA050002F101021CD118680CFA01F4E7
:1095000020EA04001860186807FA01F606431E6096
:109510009E6826EA04069E6098689860586820EA6B
:109520000800586058685860D86820EA0400D8607D
:10953000D868D860102A01F10201D7D1BDE8F081C6
:109540007047084A556C2C435464B1E7054A156BC3
:109550002C431463ACE7034A156C2C431464A7E74F
:10956000A47404080038024038B53D4CD4F8B43D2A
:1095700005460BB11D22DA801846092136F0F6F8AF
:10958000D4F8B40D36F098FA94F8BA3D013B5BB2CA
:10959000022BD6BF04EB03130020D3F8BC0DC4F894
:1095A000B00D0223102184F8AC3D39F033F940218D
:1095B0000A2038F0AFFAFF218A2038F0ABFA94F88D
:1095C000B82DC0F38011012A84F8EC1D00F040038F
:1095D0003BD0022A234B34D07AB394F8042D1A2AB4
:1095E00007D1B3F8E820A4F8085DA4F80A1DA4F890
:1095F0000C2DB3F8E810D4F8B00D39F00BF9D4F80D
:10960000B40D36F053FA0221002038F083FAD4F872
:10961000B40D36F051FA94F8F12D94F8F23D94F827
:10962000F01D84F8ED1DC2F12002C3F1100384F88F
:10963000F32D84F8F43D012038BD1022A3F8E82072
:10964000CBE70822A3F8E820C7E725B90822054B95
:10965000A3F8E820C1E7002B14BF08221022F6E788
:1096600090300020000000202DE9F0412DED028B0C
:109670000128564E82B00D465DD0554FD6F8A42332
:10968000B6F8A8330092ADF80430A7F10408D6F874
:10969000D4339FED508ABDF800204F494F4CC8F895
:1096A000001007EE903AB4FBF3F4F8EE677A27EE79
:1096B000888A82B194420ED3002D73D0012D0AD135
:1096C00007EE902A1946464BC8F80030B8EE670AF4
:1096D000384637F051F8BDF8023093B19C4210D3B0
:1096E000002D4BD0012D0CD107EE903A3C4AD6F814
:1096F000D413C8F80020B8EE670A07F1240037F049
:109700003BF8BDF80430A3B39C4232D3F5B1012D30
:109710002FD107EE903A324AD6F8D413C8F8002079
:10972000B8EE670A07F1480002B0BDEC028BBDE855
:10973000F04137F021B82B4FD6F8AA23B6F8AE3354
:109740000092ADF80430A7F10408A0E707EE903AC4
:10975000DFED256A254AC8F80020F8EEE77A0023F5
:1097600086EEA77ABB6477EE087A88EE277A87EDD3
:10977000137A02B0BDEC028BBDE8F08107EE903A9F
:10978000DFED196A194BC8F80030F8EEE77A0023CC
:1097900086EEA77A7B6277EE087A88EE277A87EDE5
:1097A0000A7AAEE707EE902ADFED0F6A0F4BC8F892
:1097B0000030F8EEE77A002386EEA77A3B6077EE7A
:1097C000087A88EE277A87ED017A84E788410020BD
:1097D000443F0020BD378635B1D1030820A10700E2
:1097E00001D10308B43F002083F9223E95D103083C
:1097F000F8B51A4D95F8E433002BFBD161B3014461
:10980000174F4E1E441ED7F80C29D7F8081914F824
:1098100001CF531CC3F30A038B422CBF4FF40060EB
:109820000020C91A2A4401440129C7F80C3982F8DA
:10983000E8C30FD1012035F09DFAD7F80839D7F8E1
:109840000C198B4294BF4FF4006200225B1A134440
:10985000012BEFD0B442D6D10020F8BD88410020C2
:10986000903000200A4B0846D3F8281910B569B18A
:10987000D3F82839052B09D1064C002AD4F8E83B47
:1098800004DD1146FFF7B4FFD4F8E83B10BD00BF7C
:10989000903000208841002010B590F84C10002333
:1098A00080F84C3089B10C4CD4F828297AB1D4F81E
:1098B0002829052A0DD1094C3830D4F8E83BFFF7A8
:1098C00097FFD4F8E83B012010BD0120FCE71046CB
:1098D000FAE71846F8E700BF9030002088410020E2
:1098E000002280F84D20D7E790F84C20531C02440A
:1098F000DBB280F84C3082F8381090F84D200AB175
:10990000132B00D9C8E77047F8B5124C0546D4F8B8
:10991000EC0B90F834301E3B012B02D9002135F0BE
:109920007FFC0D4F0026AE42D4F8EC0B0CDB00217F
:1099300035F076FCD4F8E83BC4F8103CB4F8143C9D
:109940000133A4F8143CF8BD17F8011B35F068FC8E
:109950000136E8E788410020784D002070B5124CB0
:1099600094F8903900EBC3020D4650F8331050685C
:109970000E4A0023984212DC8B780D4A5B0882F86D
:10998000283CC2F8240CFFF7BFFF94F8901901316E
:10999000B1FBF5F305FB131184F8901970BDCE5C93
:1099A00002F8016B0133E5E790300020784D00208C
:1099B00088410020094890F88B2990F890399A4204
:1099C0000BD0D0F88C399B0003D5042100F69410FD
:1099D000C4E7062100F6B410C0E7704790300020BD
:1099E0002DE9F84F194C0546202094F82A9C94F84C
:1099F0002BAC94F82C6CB4F82E8CB4F830BC94F8E2
:109A0000327C1CF0BDFD50B120201FF09DFE30B116
:109A1000BBF1000F03D0D84601264FF0000994F89F
:109A2000343CDB0705D427B194F83B3C002B08BF3E
:109A3000012685F8009085F801A0AE70A5F8048095
:109A4000A5F806B02F722846BDE8F88F884100209F
:109A500070B5FD2982B000F0BB80F02900F0A58030
:109A6000EF2901D102220C21A24B0B2403F109059D
:109A700001E013F8014F8C4200F0A880AB42F8D10E
:109A8000851804460346002201A803F8012BAB42C7
:109A900000F8012BF9D14B1E832B00F28980DFE8FF
:109AA00013F09A00A000AB00BB00CA00D100DE009A
:109AB000E700F40087008700FE00FE00FE001B01A7
:109AC0001B011B01F4008700870033013B01870065
:109AD000870087008700870087008700870087004E
:109AE000870087008700870087008700870087003E
:109AF000870087008700870087008700870087002E
:109B0000870087008700870087008700870087001D
:109B1000870087008700870087008700870087000D
:109B2000870065018700870087008700870087001E
:109B300087008700870087008700870087008700ED
:109B400087008700870087008700870087008700DD
:109B500087008700870087008700870087008700CD
:109B600087008700870087008700870087008700BD
:109B700087008700870087008700870087008700AD
:109B8000870087008700870087008700870087009D
:109B9000870087008700870087008700870087008D
:109BA0008700870087006A016A01022203215BE7C0
:109BB0009DF8043004F8013BA5420DF1050205D0E3
:109BC00012F8013B04F8013BA542F9D102B070BD87
:109BD00002220B2148E74FF4C873ADF804309023FC
:109BE000E8E7454BD3ED037AFDEEE77A17EE903ABE
:109BF000ADF80430DBB2DDE7404AB2F85C3C92F8E5
:109C00006F1C03EB83035B009BB20029F0D092F83A
:109C1000802CB3FBF2F3EBE7384AB2F85C3C92F8E5
:109C2000802CB3FBF2F303EB83035B00ADF804304D
:109C300003F0FE03BEE7314BD3F8A83CADF8043087
:109C4000DBB2B7E72D4BB3F89C2C002A00F09680CE
:109C500029F0F0FC80B2ADF80400C3B2AAE7274EA9
:109C600096F8343CDA0700F18F80B6F89C3CBFE7E9
:109C7000224A234BB2F9F01C83FB0132CB17C3EB12
:109C8000A203ADF80430DBB294E71C4BD3F8F43CEC
:109C900013F0140F8CD00023ADF804308AE7174B73
:109CA000DFED186AB3F8CC2C0C39C9B207EE102AD4
:109CB00003EB810303F6D84393ED016AB8EEC77A4C
:109CC000C6EE077A67EEA67AFDEEE77A17EE903ACF
:109CD000ADF80430DBB26DE7084B03EB4101B1F89E
:109CE000CE3C03EB83035B00ADF8043003F0FE03CE
:109CF00060E700BFCC7404080C4E002088410020AF
:109D00006766666600007A442A4B93F8343C03F099
:109D10000103ADF804304DE7264BB3F8B42C13071C
:109D20005ABFD34303F00103022312F4807F18BF0C
:109D3000032302F0280112F0440F18BF042328293E
:109D400008BF052312F0100F18BF062312F0020FF0
:109D500018BF072312F0200F18BF082312F4806FDA
:109D600018BF0923ADF80430DBB223E74FF0486396
:109D7000019300231EE7002301931BE7D3F8B03CB7
:109D800083F3100398B266E706F684461FF07EFD63
:109D9000D6ED037AFCEEE77A17EE903A9BB20028F4
:109DA0007FF426AF044AD2F88C2912F0100F18BFA6
:109DB00000231DE7884100209030002000F01F02A2
:109DC00040090123032803FA02F304D004280CD02D
:109DD000022805D07047074A116C0B431364704783
:109DE000044A516C0B4353647047024A116B0B4396
:109DF0001363704700380240002845D003682A4AA0
:109E000003F13F4101F57E0102EB9122F0B592F89A
:109E1000202002F01F0452090121032A01FA04F153
:109E20003DD0042A36D0022A2FD00022B0F804C038
:109E300011460126032706FA01FE3EEA0C0001F155
:109E400001011CD11D6807FA02F425EA04051D6012
:109E5000186806FA02F505431D609D6825EA0405A9
:109E60009D6098689860586820EA0E0058605868AD
:109E70005860D86820EA0400D860D868D8601029F3
:109E800002F10202D7D1F0BD7047084A546C214359
:109E90005164CAE7054A146B21431163C5E7034ABD
:109EA000146C21431164C0E7A47404080038024014
:109EB0002DE9F04700230F6801264FF0030C02E064
:109EC0000133102B41D006FA03F232EA0704F7D12E
:109ED000D0F800E05C000CFA04F52EEA050EC0F89C
:109EE00000E091F80490D0F800A009FA04FE09F10E
:109EF000FF394EEA0A0EB9F1010FA846C0F800E09A
:109F00006FEA050515D8D0F808E005EA0E0585606A
:109F10004D79D0F808E0A54045EA0E058560456812
:109F200025EA020242608A7945689A4092B22A4341
:109F30004260C26822EA0802C260CA79C568A240CB
:109F400001332A43102BC260BDD1BDE8F08700BFAA
:109F500000487047E04E00200E4B30B4DB6842787A
:109F600001780D4CDB43C3F30223C3F10403DBB2DE
:109F700002FA03F360181B0101F01F0501224909D1
:109F800003F0F003AA4080F8003344F8212030BCED
:109F9000704700BF00ED00E000E100E02DE9F04770
:109FA000484E96F8801E0446C1F34001D6F8880E4C
:109FB00035F088FD96F8801ED6F8840EC94301F06E
:109FC000010135F07FFD002C60D0671EDFF8F8A09E
:109FD000FFB24FF001094FF00008D6F8883E33B1C8
:109FE0001A689B8851690B4214BF53831383D6F8B8
:109FF000843E33B11A689B8851690B4214BF538366
:10A000001383B6F8903E002B42D196F8921ED6F8F4
:10A01000940E35F057FDFA2534F030FE044634F046
:10A020002DFE031BB3F57A7FF9D3013DF4D1D6F8A9
:10A03000883E33B11A689B8851690B4214BF538321
:10A040001383D6F8843E33B11A689B8851690B425A
:10A0500014BF53831383B6F8903E43BB96F8921E09
:10A06000D6F8940E81F0010135F02CFDFA2534F07C
:10A0700005FE044634F002FE031BB3F57A7FF9D3E4
:10A08000013DF4D1013FFFB2FF2FA6D1BDE8F0871B
:10A09000D6F8AC3E002BBED0D6F8982EB6F8B03E1F
:10A0A000BAFBF3F35B10136086F8A99EB3E7D6F80A
:10A0B000AC3E002BDAD0D6F8983EC3F8008086F884
:10A0C000A98ED3E78841002040420F002DE9F047D8
:10A0D000464EDFF81CA196F8801ED6F8880EC1F314
:10A0E000400135F0EFFC96F8801ED6F8840EC94387
:10A0F00001F0010135F0E6FC05274FF001094FF0B2
:10A100000008D6F8883E33B11A689B8851690B4223
:10A1100014BF53831383D6F8843E33B11A689B88E7
:10A1200051690B4214BF53831383B6F8903E002B42
:10A130004DD196F8921ED6F8940E35F0C3FC322518
:10A1400034F09CFD044634F099FD031BB3F57A7F8F
:10A15000F9D3013DF4D1D6F8883E33B11A689B8813
:10A1600051690B4214BF53831383D6F8843E33B135
:10A170001A689B8851690B4214BF53831383B6F846
:10A18000903ECBB996F8921ED6F8940E81F001015C
:10A1900035F098FC322534F071FD044634F06EFD44
:10A1A000031BB3F57A7FF9D3013DF4D1013F17F0DA
:10A1B000FF07A6D1BDE8F087D6F8AC3E002BE9D06A
:10A1C000D6F8983EC3F8008086F8A98EE2E7D6F864
:10A1D000AC3E002BB3D0D6F8982EB6F8B03EBAFB02
:10A1E000F3F35B10136086F8A99EA8E7884100206E
:10A1F00040420F000130F8B5C6B20A25FFF766FFEE
:10A200004FF4FA7734F03AFD044634F037FD031B7F
