:020000040800F2
:10000000F0FF01202D50040855E400082DB003082E
:10001000A1500408A1500408A150040800000000E9
:1000200000000000000000000000000061E4000883
:100030005DE400080000000059E400089DEC03089E
:10004000A1500408A1500408A1500408A1500408BC
:10005000A1500408A150040845F8030871F90308E9
:1000600035F90308F9F80308BDF80308DD31040881
:10007000CD310408BD310408AD31040899310408BC
:100080008531040871310408A15004080000000003
:1000900000000000000000000000000081F80308DC
:1000A000A1500408BDE403087DE40308E5E4030867
:1000B000ADE403089DE403088DE40308A15004089F
:1000C000A1500408A1500408A1500408A15004083C
:1000D000A150040875ED0308D9EC030800000000E6
:1000E00009F80308A1500408152C010800000000BD
:1000F0000000000000000000000000005D31040866
:1001000000000000A1500408A1500408A1500408F8
:1001100000000000000000000000000000000000DF
:100120004931040835310408213104080D3104082F
:10013000F93004080000000000000000000000008A
:10014000000000000000000000000000E5000108C1
:10015000E5300408D1300408BD300408A15004087B
:10016000A1500408A1500408000000000000000095
:10017000000000000000000000000000000000007F
:1001800000000000A1500408000000000000000072
:08019000A1500408A15004086D
:08019800CC4B04000100000043
:1001A0001F201C00044E0020FC7F002000000000E7
:1001B000C806000805020400E07C0020188000202A
:1001C00000000000E406000803010A00CA4D0020F8
:1001D0001C80002000000000E80600081302030055
:1001E000BC3900202880002000000000F206000832
:1001F000040080005C6900202C80002000000000CA
:1002000000000000230010008C680020AC8000205B
:10021000000000007DA801080D002C00746500207E
:10022000BC800020000000006D4A03081300040099
:10023000347D0020E880002000000000F80600085F
:10024000F6210C00387D0020EC800020000000002A
:10025000FC060008F5317400D4640020F88000200A
:1002600000000000153E01080B301400344E002041
:100270006C81002000000000080700080101040054
:10028000D0640020808100200000000000000000F9
:1002900000010400CC6400208481002000000000E4
:1002A0001C07000802010300C864002088810020A8
:1002B00000000000E1C00208F9010400B46400205D
:1002C0008C81002000000000FDCD0308FD0124000A
:1002D00090640020908100200000000085CD03087C
:1002E00006101800203E0020B4810020000000000D
:1002F000FD220208FB010100C4630020CC81002024
:10030000000000008DE80308FC0109009062002055
:10031000D0810020000000009DE8030802000C00CE
:100320005C620020DC810020000000000000000072
:100330000A6036003C450020E881002000000000F3
:10034000200700083400100088610020208200206F
:1003500000000000D12202081102080060610020A4
:10036000308200200000000056070008121204002E
:100370005861002038820020000000005E0700085D
:1003800018202C002C6100203C820020000000007E
:10039000F5D6030812200D000461002068820020B9
:1003A000000000006207000802020300983E0020DF
:1003B0007882002000000000000000000C02030012
:1003C000603E00207C82002000000000C1D20308B3
:1003D000FE0109003C6A002080820020000000002D
:1003E000A1D2030809020100A4CB0020FCCB00200D
:1003F00000000000700700080102050020C800206E
:1004000000CC002000000000853501080002050036
:1004100018C8002008CC00200000000000000000E8
:100420001B0208000CC8002010CC002000000000B7
:10043000D1D20308012008009CCA002018CC00205B
:100440000000000072070008190005001CCB002006
:1004500020CC0020000000007A07000837001E00B2
:10046000F4CA002028CC002000000000800700080B
:100470001E000500ECC5002048CC00200000000054
:100480009E0700081B00F400CCB3002050CC0020D5
:1004900000000000A94301080E0202002CCA00203F
:1004A00044CD002000000000A40700082F00110028
:1004B000B5CB002048CD002000000000A6070008B2
:1004C00005100600F4CB00205CCD002000000000E9
:1004D000B807000826000E0074CD002064CD00206F
:1004E00000000000012D0108F82106000EDA0020AE
:1004F00098DD002000000000BE0700080312330052
:1005000060D9002093D9002000000000C407000833
:100510002500960014D80020AAD800200000000072
:10052000000000001500700044D60020B4D6002062
:1005300000000000000000002A00600084D50020B8
:10054000E4D5002000000000612202082C00100009
:1005500040D9002050D9002000000000C1B501089A
:100560002B002400EAD90020C6D90020000000009A
:1005700095B501082910780024D700209CD70020C9
:10058000000000000000000028101000B0DD002076
:10059000A0DD00200000000069A80108140004008C
:1005A0007AD500207ED5002000000000F807000862
:1005B0000C20B400CCCF0020C0DD002000000000E3
:1005C00059C002080E80620112CE002074DE0020A5
:1005D00000000000892202081A000E00C4E4002076
:1005E00010E7002000000000FC07000803000100E5
:1005F000C0E4002020E70020000000000000000010
:1006000018020200FCF3002040F40020000000006B
:100610000000000017020B00F1F3002044F400205A
:100620000000000031D2030808120900E8F300209E
:1006300050F400200000000081D20308F7010600FA
:10064000DEF300205CF40020000000000A0800082F
:100650000A020A00CCED002064F400200000000033
:100660001008000810100300B0E8002070F400200B
:10067000000000001A08000816000800C8F7002053
:1006800074F80020000000001E080008100201009D
:100690005CFD002058FD0020000000002608000836
:1006A0001A023C0080F8002060FD002000000000DD
:1006B000A9D5030827000400A0FD00209CFD002010
:0806C0000000000028080008FA
:1006C8000000000000010000000500000102030016
:1006D8000000000000000000000000000000000012
:1006E800040101006C16000000000000000000007A
:1006F800480444100000000001000000020200004D
:100708002B21231E64010100000001000A012900B9
:10071800230A0000900100000030010000000000E2
:100728007300730069000000000000000000000072
:10073800000000000000020000019E077D00FA0092
:1007480096005802B80BB80BB80B2000C40900007B
:10075800000001010101FFFFFFFF00000001000090
:10076800054D4234310000002900E8036400040A02
:10077800000100002801000020003200C800D00756
:100788009600140032002800B0044006000550000E
:1007980014000F0008010000010000000000000024
:1007A8000000000000000000000000000000000041
:1007B8002000030100000101F40114000000000002
:1007C8000000000000000000000000000000000021
:1007D8000000000000000000000000000000000011
:1007E8000000000000000000000000000000010000
:1007F800030000467E05EA05B4050300E803D007B8
:10080800000022010000000000004A01B400D601E7
:10081800000000050000C4090700B40128280000F2
:0408280020030000A9
:10082C000403090412010002EF0201408304563252
:10083C00000201020301000012010002020200404A
:10084C008304405700020102030100000902640006
:10085C00030100C03209040000010300000009215B
:10086C00110100012226000705830308000A080B6A
:10087C00010202020100090401000102020100054B
:10088C0024001001052401000204240202052406A0
:10089C000102070582030800FF09040200020A0096
:1008AC00000007050102400000070581024000001E
:1008BC0009024300020100C03209040000010202D7
:1008CC00010005240010010524010001042402028A
:1008DC000524060001070582030800FF0904010036
:1008EC00020A000000070501024000000705810212
:1008FC0040000000FF00000000FFFF0000000000AF
:10090C00AA5505010000010008000000E18700085D
:10091C00DD870008D9870008CD870008C987000843
:10092C00D5870008D1870008558800084988000839
:10093C0021880008358800080D880008F987000810
:10094C00E58700080101000005010905A101A100CE
:10095C0005010930093109320933093509340940D7
:10096C0009381581257F750895088102C0C00000E3
:10097C0009022200010100E0320904000001030118
:10098C00020009211101000122260007058303083A
:10099C00000A0000006002401060024000000000ED
:1009AC0000000000000B0000000000000000000030
:1009BC0000000000006002402860024001000000BE
:1009CC0000000000060C0000000000000000000009
:1009DC000000000000600240406002400200000085
:1009EC0000000000100D00000000000000000000DE
:1009FC00000000000060024058600240030000004C
:100A0C0000000000160E00000000000000000000B6
:100A1C000000000000600240706002400400000012
:100A2C0000000000200F000000000000000000008B
:100A3C0000000000006002408860024005000000D9
:100A4C000000000026100000000000000000000064
:100A5C000000000000600240A060024006000000A0
:100A6C000000000030110000000000000000000039
:100A7C000000000000600240B86002400700000067
:100A8C0000000000362F00000000000000000000F5
:100A9C0000000000006402401064024000000000EE
:100AAC000000000000380000000000000000000002
:100ABC0000000000006402402864024001000000B5
:100ACC0000000000063900000000000000000000DB
:100ADC00000000000064024040640240020000007C
:100AEC0000000000103A00000000000000000000B0
:100AFC000000000000640240586402400300000043
:100B0C0000000000163B0000000000000000000088
:100B1C000000000000640240706402400400000009
:100B2C0000000000203C000000000000000000005D
:100B3C0000000000006402408864024005000000D0
:100B4C00000000002644000000000000000000002F
:100B5C000000000000640240A06402400600000097
:100B6C000000000030450000000000000000000004
:100B7C000000000000640240B8640240070000005E
:100B8C0000000000364600000000000000000000DD
:100B9C000000000000000000010203040102030435
:100BAC000607080921E60008DDEC000855E80008F6
:100BBC00FD880008DD8E00080D89000829890008D1
:100BCC00D5880008C588000800000000000000005F
:100BDC002D202D2D202D2D2D2D202D2D2D2D0000BA
:100BEC00000000000000000000000000000000AA4F
:100BFC00550B010000AA5507010000AA5509020077
:100C0C000000000001000000C012AA5503009F0064
:100C1C00FF1FFF1F0404002004000000D87F0020E9
:100C2C0000000000000200051002700B0000010023
:100C3C00E00101010100000065390108000000001D
:100C4C008C05002024B40408000000000000000003
:100C5C000000000000000000A0B20408000000002A
:100C6C0000000000020B002004000000D0B30408B8
:100C7C000D000000DD570108EC0E00200000000004
:100C8C00F0C904080D00000005580108E00E002012
:100C9C000000000044B4040808000000000000003C
:100CAC00D40E00200400000034B404080D00000031
:100CBC00193A0108C80E00200000000018CB0408E7
:100CCC0003000000F5B90108BC0E00200000000074
:100CDC003CB4040803000000F5B90108B00E002074
:100CEC0000000000E4B20408010000000000000055
:100CFC000000000000000000000000000E000000DA
:100D0C0000000000000000000000000024B40408F3
:100D1C0000000000000000000000000000000000C7
:100D2C00A0B204080000000000000000020B00202C
:100D3C000400000068B3040803000000953D01089E
:100D4C00A40E00200800000034B404080D000000BC
:100D5C00193A0108C80E00200000000018CB040846
:100D6C0003000000F5B90108BC0E002000000000D3
:100D7C003CB4040803000000F5B90108B00E0020D3
:100D8C0000000000E4B204080100000000000000B4
:100D9C000000000000000000000000000E00000039
:100DAC000000000000000000000000004CB404082B
:100DBC000000000000000000000000000000000027
:100DCC00A0B204080000000000000000020B00208C
:100DDC000400000070B3040803000000F5B901081A
:100DEC00F80E002000000000E4B20408010000002E
:100DFC0000000000000000000000000000000000E7
:100E0C000E000000000000000000000000000000C8
:100E1C000108000014B70408B0B604080000000074
:100E2C00F5C00208A08601000400000000000000CC
:100E3C0000000000000000000000000000000000A6
:100E4C00000000000000000014B704081CB70408E0
:100E5C0000000000DD480308E80300000400000067
:100E6C000000000000000000000000000000000076
:100E7C0000000000000000000000000078CA040818
:100E8C0024B7040800000000850403087D0000005E
:100E9C000600000000000000000000000000000040
:100EAC000000000000000000000000000000000036
:100EBC002CB7040800000000000000000D7F0308A0
:100ECC00E803000005000000000000000000000026
:100EDC000000000000000000000000000000000006
:100EEC000000000030B70408000000000000000003
:100EFC0081250208C4090000050000000000000064
:100F0C0000000000000000000000000000000000D5
:100F1C0000000000000000003CB7040800000000C6
:100F2C0071B30108459D03086A1800000500000014
:100F3C0000000000000000000000000000000000A5
:100F4C00000000000000000000000000B4F10408E4
:100F5C00000000000000000055C903081027000025
:100F6C000100000000000000000000000000000074
:100F7C000000000000000000000000000000000065
:100F8C0040B704080000000000000000414A0308BC
:100F9C00E803000005000000000000000000000055
:100FAC000000000000000000000000000000000035
:100FBC00000000004CB70408000000000000000016
:100FCC00193B0308204E0000030000000000000045
:100FDC000000000000000000000000000000000005
:100FEC0000000000000000005CB7040800000000D6
:100FFC0000000000FD380308204E00000300000034
:10100C0000000000000000000000000000000000D4
:10101C000000000000000000000000006CB7040895
:10102C000000000000000000B9B00308400D0300F0
:10103C0003000000000000000000000000000000A1
:10104C000000000000000000000000000000000094
:10105C007CB704080000000000000000097D0308B4
:10106C00102700000100000000000000000000003C
:10107C000000000000000000000000000000000064
:10108C0000000000E0B604080000000000000000B2
:10109C00196E01081027000003000000000000007A
:1010AC000000000000000000000000000000000034
:1010BC00000000000000000084B7040800000000DD
:1010CC0000000000E1480308A861000001000000D6
:1010DC000000000000000000000000000000000004
:1010EC0000000000000000000000000090B70408A1
:1010FC000000000000000000D54B0308A00F00000A
:10110C0001000000000000000000000000000000D2
:10111C0000000000000000000000000000000000C3
:10112C009CB704080000000000000000913F01087B
:10113C00102700000100000000000000000000006B
:10114C000000000000000000000000000000000093
:10115C0000000000C8B604080000000000000000F9
:10116C00859701081A4100000100000000000000F2
:10117C000000000000000000000000000000000063
:10118C000000000000000000A8B7040800000000E8
:10119C000000000051920008102700000100000020
:1011AC000000000000000000000000000000000033
:1011BC00000000000000000000000000C4B604089D
:1011CC000000000000000000B5E901081A41000011
:1011DC000100000000000000000000000000000002
:1011EC0000000000000000000000000000000000F3
:1011FC00B4B7040800000000000000004D12010804
:10120C00400D030000000000000000000000000082
:10121C0000000000000000000000000000000000C2
:10122C0000000000BCB70408000000000000000033
:10123C0099480308400D0300000000000000000066
:10124C000000000000000000000000000000000092
:10125C000000000000000000C4B7040800000000FB
:10126C0000000000F97B010850C3000003000000DF
:10127C000000000000000000000000000000000062
:10128C00000000000000000000000000D0B70408BF
:10129C0000000000000000007138030840420F00FD
:1012AC000000000000000000000000000000000032
:1012BC000000000000000000000000000000000022
:1012CC00DCB704080000000000000000D14A03084D
:1012DC0050C30000000000000000000000000000EF
:1012EC0000000000000000000000000000000000F2
:1012FC00000000000000803F0000803F0000000064
:10130C0000000000000000000000000000000000D1
:10131C0000000000000000000000000000000000C1
:10132C00FFFF2D202D2D202D2D2D2D202D2D2D0091
:10133C0000000000000000000000000000000000A1
:10134C0000010000FFFFFFFF5EC5002088136F1730
:10135C000100000060C5002088136F17000000001A
:10136C00BCB20408000000000000000000000000F7
:10137C0000000000CCB204080800000000000000CF
:10138C00340B002004000000D8B204080800000050
:10139C0000000000280B00200000000018CB0408FF
:1013AC00040000004156010800000000000000008D
:1013BC00E4B204080100000000000000000000007E
:1013CC0000000000000000000E0000000000000003
:1013DC0000000000000000005CC5002088136F179F
:1013EC0001000000D07C002088136F170000000063
:1013FC00CD39010800000000400B00206EC8002011
:10140C000100000000830408D27C002001000000D1
:10141C000C830408C87C002002000000148304081C
:10142C00BE4D00200000000000000000BC4D00205C
:10143C000000000000000000BA4D00200000000079
:10144C0000000000B84D002000000000000000006B
:10145C00B64D00200000000000000000B44D00203C
:10146C000000000000000000E80300200000000065
:10147C00000000005BC5002002000000208304086F
:10148C0020B3040800000000000000000000000071
:10149C0000000000CCB204080800000000000000AE
:1014AC00C40B002004000000D8B20408080000009F
:1014BC0000000000B80B00200000000018CB04084E
:1014CC00040000009D39010800000000000000002D
:1014DC00E4B204080100000000000000000000005D
:1014EC0000000000000000000E00000000000000E2
:1014FC00000000000000000030B3040800000000F1
:10150C0000000000000000000000000040B30408D0
:10151C000D00000081570108F40B002004000000AE
:10152C004CB304080D000000F5390108E80B00204D
:10153C000400000058B304080D00000045570108D2
:10154C00DC0B00200000000064B304080300000062
:10155C00B53D0108D00B00200800000070B3040852
:10156C0003000000F5B90108F80E0020000000008F
:10157C00E4B20408010000000000000000000000BC
:10158C0000000000000000000E0000000000000041
:10159C00000000000000000078B304080000000008
:1015AC0000000000000000000000000080B30408F0
:1015BC000400000059560108000000000000000063
:1015CC00E4B204080100000000000000000000006C
:1015DC0000000000000000000E00000000000000F1
:1015EC000000000000000000D8B304080000000058
:1015FC000000000000000000000000006804050866
:10160C000D00000000000000540C0020040000003D
:10161C00E8B304080800000000000000480C00209B
:10162C0004000000F4B304080800000000000000EF
:10163C003C0C002004000000FCB30408080000006F
:10164C0000000000300C00200400000004B404086A
:10165C000800000000000000240C00200400000022
:10166C000CB404080800000000000000180C002056
:10167C000400000014B4040808000000000000007E
:10168C000C0C0020040000001CB40408080000002E
:10169C0000000000000C002004000000E4B204086C
:1016AC00010000000000000000000000000000002D
:1016BC00000000000E000000000000000000000010
:1016CC0000000000B539010800000000600C00208B
:1016DC000000000000000000D80C002000000000FA
:1016EC0000000000780D0020CE7C002004000000DB
:1016FC002C830408CC7C0020E0150C1700000000A3
:10170C00CB7C002008000000E0790408CA7C002093
:10171C0005000000408304080000000000000000E9
:10172C00C80D002020700020702D720001000000F8
:10173C000000000000000000442E00200001010108
:10174C000001D601FFFF0000FFFFFFFFFA000000C1
:10175C000100000001000000B0D000200000F401E6
:10176C0001000000AED000200000F40101000000D8
:10177C00ACD000200000F40101000000AAD0002031
:10178C000000F40101000000A8D000200000F401CA
:10179C0001000000A6D000200000F40101000000B0
:1017AC00A4D000200000F4010100000030C50408A2
:1017BC00000000000000000000000000000000001D
:1017CC0048C50408000000000000000000000000F4
:1017DC000000000068C504080800000000000000BC
:1017EC00800F00200000000074C5040808000000F1
:1017FC0000000000740F00200000000080C50408E9
:10180C000800000000000000680F0020000000002D
:10181C00C0CF040808000000000000005C0F00208E
:10182C00000000008CC50408080000000000000047
:10183C00500F00200000000098C5040808000000AC
:10184C0000000000440F002000000000A4C50408A4
:10185C000800000000000000380F0020000000000D
:10186C00B0C504080200000075BA010802000000AF
:10187C0000000000E4B204080100000000000000B9
:10188C000000000000000000000000000E0000003E
:10189C0000000000000000000000000015A7010877
:1018AC00D5A601088C0F0020A2D000200532010023
:1018BC00A0D00020E803D007010000009ED000203B
:1018CC00E803D007010000009CD00020E803D007FB
:1018DC00010000009AD000201E00B80B010000008F
:1018EC0098D000201E00F4010100000096D00020CA
:1018FC00140064000100000094D000200000C80017
:10190C0001000000BCC50408C4C50408D8C50408FF
:10191C0000000000000000000000000000000000BB
:10192C0048C5040800000000000000000000000092
:10193C000000000090B60408080000000000000041
:10194C00D810002000000000ECC5040808000000BE
:10195C0000000000CC1000200000000000C60408AD
:10196C000800000000000000C01000200000000073
:10197C0014C604080800000000000000B410002089
:10198C000000000028C60408080000000000000049
:10199C00A81000200000000038C604080800000051
:1019AC00000000009C1000200000000048C6040845
:1019BC000800000000000000901000200000000053
:1019CC0058C6040807000000000000008810002022
:1019DC000000000068C6040803000000F5B9010807
:1019EC007C10002000000000B0C5040802000000BC
:1019FC0075BA01080200000000000000E4B20408FF
:101A0C0001000000000000000000000000000000C9
:101A1C00000000000E0000000000000000000000AC
:101A2C000000000078B30408000000000000000073
:101A3C00000000000000000089BF04080400000042
:101A4C00B75501080000000000000000E4B20408D3
:101A5C000100000000000000000000000000000079
:101A6C00000000000E00000000000000000000005C
:101A7C0000000000D2C500200100C40900000000D5
:101A8C00D0C500200100C40900000000CEC5002014
:101A9C000100C40900000000CCC500200100C409ED
:101AAC0000000000C8C500200100C40900000000AF
:101ABC00CAC500200100C40900000000C6C50020F2
:101ACC000100C40900000000C4C500200100C409C5
:101ADC0000000000A2CD00200000FFFF0A00000063
:101AEC00A0CD00200100C800010000009ECD002008
:101AFC0032003075320000009DCD0020055A0500E3
:101B0C009ACD002000FF01009CCD002001000000B8
:101B1C00E410002098CD002002000000D4820408BC
:101B2C0099CD002000FF01009BCD0020010000009A
:101B3C00E410002097CD002002000000D48204089D
:101B4C0092CD002080C1803E0500000090CD002089
:101B5C0080C1803E050000008ECD002080C1803EFB
:101B6C00050000008CCD002080C1803E05000000E7
:101B7C008BCD002000FF01008ACD00200A3201002D
:101B8C0089CD0020040000009C8E040888CD002024
:101B9C0002000000B08E040891A601084DA60108B1
:101BAC00EC100020B6D00020EE02CA0801000000A4
:101BBC00B4D0002000C8010064000000B3D00020A5
:101BCC0000C8010064000000B2D000200200000038
:101BDC00BC8E04080000000000000000041200206D
:101BEC00907C00209CFF2C010000000012040020BF
:101BFC000A000000C88E040858C50020E0150C1718
:101C0C00000000001404002008000000E079040823
:101C1C001304002005000000408304085AC500206E
:101C2C0002000000E08E0408C2D000200100FF7FFB
:101C3C0001000000C1D0002002000000EC8E04085E
:101C4C0086CF00200000F4010100000084CF0020AA
:101C5C000000F4010100000082CF00200000F4011C
:101C6C000100000080CF00200000F4010100000002
:101C7C0096CF00200100803E0500000092CF00208E
:101C8C000000803E6400000090CF00200000803EE9
:101C9C00640000008ECF00200000803E6400000035
:101CAC0094CF002003000002010000008CCF002024
:101CBC00C800E803010000008ACF00201E00E803E2
:101CCC000100000088CF00200000E80301000000A4
:101CDC007ECF00200000803E010000007CCF002061
:101CEC000000803E010000007ACF00200000803E02
:101CFC000100000078CF00200000803E01000000B1
:101D0C0076CF00200000803E0100000074CF002040
:101D1C000000803E01000000C7CF002019640100C4
:101D2C00CBCF002000640100CACF0020006401006A
:101D3C00C9CF00200A320100C8CF002003000000E8
:101D4C00FC8E0408C4CF0020E803D0070A00000072
:101D5C00C2CF002000FA01000A000000C1CF002011
:101D6C0000FA01000A000000C0CF002000FA0100B8
:101D7C000A000000AFCF002000640100AECF0020AD
:101D8C0000640100B6CF0020006401000A000000CE
:101D9C00B5CF0020006401000A000000B4CF002081
:101DAC00006401000A000000B9CF002000640100AB
:101DBC000A000000B8CF0020006401000A000000F7
:101DCC00B7CF0020006401000A000000B3CF002050
:101DDC0000FF01000A000000B2CF002000FF01004C
:101DEC000A000000B1CF002000FF01000A00000033
:101DFC00BFCF0020005F01000A000000BECF002012
:101E0C00005F01000A000000BDCF0020005F010050
:101E1C000A000000BCCF0020005F01000A00000097
:101E2C00BBCF002019AF01000A000000BACF002080
:101E3C0019AF01000A00000000CE0020000A0100CA
:101E4C00FFCD0020000A0100FECD0020000A010099
:101E5C0010CE002000FA01000FCE002000FA010085
:101E6C000ECE002000FA01000CCE00200000F40180
:101E7C00010000000ACE00200000F4010100000067
:101E8C0008CE00200000F4010100000006CE002066
:101E9C000000F4010100000004CE00200000F40159
:101EAC000100000002CE00200000F401010000003F
:101EBC00ACCF0020FF080100ABCF00200164010073
:101ECC00AACF002000640100A9CF0020010000006F
:101EDC000C8F0408A8CF002000C80100A6CF00205A
:101EEC000000D00701000000A5CF002000C80100B1
:101EFC00A4CF002000C80100A3CF002000C801001F
:101F0C00A2CF002000C80100A1CF002000FA0100E0
:101F1C000A0000009ECF002000FA01000A00000019
:101F2C009BCF002000FA01000A000000A0CF002087
:101F3C0000FA01000A0000009DCF002000FA010009
:101F4C000A0000009ACF002000FA01000A000000ED
:101F5C009FCF002000FA01000A0000009CCF002057
:101F6C0000FA01000A00000099CF002000FA0100DD
:101F7C000A00000082D00020010A01008AD0002053
:101F8C0000FA010088D000200000E80305000000E2
:101F9C0093D0002000C8010092D0002000C801009E
:101FAC0091D0002000C8010090D0002000C8010092
:101FBC008FD0002000C801008ED0002000C8010086
:101FCC008DD0002000C801008CD0002000C801007A
:101FDC008BD0002000C8010086D0002000FA010040
:101FEC0084D000200000E8030500000081D0002010
:101FFC000064010090C6040800000000000000000E
:10200C000000000000000000FCCE040809000000E5
:10201C0000000000A81200200400000014CF0408E7
:10202C0009000000000000009C12002004000000C9
:10203C000CD10408090000000000000090120020E0
:10204C0004000000F4B504080900000000000000C2
:10205C008412002004000000A0C60408090000003F
:10206C00000000007812002004000000A8C604083C
:10207C0009000000000000006C12002004000000A9
:10208C00B0C6040809000000000000006012002027
:10209C0004000000B8C6040809000000000000009D
:1020AC005412002004000000E4B2040801000000F7
:1020BC000000000000000000000000000000000014
:1020CC000E000000000000000000000000000000F6
:1020DC00CCC8040800000000000000000000000054
:1020EC0000000000C8EF040807000000000000001A
:1020FC00D812002000000000DCC804080800000012
:10210C0000000000CC12002000000000E8C8040809
:10211C000800000000000000C012002000000000B9
:10212C00F0C804080800000000000000B4120020F1
:10213C0000000000B0C504080200000075BA0108D8
:10214C000100000000000000E4B2040801000000DF
:10215C000000000000000000000000000000000073
:10216C000E00000000000000000000000000000055
:10217C0000C904080000000000000000000000007E
:10218C000000000010C904080D0000000000000051
:10219C00141300200000000018C904080D000000F2
:1021AC0000000000081300200000000020C90408F3
:1021BC0007000000000000000013002000000000D9
:1021CC0028C904080D00000000000000F4120020D3
:1021DC000000000030C904080D00000000000000E1
:1021EC00E81200200000000038C9040807000000B5
:1021FC0000000000E012002000000000B0C5040840
:10220C000200000075BA0108010000000000000087
:10221C00E4B204080100000000000000000000000F
:10222C0000000000000000000E0000000000000094
:10223C00000000000000000040C90408000000007D
:10224C00000000000000000000000000C8EF0408BF
:10225C000C00000000000000A4CD002000000000D5
:10226C0054C904080C00000000000000A6CD00209A
:10227C000000000064C904080C000000000000000D
:10228C00DCCD00200000000074C904080C00000024
:10229C0000000000D0CD00200000000088C9040818
:1022AC000C00000000000000A8CD00200000000081
:1022BC0094C904080C00000000000000AACD002006
:1022CC00000000009CC904080C0000000000000085
:1022DC00ACCD002000000000B0C904080C000000C8
:1022EC0000000000AECD002000000000B8C90408BA
:1022FC000C00000000000000B0CD00200000000029
:10230C00C0C904080C00000000000000EECD002045
:10231C0000000000D8C904080C00000000000000F8
:10232C00B2CD002000000000E4C904080C0000003D
:10233C0000000000B4CD00200000000080CB040899
:10234C000C00000000000000B6CD002000000000D2
:10235C00ECC904080C00000000000000B8CD0020FF
:10236C0000000000F8C904080C0000000000000088
:10237C00BACD00200000000004CA04080C000000C4
:10238C0000000000BCCD00200000000010CA0408B2
:10239C000C00000000000000BECD0020000000007A
:1023AC001CCA04080C00000000000000C0CD002076
:1023BC000000000028CA04080C0000000000000007
:1023CC00D4CD00200000000030CA04080C0000002E
:1023DC0000000000D2CD00200000000038CA040824
:1023EC000C00000000000000E0CD00200000000008
:1023FC0044CA04080C00000000000000E2CD0020DC
:10240C000000000050CA04080C000000000000008E
:10241C00E8CD00200000000084B704080C00000088
:10242C0000000000C2CD00200000000034B40408FD
:10243C000C00000000000000CACD002000000000CD
:10244C005CCA04080C00000000000000C4CD002091
:10245C000000000068CA04080C0000000000000026
:10246C00C6CD00200000000074CA04080C00000057
:10247C0000000000C8CD0020000000007CCA040849
:10248C000C00000000000000CCCD0020000000007B
:10249C0088CA04080C00000000000000D6CD002003
:1024AC000000000090CA04080C00000000000000AE
:1024BC00CECD0020000000009CCA04080C000000D7
:1024CC0000000000DECD002000000000A8CA0408B7
:1024DC000C00000000000000D8CD0020000000001F
:1024EC00B0CA04080C00000000000000DACD002087
:1024FC0000000000B8CA04080C0000000000000036
:10250C00E4CD002000000000C0CA04080C0000004C
:10251C0000000000E6CD002000000000C8CA04083E
:10252C000C00000000000000F6CD002000000000B0
:10253C00E4B20408010000000000000000000000EC
:10254C0000000000000000000E0000000000000071
:10255C000000000000000000D0CA040800000000C9
:10256C00000000000000000000000000DCCA0408AD
:10257C000D000000000000006C13002000000000A3
:10258C00E4CA04080D0000000000000060130020E5
:10259C0000000000ECCA0408070000000000000066
:1025AC005813002000000000F8CA040807000000BF
:1025BC0000000000501300200000000004CB0408B1
:1025CC00090000000000000044130020000000007F
:1025DC0010CB040809000000000000003813002094
:1025EC00000000001CCB04080900000000000000E3
:1025FC002C130020000000002CCB04080900000064
:10260C00000000002013002000000000B0C50408EA
:10261C000200000075BA0108010000000000000073
:10262C00E4B20408010000000000000000000000FB
:10263C0000000000000000000E0000000000000080
:10264C00000000000000000040CB04080000000067
:10265C0000000000000000000000000048C5040855
:10266C00000000000000000000000000000000005E
:10267C0050CB04080D00000000000000A81300203F
:10268C00000000005CCB04080B0000000000000000
:10269C009C1300200000000068CB04080B00000015
:1026AC0000000000901300200000000078CB04080C
:1026BC00080000000000000084130020000000004F
:1026CC008CCB040803000000F5B901087813002036
:1026DC0000000000B0C504080200000075BA010833
:1026EC000200000000000000E4B204080100000039
:1026FC0000000000000000000000000000000000CE
:10270C000E000000000000000000000000000000AF
:10271C0098CB04080000000000000000000000003E
:10272C0000000000A8CB0408050000000000000019
:10273C00FDCD002000000000B0C504080200000020
:10274C0075BA01080100000000000000E4B20408A2
:10275C00010000000000000000000000000000006C
:10276C00000000000E00000000000000000000004F
:10277C0000000000B0CB04080000000000000000C6
:10278C000000000000000000260205080000000008
:10279C0000000000B003002004000000BCCB0408C3
:1027AC000D00000019560108FC1300200000000069
:1027BC00D0B304080D0000001D390108F0130020EF
:1027CC0000000000F0C904080D00000001390108E8
:1027DC00E41300200000000044B4040808000000CA
:1027EC0000000000D81300200400000034B40408DA
:1027FC000D00000049380108CC1300200000000037
:10280C00C0CB04080900000000000000C013002029
:10281C000400000018CB040803000000F5B90108FF
:10282C00B413002000000000E4B204080100000012
:10283C00000000000000000000000000000000008C
:10284C000E0000000000000000000000000000006E
:10285C00C8CB0408000000000000000000000000CD
:10286C0000000000D8CB04080D00000000000000A0
:10287C001414002000000000E0CB04080A00000043
:10288C00000000006ED3002000000000ECCB040818
:10289C000A0000000000000076D3002000000000B9
:1028AC00F4CB04080A000000000000007ED30020D6
:1028BC0000000000FCCB0408080000000000000031
:1028CC000814002000000000B0C50408020000003D
:1028DC0075BA01080100000000000000E4B2040811
:1028EC0001000000000000000000000000000000DB
:1028FC00000000000E0000000000000000000000BE
:10290C000000000004CC04080000000000000000DF
:10291C00000000000000000018CC040808000000B3
:10292C0000000000EC1400200000000028CC04087B
:10293C000800000000000000E0140020000000006F
:10294C0038CC04080800000000000000D41400205B
:10295C000000000048CC0408080000000000000043
:10296C00C81400200000000058CC04080800000027
:10297C0000000000BC1400200000000068CC04081B
:10298C000800000000000000B0140020000000004F
:10299C0078CC04080800000000000000A4140020FB
:1029AC000000000084CC04080800000000000000B7
:1029BC00981400200000000094CC040808000000CB
:1029CC00000000008C14002000000000A4CC0408BF
:1029DC00080000000000000080140020000000002F
:1029EC00ACCC0408080000000000000074140020A7
:1029FC0000000000B4CC0408080000000000000037
:102A0C006814002000000000BCCC04080800000082
:102A1C00000000005C14002000000000C4CC04087E
:102A2C00080000000000000050140020000000000E
:102A3C00D4CC04080800000000000000441400205E
:102A4C0000000000E0CC04080800000000000000BA
:102A5C003814002000000000ECCC04080800000032
:102A6C00000000002C14002000000000F8CC04082A
:102A7C0008000000000000002014002000000000EE
:102A8C00B0C504080200000075BA0108010000007E
:102A9C0000000000E4B20408010000000000000087
:102AAC000000000000000000000000000E0000000C
:102ABC0000000000000000000000000004CD04082D
:102ACC000000000000000000070F002000000000C4
:102ADC0010CD04080B000000000000000C160020B4
:102AEC000000000020CD04080B00000000000000D6
:102AFC0000160020000000002CCD04080B00000084
:102B0C0000000000F4150020000000003CCD04087B
:102B1C000B00000000000000E81500200000000081
:102B2C0048CD04080B00000000000000DC1500205C
:102B3C00000000005CCD04080B0000000000000049
:102B4C00D0150020000000006CCD04080B00000024
:102B5C0000000000C41500200000000078CD04081F
:102B6C000B00000000000000B81500200000000061
:102B7C0084CD04080B00000000000000AC15002000
:102B8C000000000090CD04080B00000000000000C5
:102B9C00A0150020000000009CCD04080B000000D4
:102BAC00000000009415002000000000A8CD0408CF
:102BBC000B00000000000000881500200000000041
:102BCC00B4CD04080B000000000000007C150020B0
:102BDC0000000000C0CD04080B0000000000000045
:102BEC007015002000000000CCCD04080B00000084
:102BFC00000000006415002000000000D8CD04087F
:102C0C0007000000000000005C1500200000000020
:102C1C00E0CD04080700000000000000541500205F
:102C2C0000000000ECCD04080B00000000000000C8
:102C3C004815002000000000F8CD04080B0000002F
:102C4C00000000003C1500200000000004CE040829
:102C5C000B000000000000003015002000000000F8
:102C6C0010CE04080800000000000000241500200D
:102C7C000000000020CE04080D0000000000000041
:102C8C00181500200000000030CE040807000000DA
:102C9C0000000000101500200000000040CE0408C9
:102CAC0007000000000000000815002000000000D4
:102CBC0050CE0408070000000000000000150020A2
:102CCC000000000060CE04080700000000000000B7
:102CDC00F814002000000000B0C504080200000039
:102CEC0075BA01080100000000000000E4B20408FD
:102CFC0001000000000000000000000000000000C7
:102D0C00000000000E0000000000000000000000A9
:102D1C000000000074CE0408000000000000000059
:102D2C00000000000000000088CE0408080000002D
:102D3C0000000000841600200000000098CE04085B
:102D4C0008000000000000007816002000000000C1
:102D5C00A8CE040808000000000000006C1600203B
:102D6C0000000000B8CE04080800000000000000BD
:102D7C006016002000000000C8CE04080800000007
:102D8C00000000005416002000000000DCCE0408F7
:102D9C0008000000000000004816002000000000A1
:102DAC00ECCE0408070000000000000040160020D4
:102DBC000000000004CF0408070000000000000021
:102DCC0038160020000000001CCF0408070000008B
:102DDC0000000000301600200000000030CF040876
:102DEC000700000000000000281600200000000072
:102DFC0040CF04080700000000000000201600204F
:102E0C000000000054CF0408070000000000000080
:102E1C001816002000000000B0C5040802000000D5
:102E2C0075BA01080100000000000000E4B20408BB
:102E3C000100000000000000000000000000000085
:102E4C00000000000E000000000000000000000068
:102E5C000000000064CF0408000000000000000027
:102E6C00040F00200000000074CF04080B000000C9
:102E7C0000000000481700200000000080CF04086C
:102E8C000B000000000000003C17002000000000B8
:102E9C008CCF04080B00000000000000301700204D
:102EAC000000000098CF04080B0000000000000098
:102EBC002417002000000000A4CF04080B00000021
:102ECC00000000001817002000000000B0CF04081C
:102EDC000B000000000000000C1700200000000098
:102EEC00BCCF04080B0000000000000000170020FD
:102EFC0000000000C8CF04080B0000000000000018
:102F0C00F416002000000000D4CF04080B000000D1
:102F1C0000000000E816002000000000E0CF0408CC
:102F2C000700000000000000E01600200000000078
:102F3C00ECCF04080700000000000000D8160020A9
:102F4C0000000000F8CF040807000000000000009B
:102F5C00D01600200000000008D004080700000074
:102F6C0000000000C81600200000000018D0040863
:102F7C000800000000000000BC160020000000004B
:102F8C0020D004080700000000000000B416002048
:102F9C00000000002CD004080D0000000000000010
:102FAC00A8160020000000003CD004080700000018
:102FBC0000000000A01600200000000048D004080B
:102FCC000700000000000000981600200000000020
:102FDC0058D00408060000000000000090160020E5
:102FEC0000000000B0C504080200000075BA01081A
:102FFC000100000000000000E4B204080100000021
:10300C0000000000000000000000000000000000B4
:10301C000E00000000000000000000000000000096
:10302C0068D004080000000000000000040F00201D
:10303C000000000080D00408070000000000000021
:10304C00CC170020000000008CD004080800000001
:10305C0000000000C01700200000000098D00408F9
:10306C000700000000000000B8170020000000005E
:10307C00A4D004080700000000000000B0170020D6
:10308C0000000000ACD004080700000000000000A5
:10309C00A817002000000000B4D0040807000000AE
:1030AC0000000000A0170020000000009CCF0408C6
:1030BC00070000000000000098170020000000002E
:1030CC00A8CF0408070000000000000090170020A3
:1030DC0000000000B4CF040807000000000000004E
:1030EC008817002000000000BCD004080700000076
:1030FC00000000008017002000000000C4D004086D
:10310C0007000000000000007817002000000000FD
:10311C00CCD004080700000000000000701700204D
:10312C0000000000D4D004080800000000000000DB
:10313C006417002000000000E4D004080700000021
:10314C00000000005C17002000000000F4D0040810
:10315C0007000000000000005417002000000000D1
:10316C00B0C504080200000075BA01080100000097
:10317C0000000000E4B204080100000000000000A0
:10318C000000000000000000000000000E00000025
:10319C000000000000000000000000000000000023
:1031AC0061A20108D4170020FBCD00202C000000E8
:1031BC00148F0408FACD002000C80100F8CD0020BF
:1031CC00E803D007010000004D414D424146343127
:1031DC003100000096CD00200003010095CD0020A9
:1031EC0000030100A9A1010881A10108B018002069
:1031FC0049A1010809A1010850190020E9A1010801
:10320C00D1A10108181A00208DA0010849A00108BD
:10321C00381D002085A7010855A70108281E00208D
:10322C0075A20108CDB60108F01E002089380108EE
:10323C0000000000541F00207DB80108E9A7010818
:10324C0030200020F5A3010879A30108E420002018
:10325C002DA5010875A501089C220020ADCF0020EA
:10326C000106010005A301089DA20108F424002019
:10327C0071A40108FDB6010834260020A9A5010897
:10328C00BDB701080028002098CF002001030100E1
:10329C00FCD004080000000000000000000000004A
:1032AC000000000008D10408080000000000000025
:1032BC009C2900200000000010D104080700000029
:1032CC0000000000942900200000000020D1040818
:1032DC000D00000000000000882900200000000004
:1032EC002CD1040803000000F5B901087C2900204A
:1032FC0000000000B0C504080200000075BA010807
:10330C000100000000000000E4B20408010000000D
:10331C0000000000000000000000000000000000A1
:10332C000E00000000000000000000000000000083
:10333C0034D1040800000000000000000000000070
:10334C000000000044D104080A0000000000000046
:10335C00B4B10408000000004CD104080A000000BD
:10336C000000000090BA04080000000054D10408CA
:10337C000A00000000000000B8D00020000000008F
:10338C005CD104080A00000000000000A8290020FD
:10339C0000000000E4B2040801000000000000007E
:1033AC000000000000000000000000000E00000003
:1033BC0000000000000000000000000064D10408C0
:1033CC0000000000000000000000000000000000F1
:1033DC0070D1040803000000F5B90108DC290020B5
:1033EC00000000007CD1040803000000F5B90108BE
:1033FC00D02900200000000084D104080300000044
:10340C00F5B90108C4290020000000008CD1040883
:10341C00050000000000000094CD0020000000001A
:10342C0094D104080700000000000000BC29002013
:10343C0000000000A0D104080700000000000000FC
:10344C00B429002000000000B0C5040802000000F0
:10345C0075BA01080100000000000000E4B2040885
:10346C00010000000000000000000000000000004F
:10347C00000000000E000000000000000000000032
:10348C0000000000ACD104080000000000000000A7
:10349C000000000000000000C0D104080300000080
:1034AC00F5B90108182A002000000000CCD104084E
:1034BC0003000000F5B9010818040020000000000A
:1034CC00D4D1040803000000F5B901080C2A00202F
:1034DC0000000000DCD1040803000000F5B901086D
:1034EC00002A00200000000060B604080300000061
:1034FC00F5B90108F42900200000000034B40408D8
:10350C0003000000F5B90108E829002000000000C4
:10351C00B0C504080200000075BA010801000000E3
:10352C0000000000E4B204080100000000000000EC
:10353C000000000000000000000000000E00000071
:10354C00000000000000000000000000E8D10408AA
:10355C00000000000000000000000000000000005F
:10356C00F8D104080700000045B80108682A0020BB
:10357C000000000078CA040803000000F5B9010837
:10358C005C2A00200000000004D2040803000000A4
:10359C00F5B90108502A0020000000000CD20408E4
:1035AC0003000000F5B90108442A002000000000C7
:1035BC0014D204080700000029B801083C2A002096
:1035CC000000000014B6040803000000F5B901085F
:1035DC00302A00200000000020D204080300000064
:1035EC00F5B90108242A002000000000B0C5040829
:1035FC000200000075BA0108010000000000000084
:10360C00E4B204080100000000000000000000000B
:10361C0000000000000000000E0000000000000090
:10362C00000000000000000031A2010801A2010806
:10363C00702A0020B5A7010800000000102B002004
:10364C00EDA00108D1A001089C2B00200000000077
:10365C0000000000642C002025A6010861B80108B8
:10366C002C2D00202CD204080000000000000000CB
:10367C00000000000000000038D204080300000025
:10368C00F5B90108382E00200000000040D20408D3
:10369C0003000000F5B901082C2E002000000000EA
:1036AC00C8B6040803000000F5B90108202E00205C
:1036BC00000000004CD2040803000000F5B901081A
:1036CC00142E00200000000058D204080300000053
:1036DC00F5B90108082E00200000000060D2040893
:1036EC000200000075BA0108000000000000000094
:1036FC00B0C504080200000075BA01080100000002
:10370C000000000068D204080200000075BA01082D
:10371C000200000000000000000000000E0000008D
:10372C000000000000000000000000000000803FCE
:10373C000000000000000000000000000000803FBE
:10374C000000000000000000000000000000803FAE
:10375C00000000000000000000000000FFFFFFFF61
:10376C00BDCE0308BDCE03080000803FFF00000063
:10377C000000000030F400200800000000000000F1
:10378C0020F4002008000000E0AC04080508040048
:10379C000000000040830408E07904082C8304082E
:1037AC0000000000000000000CAD040805080A0031
:1037BC000000000040830408E0790408C88E040867
:1037CC000000000000000000010102FFFF000000EB
:1037DC00A98E0008898D000835E80008000000005B
:1037EC00C1880008EDE50008018D000855E50008CA
:1037FC0000000000000000007D880008198E000801
:10380C00498D000881E70008000000009588000839
:10381C0059E50008D58C0008A9E400080000000058
:10382C0000000000898800080100000080010000F1
:10383C000800000004000000000000000000000070
:10384C000102030406070809FF00000030300020C5
:10385C00000000000000000000000000000000005C
:10386C00000000000000000000000000000000004C
:10387C00000000000000000000000000000000003C
:10388C00000000000000000000000000000000002C
:10389C00000000000000000000000000000000001C
:1038AC00000000000000000000000000000000000C
:108000002DE9F04F2DED108B034697B004331593F7
:10801000DFEDCACA149002238A4613928B4612934C
:10802000149C4FEADB0604EB461202EB061031010A
:10803000A6EB86034FEAC60806EB4605CDE900012C
:1080400000EBC303043108F10400119620442144DD
:108050002C01C6EBC60C0394EC00119D04944FEA6E
:10806000CC0405946C0106EB860E0294159D009CD1
:1080700003EB46174FEACE0E02EBC6064FEACB09DA
:108080004FF0000C51ED01AAD3ED001A92ED007AE9
:1080900094ED005A96ED004AD7ED007A15ED012ACD
:1080A00050ED016A32EE07BA76EE840A7AEE855A0E
:1080B00031EEA70A3BEE256A70EE804A76EEC46A7E
:1080C00036EE244A36EE646A05ED014A82ED006A16
:1080D000D0ED00BAD6ED012AD3ED019A95ED00AAB4
:1080E00092ED016A97ED013A91ED00CAD4ED014A93
:1080F0007BEEE23A36EEE19A32EE472A73EEE98AF7
:108100003AEE464A39EE279A78EE838AB0EE428AF2
:10811000A9EE6C8ADC44E24573EEC33AB0EE441A31
:10812000A8EEEC1A76EEE77A33EEA97A7CEE643AA2
:1081300077EEA17A3AEE066A7AEEC51A3CEE24AAE8
:1081400074EECC4A39EE833A35EE6A5AF0EE639A11
:10815000F0EE48AAE7EE2C9AA8EEAC4AE7EE2C4ADD
:10816000E7EE6CAAF0EE418AB0EE427AB0EE612AF8
:108170007BEE656A7BEEA22A76EE4A5AA9EE2C7A4D
:10818000A7EEAC2AA7EEAC5AE7EEEC8A32EE83BA41
:1081900076EEC3BA35EEE09A75EEC07A36EE0A6A2C
:1081A00076EEE26A36EE0BAA76EE836A77EEA07A76
:1081B00034EE423A77EE290A36EE4B6A7BEEA22A7B
:1081C00039EE000A73EEAA3A78EE244A37EE697A5D
:1081D00031EE055A71EEA85A32EE044A85ED00AA36
:1081E00082ED016A4D4441ED012A4A44C4ED006A22
:1081F00081ED000AC4ED017A494440ED010A4C4486
:1082000087ED007AC6ED003AC3ED004A80ED003AF2
:1082100087ED014A484486ED015A4F44C3ED015AA7
:108220004E444B443FF62EAF119B072B40F2C781C3
:10823000029D149E019B03980499059A08357519AF
:108240000C330E95354608F108080EF10804EB18BA
:1082500008300831083246442C1928186918AA1821
:10826000079305F10C030D960C940B900A9109925B
:1082700008934FF001084FF0000E129B9E44139B91
:1082800003EBCE0303EBCE02109302EBCE0303EB22
:10829000CE01029101EBCE0101EBCE0505EBCE063E
:1082A000D6ED007A0F93AEEB8E03019106EB03132C
:1082B00003EBCE07D3ED01AACDED067A019BD5EDF8
:1082C000007A97ED01BACDED057AD3ED007A029BE5
:1082D000CDED047AD3ED007A0F9BCDED037A07EB59
:1082E000CE0CD3ED007ADCED01BACDED027A0CEBC9
:1082F000CE01D2ED007A109A009101EBCE0001463A
:1083000091ED01DACDED017A0099D2ED007A91ED8F
:1083100001CA00EBCE0000EBCE0494ED01EAD0EDF3
:1083200001DACDED007ADDE90776DDE90954DDE912
:108330000B01DDE90D23C44602E000BFF304353F25
:1083400094ED009A90ED00FA91ED006AD5ED007A77
:10835000D3ED006A57ED014A92ED005A56ED013A0D
:1083600096ED00AA35EE060A73EEA65A39EE278A74
:1083700034EE8F7A70EE082A75EE87EA35EE465AAB
:108380003EEEA26A73EEE63A06ED016AD1ED019A7D
:10839000D2ED01FAD4ED016AD3ED011A95ED013A5F
:1083A000D0ED018A97ED004A3FEEE96A35EE491AB1
:1083B00076EE660A31EE271A3AEE612A75EE677A92
:1083C00070EE830A3FEEA95A74EECF9A77EE897A5F
:1083D0007AEE211AB0EE42AA74EE68FAA0EEECAA88
:1083E000DC44E24535EEC77AB0EE639A74EE285A63
:1083F00038EEC44AF0EE698AA1EE6C9AE7EEAC8AD8
:1084000036EE436A7FEE644A36EE266AA0EEAC2A68
:10841000F0EE4A0AE7EEEC0AE7EEAC4AF0EE687AD4
:10842000F0EE498A36EE833AE6EE6C8AE1EE2C3ABB
:10843000B0EE6F1AA6EE2C1A71EEE56AA6EE2C4A83
:1084400071EEA55A75EE031A7EEEE22A37EE43FA74
:1084500075EEE1EAB0EE686A76EEC08A39EE044A5B
:108460007FEE86FA76EEC86A33EE816A38EE888A45
:1084700073EEC13A37EE457A2CEE2E1A3FEE055ACE
:1084800022EECC9A9DED03FA70EE266A33EE077A5F
:10849000AFEE221AAFEE2E9A7AEE244A9DED01FA43
:1084A00079EEA09A25EE4BAA72EE670A37EE822A81
:1084B0006BEE087AAFEE08AAEFEE057A2DEEA63A3B
:1084C0009DED05FA67EE6D8AAFEE073AEFEE268A6C
:1084D00066EE6A2A9DED00FA2AEEA00AEFEE202A47
:1084E0006EEE02EADDED060A23EECE5AE0EEA3EAD6
:1084F0002BEEA98ADDED023AAFEE060AA3EE848ADE
:1085000024EE6B7A6DEE246A9DED044A2FEECD6A5F
:10851000A0EE825AA3EEA97AE4EE2F6AA4EE246AB2
:1085200075EEA15AC6ED005A83ED001A83ED019A4B
:108530004E4447ED017A87ED00AA4B4480ED003AA6
:10854000C0ED018A4F4482ED000A4844C2ED012A81
:10855000C5ED00EA85ED015A4A44C1ED006A81ED9E
:10856000016A4D4484ED008A84ED017A49444C440B
:108570003FF6E6AE0E9B08330E930D9B08330D932A
:108580000C9B08330C930B9B08330B930A9B08330B
:108590000A93099B08330993089B08330893079BA8
:1085A00008330793119B08F1010843457FF465AE3A
:1085B000129BDDF844B0DB009BB2129330E517B09C
:1085C000BDEC108BBDE8F08F037830B403B30246E6
:1085D000C0F10105531912F8014FDBB2002CF9D19B
:1085E00001335B00DAB20C4C0B8003232270637002
:1085F000017859B1022300255A1CD2B2E154A55486
:1086000010F8011F0233DBB20029F5D130BC7047EE
:1086100002221346E7E700BF90300020084AD2E963
:10862000403199420AD0D118013391F808110170F4
:10863000C3F30A03C2F800310120704700207047DD
:1086400090300020064AD2F80839D2F80C2993421B
:1086500094BF4FF400600020013B9B1A1844704700
:1086600090300020012380F84D30704707B501A8F5
:10867000FFF7D4FF0028FAD09DF8040003B05DF89E
:1086800004FB044BD3E94003984288BF03F5006321
:10869000181A70479030002001207047024BC3F831
:1086A0001029C3F81419704790300020024BC3F80A
:1086B0001829C3F81C197047903000207047704784
:1086C00030B4134DD5E940239A4286BF03F50064C8
:1086D000A21A9A1A0A44B2F5006F13D8A9B101443C
:1086E0004A1E013810F8014FE918824203F10103D4
:1086F00081F80841C3F30A03F4D1C5F8043100201E
:1087000030BC7047022030BC70470846F8E700BF15
:1087100090300020212838B50C4605D022282ED0D4
:10872000202813D0002038BD0029FBD0072AF9D11A
:108730001A4BD3F8200993F8241993F8252993F8B4
:108740002639206021716271A371EBE70029E9D01D
:10875000072AE7D1114DD5F814391BB10968D5F8AE
:1087600010099847206821796279A379C5F8200912
:1087700085F8241985F8252985F82639D2E70029B6
:10878000D0D0022ACED1054AD2F81C39002BC9D04C
:108790000988D2F818099847C4E700BF9030002034
:1087A000024B0020C3F82809704700BF903000201A
:1087B000044B00200522C3F82829C3F81C09C3F87C
:1087C0001409704790300020704700BF704700BF09
:1087D000704700BF704700BF704700BF704700BFC1
:1087E000704700BF08B50248FFF7EEFE014808BD1C
:1087F0003CB104089030002008B50248FFF7E4FEC1
:10880000014808BD4CB104089030002008B502486A
:10881000FFF7DAFE014808BD58B104089030002087
:1088200008B50248FFF7D0FE014808BD64B104084E
:108830009030002008B50248FFF7C6FE014808BD89
:1088400070B1040890300020042301480B80704769
:108850000000002010B4074A074B92F82C0912249C
:1088600003F114020C8001280CBF184610465DF875
:10887000044B70479030002004000020642301481E
:108880000B8070472C000020432301480B80704769
:108890009000002010B5084CD4F8D400FF2809D06F
:1088A0000649D1F8302901F63411FFF733FFFF23D1
:1088B000C4F8D430002010BD00000020903000200B
:1088C000E8E700BF08B5D0F8E4355B6A98470020B8
:1088D00008BD00BF08B5D0F8E4351B6A98470020F2
:1088E00008BD00BFD0F8E43510B504461B689847B2
:1088F000D4F8E8359B689847002010BD08B5D0F83B
:10890000E435DB6903B19847002008BD08B50422AF
:1089100090F81211D0F8E83580F8131180F8122180
:10892000DB689847002008BD10B5D0F8E83504464C
:108930001B699847032384F81231002010BD00BF43
:108940000B0617D401EB810300EBC30310B400EB5B
:1089500081000124002283F8764383F8741383F89E
:108960007523426D5DF8044B136843F40013002037
:108970001360704701F07F0101EB810300EBC3033B
:10898000012200EB810083F81C1183F81E2183F87B
:108990001D2182691368002B01DA43F0804343F400
:1089A000001313600020704782B000230168019318
:1089B0000B6901930E4B03E00A690192013B13D04E
:1089C000019A002AF8DA019A094B42F00102019259
:1089D000019A0A610A69019203E00A690192013B66
:1089E00002D0019AD207F8D4002002B0704700BF2D
:1089F000400D0300436D064A1A61C278012A06D170
:108A000000F2CC5058614FF0802219681A6070470C
:108A10001800086010B580210446FFF791FF20463A
:108A20000021FFF78DFF2046BDE81040E2E700BFC0
:108A300070B44B78012B26D00B784A6900EB830386
:108A40005C6D25682369D2B18A684A6102F07F02B1
:108A500023F4002323F07F0342F400221343236115
:108A6000C378012B04BF0B696361C5F3076363F02F
:108A70007B0363F31F652560002070BC70478A6824
:108A800002F07F02E4E782694C691568136944B318
:108A90008E68B4428CBF06F07F0404F07F0423F498
:108AA000002323F07F0344F4002443EA040388BF37
:108AB0004E611361C378012B1DD0C5F3076464F0C8
:108AC0007B0464F31F651560002BD5D14B69002B27
:108AD000D2D002690878516B012383400B43536362
:108AE000CAE723F4002323F07F0343F40023136138
:108AF000C378012BE1D10B780C6900EB8300C5F33F
:108B00000763816963F07B0363F31F654C61002099
:108B1000156070BC704700BF2DE9F0434B78012B06
:108B200030D00B784C6900EB83035E6D3568376994
:108B30001CB38B681C44013CB4FBF3F4C4F309027E
:108B400003FB02F3C3F312034B61144643EAC4432D
:108B500063F31C073761C378012B04BF0B69736192
:108B6000CB78012B44D0C5F3076363F07B0363F339
:108B70001F6535600020BDE8F0838A680124C2F3D8
:108B80001203E3E791F800804E6900EB880EDEF8EF
:108B900018C0DCF80050DCF8107076B3D1F80890FB
:108BA000384A06EB0904013CB4FBF9F402EAC44478
:108BB000C6F312022243CC7807F060473A43012CF7
:108BC000174649D0CCF81020C278012A55D0026946
:108BD000516B03FA08F30B435363C5F3076363F068
:108BE0007B0363F31F65CCF800500020BDE8F083E1
:108BF0004B7973B345F00055B5E707F0604747F48C
:108C00000027CC78CCF81070C378012B2FD0012C22
:108C1000E3D102699268D20554BF45F0005545F092
:108C20008055C5F3076262F07B0262F31F65CCF8E2
:108C30000050002B9ED1B0B203308010DEF8D0403F
:108C400098D0CA6852F8041B216001339842F9D1C8
:108C500090E745F0805586E764F35E77CCF81070B6
:108C6000C378012BD5D10A69CCF81420D1E70A6961
:108C7000CCF81420012CB0D1CBE70B69CCF8143020
:108C8000ABE700BF0000F81F38B501EB810400EB33
:108C9000C4040D46002184F87453C4F88C1384F87E
:108CA0007513C4F88833C4F88023C3782821012BB6
:108CB00001FB050108BFEDB201F55D7108BFC4F805
:108CC00084231DB9FFF7B4FE002038BDFFF724FF51
:108CD000002038BD10B501EB8101084A00EBC1014D
:108CE0000446B1F88C131046FFF7EAFC034A20460D
:108CF00040230121FFF7C8FF002010BDCC39002020
:108D0000E8E700BF30B44C780022012C154612D0A1
:108D1000097800EB810401238B40646D63F31F45E8
:108D200001696FF3CF322260CB6923EA050300208B
:108D300030BCCB6170470B7800EB83019C4064F33F
:108D40000F058C69ECE700BF40F2011310B500F588
:108D5000A2710446A0F84431FFF7D4FF0123A4F820
:108D60009C3304F567712046FFF7CCFF4FF4817305
:108D7000A4F86C3104F5B6712046FFF7C3FFFFF786
:108D80000FFD002010BD00BF38B540F203130446AC
:108D90000D46A0F8943100F5CA71FFF7B3FF2946DC
:108DA0002046FFF7D1FF002038BD00BFF0B44B785C
:108DB0000A78012B4FF0000400EB820524D0012338
:108DC00093406D6D63F31F442E68330415D48A6895
:108DD00091F803C0CF880F49C2F30A0242F08053D2
:108DE00043F400430CF0030243EA824307F00F020E
:108DF00043EA825331400B432B600369DA69144321
:108E0000DC610020F0BC70479340AD6963F30F0450
:108E1000DAE700BF007833EC2DE9F04140F20113AE
:108E2000044602254FF0400801270026A0F84431EF
:108E3000C0F84C8180F84751A0F84A7180F8486129
:108E400000F5A271FFF7B2FF04F56771A4F89C73F7
:108E5000C4F8A48384F89F5384F8A0632046FFF7E6
:108E6000A5FF082203234FF48171C4F87421A4F8EC
:108E70006C1184F86F3104F5B671A4F87251204674
:108E8000FFF794FF064B9D83FFF792FC054A43468C
:108E900020463946FFF7F8FE3046BDE8F08100BFB6
:108EA00000000020CC39002070B50323082240F2D6
:108EB000031604460D46C0F89C2180F89731A0F8AF
:108EC0009A31A0F8946100F5CA71FFF76FFF294647
:108ED0002046FFF7A1FF002070BD00BF70B5002540
:108EE00040260446A0F8745380F87753C0F87C639A
:108EF00000F55D71FFF75AFF4FF48073A4F81C3141
:108F000004F58E71C4F8246184F81F51A4F822512D
:108F10002046FFF74BFFD4F8E835A078012284F80B
:108F200012215B689847284670BD00BF82B00023BD
:108F30000193019A094B42F010020192C168019A13
:108F40000A610A69019203E00A690192013B02D0B9
:108F5000019AD206F8D4002002B07047400D0300F9
:108F600082B000230193019A0B4B42F02002019240
:108F7000019A61F38A120192C168019A0A610A6931
:108F8000019203E00A690192013B02D0019A920624
:108F9000F8D4002002B07047400D03000E4BDA6891
:108FA000D20310D4DA68D1060FD4DA68D20510D40F
:108FB000DA6812F0E00F0AD1DB6813F0020F14BF79
:108FC00008200920704701207047062070470720BD
:108FD00070470220704700BF003C024030B1044B94
:108FE00093F97C090028D4BF00200120704700BFFE
:108FF0009030002008B5FFF7F1FF18B1024BD3F80D
:1090000080390B8008BD00BF9030002008B5FFF705
:10901000E5FF18B1024B93F884390B7008BD00BF0F
:109020009030002008B5FFF7D9FF80B10B4BB3F8A3
:10903000863963B1192B0BD9642B0BD9C82B0BD9EB
:10904000B3F5C87F94BF0323042301330B7008BD1D
:109050000023FAE70123F8E70223F6E79030002027
:1090600010B5FFF7BBFF48B1064B93F8884934B9F8
:1090700093F889490C7093F88A39137010BD002455
:10908000F8E700BF903000200420704728B1034B60
:1090900093F9D800003818BF012070470000002065
:1090A00008B5FFF7F3FF50B1054B93F9D820022A1A
:1090B00003BF93F8DB30C3F340030B70002008BDFF
:1090C0000000002008B5FFF7E1FF80B10C4A92F9DB
:1090D000DA3092F9D820012A0ED1272B08DC182B80
:1090E00008DC0F2BD4BF0023012301330B7008BD14
:1090F0000323FAE70223F8E70133DBB2F6E700BF08
:109100000000002010B5FFF7C1FFC0B10D4C94F86E
:10911000DB30DB0714D494F9D930002BB8BF073308
:10912000DB100133DBB20B7094F9D930594201F0F6
:10913000070103F0070358BF4B420133137010BD02
:109140000023F0E70000002003207047F0B5174A25
:10915000D2F88C5992F88B3915F0005514BF0427BA
:1091600006275C1CB4FBF7F607FB164692F89079CD
:10917000BE420CD01EB2DB0055B102F694152B4452
:1091800004F0030445F8360082F88B495960F0BDBD
:1091900002F6B4152B4445F8360059600621B4FB9D
:1091A000F1F301FB134482F88B49F0E79030002083
:1091B000002230B504461046914200DC30BDA35C6D
:1091C0000825584010F0800F4FEA400318BF83F085
:1091D000D503013DD8B2F5D10132EDE710B5E9B1C3
:1091E0000F4C94F9D820CAB14B1EDBB2032B15D813
:1091F000012A0C4A0C484FEAC30313444FF00501FF
:109200000CBF1B799B7984F8E430FFF7D1FF06216E
:1092100084F8E500BDE81040034897E710BD00BFA3
:10922000000000204C760408E0000020074A92F875
:10923000E43992F8E5190133DBB2994282F8E43956
:1092400004BF002382F8E439704700BF903000204B
:10925000F8B5794CD4F8E83973B194F8EC395BB1CE
:10926000764B94F8ED29A3FB0013012A4FEA9313E0
:1092700030D0022A08D002B1F8BD714B9842FBD918
:10928000012384F8ED39F8BDD4F8F02964329A420C
:1092900040D894F8E43904EB031393F8102DFF2A17
:1092A00006D068490132012083F8102D81F8E600CC
:1092B000FFF7BCFF94F8043D0122092B84F8ED2947
:1092C000DAD1B4F8AA3D13449BB2A4F8AA3DA4F89D
:1092D0000A3DF8BD94F8E419C4F8F03901EB4103F4
:1092E00004EB4313002594F8040D84F8025A0A2570
:1092F00084F8035A092804F6F81583F8182A4FF061
:109300000203C4F8F45984F8ED39B5D10131A4F859
:10931000081DF8BD94F8022A94F8033A9A42ABD19A
:1093200004F6F71004F52065002310F8012F08213A
:1093300053405A0013F0800F08BF5B0082F0070211
:1093400014BFD3B2DBB20139F3D18542EDD194F829
:10935000012A9A4238D194F8E46994F8FF79B4F874
:10936000FB59B4F8FD0994F8003A94F8F9C904EBF4
:10937000061240BA43EA07236DBA94F8FA7982F8E4
:10938000101DADB281B294F8040DC2F8145DC2F89C
:10939000181D2C4D94F9F81982F8111D47EA0C2775
:1093A0001BB2A2F8127DA2F81C3D0C284FF001025E
:1093B00085F8E6202AD00D2803D104EB4606A6F84E
:1093C000081DFFF733FF5BE794F8E43904EB031360
:1093D00093F8102DFF2A06D01A490132012083F894
:1093E000102D81F8E600FFF721FF94F8043D0122DB
:1093F000092B84F8ED297FF43FAFB4F8A83D13445E
:109400009BB2A4F8A83DA4F80C3DF8BD94F8A61DA5
:1094100003EB830302F1663203EB830349089B00ED
:1094200004EB460693FBF1F382FB0312DB17C3EB5D
:10943000A203A6F8083DC4E790300020D34D621087
:109440003F4B4C00000000200B4B93F8021A93F89E
:10945000032A91420ED010B493F8022AD3F8F449AB
:10946000511CD2B2C0B2C9B283F8021AA0545DF83E
:10947000044B7047704700BF903000200C4AD2F870
:10948000C03D30B41C68D2F8B85D5D60198100251C
:10949000611C19609D812070D2F8C03DD2F8B81DC2
:1094A0001A685A604FF6F67230BC19609A8170479C
:1094B0009030002000285FD00368374A2DE9F04142
:1094C00003F13F4404F57E0402EB9422012492F858
:1094D000202002F01F055209032A04FA05F456D091
:1094E000042A4FD0022A48D08588B5FA85F0C0F109
:1094F0001F00C0F3CC0603EB860600F007008200D5
:109500000F24306A944020EA04003062306A01FA85
:1095100002F20243002132624FF0010E0A464FF080
:10952000030C02270EFA02F838EA050002F10102E4
:109530001CD118680CFA01F420EA040018601868BD
:1095400007FA01F606431E609E6826EA04069E603E
:1095500098689860586820EA080058605868586011
:10956000D86820EA0400D860D868D860102A01F1D1
:109570000201D7D1BDE8F0817047084A556C2C43F1
:109580005464B1E7054A156B2C431463ACE7034AF6
:10959000156C2C431464A7E74C760408003802408D
:1095A00038B53D4CD4F8CC3D05460BB11D22DA80D0
:1095B0001846092135F012FFD4F8CC0D36F0B4F876
:1095C00094F8D23D013B5BB2022BD6BF04EB0313F0
:1095D0000020D3F8D40DC4F8C80D0223102184F85C
:1095E000C43D39F033F840210A2038F0AFF9FF21AB
:1095F0008A2038F0ABF994F8D02DC0F38011012AFD
:1096000084F8041E00F040033BD0022A234B34D0E0
:109610007AB394F8042D1A2A07D1B3F8E820A4F8F5
:10962000085DA4F80A1DA4F80C2DB3F8E810D4F8CE
:10963000C80D39F00BF8D4F8CC0D36F06FF80221D4
:10964000002038F083F9D4F8CC0D36F06DF894F89A
:10965000092E94F80A3E94F8081E84F8051EC2F1FB
:109660002002C3F1100384F80B2E84F80C3E012075
:1096700038BD1022A3F8E820CBE70822A3F8E820A1
:10968000C7E725B90822054BA3F8E820C1E7002B5E
:1096900014BF08221022F6E79030002000000020BE
:1096A0002DE9F0412DED028B0128564E82B00D467A
:1096B0005DD0554FD6F8BC23B6F8C0330092ADF854
:1096C0000430A7F10408D6F8EC339FED508ABDF8BA
:1096D00000204F494F4CC8F8001007EE903AB4FBF9
:1096E000F3F4F8EE677A27EE888A82B194420ED3BB
:1096F000002D73D0012D0AD107EE902A1946464B52
:10970000C8F80030B8EE670A384636F0C5FFBDF835
:10971000023093B19C4210D3002D4BD0012D0CD1BF
:1097200007EE903A3C4AD6F8EC13C8F80020B8EEA1
:10973000670A07F1240036F0AFFFBDF80430A3B389
:109740009C4232D3F5B1012D2FD107EE903A324A27
:10975000D6F8EC13C8F80020B8EE670A07F1480005
:1097600002B0BDEC028BBDE8F04136F095BF2B4F47
:10977000D6F8C223B6F8C6330092ADF80430A7F18C
:109780000408A0E707EE903ADFED256A254AC8F8FD
:109790000020F8EEE77A002386EEA77ABB6477EE26
:1097A000087A88EE277A87ED137A02B0BDEC028B37
:1097B000BDE8F08107EE903ADFED196A194BC8F861
:1097C0000030F8EEE77A002386EEA77A7B6277EE28
:1097D000087A88EE277A87ED0A7AAEE707EE902AB4
:1097E000DFED0F6A0F4BC8F80030F8EEE77A002380
:1097F00086EEA77A3B6077EE087A88EE277A87EDC7
:10980000017A84E7884100205C3F0020BD3786351F
:10981000BDCE030820A107000DCE0308CC3F0020D9
:1098200083F9223EA1CE0308F8B51A4D95F8FC3312
:10983000002BFBD161B30144174F4E1E441ED7F8D5
:109840000C29D7F8081914F801CF531CC3F30A03E5
:109850008B422CBF4FF400600020C91A2A440144F7
:109860000129C7F80C3982F800C40FD1012035F066
:10987000B9F8D7F80839D7F80C198B4294BF4FF4D0
:10988000006200225B1A1344012BEFD0B442D6D100
:109890000020F8BD88410020903000200A4B084687
:1098A000D3F8281910B569B1D3F82839052B09D197
:1098B000064C002AD4F8003C04DD1146FFF7B4FF43
:1098C000D4F8003C10BD00BF90300020884100203B
:1098D00010B590F84C10002380F84C3089B10C4C36
:1098E000D4F828297AB1D4F82829052A0DD1094CB1
:1098F0003830D4F8003CFFF797FFD4F8003C012043
:1099000010BD0120FCE71046FAE71846F8E700BF53
:109910009030002088410020002280F84D20D7E7B9
:1099200090F84C20531C0244DBB280F84C3082F893
:10993000381090F84D200AB1132B00D9C8E77047B2
:10994000F8B5124C0546D4F8040C90F834301E3BA0
:10995000012B02D9002135F09BFA0D4F0026AE42B3
:10996000D4F8040C0CDB002135F092FAD4F8003C5A
:10997000C4F8283CB4F82C3C0133A4F82C3CF8BDC6
:1099800017F8011B35F084FA0136E8E7884100201A
:10999000904D002070B5124C94F8903900EBC30242
:1099A0000D4650F8331050680E4A0023984212DCDE
:1099B0008B780D4A5B0882F8403CC2F83C0CFFF7FC
:1099C000BFFF94F890190131B1FBF5F305FB1311BA
:1099D00084F8901970BDCE5C02F8016B0133E5E7A5
:1099E00090300020904D002088410020094890F8D8
:1099F0008B2990F890399A420BD0D0F88C399B0083
:109A000003D5042100F69410C4E7062100F6B41033
:109A1000C0E77047903000202DE9F84F194C0546FB
:109A2000202094F8429C94F843AC94F8446CB4F829
:109A3000468CB4F848BC94F84A7C1CF081FD50B1C7
:109A400020201FF061FE30B1BBF1000F03D0D846DB
:109A500001264FF0000994F84C3CDB0705D427B1F0
:109A600094F8533C002B08BF012685F8009085F838
:109A700001A0AE70A5F80480A5F806B02F722846A4
:109A8000BDE8F88F8841002070B5FD2982B000F054
:109A9000BB80F02900F0A580EF2901D102220C2122
:109AA000A24B0B2403F1090501E013F8014F8C428E
:109AB00000F0A880AB42F8D1851804460346002286
:109AC00001A803F8012BAB4200F8012BF9D14B1E82
:109AD000832B00F28980DFE813F09A00A000AB002E
:109AE000BB00CA00D100DE00E700F4008700870059
:109AF000FE00FE00FE001B011B011B01F40087009D
:109B0000870033013B0187008700870087008700BB
:109B1000870087008700870087008700870087000D
:109B200087008700870087008700870087008700FD
:109B300087008700870087008700870087008700ED
:109B400087008700870087008700870087008700DD
:109B500087008700870087008700650187008700EE
:109B600087008700870087008700870087008700BD
:109B700087008700870087008700870087008700AD
:109B8000870087008700870087008700870087009D
:109B9000870087008700870087008700870087008D
:109BA000870087008700870087008700870087007D
:109BB000870087008700870087008700870087006D
:109BC000870087008700870087008700870087005D
:109BD00087008700870087008700870087006A0169
:109BE0006A01022203215BE79DF8043004F8013B7F
:109BF000A5420DF1050205D012F8013B04F8013B26
:109C0000A542F9D102B070BD02220B2148E74FF402
:109C1000C873ADF804309023E8E7454BD3ED037AE1
:109C2000FDEEE77A17EE903AADF80430DBB2DDE7EF
:109C3000404AB2F8743C92F8871C03EB83035B0044
:109C40009BB20029F0D092F8982CB3FBF2F3EBE72B
:109C5000384AB2F8743C92F8982CB3FBF2F303EB59
:109C600083035B00ADF8043003F0FE03BEE7314B25
:109C7000D3F8C03CADF80430DBB2B7E72D4BB3F8F6
:109C8000B42C002A00F0968029F012FD80B2ADF8C5
:109C90000400C3B2AAE7274E96F84C3CDA0700F15D
:109CA0008F80B6F8B43CBFE7224A234BB2F9081DB7
:109CB00083FB0132CB17C3EBA203ADF80430DBB258
:109CC00094E71C4BD3F80C3D13F0140F8CD00023F9
:109CD000ADF804308AE7174BDFED186AB3F8E42CCF
:109CE0000C39C9B207EE102A03EB810303F54F6369
:109CF00093ED016AB8EEC77AC6EE077A67EEA67AE8
:109D0000FDEEE77A17EE903AADF80430DBB26DE77E
:109D1000084B03EB4101B1F8E63C03EB83035B0026
:109D2000ADF8043003F0FE0360E700BF747604086A
:109D3000244E0020884100206766666600007A4451
:109D40002A4B93F84C3C03F00103ADF804304DE787
:109D5000264BB3F8CC2C13075ABFD34303F00103AF
:109D6000022312F4807F18BF032302F0280112F0AF
:109D7000440F18BF0423282908BF052312F0100F31
:109D800018BF062312F0020F18BF072312F0200F8E
:109D900018BF082312F4806F18BF0923ADF80430F0
:109DA000DBB223E74FF04863019300231EE7002353
:109DB00001931BE7D3F8C83C83F3100398B266E71E
:109DC00006F69C461FF042FDD6ED037AFCEEE77ADC
:109DD00017EE903A9BB200287FF426AF044AD2F8DF
:109DE0008C2912F0100F18BF00231DE788410020B6
:109DF0009030002000F01F0240090123032803FADD
:109E000002F304D004280CD0022805D07047074A7A
:109E1000116C0B4313647047044A516C0B43536439
:109E20007047024A116B0B431363704700380240BE
:109E3000002845D003682A4A03F13F4101F57E011D
:109E400002EB9122F0B592F8202002F01F04520993
:109E50000121032A01FA04F13DD0042A36D0022A56
:109E60002FD00022B0F804C011460126032706FABD
:109E700001FE3EEA0C0001F101011CD11D6807FA48
:109E800002F425EA04051D60186806FA02F5054388
:109E90001D609D6825EA04059D6098689860586873
:109EA00020EA0E00586058685860D86820EA04001C
:109EB000D860D868D860102902F10202D7D1F0BD6D
:109EC0007047084A546C21435164CAE7054A146B31
:109ED00021431163C5E7034A146C21431164C0E7B1
:109EE0004C760408003802402DE9F04700230F6843
:109EF00001264FF0030C02E00133102B41D006FA8B
:109F000003F232EA0704F7D1D0F800E05C000CFA63
:109F100004F52EEA050EC0F800E091F80490D0F8A0
:109F200000A009FA04FE09F1FF394EEA0A0EB9F160
:109F3000010FA846C0F800E06FEA050515D8D0F873
:109F400008E005EA0E0585604D79D0F808E0A540E7
:109F500045EA0E058560456825EA020242608A7975
:109F600045689A4092B22A434260C26822EA0802D7
:109F7000C260CA79C568A24001332A43102BC2606F
:109F8000BDD1BDE8F08700BF00487047F84E002003
:109F90000E4B30B4DB68427801780D4CDB43C3F3E1
:109FA0000223C3F10403DBB202FA03F360181B01BE
:109FB00001F01F050122490903F0F003AA4080F8CF
:109FC000003344F8212030BC704700BF00ED00E0B2
:109FD00000E100E02DE9F047484E96F8981E04464F
:109FE000C1F34001D6F8A00E35F0A4FB96F8981EF8
:109FF000D6F89C0EC94301F0010135F09BFB002C03
:10A0000060D0671EDFF8F8A0FFB24FF001094FF0F3
:10A010000008D6F8A03E33B11A689B8851690B42FC
:10A0200014BF53831383D6F89C3E33B11A689B88C0
:10A0300051690B4214BF53831383B6F8A83E002B1B
:10A0400042D196F8AA1ED6F8AC0E35F073FBFA256D
:10A0500034F04CFC044634F049FC031BB3F57A7F22
:10A06000F9D3013DF4D1D6F8A03E33B11A689B88EC
:10A0700051690B4214BF53831383D6F89C3E33B10E
:10A080001A689B8851690B4214BF53831383B6F837
:10A09000A83E43BB96F8AA1ED6F8AC0E81F001018B
:10A0A00035F048FBFA2534F021FC044634F01EFC60
:10A0B000031BB3F57A7FF9D3013DF4D1013FFFB221
:10A0C000FF2FA6D1BDE8F087D6F8C43E002BBED046
:10A0D000D6F8B02EB6F8C83EBAFBF3F35B101360A7
:10A0E00086F8C19EB3E7D6F8C43E002BDAD0D6F886
:10A0F000B03EC3F8008086F8C18ED3E788410020C7
:10A1000040420F002DE9F047464EDFF81CA196F8BB
:10A11000981ED6F8A00EC1F3400135F00BFB96F85F
:10A12000981ED6F89C0EC94301F0010135F002FBE0
:10A1300005274FF001094FF00008D6F8A03E33B1D3
:10A140001A689B8851690B4214BF53831383D6F856
:10A150009C3E33B11A689B8851690B4214BF5383EC
:10A160001383B6F8A83E002B4DD196F8AA1ED6F858
:10A17000AC0E35F0DFFA322534F0B8FB044634F08B
:10A18000B5FB031BB3F57A7FF9D3013DF4D1D6F8C3
:10A19000A03E33B11A689B8851690B4214BF5383A8
:10A1A0001383D6F89C3E33B11A689B8851690B42E1
:10A1B00014BF53831383B6F8A83ECBB996F8AA1EF2
:10A1C000D6F8AC0E81F0010135F0B4FA322534F046
:10A1D0008DFB044634F08AFB031BB3F57A7FF9D379
:10A1E000013DF4D1013F17F0FF07A6D1BDE8F0878C
:10A1F000D6F8C43E002BE9D0D6F8B03EC3F80080B4
:10A2000086F8C18EE2E7D6F8C43E002BB3D0D6F86C
